:020000040800F2
:10000000009000205D370108E7A60008E5A600087B
:1000100000000000000000000000000000000000E0
:10002000000000000000000000000000E3A600083F
:100030000000000000000000E1A60008D9A60008AA
:10004000AD370108AD370108C1A60008AD3701087A
:10005000AD370108AD370108B7A60008ADA6000806
:10006000AD3701089DA600088DA60008AD37010830
:10007000AD370108AD370108AD370108AD370108CC
:10008000AD370108AD370108AD370108AD370108BC
:10009000AD370108AD370108AD37010865A6000886
:1000A000AD370108AD370108AD37010855A6000886
:0C00B000AD370108AD370108AD3701087D
:1000BC0010B5064C2378002B07D1054B002B02D032
:1000CC00044800E000BF0123237010BD7000002025
:1000DC0000000000B4660108044B10B5002B03D0DF
:1000EC000349044800E000BF10BDC04600000000FA
:1000FC0074000020B46601080C2310B504785C432E
:10010C00034B1B195C68002C01D09B68A04710BDE9
:10011C00108A01081FB50291002101AB18700A006A
:10012C0018000391FFF7E8FF05B000BD30B50C00D7
:10013C0011000122050085B001A882605A000570EB
:10014C004460FFF7D9FF05B030BD836910B50400DA
:10015C00002B0AD0124B1A0030321278002A04D02D
:10016C005B6B104A104901209847E369002B0AD0B9
:10017C000B4B1A0030321278002A04D05B6B0B4AFE
:10018C0009490120984763690120002B06D0044BD4
:10019C0000205B6B064A04499847002010BDC046FE
:1001AC00D805002068CA010879CA01088FCA01085D
:1001BC009ECA01087047704710B50400C26B816B72
:1001CC00236C006998470022A36B5A6110BD4269E9
:1001DC00036910B5934207D1114B00205B6B114A98
:1001EC0011499847002010BD8469002C07D00C4B96
:1001FC0000205B6B0D4A0C4998470020F3E7C3695C
:10020C0004339A4207D0064B20005B6B084A064920
:10021C0098472000E7E7006883689847E3E7C04603
:10022C00D8050020C5CA0108F1CA010815CB010880
:10023C0035CB0108012310B5C26900681370C3687F
:10024C00984710BDF0B5C6460F008B2100B5C90507
:10025C000600181C1C1C950810F044FC002180465C
:10026C00201C11F055F900280FD1BF21090640467A
:10027C0010F08CF911F02CFB04B23000AA00BA1863
:10028C00BA4205D104BC9046F0BDFC218905EEE7CD
:10029C000023FE5E0023C55EAD1B6543EB171B05FB
:1002AC001B0D5B191B139B193B800223C55E02239C
:1002BC00FE5E0430AD1B6543EB171B051B0D5B1974
:1002CC001B139B197B800437DAE7836910B5040094
:1002DC00002B0AD00E4B1A0030321278002A04D0B0
:1002EC005B6B0C4A0C4901209847E369002B0AD040
:1002FC00074B1A0030321278002A04D05B6B074A85
:10030C0005490120984720688368984710BDC0466E
:10031C00D805002068CA01085CCB01088FCA010807
:10032C0070B50400436A4569826B19680069E36B18
:10033C009847287020684368984770BDF8B5050049
:10034C000C001348111C10F0FFFC114910F0B8FA06
:10035C00C7210906071C10F0C5FB11F0B9FA0D49AD
:10036C0006B2381C10F0BEFB11F0B2FA640864003F
:10037C0000B22C19A54201D10020F8BD0023EA5E81
:10038C00904202DD02359642F4DB0120F5E7C046CF
:10039C000000C84200FEFF460369426910B5040024
:1003AC00934207D0134B00205B6B134A13499847B9
:1003BC00002010BD8369002B0AD00E4B1A0030327E
:1003CC001278002A04D05B6B0D4A0C490120984727
:1003DC00E369002B0AD0074B1A0030321278002A3E
:1003EC0004D05B6B074A0549012098472068836855
:1003FC009847DEE7D805002075CB01089DCB010896
:10040C0068CA01088FCA010810B50400836B9847AD
:10041C0020684368984710BD836910B50400002B11
:10042C000AD00E4B1A0030321278002A04D05B6BC3
:10043C000B4A0C4901209847E369002B0AD0074B63
:10044C001A0030321278002A04D05B6B064A054938
:10045C000120984720688368984710BDD805002074
:10046C0068CA0108B8CB01088FCA010870B504002E
:10047C00416A028F438F0968E56B0069A8472068C1
:10048C004368984770BDF0B54F464646D646C0B552
:10049C001F00154B1600984601235B42994600231A
:1004AC0004009A464D086D004519AC4204D11CBCA1
:1004BC0090469946A246F0BD0C4B20889C46604461
:1004CC007843310010F0CAFE80231B02C01803D5FC
:1004DC00534623800234E8E7404502DD4B46238037
:1004EC00F8E72080F6E7C046FFFF00000080FFFF22
:1004FC00836B244A10B5040093420BD10369426903
:10050C0093421ED0204B00205B6B204A2049984719
:10051C00002010BD1F4A93420BD1036942699342DC
:10052C000FD1194B00205B6B1B4A194998470020CF
:10053C00EFE7154B00205B6B184A154998470020D4
:10054C00E7E7A369002B0AD00F4B1A003032127860
:10055C00002A04D05B6B124A0D4901209847E369CD
:10056C00002B0AD0084B1A0030321278002A04D023
:10057C005B6B0C4A064901209847206883689847B2
:10058C00C7E7C046811D0008D805002075CB0108BF
:10059C00DACB01083B1E0008EBCB010820CC01088C
:1005AC0068CA01088FCA010810B50400836B98470C
:1005BC0020684368984710BD0369426910B5040070
:1005CC00934207D0134B00205B6B134A1349984797
:1005DC00002010BD8369002B0AD00E4B1A0030325C
:1005EC001278002A04D05B6B0D4A0C490120984705
:1005FC00E369002B0AD0074B1A0030321278002A1C
:10060C0004D05B6B074A0549012098472068836832
:10061C009847DEE7D805002075CB010835CC0108DA
:10062C0068CA01088FCA010810B50400836B98478B
:10063C0020684368984710BD836910B50400002BEF
:10064C000AD00E4B1A0030321278002A04D05B6BA1
:10065C000B4A0C4901209847E369002B0AD0074B41
:10066C001A0030321278002A04D05B6B064A054916
:10067C000120984720688368984710BDD805002052
:10068C0068CA01084DCC01088FCA010810B5436A2D
:10069C00826B00681A604368984710BD836910B577
:1006AC000400002B0AD00E4B1A0030321278002AAC
:1006BC0004D05B6B0B4A0C4901209847E369002B73
:1006CC000AD0074B1A0030321278002A04D05B6B28
:1006DC00064A05490120984720688368984710BD51
:1006EC00D805002068CA01085ACC01088FCA010835
:1006FC00F0B5002652080400064D90000918043984
:10070C00013A00D2F0BD5300E35E4E805B106B40AB
:10071C000B80F4E700C0FFFF70B55308064D5B007B
:10072C00023B9C1C03D103339A43100070BDC45E82
:10073C0064106C40CC52F3E700C0FFFF520813006A
:10074C0030B5013B01D2900030BD5C00045B9D00D4
:10075C0024034C51F5E7F8B54746CE4680B5070063
:10076C009408E6008D19A400043C083D231D04D117
:10077C0030000CBC90469946F8BD3B190220185E1F
:10078C0011F0C6F8E621890510F0ACF98046385F07
:10079C0011F0BEF8E621890510F0A4F9002181467C
:1007AC00404610F09FF9011C48460FF0EFFE4346FF
:1007BC0028606B60D8E7F8B54746CE46884680B5CA
:1007CC00150007009408A400043C231D06D1280042
:1007DC00032398430CBC90469946F8BD3E59B0B2E1
:1007EC0011F096F8DE21890510F07CF98146301461
:1007FC0011F08EF8011C48460FF0C8FE4346185104
:10080C00E2E710B553085B00023B9C1C03D1033399
:10081C009A43100010BDC45A6400CC52F4E78369AB
:10082C0010B50400002B0AD00E4B1A00303212788F
:10083C00002A04D05B6B0C4A0C4901209847E369F1
:10084C00002B0AD0074B1A0030321278002A04D041
:10085C005B6B074A054901209847206883689847D5
:10086C0010BDC046D805002068CA01086CCC010830
:10087C008FCA010810B50400436A828F1968006999
:10088C00A36B984720684368984710BD836910B5DF
:10089C000400002B0AD00E4B1A0030321278002ABA
:1008AC0004D05B6B0B4A0C4901209847E369002B81
:1008BC000AD0074B1A0030321278002A04D05B6B36
:1008CC00064A05490120984720688368984710BD5F
:1008DC00D805002068CA01087ECC01088FCA01081F
:1008EC0010B50068C368984710BD10B5FFF7F8FF46
:1008FC0010BD10B5FFF7F4FF10BD10B5FFF7F0FFFA
:10090C0010BD10B5FFF7ECFF10BD10B5FFF7E8FFF9
:10091C0010BD10B5FFF7E4FF10BD10B5FFF7E0FFF9
:10092C0010BD10B5FFF7DCFF10BD70B50400456AB3
:10093C0041692A68A36B006998472860206843685E
:10094C00984770BD10B5FFF7F0FF10BDC36A10B526
:10095C00002B02D014305B6B984710BD826910B528
:10096C00002A0FD048235A43074B483A1B689B1860
:10097C001A0040321278002A01D141331A70043027
:10098C00FFF7E4FF10BDC0468C00002070B5036B70
:10099C0085691B6B416828009847074B041E05D1DD
:1009AC005B6B064A06499847200070BDDB69002B3B
:1009BC00FAD028009847F7E7D80500208ACC010820
:1009CC00AACC01080020704710B5024BDB68984791
:1009DC0010BDC046D805002010B5040040690028A1
:1009EC0003D0FFF7F1FF0023636110BD10B50400C5
:1009FC004069002803D0FFF7E7FF0023636110BDB7
:100A0C0070B504680500002C0AD0606FFFF7A6FFD4
:100A1C00EA239B00E058FFF7D7FF2000FFF7D4FF35
:100A2C002800FFF7D1FF70BD70B504680500002CDD
:100A3C000AD0606FFFF792FF2300FC33D869FFF7F1
:100A4C00C3FF2000FFF7C0FF2800FFF7BDFF70BDFC
:100A5C0010B5024B9B69984710BDC046D8050020C5
:100A6C0010B5024B5B69984710BDC046D8050020F5
:100A7C0070B5856904002800FFF7F2FF482169432F
:100A8C000D4B48391B68E06A5918236BA66B9B68A1
:100A9C009847002804D12800FFF7DAFF002070BD2A
:100AAC002000236B31005B69183098470028F2D086
:100ABC000123E370F3E7C0468C00002070B5856B12
:100ACC00042D08D9334B344A5B6B344900209847CA
:100ADC000024200070BD042D13D12E4BDC69002C9A
:100AEC0005D15B6B2E4A2D4920009847F1E702791E
:100AFC00032A06D15B6B2B4A284900209847002417
:100B0C00E7E7C38F162B07D9224B274A5B6B234988
:100B1C00002098470024DCE7838F013B9BB23E2BDF
:100B2C0007D91C4B214A5B6B1C49002098470024B9
:100B3C00CFE70379002D09D1032B15D1154B1C4A96
:100B4C005B6B1649280098472C00C2E7032B0BD18E
:100B5C0003004E331C78002C06D10E4B154A5B6BF0
:100B6C000E4920009847B4E704239D4303D10300AA
:100B7C0001224E331A70323003780124062BA8D090
:100B8C00092BA6D0034B0C4A5B6B044900209847F9
:100B9C0000249EE7D8050020B9CC0108D1CC01086F
:100BAC00E4CC010823CD010865CD010899CD0108DD
:100BBC00EBCD010827CE010867CE010810B5040063
:100BCC000120002C0AD1074A130030331B78002B6C
:100BDC0005D0536B0449054A9847200010BD1800F6
:100BEC00FCE7C046D8050020D1CC01087BCE01081B
:100BFC0010B50400FFF7E2FF002801D04E34207836
:100C0C0010BD10B50400FFF7D9FF002801D04934FE
:100C1C00207810BD70B504000D00FFF7CFFF002841
:100C2C0001D06834258070BD10B50400FFF7C6FFF5
:100C3C000023984201D068342388180010BD10B5E9
:100C4C000400FFF7BBFF0023984201D060342388D7
:100C5C00180010BD70B504000D00FFF7AFFF0028A1
:100C6C0001D00634E58770BD70B504000D00FFF7A8
:100C7C00A5FF002801D00434E58770BD10B5040031
:100C8C00FFF79CFF0023984201D00434E38F180037
:100C9C0010BD70B504000D00FFF790FF002801D0C7
:100CAC000234E58770BD10B50400FFF787FF002301
:100CBC00984201D00234E38F180010BD10B5040027
:100CCC00FFF77CFF00280BD02079032808D810F000
:100CDC0027FA02020505FF20C00510BDA068FCE73D
:100CEC000048FAE70000C07F10B50400FFF766FF6C
:100CFC000023984200D02379180010BD10B50400D1
:100D0C00FFF7F2FF01280CD02000FFF7D7FF011CE2
:100D1C0005480FF0D5FD04490FF038FC10F022FC0B
:100D2C0010BDFA20C000FBE70000FA4410B5040027
:100D3C00FFF744FF0023984201D0A38FDBB21800C9
:100D4C0010BD10B50400FFF739FF002801D048345E
:100D5C00207810BD10B50400FFF730FF002801D03B
:100D6C004734207810BD10B50400FFF727FF00238F
:100D7C00984200D0A36B180010BD10B50400FFF70B
:100D8C001DFF002801D00123237110BD10B50400F4
:100D9C00FFF714FF0023984200D0E368180010BD41
:100DAC00F0B5DE464E4657464546E0B5040089B0E0
:100DBC000800894603939346FFF7E8FF0600484670
:100DCC00FFF7FCFE00230193984203D04B464C33B3
:100DDC001B880193482248235242924673439A44FB
:100DEC00524B002198461B6853441A004232117032
:100DFC004F4959640399A163190041310978029153
:100E0C00002956D111704A4A30005A64FFF728FE67
:100E1C00236BA0695B689847051E2CD005AF310089
:100E2C000B20FFF777F90C220299380012F002FF21
:100E3C003F4B20007B6043461B68039953441A00C8
:100E4C00236B1830DD683B00A847051E29D04346AC
:100E5C0001221B68534441331A70344B39781B6898
:100E6C000C2053441A00423211707A6831005A64D3
:100E7C00FFF750F905E02F4B2F4A5F6B2F493300DA
:100E8C00B8473000FFF7E4FD002D12D1201DFFF70D
:100E9C005DFD280009B03CBC90469946A246AB4685
:100EAC00F0BD244B264A5B6B244998463300C0475F
:100EBC00D3E7019B002B34D14846FFF7A2FE002854
:100ECC0023D01423A7695B4438009A46FFF7C8FD6A
:100EDC00A36B48219946182379439846134B4839FC
:100EEC001B68E06A5918236BA0449B689847051E41
:100EFC0006D0236B52461B6949464046984705006D
:100F0C003800FFF7A5FD002DC0D00E2305A80370F7
:100F1C002022073B5946466083600125FFF7ECF819
:100F2C00B7E75B46019A9A82EFE7C0468C00002037
:100F3C00000080FFD805002096CE0108AACC01083D
:100F4C00D1CE0108F0B5DE46454657464E46E0B5D3
:100F5C00324B8FB05B6B04000A93FFF717FF0B90BB
:100F6C002000FFF7E3FE0C902000FFF727FE002384
:100F7C009846984201D0E38F98462000FFF793FEE5
:100F8C000D902000FFF77AFE81462000FFF716FE39
:100F9C000026B04201D0A31DDE8F2000FFF7E3FE38
:100FAC001F4F042802D81F4B8000C7582000FFF7A2
:100FBC0005FE1D4D002808D023006A331B78002B3A
:100FCC0003D01A4D012B00D0154D2000FFF7C2FEA7
:100FDC0082462000FFF733FE83462000FFF7B1FE68
:100FEC005B460893534607934B4603930D9B09901E
:100FFC000293434601930C9B069500930597049628
:10100C000B9B0B4A0B4902200A9CA0470FB03CBC1F
:10101C0090469946A246AB46F0BDC046D805002086
:10102C0047E80108D0660108F4CE010862D5010832
:10103C00F6CE0108D1CC010810B5034B034A5B6B0B
:10104C0003490120984710BDD80500202ECF010878
:10105C001ADD010810B500280AD0094B02689A4223
:10106C0006D1038B002B03D043690120002B06D142
:10107C00044B00205B6B044A04499847002010BDC8
:10108C00D79DC0ACD80500202ECF01081ADD010871
:10109C0010B50400FFF7DEFF00280BD06379013B8D
:1010AC00DBB2042B06D9044B00205B6B034A0449CA
:1010BC009847002010BDC046D805002044CF010839
:1010CC001ADD010810B504000069002803D0C368BC
:1010DC0098470023236110BD10B5041E01D0006990
:1010EC0010BD064B1A0030321278101EF8D00120B9
:1010FC005B6B034A034998472000F1E7D8050020B1
:10110C002ECF01081ADD010870B505000E00FFF79F
:10111C00E3FF041E10D0FFF751FD002802D023007E
:10112C004A331E70002E08D00F212000FFF7B1FDAE
:10113C0001212000FFF78EFD70BDAB68002BFBD0AA
:10114C00697928009847F7E710B5002803D0017398
:10115C00FFF7DAFF10BD044B30331B78002BF9D0AE
:10116C00FFF76AFFF6E7C046D805002010B5041E4D
:10117C000CD08368002B09D041719847237B002B3E
:10118C0003D001212000FFF7BFFF10BD034B30330C
:10119C001B78002BF9D0FFF74FFFF6E7D80500209E
:1011AC0070B50D1CFFF798FF0400FFF707FD002832
:1011BC000ED00849281C0FF095FC011C05480FF0B7
:1011CC00C3FDFC2189050FF0E1F910F081FBE087EC
:1011DC0070BDC0460000B04110B5041E04D00379A8
:1011EC00032B0DD1200010BD064B1A0030321278A3
:1011FC00002AF7D05B6B044A044901209847F1E7B9
:10120C000024EFE7D80500202ECF01085CCF0108A1
:10121C0070B50D00FFF7E0FF002811D01C30040062
:10122C00681E04280CD80FF07BFF030C0E1720004F
:10123C0000212000FFF718FD00212000FFF729FDF9
:10124C0070BD0721F5E720000921FFF70DFD0321F3
:10125C002000FFF71EFDF3E70C212000FFF704FD33
:10126C0006212000FFF715FDEAE71021F5E710B580
:10127C000C00002815D0037A032B12D103691B68CC
:10128C009A69586A0A60DA694A60DA8D0A819A6A40
:10129C00CA6004490FF026FCFC2189050FF022FCE2
:1012AC00206110BDC2F38E4DF0B5C646164B174EDD
:1012BC0098469C68330000B530331B780500032B2F
:1012CC0005D94368124A13490420776BB8470023A9
:1012DC00002C0DD0626DAC4207D1002B11D14346CE
:1012EC009A602000FFF770FB08E023001400EFE782
:1012FC00766B6B68084A07492000B04704BC9046DF
:10130C00F0BD5A65EDE7C0468C000020D8050020E2
:10131C006BCF01088CCF01089CCF010810B50400DD
:10132C00FFF798FE002802D02379002B0BD0074B37
:10133C001A0030321278141E05D05B6B044A054932
:10134C00012098470024200010BDC046D80500207D
:10135C002ECF0108D0CF010870B50E00FFF7DEFFCD
:10136C00051E18D00400701E1C34042813D88C35AC
:10137C000FF0D6FE03122123320000212000FFF7CC
:10138C0073FC00212000FFF784FC03212000FFF7F1
:10139C0061FC124B2B6070BD07212000FFF764FC31
:1013AC0006212000FFF775FC09212000FFF752FCF5
:1013BC000B4B2B60EFE70921EFE70C212000FFF727
:1013CC0053FC06212000FFF764FC01212000FFF7ED
:1013DC0041FC034B2B60DEE71021EFE7FA61843C04
:1013EC000938843BF0B583B006000D1C8CB201A803
:1013FC00018091B26F463A801F1CEDB2240AD0B224
:10140C00090A800083594900585A10F081FA391C96
:10141C000FF068FB10F0A6F880B2002710E0013343
:10142C009BB26A089A4209D99A00925979005218CB
:10143C0011888142F3D900211180F0E70137BFB246
:10144C00A3B2BB4201D90023EBE703B0F0BDF0B56A
:10145C00DE4657464E464546E0B589B082460D1CE1
:10146C008EB207A8018091B206AC22801C1CEBB294
:10147C009846330A0593D3B29B460B0A99465B46B2
:10148C009B0052469A584B465B00D05A10F040FADB
:10149C00211C0FF027FB10F065F887B20026002303
:1014AC00029301933B004746D8469B462AE0013500
:1014BC002DB22C007B089D4222DAAB0052469B5881
:1014CC007200D05A5845F2D910F022FA0390011C40
:1014DC0002980FF05BF802904346E41A6443049BB5
:1014EC004A46981A4043201810F05CFA011C0398E5
:1014FC000FF0F8FA011C01980FF048F80190D6E7AC
:10150C00013636B20496059B9E4201DA0025D0E7DF
:10151C000021029C201C0FF0D7FF002804D1211CB5
:10152C0001980FF0CDF90190019809B03CBC9046A0
:10153C009946A246AB46F0BDF0B5C64600B584B0A0
:10154C008DB201AB1980CFB22B0A0093002100237E
:10155C0098460025002611E001339BB27A089A4286
:10156C000AD99A0012584C00A25AB242F4D9CDB200
:10157C00DCB2A0461600EFE7013189B2009B9BB2AA
:10158C008B4201D90023E9E702AB42461A705D7029
:10159C001B88180A0002FF221340184304B004BC35
:1015AC009046F0BD30B5051C084BD868002308E008
:1015BC005C1C064AA1005118C9689B00D318D9605D
:1015CC002300072BF4DD014B9D6130BD8C00002006
:1015DC00002305E09900044A52180021D160013320
:1015EC00082BF7DD7047C0468C00002010B5002892
:1015FC000FDB084C3023E35C98420ADA002908DB45
:10160C003123E35C994204DA636B8000C3584900D0
:10161C005A5210BD8C000020002810DB0C4A3023DD
:10162C00D35C98420DDA00290DDB3123D35C99424F
:10163C000BDA536B8000C3584900C85A00E00020F5
:10164C0070470020FCE70020FAE70020F8E7C046CE
:10165C008C000020F0B5DE4657464E464546E0B5B8
:10166C0085B007008BB203AC21800292C9B28946C7
:10167C001B0A9B4600233B607B6092B290465A4605
:10168C004146551A2DB2019336E029002000FFF790
:10169C00C3FF060010F03CF9011C01980EF076FF18
:1016AC000190300010F07EF9061C200010F030F98B
:1016BC00011C301C0FF016FA011C38680EF066FF86
:1016CC00386029002000FFF7A7FF10F06BF9061C0B
:1016DC00280010F01DF9011C301C0FF003FA011C3E
:1016EC0078680EF053FF7860013424B24B465344B3
:1016FC009C42CADD01352DB2029B9A465B449D4249
:10170C0003DC4B4642469C1AF0E70021019C201C4E
:10171C000FF0DAFE002809D1211C38680FF0D0F840
:10172C003860211C78680FF0CBF87860380005B071
:10173C003CBC90469946A246AB46F0BDF0B583B092
:10174C000F1C89B2FFB2090A00240CE0A5002D5829
:10175C005E00AD1900262E8001339BB28DB29D42E6
:10176C00F4D80134A4B27B08A34205D90123A340C9
:10177C001A42F6D00023F1E703B0F0BDF0B583B008
:10178C0007008DB201AB1980CCB22B0A0093002656
:10179C001BE09A00D25971008A5A801801339BB20F
:1017AC00A5B29D42F5D821000FF0CEFC002308E035
:1017BC009A00D259710052181188091A11800133FC
:1017CC009BB29D42F4D80136B6B2009B9BB2B34299
:1017DC0002D900230020E3E703B0F0BD10B50400EC
:1017EC00002904D00FF036FD002900D0641A200027
:1017FC0010BDC900FF238B401840C840C0B27047D1
:10180C0010B50022835E00240A5F02800B8010BD9D
:10181C000200002001E00130C0B213000341DB07DD
:10182C00F9D57047F0B583B006000023002002E024
:10183C00140008E001330F00994209DD5A00925F51
:10184C008242F5DC04005042A042F3DC2000F1E7B8
:10185C0010F05EF8011C8720C0050FF031F80190E4
:10186C0000250CE06C0034190023E05E10F050F8F9
:10187C0001990FF037F910F02BF820800135AF42A9
:10188C00F0DC019803B0F0BD0121174B4942020076
:10189C00D963122820D84033800018181300203B3D
:1018AC00D9B2222902D89800104BC01813007F33EC
:1018BC00DBB2042B05D810000D4B813880000C33A3
:1018CC00181813003033DBB2092B04D8084BD03A6C
:1018DC00920020339818704718003C30E92ADDD16B
:1018EC0038331800DAE7C0468C000020C004002012
:1018FC000C010020704770B506000C00194B1D6FD1
:10190C008D6019490FF020FC18210FF0A3FC2170F9
:10191C00154930000FF09EFC0E00144930000FF0FA
:10192C0013FC3C210FF096FC6170104930000FF055
:10193C0091FC0E00FA21890030000FF005FC3C21CF
:10194C000FF088FCA170FA21890030000FF082FCA6
:10195C00681C4843FA2189000FF0F6FB2D1A6560CC
:10196C0070BDC0460C01002080EE360060EA00001D
:10197C0010B50378002B1DD00F4C5C434378002B23
:10198C0002D00E4A5343E4188278002A05D0530142
:10199C009B1A9B009B18DA00A418816842688A1A6B
:1019AC0053019B1A9B009B18D80001310FF0CCFB04
:1019BC00001910BD0024E1E780EE360060EA00005B
:1019CC00014814307047C046D06601080048704783
:1019DC00001BB74B10B5044CE06814F03FFE00231D
:1019EC00E3602382638210BD8C010020F7B54B7835
:1019FC0005000C004F68CE68002B07D08B680E4A90
:101A0C000E3300930D495E230BF0E4FA2378002B80
:101A1C0006D000973623084A084928000BF0DAFA5A
:101A2C00A378002B06D000967223034A03492800A2
:101A3C000BF0D0FA0120FEBD588C0108A0B70108AC
:101A4C0037B5456901242B00BA331B7819432B6C2D
:101A5C004C405A4253418B4206D00094EF23044A27
:101A6C00044900680BF0B6FA2C6401203EBDC04658
:101A7C0028820108E89D010830B50E25002485B0A8
:101A8C006D442A0021002C800EF0C4F92A88074BE3
:101A9C0001209A4207D00092054A2000556B054957
:101AAC00054AA847200005B030BDC0461211000001
:101ABC00D80500200FD00108E1CF010870B5160041
:101ACC0005000BF025FA0400330002002900002069
:101ADC00FEF72CFB200070BD70B5040015004069AA
:101AEC0014F0C6FD636A054A1D60236B20681A60FA
:101AFC000022236A1A604368984770BD3C5C6451AD
:101B0C0010B53830FFF7E8FF10BD10B53830FFF7CF
:101B1C00E3FF10BD70B50400C569636A2E1D1A6819
:101B2C002B780069002B09D00100300014F0A0FDC7
:101B3C0000232B7020684368984770BDE36B31001D
:101B4C00A56BA847F6E770B5049D1E002B78446979
:101B5C00002B0AD1A37E002B11D0E368606893425E
:101B6C0000D913001A0014F083FD2B7820696376DA
:101B7C00002803D06269310014F07AFD70BDA368AF
:101B8C001960F2E77FB5050010008A790E794C795F
:101B9C0003AB9A7002AA5E7014701C7000924A69B2
:101BAC002900FFF7D0FF7FBDF0B5050085B0100010
:101BBC00CA794C7903AB0E798F79DA7002AA14705A
:101BCC001F705C709E7000924A692900FFF7BBFF82
:101BDC0005B0F0BDF0B5D6464F4646460C00C0B534
:101BEC00002192B00500170004303422984612F000
:101BFC0021F82000FFF7CAF881462000FFF73EF8D5
:101C0C0001AE30802000FFF74EF870802000FEF708
:101C1C00D5FF0023984201D0A31DDB8F2000B38099
:101C2C00FFF78FF83200F080494604231220FEF7AC
:101C3C007DFA18239A46AA4420220021504611F01E
:101C4C00F9FF21005046236898470AAE81460028C8
:101C5C0018D020220021300011F0ECFF1C220021B2
:101C6C0003A811F0E7FF2B6B32001B68210099468B
:101C7C00504603ABC847814600280DD12B6B50460C
:101C8C005B6B98472000FFF76EF800282FD00428D4
:101C9C004DD000232B702CE0002F07D03B003200DE
:101CAC0083CA83C383CA83C303CA03C34346002BBB
:101CBC0004D01C2203A9404614F0DAFC2000FFF7E4
:101CCC0013F8012810D02000FEF7F8FF011C19486A
:101CDC000EF0F6FD17490EF059FC0FF043FC0023F3
:101CEC006860EB606B81CDE7FA20C000F7E7022358
:101CFC002B702000FEF7F8FF43425841687020001B
:101D0C00FEF776FFA8702000FFF740F805237060FF
:101D1C003370300002331C224146B360FEF7ECF9FD
:101D2C00484612B01CBC90469946A246F0BD012311
:101D3C002B70DEE70000FA4410B50DF0B5FF10BDB6
:101D4C00F0B5C64607008846002400B59508660025
:101D5C00AC4203D1300004BC9046F0BDA300DA5B6A
:101D6C00FB1858880134000410430EF01FF843464A
:101D7C009853ECE7F8B5DE464E4645465746436A5F
:101D8C00E0B598461E68036B016C1D680400281CA6
:101D9C000EF0A8FE0DF06AFFE16B0700281C0EF098
:101DAC00A1FE0DF063FF81462469B508AD002D1925
:101DBC00AC4209D103239E4343461E603CBC904673
:101DCC009946A246AB46F8BD8023DB05F8180DF00A
:101DDC00D7FF824638000DF0D3FF0022A35E514698
:101DEC009C460222A35E62465143CA171205120D8D
:101DFC005218010059438B46C9170905090D59445E
:101E0C0012130913521A228052465A43D3171B0538
:101E1C001B0D9B1862464243D0170005000D80181D
:101E2C001B1300131B1863804F440434C0E7F8B530
:101E3C00DE4657464E464546436AE0B599461B6812
:101E4C0006005C08036B016C1D68281C0EF04AFE32
:101E5C000DF00CFFF16B0700281C0EF043FE0DF08B
:101E6C0005FF63009846824635697669A844454566
:101E7C0008D14B46A4001C603CBC90469946A24637
:101E8C00AB46F8BD0022AB5E02359B468023DB05DA
:101E9C00F8180DF075FF5B464343D8170005000D8D
:101EAC00C0180013308038000DF06AFF5B464343C6
:101EBC00D8170005000DC018001370805744043665
:101ECC00D5E77FB50022436A06691D6803AB1A800B
:101EDC005A80039BAD082A00310040300093012347
:101EEC0004000DF047FD0A4B2000EB189B00F31883
:101EFC000222995E1B8802AA138001235180029A48
:101F0C00310000925B422A000DF034FD7FBDC046CB
:101F1C00FFFFFF3FF0B5DE464E4645465746E0B55F
:101F2C00490852088BB295B283B083469946002D6E
:101F3C0000D11D008BB2019301235B42C8462F00D8
:101F4C0000269A46B14506D803B03CBC904699464B
:101F5C00A246AB46F0BD019AF319934200DD474609
:101F6C00002F1ED00022100074005C44BA421FD314
:101F7C000123002800DA53467A0892B25343390001
:101F8C0018180FF06BF97B0002B2E318002A1ADD67
:101F9C0080B22288824213D2002222800234A342D1
:101FAC00F7D143465B1B76199BB2B6B29846C9E78C
:101FBC000C4953008C46E35A01326344C018D5E7F0
:101FCC00121A2280EAE708498C4662442188914221
:101FDC0005DD514621800234A342F7D1E1E7091A0D
:101FEC002180F8E70080FFFFFFFF000070B50300C1
:101FFC000C0001220020A2420FD30FF089FC051C1B
:10200C00601E0FF085FC011C281C0EF059FC12F010
:10201C00F9F807490EF066FD70BD1D88598801322C
:10202C00491BCD1749196940401892B20233E2E7B7
:10203C000000A041F8B51D00B823CE46994647468E
:10204C00446980B5A1444B461B881700002B28D04F
:10205C0026000968B43688463288016852009044DC
:10206C0042460120FEF762F84B4640461988FFF7BE
:10207C00BDFF012368600D4998460FF03FFA002818
:10208C0000D1804643462B700023226C9A4203D128
:10209C00BA34227801335340012213402B72338817
:1020AC003B6001200CBC90469946F8BD0000644290
:1020BC00F8B557464E464546DE464469E0B527001E
:1020CC00CE371D003B8880468A4616009946002B69
:1020DC003AD02300C833186880B243009B462300D3
:1020EC00CC3319887C200FF02FF85B465843230023
:1020FC00C4331B884146C01853461B6809689A466E
:10210C0082444B4652460120FEF710F83F88504659
:10211C003900FFF76BFF012368600F4998460FF0F9
:10212C00EDF9002800D1804643462B700023E26E67
:10213C009A4203D1C0342278013353400122134018
:10214C002B723368DF1B376001203CBC90469946EC
:10215C00A246AB46F8BDC046000064427FB503AE54
:10216C00320005000EF086F8041E08D10A4B0B4A0B
:10217C005E6B0B492B00B047200004B070BD738818
:10218C00062BF9D00093044B064A5C6B04492B00D8
:10219C000020A0470024EFE7D80500201FD001083D
:1021AC000FD0010851D00108F0B585B003AC170071
:1021BC00220006000EF05EF8051E32D022786388ED
:1021CC00062A25D11A0523D58022D20013402BD103
:1021DC00002F00D03B706388DB050AD5154B1A0025
:1021EC0030321278032A04D95B6B134A134904204A
:1021FC00984763889B0514D50E4B1A003032127821
:10220C00032A0ED95B6B0E4A0C490420984708E050
:10221C000093084B0B4A5C6B084933000020A04725
:10222C000025280005B0F0BD31000F20FDF772FF2E
:10223C002B00CDE7D8050020BBD001080FD001083A
:10224C00D4D001088BD0010873B56B469C1D0023BC
:10225C0022003821050023800DF0DCFD24880120AC
:10226C00002C0AD1054B064A5E6B06492B00200058
:10227C00B04728000DF0F5FD200076BDD8050020F4
:10228C00ECD001080FD00108F0B585B003AE1500F5
:10229C00320004001F000DF0EDFF00280DD0327845
:1022AC00AA420CD00092094B094A0195546B0020AC
:1022BC004C33084A0849A047002005B0F0BD002F58
:1022CC00FBD02000FFF7C0FFF7E7C046D06601083F
:1022DC00D80500201DD101080FD0010810B501232D
:1022EC000B22FFF7D1FF10BDF0B557464E464546C1
:1022FC00DE460023E0B5050098468DB08946454979
:10230C0006A89370D3701380137313719160871D9B
:10231C001400286806AAD3713B708246A87B07324A
:10232C000090E87B05910390A8890292019028699E
:10233C0009AE04904346019A9BB29A4259D9009B2C
:10234C00002B0FD0AB69029A9B69049950469847B1
:10235C0000280ED100200DB03CBC90469946A246F8
:10236C00AB46F0BDAB6950469B6A98470028E9D153
:10237C00F0E7029B1B78002B00D1A378A370AB690C
:10238C003A00DB69494628009847002333703372C2
:10239C00AB69059A1B6A089072609B4608AA3300C9
:1023AC0049462800D847337A002B00D1237B23736E
:1023BC0033789B46002B00D123792371A168706878
:1023CC0011F0F4FD3B78A060002B00D1E378089A63
:1023DC00E37094462388594663442380AB692800F4
:1023EC005B6A9847039B002B06D0019B013B9845E9
:1023FC0002D14B461868AEE7009B002B03D101239A
:10240C009C46E04496E7AB6950469B6A9847002887
:10241C00F5D19FE7000080FF70B50D0000214369E6
:10242C0011701A00B833B4321B8814882968E41868
:10243C0022000068FFF742FB62000100286814F0DC
:10244C0020F9200070BDCD2270B5520004000D00A3
:10245C00BC200F490AF050FD00236061984215D052
:10246C002800FEF793FC20602800FEF7C1FBA07348
:10247C002800FEF778FC43425841E0732800FEF731
:10248C003DFC044B20617C33A3610123180070BD1B
:10249C0048D10108D06601082C2270B5FF32040027
:1024AC000D00D4200F490AF027FD002360619842EB
:1024BC0015D02800FEF76AFC20602800FEF798FB78
:1024CC00A0732800FEF74FFC43425841E0732800EC
:1024DC00FEF714FC044B20613433A3610123180074
:1024EC0070BDC0467AD101085067010870B56022F2
:1024FC0072498C200AF000FD041E00D1DBE0704B09
:10250C0005000360032303716E4B1C3583606E4B17
:10251C0005614361582302210383FEF727FE200047
:10252C000021FEF711FE2800FEF748FB002801D021
:10253C00664B23642800FEF741FB002801D0644B56
:10254C0063642800FEF73AFB002803D02300062220
:10255C004E331A702800FEF731FB002801D00123FE
:10256C00A3622800FEF709FC2800FEF727FB0028D1
:10257C0001D0022363652800FEF720FB002803D05E
:10258C002300002248331A702800FEF717FB00289E
:10259C0003D0230010227C331A802800FEF70EFB98
:1025AC00002802D00022231DDA672800FEF706FB64
:1025BC00002803D02300002262331A702800FEF793
:1025CC00FDFA002803D02300002263331A70280080
:1025DC00FEF7F4FA002803D02300002264331A70AB
:1025EC002800FEF7EBFA002807D0230000226B33FB
:1025FC005A701A70013340325A802800FEF7DEFA06
:10260C00002803D02300FF2272331A802800FEF723
:10261C00D5FA002803D02300002274331A70280046
:10262C00FEF7CCFA002804D02300002276331A706F
:10263C00A26728000121FEF7EDFA2800FEF7BEFA8A
:10264C00002803D02300012286331A702800FEF7DD
:10265C00B5FA002803D023000B225A331A80280025
:10266C00FEF7ACFA002803D023000A2258331A8054
:10267C002800FEF7A3FA002803D0230000226533BC
:10268C001A702800FEF79AFA002803D023000122C2
:10269C006A331A702800FEF791FA002804D08022C1
:1026AC002300520170331A802800FEF787FA0028A5
:1026BC0001D0084BE361200070BDC046ACD10108CD
:1026CC00D79DC0AC1D12000829410008CDCC4C3E52
:1026DC009A99993E53240008F0B5C646304D00B582
:1026EC002C790700002C4DD0FEF7B4FC002801D14A
:1026FC0000240BE03B69DE682A2E0BD9294B2A4AB1
:10270C005C6B2A492A230020A0470024200004BC2B
:10271C009046F0BD6B79002B02D1AB68002B29D110
:10272C00204B3C8B1A0030321278032A06D95B6B93
:10273C001F4A98461D4933000420C0472000BD2283
:10274C001C490AF0D9FB041ED2D01B4B4660036017
:10275C00AB68390043657B69A860984700280ED1A7
:10276C00E368002B01D0200098472000FEF79CFD69
:10277C000024CBE75A6896420BD05B6DCEE7012361
:10278C006372C3E7074B0D4A5B6B084920009847FF
:10279C00BCE7044B0A4A5B6B044900209847A7E747
:1027AC008C000020D8050020CDD101088CCF010869
:1027BC00E6D1010805D20108E89EC0AC27D2010879
:1027CC0039D20108F0B557464E464546DE464469B7
:1027DC00E0B5230025008DB00492C2331B8806009F
:1027EC008A46C635002B00D12B80CC239B46A344B4
:1027FC005B467C2019880EF0A7FCC8239946A1449F
:10280C004B461B6806A99BB2584323008046CE3327
:10281C001B88200098440DF0A3FE069B2988434496
:10282C001A0053461B6830689C466144FFF746F912
:10283C002300AD331B780600002B28D10023049A0B
:10284C0006A9137020000DF08BFE434650465A002B
:10285C00069B006859002B887118C01813F011FFE3
:10286C004B462E88C43426801C685B467C20198815
:10287C000EF06AFCA4B264004443404636192E8024
:10288C000DB03CBC90469946A246AB46F0BD22002A
:10289C001F21BC3213685B000B4013603F4A1100D0
:1028AC0030310978032904D9576B3D493D4A04203E
:1028BC00B847236A3C4A9BB25B006C32985E0FF0BF
:1028CC0027F8071C30880FF06DF8DE2189050EF013
:1028DC0009F9FC2189050EF037FA34490EF002F99A
:1028EC0033490EF0FFF8011C381C0EF02DFA0EF0D7
:1028FC00EFFF304A07B2BBB29A182F4992B28A4204
:10290C002AD82621625E708803922C4A9446E622CD
:10291C0063449BB25200934224D90FF043F8DE215A
:10292C0089050EF0DFF8FC2189050EF00DFA1F4920
:10293C000EF0D8F81E490EF0D5F8059038000EF0C0
:10294C00E7FF011C05980DF021FE0EF0C1FF039B63
:10295C0000B26433984205DD22000123BC321168B9
:10296C000B4313602300BC331A680023002A11D1D7
:10297C00022B00D862E7094A11003031097800298E
:10298C0006D005210091576B05490D4A0120B84727
:10299C00012354E7511E0A400133E7E7D805002014
:1029AC0077D2010860D20108506701089A99993FC3
:1029BC0000007A4412FDFFFF17020000F4FCFFFF39
:1029CC0088D2010830B589B00D6803910021032429
:1029DC0001AB049119765976997619001C70029501
:1029EC00059206940AF016FA09B030BDF0B583B022
:1029FC00040001900D00FEF7EBFD002D49D1494A72
:102A0C003123D35CA34201D9002435E0464813F0AE
:102A1C0069F9464813F066F98C224549454813F08C
:102A2C0061F9002033E0B200434B9B185F69A01B97
:102A3C0080B204306B460421595E00B2FEF7ECFD07
:102A4C000EF066FF391C0EF04DF8011C281C0DF021
:102A5C009DFD051C0136082EE5DD281CFEF7A2FDA8
:102A6C00251FADB20EF07EFD82B26B460421595E7D
:102A7C0028B2FEF7BBFD01342A4A3023D35C5B0835
:102A8C000733A34202DD00260025E4E7012003B052
:102A9C00F0BD244A3023D35C019A934201D900241F
:102AAC0035E0214813F01EF9244813F01BF99D2240
:102ABC001F49204813F016F90020E8E7B2001E4B1E
:102ACC009B185F69A11B89B2043109B26B460420C3
:102ADC00185EFEF7A1FD0EF01BFF391C0EF002F87C
:102AEC00011C281C0DF052FD051C0136082EE5DDDD
:102AFC00281CFEF757FD251FADB20EF033FD82B238
:102B0C0029B26B460420185EFEF770FD0134054AAD
:102B1C003123D35C0733A34202DD00260025E5E711
:102B2C000120B4E78C000020D4EA0108DCEA01089B
:102B3C00FCEA01080CEB01088C01002018EB0108E1
:102B4C00F0B5D6464F464646C0B50600334B0D0091
:102B5C001800994613F0C6F83100314813F0C2F84A
:102B6C00C522304B304F190052003800984613F0F4
:102B7C00B9F8484613F0B6F829002C4813F0B2F80F
:102B8C008C22AC1C7443FF3241463800640013F0B5
:102B9C00A9F8200013F058FD254B9A46D860002860
:102BAC0012D1244813F09EF8234813F09BF8962278
:102BBC004146FF32380013F095F8012040421CBC0E
:102BCC0090469946A246F0BD484613F08BF81B4838
:102BDC0013F088F8CC2241465200380013F082F8EA
:102BEC00484613F07FF82100154813F07BF89A2221
:102BFC004146FF32380013F075F853460022D9686D
:102C0C00B3006D00CB1890B2864201D80020D6E7F5
:102C1C0090000B5001325B19F5E7C046C3D2010896
:102C2C00C9D20108DBD201080CEB0108EFD2010874
:102C3C008C010020D4EA0108FFD201081ED3010840
:102C4C003ED3010870B5134CA56B2800FEF702FAB1
:102C5C0000281DD02869FDF7F2FF0600A31D208275
:102C6C00D88F31000EF070FA230050331B7885B2E8
:102C7C006582002B07D023005433188931000EF0E5
:102C8C0063FA2D1865823000618AFFF759FF70BD19
:102C9C002082FFDE8C01002070B5061C002400256C
:102CAC001CE0201F0EF034FE311C0DF009FE011C3F
:102CBC0080231B06C0180DF015FFFC2189050DF0B3
:102CCC0011FF11F02BFA011CA200104B9B1858613C
:102CDC00281C0DF05BFC051C0134A4B2082CE0D9B7
:102CEC00291CFE2080050DF0EBFD061C002409E0DC
:102CFC00A300064DED18311C68690DF0F3FE6861F8
:102D0C000134A4B2082CF3D970BDC0468C0100204C
:102D1C0030B583B00D1C8CB201AB1980134B5863CA
:102D2C0030215D54240A01315C54101CFFF7B4FFB0
:102D3C00002405E000212000FFF758FE0134A4B266
:102D4C000A4A3123D35CA342F4D8002405E00121C4
:102D5C002000FFF74BFE0134A4B2044A3023D35CAD
:102D6C005B08A342F3D803B030BDC0468C000020F2
:102D7C00F0B5C64600B584B007000E0090460800BA
:102D8C0010F0BCFB0022344B0FF0E4FF02900391D7
:102D9C00002433003E001F001DE065007519002360
:102DAC00E85E10F071FB009A019B0FF061FD10F0D2
:102DBC0035FB2880651C7D1B6D0075190023E85EB2
:102DCC0010F062FB009A019B0FF052FD10F026FBF5
:102DDC0028800134A4B27B08A34238D9200010F01B
:102DEC008DFB029A039B0FF039F91C4A1C4B0FF018
:102DFC003FFD11F095F81B4A1B4B0FF039FD0200FB
:102E0C000B001A481A490FF0A5FF00900191434698
:102E1C00012BC2D0650075190023E85E10F034FB5D
:102E2C00009A019B0FF01AF910F0F8FA2880651C33
:102E3C007D1B6D0075190023E85E10F025FB009AD0
:102E4C00019B0FF00BF910F0E9FA2880C1E704B0F0
:102E5C0004BC9046F0BDC0460000F03F68A174541D
:102E6C00FB211940713D0AD7A370DD3F48E17A146C
:102E7C00AE47E13FF0B5D6464F4680B583B08246AB
:102E8C008946160000241EE067005346DD19002316
:102E9C00E85E0EF03DFD011C0DF024FE01904B464A
:102EAC00D85F0EF035FD011C0DF01CFE011C0198C5
:102EBC000DF06CFB10F054FB11F0D0F810F0AEFAE2
:102ECC002880013424B2B442DEDB03B00CBC914642
:102EDC009A46F0BDF0B5DE4657464E464546E0B53F
:102EEC0093B007008A469346109310B2FEF790FCFD
:102EFC001190002500245E461DE06B00984663008F
:102F0C009946F9184346F818FEF77AFC109B002BEB
:102F1C0016D1534652464A44110043441800FEF75A
:102F2C006FFC0DE0E41AA4B25B089C42FAD2E418E0
:102F3C00A4B20135ADB2731E9D4203DAAC42DCD8AB
:102F4C007308F2E7002399460133190000230E930E
:102F5C000D9300237F4C0A930B944B460F930896CA
:102F6C00D346D3E04B465C19A4B26400A046D844C7
:102F7C0043460020185E10F087FA049A059B0290D5
:102F8C0003910FF075FC0090019154440023E05E16
:102F9C0010F07AFA06000F00069A079B0FF068FCF7
:102FAC0002000B00009801990FF0D4FE00900191E3
:102FBC00049A059B300039000FF05AFC06000F00F4
:102FCC00069A079B029803990FF052FC02000B0023
:102FDC00300039000EF026FD029003916E005B4626
:102FEC009F190023F85E10F04FFA009A019B0FF026
:102FFC00B1FE10F013FA4346188056440023F05EDD
:10300C0010F042FA029A039B0FF0A4FE10F006FA9D
:10301C0020800023F85E10F037FA009A019B0EF026
:10302C0001FD10F0FBF938800023F05E10F02CFA53
:10303C00029A039B0EF0F6FC10F0F0F93080099B1D
:10304C009C466544ADB2089B9D428BD3C846049AFE
:10305C00059B0A980B990FF00BFC04000D00069AC7
:10306C00079B0E980D990FF003FC02000B0020003B
:10307C0029000FF06FFE06000F00049A059B0E98B6
:10308C000D990FF0F5FB04000D00069A079B0A98AA
:10309C000B990FF0EDFB02000B00200029000EF045
:1030AC00C1FC069007910C9B01339BB20C930496C8
:1030BC0005970C9B434502D20C9DC146C3E75F4666
:1030CC00D3460A9A0B9B002023490FF043FE0022A3
:1030DC00224B0FF0CDFB10F0C1FF0E900D91109B09
:1030EC00012B28D000221C4B0A980B990EF09AFC4D
:1030FC0000221A4B0FF0BCFB10F0B0FF0A900B91A2
:10310C000F9B0133DBB20F93099B19000F9B119A94
:10311C00934217D24B009BB20993002300240693D1
:10312C00079400230C4C0493059400230C938846BD
:10313C00DA46BB46BDE70B00802212069446634478
:10314C000D93CFE713B03CBC90469946A246AB46D4
:10315C00F0BDC0460000F0BF0000F03F0000E03FB3
:10316C00F0B5DE4657464E464546E0B585B000AF55
:10317C0006008BB2B981CAB290461B0A3B609B0019
:10318C000A33DB08DB006A46D31A9D46EB464346FE
:10319C005B000833DB08DB006A46D21A9546BA603E
:1031AC00D31A9D46E94600244DE09A0092596100DD
:1031BC00895E5A00B868115201339BB2424695B2EF
:1031CC00AB42F2D3002305E05A00002148461152CD
:1031DC0001339BB2AB42F7D32900BB689A46180067
:1031EC00FEF720FBA3005A469850012229005046B6
:1031FC00FFF7BEFD01232A0049465046FFF76AFE41
:10320C002A0049465046FFF735FE00220AE093009B
:10321C00995963007B605000BB68C05A7B68C852E8
:10322C00013292B243465B089A42F0D307E09A000F
:10323C009259610052180021118001339BB2AB42AC
:10324C00F5D30134A4B23B889A469C4201D20023A8
:10325C00B4E75B461B687B60012501E00135ADB22C
:10326C0055450AD2AB005A469C58211C78680EF082
:10327C0045F90028F2D07C60F0E70023994617E06E
:10328C00A3009D594B465B00ED1828880EF040FBBF
:10329C00B9680DF027FC0EF065F928800134A4B252
:1032AC0043465B089C42EBD34B4601339BB2994699
:1032BC00D14509D24B469B005A46995878680DF077
:1032CC00FFFAB8600024EBE77868BD4605B03CBC5B
:1032DC0090469946A246AB46F0BD84B010B503911A
:1032EC000290254804920593039C12F0E9FC2349B3
:1032FC0002980DF0F7FB0EF0EBFA0100204812F0EB
:10330C00F1FC204B1A0050321278002A26D11B49AE
:10331C00201C0DF0E7FB0EF025F901001A4812F005
:10332C00E1FC02AB1989194812F0DCFC1349059831
:10333C000DF0D8FB0EF016F90100154812F0D2FC76
:10334C000E4906980DF0CEFB0EF00CF90100114859
:10335C0012F0C8FC10BC08BC04B01847996D201CB6
:10336C000DF014F905490DF0BDFB0EF0FBF8010052
:10337C00094812F0B7FCD4E753D3010800007A4493
:10338C006CD301088C0100207BD30108A1D3010868
:10339C00B3D30108C8D301088BD3010800B583B09F
:1033AC000D4A916B012319439163926B1340019366
:1033BC00019B0022002109200BF062FA09200BF07E
:1033CC0053FA002200210A200BF05AFA0A200BF0C3
:1033DC004BFA03B000BDC04600100240F0B5D64613
:1033EC0000B588B01422002103A810F023FC414B37
:1033FC005A6B012632435A635A6B32400192019A3E
:10340C005A6B02273A435A635B6B3B400293029B15
:10341C00882100224900A020C0050CF069F9002287
:10342C00354936480CF064F90122022133480CF07E
:10343C005FF90325039500240494059703A9A020A4
:10344C00C0050CF0DDF910239A46039304960594FD
:10345C00069503A9A020C0050CF0D2F9284B0393C4
:10346C0004960594069403A924480CF0C9F9C023CA
:10347C001B0103930494059703A920480CF0C0F991
:10348C0080235B00039304960594069403A9A02063
:10349C00C0050CF0B5F9082303931A4B049305945B
:1034AC0003A916480CF0ACF9534603930496059403
:1034BC00069503A911480CF0A3F920230393124B92
:1034CC000493059703A90D480CF09AF900220021EA
:1034DC0006200BF0D5F906200BF0C6F900220021CE
:1034EC0007200BF0CDF907200BF0BEF908B004BC97
:1034FC009246F0BD00100240110200000004005082
:10350C0003020000000011100000311010B5104C27
:10351C00104B2360E1231B0363600023A360E36073
:10352C0023610C226261A361E36123626362A36283
:10353C0020000AF0D7FA0021200009F051FE0021EA
:10354C00200009F027FE200009F06EFE10BDC046D9
:10355C00380600200044004010B5104C104B23607E
:10356C0060600023A360E36023610C226261C022CF
:10357C009200A261E36123626362A36220000AF0FD
:10358C00B1FA0021200009F02BFE0021200009F0E7
:10359C0001FE200009F048FE10BDC0464C0500207D
:1035AC000038014070B50500064C20000AF01AF8EE
:1035BC002800FFF7D1FF044901226831200009F0EF
:1035CC00F7FE70BD4C0500208C01002010B50F4893
:1035DC000F4B836282235B00C36200230363E022F0
:1035EC00D20042638363C36380229200026443640B
:1035FC008364C3640365FA3AFF3A42658365083312
:10360C00C36528300AF00DF810BDC0460C0200202E
:10361C000030014010B5024860300AF053FD10BD77
:10362C000C01002010B5114B00221A73104B98425C
:10363C0009D910490DF088FD411E04220E48603056
:10364C000AF086FD10BD0D4B984207D94000FA21B7
:10365C0089000DF079FD411E0022EFE70001FA21EF
:10366C0089000DF071FD411E0322E7E78C0200205A
:10367C0080C3C90140420F000C010020A08601004C
:10368C0010B5FFF7CFFF04E062B6BFF34F8FBFF367
:10369C006F8F0A4B1B7B002B0AD172B6BFF34F8F77
:1036AC00BFF36F8F054B1B7B002BEDD130BFEBE7CE
:1036BC00024B00221A73FFF7ADFF10BD8C020020E5
:1036CC0010B50C4C0022012120000CF011F88021C7
:1036DC00A02000224900C0050CF00AF8802100222D
:1036EC00890020000CF004F8FA20C000FFF7C8FF96
:1036FC0010BDC0460004005010B50E4C0022102125
:10370C0020000BF0F5FF80210122890020000BF036
:10371C00EFFF8021A02001224900C0050BF0E8FF3B
:10372C000122012120000BF0E3FFFA20C000FFF77B
:10373C00A7FF10BD00040050F0B591B00BAD1422E2
:10374C000021280010F076FA0AAE00240A942822F0
:10375C000021684610F06EFA234F244B3B66BC6682
:10376C001F23FB66224B3B677C67BC67FC6780238F
:10377C008022D205FA500433FC50603738000AF02E
:10378C0071FE2C706C70AC706C60EC602C61002263
:10379C00290038000AF000FE012535707570B570EF
:1037AC00F4700022310038000AF0A0FD6B461C704A
:1037BC005C709C7001940394049405940694079493
:1037CC0020236A46D554E033099300226946380019
:1037DC000AF010FF0022074938000AF0B9FC380043
:1037EC000AF070FC11B0F0BD0C0100200028004064
:1037FC00E7030000FFFF000010B50E4C0E4B2361D9
:10380C000E4B6361A423A361A33BE36100232362FA
:10381C006362A362E3622363103420000AF078F839
:10382C00002120000AF010F80021200009F0E2FF2E
:10383C0010BDC0468C02002000540040BC7D7010AE
:10384C0070B5A0B03822002112A810F0F3F91022A4
:10385C0000210EA810F0EEF93422002101A810F07E
:10386C00E9F98026B60030000BF06EF80A231293AB
:10387C00F633159300241694C03B17933F3B1893D3
:10388C00022519951A951B9407331C9380239B02D0
:10389C001D9380239B041E9380239B051F9312A8CA
:1038AC000BF0B6FC07230E930F9510941194022184
:1038BC000EA80BF0E9FB054B0193029403940594BD
:1038CC000D9601A80BF0BEFA20B070BD43000200AB
:1038DC0000B591B03822002102A810F0ABF902A873
:1038EC000BF0B4F9089BC02292041340802292047E
:1038FC00934218D0184812F0E3F9089B0193174B28
:10390C00019A1340164A13408022920413430893E1
:10391C00042302930BF07EFA002808D0114812F011
:10392C00CFF911B000BD104812F0CAF9F9E70BF04D
:10393C0049FA002802D00BF05DFAEFE702A80BF071
:10394C00B3F9002802D00BF02DFAF4E7074812F077
:10395C00B7F90BF01DFAF6E74CEB0108FFFFFFFD82
:10396C00FFFFFFFE70EB01083CEB01085CEB01086C
:10397C0010B50AF043F810BD10B586B000230593BE
:10398C0014220021684610F055F90B4B1B6EDB68B6
:10399C001B07FAD4084C603400226946200009F059
:1039AC00FDFE002205A9200009F0D3FE6846FDF7B4
:1039BC00DFFF06B010BDC0460C01002070470CB4F0
:1039CC00F0B5AFB006000D0034AB04CB07939621D5
:1039DC0008A812F0ABF995280ADD08AB2E2292212B
:1039EC005A5401315A5401315A54673200219954B6
:1039FC00FFF7BEFF04001A490DF0A6FB049019490D
:103A0C0020000DF0A1FB3C210DF024FC0591FA21C6
:103A1C00890020000DF098FB3C210DF01BFC0F00E1
:103A2C00FA21890020000DF015FC042E16D80E4B3F
:103A3C009B5D08AA03920295019300913B00059AA5
:103A4C0004990A4812F04EF9094B1B6898680FF05C
:103A5C00E3FF2FB0F0BC08BC02B018473F23E8E7E7
:103A6C0080EE360060EA0000A8EB010884EB010848
:103A7C000800002070B50500002417E00122102179
:103A8C000C480BF035FE10210A480BF037FE0128CC
:103A9C00F4D104E00022102106480BF029FE10217D
:103AAC0004480BF02BFE0028F4D10134AC42EAD3CD
:103ABC0070BDC0460004005010B580210122890061
:103ACC0006480BF015FE0320FFF7D4FFFA20C000C8
:103ADC00FFF7D6FD0A20FFF7CDFF10BD0004005004
:103AEC0010B50A20FFF7C6FF80210022890002488A
:103AFC000BF0FEFD10BDC0460004005070B50D006B
:103B0C0009F07CFF040002E062B6BFF36F8F08215E
:103B1C000D480BF0F3FD01280DD009F06FFF001BD1
:103B2C00A84208D272B6082107480BF0E7FD01281D
:103B3C00EAD030BFE8E7082103480BF0DFFD01387D
:103B4C0043425841C0B270BD0004005070B582B001
:103B5C000E0014000A4D0022012128000BF0C8FDB4
:103B6C00A3B20848084A00923200310028300AF00B
:103B7C0041F90122012128000BF0BAFD02B070BD01
:103B8C00000400500C0200208813000013B5044AF6
:103B9C0000910300546B0349034A0020A047FEE741
:103BAC00D8050020F2D30108DDD30108F0B5454655
:103BBC00DE4657464E46E0B5C46B87B00500002C78
:103BCC0000D19DE0036B534A1A60036AA2691A6024
:103BDC0043690093038F01936678A3699A46002E7C
:103BEC0000D088E023789B46022B33D12000FCF7D1
:103BFC003FFF002827D02000102200210830A76B9F
:103C0C0010F018F82000236B3900DB6A02AA183078
:103C1C00984702AB1B88E060638102AA92780499F2
:103C2C002272914602AAD2786272904602AA177B3F
:103C3C002774127961616274002863D1364B374A5C
:103C4C005B6B37499847344B364A5B6B36490020DF
:103C5C00984742E0012BCED12F4B1B6A002BCAD0C8
:103C6C0050469847C7E70198984204D0CA212F487C
:103C7C00FF31FFF78BFF16004823524653432C4A63
:103C8C00483B1268D3181A004232167059645B46CE
:103C9C00022B2AD15046FCF7DBFE0023E37063783D
:103CAC00002B05D1019B009A51460220FCF73EFAED
:103CBC002B8F6A6A5B0013604A46AB6A1A704246E5
:103CCC00EB6A1A700123002E00D13B0001266A6BAF
:103CDC0028683340137043689847300007B03CBCE9
:103CEC0090469946A246AB46F0BD012BD7D1200099
:103CFC00FCF74CFED3E700263700B046B146CEE7C2
:103D0C002600EAE7009E8642ADD0E4210748490030
:103D1C00FFF73CFF3C5C6451D8050020FDD3010843
:103D2C00AACC010844D4010861D4010815D40108B7
:103D3C008C00002010B504003830FFF737FF002846
:103D4C000CD1E02301229B00E358586198715A7101
:103D5C00D2239B00E0180433E358984710BD10B5EC
:103D6C0004003830FFF722FF00280BD12300F0337A
:103D7C001B680122586198712000BC345A71B8300C
:103D8C002368984710BDF0B557464546DE464E466B
:103D9C00E0B5644C1700A544049198467C2A14D8CD
:103DAC009300029306AC063BE318039300239B4657
:103DBC000190049B9B450CD183239B009D443CBCF0
:103DCC0090469946A246AB46F0BD7D215648FFF77A
:103DDC00DDFE029A0199200012F04AFC82A98C4661
:103DEC000022781E83006344F13BFF3B06920125C1
:103DFC001A602200AF4214D8039A043A013833D225
:103E0C000025029BAB424CD100220199AA4269D1F8
:103E1C0001239C46019BE3449C46944463460193D6
:103E2C00C7E70021535E01359C460423D15E6346EF
:103E3C00C91A43465943CB171B051B0D5B181B13A3
:103E4C00634493800221535E04329C460223D15E6C
:103E5C006346C91A43465943CB171B051B0D5B1808
:103E6C001B1363445380C5E70623D15E0223D55E42
:103E7C0043466D1A5D43EB171B051B0D5B191B139A
:103E8C005B1853800823D15E0423D55E43466D1A1C
:103E9C005D43EB171B051B0D5B191B135B18938004
:103EAC00ABE762195088635B0004184392460BF031
:103EBC007DFF8146002804D1534660535880043559
:103ECC009FE7605F494600030DF0C8F95346605305
:103EDC000220185E4946000340420DF0BFF95346DC
:103EEC005880ECE700200B5E9946135F0226885F32
:103EFC008246A0180226805F043284464846584306
:103F0C006646059050467043059E301A0013088093
:103F1C00504666464343484670431B181B134B8060
:103F2C00043173E7F4FDFFFF76D4010810B5831D4F
:103F3C003E229B5EC16B026C0069FFF724FF10BD33
:103F4C00030070B5CC331D8886B0002D04D15821E8
:103F5C000C48FF31FFF71AFE03008024CE3369466C
:103F6C001E880CF0FDFA009B290024017C20E41A29
:103F7C000DF0EAF8A41B010020000DF0E5F806B0E6
:103F8C0070BDC0467AD1010870B504004069A389A0
:103F9C000200C232013B12889BB29A4202D0FFF758
:103FAC00CFFF70BD6589FFF7CBFF010028000DF036
:103FBC0051F9081EF5D16069F1E7F0B557464E4648
:103FCC004546DE46E0B544690F00060081890120B4
:103FDC0088429B415B429846E36E85B05A425341FE
:103FEC00C0229146A1444A46DBB21D0012783A43E6
:103FFC005540AA46814208D8934236D105B03CBC04
:10400C0090469946A246AB46F0BD2500C23528889D
:10401C00013080B20DF01EF98BB29B462B80200034
:10402C000823F55EFFF78CFF5B46584345193000BB
:10403C00FFF7AAFF2300C83318606B4642461A707C
:10404C005A7052469A704B460138019002951B7873
:10405C0069461F43012330685F400397FDF7C6FC98
:10406C000028CBD0039BE366C8E700200500E4E7FB
:10407C0013B56B469C1D00232200112123800BF0ED
:10408C00C9FE01232088800A184016BDF7B5164DCD
:10409C0004002B0030331B780E00032B06D9009143
:1040AC000300124A124904206F6BB8472000FFF737
:1040BC00DFFF021E0AD023000E4A0D4900206D6B53
:1040CC00A84720000BF0CDFE0020FEBD10212000E3
:1040DC0008F072FF8022D20020003243102108F039
:1040EC006BFF0120F1E7C046D8050020A9D40108D8
:1040FC000FD00108CCD4010870B5054DAB689847BA
:10410C00041E03D16B6B034A03499847200070BD12
:10411C00D8050020FBD40108F8E20108F0B5DE4612
:10412C00454657464E46E0B5A5B080468C2201A8C0
:10413C000C0012F09DFA01A8FCF7AAFF002801D18F
:10414C00002014E008A8FCF739FD0028F8D008A8D6
:10415C00FCF7B4FC0028F3D022AB1D88002D0DD148
:10416C00734B28005B6B734A73499847280025B042
:10417C003CBC90469946A246AB46F0BD8A236B44A4
:10418C001B78012B0AD120AB1B88402B06D9684B1E
:10419C006A4A5B6B684900209847D1E7424623790D
:1041AC0010201372664BEC2219009B4608F0A4FEFB
:1041BC0005009020ED225946400008F09DFE0400B9
:1041CC00002D01D000280FD12800FCF7FDFB2000AA
:1041DC00FCF7FAFB0025434642461D61681E8541EB
:1041EC00584BE8B2D360C2E718239A462860824441
:1041FC004046C018E4339946A1444B46524660678A
:10420C0008A9FDF7E7FC4B465A8923007033061EBC
:10421C001A8004D12800FCF707FC3500DBE74B467D
:10422C00DB899B184A4697895B007F009F4200D22E
:10423C001F0008A8FCF7C2FC0026B04201D01DAB41
:10424C001E88BE4200D23E009822594652003000D1
:10425C00FFF752FF4B46071ED86156D01E62220054
:10426C002600A31D2366E31D63661432053308364E
:10427C00A366E064E265A465E666D867231D9946EB
:10428C004946883319601A61D8635C668C23284FC1
:10429C005B009B463B0030331B78A344012B39D881
:1042AC0052465B4608A9606FFCF77AFD82460028EF
:1042BC0034D02300244AB0331A60244A20005A60B8
:1042CC004A46234B7830E367224BD367224B234A71
:1042DC00F3672300B8331A64214A5A60214A9A6062
:1042EC00214ADA60A063A367FBF7EFFF061E1AD022
:1042FC00A06BF434C3689847434623601B4B6B6038
:10430C001B4BAB601B4BEB6065E72800FCF78CFB91
:10431C003D0060E708A8FCF715FEC1E72800FCF794
:10432C0083FB554657E77B6B134A1449984771E753
:10433C00D805002009D501085CCF010839D5010842
:10434C0064D50108D110000800004040451D00084C
:10435C002D030008D7020008F7080008911B00087D
:10436C00C501000857010008C30100086B3D000897
:10437C00171B0008350A00088DD50108ADD50108BA
:10438C00F0B5DE4657464E464546E0B5A9B09022FC
:10439C00824604A80D0012F06BF90BA8FCF744FC44
:1043AC0006000BA8279CFCF709FC002806D030005F
:1043BC000DF0AEFA211C0CF095FB139004A8FCF741
:1043CC0067FE002801D1002009E0199B042B0DD1B8
:1043DC00454B00205B6B454A45499847002029B066
:1043EC003CBC90469946A246AB46F0BD0BA8FCF7E8
:1043FC00E5FB0028E7D00BA8FCF760FB0028E2D017
:10440C000BA8FCF711FC431E9BB2012B08D9042806
:10441C0006D0354B374A5B6B354900209847D2E7BD
:10442C000BA8FCF7CBFB041E04D004AA6B23944608
:10443C0063441C780BA8FCF7C1FB002810D0002C9F
:10444C000ED011AB1B78002B0AD0274B1A00303240
:10445C001278002A04D05B6B274A25490120984723
:10446C0052462B79102013728022244B52001900D3
:10447C00994608F041FD02220500EC20FF32494626
:10448C00800008F039FD0400002D01D000280FD168
:10449C002800FCF799FA2000FCF796FA0025534601
:1044AC0052461D61681E8541154BE8B2D36096E7F4
:1044BC0018239C46844463460293E32328605046A9
:1044CC009B001830E7183B00624660670BA9FDF7AC
:1044DC0081FB23007A897033061E1A8012D12800C2
:1044EC00FCF78EFA3500DAE7D8050020BDD50108B7
:1044FC00D0CF0108F8D5010818D601085DD60108FF
:10450C00D11000080BA8FCF759FB8346002802D0F9
:10451C0011AB1B789B46E3239B00E25ABB899200AC
:10452C005B00934200D213007E89FA89B61876009C
:10453C009E4200D21E000BA8FCF740FB00239842C1
:10454C0001D020AB1B889846B34200D2B046EB2377
:10455C0042469B00E2505B464046002B05D0E323CD
:10456C009B00E05A80000A30404486224946FF32C4
:10457C00FFF7C2FDEA239B00061EE050AFD07B88FC
:10458C009B00994681444B4601935B46002B03D01C
:10459C0043460433C3180193A31D2366E31D6366CE
:1045AC000C239C46A44463462700A3660393043B58
:1045BC00E36614378033221DE664E765A4650BA817
:1045CC001E605A605F611E645E645F65FCF719FBD8
:1045DC00002804D02300FC33DE601E611F62230020
:1045EC00FC33DE641E651F66C2235B00E650043399
:1045FC00E650039A1033E7500C33E2504A4624330A
:10460C00E6500433E6501033E7503433E6500433AD
:10461C00E2501033E7502833E2500433E2501033A9
:10462C00E7505B46002B0DD0A8239B00E25043467D
:10463C00AB22F3189200A350A923019A9B00E250DD
:10464C001033E750B823019A9B00E2500433E65034
:10465C001033E7502833E6500433E6501033E7505C
:10466C002833E6502833E4502833E618E94B9846B3
:10467C0030331B78012B00D9BFE13300029A0BA910
:10468C00606FFCF78DFB061E00D128E72300002687
:10469C00E14AB0335A601E60E04BE14AE367231DE8
:1046AC00DA67E04A0433DA67DF4AB0335A60DF4A2C
:1046BC000BA89A60DE4ADA60DE4A9A6300229A8777
:1046CC00FCF79FFA019600281BD00BA8FCF776FA92
:1046DC00002807D004AA9446662363441B781E2244
:1046EC00002B01D1962252002300F833A18D5A875A
:1046FC00D14A1987DA63D14A5A60D14A9A60D14AB1
:10470C00DA602300D04A3933FF339A63CF4AD04959
:10471C005A60D04A0BA89A60CF4ADA60626A196470
:10472C009A67CE49019A5964DA67CD49CD4A9964A2
:10473C005A67E3239B00E7183B890293FB889B464F
:10474C00FCF73CFA002800D15BE10F9B9946260050
:10475C00C54BB936FF367360C44B8B21B360C44B69
:10476C00C905F3605B463364029B4846F3630CF067
:10477C00B9F90021834648460CF0CAFE002800D146
:10478C0042E1FC21890558460BF000FF0DF0A0F822
:10479C002300BF33FF33D887B64B0BA8B3638023FA
:1047AC00BA889B00E31892009A63B34A5A60B34AE2
:1047BC009A60B34ADA60FCF701FA8146002802D00D
:1047CC0012AB1B7899460BA8FCF7F8F9139E00283E
:1047DC0000D100268F239B00E718AA4B7B60AA4BC5
:1047EC00BB60AA4BFB604B46002B00D10FE1A849E4
:1047FC00301C0CF06FFE8346002800D078E1A549F0
:10480C00301C0CF07BFE002800D073E14B46FE639D
:10481C00002B00D150E2A04B76007608BB639F4979
:10482C00301C0CF06BFE002800D09C4E9121301CEB
:10483C00C9050CF057F90FF0EFFBDA2189050CF0E4
:10484C0051F997490CF04EF9011C061C95480CF0D7
:10485C007BFA95490CF078FA071C011C301C0CF003
:10486C0039FE002800D149E10021301C0BF063FA1D
:10487C0001218146301C0BF05EFA011C48460CF0FD
:10488C001FF88A490CF02EF98949061C0BF07EFEA4
:10489C00311C0CF027F98649071C301C0CF022F94E
:1048AC00FE2189050BF072FE011C381C0CF008F877
:1048BC00011C061C0CF016F9FE2189050BF066FE96
:1048CC000EF094FF011CFE2080050BF0F9FF8121F6
:1048DC00071CC905301C0CF0FDFD002800D124E19B
:1048EC00FE21301C89050CF009FE002800D10FE1D7
:1048FC008A21381CC9050CF0F5F8FC2189050BF050
:10490C0045FE0CF0E5FF46008020B3007343C00465
:10491C00C01A0DF047F80EF069FFFC2189050BF069
:10492C0035FE0CF0D5FF07009F239B009946802392
:10493C005B019B46002E00D01BE19E22FC219200C5
:10494C008905A1505B464A46A350A0239B00E65024
:10495C000433E6524346574A574900205B6B98474D
:10496C000BA8FCF72BF9002810D011AB1B78002BEF
:10497C000CD0A42351499B00E318109A596050495C
:10498C00DA6399604F4A50499A63D960B4239B000B
:10499C00E6184E4B0BA873604D4BB3604D4BF36058
:1049AC004D4BB363C3239B009946A1444A464B4BE2
:1049BC009363264B5360274B9360274BD360D223D2
:1049CC009B00E718464B3B64464B7B60464BBB60F9
:1049DC00464BFB6023007833A363B8239B46A34468
:1049EC005B46A367FCF70DF923003933FF3300282E
:1049FC0000D064E15A46136066E10BA8FCF7A2FAFA
:104A0C003BE600239946A2E6BF210906BBE6FC263D
:104A1C00B605FBE6D8050020451D00082D0300084F
:104A2C00D7020008F7080008810800082B080008C6
:104A3C002F090008211F00089304000879040008BE
:104A4C002504000807090008FD06000851090008A4
:104A5C00B5050008A906000827090008FD04000890
:104A6C000F090008811D000815040008A5030008A3
:104A7C00FF080008393F00089906000845060008A1
:104A8C001F09000835060008C505000817090008AD
:104A9C000938843B08CAFD3ECF1E0008DEFFFF3EEE
:104AAC00DB0F4940DB0FC93F2EBD3B33778D9F3F5A
:104ABC00F304B53F88D6010835CC0108211B00084A
:104ACC00DB01000851020008410200083709000808
:104ADC0099080008ED0800084D1D00080F08000893
:104AEC00B51B0008C501000857010008C3010008E8
:104AFC00994E8BE6FC26D946B60587E60121381C73
:104B0C000BF019F900218146381C0BF014F9B4E6AE
:104B1C008B21381CC9050BF0E5FFFC2189050BF036
:104B2C0035FD0CF0D5FE0600EEE68C21301CC905D7
:104B3C000BF0D8FF391C0BF0D5FFFC2189050BF0CD
:104B4C0025FD0CF0C5FE0300070043438020C00484
:104B5C00C01A0CF027FF0EF049FEFC2189050BF062
:104B6C00C1FFFC2189050BF011FD0CF0B1FE060014
:104B7C00DAE65B46B0B2191A89B20AB294464A46D2
:104B8C006346A3524B0099469F239B00E1184B466A
:104B9C004B8063468B804300B8B2C21ACA80C022D5
:104BAC005201921B5200121A0A81002F04D19E232B
:104BBC00019A9B00E250CDE65B46FC22B0009B1BA9
:104BCC00464338001206944678435B00DB1B5B437C
:104BDC00361866447600981B0CF09AFE814630001D
:104BEC000CF096FE49460BF06BFE5C49061C0BF074
:104BFC00CDFC834648460EF0F9FD814680208001AD
:104C0C00C01B40000CF084FE011C48460BF058FE03
:104C1C005349071C58460BF065FF59460BF062FFD1
:104C2C0050490BF0B3FC0EF0E1FD311C0CF08CF88C
:104C3C000EF0DCFD011C381C0BF054FF4A49071C1C
:104C4C000CF048FC002835D1FE21381C89050CF0ED
:104C5C0055FC464E002822D0FE20391C80050BF056
:104C6C002FFE071C30003A1C092174300BF04AF857
:104C7C00011C381C0BF036FF011C3D480CF064F88D
:104C8C003C490CF061F83C490BF01AFE9E239B004A
:104C9C00E0508F239B00E318DB6B636360E630000E
:104CAC003A1C092174300BF02DF8011C381C0BF048
:104CBC0019FFE8E73148E6E7314BBB63E9E722002F
:104CCC005946F8320A60136023009C227533520057
:104CDC00FF33A3503C324433A35080239B00443217
:104CEC00E318A3508F239B00E3184832A3500BA862
:104CFC00FBF764FF8F239B0000281BD011AA1278AE
:104D0C00002A17D0A4229200A218E2505433E65085
:104D1C00B4234A469B00E2503C33E750A06B8368B7
:104D2C009847061E08D14346164A5B6B16499847AE
:104D3C00FFF7D5FBE650EBE7A06BC3689847E12380
:104D4C0052469B00E250114B6B60114BAB60114B08
:104D5C00EB60FFF7A4FBC0460938843B1AF6153FFD
:104D6C00F304B53F1AF6953F000080BF5067010869
:104D7C00DB0FC93F2EBD3B33DB0F49400000C07F2A
:104D8C00C10100088DD50108B1D60108413D0008CC
:104D9C000D1B00080D0A0008F8B5DE4657464546BF
:104DAC004E46664CE0B5200010F09CFF644A654905
:104DBC00654810F097FFA822644B654F190052000C
:104DCC003800984610F08EFF200010F08BFF022167
:104DDC006048FCF70EFD012105005E48FCF709FD5B
:104DEC00002106005B48FCF704FD2900030032009B
:104DFC00594810F077FF52224146FF32380010F02C
:104E0C0071FF200010F06EFF02215448FCF7F1FCFA
:104E1C00012104005148FCF7ECFC002105004F482F
:104E2C00FCF7E7FC2A00030021004D4810F05AFF64
:104E3C00A92241465200380010F054FFFCF7C0FD87
:104E4C00484C0100200038225C3011F011FC464D1A
:104E5C00464A2B7D9246002B00D0CEE12300226FD8
:104E6C0090331B68002A00D18AE0626F002A00D1BF
:104E7C0086E022000832D26F002A00D180E0221D89
:104E8C00D26F002A7CD0220088321268002A77D098
:104E9C00626E002A74D0A26E002A71D0E26E002AD3
:104EAC006ED0002B72D0E26D2A2A6BD8226E0F2A9C
:104EBC0068D9A26F002A02D0E26F002A62D02100CA
:104ECC002B4B5C3118003822994611F0D1FB53461C
:104EDC001B79002B03D1012352466B75137153467A
:104EEC001B79002B00D181E1AE7D002E17D14B46F2
:104EFC00482054221B68FF3258431E49FFF7FCF828
:104F0C0053461860002800D170E140300400B346CD
:104F1C004B461B689E4200D259E10123AB7501231D
:104F2C002B754B4630331B78012B3ED94B46124A1E
:104F3C005B6B12490220984728E0C046C3D6010893
:104F4C00C9D60108D2D60108DED60108DBD2010889
:104F5C000CEB0108000401BFEDD60108000101BDF6
:104F6C000CD701088C0200200C0300208C000020C0
:104F7C00D805002015D4010840D7010860D70108D6
:104F8C00002B06D0A74AA849002098472B7D002B60
:104F9C000BD1A64810F0A6FEA54810F0A3FE5A228D
:104FAC004146FF32380010F09DFE012352465371EA
:104FBC00FDF79CFA9F4B986300280BD19B4810F08F
:104FCC0091FE9D4810F08EFEB122414652003800F1
:104FDC0010F088FEFDF78AFAA86100280BD19348DF
:104FEC0010F080FE954810F07DFEB522414652002F
:104FFC00380010F077FE6D229149902007F07CFF6D
:10500C00041E00D106E18F4B060003608E4B002777
:10501C0083608E4B1C3643615823077103830661F2
:10502C000221FCF7A3F820003900FCF78DF83000C2
:10503C00FBF7C4FDB84201D0854B23643000FBF76D
:10504C00BDFD002801D0834B63643000FBF7B6FD37
:10505C00002803D0230006224E331A703000FBF7D1
:10506C00ADFD002803D023000A2258331A803000EB
:10507C00FBF7A4FD002801D00123A3623000FBF74D
:10508C007CFE3000FBF79AFD002801D002236365FB
:10509C003000FBF793FD002803D023000022483397
:1050AC001A703000FBF78AFD002803D02300002281
:1050BC0062331A703000FBF781FD002803D0230007
:1050CC00002263331A703000FBF778FD002803D000
:1050DC002300002264331A703000FBF76FFD0028A8
:1050EC0007D0230000226B335A701A700133403200
:1050FC005A803000FBF762FD002803D02300FF220A
:10510C0072331A803000FBF759FD002803D02300BE
:10511C00002274331A703000FBF750FD002804D0C5
:10512C002300002276331A70A26730000121FBF7AE
:10513C0071FD3000FBF742FD002803D023000B2249
:10514C005A331A803000FBF739FD002803D02300B6
:10515C00012265331A703000FBF730FD002801D0B6
:10516C003D4BE3623000FBF729FD002805D03B4B9B
:10517C0001222363230034331A703000FBF71EFD29
:10518C00002803D02300012238331A703000FBF7BB
:10519C0015FD002803D0230001226A331A70300059
:1051AC00FBF70CFD002804D096222300520170332B
:1051BC001A803000FBF702FD002830D0284BEC6140
:1051CC00E3613CBC90469946A246AB46F8BD200034
:1051DC004422403800210EF02DFD5B466370237095
:1051EC00A370204B01366360483491E64B461E4A4F
:1051FC005B6B1E4900209847C8E61D4B1A003032E5
:10520C001278012A00D8D0E65B6B1A4A17490220A3
:10521C009847BBE6E861184810F064FDD1E7EC61F3
:10522C00CFE7C0462CD70108F8E20108D4EA010800
:10523C00A2D701088C010020BAD70108B6D7010803
:10524C00D6D70108D79DC0AC651300088D43000864
:10525C00CDCC4C3ECDCCCC3ECDCCCC3D9A99993ED0
:10526C00A5240008000080FF64D7010860D701085E
:10527C00D80500207AD70108F9D7010870B51E00AF
:10528C000C0015000B00013A09D20A4B6A009B6A0C
:10529C0021009847002E01D0013D05D270BD198820
:1052AC0049BA19800233EEE723885BBA23800234B3
:1052BC00F2E7C046D8050020A02330B5DB0185B04D
:1052CC00194302AC21800A2105000192694401A80E
:1052DC0001220AF0D3FB0023032221002800FFF750
:1052EC00CDFF05B030BDF0B54746CE465C1C174D22
:1052FC00630099462B0080B530331B7883B00600D1
:10530C0088461700032B06D900910300104A114957
:10531C0004206C6BA0476B68994509D96B6B0E4ADE
:10532C000C490020984703B00CBC90469946F0BD40
:10533C00A0214346C90119434B4639805A0839000C
:10534C0000233000FFF79AFFEDE7C046D805002098
:10535C0017D801083DD8010847D80108F0B5DE463A
:10536C00574645464E46E0B51F0016238FB00BAC92
:10537C00237007230590089115000C90BC2239006E
:10538C0020000D93FAF7B8FE00230B930A930AAB97
:10539C0000932A002300089905980BF063F80990F4
:1053AC00002801D100F050FCF94B1A003032127871
:1053BC00032A04D95B6BF74AF7490420984700236A
:1053CC009B46E2235A46DB009B1A0A9A0B9C0392DB
:1053DC009A4200D903935B465B080693039B21001A
:1053EC005A08069B9800ED4BC0180AF047FB5B4629
:1053FC009DB26B469E89EA4B320098463B68290069
:10540C00019350232000009343460AF07FFB7B68F6
:10541C00320001934E2329000093200043460AF0EA
:10542C0075FBBB68320001934F23290000932000C9
:10543C0043460AF06BFBBB89320001934C232900D5
:10544C000093200043460AF061FB3B693200019354
:10545C00262329000093200043460AF057FB7B6962
:10546C0032000193732329000093200043460AF075
:10547C004DFBBB693200019362232900009320008D
:10548C0043460AF043FBFB693200019337232900A2
:10549C000093200043460AF039FB3B6A320001932B
:1054AC00762329000093200043460AF02FFBBB6AA9
:1054BC0032000193692329000093200043460AF02F
:1054CC0025FBFB6A320001936A232900009320001C
:1054DC0043460AF01BFB3B6B320001931923290056
:1054EC000093200043460AF011FB7B6B32000193C2
:1054FC001A2329000093200043460AF007FBBB6BDC
:10550C00320001931B2329000093200043460AF02C
:10551C00FDFAFB6B320001931C2329000093200041
:10552C0043460AF0F3FA3B6C320001931D23290029
:10553C000093200043460AF0E9FA7B6C3200019399
:10554C001E2329000093200043460AF0DFFABB6CAF
:10555C0032000193552329000093200043460AF0A2
:10556C00D5FAFB6C320001935623290000932000DE
:10557C0043460AF0CBFA3B6D3200019358232900C5
:10558C000093200043460AF0C1FA7B6D3200019370
:10559C006B2329000093200043460AF0B7FABB6D39
:1055AC0032000193862329000093200043460AF021
:1055BC00ADFAFB6D320001936423290000932000A7
:1055CC0043460AF0A3FA3B6E32000193652329008F
:1055DC000093200043460AF099FA7B6E3200019347
:1055EC00402329000093200043460AF08FFABB6E3B
:1055FC0032000193412329000093200043460AF016
:10560C0085FAFB6E3200019372232900009320006F
:10561C0043460AF07BFA3B6F320001935423290076
:10562C000093200043460AF071FA7B6F320001931D
:10563C00392329000093200043460AF067FA7B6F58
:10564C00002B6FD0012301930F330093320043469C
:10565C00290020000AF05AFA524B32009A46019364
:10566C00122329000093200043460AF04FFA072327
:10567C00994601930D3300933200434629002000D4
:10568C000AF044FA53460193112332000093290087
:10569C00434620000AF03AFA002301931333009397
:1056AC0032004346290020000AF030FA3E4B32000B
:1056BC000193152329000093200043460AF026FA93
:1056CC004B4601930F3300933200434629002000D0
:1056DC000AF01CFA354B320001930E23290000937B
:1056EC00200043460AF012FA4B460193083300930C
:1056FC0032004346290020000AF008FA2C4B3200F5
:10570C000193172329000093200043460AF0FEF969
:10571C004B4601931133009332004346290020007D
:10572C000AF0F4F91E4B32009846BB6F2900019326
:10573C0051232000009343460AF0E8F9FB6F320036
:10574C000193772329000093200043460AF0DEF9E9
:10575C003B1DDB6F32000193442329000093200092
:10576C0043460AF0D3F93B000833DB6F3200019358
:10577C00432329000093200043460AF0C7F93B005D
:10578C0088331B689AB29146002292464A4611E031
:10579C00D805002067D8010877D20108A0B7010806
:1057AC00588C010880FF0000C0FF0000F0FF0000D3
:1057BC00FFFF0000082A14D94B46FF22083B9A40F1
:1057CC001300FF2293439BB29A4602230193653345
:1057DC00009332004346290020000AF097F9082371
:1057EC009946F24B320098464B4601936C232900A4
:1057FC000093200043460AF089F94B460193592344
:10580C00320000932900434620000AF07FF98023E0
:10581C0052461A436E23079201920093320043467C
:10582C00290020000AF072F9C02352461A43702353
:10583C0091460192009332004346290020000AF061
:10584C0065F95246FF231343049301936F233200EF
:10585C0000932900434620000AF058F9079B3200B8
:10586C0001935B2329000093200043460AF04EF974
:10587C004B4601935D2332000093290043462000E0
:10588C000AF044F9049B320001935C232900009335
:10589C00200043460AF03AF9F02352461A434A23B1
:1058AC0091460192009332004346290020000AF0F1
:1058BC002DF94B46019345233200009329004346B2
:1058CC0020000AF023F9049B3200019322232900C3
:1058DC000093200043460AF019F93B0090331A68F4
:1058EC006423052A00D8203B0193052332009946F6
:1058FC0000932900434620000AF008F990239A46A9
:10590C00BA4453461B6832005B01033B01932423CA
:10591C0029000093200043460AF0F8F853461B6810
:10592C0032005B015B08033B0193252329000093A4
:10593C00200043460AF0EAF83B0094331B6832001F
:10594C000193362329000093200043460AF0DEF829
:10595C003B0098331B6832000E3301935E23290001
:10596C000093200043460AF0D1F853461B689A4630
:10597C0099458041012398438D4B51469C46604488
:10598C000BF068FC8846002902D053465B1A9846F7
:10599C009C239A46BA4453461B68320043440193F5
:1059AC0099461F23290000932000804B0AF0AEF883
:1059BC0053461B68002B19D07E4B1A0030321278DC
:1059CC00012A06D95B6B7C4A9A467C4943460220E5
:1059DC00D047784B1A0030321278012A06D95B6B0B
:1059EC00774A984675494B460220C0473B00903396
:1059FC001B6808209946052B00D8023049460BF04D
:105A0C0029FC8846002902D04B465B1A9846A023F5
:105A1C009A46BA4453461B68320043440193994654
:105A2C006623290000932000604B0AF06FF8534660
:105A3C001B68002B19D05F4B1A0030321278012AE8
:105A4C0006D95B6B5F4A9A465C4943460220D047B5
:105A5C00584B1A0030321278012A06D95B6B5A4A1D
:105A6C00984656494B460220C0473B008D331B7865
:105A7C00002B14D0002301933B33009332004B4B8B
:105A8C00290020000AF042F84A4B1A0030321278F2
:105A9C00012A04D95B6B4D4A4849022098473B00C8
:105AAC00A4331B6832009946404B290098464B465C
:105ABC00013B019306232000009343460AF026F88D
:105ACC00494604200BF040FB6323013801900093FE
