:020000040800F2
:10000000009000208D1D0108336600083766000847
:1000100000000000000000000000000000000000E0
:10002000000000000000000000000000356600082D
:100030000000000000000000316600082166000892
:10004000DD1D0108DD1D0108BD650008DD1D01087D
:10005000DD1D0108DD1D0108B3650008A965000864
:10006000DD1D01089965000889650008DD1D01088E
:10007000DD1D0108DD1D0108DD1D0108DD1D010874
:10008000DD1D0108DD1D0108DD1D0108DD1D010864
:10009000DD1D0108DD1D0108DD1D0108F1640008FA
:1000A000DD1D0108DD1D0108DD1D01084D6300088F
:0C00B000DD1D0108DD1D0108DD1D01083B
:1000BC0010B5064C2378002B07D1054B002B02D032
:1000CC00044800E000BF0123237010BD7000002025
:1000DC0000000000E84A0108044B10B5002B03D0C7
:1000EC000349044800E000BF10BDC04600000000FA
:1000FC0074000020E84A0108836910B50400002B45
:10010C000AD00E4B1A0030321278002A04D05B6BE6
:10011C000B4A0C4901209847E369002B0AD0074B86
:10012C001A0030321278002A04D05B6B064A05495B
:10013C000120984720688368984710BDE803002089
:10014C0040AB010851AB010873AB010870B504005A
:10015C00416A028F438F0968E56B0069A8472068E4
:10016C004368984770BDF0B5012604000027490884
:10017C0085B0490003930F4D4318029201937642C8
:10018C00019B9C4201D105B0F0BD0B4B208802991C
:10019C00C018039B58430CF0C5FE80231B02C018EB
:1001AC0002D527800234EBE7A84201DD2680F9E76F
:1001BC002080F7E7FFFF00000080FFFF836B204AE1
:1001CC0010B5040093420BD103694269934216D0D7
:1001DC001C4B1D4A5B6B00201C499847002010BD2E
:1001EC001B4A934207D103694269934207D1154BCD
:1001FC00184A5B6BEFE7134B174A5B6BEBE7A36992
:10020C00002B0AD00F4B1A0030321278002A04D07F
:10021C005B6B124A0D4901209847E369002B0AD009
:10022C00084B1A0030321278002A04D05B6B0C4A4F
:10023C00064901209847206883689847CFE7C04655
:10024C0033100008E803002082AB0108AAAB0108B8
:10025C00E1100008BBAB0108F0AB010840AB010892
:10026C0073AB010810B50400836B98472068436892
:10027C00984710BD0369426910B50400934207D03A
:10028C00134B00205B6B134A13499847002010BD99
:10029C008369002B0AD00E4B1A0030321278002AD8
:1002AC0004D05B6B0D4A0C4901209847E369002B85
:1002BC000AD0074B1A0030321278002A04D05B6B3C
:1002CC00074A054901209847206883689847DEE76C
:1002DC00E803002082AB010805AC010840AB010823
:1002EC0073AB010810B50400836B98472068436812
:1002FC00984710BD7047836910B50400002B0AD0D5
:10030C000E4B1A0030321278002A04D05B6B0C4A68
:10031C000C4901209847E369002B0AD0074B1A00BF
:10032C0030321278002A04D05B6B074A0549012051
:10033C00984720688368984710BDC046E8030020A2
:10034C0040AB01081DAC010873AB010810B5436A42
:10035C00826B00681A604368984710BD836910B5BA
:10036C000400002B0AD00E4B1A0030321278002AEF
:10037C0004D05B6B0B4A0C4901209847E369002BB6
:10038C000AD0074B1A0030321278002A04D05B6B6B
:10039C00064A05490120984720688368984710BD94
:1003AC00E803002040AB01082AAC010873AB01083C
:1003BC00F0B5002652080400064D900009180439C7
:1003CC00013A00D2F0BD5300E35E4E805B106B40EF
:1003DC000B80F4E700C0FFFF70B55308064D5B00BF
:1003EC00023B9C1C03D103339A43100070BDC45EC6
:1003FC0064106C40CC52F3E700C0FFFF52081300AE
:10040C0030B5013B01D2900030BD5C00045B9D0017
:10041C0024034C51F5E7F7B59408E7000090CD198B
:10042C00A400043C083D231D01D13800FEBD009BF7
:10043C001B190220185E0DF0CFF8E62189050CF08F
:10044C00B5F9009B061C185F0DF0C6F8E62189056E
:10045C000CF0ACF900210190301C0CF0A7F9011C38
:10046C0001980BF0F7FE6E602860DAE7F7B516001E
:10047C00940800900191A400043C231D03D130008A
:10048C0003239843FEBD009B1D59A8B20DF0A4F8A0
:10049C00DE2189050CF08AF9071C28140DF09CF854
:1004AC00011C381C0BF0D6FE019B1851E4E710B56B
:1004BC0053085B00023B9C1C03D103339A4310008E
:1004CC0010BDC45A6400CC52F4E7836910B5040023
:1004DC00002B0AD00E4B1A0030321278002A04D0AE
:1004EC005B6B0C4A0C4901209847E369002B0AD03E
:1004FC00074B1A0030321278002A04D05B6B074A83
:10050C0005490120984720688368984710BDC0466C
:10051C00E803002040AB01083CAC010873AB0108B8
:10052C0010B50400436A828F19680069A36B984761
:10053C0020684368984710BD836910B50400002BF0
:10054C000AD00E4B1A0030321278002A04D05B6BA2
:10055C000B4A0C4901209847E369002B0AD0074B42
:10056C001A0030321278002A04D05B6B064A054917
:10057C000120984720688368984710BDE803002045
:10058C0040AB01084EAC010873AB010810B5006814
:10059C00C368984710BD10B5FFF7F8FF10BD10B534
:1005AC00FFF7F4FF10BD10B5FFF7F0FF10BD10B54D
:1005BC00FFF7ECFF10BD10B5FFF7E8FF10BD10B54D
:1005CC00FFF7E4FF10BD70B50400456A41692A6865
:1005DC00A36B00699847286020684368984770BDF2
:1005EC0010B5FFF7F0FF10BDC36A10B5002B02D099
:1005FC0014305B6B984710BD826910B5002A0FD080
:10060C0048235A43074B483A1B689B181A00403240
:10061C001278002A01D141331A700430FFF7E4FF3D
:10062C0010BDC046980500200020704710B5024B45
:10063C00DB68984710BDC046E803002010B50400E5
:10064C004069002803D0FFF7F1FF0023636110BD60
:10065C0010B504004069002803D0FFF7E7FF002322
:10066C00636110BD70B504680500002C0AD0606F82
:10067C00FFF7C2FFEA239B00E058FFF7D7FF2000EB
:10068C00FFF7D4FF2800FFF7D1FF70BD70B50468E9
:10069C000500002C0AD0606FFFF7AEFF2300FC337F
:1006AC00D869FFF7C3FF2000FFF7C0FF2800FFF752
:1006BC00BDFF70BD10B5024B5B69984710BDC046BD
:1006CC00E803002070B5856B042D07D9274B284A09
:1006DC005B6B28490020984700240AE0042D10D1B8
:1006EC00224BDC69002C06D15B6B234A214920008C
:1006FC009847200070BD0279032A02D15B6B1F4A18
:10070C00E7E7C38F162B03D9184B1D4A5B6BE0E749
:10071C00838F013B3E2B03D9144B1A4A5B6BD8E7F2
:10072C000379002D05D1032B0ED1104B164A5B6BB0
:10073C00CFE7032B08D103004E331C78002C03D1D8
:10074C000A4B124A5B6BD1E704239D4303D1030090
:10075C0001224E331A70323003780124062BC8D094
:10076C00092BC6D0014B0A4A5B6BB2E7E8030020A9
:10077C005AAC010872AC010885AC0108C4AC010884
:10078C0006AD01083AAD01088CAD0108C8AD0108F1
:10079C0008AE010810B504000120002C0AD1074A4C
:1007AC00130030331B78002B05D0536B0449054ADA
:1007BC009847200010BD1800FCE7C046E803002055
:1007CC0072AC01081CAE010810B50400FFF7E2FF83
:1007DC00002801D04E34207810BD10B50400FFF76E
:1007EC00D9FF002801D04934207810BD70B5040021
:1007FC000D00FFF7CFFF002801D06834258070BDB5
:10080C0010B50400FFF7C6FF0023984201D06834EE
:10081C002388180010BD10B50400FFF7BBFF0023A0
:10082C00984201D060342388180010BD70B50400C4
:10083C000D00FFF7AFFF002801D00634E58770BD2F
:10084C0070B504000D00FFF7A5FF002801D004349B
:10085C00E58770BD10B50400FFF79CFF002398429C
:10086C0001D00434E38F180010BD70B504000D00E6
:10087C00FFF790FF002801D00234E58770BD10B55A
:10088C000400FFF787FF0023984201D00234E38F66
:10089C00180010BD10B50400FFF77CFF00280BD02A
:1008AC002079032808D80CF09FFA02020505FF20D6
:1008BC00C00510BDA068FCE70048FAE70000C07F47
:1008CC0010B50400FFF766FF0023984200D023798F
:1008DC00180010BD10B50400FFF7F2FF01280CD072
:1008EC002000FFF7D7FF011C05480BF04DFE044913
:1008FC000BF0B0FC0CF09AFC10BDFA20C000FBE72A
:10090C000000FA4410B50400FFF744FF002398429E
:10091C0001D0A38FDBB2180010BD10B50400FFF797
:10092C0039FF002801D04834207810BD10B50400E0
:10093C00FFF730FF002801D04734207810BD10B5E8
:10094C000400FFF727FF0023984200D0A36B180088
:10095C0010BD10B50400FFF71DFF002801D00123C6
:10096C00237110BD10B50400FFF714FF002398424B
:10097C0000D0E368180010BDF0B5304B93B05B6B42
:10098C0004000B93FFF7EEFF0C902000FFF7BAFF6B
:10099C000D902000FFF7FEFE0026B04200D0E68F3F
:1009AC002000FFF76CFF0E902000FFF753FF0F9015
:1009BC002000FFF7EFFE0027B84201D0A31DDF8F08
:1009CC002000FFF7BCFF1E4B0A93042803D81D4BD5
:1009DC008000C3580A932000FFF7DCFE1A4D002854
:1009EC0008D023006A331B78002B03D0174D012B42
:1009FC0000D0134D2000FFF799FF10902000FFF757
:100A0C000AFF11902000FFF788FF119B09900893B3
:100A1C00109B069507930A9B049705930F9B0196D1
:100A2C0003930E9B0A4A02930D9B0A4900930220E2
:100A3C000C9B0B9CA04713B0F0BDC046E8030020F4
:100A4C00C3BC0108004B010837AE010846B70108CA
:100A5C0039AE010872AC010810B5034B034A5B6B4D
:100A6C0003490120984710BDE803002071AE01082E
:100A7C0021B9010810B500280AD0094B02689A4226
:100A8C0006D1038B002B03D043690120002B06D128
:100A9C00044B00205B6B044A04499847002010BDAE
:100AAC00D79DC0ACE803002071AE010821B9010844
:100ABC0010B50400FFF7DEFF00280AD06379013B74
:100ACC00042B06D9034B00205B6B034A0349984760
:100ADC00002010BDE803002087AE010821B90108F1
:100AEC0010B5002804D00268054B01209A4206D0AC
:100AFC00044B00205B6B044A04499847002010BD4E
:100B0C00E89EC0ACE80300209FAE010821B90108A3
:100B1C0010B504000069002803D0C368984700236F
:100B2C00236110BD10B5041E01D0006910BD064B29
:100B3C001A0030321278101EF8D001205B6B034A79
:100B4C00034998472000F1E7E803002071AE010843
:100B5C0021B9010870B505000E00FFF7E3FF041E74
:100B6C0010D0FFF717FE002802D023004A331E7066
:100B7C00002E08D00F212000FFF777FE0121200066
:100B8C00FFF754FE70BDAB68002BFBD069792800D1
:100B9C009847F7E710B5002803D00173FFF7DAFF89
:100BAC0010BD044B30331B78002BF9D0FFF754FFEA
:100BBC00F6E7C046E803002010B5041E0CD083688D
:100BCC00002B09D041719847237B002B03D00121C6
:100BDC002000FFF7BFFF10BD034B30331B78002BF9
:100BEC00F9D0FFF739FFF6E7E803002070B50D1CCC
:100BFC00FFF798FF0400FFF7CDFD00280ED0084941
:100C0C00281C0BF0D3FD011C05480BF001FFFC2147
:100C1C0089050BF01FFB0CF0BFFCE08770BDC046D4
:100C2C000000B04110B5041E04D00379032B0DD184
:100C3C00200010BD064B1A0030321278002AF7D073
:100C4C005B6B044A044901209847F1E70024EFE765
:100C5C00E803002071AE0108AEAE010870B50D00BE
:100C6C00FFF7E0FF002811D01C300400681E042898
:100C7C000CD80CF0B9F8030C0E141A00002120004B
:100C8C00FFF7DEFD00212000FFF7EFFD70BD07210F
:100C9C00F5E709212000FFF7D3FD0321F3E70C2131
:100CAC002000FFF7CDFD0621EDE71021F8E710B588
:100CBC000C00002815D0037A032B12D103691B6892
:100CCC009A69586A0A60DA694A60DA8D0A819A6A06
:100CDC00CA6004490BF06AFDFC2189050BF066FD26
:100CEC00206110BDC2F38E4DF8B5144B144E5C68E8
:100CFC00330030331B780500032B05D94368114AA8
:100D0C0011490420776BB8470023002C0DD0626D7D
:100D1C00AC4207D1002B0FD1084B5A602000FFF7D3
:100D2C0085FC08E023001400EFE7766B6B68074A3C
:100D3C0005492000B047F8BD5A65EFE78C0000204C
:100D4C00E8030020BDAE0108DEAE0108EEAE0108DE
:100D5C0010B50400FFF78EFE002802D02379002B7B
:100D6C000BD0074B1A0030321278141E05D05B6B77
:100D7C00044A0549012098470024200010BDC046B4
:100D8C00E803002071AE010822AF010870B50E0017
:100D9C00FFF7DEFF051E18D00400701E1C3404285B
:100DAC0013D88C350CF020F8031220222C000021D3
:100DBC002000FFF745FD00212000FFF756FD032121
:100DCC002000FFF733FD0F4B2B6070BD0721200077
:100DDC00FFF736FD06212000FFF747FD0921200013
:100DEC00FFF724FD084BEFE70921F0E70C21200069
:100DFC00FFF726FD06212000FFF737FD0121EEE766
:100E0C001021F4E7FA61843C0938843B10B50028C2
:100E1C000DDB074B1C7AA04209DA002907DB5C7A50
:100E2C00A14204DADB688000C3584900CA5210BDE5
:100E3C008C000020002310B598420DDB074A147A71
:100E4C00A04209DA994207DB547AA14204DAD3684A
:100E5C008000C3584900CB5A180010BD8C000020EC
:100E6C000122174B524210B501005A61122820D8AA
:100E7C001A008000183210180A00203AD4B2222C22
:100E8C0002D890000F4A80180A007F32D2B2042A8E
:100E9C0005D808001A0081386432800010180A0046
:100EAC003032D2B2092A03D8D039783388001818D6
:100EBC0010BD18001430E929DED10438DCE7C04637
:100ECC008C0000202C030020014B18687047C04692
:100EDC00E40300200021102210B5074B1C691442BA
:100EEC0002D19A61FAE79A621C691442FBD1013172
:100EFC008842F3D110BDC0460004005010B50A2042
:100F0C00FFF7E8FF8022024B92009A6210BDC046A8
:100F1C000004005000487047001BB74B0C4A70B5DA
:100F2C00082415000B4806681369234203D1036893
:100F3C009B1B8B4203D328690007C00F70BD72B690
:100F4C001369234200D130BF62B6BFF36F8FEBE75A
:100F5C0000040050E403002010B5044CA06B13F007
:100F6C0097FD0023A363A387E38710BD0C0100202A
:100F7C0070B5049E1D0033784469002B0AD1A37E02
:100F8C00002B11D0E3686068934200D913001A005B
:100F9C0013F088FD337820696376002803D06269EA
:100FAC00290013F07FFD70BDA3681960F2E77FB5CF
:100FBC00050010008A790E794C7903AB9A7002AA5D
:100FCC005E7014701C7000924A692900FFF7D0FF04
:100FDC007FBDF0B5050085B01000CA794C7903AB24
:100FEC000E798F79DA7002AA14701F705C709E7083
:100FFC0000924A692900FFF7BBFF05B0F0BDF8B5B8
:10100C0004000E009508AF00C719BC4201D168005E
:10101C00F8BD608823880004184309F039FE0434B5
:10102C0030800236F1E7F0B5466A85B03368016C62
:10103C000093036B04001F68381C0BF0B7FB09F01E
:10104C0085FDE16B0500381C0BF0B0FB09F07EFD53
:10105C00009B24699B089B001B1902900393039B24
:10106C009C4205D10323009A9A43326005B0F0BD2F
:10107C008023DB05E81809F0F5FD0700280009F0CE
:10108C00F1FD0022A35E0193019A0223E15E7A43F3
:10109C00D3171B051B0D9B1802004A43944679433A
:1010AC00CF173F053F0D7F180199D2174143120509
:1010BC00C817120D00056244000D1B1312134018C3
:1010CC009A1A3F130013029B3F1822806780ED1879
:1010DC000434C4E7F0B5476A85B03B6805005B088B
:1010EC000093036B016C1C68201C0BF05FFB09F078
:1010FC002DFDE96B0600201C0BF058FB09F026FDBA
:10110C00009B2C695B001B196D6902900393039B78
:10111C009C4204D1009B9B003B6005B0F0BD0022BB
:10112C00A35E023401938023DB05F01809F09AFDCD
:10113C00019B4343D8170005000DC01800132880ED
:10114C00300009F08FFD019B4343D8170005000DBB
:10115C00C018029B00136880F6180435D7E77FB5DA
:10116C000022436A06691D6803AB1A805A80039BF0
:10117C00AD082A003100403000930123040009F02F
:10118C0087FB0A4B2000EB189B00F3180222995E98
:10119C001B8802AA138001235180029A310000920D
:1011AC005B422A0009F074FB7FBDC046FFFFFF3F86
:1011BC00F0B54908520885B08BB295B202900193F4
:1011CC00002D00D11D002F0000268BB2009303933D
:1011DC00019BB34201D805B0F0BD039AF3199342B9
:1011EC0000DD009F002F1FD000221000029B740016
:1011FC001C19BA421FD30123002800DA023B7A08DB
:10120C0092B25343390018180BF08CFE7B0002B2DB
:10121C00E318002A19DD002180B22288824211D203
:10122C0021800234A342F8D1009B76195B1B9BB240
:10123C00B6B20093CCE75300E35A0B4901325B186A
:10124C00C018D6E7121A2280EBE7084952182188F9
:10125C00914206DD0121494221800234A342F6D19C
:10126C00E2E7091AF8E7C0460080FFFFFFFF000025
:10127C0070B503000C0001220020A2420FD30CF029
:10128C00ABF9051C601E0CF0A7F9011C281C0BF017
:10129C007BF911F0CBFA07490BF088FA70BD1D8869
:1012AC0059880132491BCD1749196940401892B22F
:1012BC000233E2E70000A04130B50E25002485B0D2
:1012CC006D442A0021002C8009F014FD2A88074B5C
:1012DC0001209A4207D00092054A2000556B05491F
:1012EC00054AA847200005B030BDC04612110000C9
:1012FC00E803002061AF010833AF0108F7B544697A
:10130C001E002300B83300931B881700002B27D036
:10131C002200B432019215880A686D0055192A0012
:10132C00016801200AF036FD009B28001988FFF7A0
:10133C009FFF0C49706001250BF044FF002800D181
:10134C00051C0023226C35709A4203D1BA342278E2
:10135C0001335340012213403372019B1B883B60C5
:10136C000120FEBD00006442F0B5446985B00093D5
:10137C002300CE3302931B8807000D001600019347
:10138C00002B39D02300C833186880B24300039374
:10139C002300CC3319887C200BF03AFD039B2D687D
:1013AC0058432300C4331B883968C0182D182A00F1
:1013BC00019B01200AF0EEFC029B28001F880125EE
:1013CC003900FFF755FF009B0D4958600BF0FAFEF2
:1013DC00002800D1051C009BE26E1D7000239A4270
:1013EC0003D1C03422780133534001221340009AB8
:1013FC0013723368DF1B3760012005B0F0BDC046A7
:10140C000000644270B51600050007F0BBFE040036
:10141C0033000200290000200AF0BCFC200070BD43
:10142C007FB503AE3200050009F086FE041E08D11C
:10143C000A4B0B4A5E6B0B492B00B047200004B0E3
:10144C0070BD7388062BF9D00093044B064A5C6B75
:10145C0004492B000020A0470024EFE7E8030020FC
:10146C0071AF010861AF0108A3AF0108F0B585B0F9
:10147C0003AC17002200060009F05EFE051E32D0F8
:10148C0022786388062A25D11A0523D58022D2001A
:10149C0013402BD1002F00D03B706388DB050AD59D
:1014AC00154B1A0030321278032A04D95B6B134A9D
:1014BC0013490420984763889B0514D50E4B1A00DA
:1014CC0030321278032A0ED95B6B0E4A0C49042079
:1014DC00984708E00093084B0B4A5C6B08493300B3
:1014EC000020A0470025280005B0F0BD31000F20DA
:1014FC000AF044FC2B00CDE7E80300200DB00108F6
:10150C0061AF010826B00108DDAF010873B56B4669
:10151C009C1D0023220038210500238009F0EAFBE2
:10152C0024880120002C0AD1054B064A5E6B064923
:10153C002B002000B047280009F003FC200076BDEA
:10154C00E80300203EB0010861AF0108F0B5071DAB
:10155C0095B0019205000C00342200213800009354
:10156C0010F07CFE524B1B68002B03D01E68002E23
:10157C0000D095E02000FFF7F5F907002000FFF7F9
:10158C0069F903AE30802000FFF779F970802000F4
:10159C00FFF700F90023984201D0A31DDB8F200038
:1015AC00B380FFF7BAF939002F00F0800423320022
:1015BC00122018370AF0EEFB20220021380010F020
:1015CC004DFE2100380023689847061E16D02022B5
:1015DC0000210CA810F042FE1C22002105A810F0DE
:1015EC003DFE2B6B0CAA1E68210005AB3800B047E2
:1015FC00061E29D12B6B38005B6B98472000FFF738
:10160C009EF90223002803D00123042800D00023D4
:10161C002B702000FFF754F94342584168702000AA
:10162C00FFF7D2F8A8702000FFF79CF905220CAB4D
:10163C001A7002320D900E9218001532009909F0B2
:10164C0023FF300015B0F0BD019B002B07D01A0012
:10165C000CAB83CB83C283CB83C203CB03C2009B73
:10166C00002B04D01C2205A9180013F01BFA200033
:10167C00FFF726F9012810D02000FFF70BF9011C09
:10168C000C480AF081FF0B490AF0E4FD0BF0CEFD8B
:10169C0000236860EB606B81B0E7FA20C000F7E7CD
:1016AC00009B019A21003800B0470600A6E7C0460F
:1016BC009C0500200000FA440023F0B5140005003E
:1016CC008FB0019108A9CB7108A99370D3701380C6
:1016DC00137313718B713E4A0168A2600291817B76
:1016EC000391C17B05918189009304910169079253
:1016FC0006916B46049A1B889A4258D9039B002B7F
:10170C000CD008ABDE1DAB6932009B6906990298C0
:10171C009847002809D100200FB0F0BDAB690298A2
:10172C009B6A98470028ECD1F5E73378002B00D161
:10173C00A378A370AB6908AADB690632019928006B
:10174C00984700230BAE33703372AB69079A1B6A50
:10175C000A9072601F000AAA330001992800B8474A
:10176C00337A002B00D1237B36782373331E00D1C0
:10177C0023792371A1680C9810F02CFF08AB063369
:10178C001B78A060002B00D1E378E3700A9A2388C1
:10179C003100D3182380AB6928005B6A9847059BFE
:1017AC00002B07D0049B009A013B9A4202D1019B6B
:1017BC001868B1E7039B002B03D1009B0133009306
:1017CC0097E7AB6902989B6A98470028F5D1A2E786
:1017DC00000080FF37B5456901242B00BA331B7814
:1017EC0019432B6C4C405A4253418B4206D0009407
:1017FC00EF23044A0449006807F018FD2C6401200B
:10180C003EBDC046485B01088870010870B50D00EC
:10181C000021436911701A00B833B4321B88148844
:10182C002968E41822000068FFF7ECFD6200010053
:10183C00286813F040F9200070BDCD2270B552001D
:10184C0004000D00BC200F4907F090FC00236061E0
:10185C00984215D02800FFF785F820602800FEF785
:10186C00B3FFA0732800FFF76AF843425841E073B6
:10187C002800FFF72FF8044B20611433A3610123D8
:10188C00180070BD6FB00108004B01082C2270B518
:10189C00FF3204000D00D4200F4907F067FC002331
:1018AC006061984215D02800FFF75CF82060280092
:1018BC00FEF78AFFA0732800FFF741F84342584116
:1018CC00E0732800FFF706F8044B20614C33A3614A
:1018DC000123180070BDC046A1B00108004B0108DF
:1018EC0070B5602272498C2007F040FC041E00D1B8
:1018FC00DBE0704B05000360032303716E4B1C355A
:10190C0083606E4B05614361582302210383FFF70B
:10191C0053F920000021FFF73DF92800FEF73AFFAC
:10192C00002801D0664B23642800FEF733FF002803
:10193C0001D0644B63642800FEF72CFF002803D011
:10194C00230006224E331A702800FEF723FF0028CE
:10195C0001D00123A3622800FEF7FBFF2800FEF74D
:10196C0019FF002801D0022363652800FEF712FF3F
:10197C00002803D02300002248331A702800FEF7F9
:10198C0009FF002803D0230010227C331A80280082
:10199C00FEF700FF002802D00022231DDA67280082
:1019AC00FEF7F8FE002803D02300002262331A70E1
:1019BC002800FEF7EFFE002803D02300002263333B
:1019CC001A702800FEF7E6FE002803D02300002240
:1019DC0064331A702800FEF7DDFE002807D02300C0
:1019EC0000226B335A701A70013340325A8028002F
:1019FC00FEF7D0FE002803D02300FF2272331A809A
:101A0C002800FEF7C7FE002803D023000022743301
:101A1C001A702800FEF7BEFE002804D02300002216
:101A2C0076331A70A26728000121FEF7DFFE28002A
:101A3C00FEF7B0FE002803D02300012286331A7073
:101A4C002800FEF7A7FE002803D023000B225A33F0
:101A5C001A802800FEF79EFE002803D023000A22DD
:101A6C0058331A802800FEF795FE002803D0230077
:101A7C00002265331A702800FEF78CFE002803D074
:101A8C00230001226A331A702800FEF783FE002817
:101A9C0004D080222300520170331A802800FEF7F4
:101AAC0079FE002801D0084BE361200070BDC046D0
:101ABC00D3B00108D79DC0AC690C0008293B0008C5
:101ACC00CDCC4C3E9A99993E47180008F7B52E4D4F
:101ADC0004002F78002F49D0FEF7CCFF002801D14D
:101AEC00002741E02369DE682A2E07D9274B284AB4
:101AFC005C6B28492A230020A047F1E76B78002B68
:101B0C0002D16B68002B28D1238B01931F4B1A0039
:101B1C0030321278032A05D95F6B1F4A33001D49F6
:101B2C000420B847BD221D49019807F01FFB071E72
:101B3C00D6D01B4B466003606B682100436563691C
:101B4C006860984700280DD1FB68002B01D0380045
:101B5C0098473800FFF7C8F8C2E75A6896420CD08D
:101B6C005B6DCFE701237B723800FEBD074B0D4A3E
:101B7C005B6B084938009847F6E7044B0A4A5B6BE5
:101B8C00044900209847ABE78C000020E8030020B4
:101B9C00F4B00108DEAE01080DB101082CB101084A
:101BAC00E89EC0AC4EB1010860B10108F0B54469C3
:101BBC008DB0230027000492C2331B8805000E0051
:101BCC00C637002B00D13B802300CC3319887C20F6
:101BDC000BF01EF92300C8331B6806A99BB25843AF
:101BEC002300CE331B88C3182000029309F00CFC91
:101BFC00029B069A39889A18336828685918FFF797
:101C0C0001FC2300AD331B780700002B24D10023EB
:101C1C00049A06A91370200009F0F6FB029B3068A9
:101C2C005A00069B590079182700C6373B88C01804
:101C3C0012F041FF23003E88C4331E80CC3421882F
:101C4C007C205D680BF0E4F8ADB26D004543029862
:101C5C0076193E800DB0F0BD22001F21BC321368F6
:101C6C005B000B401360404A1100303109780329A6
:101C7C0004D9556B3D493E4A0420A847236A3D4A86
:101C8C009BB25B00D3180420185E0BF0A5FC051C5E
:101C9C0038880BF0EBFCDE2189050AF087FDFC216E
:101CAC0089050AF0B5FE34490AF080FD33490AF083
:101CBC007DFD011C281C0AF0ABFE0BF06DFC304ABC
:101CCC0005B2ABB29A182F4992B28A4229D8262172
:101CDC00625E788803922C4A9B18E6229BB25200D3
:101CEC00934224D90BF0C2FCDE2189050AF05EFD7B
:101CFC00FC2189050AF08CFE1F490AF057FD1F498B
:101D0C000AF054FD059028000BF066FC011C0598A8
:101D1C000AF0A0FA0BF040FC039B00B2643398422B
:101D2C0005DD22000123BC3211680B431360230034
:101D3C00BC331A680023002A11D1022B00D866E7A5
:101D4C00094A110030310978002906D0052100918B
:101D5C00556B06490D4A0120A847012358E7511E2F
:101D6C000A400133E7E7C046E80300209EB10108B2
:101D7C0087B10108804B01089A99993F00007A4479
:101D8C0012FDFFFF17020000F4FCFFFFAFB10108CA
:101D9C0010B538300AF08AF910BD10B538300AF099
:101DAC0085F910BD10B5040038300AF093F90028FD
:101DBC000CD1E02301229B00E358586198715A71B1
:101DCC00D2239B00E0180433E358984710BD10B59C
:101DDC00040038300AF07EF900280BD12300F033D0
:101DEC001B680122586198712000BC345A71B830BC
:101DFC002368984710BDF7B500903148019112F057
:101E0C0081FA00992F4812F07DFA88222E4E2F4D20
:101E1C00FF323100280012F075FA294812F072FADC
:101E2C0001992B4812F06EFAC4223100520028009E
:101E3C0012F068FA019B9C1C009B5C436400200020
:101E4C0012F01CFE234FB86300280ED1224812F06A
:101E5C0059FA224812F056FAC922310052002800D1
:101E6C0012F050FA01204042FEBD154812F04AFA19
:101E7C001B4812F047FA96223100FF32280012F06C
:101E8C0041FA0F4812F03EFA2100164812F03AFAC5
:101E9C00CB2231005200280012F034FA0021019BB1
:101EAC00B86B5A00009B9B00C318009D8CB2A542D6
:101EBC0001D80020D8E78C00035101319B18F4E7BE
:101ECC00EAB10108F0B1010802B20108B9BC01087D
:101EDC0016B201080C01002026B201082CB2010830
:101EEC004BB201086BB2010870B5144C256C28007C
:101EFC00FEF7C0FD00281ED02869FEF78CFC2300DD
:101F0C0006000E33A087D88F31000AF081FF230022
:101F1C0058331B7885B2E587002B07D023005C3340
:101F2C00188931000AF074FF2D18E5873000E18F15
:101F3C00FFF761FF70BDA087FFDEC0460C010020DB
:101F4C0084B010B503910290244804920593039C2D
:101F5C0012F0C6F9224902980AF028FC0BF01CFB7F
:101F6C000100204812F0CEF91F4B1A00583212789B
:101F7C00002A26D11A49201C0AF018FC0BF056F93D
:101F8C0001001A4812F0BEF902AB1989184812F078
:101F9C00B9F9134905980AF009FC0BF047F901004F
:101FAC00144812F0AFF90E4906980AF0FFFB0BF03B
:101FBC003DF90100104812F0A5F910BC08BC04B0A2
:101FCC001847196E201C0AF045F905490AF0EEFB7A
:101FDC000BF02CF901000948D4E7C04680B2010887
:101FEC0000007A4499B201080C010020A8B2010843
:101FFC00CEB20108E0B20108F5B20108B8B201088E
:10200C00F7B5284B284C002523600C232600636170
:10201C00C02360609B0020007C36A361A560E56056
:10202C002561E56125626562A56207F0BFFE337824
:10203C00012B17D024230121271DFB672368317046
:10204C001A68200001921A688A431A609A68D200B2
:10205C00D2089A6007F0B4F92368019A1A60202319
:10206C003570FB6725007C352B78012B16D024238B
:10207C000121261DF367236829701F681A68200048
:10208C008A431A609A6809490A409A6007F098F9DD
:10209C0023681F602023F36700232B70200007F0B8
:1020AC00C1F9F7BD00380140A0050020FFFFFFF18A
:1020BC002422012170B5254C0500231DDA67236805
:1020CC001A688A431A6000221A605A609A60204A81
:1020DC0093422ED1F0201F4A1F49136C40010B4034
:1020EC00136406F065FE606F002801D007F0F8FA63
:1020FC00A06F002801D007F0F3FA8022174B1205CD
:10210C00DA67BFF34F8FBFF36F8F210000232200DC
:10211C0088310B600832211DCB67D3672200280061
:10212C007C321370FFF76CFF0121200006F084FF56
:10213C0070BD0B4A9342E8D1064A0A49D36B0C2076
:10214C000B40D36306F034FEDFE7C046A005002049
:10215C000038014000100240FFBFFFFF04E100E027
:10216C0000440040FFFFFDFFF7B5B54EB54A33689C
:10217C0006201A4080239B001343B34F33603B6807
:10218C00B24958430AF044FE80230130DB007269E7
:10219C001A4200D086E03823AD4CAE4DA2681340F5
:1021AC00E268102B00D082E003210A40022A00D002
:1021BC0080E02268A849626811408022D2010A435B
:1021CC006260002B09D12368A44A13402360236862
:1021DC00A34A9B045B0FDA403A60A24B186807F0E5
:1021EC0051FA00287CD007229F4B19681140012915
:1021FC000CD8022118689043014319609B49286848
:10220C008C4619681140022900D0B4E0E022A16884
:10221C00D2010A43A260A26895490A40A2602268D2
:10222C00920100D5ADE08021E36B490500220B4201
:10223C0007D1E36B01320B43E363E36B0B40019378
:10224C00019B802331685B00194331602868316839
:10225C00194200D1D5E0C023E16D9B000B4010D09A
:10226C00802189008B420CD0E16D824BE06D0B40DC
:10227C00802149020143E165E16D7F480140E16540
:10228C00E365DB0706D502212868784EE36D0B4227
:10229C0000D1CEE0E36D7749194080239B000B43BE
:1022AC00E365B3E0002800D175E701386FE7002B38
:1022BC0000D17EE72368694A13402360802322689B
:1022CC005B001343802223602968D20023681342E9
:1022DC0037D06368604A1A408023DB011343636084
:1022EC003822A3681340182B30D1236E3822A368F0
:1022FC001340102B3DD02368604A1340802223608A
:10230C0029689204236813422ED1E3685C4A1A4070
:10231C005C4B1343E360802322685B04134323600C
:10232C008023E2685B0513438022E36029689204F2
:10233C002368134200D056E72B685B1A022BF7D99F
:10234C0051E72B685B1A022BC0D94CE70123226E94
:10235C001343022223662968236E1342C6D12B68CD
:10236C005B1A022BF8D93EE72B685B1A022BC9D9F2
:10237C0039E7E36837E72968091A614500D840E76F
:10238C0051E70721A2688A43110002220A43A26086
:10239C00364A382194462868A2680A40102A1AD175
:1023AC001968093A114002291AD8A368364A134011
:1023BC00A36007F001FCA368344A1B051B0F9B00AC
:1023CC00D3181F22DB681340D840264B386018689E
:1023DC0007F058F927E72A68121A6245DCD922E778
:1023EC0002211868904301431960204928688C46E3
:1023FC00196811400229D8D02968091A6145F7D902
:10240C0011E72968091A022900D820E7012A03D10B
:10241C00E36B1F4A1340E3630322636D93436365CD
:10242C00636D093293436365636D1A4A13406365A8
:10243C00F7BD2B681B1AB34200D827E7E6E7C04666
:10244C0000700040FFF9FFFF0000002040420F0029
:10245C0000100240E4030020FF80FFFFFFC7FFFFD6
:10246C000024F40004000020002002408813000027
:10247C00FFF0FFFFFFFCFFFFFFFFFEFFFFFFFFFE74
:10248C008C80C11102080222FF8FFFFF804B0108D4
:10249C00FFFFFFEFFFCFFFFF0CB4F0B5B1B036ABD1
:1024AC0004CB0AAD06000F0028009621099311F009
:1024BC004BFF952807DDAA2304AA9B181D4A1A80F6
:1024CC002E222FAB1A801C4B1C491C6820000AF0D2
:1024DC009FFC1B49059020000AF09AFC3C210AF055
:1024EC001DFD0691FA21200089000AF091FC3C2187
:1024FC000AF014FD0791FA21200089000AF00EFD64
:10250C003F23042E01D80F4B9B5D01930091079B39
:10251C00069A0599039502970B4811F0F3FE0B4BA5
:10252C001B6898680FF08CFD31B0F0BC08BC02B091
:10253C001847C0462E2E0000E403002080EE360023
:10254C0060EA00002CB301080AB30108080000205F
:10255C00802210B5054B92009A610320FEF7BAFC5D
:10256C0006F004FC0A20FEF7B5FC10BD0004005078
:10257C000122074B10B580219A62A0224900D20596
:10258C009162802292009A6206F0F0FB10BDC04668
:10259C00000400501022084B10B59A62F132FF3241
:1025AC009A618021A0224900D205916101229A6191
:1025BC0006F0DCFB10BDC04600040050B448F0B57A
:1025CC0003000124B34D85B001915C33AC621E78DD
:1025DC000395A64200D1ECE0AF4E1C703368456801
:1025EC00029303005D331B78DBB2A3420BD004349F
:1025FC00FF34A54200D0D4E08468002C00D0D0E099
:10260C00042B00D0CDE0019B002B00D1C9E092B28D
:10261C00002A00D1C5E003005D331C78042C01D0E6
:10262C0005241C700400002308340366E287841D13
:10263C00E287E0240199C768C36403650164816380
:10264C00C28782870368E400A74201D8012A6CD0B4
:10265C005C6892490C405C6040241968214202D1AC
:10266C0019680C431C60E024E400A74200D8A5E0E4
:10267C00002D01D0012A09D1019A1288DA60019A41
:10268C0002328263C28F013A92B2C28700260122C3
:10269C003700806B7E4DEC8F002C4BD12C00083416
:1026AC00E48F002C46D1002F00D0A863002E01D05F
:1026BC00019B2B64C022764C77482168784D5201DF
:1026CC008B68134208D00368029E9B1BAB42F7D960
:1026DC0006F079FA002821D1802221686E48704DCD
:1026EC008B68134208D00368029E9B1BAB42F7D940
:1026FC0006F069FA002811D1C02122686648684D9D
:10270C00C90093680B424CD0137B029E03689B1B41
:10271C00AB42F6D906F057FA002842D02023226E9D
:10272C0013432366202323663BE08024596864010D
:10273C000C4390E79C68A1070ED5554CE18F0029FE
:10274C000AD0012A08D107880230DF60E78F013FE9
:10275C00BFB2E7871700002201219C680C4210D001
:10276C004B4C0834E18F00290BD0DA680199012613
:10277C000A800A0002320192E28F013A92B2E28799
:10278C003200454C02992468641A45498C4200D8A1
:10279C0081E73F4B002F00D09863002E01D0019AA7
:1027AC001A643B4B01211A005D32117000225C331C
:1027BC001A700123039A936105B0F0BD002D01D06E
:1027CC00012A0CD1C28F012A51D9019A0199128880
:1027DC000231DA60C38F8163023B9BB2C387012154
:1027EC000222030094460C000833C28F002A03D146
:1027FC00DA8F002A00D15DE76546026897682F42A0
:10280C0011D0C78F002F0ED001290CD1C78F816B2F
:10281C00012F35D90F880231D7608163C18F0239FE
:10282C0089B2C18700219768274218D0DF8F002F0B
:10283C0015D0DF8F016C012F34D9D7680F8002318E
:10284C000164D98F023989B2D987DF8F2100012F1A
:10285C0005D8802551686D012943516021003268EB
:10286C00029D0F4F521BBA4200D99AE7BDE7019A5D
:10287C0012781A73836B01338363C38F013BACE70C
:10288C0009781173816B01318163C18F0139C7E7FD
:10289C002004002000040050E4030020FFEFFFFFA1
:1028AC0087130000127B0A70026C01320264DA8F0B
:1028BC00013A92B2DA87D1E713B5044A00910300CA
:1028CC00546B0349034A0020A047FEE7E8030020AD
:1028DC0047B3010832B30108F0B5604CA544079129
:1028EC00019202937C2A12D893000493049A84AB2D
:1028FC009B18F73BFF3B0693002307000393039BB6
:10290C00079A934207D185239B009D44F0BD7D21FE
:10291C005348FFF7D1FF049A390008A812F0C2F807
:10292C0000220124019B84A9581E8300CB18F13B83
:10293C00FF3B08921A6008AA019BA34210D8069A82
:10294C00043A01382BD20024049BA34244D1390011
:10295C000022A24263D1039BBF1801330393CEE73D
:10296C000023D55E0423D15E029B491B5943CB1730
:10297C001B051B0D5B181B135D1995800623D15E7F
:10298C000223D55E029B491B5943CB171B051B0D1C
:10299C005B181B135D19D58001340432CCE7062378
:1029AC00D15E0223D45E029B641A5C43E3171B05C1
:1029BC001B0D1B191B135B1853800823D15E0423BA
:1029CC00D45E029B641A5C43E3171B051B0D1B1999
:1029DC001B135B189380B3E708A96218508808ABE7
:1029EC001B5B0004184308F053F908AB051E05D116
:1029FC0008AA1853A31858800434A5E7185F2900B7
:102A0C0000030AF08FFA08ABE61818530223F05EA5
:102A1C002900000340420AF085FA7080ECE700239D
:102A2C00CE5E08ABD35E0225485F0593844608ABA7
:102A3C00D0180225455F05980432704303006046A8
:102A4C006843181A001308806046059B754343437E
:102A5C005B191B134B8004317BE7C046ECFDFFFF79
:102A6C0052B30108030070B5CC331D8886B0002D1D
:102A7C0004D158210C48FF31FFF71EFF03008024BE
:102A8C00CE3369461E8808F0BFFC009B2900240148
:102A9C007C20E41A0AF0BCF9A41B010020000AF007
:102AAC00B7F906B070BDC046A1B0010870B50400FE
:102ABC004069A3890200C232013B12889BB29A4240
:102ACC0002D0FFF7CFFF70BD6589FFF7CBFF010088
:102ADC0028000AF023FA081EF5D16069F1E7F0B579
:102AEC0089B00191818944690500012088429B418C
:102AFC005B420093E36E019E5A4253412200C03266
:102B0C0002921278DBB232431E0056400396814289
:102B1C0003D8934231D109B0F0BD2700C2373888B1
:102B2C00013080B20AF0FAF98EB23E802000082300
:102B3C00EF5EFFF797FF46432800FFF7B7FF230030
:102B4C00C833F7191860009A04AB1A705A70039ABC
:102B5C0001389A70029B059006971B78019A04A97C
:102B6C001A431300012228685340079308F061FCB4
:102B7C000028D0D0079BE366CDE700200700E2E7F2
:102B8C00F0B585B003AE1500320004001F0008F04C
:102B9C00D3FA00280DD03278AA420CD00092094BFF
:102BAC00094A0195546B00204C33084A0849A04748
:102BBC00002005B0F0BD002FFBD02000FEF7A6FCD6
:102BCC00F7E7C046804B0108E803002085B30108F5
:102BDC0061AF010810B501230B22FFF7D1FF10BD27
:102BEC0013B56B469C1D002322001121238008F095
:102BFC0081F820884005C00F16BDF7B5154D0400AF
:102C0C002B0030331B780E00032B06D900910300E8
:102C1C00114A124904206F6BB8472000FFF7E0FF00
:102C2C00021E0AD023000E4A0C4900206D6BA847E7
:102C3C00200008F086F80020FEBD1021200006F0D0
:102C4C00E7FA8022D20020003243102106F0E0FA8D
:102C5C000120F1E7E8030020B0B3010861AF0108DF
:102C6C00D3B30108F0B5446900232200C2321380AB
:102C7C0053809380163A17780832126887B0009206
:102C8C00E26E06000192009A0D009A4202D09F4219
:102C9C0000D0E3663000FFF709FF2300C83318604B
:102CAC00294B1A0030321278032A04D95B6B274A5D
:102CBC0027490420984706CD2300306808F0F2FB22
:102CCC00051E05D1204B234A5B6B2149984706E032
:102CDC0021493068FFF791FF051E03D1002528001C
:102CEC0007B0F0BD002F24D031693068FEF798FB97
:102CFC000028F3D0144B1A0030321278012A04D970
:102D0C005B6B164A124902209847009B002B10D08F
:102D1C00002302AA13705370012203930493019BA6
:102D2C0002A9E36630688A70059308F082FB0028DC
:102D3C00D4D0054B1A0030321278032ACFD95B6BF2
:102D4C00074A03490420C1E7E803002002B4010844
:102D5C0027B401083BB401083A02000055B401083D
:102D6C0079B40108F0B5444BBBB003921A00303271
:102D7C00127804000E00032A04D95B6B3F4A4049C9
:102D8C00042098476369BC2219000BA8256800939E
:102D9C0011F088FE349C0027A300013B30930123E3
:102DAC000222219336AB1F70009B319226972097FD
:102DBC003897CC331B887268029331680BAB2800B0
:102DCC0008F070FB2F492800FFF717FFFA2104AA1F
:102DDC00C900280008F0B0F90190B8423AD0029925
:102DEC007C200AF015F8A404240C444305A900988F
:102DFC00366808F009FB059B3100E2182800FEF745
:102E0C0001FB0600280008F041FA009805A908F01B
:102E1C00FBFA059B38005B00F6180E239C421CD86D
:102E2C0025000E3D290009F0F3FF0E2201000020C1
:102E3C00944217D8290009F0EBFF039B18800E4B26
:102E4C001A0030321278032A04D95B6B0E4A0C49F3
:102E5C000420984701983BB0F0BD5A00B25A013398
:102E6C008018DBE75300F35A01325B1ADF17DB19CA
:102E7C007B40C018DCE7C046E80300209CB4010886
:102E8C0027B401083A020000BDB4010870B5036B09
:102E9C0085691B6B416828009847074B041E05D1B8
:102EAC005B6B064A06499847200070BDDB69002B16
:102EBC00FAD028009847F7E7E8030020DCB40108B3
:102ECC00FCB4010870B5054DAB689847041E03D1DE
:102EDC006B6B034A03499847200070BDE803002040
:102EEC000BB50108D9C1010870B51E000C00150006
:102EFC000B00013A09D20A4B6A009B6A21009847E1
:102F0C00002E01D0013D05D270BD198849BA198037
:102F1C000233EEE723885BBA23800234F2E7C04623
:102F2C00E80300200133F0B55F00144B15001A00C4
:102F3C0085B00390303212780E00032A07D9009125
:102F4C005B6B0F4A1C000F4903000420A0470B4B7E
:102F5C005A68974206D95B6B0B4A0A49002098477E
:102F6C0005B0F0BDA023DB011E432E807A080023A0
:102F7C0029000398FFF7B8FFF2E7C046E8030020EA
:102F8C0019B501083FB5010849B5010810B5024B48
:102F9C009B69984710BDC046E8030020F0B50600B9
:102FAC008BB00800049300910392FDF7DBFC070043
:102FBC000098FDF7EFFB00230293984203D0009B8F
:102FCC004C331B88029348237B43483B0193594B5A
:102FDC0000211A68019BD218130042331970564B0A
:102FEC0056491B6851640591002B03D05B68002B7C
:102FFC0000D094E0049BB363130041331D78002D83
:10300C0051D15D70059B38005364FDF753FB336B56
:10301C00B0695B689847041E2DD039000B2008F06E
:10302C00ADFE29000C2207A80FF018F93000059B03
:10303C00404D0893019A2B6804999A18336B1830F9
:10304C00DC6807ABA047041E26D0019A2B689B189E
:10305C00012241331A70374B019A1B689B181900D7
:10306C0007AA1078089A423108705A6439000C206B
:10307C0008F084FE05E0324B324A5D6B32493B006E
:10308C00A8473800FFF782FF002C0CD1301DFDF74C
:10309C00ABFA20000BB0F0BD294B2C4A5D6B2A49D2
:1030AC003B00A847D7E7029B002B0ED0039B029A4C
:1030BC009A820E2307A803702022073B03994760CE
:1030CC008360012408F0E0F9E3E70098FDF785FB45
:1030DC000028EED0B569039B280014330093FDF74C
:1030EC00E9FAB36B48210193330069431833029317
:1030FC00104B48391B68F06A5918336B9B6898471A
:10310C00041E06D0336B009A1B69019902989847EC
:10311C0004002800FFF73AFF002CCAD1B6E7049A46
:10312C00039900989847041EB3D0029B002BC0D083
:10313C00BCE7C046980500209C050020000080FFDD
:10314C00E803002069B50108FCB40108A4B5010826
:10315C00F0B5ADB00490902208A80D0011F0A2FCBF
:10316C000FA8FDF74DFB06000FA82B9CFDF712FBDB
:10317C00002806D030000AF02FFA211C09F016FBAB
:10318C00179008A8FDF794FC002802D100202DB060
:10319C00F0BD1D9B042B06D1414B424A5B6B42494F
:1031AC0000209847F2E70FA8FDF7F4FA0028EDD0BD
:1031BC000FA8FDF787FA0028E8D00FA8FDF720FB31
:1031CC00431E9BB2012B05D9042803D0344B374A3C
:1031DC005B6BE4E70FA8FDF7DDFA041E03D06B234D
:1031EC0008AA9B181C780FA8FDF7D4FA002810D059
:1031FC00002C0ED015AB1B78002B0AD0284B1A00D4
:10320C0030321278002A04D05B6B294A26490120FF
:10321C0098472B79049A274C137280222100520074
:10322C00102005F0A3FF02220190EC20FF322100B8
:10323C00800005F09BFF019B0700002B01D00028AC
:10324C0012D10198FDF7F2F93800FDF7EFF90023E0
:10325C000193049B019A01981A61174B049AD3604D
:10326C00431E9841C0B292E7019B0FA9186003005E
:10327C0018330693E32304989B001830FD182B0099
:10328C00069A7867FEF762F93B006A897033041E70
:10329C001A8013D10198FDF7E5F90194D9E7C046DE
:1032AC00E8030020C7B5010822AF010802B60108E7
:1032BC0022B6010867B601081D0B00080FA8FDF720
:1032CC0069FA0390002802D015AB1B780393E32313
:1032DC009B00FA5AAB8992005B00934200D2130018
:1032EC006C89EA89A41864009C4200D21C000FA8C7
:1032FC00FDF750FA0026B04201D024AB1E88A6423E
:10330C0000D22600EB239B00FE50039B3000002BC9
:10331C0005D0E3239B00F85A80000A3080198622DE
:10332C00E849FF32FFF7CEFDEA239B00041EF8505C
:10333C00B0D01C3BFB185B889B00C3180293059311
:10334C00039B002B02D0331DC31805933D00BB1DFE
:10335C003B66FB1D7B660533BB660793043BFB6634
:10336C00143580333A1DFC64FD65BF650FA81C60E5
:10337C005A605D611C645C645D65FDF72EFA002883
:10338C0004D03B00FC33DC601C611D623B00FC3351
:10339C00DC641C651D66C2235B00FC500433FC50CE
:1033AC00079A1033FD500C33FA502433FC5004337D
:1033BC00FC501033FD50029A3433FC500433FA5055
:1033CC001033FD502833FA500433FA501033FD50AB
:1033DC00039B002B0AD0A8239B00FA50A6190C3390
:1033EC00059AFE50083BFA501033FD50B823059A4D
:1033FC009B00FA500433FC501033FD502833FC5022
:10340C000433FC501033FD502833FC502833FF504C
:10341C002833FC18AC4B30331B78012B00D902E25B
:10342C002300069A0FA9786FFFF7B8FD041E00D190
:10343C0030E73B000024A54AB0335A601C60A44B13
:10344C00A44AFB673B1DDA67A34A0433DA67A34A35
:10345C00B0335A60A24A0FA89A60A24ADA60A24A14
:10346C009A6300229A87FDF7B8F9039400281AD0C2
:10347C000FA8FDF78FF9002806D0662308AA9B1821
:10348C001B781E22002B01D1962252003B00F833F0
:10349C00B98D5A87954A1987DA63954A5A60954AC5
:1034AC009A60954ADA603B00944A3933FF339A6349
:1034BC00934A94495A60944A0FA89A60934ADA60E6
:1034CC007A6A19649A679249039A5964DA6791493E
:1034DC00914A99645A67E3239B00FC182389029351
:1034EC00E688FDF757F9139D002800D100253B0015
:1034FC008B218A4AB933FF335A60894A1E649A6019
:10350C00884AC905DA60029A281CDA6309F04EF978
:10351C000021061C281C09F05FFE002800D186E162
:10352C00FC218905301C08F095FE0AF035F83B00AB
:10353C00BF337D4AFF33D887063B9A638023A2882A
:10354C009B00FB1892009A63784A0FA85A60784A3D
:10355C009A60784ADA60FDF71DF9061E01D016ABA9
:10356C001E780FA8FDF716F9179C002800D100242F
:10357C008F239B00FD18704B6B60704BAB60704BD6
:10358C00EB60002E00D155E16E49201C09F006FEBF
:10359C000290002800D050E16B49201C09F012FE6B
:1035AC00002800D04BE1EC63002E00D122E2674BE7
:1035BC0064006408AB636649201C09F003FE002814
:1035CC0000D0634C9121201CC90509F0EFF80FF0D5
:1035DC0037F8DA21890509F0E9F85E4909F0E6F8CF
:1035EC00011C041C5C4809F013FA5C4909F010FA40
:1035FC00051C011C201C09F0D1FD002800D122E182
:10360C000021201C07F00BFB0121061C201C07F0DD
:10361C0006FB011C301C08F0B7FF514909F0C6F835
:10362C005049041C08F016FE211C09F0BFF84D4946
:10363C00051C201C09F0BAF8FE21890508F00AFEC9
:10364C00011C281C08F0A0FF011C041C09F0AEF89A
:10365C00FE21890508F0FEFD0EF0DCFB011CFE20AE
:10366C00800508F091FF8121051CC905201C09F07B
:10367C0095FD002800D1FBE0FE21201C890509F0F6
:10368C00A1FD002800D1E6E08A21281CC90509F01B
:10369C008DF8FC21890508F0DDFD09F07DFF440063
:1036AC008020A3006343C004C01A09F0DFFF0EF0B2
:1036BC00B1FBFC21890508F0CDFD09F06DFF0290EE
:1036CC0052E0C04667B60108E8030020F1AB0008E1
:1036DC006988000815880008AF8B00082D050008C4
:1036EC00D7040008CB050008BD11000873010008C1
:1036FC005901000805010008A3050008BD030008D6
:10370C00ED0500087102000869030008C3050008F4
:10371C00C9010008AB0500083310000851890008E6
:10372C00E1880008B78B0008BF8B0008590300081C
:10373C0003030008BB050008F10200088102000821
:10374C00B30500080938843B08CAFD3E6B1100081C
:10375C00DEFFFF3EDB0F4940DB0FC93F2EBD3B3385
:10376C00778D9F3FF304B53F9F258026AD007601F2
:10377C00002C00D0A0E09E23FC229B009205FA5066
:10378C0008337E51FC500433FC52C14BC14A5B6B75
:10379C00C149002098470FA8FCF7FCFF002810D067
:1037AC0015AB1B78002B0CD0A423BC499B00FB1839
:1037BC00149A5960BA49DA639960BA4ABA499A6359
:1037CC00D960B4239B00FC18B84B0FA86360B84BAE
:1037DC00A360B84BE360B84BA363C3239B00FE18F4
:1037EC00B64BB363B64B7360B64BB360B64BF3607A
:1037FC00D2239B00FD18B54B2B64B54B6B60B54BBE
:10380C00AB60B54BEB603B007833BB634033BB67BD
:10381C000293FCF7E2FF3B003933FF33002800D062
:10382C00EBE0029AEDE00FA8FDF7A6F8F8E5BF2152
:10383C00090677E6FC24A405B5E6A84CB3E6FC24FF
:10384C00029EA405AFE60121281C07F0E8F900212F
:10385C00061C281CDBE68B21281CC90508F0A6FFDA
:10386C00FC21890508F0F6FC09F096FE040017E728
:10387C008C21201CC90508F099FF291C08F096FF23
:10388C00FC21890508F0E6FC09F086FE0300029095
:10389C0043438020C004C01A09F0E8FE0EF0BAFAC7
:1038AC00FC21890508F082FFFC21890508F0D2FC77
:1038BC0009F072FE040057E7A3B2F21A92B210B2EA
:1038CC00694678539F250989AD005B007D19CB1A99
:1038DC00EB80C0235B011B1B5B00591A029B52003F
:1038EC006A80A8802981002B04D19E23039A9B0017
:1038FC00FA504AE7029B361B7600F01AA3005C4391
:10390C00029B40435B43E418FC231B06E418640051
:10391C00001B09F061FE061C200009F05DFE311C45
:10392C0008F032FE6E49041C08F094FC051C301C97
:10393C000EF070FA061C8020029B8001C01A400019
:10394C0009F04AFE011C301C08F01EFE6549061CDD
:10395C00281C08F02BFF291C08F028FF624908F0EE
:10396C0079FC0EF057FA211C09F052F80EF052FABD
:10397C00011C301C08F01AFF5C49051C09F00EFCF8
:10398C00002835D1FE21281C890509F01BFC584C58
:10399C00002822D0FE20291C800508F0F5FD051C0E
:1039AC0020002A1C09217C3007F020F9011C281C5E
:1039BC0008F0FCFE011C4F4809F02AF84E4909F0AA
:1039CC0027F84E4908F0E0FD9E239B00F8508F230A
:1039DC009B00FB18DB6B7B63DDE620002A1C0921B6
:1039EC007C3007F003F9011C281C08F0DFFEE8E727
:1039FC004348E6E7434BAB63E9E73A000299F832F8
:103A0C000A6013603B009C2275335200FF33BB509D
:103A1C003C324433BB5080239B004432FB18BB50D8
:103A2C008F239B00FB184832BB500FA8FCF7B2FE4B
:103A3C008F239B00002808D015AA1278002A04D0E6
:103A4C00A4229200BA18FA505433FC50B4239B00B1
:103A5C00FE503C33FD50B86B83689847041E06D16A
:103A6C000B4B294A5B6B29499847FFF713FCB86B42
:103A7C00C3689847E123049A9B00FA50019A244B9F
:103A8C005360244B9360244BD360FFF7E2FBC0469A
:103A9C00E803002092B6010805AC01087D8B0008F4
:103AAC00318700089587000885870008D305000832
:103ABC0045050008990500080B100008BB04000818
:103ACC00ED05000869030008C3050008DF0F0008B6
:103ADC001B870008B1860008198700080938843B49
:103AEC001AF6153FF304B53F1AF6953F000080BF58
:103AFC00804B0108DB0FC93F2EBD3B33DB0F494028
:103B0C000000C07F01030008BBB60108DBB601084A
:103B1C00B11D00089D1D000871060008F0B5A9B084
:103B2C0000908C2205A80C0010F0BCFF05A8FCF737
:103B3C00BFFF002802D1002029B0F0BD0CA8FCF773
:103B4C0029FE0028F7D00CA8FCF7BCFD0028F2D009
:103B5C0026AB1D88002D06D1674B684A5B6B684904
:103B6C0000209847E7E78A2304AA9B181B78012BAF
:103B7C0007D124AB1B88402B03D95F4B614A5B6B8D
:103B8C00EDE72379009A604C13722100EC2210208F
:103B9C0005F0ECFA050090202100ED22400005F024
:103BAC00E5FA0400002D01D000280FD12800FCF705
:103BBC003DFD2000FCF73AFD0025009B009A1D619D
:103BCC00681E8541514BE8B2D360B5E7030026006F
:103BDC0028600098183301931830FC363300019A92
:103BEC0060670CA9FDF7B2FC2300728970331A8050
:103BFC00002803D12800FCF749FDDDE7F389B789DC
:103C0C009B185B007F009F4200D21F000CA8FCF7A2
:103C1C00C1FD0026B04201D021AB1E88BE4200D2AD
:103C2C003E009822384952003000FFF74BF9230030
:103C3C00FC33D8610028DDD022001E62A31D236650
:103C4C00E31D63660533A366043BE36614320293FB
:103C5C008033E064E265A465274F1860231D03934D
:103C6C00211D883319601A61D8635C663B002600FD
:103C7C0030331B781936FF36012B34D83300019AB8
:103C8C000CA9606FFFF78AF90028B3D02300204AF3
:103C9C00B0331A601F4A20005A601F4B221DE36785
:103CAC001E4B7830D3671E4B029AD36723001D4AF4
:103CBC00B8331A641C4A5A601C4A9A601C4ADA606F
:103CCC00A063A36704F0A0FD002810D0A06BF4340F
:103CDC00C3689847009B2360164B6B60164BAB6018
:103CEC00164BEB6069E70CA8FCF746FEC6E77B6B4E
:103CFC00134A144998477DE7E8030020EDB6010804
:103D0C00AEAE01081DB7010848B701081D0B00082D
:103D1C0000004040F1AB00086988000815880008D5
:103D2C00AF8B0008BB0F00081B870008B18600088A
:103D3C0019870008DB1D0008A71D0008990600085C
:103D4C00BBB6010871B7010870B58569040028007D
:103D5C00FCF7B0FC482169430D4B48391B68E06AFD
:103D6C005918236BA66B9B689847002804D1280030
:103D7C00FFF70CF9002070BD2000236B31005B694C
:103D8C00183098470028F2D00123E370F3E7C046BF
:103D9C0098050020F7B50400FCF7A2FE002808D116
:103DAC003B4B3C4A5B6B3C49002098470025280064
:103DBC00FEBD3A4F3B0070331D78002DF0D0637A76
:103DCC00002BF4D063682A2BEAD83A0059007132E0
:103DDC00885C00900028E3D1013088545218527846
:103DEC00002A43D126002E4A18361268002A02D027
:103DFC009268002A46D1227E022A1FD03000FFF79B
:103E0C00A3FF002832D0A37E0193002B20D0237E69
:103E1C00012B10D1A36C00229B69E169206B9847A0
:103E2C00002823D0A36C206B9B6A984700281DD0D8
:103E3C003000FFF72BF863682A2B05D83A005B009B
:103E4C007132D31801225A700023009563720DE071
:103E5C00A36C206B9B6A9847002807D0A36C019A2F
:103E6C009B69E169206B98470028D0D163682A2BA5
:103E7C0003D8002171375B00D955009B002B00D172
:103E8C008EE794E7300090470028EFD0D3E7C04688
:103E9C00E803002081B7010821B901080C010020BA
:103EAC009C050020F8B50400FCF71AFE00282DD064
:103EBC001A4D2B0070331E78002E27D0637A002BFE
:103ECC0022D163682A2B21D82A005B0071329F5CB7
:103EDC00002F1BD101219954E37E002B03D0206BC2
:103EEC00FFF754F8E77663682A2B05D82A005900A7
:103EFC007132521800215170012262722A2B03D8A0
:103F0C009340002271355A553000F8BD044B054AD8
:103F1C005B6B0549002098470026F5E70C01002053
:103F2C00E80300209BB7010821B90108F0B50B6824
:103F3C008DB005AC06000320636000232070606127
:103F4C003000A160E360226123766376A376FCF7F0
:103F5C00C7FDA57E002D0DD06368002B02D0E36851
:103F6C00002B13D1224B234A5B6B2349002098472B
:103F7C00002508E0A368002B08D11D4B1F4A5B6B82
:103F8C001D492800984728000DB0F0BD0028EFD03F
:103F9C00337A2278934207D00092154A1649546B13
:103FAC000020174AA047E3E7277E002F04D03000FB
:103FBC00FFF7F0FE071EDBD0737A0393002B0CD0B7
:103FCC000B4B104A5B6B0C49002098470025002FC7
:103FDC00D9D03000FFF766FFD5E70125336974614E
:103FEC0005CB9047637E5D40039B7361EFE7C04652
:103FFC00E8030020B7B7010821B90108D4B70108BC
:10400C00E9B7010805B80108124B10B51B7804007C
:10401C00002B12D00068FCF763FD00280CD0206840
:10402C00FFF740FF2068C368002B00D0984720683A
:10403C00FCF75AFE0023236010BD074B1A003032E8
:10404C001278002AF8D05B6B044A05490120984786
:10405C00F2E7C0468C000020E80300204EB10108B6
:10406C00DEAE010873B50190FFF794FE154E041EE9
:10407C00154D1AD1154810F045F9154810F042F9B4
:10408C00144A3100280010F03DF901A8FFF7BCFFDD
:10409C00FCF762FF104B58331B78002B03D00F48F2
:1040AC004830FFF7B1FF200076BD0D4810F02AF91B
:1040BC000C4810F027F90C4A3100280010F022F9B6
:1040CC000124F0E702B20108B9BC010826B20108CC
:1040DC001BB801087F0200000C0100208C0100209D
:1040EC00EAB1010839B801088902000010B5024B89
:1040FC00DB6A984710BDC046E803002070B5061C6B
:10410C0015000C00FFF7F2FF311C08F03DFA09F026
:10411C008DF8030C80B22B60206070BDF7B50500E4
:10412C00FFF7E4FF011C061C304808F02DFAFC21B7
:10413C00890508F08FF809F079F82D4984B2301C04
:10414C0008F066FC2B4908F031FB2B4908F082F88B
:10415C0009F06CF82300103B9BB22881EF2B2BD974
:10416C00264B0021301C5F6B09F018F800281FD07B
:10417C00234C2449301C08F019FB234908F06AF839
:10418C00061C09F053F8050009F070FA011C301CEC
:10419C0008F03EFC1D4908F009FB09F047F80095B2
:1041AC000190230000201A4A1A49B8470020FEBD8E
:1041BC00FE21194C8905DDE73F2C09D800226A80C5
:1041CC002F2C00D92300AB80EA802C800120EEE755
:1041DC0001236B80E308BF2C03D82300403BDB108A
:1041EC009BB2AB8007232340EB80EEE7F902154F1F
:1041FC008096984BE8385BB500007C42E8030020C1
:10420C0079CB0108000080BFBD3706350024744906
:10421C0052B801087DB80108C3BC010870B50B6821
:10422C0086B004000E00062B0AD0062200920E4A1D
:10423C000020546B0D490E4AA047002006B070BDFB
:10424C0003AD2800FFF76AFF0028F7D0AB88636046
:10425C00EB88A3606B8823602B89A381B3882361CF
:10426C00F3886361EAE7C046E8030020CCB8010894
:10427C008EB80108F0B58BB002AC076820000E00B8
:10428C001500FFF74BFF002803D1002420000BB0D2
:10429C00F0BD0597638805AA5360A38803CE93608D
:1042AC00E388D360238913826B4607F082FD041EDA
:1042BC00EBD0009BAB806B461B79EB8006232B600D
:1042CC00054B1A0030321278012ADFD95B6B034A96
:1042DC00034902209847D9E7E8030020E0B8010819
:1042EC00CCB80108F0B50B6887B004000D00062BA4
:1042FC000BD006220092224A2249546B0020224AFB
:10430C00A0470026300007B0F0BD03AF3800FFF720
:10431C0005FF061EF6D0BB886360FB88A3607B8814
:10432C0023603B89A381AB882361EB8863612B8974
:10433C00A3616B89E361AB8923622B8AA3846B8AAB
:10434C00E384ED89AD00ADB228003E3080B27B280D
:10435C0012D97C2108F0E2FD0022280001238DB245
:10436C001100E0622363032023640023A5626063D1
:10437C00A163E2636364C5E7032201210023F0E734
:10438C00E803002027B401088EB8010810B5FFF728
:10439C00ADFE011C041C054808F0F6F80EF050F9AF
:1043AC00011C201C08F002FA10BDC046F902154F82
:1043BC0070B50400FFF7EAFF051C200009F00CF9AA
:1043CC00041CFE20291C800508F0DEF8011C201CB2
:1043DC0008F0ECF9034908F0E9F9FC21890508F02B
:1043EC00E5F970BDC2F38E4D70B5041CFFF7CEFF1E
:1043FC00211C061C201C07F02DFF051CFE20311C67
:10440C00800508F0C1F80C4908F0D0F9011C281CF3
:10441C0008F0BAF80021051C201C08F0BFFE00288B
:10442C0007D1FC218905281C07F014FF09F0B4F80A
:10443C0070BDBF210906F6E7C2F38E4DF0B5A1B0F1
:10444C0008930B0032331B7809900E000A92062B4E
:10445C0008D0092B06D0B44BB44A5B6BB44900208E
:10446C00984747E1099B30005D69FCF793F90028F8
:10447C003DD033002C331B78002B38D03000FCF7A8
:10448C0089F90024A04201D03423F45E23B2300019
:10449C000793FCF77FF90023A4B2984201D036228F
:1044AC00B35EE41823B230000693FCF7A9F9079A1F
:1044BC00069B01009B1A180008F01AFE0C1E0EDD5C
:1044CC00994B1A0030321278012A04D95B6B994A45
:1044DC00974902209847069B1C1B23B20693069B08
:1044EC00079A934220DA904B934A5B6BB6E7300005
:1044FC00FCF750F90027002800D0776A3000FCF751
:10450C0049F900280ED0B06A391C07F0A3FE041C30
:10451C00381CFFF769FF03B2201C0793FFF764FFF9
:10452C0003B2C0E70020EFE73000FCF733F90028B6
:10453C0005D033006E331B78002B00D0E0E1330044
:10454C002E331B78002B00D1D7E0328E13B2013BF7
:10455C0007205B019BB2190052011A3A12B2D41710
:10456C000440A218D210D2000F398C1A079A24B228
:10457C00944200DCEEE06C4B10005B6B0893FFF791
:10458C0017FF002108F00AFE6C4F002800D16C4F79
:10459C000798FFF70DFF051C0798FFF709FF00218F
:1045AC0008F0FCFD002800D1ABE06649281C08F09F
:1045BC00FDF8654907F04EFE08F038FE09900798A3
:1045CC00FFF7F6FE051C0798FFF7F2FE002108F036
:1045DC00E5FD002800D197E05A49281C08F0E6F8C0
:1045EC00594907F037FE051C0798FFF7E1FE061C3A
:1045FC000798FFF7DDFE002108F0D0FD002800D160
:10460C0085E05049301C08F0D1F84F4907F022FEE4
:10461C0008F00CFE09F02AF8011C281C08F0F8F927
:10462C004A4908F0C3F808F001FE07902000FFF794
:10463C00BFFE002108F0B2FD404B0693002801D1CB
:10464C003F4B06932000FFF7B3FE051C2000FFF73D
:10465C00AFFE002108F0A2FD00285BD03949281CD0
:10466C0008F0A4F8384907F0F5FD08F0DFFD050067
:10467C002000FFF79DFE061C2000FFF799FE00218D
:10468C0008F08CFD002848D02E49301C08F08EF81C
:10469C002D4907F0DFFD061C2000FFF789FE0A906C
:1046AC002000FFF785FE002108F078FD002837D0A8
:1046BC0024490A9808F07AF8234907F0CBFD08F052
:1046CC00B5FD08F0D3FF011C301C08F0A1F91F49FF
:1046DC0008F06CF808F0AAFD069B04900293079B67
:1046EC0000200193099B1A4A00933B001049089C37
:1046FC000395A047002021B0F0BD330032331A7867
:10470C0024E7FE21890551E7FE21890565E7FE2195
:10471C00890577E7FE218905A1E7FE218905B4E724
:10472C00FE218905C5E7C046E8030020FEB8010854
:10473C00CCB8010829B901085CB9010879CB01088A
:10474C00C3BC0108000080BFBD3706350024744986
:10475C008BB90108303B1CB2069B9C4200DBCFE0BE
:10476C00CD4B06985B6B0793FFF722FE002108F0F8
:10477C0015FDCA4F002800D1C94F0698FFF718FE47
:10478C00051C0698FFF714FE002108F007FD002811
:10479C0000D1A3E0C349281C08F008F8C24907F06F
:1047AC0059FD08F043FD08900698FFF701FE051C23
:1047BC000698FFF7FDFD002108F0F0FC002800D161
:1047CC008FE0B849281C07F0F1FFB74907F042FD0C
:1047DC00051C0698FFF7ECFD061C0698FFF7E8FD94
:1047EC00002108F0DBFC00287ED0AE49301C07F01D
:1047FC00DDFFAD4907F02EFD08F018FD08F036FF7F
:10480C00011C281C08F004F9A84907F0CFFF08F098
:10481C000DFD09902000FFF7CBFD002108F0BEFC38
:10482C009E4B0693002801D19D4B06932000FFF769
:10483C00BFFD051C2000FFF7BBFD002108F0AEFCFE
:10484C00002854D09749281C07F0B0FF964907F070
:10485C0001FD08F0EBFC05002000FFF7A9FD061C8C
:10486C002000FFF7A5FD002108F098FC002841D09E
:10487C008C49301C07F09AFF8B4907F0EBFC061CA7
:10488C002000FFF795FD0A902000FFF791FD002115
:10489C0008F084FC002830D082490A9807F086FF83
:1048AC00814907F0D7FC08F0C1FC08F0DFFE011CC1
:1048BC00301C08F0ADF87D4907F078FF08F0B6FC25
:1048CC00069B04900293099B03950193089B784ADD
:1048DC00009378493B000020079C0AE7FE218905DC
:1048EC0059E7FE2189056DE7FE2189057EE7FE214A
:1048FC008905A8E7FE218905BBE7FE218905CCE7E0
:10490C003000FBF77DFF069B079A0B900B99981ACA
:10491C0008F008FB013083B230000D93FBF77BFFEE
:10492C000D9B584383B230000F93FBF733FF0023EA
:10493C00984209D032004F32330012785233511E54
:10494C008A411B88524213402A00B83213800F9AB6
:10495C00D31880221201934203DD4F4B564A5B6BF6
:10496C007CE53000FBF7CEFF07003000FBF712FFB1
:10497C000624002802D0330032331C783000FBF7B9
:10498C0009FF03230D9A5A431092002804D03200D9
:10499C006A321278002A3BD1072047430D9B0D3712
:1049AC005F437C43109BE3181793FFF7EFFCF42154
:1049BC00890507F0FBFE18903000FBF7EBFE002892
:1049CC0035D0179808F052FE746E071C0021201C7D
:1049DC0008F0F8FB00282AD0211C189807F0D4FD09
:1049EC00391C08F015F8041C109808F03FFE011C47
:1049FC00201C07F0C9FDFC21890507F02BFC08F0F1
:104A0C00CBFD119000280BDA234B2C4A5B6B25E570
:104A1C00109A10937A4317000F377C43D434C1E7B4
:104A2C00274B984204DD1C4B264A5B6B16E5119014
:104A3C002B00119AB6331A803000FBF777FF2B004E
:104A4C000F9ABA331870063B1A8033002E331B783A
:104A5C00002B1CD0378E6A460124099B9F80079B34
:104A6C001386099B079A9C811A810D9A5A810B9B7C
:104A7C00013B9BB2072B06D80B99082008F038FB9A
:104A8C001291002922D0044B0F4A5B6BE6E43300F1
:104A9C0032331F78DFE7C046E803002079CB0108EA
:104AAC00C3BC0108000080BFBD3706350024744923
:104ABC00C8B90108CCB8010805BA010865BA0108E3
:104ACC00FEFF000086BA0108A6BA01083FB2013FFA
:104ADC007F01BBB2199318006B460F381B8E80B246
:104AEC001F1A3FB2FB101C93069BFA10181A03B244
:104AFC000E93A41ADB10E418A4B223B20B9908206D
:104B0C00139308F00FFA3B001590D94803400700A7
:104B1C00002B04DA0822013B5242134301331BB22F
:104B2C000C93002B02DA08331BB20C930B990C98E4
:104B3C0008F0DEFA50226B4614919B180021595E46
:104B4C00159B0E98013B1A931A9A0B9B38405343B2
:104B5C00149A07009B189BB21AB2002804DA08209A
:104B6C00013F40420743013738B20E90002802DA69
:104B7C00083000B20E90139801286DD184460700BE
:104B8C000C98814203D10E99571A7A1E97416246AE
:104B9C001740002200201692169AE41BA41A22B287
:104BAC00159287420AD0139A012A01D16B461B8FAA
:104BBC000C9A0B99981A08F0B5F980B2099B05224A
:104BCC005C691C9B2100DB00D31A199A8C310B6099
:104BDC00323A0C9B12B29B184B60230014999433FD
:104BEC008A1884C32200159B1599DB175B1A9C321B
:104BFC00DB0F13602300169AA0331A601A9A5860C0
:104C0C009A600E9B149A2700981A0B9908F08AF94F
:104C1C000023159AAC3738609A4201DD1300013B32
:104C2C00B03423603000FBF7B5FD2B007033002847
:104C3C0004D032006A321278002A18D100221A707D
:104C4C002E233000AB66FBF73BFE032815D8002360
:104C5C0008F0CAF80F1F23320C98091A4F1EB941DD
:104C6C00CFB20E99521A511E8A41D2B292E701224A
:104C7C00E5E76B62AB62EB622B633000FBF75FFE28
:104C8C0004282AD80023012208F0AEF82020E7EAF5
:104C9C00240001226B62AA62EDE73000FBF7FAFDFB
:104CAC001EAA1FA9FFF72AFA01236B620023AB622D
:104CBC001E9BEB621F9BDFE73000FBF7EBFD1EAA90
:104CCC001FA9FFF71BFA01236B62F0E76A63AA6363
:104CDC00EB6302E06A63AA63EA633000FBF75AFDF8
:104CEC000023070098420BD0330050331B781B93E2
:104CFC00330052331B881D9333004F331F783B0016
:104D0C002A000832D367002F03D01D9B8032013B51
:104D1C0013603000FBF70AFE0124002800D0A1E04C
:104D2C00002F01D01B9B12932300129A3000934347
:104D3C002B64FBF7F2FD6040C0B26864AC643000D9
:104D4C00FBF7E0FD012800D88EE00238EC64286502
:104D5C003000FBF71FFD0023984200D0F38F6B65EA
:104D6C003000FBF78CFDA8653000FBF773FDE865A0
:104D7C003000FBF750FD28663000FBF741FDA867BB
:104D8C003000FBF721FD01246040C0B2099BE867AD
:104D9C009B886B66099B5B89013BEB66099B5B6996
:104DAC000C93B6331B886B67FFF7A0F92B1DD867E4
:104DBC00FFF7ECFA071C0B9808F058FC061CFE20B9
:104DCC00391C800507F0E0FB011C301C07F0EEFCE1
:104DDC000A9BB835D860119B10985843179BC01884
:104DEC0008F044FC011C189807F0CEFB0A9B1861D4
:104DFC000798FFF7DDFA0A9B18600698FFF7D8FAB8
:104E0C000A9B1968986007F003FE0A9B0F9A58607A
:104E1C00DA8200230A9A0F9993821483089A13203A
:104E2C00118051810D99538011810F9913839180B9
:104E3C000D99D4809182D182099914821FAA138072
:104E4C000968230006F0A6FF2B88089A0333D38148
:104E5C0080235B00938120004DE46A63AB6337E7EA
:104E6C006B63FBE712945FE70023EB642B656FE742
:104E7C0007000080F0B59BB009930B0032331B7810
:104E8C0008900F000A92062B08D0092B06D0764BFF
:104E9C00764A5B6B764900209847C6E1089B380040
:104EAC005D69FBF777FC002398420CD03A004F3237
:104EBC0010783B000200511E8A4150331C7802339B
:104ECC001B88524213402A00CE321380002800D097
:104EDC0020002B00D03318703800FBF791FC2B000E
:104EEC000026CC331880103B1E603800FBF71EFDEB
:104EFC002B000122C0331870133B1A702800FDF7E9
:104F0C00B1FD0D903800FBF745FCB0424FD03B0093
:104F1C002C331B78B3424AD03800FBF73BFCB04231
:104F2C0001D03423FE5E3800FBF734FC002398429A
:104F3C0001D03622BB5E9B1907933B002E331B78A6
:104F4C00002B00D18BE03B8E38000B93FBF758FC09
:104F5C000400012823D902280CD1F3070AD4424BB0
:104F6C001A0030321278012A03D95B6B414A42494C
:104F7C0098470136079B2100981B08F0B9F80C1EC6
:104F8C000DDD394B1A0030321278012A04D95B6BD3
:104F9C003A4A394902209847079B1B1B0793079BEA
:104FAC009E4271DD304B364A5B6B334973E73800F8
:104FBC00FBF7F0FB0024002800D07C6A3800FBF7DC
:104FCC00E9FB002843D0B86A211C07F043F907908D
:104FDC0004F0C4F9211C0B90201C07F03BF9294963
:104FEC00061C0B9807F0E2FB011C301C07F0CCFAF6
:104FFC000021061C201C08F0D1F8002829D1FC2126
:10500C008905301C07F026F908F0C6FA060004F0F2
:10501C00A5F907990B90081C07F01CF91949041CF9
:10502C000B9807F0C3FB011C201C07F0ADFA002104
:10503C00041C079808F0B2F800280DD1FC21890552
:10504C00201C07F007F908F0A7FA079075E7002075
:10505C00BAE7BF210906D4E7BF210906F0E73B00F8
:10506C0032331B7870E7C046E803002008AE010815
:10507C0027B40108C2BA0108F7BA010829B9010816
:10508C005CB90108C2F38E4D3800FBF783FB002896
:10509C0005D03B006E331B78002B00D0C2E1D74B00
:1050AC009E4200DBD0E0D64B30005B6B079304F0E4
:1050BC0071F9002108F072F8D24F002800D1D24FBC
:1050CC00300004F067F9041C300004F063F900218F
:1050DC0008F064F8002800D0AAE0FE218905201C05
:1050EC0007F064FBC94907F0B5F808F09FF8089081
:1050FC00300004F04FF9041C300004F04BF900218F
:10510C0008F04CF8002800D094E0FE218905201C02
:10511C0007F04CFBBD4907F09DF8041C300004F06F
:10512C0039F9051C300004F035F9002108F036F887
:10513C00002800D080E0FE218905281C07F036FBF2
:10514C00B24907F087F808F071F808F08FFA011CE3
:10515C00201C07F05DFCAE4907F028FB08F066F850
:10516C000990A64804F016F9002108F017F8A54C90
:10517C00002800D1A44CA14804F00CF9051C9F4850
:10518C0004F008F9002108F009F8002856D1FE2196
:10519C008905281C07F00AFB9C4907F05BF808F00E
:1051AC0045F80500954804F0F5F8061C934804F002
:1051BC00F1F8002107F0F2FF002841D1FE2189050A
:1051CC00301C07F0F3FA914907F044F8061C8B48A1
:1051DC0004F0E0F80A90894804F0DCF8002107F0AC
:1051EC00DDFF00282ED1FE2189050A9807F0DEFA92
:1051FC00864907F02FF808F019F808F037FA011C67
:10520C00301C07F005FC824907F0D0FA08F00EF8C4
:10521C00099B04900193089B002000933B0002948F
:10522C007C4A7D49079C0395A04700201BB0F0BD2C
:10523C007A4954E779496AE778497EE77749A8E7DC
:10524C007649BDE77549D0E77C240B9B5B014B3B52
:10525C005C43079B9C4200DBE4E0694B07985B6B6B
:10526C00089304F097F8002107F098FF654F002889
:10527C0000D1654F079804F08DF8051C079804F0D1
:10528C0089F8002107F08AFF002800D0AAE0FE214F
:10529C008905281C07F08AFA5C4906F0DBFF07F049
:1052AC00C5FF0990079804F075F8051C079804F0E1
:1052BC0071F8002107F072FF002800D094E0FE2165
:1052CC008905281C07F072FA504906F0C3FF051C2B
:1052DC00079804F05FF8061C079804F05BF80021AF
:1052EC0007F05CFF002800D080E0FE218905301C0F
:1052FC0007F05CFA454906F0ADFF07F097FF08F0A0
:10530C00B5F9011C281C07F083FB414907F04EFA44
:10531C0007F08CFF0A90200004F03CF8002107F005
:10532C003DFF384B0793002801D1374B07932000E2
:10533C0004F030F8051C200004F02CF8002107F0D4
:10534C002DFF002854D1FE218905281C07F02EFAC8
:10535C002E4906F07FFF07F069FF0500200004F0DE
:10536C0019F8061C200004F015F8002107F016FFB0
:10537C0000283FD1FE218905301C07F017FA23497C
:10538C0006F068FF061C200004F004F80B902000C7
:10539C0004F000F8002107F001FF00282CD1FE21B9
:1053AC0089050B9807F002FA184906F053FF07F02D
:1053BC003DFF08F05BF9011C301C07F029FB144978
:1053CC0007F0F4F907F032FF079B049002930A9B55
:1053DC0003950193099B124A00930F493B0000204F
:1053EC00089C21E70D4954E70C496AE70B497EE715
:1053FC000A49AAE70949BFE70849D2E730FAFFFF93
:10540C00E803002079CB0108C3BC0108BD37063581
:10541C00002474498BB90108F7BA0108000080BF59
:10542C00C8B901083800FBF7EBF93B000B902E33A1
:10543C001B78002B45D03B8E6A46928EF40F0C9253
:10544C00089AA01993807C2107F06CFD089B041B23
:10545C001C81079B079ADB0F98187C210E9307F091
:10546C0061FD0E9B0B99C31A01331C1B089BA4B244
:10547C005C81300007F03CFE0B9BC818190007F04C
:10548C0037FE089B2000D9800C9907F047FD0F913F
:10549C0080B2002919D1089B98813800FBF74FFA8C
:1054AC0004003800FBF70CFA042C01D001280ED0B4
:1054BC00089B0C9A5B899A4209D2C84BC84A5B6B11
:1054CC0073E53B0032331B78B6E70130E3E703F0BA
:1054DC0045FF041C0B9808F0C9F8211C07F066F96D
:1054EC000A9BD860300003F055FF0A9B18600798A0
:1054FC0003F050FF0A9B1968986007F089FA0A9B21
:10550C000B995860079B981B07F00CFD013083B278
:10551C007C200793079A0A9B0B99DA82089B9B893C
:10552C000E930E9A0A9B1A83089B5C89604307F0C2
:10553C006FFC099B7C2118801C81300007F0D8FD82
:10554C007C3108007C2107F0D3FD08000B9907F093
:10555C00E9FC099B079A58809A800B997C2007F0EC
:10556C0057FC099B0E9AD8801A820C9BA34228D216
:10557C006B46998E099B99820F9B002B04D00C993A
:10558C00200007F0CBFC89B2099BD9823800FBF7CD
:10559C0001F9002819D03B0046331B78002B14D09E
:1055AC000123AB6400230024EB642C653800FBF76B
:1055BC0087F9230014AC03280FD807F015FC0A1A3E
:1055CC001E2D099B9C82DC82E0E70023AB64013337
:1055DC00E9E76B65AB65EB652B663800FBF7AFF95C
:1055EC00042825D80023012207F0FEFB2020F0F32D
:1055FC00200001226B65AA65EDE73800FBF74AF93C
:10560C0013AA2100FEF77AFD01236B650023AB651D
:10561C00139BEB65149BDFE73800FBF73BF913AAF0
:10562C002100FEF76BFD01236B65F0E76A66AA6645
:10563C003800FBF7AFF80023060098420BD03B0074
:10564C0050331B7811933B0052331B8810933B0053
:10565C004F331E7833002A00B4321360002E02D070
:10566C00109B013B53603800FBF760F901230028C5
:10567C0003D10300002E00D0119B01229A43EA664D
:10568C003800FBF74AF901235840C0B26B67286712
:10569C003800FBF737F90138A8673800FBF77AF8C0
:1056AC000023984200D0FB8FEB673800FBF7E7F83C
:1056BC002B1DD8673800FBF76DF80023984201D0FA
:1056CC00BB1DDB8F2A00013B0832D3673800FBF788
:1056DC00C1F82B00883318603800FBF75BF8002802
:1056EC0002D03B006D3318782B008D3318703800C6
:1056FC00FBF786F82B00A43318603800FBF74AF848
:10570C000023984202D03B006B331B782A009C325A
:10571C0013603800FBF73EF80023984202D03B00A0
:10572C006C331B782A00A03213603800FBF74CF85E
:10573C002A000123AC32537058402B001070089A89
:10574C00903392881A60089B9B89012B43D9089B44
:10575C005869FDF787F92B0001389433089A1860C3
:10576C000821525E5A60089AD2885A61FEF7BEFC34
:10577C002B00B0331860E1230A9A9B0093822B0014
:10578C00CC3319887C2007F043FB099B099A1B89B1
:10579C0021005843099B588100232800138305F0EE
:1057AC0033FE149B089923802200012313200968DF
:1057BC0006F0F0FACE3523882A8803339B18099A11
:1057CC000120D38196231B0193812FE56A66AB667A
:1057DC002EE76B66FBE7089B5889BCE7E8030020C3
:1057EC0017BB010870B5174C050023004C33197812
:1057FC0000290ED1144A1278CC2A05D1CB3A4D345B
:10580C001A702170023100E00121280003F014FC11
:10581C0070BD012911D120000B4A4D301278027055
:10582C003E2A04D803221A704D342178EAE700226C
:10583C0028001A7003F000FCF6E70329E8D10422D3
:10584C001A70E5E78C010020A004002010B5FBF7CE
:10585C0007FB006810BD10B514480EF053FD14483A
:10586C000EF050FD9B221349920013480EF04AFD96
:10587C000220FFF7EBFF02280CD1104B186DFEF73E
:10588C00F1FB04000220002C01D18020400303F026
:10589C0061FC09E0042802D1084B586DEFE7802029
:1058AC00C00203F057FC0024200010BDEAB101082F
:1058BC0042BB010802B20108B9BC01088C010020EE
:1058CC00F7B504007E480E0001920EF01BFD7D48DA
:1058DC000EF018FDE0227C4952007C480EF012FDBF
:1058EC002820FFF7B3FFC1B22000FBF765F9222097
:1058FC00FFF7ACFF012800D0C2E02230FFF7A6FF73
:10590C0007002000FBF70EF90500FAF743FF00280B
:10591C0008D0032338002B7107F0A8FE6C4906F061
:10592C0033FEA8602620FFF791FF07002000FBF74D
:10593C00F9F80500FAF72EFF002803D07B1E9F41D3
:10594C0047352F702520FFF781FF07002000FBF75C
:10595C00E9F80500FAF71EFF002800D0AF633320EA
:10596C00FFF774FF07002000FBF7DCF80500FAF7DF
:10597C0011FF002803D07B1E9F414E352F70200055
:10598C00FBF7D0F80500FAF705FF002806D0300029
:10599C0007F06CFE4E4906F0F7FD68622000FBF73D
:1059AC00C1F80500FAF7F6FE002806D0019807F0BA
:1059BC005DFE474906F0E8FDA8622420FFF746FF8C
:1059CC0007F054FE424906F0DFFD011C2000FBF7F6
:1059DC000DF93020FFF73AFF05002000FBF7A2F885
:1059EC000600FAF7D7FE002801D0EDB2B5873220B9
:1059FC00FFF72CFF411E8841C1B22000FBF7CAF80B
:105A0C004020FFF723FF06002000FBF733F80028A7
:105A1C0007D025692800FAF7BDFE002801D06035B3
:105A2C002E804120FFF712FF06002000FBF722F822
:105A3C0000280CD025692800FAF7ACFE002806D007
:105A4C00300007F013FE224906F09EFD68664220E6
:105A5C00FFF7FCFE06002000FBF7E4F8002820D03E
:105A6C00002E16D0012E14D01A4B1A003032127898
:105A7C00002A16D05B6B184A18490120984710E091
:105A8C00022800D04EE72000FBF74CF8FAF761FF34
:105A9C0048E725692800FAF77DFE002801D06A3511
:105AAC002E702920FFF7D2FE05002000FAF7E2FF46
:105ABC00002803D0A9B22069FAF798FEF7BDC046BA
:105ACC00EAB1010855BB010802B20108B9BC0108D2
