:020000040800F2
:100000000090002081290108534900085749000841
:1000100000000000000000000000000000000000E0
:10002000000000000000000000000000554900082A
:10003000000000000000000051490008414900088C
:10004000D1290108D1290108E1480008D129010876
:10005000D1290108D1290108D7480008CD48000856
:10006000D1290108BD480008AD480008D129010880
:10007000D1290108D1290108D1290108D129010874
:10008000D1290108D1290108D1290108D129010864
:10009000D1290108D1290108D129010821480008E6
:1000A000D1290108D1290108D12901086D4600088C
:0C00B000D1290108D1290108D12901083B
:1000BC0010B5064C2378002B07D1054B002B02D032
:1000CC00044800E000BF0123237010BD7000002025
:1000DC0000000000DC560108044B10B5002B03D0C7
:1000EC000349044800E000BF10BDC04600000000FA
:1000FC0074000020DC56010810B5034B034A5B6BFF
:10010C0003490120984710BDF0030020A8BA01084C
:10011C00FECD010810B500280AD0094B02689A429E
:10012C0006D1038B002B03D043690120002B06D191
:10013C00044B00205B6B044A04499847002010BD17
:10014C00D79DC0ACF0030020A8BA0108FECD010871
:10015C0010B50400FFF7DEFF00280AD06379013BDD
:10016C00042B06D9034B00205B6B034A03499847C9
:10017C00002010BDF0030020BEBA0108FECD01081E
:10018C0010B504000069002803D0C3689847002309
:10019C00236110BD10B5041E01D0006910BD064BC3
:1001AC001A0030321278101EF8D001205B6B034A13
:1001BC00034998472000F1E7F0030020A8BA010892
:1001CC00FECD010810B5041E04D00379032B0DD10C
:1001DC00200010BD064B1A0030321278002AF7D0DE
:1001EC005B6B044A044901209847F1E70024EFE7D0
:1001FC00F0030020A8BA0108D6BA010810B50C000B
:10020C00002815D0037A032B12D103691B689A6955
:10021C00586A0A60DA694A60DA8D0A819A6ACA6099
:10022C0004490EF07DF9FC2189050EF079F9206165
:10023C0010BDC046C2F38E4D10B50400FFF76AFF27
:10024C00002802D02379002B0BD0074B1A00303238
:10025C001278141E05D05B6B044A0549012098479F
:10026C000024200010BDC046F0030020A8BA0108ED
:10027C00E5BA0108F0B55746DE464E464546E0B5B0
:10028C000B048BB0089009AC1B0E90B221801C1A89
:10029C009B18C9B2A24604939C4200DDF1E08B4648
:1002AC0000250B1A0293784B93441A782E1C039258
:1002BC005A785B68069207932F1C029B5B4547DCC0
:1002CC00534650465B0005930FF040F8069B019097
:1002DC0053455FDD5346002B00DA85E0029BB046A8
:1002EC001C002E1C2DE0039A9A422CDD079AA300C9
:1002FC009B58059A9D5A28000FF028F88146280033
:10030C000FF06EF8051C4946381C0DF05DFE071CFD
:10031C0020000FF01BF8291C0EF002F9011C4046BE
:10032C000DF052FE291C804601980EF0F9F8011CC4
:10033C00301C0DF049FE013424B2061C23005C4530
:10034C0004DC002CCFDA0025A946DCE74646051C68
:10035C00534601331BB29A46049B9A45ADDD0021EE
:10036C00381C0EF0CFFD002809D1391C301C0DF0C3
:10037C00C5FF391C061C281C0DF0C0FF051C089B72
:10038C0018001E605D600BB03CBC90469946A246BE
:10039C00AB46F0BD53460021002B4CDB0EF0C0F8F1
:1003AC008046029C0021381C0DF00EFE071C20001C
:1003BC000EF0CCFF00210EF0B3F8011C301C0DF038
:1003CC0003FE4146061C281C0DF0FEFD013424B230
:1003DC00051C5C45E6DD534601331BB29A46049B73
:1003EC009A4500DC69E7BAE700210EF099F88046DF
:1003FC00029C0021381C0DF0E7FD071C20000EF0BC
:10040C00A5FF00210EF08CF8011C301C0DF0DCFD5A
:10041C004146061C281C0DF0D7FD013424B2051CE6
:10042C00A345E6DA534601331BB29A46049B9A4520
:10043C0000DC42E793E70EF073F88046029C002143
:10044C00381C0DF0C1FD071C20000EF07FFF0021B1
:10045C000EF066F8011C301C0DF0B6FD4146061C72
:10046C00281C0DF0B1FD013424B2051CA345E6DABD
:10047C00534601331BB29A46049B9A4500DC1CE799
:10048C006DE700252E1C7AE78C000020F0B583B0B8
:10049C0006006F4601A80180D0B20D1C0C04800030
:1004AC0011043A80090E1F1C83594900C85A0EF0DA
:1004BC004DFF391C0EF034F80EF072FD240EEDB227
:1004CC0080B2002C1CD06D08ABB2002D18D0621E6F
:1004DC0097B201377A00944600240027013B9DB265
:1004EC00AD0075190435320013681B191988814247
:1004FC0000D91F8004329542F6D102346445F2D102
:10050C0003B0F0BDF0B5DE4657464E464546E0B565
:10051C00070089B007A806AE018032801E1CD3B23A
:10052C000D1C0C04029311049B00DB590A0E05925E
:10053C005200D05A01970EF009FF311C0DF0F0FF5C
:10054C000EF02EFD240E83B20093E3B2EDB20493B1
:10055C00002B57D06B0898460023390003930027D3
:10056C00002389469B469A463B004746002F2FD0D6
:10057C00039A002452009046059A00259B1A5B436F
:10058C0001933B00474698464A46A3009B58D85BCC
:10059C00009B984216D90EF0D9FE011C061C584639
:1005AC000DF012FD029B8346ED1A6D43019BE8187A
:1005BC000EF016FF311C0DF0B3FF011C50460DF070
:1005CC0003FD8246013424B225004445DCDB47465A
:1005DC00039B049901331BB203938B42C6DB0021AE
:1005EC0058460EF08FFC002804D1504659460DF0A9
:1005FC0085FE8246504609B03CBC90469946A246C0
:10060C00AB46F0BD00239A46F4E7F0B557464E468C
:10061C00DE464546E0B50A0485B08146120E01A8B7
:10062C000180CBB29246002A2DD05B0898469DB231
:10063C00002300269B469C4600214346002B10D0ED
:10064C004A4600237400F0B217683F5B8F4203D90F
:10065C00D9B28B468446390001339BB204329D4299
:10066C00F2D80136B3B25345E7D3FF205F46634659
:10067C00074018400002384305B03CBC90469946F0
:10068C00A246AB46F0BD00239B469C46EDE7F0B579
:10069C004646D6464F46C0B50E04C9B2490882B08C
:1006AC0082469046360E8FB200291ED0B6B2751E09
:1006BC00ADB201356B0099460024012503E00134ED
:1006CC00A3B2BB4211D22B004246A3401A42F6D031
:1006DC00002EF4D05246A300D05800214A460134D3
:1006EC0012F0B6FBA3B2BB42EDD302B01CBC9046D9
:1006FC009946A246F0BDF0B54746CE4680B583B0CC
:10070C0007000B0401A8CAB2018090461B0E24D02E
:10071C0092B291460024551E013BADB29EB2AD0083
:10072C0001367D19760004354B46002B12D03B0068
:10073C00002004CB125B80189D42FAD141460EF08A
:10074C0021FA390080B208C91B191A88121A1A80AA
:10075C008D42F8D10234A642E6D103B00CBC9046CF
:10076C009946F0BD0122174B524210B50100DA60D8
:10077C00122820D81A008000103210180A00203AD3
:10078C00D4B2222C02D890000F4A80180A007F3273
:10079C00D2B2042A05D808001A0081385C328000D5
:1007AC0010180A003032D2B2092A03D8D03970336B
:1007BC008800181810BD18000C30E929DED1043857
:1007CC00DCE7C0468C00002034030020014B186885
:1007DC007047C046EC0300200021102210B5074BD7
:1007EC001C69144202D19A61FAE79A621C6914429C
:1007FC00FBD101318842F3D110BDC046000400503A
:10080C0010B50A20FFF7E8FF8022024B92009A6293
:10081C0010BDC0460004005000487047001BB74B89
:10082C000C4A70B5082415000B480668136923425E
:10083C0003D103689B1B8B4203D328690007C00FAD
:10084C0070BD72B61369234200D130BF62B6BFF3DC
:10085C006F8FEBE700040050EC03002010B5044C44
:10086C00206B14F00FFF00232363A386E38610BDD7
:10087C000C01002070B504000D0005F0AFFE00283F
:10088C0001D06834258070BD70B504000D0005F0F2
:10089C00A5FE002801D00634E58770BD70B50400B4
:1008AC000D0005F09BFE002801D00434E58770BDD7
:1008BC0070B504000D0005F091FE002801D0023443
:1008CC00E58770BD70B50D00FFF77CFC002811D0DA
:1008DC001C300400681E04280CD80EF03FF9030CE1
:1008EC000E17200000212000FFF7D8FF0021200068
:1008FC00FFF7DEFF70BD0721F5E720000921FFF7A8
:10090C00CDFF03212000FFF7D3FFF3E70C212000DC
:10091C00FFF7C4FF06212000FFF7CAFFEAE710210A
:10092C00F5E770B50E00FFF787FC051E18D0040024
:10093C00701E1C34042813D88C350EF00FF90312DA
:10094C002123320000212000FFF7A8FF0021200006
:10095C00FFF7AEFF03212000FFF796FF124B2B6031
:10096C0070BD07212000FFF799FF06212000FFF73B
:10097C009FFF09212000FFF787FF0C4B2B60EFE74F
:10098C000921EFE70C212000FFF788FF062120004A
:10099C00FFF78EFF01212000FFF776FF034B2B6042
:1009AC00DEE71021EFE7C046FA61843C0938843B4E
:1009BC0010B5040005F012FE002801D001232371AC
:1009CC0010BD70B505000E00FFF7E4FB041E10D03F
:1009DC0005F004FE002802D023004A331E70002EBE
:1009EC0008D00F212000FFF763FF01212000FFF743
:1009FC004BFF70BDAB68002BFBD069792800984782
:100A0C00F7E710B5002803D00173FFF7DAFF10BD2C
:100A1C00034B30331B78002BF9D0FFF76DFBF6E757
:100A2C00F003002010B5041E0CD08368002B09D0F5
:100A3C0041719847237B002B03D001212000FFF745
:100A4C00C0FF10BD034B30331B78002BF9D0FFF7E0
:100A5C0053FBF6E7F003002070B50D1CFFF79AFB73
:100A6C00040005F0BBFD00280ED00849281C0DF031
:100A7C0057FD011C05480DF085FEFC2189050DF084
:100A8C00A3FA0EF043FCE08770BDC0460000B041F5
:100A9C0070B5049D1E002B784469002B0AD1A37EEF
:100AAC00002B11D0E3686068934200D913001A0040
:100ABC0014F0F2FD2B7820696376002803D062696C
:100ACC00310014F0E9FD70BDA3681960F2E77FB541
:100ADC00050010008A790E794C7903AB9A7002AA42
:100AEC005E7014701C7000924A692900FFF7D0FFE9
:100AFC007FBDF0B5050085B01000CA794C7903AB09
:100B0C000E798F79DA7002AA14701F705C709E7067
:100B1C0000924A692900FFF7BBFF05B0F0BD30B564
:100B2C0089B00D6803910021032401AB049119765F
:100B3C005976997619001C7002950592069409F065
:100B4C00DDFF09B030BDF0B5C646164B164E9846C3
:100B5C00DC6B330000B530331B780500032B05D953
:100B6C004368124A12490420776BB8470023002CC3
:100B7C000DD0626DAC4207D1002B11D14346DA6324
:100B8C00200005F027FA08E023001400EFE7766B4D
:100B9C006B68084A06492000B04704BC9046F0BD7B
:100BAC005A65EDE70C010020F0030020F6BA0108AD
:100BBC0017BB010827BB010870B5602272498C2055
:100BCC000AF00EF8041E00D1DBE0704B0500036048
:100BDC00032303716E4B1C3583606E4B05614361BF
:100BEC00582302210383FFF71DFF20000021FFF78C
:100BFC0008FF280005F0F2FC002801D0664B2364A6
:100C0C00280005F0EBFC002801D0644B636428003D
:100C1C0005F0E4FC002803D0230006224E331A70A2
:100C2C00280005F0DBFC002801D00123A36228007A
:100C3C00FFF7BEFE280005F0D1FC002801D00223EE
:100C4C006365280005F0CAFC002803D023000022AD
:100C5C0048331A70280005F0C1FC002803D023008B
:100C6C0010227C331A80280005F0B8FC002802D032
:100C7C000022231DDA67280005F0B0FC002803D001
:100C8C002300002262331A70280005F0A7FC00280C
:100C9C0003D02300002263331A70280005F09EFC59
:100CAC00002803D02300002264331A70280005F0BA
:100CBC0095FC002807D0230000226B335A701A7061
:100CCC00013340325A80280005F088FC002803D0FC
:100CDC002300FF2272331A80280005F07FFC0028C5
:100CEC0003D02300002274331A70280005F076FC20
:100CFC00002804D02300002276331A70A267280043
:100D0C000121FFF7B7FD280005F068FC002803D08F
:100D1C002300012286331A70280005F05FFC00289E
:100D2C0003D023000B225A331A80280005F056FCFE
:100D3C00002803D023000A2258331A80280005F01B
:100D4C004DFC002803D02300002265331A702800C4
:100D5C0005F044FC002803D0230001226A331A70EA
:100D6C00280005F03BFC002804D08022230052010F
:100D7C0070331A80280005F031FC002801D0084B94
:100D8C00E361200070BDC0465BBB0108D79DC0ACC1
:100D9C00D1080008A90E0008CDCC4C3E9A99993E7A
:100DAC00435600083823F0B5C6469846324F00B576
:100DBC00B84443461C780600002C4ED0FFF7AAF925
:100DCC00002801D100240BE03369DD682A2D0BD9F2
:100DDC002A4B2B4A5C6B2B492A230020A04700246A
:100DEC00200004BC9046F0BD43465B78002B02D13A
:100DFC00FB6B002B29D1214B348B1A00303212782B
:100E0C00032A06D95B6B204A98461E492B00042006
:100E1C00C0472000BD221D4909F0E2FE041ED1D0BE
:100E2C001B4B45600360FB6B310043657369F863D2
:100E3C00984700280ED1E368002B01D0200098477A
:100E4C002000FFF780FE0024CAE75A6895420BD0B9
:100E5C005B6DCEE701236372C2E7084B0D4A5B6BF7
:100E6C00084920009847BBE7044B0B4A5B6B0549CC
:100E7C0000209847A6E7C0460C010020F003002094
:100E8C007CBB010817BB010895BB0108B4BB01086A
:100E9C00E89EC0ACD6BB0108E8BB0108F0B5DE4645
:100EAC00454657464E46E0B5A5B080468C2201A873
:100EBC000C0014F0F1FB01A8FFF74AF9002801D14E
:100ECC00002014E008A805F089FB0028F8D008A839
:100EDC0005F004FB0028F3D022AB1D88002D0DD1AA
:100EEC00734B28005B6B734A73499847280025B0F5
:100EFC003CBC90469946A246AB46F0BD8A236B4457
:100F0C001B78012B0AD120AB1B88402B06D9684BD0
:100F1C006A4A5B6B684900209847D1E742462379BF
:100F2C0010201372664BEC2219009B4609F058FEF8
:100F3C0005009020ED225946400009F051FE0400B6
:100F4C00002D01D000280FD1280005F043F8200017
:100F5C0005F040F80025434642461D61681E854158
:100F6C00584BE8B2D360C2E718239A4628608244F3
:100F7C004046C018E4339946A1444B46524660673C
:100F8C0008A905F039FC4B465A8923007033061E1C
:100F9C001A8004D1280005F04DF83500DBE74B46EC
:100FAC00DB899B184A4697895B007F009F4200D2E1
:100FBC001F0008A805F012FB0026B04201D01DABA3
:100FCC001E88BE4200D23E00982259465200300084
:100FDC0005F044F84B46071ED86156D01E6222001D
:100FEC002600A31D2366E31D636614320533083601
:100FFC00A366E064E265A465E666D867231D99469E
:10100C004946883319601A61D8635C668C23284F73
:10101C005B009B463B0030331B78A344012B39D833
:10102C0052465B4608A9606F05F0F2FA824600282A
:10103C0034D02300244AB0331A60244A20005A606A
:10104C004A46234B7830E367224BD367224B234A23
:10105C00F3672300B8331A64214A5A60214A9A6014
:10106C00214ADA60A063A36709F059F8061E1AD06A
:10107C00A06BF434C3689847434623601B4B6B60EA
:10108C001B4BAB601B4BEB6065E7280004F0D2FFF9
:10109C003D0060E708A806F081FEC1E7280004F0D7
:1010AC00C9FF554657E77B6B134A1449984771E7BC
:1010BC00F00300200FBC0108D6BA01083FBC0108A0
:1010CC006ABC01088D010008000040407DC8000882
:1010DC0081A100082BA100080BA50008DB0A000861
:1010EC001BA00008B19F000819A000082759000890
:1010FC00F35800084160000893BC0108B3BC010818
:10110C00F0B5D6464F464646C0B50600334B0D00EB
:10111C001800994613F0F0FE3100314813F0ECFE44
:10112C00C522304B304F190052003800984613F04E
:10113C00E3FE484613F0E0FE29002C4813F0DCFED9
:10114C008C22AC1C7443FF3241463800640013F00F
:10115C00D3FE200014F08CFA254B9A461863002815
:10116C0012D1244813F0C8FE234813F0C5FE962272
:10117C004146FF32380013F0BFFE012040421CBC38
:10118C0090469946A246F0BD484613F0B5FE1B4862
:10119C0013F0B2FECC2241465200380013F0ACFEE4
:1011AC00484613F0A9FE2100154813F0A5FE9A221B
:1011BC004146FF32380013F09FFE53460022196B54
:1011CC00B3006D00CB1890B2864201D80020D6E750
:1011DC0090000B5001325B19F5E7C046C3BC010807
:1011EC00C9BC0108DBBC01083AC10108EFBC01080D
:1011FC000C010020FFBC010805BD010824BD01083D
:10120C0044BD0108F0B5DE4657464E464546E0B5AE
:10121C00060097B0151C15AC954A10900B04218054
:10122C00081C93491B0E5660C2B20A704B70914851
:10123C00291C8026119204930DF060F83606011CCF
:10124C0080190DF06DF9FC2189050DF069F912F08A
:10125C0073F8002180460CF0B7FE291C041C86484C
:10126C000DF04CF8011C80190DF05AF9FC21890580
:10127C000DF056F912F060F8071C011C201C0CF044
:10128C00A3FE041CC020291C00060DF037F8011C1D
:10129C0080190DF045F9FC2189050DF041F912F08A
:1012AC004BF8011C061C201C0CF08EFE291C041C87
:1012BC0072480DF023F880231B06011CC0180DF09A
:1012CC002FF9FC2189050DF02BF912F035F8011CD2
:1012DC008246201C0CF078FE291C041C00200DF00A
:1012EC000DF880231B06011CC0180DF019F9FC2108
:1012FC0089050DF015F912F01FF8011C8346201C0E
:10130C000CF062FE041CFE20291C80050CF0F6FF7C
:10131C0080231B06011CC0180DF002F9FC21890565
:10132C000DF0FEF812F008F8011C0190201C0CF0D6
:10133C004BFE041C8020291CC0050CF0DFFF802311
:10134C001B06011CC0180DF0EBF8FC2189050DF0F3
:10135C00E7F811F0F1FF011C0290201C0CF034FE98
:10136C00291C041C46480CF0C9FF80231B06011CD9
:10137C00C0180DF0D5F8FC2189050DF0D1F811F04D
:10138C00DBFF011C8146201C0CF01EFE041C81207E
:10139C00291CC0050CF0B2FF80231B06011CC018D1
:1013AC000DF0BEF8FC2189050DF0BAF811F0C4FF60
:1013BC00211C051C0CF008FE011CFE2080050CF005
:1013CC009DFF4146041C0DF0ABF8031C06902D4804
:1013DC00391C80460364201C0DF0A2F84746079088
:1013EC007864311C201C0DF09BF851460890B864B1
:1013FC00201C0DF095F859460990F864201C0DF04E
:10140C008FF801990A903865201C0DF089F8029923
:10141C000B907865201C0DF083F849460C90B8654C
:10142C00201C0DF07DF8211C0D90F865281C0DF08A
:10143C0077F86B461B8A059038661393119A5208FD
:10144C001292D2B21492002B00D17FE100239B4662
:10145C00149B119D08330E935B4600275B000F9382
:10146C00094C0126029701970397B946EDE0C04657
:10147C008C000020000080C0000040C0000080BF35
:10148C00000040400C010020FCFF0000230008334A
:10149C001BB2002B00DA37E1AB4200DB34E1109ACF
:1014AC009B009B580F9A985A0DF050FF06990DF01F
:1014BC0037F800210CF088FDE31D1BB2071C002B34
:1014CC0000DA1FE1AB4200DB1CE1109A9B009B5839
:1014DC000F9A985A0DF03AFF07990DF021F8391C24
:1014EC000CF072FDA31D1BB2071C002B00DA07E1E8
:1014FC00AB4200DB04E1109A9B009B580F9A985A60
:10150C000DF024FF08990DF00BF8391C0CF05CFD64
:10151C0033B2071C002B00DAF0E0AB4200DBEDE04D
:10152C00109A9B009B580F9A985A0DF00FFF09992F
:10153C000CF0F6FF391C0CF047FD231D1BB2071CE9
:10154C00002B00DAD8E0AB4200DBD5E0109A9B0010
:10155C009B580F9A985A0DF0F9FE0A990CF0E0FF7F
:10156C00391C0CF031FDE31C1BB2071C002B00DAFC
:10157C00C0E0AB4200DBBDE0109A9B009B580F9A79
:10158C00985A0DF0E3FE0B990CF0CAFF391C0CF0C5
:10159C001BFDA31C1BB2071C002B00DAA8E0AB42FE
:1015AC0000DBA5E0109A9B009B580F9A985A0DF0FF
:1015BC00CDFE0C990CF0B4FF391C0CF005FD671C2A
:1015CC003BB28246002B00DA90E0AB4200DB8DE0B0
:1015DC00109A9B009B580F9A985A0DF0B7FE0D99D4
:1015EC000CF09EFF51460CF0EFFC24B28246002C0E
:1015FC007ADBAC4278DA109AA3009B580F9A985A6F
:10160C000DF0A4FE011C05980CF08AFF51460CF05D
:10161C00DBFC8246002C0CDBAC420ADA049B9B45BB
:10162C0007DA109BA4000398E4580DF0B9FC0F9B4B
:10163C00E052019B013603930E9BBCB2B34265D0C2
:10164C00029B01934B46D1460293049B9B4500DAC7
:10165C001CE7002106980CF063FF00210CF0B4FC91
:10166C000021071C07980CF05BFF391C0CF0ACFC3C
:10167C000021071C08980CF053FF391C0CF0A4FC3B
:10168C000021071C09980CF04BFF391C0CF09CFC3A
:10169C000021071C0A980CF043FF391C0CF094FC39
:1016AC000021071C0B980CF03BFF391C0CF08CFC38
:1016BC000021071C0C980CF033FF391C0CF084FC37
:1016CC000021071C0D980CF02BFF391C0CF07CFC36
:1016DC000021071C05980CF023FF391C0CF074FC3E
:1016EC00671C824624B295E700218CE7002076E740
:1016FC0000205EE7002046E700202EE7002016E7DA
:10170C000020FFE60020E7E60020CFE65B46013331
:10171C009BB29B46139B4F469B4500D29CE6019B7C
:10172C00414699463B1C4A4657469A4643465A669A
:10173C00029A1F679A665246DA66002342469367FE
:10174C005367D36780228B5004328B5000239A4608
:10175C00149B002B00D1B1E1D346002543464246F1
:10176C005D669D66DD661D675D679D67DD67802331
:10177C00D5500433D5506B4644229B181B880593D7
:10178C005B4500D882E1D149D04B49685A785B4619
:10179C008A469B009A4443461B6C03920F93434624
:1017AC005B6C08320D9343469B6C0792099343463E
:1017BC00DB6CC74C089343461B6D01260C934346C8
:1017CC005B6D02950E9343469B6D01950A934346C0
:1017DC00DB6D04950B9343461B6EA9460693E3E021
:1017EC00230008331BB2002B00DA3DE1039A9A4226
:1017FC0000DC39E1524612685B00985A0DF0A6FDE8
:10180C000F990CF08DFE00210CF0DEFBE31D1BB2DA
:10181C00051C002B00DA37E1039A934200DB33E11D
:10182C00524612685B00985A0DF090FD0D990CF021
:10183C0077FE291C0CF0C8FBA31D1BB2051C002B4A
:10184C0000DA1FE1039A934200DB1BE15246126857
:10185C005B00985A0DF07AFD09990CF061FE291C79
:10186C000CF0B2FB33B2051C002B00DA08E1039A32
:10187C009A4200DC04E1524612685B00985A0DF063
:10188C0065FD011C08980CF04BFE291C0CF09CFB10
:10189C00231D1BB2051C002B00DAEFE0039A9342C8
:1018AC0000DBEBE0524612685B00985A0DF04EFDDF
:1018BC000C990CF035FE291C0CF086FBE31C1BB2BA
:1018CC00051C002B00DAD7E0039A9A4200DCD3E027
:1018DC00524612685B00985A0DF038FD011C0E98A8
:1018EC000CF01EFE291C0CF06FFBA31C1BB2051C7C
:1018FC00002B00DABEE0039A9A4200DCBAE05246B2
:10190C0012685B00985A0DF021FD011C0A980CF02E
:10191C0007FE291C0CF058FB671C3BB2051C002B66
:10192C0000DAA5E0039A9A4200DCA1E05246126864
:10193C005B00985A0DF00AFD011C0B980CF0F0FDA1
:10194C00291C0CF041FB24B2051C002C00DA8DE0A4
:10195C00039BA34200DC89E0524612686300985A4C
:10196C000DF0F4FC011C06980CF0DAFD291C0CF0AF
:10197C002BFB051C002C0BDB039BA34208DD534601
:10198C001B68049810930DF00BFB109B6400E05245
:10199C00019B01360493079BBCB2B34258D0029B07
:1019AC0001934B46A9460293059B9B4500D217E732
:1019BC0000210F980CF0B4FD00210CF005FB002168
:1019CC00051C0D980CF0ACFD291C0CF0FDFA002147
:1019DC00051C09980CF0A4FD291C0CF0F5FA00214B
:1019EC00051C08980CF09CFD291C0CF0EDFA00214C
:1019FC00051C0C980CF094FD291C0CF0E5FA002148
:101A0C00051C0E980CF08CFD291C0CF0DDFA002145
:101A1C00051C0A980CF084FD291C0CF0D5FA002149
:101A2C00051C0B980CF07CFD291C0CF0CDFA002148
:101A3C00051C06980CF074FD291C0CF0C5FA019BD2
:101A4C00671C0493079B0136051CBCB2B342A6D19C
:101A5C002B1C4D4699464346019ADD665A66029AFE
:101A6C009A664A461A6721E00020C9E600217AE707
:101A7C00002162E7002149E7002130E7002017E749
:101A8C000021FFE60020E7E60020CFE6114813F026
:101A9C0033FA114813F030FA9D221049104813F014
:101AAC002BFA0A4B1B7811935B0812935B4601339C
:101ABC009BB29B46129B5B4500D94EE617B03CBCD3
:101ACC0090469946A246AB46F0BDC0468C0000201D
:101ADC00FCFF0000FFBC010884C50108A8C5010873
:101AEC003AC10108F0B557464E464546DE46E0B5CC
:101AFC008246CC20B5B06C4600AF0A04CBB2381885
:101B0C00120E018019007B6693000A33DB08DB00A0
:101B1C00E31A9D464C0023006E460833DB08DB00BD
:101B2C00F51A9820AD46381805606846C31A8C2003
:101B3C0038189D46036093B2FE60BB63002B00D146
:101B4C0070E38846A42389B24A08FB18FA67424618
:101B5C001960012341465208194091463A634046A8
:101B6C0092B27A63F9620FF0E7F900227F4B0EF024
:101B7C000FFEBB6BB865F965013B9BB201335B0093
:101B8C007B62A423FB18196840464B1E5146AC4699
:101B9C009BB29A0052440138B964111D5A1C64441A
:101BAC00396251004200FC6314007865786B644420
:101BBC00421EFC6194B262000232B96251467C60F2
:101BCC001400043164448C461B1A9BB24B444D46A2
:101BDC009B0063447B610023AA0052447E64BC6179
:101BEC003A61B9603E64FB64A423FB181B68002BAC
:101BFC0012D09823FB181A68F86CBB6C3C6A02CBA9
:101C0C00095A118002329C42F9D18C23FB18BA6A12
:101C1C000021186811F01CF97B6E002B00D1FAE240
:101C2C0098230020FB181A68F96B0024135FDC174B
:101C3C001B196340984200DA180002329142F4D129
:101C4C000DF084FB011C8720C0050CF057FB98237A
:101C5C00FB181C68FE6B051C0023E05E0DF076FB88
:101C6C00291C0CF05DFC0DF051FB20800234A642C7
:101C7C00F2D13B6C1D60FB6F002B44D0FB6900263E
:101C8C0098469823FB181B68994630000FF054F9BE
:101C9C00BA6DFB6D0DF000FF354A364B0EF006FBAE
:101CAC0011F04CFA344A354B0EF000FB02000B00DD
:101CBC00334834490EF06CFD4B4604000D000020F7
:101CCC00185E0FF0FFF822002B000EF0EFFA0FF069
:101CDC00C3F84B46188043460020185E0FF0F2F80C
:101CEC002B0022000EF0E2FA0FF0B6F843461880F3
:101CFC0002239C46043BE1449C460136FB6FB6B282
:101D0C00E0449E42C1D1FB6A002B00D0D4E10122F9
:101D1C00786E01000133DBB219410A42F9D03B66FF
:101D2C007B6E012B30DD00220023F96F8B4204D334
:101D3C005B1A9BB249088B42FAD25B180132796D5F
:101D4C0092B29BB28A421FDA9342EED9982179184B
:101D5C000C685000A4465900604461440025445F5F
:101D6C0000268D5F05800C80DFE7C0460000F03F49
:101D7C0068A17454FB211940713D0AD7A370DD3F53
:101D8C0048E17A14AE47E13F3B6E002B00D199E15C
:101D9C0000230024BB66FC6600237B67C34B8822B0
:101DAC003B670023BA1813608422BA181360902280
:101DBC00BB670023BE4CBA1813605460C8220123C1
:101DCC00BA1813605222A333FB181B68BA1813807D
:101DDC00C823A020FB18196838184B009BB20A1CAA
:101DEC000360002900D125E1A423FB181B68002BFC
:101DFC0000D11FE1A421522379180968FB181B8814
:101E0C00914202D9C823FB181B8880229BB2BA18B6
:101E1C0013609C220023BA181360B0220023002404
:101E2C00BA1813605460A8220023A04CBA1813608F
:101E3C0054609C23FB181B689B469823FB181B685B
:101E4C009A468C23FB181B689946C823FB181B6801
:101E5C005B449EB27600B046D04443460020185EE8
:101E6C000FF030F8C0234E44FB1818605960002363
:101E7C00F05E0FF027F8A8230D00C021FB1879188D
:101E8C001A685B680400086849680EF00FFAB823FA
:101E9C00FB1818605960B023FB181A685B682000A7
:101EAC0029000EF003FA0B00B8217918020008681B
:101EBC0049680EF06DFCB823FB1818605960A82314
:101ECC00FB181A685B68200029000EF0EFF9B023AC
:101EDC000D00C021FB1879181A685B6804000868AB
:101EEC0049680EF0E3F902000B00200029000DF008
:101EFC00B7FAC023FB18186059605B465C00534668
:101F0C001D190023E85E0EF0DDFFB823FB181A68DC
:101F1C005B680EF03DFC0EF09FFF43464C4418806E
:101F2C000023E05E0EF0CEFFC023FB181A685B683E
:101F3C000EF02EFC0EF090FF30800023E85E0EF0C9
:101F4C00C1FFB823FB181A685B680DF089FA0EF014
:101F5C0083FF28800023E05E0EF0B4FFC023FB1843
:101F6C001A685B680DF07CFA0EF076FFA023FB1864
:101F7C001B6820805B449BB29B46A423FB181B6808
:101F8C009B4500D261E79023A821FB1879181A68A9
:101F9C005B68086849680EF089F90D00882179188A
:101FAC00096804000A008846842179180E68B0215B
:101FBC0079183300086849680EF078F902000B00B4
:101FCC00200029000EF0E4FBC023FB1818605960B8
:101FDC009023B021FB1879181A685B680868496867
:101FEC000EF064F90D00A821040079184246086827
:101FFC00496833000EF05AF922002B000DF030FA2C
:10200C00B023FB18186059609C239C22FB181B689A
:10201C00BA1801339BB21360A820C0223818BA1822
:10202C0011685268016042608022BA1812689342AB
:10203C0000D2FEE688227B6FBA181360802212064B
:10204C00944684223B6FBA1863441360BB6F3A6E9C
:10205C000133DBB2BB679A4234D0BC6EFD6E0020FC
:10206C0022002B0011490EF093FB0022114B0EF0B5
:10207C001DF911F001F90022786739670B4B20002C
:10208C0029000DF0EDF900220A4B0EF00FF911F0BA
:10209C00F3F8A023C822FB181B68BA18136090230E
:1020AC00FB181C605D60B866F96691E60000F03FB5
:1020BC000000F0BF0000E03F00233B667B6E012B6D
:1020CC0000DD30E67B6E0024002B2CD063009A469A
:1020DC009823FB181B68013453441D000023E85E51
:1020EC000DF034F98C235246FB181B68061C985EC5
:1020FC000DF02CF9311C8246301C0CF011FA5146B3
:10210C00061C50460CF00CFA011C301C0BF05CFF4A
:10211C000EF044FF11F0B0F80EF09EFE7B6E24B270
:10212C0028809C42D2DB3B6B002B0BD09823FB18F6
:10213C00BA6C1B68FC6CBD69188802CA0233085360
:10214C009D42F9D1A42038187A6B00683B690021B4
:10215C00824205D2F86C7C6904CB11529C42FBD1B3
:10216C003A6CFB6C04323A647A6A0233FB649A422E
:10217C0000D039E5FB681B689B46BB6B012B16D066
:10218C001A00FB68951E9C46ADB2AD00083565443F
:10219C00A8465D461C1D2668291C301C0CF0B8FE98
:1021AC00002800D0351C04344445F4D1AB463B6BBD
:1021BC00002B27D0BA687B6891469B00994400237A
:1021CC009A467B6C584619680CF098F85346804632
:1021DC00BD6C5E0010CDA41920880DF0B7F84146F7
:1021EC000CF09EF90CF0DCFE20804D45F2D1012361
:1021FC009C467B6CE24404337B645346BA6B9BB2C3
:10220C009A42DED85846BD4635B03CBC90469946FD
:10221C00A246AB46F0BD87200021C0050CF06EF83D
:10222C00051C26E533689B46ECE784B010B503919A
:10223C000290244804920593039C12F04BFE224911
:10224C0002980CF06DF90DF061F801001F4812F0C6
:10225C0053FE1F4B1A7A002A26D11B49201C0CF066
:10226C005FF90CF09DFE01001A4812F045FE02AB1E
:10227C001989194812F040FE134905980CF050F9D1
:10228C000CF08EFE0100154812F036FE144906982B
:10229C000CF046F90CF084FE0100124812F02CFEF2
:1022AC0010BC08BC04B018471969201C0BF08CFE3C
:1022BC0005490CF035F90CF073FE01000A4812F0D8
:1022CC001BFED4E759BD010800007A4472BD010819
:1022DC008C01002081BD0108A7BD0108B9BD010812
:1022EC0000247449CEBD010891BD0108F0B5C64665
:1022FC00294C2A4B00B523600C2326006361C023B4
:10230C0000259B0060607C362000A361A560E56021
:10231C002561E56125626562A56209F00FFB3378E2
:10232C00012B17D024230121271DFB672368317053
:10233C001A68200090461A688A431A609A68D2007C
:10234C00D2089A6008F09AFD424623681A6020234E
:10235C003570FB6725007C352B78012B16D0242398
:10236C000121261DF367236829701F681A68200055
:10237C008A431A609A680A490A409A6008F07EFDFE
:10238C0023681F602023F36700232B70200008F0C4
:10239C00A9FD04BC9046F0BDA80500200038014002
:1023AC00FFFFFFF12422012170B5254C0500231DF0
:1023BC00DA6723681A688A431A6000221A605A6026
:1023CC009A60204A93422ED1F0201F4A1F49136C69
:1023DC0040010B40136408F09BF9606F002801D09A
:1023EC0008F0F4FEA06F002801D008F0EFFE802268
:1023FC00174B1205DA67BFF34F8FBFF36F8F2100B6
:10240C000023220088310B600832211DCB67D36773
:10241C00220028007C321370FFF768FF0121200096
:10242C0008F0DAFA70BD0B4A9342E8D1064A0A4921
:10243C00D36B0C200B40D36308F06AF9DFE7C0467E
:10244C00A80500200038014000100240FFBFFFFF2C
:10245C0004E100E000440040FFFFFDFFF7B5B44E7F
:10246C00B44A336806201A4080239B001343B24FB2
:10247C0033603B68B14958430CF084FB8023013036
:10248C00DB0072691A4200D086E03823AC4CAD4DAB
:10249C00A2681340E268102B00D082E003210A40AE
:1024AC00022A00D080E02268A7496268114080228D
:1024BC00D2010A436260002B09D12368A34A13405E
:1024CC0023602368A24A9B045B0FDA403A60A14B5D
:1024DC00186808F04DFE00287CD007229E4B196826
:1024EC00114001290CD8022118689043014319604E
:1024FC009A4928688C4619681140022900D0B4E02A
:10250C00E022A168D2010A43A260A26894490A4061
:10251C00A2602268920100D5ADE08022E36B5205E7
:10252C000021134207D1E36B01311343E363E36BE7
:10253C0013400193019B802332685B001A43326085
:10254C00286832681A4200D1D4E0C022E36D9200B0
:10255C00134010D08022920093420CD0E36D814A3C
:10256C00E06D1340802252020243E265E26D7E4828
:10257C000240E265E365DB0706D502222868774E48
:10258C00E36D134200D1CDE0E36D764A1A4080230F
:10259C009B001343E365B2E0002800D175E70138D6
:1025AC006FE7002B00D17EE72368684A1340236055
:1025BC00802322685B001343802223602968D200A9
:1025CC002368134237D063685F4A1A408023DB01CB
:1025DC00134363603822A3681340182B30D1236E49
:1025EC003822A3681340102B3DD023685F4A134058
:1025FC008022236029689204236813422ED1E36859
:10260C005B4A1A405B4B1343E360802322685B04F4
:10261C00134323608023E2685B0513438022E3604D
:10262C00296892042368134200D056E72B685B1A82
:10263C00022BF7D951E72B685B1A022BC0D94CE758
:10264C000123226E1343022223662968236E134250
:10265C00C6D12B685B1A022BF8D93EE72B685B1AA4
:10266C00022BC9D939E7E36837E72968091A6145AC
:10267C0000D840E751E70721A2688A4311000222E3
:10268C000A43A260354A382194462868A2680A4059
:10269C00102A19D11968093A1140022919D8A368CE
:1026AC00354A1340A36009F011F8A368334A1B059F
:1026BC001B0F9B009B581F221340D840254B3860A2
:1026CC00186808F055FD28E72A68121A6245DDD90A
:1026DC0023E7022118689043014319601F492868B9
:1026EC008C46196811400229D9D02968091A61450C
:1026FC00F7D912E72A68121A022A00D821E7012911
:10270C0003D1E36B1E4A1340E3630322636D9343CF
:10271C006365636D093293436365636D194A1340B6
:10272C006365F7BD2B681B1AB34200D828E7E6E7B0
:10273C0000700040FFF9FFFF0000002040420F0036
:10274C0000100240EC030020FF80FFFFFFC7FFFFDB
:10275C000024F40004000020002002408813000034
:10276C00FFF0FFFFFFFCFFFFFFFFFEFFFFFFFFFE81
:10277C008C80C11102080222FF8FFFFFF85601085E
:10278C00FFFFFFEFFFCFFFFF0CB4F0B54F464646FF
:10279C00D646C0B5ACB034AB04CB06AD060089460A
:1027AC0028009621059312F0C9FB952806DDAA2373
:1027BC00204A6B441A802E222BAB1A801E4B1F49C9
:1027CC001C6820000CF0DEF91D49070020000CF0FD
:1027DC00D9F93C210CF05CFA8846FA2120008900DA
:1027EC000CF0D0F93C210CF053FA8A46FA21200067
:1027FC0089000CF04DFA3F23042E01D8114B9B5D40
:10280C004A46019302920091534642463900039581
:10281C000D4812F071FB0D4B1B68986810F00AFA0A
:10282C002CB01CBC90469946A246F0BC08BC02B029
:10283C001847C0462E2E0000EC03002080EE360018
:10284C0060EA000005BE0108E3BD01080800002095
:10285C00802210B5054B92009A610320FDF7BCFF56
:10286C0007F034FF0A20FDF7B7FF10BD000400503D
:10287C000122074B10B580219A62A0224900D20593
:10288C009162802292009A6207F020FF10BDC04630
:10289C00000400501022084B10B59A62F132FF323E
:1028AC009A618021A0224900D205916101229A618E
:1028BC0007F00CFF10BDC04600040050F0B55746A1
:1028CC004546DE464E46BB4C01202300E0B5BA4FD0
:1028DC005C33B8621D7883B00197854200D1F3E078
:1028EC0018702300B54D5D332E681B786068DBB221
:1028FC008446012B0BD082204000844500D0DCE0C4
:10290C00A068002800D0D8E0042B00D0D5E0002926
:10291C0000D1D2E092B2002A00D1CEE023005D3388
:10292C001878042801D00520187000232000236695
:10293C000830E3642365E368C287A01DC28798460C
:10294C00E0202164A163E287A2872368C000804550
:10295C0001D8012A6CD05868994F384058601868D3
:10296C00814640204F46074202D11F683843186009
:10297C00E020C000804500D8B0E06046002801D0BF
:10298C00012A07D10A88DA608A1CA263E28F013A15
:10299C0092B2E287A26B082700920022B8469446B6
:1029AC00914601329346A044E08F002848D140461E
:1029BC00C08F002844D14B46002B01D0009BA36351
:1029CC006346002B00D02164C02221687D4852014F
:1029DC008B68134207D02B689B1B8342F8D907F0F6
:1029EC00A0FD00281DD18022216876488B681342F7
:1029FC0007D02B689B1B8342F8D907F092FD002867
:102A0C000FD1C02122686F48C90093680B4254D083
:102A1C00137B2B689B1B8342F7D907F082FD0028A0
:102A2C004BD02023226E134323662023236644E0DD
:102A3C005868814680204F464001384358608EE7E5
:102A4C0002209F68074215D0E08F002812D0012A7F
:102A5C0010D100980088D860009802300090E08F68
:102A6C008146012040428246D1444846914600228C
:102A7C0080B2E0875F46986838420ED04046C08FDF
:102A8C0000280AD0DA6840460A804246D28FDC46DB
:102A9C00013A92B2C287012202312868801B824619
:102AAC004848824500D87FE74B46002B01D0009B5D
:102ABC00A3636346002B00D02164230001225D3305
:102ACC001A7000235C3423700123019A936103B0C4
:102ADC003CBC90469946A246AB46F0BD60460028E9
:102AEC0001D0012A0AD1E28F012A58D90A88023171
:102AFC00DA60E38FA163023B9BB2E3870222944628
:102B0C0080220121520190462E4A23008B46914689
:102B1C000833E28F002A03D1DA8F002A00D153E761
:102B2C00604622689768074213D0E08F002810D0C7
:102B3C0001290ED1E18F8A465046A16B012843D959
:102B4C0008880231D060A163E18F023989B2E18734
:102B5C0000215F46906838421BD0D88F002818D0CF
:102B6C00D98F8A465046216C012838D9D068088004
:102B7C0002312164D98F023989B2D987D98F8A461B
:102B8C0050465946012804D84046516801435160CB
:102B9C0059462A68921B4A4500D98EE7B9E70A784C
:102BAC001A73A36B0133A363E38F013B9BB2E387DF
:102BBC00A4E7C0462804002000040050EC030020C9
:102BCC00FFEFFFFF8713000009781173A16B013130
:102BDC00A163E18F013989B2E1870021B9E7127B4A
:102BEC000A70226C594601322264DA8F013A92B291
:102BFC00DA87CEE710B5040003F0F0FC002801D012
:102C0C004E34207810BD10B5040003F0E7FC00280A
:102C1C0001D04934207810BD10B5040003F0DEFC5F
:102C2C000023984201D068342388180010BDF0B5F9
:102C3C00DE464E4645465746E0B5A9B00190902277
:102C4C0004A80D0012F028FD0BA8FFF7E5FF060005
:102C5C000BA8279C03F0C2FC002806D030000CF017
:102C6C0075FB211C0BF05CFC139004A8FDF770FAAB
:102C7C00002801D1002009E0199B042B0DD1464BF3
:102C8C0000205B6B454A46499847002029B03CBC64
:102C9C0090469946A246AB46F0BD0BA803F09EFCAD
:102CAC000028E7D00BA803F019FC0028E2D00BA8F1
:102CBC00FFF7B2FF431E9BB2012B08D9042806D0A4
:102CCC00354B384A5B6B364900209847D2E70BA846
:102CDC0003F084FC041E04D004AA6B2394466344C2
:102CEC001C780BA803F07AFC002810D0002C0ED016
:102CFC0011AB1B78002B0AD0274B1A0030321278FC
:102D0C00002A04D05B6B284A2549012098472B796F
:102D1C00019A102013728022244B520019009946FC
:102D2C0007F05EFF02220500EC20FF3249468000CE
:102D3C0007F056FF0400002D01D000280FD1280009
:102D4C0003F048F9200003F045F90025019B019A96
:102D5C001D61681E8541164BE8B2D36096E71823B7
:102D6C009C46844463460293E323286001989B00AD
:102D7C001830E7183B00624660670BA903F03CFD76
:102D8C0023007A897033061E1A8013D1280003F0B1
:102D9C003DF93500DAE7C046F00300200BBE010810
:102DAC00E5BA010846BE010866BE0108ABBE0108C3
:102DBC008D0100080BA803F011FC8246002802D0FC
:102DCC0011AB1B789A46E3239B00E25ABB89920015
:102DDC005B00934200D213007E89FA89B618760004
:102DEC009E4200D21E000BA803F0F8FB0023984271
:102DFC0001D020AB1B889846B34200D2B046EB23DF
:102E0C0042469B00E25053464046002B05D0E3233C
:102E1C009B00E05A80000A30404486224946FF322B
:102E2C0003F01CF9EA239B00061EE050AED07B8811
:102E3C009B00994653468144CB46002B03D0434616
:102E4C0004339B468344A31D2366E31D63660C2356
:102E5C009C46A44463462700A3660393043BE366A5
:102E6C0014378033221DE664E765A4650BA81E6049
:102E7C005A605F611E645E645F65FFF7C4FE0028E4
:102E8C0004D02300FC33DE601E611F622300FC3380
:102E9C00DE641E651F66C2235B00E6500433E650F9
:102EAC00039A1033E7500C33E2504A462433E65071
:102EBC000433E6501033E7503433E6500433E25019
:102ECC001033E7502833E2500433E2501033E7500C
:102EDC005346002B0DD0A8239B00E2504346AB2257
:102EEC00F3189200A350A9235A469B00E2501033CA
:102EFC00E750B8235A469B00E2500433E650103397
:102F0C00E7502833E6500433E6501033E7502833AB
:102F1C00E6502833E4502833E618E94B9B4630330F
:102F2C001B78012B00D970E23300029A0BA9606F59
:102F3C0003F06EFB061E00D128E7230000272600B5
:102F4C00E04AB0335A601F60DF4BE04AE367231D51
:102F5C00DA67DF4A0433DA67DE4BB8367360DE4B70
:102F6C000BA8B360DD4BF360DD4BB3630023B38779
:102F7C00FFF749FE029700281BD00BA803F02EFB8D
:102F8C00002807D004AA9446662363441B781E22AB
:102F9C00002B01D1962252002300F833A18D5A87C1
:102FAC00D04A1987DA63D04A5A60D04A9A60D04A1C
:102FBC00DA602300CF4A3933FF339A63CE4ACF49C4
:102FCC005A60CF4A0BA89A60CE4ADA60626A1964DA
:102FDC009A67CD49029A5964DA67CC49CC4A99640C
:102FEC005A67E3239B009846A04443461B899A46A4
:102FFC004346DB88039303F0F1FA002800D108E282
:10300C000F9B99462700C34BB937FF377B60C24BE8
:10301C008B21BB60C14BC905FB60039B48463B64DD
:10302C005346FB630BF07CFA0021824648460BF0BA
:10303C008DFF002800D1EFE1FC21890550460AF0F4
:10304C00C3FF0CF063F92300BF33FF33D887B44BB5
:10305C004246BB63802392889B00E31892009A63DC
:10306C00B04A0BA85A60B04A9A60B04ADA6003F0D2
:10307C00B5FA8146002802D012AB1B7899460BA8F2
:10308C0003F0ACFA139F002800D100278F239B007C
:10309C009846A0444246A64B5360A64B9360A64B61
:1030AC00D3604B46002B00D1B9E1A449381C0BF07E
:1030BC002FFF8246002800D0B4E1A149381C0BF048
:1030CC003BFF002800D0AFE14346DF634B46002BAB
:1030DC0000D18CE242469B4B7F007F0893639A4958
:1030EC00381C0BF029FF002800D0974F9121381C79
:1030FC00C9050BF015FA10F09DF8DA2189050BF0D3
:10310C000FFA92490BF00CFA011C071C90480BF0BB
:10311C0039FB90490BF036FB8046011C381C0BF038
:10312C00F7FE002800D183E10021381C09F0BDFB1B
:10313C0001218146381C09F0B8FB011C48460BF0F4
:10314C00DDF885490BF0ECF98449071C0AF03CFFCB
:10315C00391C0BF0E5F981498046381C0BF0E0F97D
:10316C00FE2189050AF030FF011C40460BF0C6F821
:10317C00011C071C0BF0D4F9FE2189050AF024FF71
:10318C000FF042FC011CFE2080050BF0B7F88121EA
:10319C008046C905381C0BF0BBFE002800D15EE14F
:1031AC00FE21381C89050BF0C7FE002800D149E12F
:1031BC008A214046C9050BF0B3F9FC2189050AF0B8
:1031CC0003FF0CF0A3F84300984643464246802088
:1031DC009B005343C004C01A0CF002F90FF014FC0E
:1031EC00FC2189050AF0F0FE0CF090F807009F23F3
:1031FC009B00994680235B019A464346002B00D0E6
:10320C0051E19E22FC2192008905A15053464A4669
:10321C00A350A02342469B00E2500433E2525B468B
:10322C004F4A504900205B6B98470BA803F0D6F926
:10323C00002810D011AB1B78002B0CD0A4234A49CA
:10324C009B00E318109A59604849DA639960484A20
:10325C0048499A63D960B4239B009946A1444A46D5
:10326C00454B0BA85360454B9360454BD360454B86
:10327C009363C3239B009846A0444246424B9363FE
:10328C001D4B53601E4B93601E4BD360D2239B008F
:10329C00E7183E4B3B643E4B7B603E4BBB603E4B6A
:1032AC00FB6023007833A3634033A367FFF7ABFCC9
:1032BC0023003933FF33002800D09CE16EE0C04678
:1032CC00F00300207DC8000881A100082BA1000894
:1032DC000BA50008B94D0008634D0008574E0008B7
:1032EC00A9500008C7490008AD4900085949000811
:1032FC002F4E0008354C0008794E0008E94A0008AA
:10330C00E14B00084F4E0008314A0008374E0008C8
:10331C00094F000869A20008F9A1000813A50008CC
:10332C001BA50008D14B00087B4B0008474E00083A
:10333C00694B0008F94A00083F4E00080938843BE5
:10334C0008CAFD3E57500008DEFFFF3EDB0F494028
:10335C00DB0FC93F2EBD3B33778D9F3FF304B53F49
:10336C00D6BE0108FFBE0108D9A4000831A0000890
:10337C00A5A0000895A000085F4E0008D14D0008DC
:10338C00254E0008D54E0008474D0008FF0A0008DE
:10339C001BA00008B19F000819A00008336023008F
:1033AC009C2275335200FF33A3503C324433A3505C
:1033BC0080239B004432E318A3508F239B00E31817
:1033CC004832A3500BA803F009F94B46002807D04C
:1033DC0011AA1278002A03D0A4229200A350A31899
:1033EC008F229200A350B42342469B00E2503C3300
:1033FC00E750A06B83689847061E00D000E15B463F
:10340C00874A5B6B87499847C0E40BA804F0C6FC5D
:10341C008AE500239946F5E5BF2109060EE6FC274F
:10342C00BF0551E6804F4FE6FC27D146BF054BE662
:10343C000121404609F039FA00218146404609F045
:10344C0034FA7AE68B214046C9050BF069F8FC2169
:10345C0089050AF0B9FD0BF059FF8046B5E68C21C1
:10346C00381CC9050BF05CF841460BF059F8FC21EF
:10347C0089050AF0A9FD0BF049FF0300070043433F
:10348C008020C004C01A0BF0ABFF0FF0BDFAFC217A
:10349C0089050BF045F8FC2189050AF095FD0BF028
:1034AC0035FF8046A3E64246534692B2991A4B46E4
:1034BC0089B208B2E0524B0099469F239B00E11859
:1034CC004B4688805200B8B2821ACA80C0224B8008
:1034DC0043465201D21A5200101A0881002F04D10F
:1034EC009E23029A9B00E25099E65246D31A42461A
:1034FC00900050433A007A438018FC2212069446FE
:10350C005B00DB1B5B4360444200981A90460BF057
:10351C001DFF824640460BF019FF51460AF0EEFEA5
:10352C00424980460AF050FD814650460FF06CFA35
:10353C00824680208001C01B40000BF007FF011C5D
:10354C0050460AF0DBFE3A49071C48460AF0E8FFF1
:10355C0049460AF0E5FF37490AF036FD0FF054FAF8
:10356C0041460BF00FF90FF04FFA011C381C0AF012
:10357C00D7FF314980460BF0CBFC002835D1FE211A
:10358C00404689050BF0D8FC2C4F002822D0FE2099
:10359C00414680050AF0B2FE8046380042460921B9
:1035AC00403009F069F9011C40460AF0B9FF011CD2
:1035BC0023480BF0E7F823490BF0E4F822490AF012
:1035CC009DFE9E239B00E0508F239B00E318DB6B3A
:1035DC0063632AE6380042460921403009F04CF971
:1035EC00011C40460AF09CFFE8E71848E6E7424613
:1035FC00174B9363E8E72200F83213601300CDE613
:10360C00A06BC3689847E123019A9B00E250114BD1
:10361C006B60114BAB60114BEB60FFF797FBC04637
:10362C0093BC010817BF01080938843B1AF6153FF3
:10363C00F304B53F1AF6953F000080BFF856010819
:10364C00DB0FC93F2EBD3B33DB0F49400000C07F71
:10365C00794B0008FD580008E9580008196000086B
:10366C0010B5040002F0BAFF0023984201D0603478
:10367C002388180010BDF8B5114F3C6A2000FCF7E8
:10368C0049FD104D002818D02069FFF7E9FF06000E
:10369C00A886B88D31000BF075FA3B7A84B2EC86B3
:1036AC00002B05D0B88A31000BF06CFA2418EC868C
:1036BC00E98E3000FDF724FDF8BDA886FFDEC0467C
:1036CC008C0100200C01002010B5040002F086FFD4
:1036DC000023984201D00434E38F180010BD10B5BC
:1036EC00040002F07BFF0023984201D00234E38FE8
:1036FC00180010BD10B5040002F070FF00280BD0AC
:10370C002079032808D80BF029FA02020505FF20BE
:10371C00C00510BDA068FCE70048FAE70000C07FB8
:10372C0010B5040002F05AFF0023984200D0237910
:10373C00180010BD10B5040002F050FF0023984291
:10374C0001D0A38FDBB2180010BD10B5040002F03D
:10375C0045FF002801D04834207810BD10B5040076
:10376C0002F03CFF002801D04734207810BD10B582
:10377C00040002F033FF0023984200D0A36B180022
:10378C0010BD10B5040002F029FF0023984200D0B0
:10379C00E368180010BD10B5002804D00268064B71
:1037AC0001209A4206D0054B00205B6B044A054968
:1037BC009847002010BDC046E89EC0ACF003002026
:1037CC0029BF0108FECD0108F8B50400FFF7E3FF9F
:1037DC0000282DD01A4D2B0038331E78002E27D000
:1037EC00637A002B22D163682A2B21D82A005B0034
:1037FC0039329F5C002F1BD101219954E37E002BA1
:10380C0003D0206B02F094FCE77663682A2B05D872
:10381C002A0059003932521800215170012262726B
:10382C002A2B03D89340002239355A553000F8BD65
:10383C00044B054A5B6B0549002098470026F5E7C9
:10384C008C010020F003002038BF0108FECD0108D8
:10385C00124B10B538331B780400002B12D00068C3
:10386C00FFF799FF00280CD02068FFF7ADFF206808
:10387C00C368002B00D098472068FDF764F900233B
:10388C00236010BD064B1A0030321278002AF8D093
:10389C005B6B044A044901209847F2E70C010020B5
:1038AC00F0030020D6BB010817BB0108F8B5CE46C3
:1038BC00474680B50400FFF76EFF00280BD13C4B48
:1038CC003C4A5B6B3C4900209847002630000CBCFE
:1038DC0090469946F8BD394D2B0038331E78002E92
:1038EC00EDD0637A002BF1D063682A2BE7D82A003D
:1038FC00590039328F5C002FE1D1012088545218C5
:10390C005278002A44D1183290462D4AA0441268AD
:10391C00002A02D09268002A45D1227E022A1FD0AA
:10392C00404602F00DFC002832D0A37E9946002BB5
:10393C0020D0237E012B10D1A36C00229B69E1695E
:10394C00206B9847002823D0A36C206B9B6A984768
:10395C0000281DD0404602F021FB63682A2B05D8B5
:10396C002A005B003932D31801225A700023370029
:10397C0063720DE0A36C206B9B6A9847002807D0FC
:10398C00A36C4A469B69E169206B98470028D0D10B
:10399C0063682A2B03D8002239355B005A55002F57
:1039AC0000D18CE792E7404690470028F0D0D4E74E
:1039BC00F003002054BF0108FECD01088C0100204B
:1039CC00A405002073B50190FFF770FF154E041E7F
:1039DC00154D1AD1154811F08FFA154811F08CFAC3
:1039EC00A42231009200280011F086FA01A8FFF7FA
:1039FC002FFFFCF733FF0F4B1B7A002B03D00E4825
:103A0C001030FFF725FF200076BD0C4811F074FA3A
:103A1C000B4811F071FA0B4A3100280011F06CFAC6
:103A2C000124F0E7DBBC01083AC10108FFBC010826
:103A3C006EBF01088C0100200C020020C3BC0108E1
:103A4C008CBF01089A02000070B5164C0500217D50
:103A5C0000290ED1144B1B78CC2B06D1CB3B6175B6
:103A6C000231237506F0B8FF70BD012106F0B4FFDA
:103A7C00FAE7012911D10C4B1B7863753E2B07D843
:103A8C0003232375617D2800023106F0A5FFEBE7C7
:103A9C000023237506F0A0FFF4E70329E4D10423E7
:103AAC002375E1E70C020020A804002010B5FCF7F8
:103ABC0059FE006810BD10B5174811F01DFA1748D3
:103ACC0011F01AFA164A1749174811F015FA022084
:103ADC00FFF7ECFF02280AD1144B9869FFF772FF2D
:103AEC000400002C12D0022007F06EF80CE0042821
:103AFC0005D10E4BD869FFF765FF0400F1E7802074
:103B0C00C00207F061F80024200010BD80204003A3
:103B1C0007F05AF8F8E7C046C3BC0108A5BF010876
:103B2C007D020000DBBC01083AC101080C02002038
:103B3C00F0B5C646040000B57F488846170011F062
:103B4C00DBF97E4811F0D8F9C4227D49FF327D485B
:103B5C0011F0D2F92820FFF7A9FFC1B22000FCF721
:103B6C0061FF2220FFF7A2FF012800D0C2E0223023
:103B7C00FFF79CFF06002000FCF70CFB050002F091
:103B8C002DFD002808D0032330002B710BF028FCEE
:103B9C006D490AF0B3FBA8602620FFF787FF0600EB
:103BAC002000FCF7F7FA050002F018FD002803D0FE
:103BBC00731E9E4147352E702520FFF777FF0600B8
:103BCC002000FCF7E7FA050002F008FD002800D001
:103BDC00AE633320FFF76AFF06002000FCF7DAFA29
:103BEC00050002F0FBFC002803D0731E9E414E35ED
:103BFC002E702000FCF7CEFA050002F0EFFC002836
:103C0C0006D040460BF0ECFB4F490AF077FB68629C
:103C1C002000FCF7BFFA050002F0E0FC002806D0FB
:103C2C0038000BF0DDFB48490AF068FBA862242041
:103C3C00FFF73CFF0BF0D4FB43490AF05FFB011C80
:103C4C002000FCF709FF3020FFF730FF05002000B3
:103C5C00FCF7A0FA060002F0C1FC002801D0EDB27E
:103C6C00B5873220FFF722FF411E8841C1B22000E8
:103C7C00FCF7C7FE4020FFF719FF06002000FCF7F9
:103C8C0049FA002807D02569280002F0A7FC002873
:103C9C0001D060352E804120FFF708FF0600200080
:103CAC00FCF738FA00280CD02569280002F096FCA5
:103CBC00002806D030000BF093FB23490AF01EFBC2
:103CCC0068664220FFF7F2FE06002000FCF77AFA45
:103CDC00002820D0002E16D0012E14D01B4B1A0019
:103CEC0030321278002A16D05B6B194A1949012020
:103CFC00984710E0022800D04EE72000FCF74AFA63
:103D0C00FCF756FE48E72569280002F067FC0028FE
:103D1C0001D06A352E702920FFF7C8FE050020005F
:103D2C00FCF7F8F9002803D0A9B22069FCF7A2FD32
:103D3C0004BC9046F0BDC046C3BC0108B8BF010826
:103D4C00DBBC01083AC1010800007A44F0030020F2
:103D5C00C8BF0108D6BA01087FB504000E00002ABE
:103D6C0015D1022804D10620FFF7A0FE00280ED1A1
:103D7C00134901AD0A226431280011F08DFC002397
:103D8C00EA5C94420ED002D301330A2BF8D1200006
:103D9C00FCF7E8FC02680123013200D00660180031
:103DAC0004B070BD074811F0A7F8074811F0A4F84B
:103DBC0044220649064811F09FF80023EFE7C0465D
:103DCC00F8560108C3BC0108EDBF0108DBBC0108B3
:103DDC003AC10108F0B5C64600B53C4F82B0380078
:103DEC0011F08AF83A4811F087F83A4D3A4C3B4AB0
:103DFC002900200011F080F80220FFF757FE02285E
:103E0C0044D1374B9B6901930198FFF7DDFC0028E7
:103E1C0042D001A8FFF71CFDFCF720FD380011F083
:103E2C006BF8304811F068F8AB22290092002000A2
:103E3C0011F062F82C4B98461B7A002B19D0284EA7
:103E4C003069FFF7C1FC002832D030001030FFF78A
:103E5C00FFFCFCF703FD424600233800137211F0FF
:103E6C004BF8224811F048F8214A2900200011F0A3
:103E7C0043F80620FFF71AFE0122010006209143A9
:103E8C00FFF76AFF02B004BC9046F0BD0428F9D1DC
:103E9C00134BDB690193B7E7164811F02DF8164860
:103EAC0011F02AF8154A2900200011F025F8C1E775
:103EBC00104811F021F8124811F01EF8AE2229001A
:103ECC009200200011F018F8D3E7C046C3BC0108DB
:103EDC00FABF0108DBBC01083AC10108A1020000CD
:103EEC000C0200200FC001088C0100200BC001083F
:103EFC00B6020000FFBC01082CC00108AE02000095
:103F0C0028C0010884B010B50290039102981E4994
:103F1C00059304920AF004FB0BF042F80122010015
:103F2C008120079CFFF718FF174903980AF0F8FA4D
:103F3C000BF036F8012201008220FFF70DFF02ABD7
:103F4C001989002C01D02389C91801228320FFF77D
:103F5C0003FF0D4905980AF0E3FA0BF021F8012252
:103F6C0001008420FFF7F8FE084906980AF0D8FAF9
:103F7C000BF016F8012201008520FFF7EDFE10BCB6
:103F8C0008BC04B01847C04600007A4400247449A9
:103F9C00F0B5DE464E4645465746E0B5B14883B0CF
:103FAC0010F0AAFFB04810F0A7FFB04DB04EB14AC8
:103FBC002900300010F0A0FF0220FFF777FD022847
:103FCC0000D0FAE1AC4CA748276A10F095FFAB483B
:103FDC0010F092FFF52229005200300010F08CFFF7
:103FEC002820FFF763FDC1B23800FCF71BFD22202F
:103FFC00FFF75CFD012800D007E12230FFF756FDEA
:10400C0082463800FCF7C6F8814602F0E7FA002831
:10401C000AD003234A46504613710BF0E1F9984934
:10402C000AF06CF94B4698602620FFF73FFD82465C
:10403C003800FCF7AFF8814602F0D0FA002805D022
:10404C005246531E9A414B4647331A702920FFF7AC
:10405C002DFD81463800FCF7EFF8002804D04B46C4
:10406C00386999B2FCF706FC2520FFF71FFD824644
:10407C003800FCF78FF8814602F0B0FA002802D025
:10408C004B4652469A633320FFF710FD82463800A8
:10409C00FCF780F8814602F0A1FA002805D05246C0
:1040AC00531E9A414B464E331A702020FFF7FEFCEC
:1040BC0082463800FCF76EF8814602F08FFA002831
:1040CC0007D050460BF08CF96D490AF017F94B46A6
:1040DC0058622120FFF7EAFC82463800FCF75AF8B8
:1040EC00814602F07BFA002807D050460BF078F995
:1040FC0063490AF003F94B4698622420FFF7D6FC7B
:10410C000BF06EF95E490AF0F9F8011C3800FCF767
:10411C00A3FC3020FFF7CAFC81463800FCF73AF8C4
:10412C00824602F05BFA002803D04B465246DBB2C3
:10413C0093873120FFF7BAFC82463800FCF77CF8F5
:10414C0000280DD03800FCF725F8814602F046FA1D
:10415C00002805D05246531E9A414B4649331A70DB
:10416C003220FFF7A3FC411E8841C1B23800FCF796
:10417C0048FC3420FFF79AFC82463800FCF70AF81A
:10418C00814600284AD002F029FA002803D04B4679
:10419C00524632331A704020FFF788FC81463800B3
:1041AC00FCF74AF8002818D048460BF019F93449A6
:1041BC000AF0A4F8FE21890581460AF0BDFE82466C
:1041CC00002833D02F4B1A0030321278002A04D03A
:1041DC005B6B2D4A2D4901209847206AFCF7E2FDC4
:1041EC00A061002858D12A4810F086FE294810F00A
:1041FC0083FE8B2229009200300010F07DFE80207F
:10420C00000306F0E1FC0020D9E1022800D00BE706
:10421C003800FBF7BFFFFCF7CBFB05E7194B30333E
:10422C001B78002BB7D0FBF767FFB4E73800FBF720
:10423C00B1FF804602F0D2F90028CED0FE204946CC
:10424C0080050AF09FFA4346586101230021484635
:10425C009B460AF057FE002800D0D34643465A46E8
:10426C001A76BAE7C3BC01084DC00108DBBC0108D3
:10427C003AC10108110200000C020020B8BF01086D
:10428C0000007A44F00300205EC00108E5BA010882
:10429C00FFBC0108A0C00108037A002B13D10369ED
:1042AC00CA491B689A69586A6262DA69A262DA8D35
:1042BC00A2851A8E013AE2850AF032F9FC218905B1
:1042CC000AF02EF920630120C14BA18D9886D98666
:1042DC00FCF716FF431C0CD1BE4810F00DFEBE4877
:1042EC0010F00AFEBD4A2900300010F005FEFFF761
:1042FC0071FDA36ABA49606A98460AF011F90AF08E
:10430C004FFE012201008120A78DE68D256BFFF762
:10431C0023FDB34940460AF003F90AF041FE01229D
:10432C0001008220FFF718FD390001228320FFF7DE
:10433C0013FD012231008420FFF70EFDA949281C32
:10434C000AF0EEF80AF02CFE012201008520FFF79E
:10435C0003FD636AA4489846A76AA68DE58D246B75
:10436C0010F0B8FD9E4940460AF0DAF80AF0CEFF8C
:10437C0001009E4810F0C0FD9949381C0AF0D0F895
:10438C000AF00EFE01009A4810F0B6FD3100994873
:10439C0010F0B2FD2900984810F0AEFD9149201C98
:1043AC000AF0BEF80AF0FCFD0100944810F0A4FDE0
:1043BC00012006F009FC012001E1042800D0F9E0FD
:1043CC001C30FFF773FB3C2104000AF061FC212038
:1043DC00631A9846FFF76AFB3C2104000AF058FC6C
:1043EC00874B641A9A469C422BD8864B794899463F
:1043FC0000234A46137210F07FFD834810F07CFDB9
:10440C00824A2900300010F077FD434699B24B46A2
:10441C00A2B2186AFFF78CFB7A4C206AFCF7C2FC3C
:10442C007B4B9846D86100285AD17A4810F064FD2D
:10443C00794810F061FD794A2900300010F05CFDDC
:10444C00DDE6774B9C423ED86E4B62489946012381
:10445C004A46137210F050FD6B4810F04DFD92223D
:10446C0029009200300010F047FD43469BB2190022
:10447C0098464B465246186AFFF75AFB554810F0BF
:10448C003BFD684810F038FD674A2900300010F0F9
:10449C0033FD664B9C4200D21C00654B65499C4623
:1044AC00654B6444A4B2009322002B00634810F0C7
:1044BC0023FDF021564BC900414489B22200586BB0
:1044CC00FFF736FBA8E7534810F016FD5C4810F0D8
:1044DC0013FD942229009200300010F00DFD8EE6A1
:1044EC0021002431FBF78AFE237A002B11D1FFF730
:1044FC00C2F8431C0DD1374810F0FEFC364810F0C2
:10450C00FBFC972229009200300010F0F5FCFFF71D
:10451C0061FC00230193636B0093606AA16AE26AF9
:10452C00236BFFF7EFFC636B0093236B606AA16A4C
:10453C00E26AFDF77AFE237A002B00D138E7434676
:10454C00586BFCF72FFC4346186100280BD13148FF
:10455C0010F0D2FC3B4810F0CFFC3B4A2900300055
:10456C0010F0CAFC4BE621000C31FBF747FEFFF7BD
:10457C0082F8431C0CD1174810F0BEFC164810F002
:10458C00BBFC324A2900300010F0B6FCFFF722FCCD
:10459C0023000C330193636B0C340093636AA069A2
:1045AC00E169226AFFF7AEFC236900930FCCFDF79B
:1045BC003CFEFDE68020C00206F006FB002003B0A6
:1045CC003CBC90469946A246AB46F0BDC2F38E4D1C
:1045DC000C010020C3BC0108C1C00108320200005C
:1045EC0000007A4400247449DFC0010872BD010840
:1045FC0081BD0108A7BD0108B9BD0108CEBD0108E8
:10460C00620700008C010020F9C001084302000081
:10461C000C020020FFBC01086FC10108560200000B
:10462C00E20E000010C101084A02000081070000E0
:10463C0080F8FFFF2BC101084D02000033C10108B7
:10464C0045C101088CC101086A0200006F0200001C
:10465C008022024B12059A607047C04600ED00E0C4
:10466C00F0B5C646654C00B5236882B0DA691968A6
:10467C00986815070ED120252A4200D18BE02942DB
:10468C0002D1C50000D486E0E36E002B7DD0200063
:10469C0098477AE05A4E0640B046351E04D1213573
:1046AC00FF35294200D176E001252A4207D0CE05FC
:1046BC0005D527001D6288373E6835433D600225CD
:1046CC002A420AD0C60708D527001D6288373D68E4
:1046DC00AC460425664635433D6004252A420AD083
:1046EC00C60708D527001D6288373D68AC460225F1
:1046FC00664635433D6015070BD58D0602D44546FD
:10470C00002D06D008251D62230088331E68354312
:10471C001D60230088331B68002B36D020231A42DF
:10472C0008D0194201D1C30004D5E36E002B01D08F
:10473C00200098472100236888310A689868400651
:10474C0002D40820024024D01A682E490A401A606C
:10475C009A682D490A409A60220020210832D167BC
:10476C000022E2669A6849180A420ED09A68A06F35
:10477C008A439A60002808D0244B836306F0BEFD60
:10478C00002802D0A06F836B984702B004BC9046FF
:10479C00F0BD0A60F9E780256D032A4203D046027A
:1047AC0001D51D62F1E780252A4208D0294201D1AA
:1047BC00000204D5236F002B00D068E7E5E740200A
:1047CC000242E2D00142E0D01A6882431A602022F1
:1047DC00231DDA6700220E4B226738331978022921
:1047EC0002D101321A70D0E70129CED11A706B4672
:1047FC00D81DCD23037006F001F8C6E7A8050020EC
:10480C0001000010DFFEFFFFFEFFFFEF859D00089B
:10481C000C020020E0222148D200C36B70B59969CC
:10482C00114233D09C6901211A68E50509D5D509D7
:10483C000D4206D0051DEE6F3143E967802149001A
:10484C00D961012165050AD5D5090D4207D0051D91
:10485C00EE6F07313143E9678021C900D96101212D
:10486C00A4050AD5D2090A4207D00222011DCC6F39
:10487C002243CA6780229200DA61031DD96F0B2391
:10488C00194202D03C3006F077FD70BD99691A6868
:10489C00036F002BF9D03C309847F6E70C02002050
:1048AC0010B5024806F0D4FC10BDC04644050020EB
:1048BC0010B5024806F0CCFC10BDC046E804002040
:1048CC0010B5202006F04CFF10BD10B5082006F0E6
:1048DC0047FF10BD144A10B513689969C90408D56F
:1048EC000121186D084204D0D86D0843D8650F48D3
:1048FC0001729969890406D50221186D084202D00B
:10490C00D86D0143D96511000120293108700421AB
:10491C001C6D0C4204D0DC6D2143D965044B18701E
:10492C0001232932137010BDC00300208C0200201B
:10493C008C040020024A1368013313607047C04690
:10494C00EC030020704770477047FEE7836910B591
:10495C000400002B0AD00E4B1A0030321278002AB9
:10496C0004D05B6B0B4A0C4901209847E369002B80
:10497C000AD0074B1A0030321278002A04D05B6B35
:10498C00064A05490120984720688368984710BD5E
:10499C00F0030020B8C50108C9C50108EBC5010822
:1049AC0070B50400416A028F438F0968E56B00699A
:1049BC00A84720684368984770BDF0B54F464646F7
:1049CC00D646C0B51F00154B1600984601235B4216
:1049DC009946002304009A464D086D004519AC42D7
:1049EC0004D11CBC90469946A246F0BD0C4B2088C5
:1049FC009C466044784331000AF04EF980231B0238
:104A0C00C01803D5534623800234E8E7404502DD45
:104A1C004B462380F8E72080F6E7C046FFFF0000F6
:104A2C000080FFFF836B244A10B5040093420BD126
:104A3C000369426993421ED0204B00205B6B204AD5
:104A4C0020499847002010BD1F4A93420BD103699F
:104A5C00426993420FD1194B00205B6B1B4A1949D9
:104A6C0098470020EFE7154B00205B6B184A15495F
:104A7C0098470020E7E7A369002B0AD00F4B1A00D8
:104A8C0030321278002A04D05B6B124A0D49012097
:104A9C009847E369002B0AD0084B1A003032127881
:104AAC00002A04D05B6B0C4A064901209847206809
:104ABC0083689847C7E7C046094F0008F0030020F9
:104ACC00FAC5010822C60108C34F000833C6010805
:104ADC0068C60108B8C50108EBC5010810B504008B
:104AEC00836B984720684368984710BD03694269F7
:104AFC0010B50400934207D0134B00205B6B134A94
:104B0C0013499847002010BD8369002B0AD00E4B27
:104B1C001A0030321278002A04D05B6B0D4A0C4913
:104B2C0001209847E369002B0AD0074B1A0030325A
:104B3C001278002A04D05B6B074A0549012098477C
:104B4C00206883689847DEE7F0030020FAC5010867
:104B5C00FFBE0108B8C50108EBC5010810B504007B
:104B6C00836B984720684368984710BD70478369EA
:104B7C0010B50400002B0AD00E4B1A0030321278FC
:104B8C00002A04D05B6B0C4A0C4901209847E3695E
:104B9C00002B0AD0074B1A0030321278002A04D0AE
:104BAC005B6B074A05490120984720688368984742
:104BBC0010BDC046F0030020B8C501087DC6010831
:104BCC00EBC5010810B5436A826B00681A60436834
:104BDC00984710BD836910B50400002B0AD00E4B0A
:104BEC001A0030321278002A04D05B6B0B4A0C4945
:104BFC0001209847E369002B0AD0074B1A0030328A
:104C0C001278002A04D05B6B064A054901209847AC
:104C1C0020688368984710BDF0030020B8C50108D0
:104C2C008AC60108EBC50108F0B50026520804003D
:104C3C00064D900009180439013A00D2F0BD53001A
:104C4C00E35E4E805B106B400B80F4E700C0FFFF0F
:104C5C0070B55308064D5B00023B9C1C03D103331B
:104C6C009A43100070BDC45E64106C40CC52F3E7E4
:104C7C0000C0FFFF5208130030B5013B01D2900079
:104C8C0030BD5C00045B9D0024034C51F5E7F8B586
:104C9C004746CE4680B507009408E6008D19A4005F
:104CAC00043C083D231D04D130000CBC90469946B1
:104CBC00F8BD3B190220185E0AF048FBE621890575
:104CCC0009F02EFC8046385F0AF040FBE62189058E
:104CDC0009F026FC00218146404609F021FC011C0C
:104CEC00484609F071F9434628606B60D8E7F8B57F
:104CFC004746CE46884680B5150007009408A400A8
:104D0C00043C231D06D12800032398430CBC904679
:104D1C009946F8BD3E59B0B20AF018FBDE21890560
:104D2C0009F0FEFB814630140AF010FB011C4846CA
:104D3C0009F04AF943461851E2E710B553085B00F5
:104D4C00023B9C1C03D103339A43100010BDC45A80
:104D5C006400CC52F4E7836910B50400002B0AD030
:104D6C000E4B1A0030321278002A04D05B6B0C4ABE
:104D7C000C4901209847E369002B0AD0074B1A0015
:104D8C0030321278002A04D05B6B074A05490120A7
:104D9C00984720688368984710BDC046F0030020F0
:104DAC00B8C501089CC60108EBC5010810B5040084
:104DBC00436A828F19680069A36B9847206843681F
:104DCC00984710BD836910B50400002B0AD00E4B18
:104DDC001A0030321278002A04D05B6B0B4A0C4953
:104DEC0001209847E369002B0AD0074B1A00303298
:104DFC001278002A04D05B6B064A054901209847BB
:104E0C0020688368984710BDF0030020B8C50108DE
:104E1C00AEC60108EBC5010810B50068C368984719
:104E2C0010BD10B5FFF7F8FF10BD10B5FFF7F4FF7C
:104E3C0010BD10B5FFF7F0FF10BD10B5FFF7ECFF7C
:104E4C0010BD10B5FFF7E8FF10BD10B5FFF7E4FF7C
:104E5C0010BD70B50400456A41692A68A36B0069EE
:104E6C009847286020684368984770BD10B5FFF7D5
:104E7C00F0FF10BDC36A10B5002B02D014305B6B71
:104E8C00984710BD826910B5002A0FD048235A43A9
:104E9C00074B483A1B689B181A0040321278002ABC
:104EAC0001D141331A700430FFF7E4FF10BDC04646
:104EBC00A00500200020704710B5024B5B69984795
:104ECC0010BDC046F0030020F0B5C646070088466A
:104EDC00002400B595086600AC4203D1300004BC38
:104EEC009046F0BDA300DA5BFB185888013400042F
:104EFC00104307F013FD43469853ECE7F8B5DE4634
:104F0C004E4645465746436AE0B598461E68036BC5
:104F1C00016C1D680400281C09F002FB07F05CFC06
:104F2C00E16B0700281C09F0FBFA07F055FC8146E1
:104F3C002469B508AD002D19AC4209D103239E4359
:104F4C0043461E603CBC90469946A246AB46F8BD13
:104F5C008023DB05F81807F0CBFC8246380007F0FD
:104F6C00C7FC0022A35E51469C460222A35E624609
:104F7C005143CA171205120D5218010059438B46A2
:104F8C00C9170905090D594412130913521A228025
:104F9C0052465A43D3171B051B0D9B1862464243BE
:104FAC00D0170005000D80181B1300131B1863800D
:104FBC004F440434C0E7F8B5DE4657464E464546E6
:104FCC00436AE0B599461B6806005C08036B016CEC
:104FDC001D68281C09F0A4FA07F0FEFBF16B070012
:104FEC00281C09F09DFA07F0F7FB630098468246EF
:104FFC0035697669A844454508D14B46A4001C6028
:10500C003CBC90469946A246AB46F8BD0022AB5E2E
:10501C0002359B468023DB05F81807F069FC5B46DC
:10502C004343D8170005000DC0180013308038001A
:10503C0007F05EFC5B464343D8170005000DC01813
:10504C000013708057440436D5E77FB50022436ABD
:10505C0006691D6803AB1A805A80039BAD082A00B1
:10506C003100403000930123040007F039FA0A4B59
:10507C002000EB189B00F3180222995E1B8802AAF1
:10508C00138001235180029A310000925B422A0066
:10509C0007F026FA7FBDC046FFFFFF3FF0B557462D
:1050AC004E464546DE46E0B5490852088BB295B2ED
:1050BC0083B082469946002D00D11D008BB201931E
:1050CC0001235B42C8462F0000269B46B14506D8FB
:1050DC0003B03CBC90469946A246AB46F0BD019A43
:1050EC00F319934200DD4746002F20D00022100018
:1050FC0074005444BA4221D30123002800DA5B46E1
:10510C007A0892B253433900181809F0C5FD7A0099
:10511C0001B2A218002919DD80B223880021834234
:10512C0001D31B1A99B221800234A242F5D1434615
:10513C005B1B76199BB2B6B29846C7E70B49530076
:10514C008C46E35A01326344C018D3E7084B9C46A3
:10515C00614423888B4206DC1B1A9BB223800234E9
:10516C00A242F6D1E3E7024BF8E7C0460080FFFF0E
:10517C00FFFF000070B503000C0001220020A242CA
:10518C000FD30AF0E3F8051C601E0AF0DFF8011CCF
:10519C00281C09F0B3F80EF043F9074909F0C0F9DF
:1051AC0070BD1D8859880132491BCD1749196940BA
:1051BC00401892B20233E2E70000A04130B50E2550
:1051CC00002485B06D442A0021002C8007F0DAFB06
:1051DC002A88074B01209A4207D00092054A2000EA
:1051EC00556B0549054AA847200005B030BDC0469F
:1051FC0012110000F0030020E8C60108BAC601082D
:10520C00F8B51D00B823CE4699464746446980B58B
:10521C00A1444B461B881700002B28D02600096898
:10522C00B4368846328801685200904442460120C8
:10523C0008F044FC4B4640461988FFF79BFF0123BE
:10524C0068600D49984609F077FE002800D1804629
:10525C0043462B700023226C9A4203D1BA34227835
:10526C0001335340012213402B7233883B600120E1
:10527C000CBC90469946F8BD00006442F8B5574600
:10528C004E464546DE464469E0B52700CE371D0044
:10529C003B8880468A4616009946002B3AD023005C
:1052AC00C833186880B243009B462300CC3319885E
:1052BC007C2009F067FC5B4658432300C4331B88F1
:1052CC004146C01853461B6809689A4682444B46AF
:1052DC005246012008F0F2FB3F8850463900FFF798
:1052EC0049FF012368600F49984609F025FE002804
:1052FC0000D1804643462B700023E26E9A4203D1C4
:10530C00C034227801335340012213402B7233688E
:10531C00DF1B376001203CBC90469946A246AB4649
:10532C00F8BDC0460000644270B51600050005F0DB
:10533C0063FC0400330002002900002008F0BEFBCF
:10534C00200070BD7FB503AE3200050007F05EFD96
:10535C00041E08D10A4B0B4A5E6B0B492B00B0475D
:10536C00200004B070BD7388062BF9D00093044B59
:10537C00064A5C6B04492B000020A0470024EFE791
:10538C00F0030020F8C60108E8C601082AC7010886
:10539C00F0B585B003AC17002200060007F036FD0F
:1053AC00051E32D022786388062A25D11A0523D50A
:1053BC008022D20013402BD1002F00D03B70638889
:1053CC00DB050AD5154B1A0030321278032A04D9A2
:1053DC005B6B134A13490420984763889B0514D5CB
:1053EC000E4B1A0030321278032A0ED95B6B0E4A20
:1053FC000C490420984708E00093084B0B4A5C6B5F
:10540C00084933000020A0470025280005B0F0BD56
:10541C0031000F2008F046FB2B00CDE7F0030020F5
:10542C0094C70108E8C60108ADC7010864C70108A4
:10543C0073B56B469C1D0023220038210500238088
:10544C0007F0A0FA24880120002C0AD1054B064A4B
:10545C005E6B06492B002000B047280007F0B9FA14
:10546C00200076BDF0030020C5C70108E8C601087E
:10547C0010B50400FEF754F901280CD02000FEF7FB
:10548C0039F9011C054808F039FF044908F09CFD66
:10549C0009F086FD10BDFA20C000FBE70000FA44BD
:1054AC00F0B557464E464546DE460023E0B50500AE
:1054BC0098468DB08946454906A89370D3701380E1
:1054CC00137313719160871D1400286806AAD37199
:1054DC003B708246A87B07320090E87B05910390D5
:1054EC00A88902920190286909AE04904346019A5A
:1054FC009BB29A4259D9009B002B0FD0AB69029AF0
:10550C009B6904995046984700280ED100200DB095
:10551C003CBC90469946A246AB46F0BDAB695046A2
:10552C009B6A98470028E9D1F0E7029B1B78002B77
:10553C0000D1A378A370AB693A00DB694946280017
:10554C009847002333703372AB69059A1B6A089035
:10555C0072609B4608AA330049462800D847337A24
:10556C00002B00D1237B237333789B46002B00D177
:10557C0023792371A16870680DF026FE3B78A0603A
:10558C00002B00D1E378089AE3709446238859469F
:10559C0063442380AB6928005B6A9847039B002B0C
:1055AC0006D0019B013B984502D14B461868AEE7EB
:1055BC00009B002B03D101239C46E04496E7AB698A
:1055CC0050469B6A98470028F5D19FE7000080FF62
:1055DC0037B5456901242B00BA331B7819432B6C62
:1055EC004C405A4253418B4206D00094EF23044A5C
:1055FC000449006805F062FB2C6401203EBDC046E6
:10560C0088690108C87E010870B50D000021436946
:10561C0011701A00B833B4321B8814882968E41846
:10562C0022000068FFF780FE62000100286810F07D
:10563C003CF8200070BDCD2270B5520004000D0066
:10564C00BC200F4905F0CCFA00236061984214D0BD
:10565C002800FEF796F820602800FDF7CBFAA0731F
:10566C002800FEF784F843425841E0732800FFF706
:10567C00FFFE044B2061A3610123180070BDC046DE
:10568C00F6C70108A05701082C2270B5FF320400A0
:10569C000D00D4200F4905F0A3FA00236061984255
:1056AC0015D02800FEF76DF820602800FDF7A2FA4F
:1056BC00A0732800FEF75BF843425841E0732800C2
:1056CC00FFF7D6FE044B20613833A3610123180089
:1056DC0070BDC04628C80108A0570108F0B5574650
:1056EC004E464546DE464469E0B5230025008DB0A4
:1056FC000492C2331B8806008A46C635002B00D1A3
:10570C002B80CC239B46A3445B467C20198809F054
:10571C0039FAC8239946A1444B461B6806A99BB28B
:10572C00584323008046CE331B882000984407F052
:10573C00E3FC069B298843441A0053461B683068D7
:10574C009C466144FFF7F0FD2300AD331B78060047
:10575C00002B28D10023049A06A91370200007F00F
:10576C00CBFC434650465A00069B006859002B88D8
:10577C007118C0180FF099FF4B462E88C434268040
:10578C001C685B467C20198809F0FCF9A4B2640003
:10579C004443404636192E800DB03CBC9046994689
:1057AC00A246AB46F0BD22001F21BC3213685B0041
:1057BC000B4013603F4A110030310978032904D99A
:1057CC00576B3D493D4A0420B847236A3C4A9BB27B
:1057DC005B007032985E09F0B9FD071C308809F047
:1057EC00FFFDDE21890508F09BFEFC21890508F0F0
:1057FC00C9FF344908F094FE334908F091FE011CAE
:10580C00381C08F0BFFF09F081FD304A07B2BBB26B
:10581C009A182F4992B28A422AD82621625E708841
:10582C0003922C4A9446E62263449BB25200934264
:10583C0024D909F0D5FDDE21890508F071FEFC2183
:10584C00890508F09FFF1F4908F06AFE1E4908F001
:10585C0067FE0590380009F079FD011C059808F0E9
:10586C00B3FB09F053FD039B00B26433984205DD92
:10587C0022000123BC3211680B4313602300BC339C
:10588C001A680023002A11D1022B00D862E7094ABA
:10589C00110030310978002906D005210091576B91
:1058AC0005490D4A0120B847012354E7511E0A400F
:1058BC000133E7E7F003002071C801085AC801085A
:1058CC00A05701089A99993F00007A4412FDFFFFF6
:1058DC0017020000F4FCFFFF82C8010810B5383035
:1058EC0008F09AFA10BD10B5383008F095FA10BDD2
:1058FC0010B50400383008F0A3FA00280CD1E023CE
:10590C0001229B00E358586198715A71D2239B0075
:10591C00E0180433E358984710BD10B50400383034
:10592C0008F08EFA00280BD12300F0331B680122FB
:10593C00586198712000BC345A71B830236898476C
:10594C0010BD13B5044A00910300546B0349044A7B
:10595C000020A047FEE7C046F0030020D2C8010893
:10596C00BDC80108F0B557464546DE464E46E0B583
:10597C006B4C1700A544029198467C2A16D89300CC
:10598C009B4680AB5B44F73BFF3B01930023050038
:10599C000093029B009A9A420CD181239B009D4458
:1059AC003CBC90469946A246AB46F0BD7D215D4875
:1059BC00FFF7C7FF5A46290004A80FF06DFE80A917
:1059CC008C4600220124781E83006344F13BFF3B8C
:1059DC0004921A6004AAA7420FD8019A043A01381B
:1059EC002ED20024A34548D129000022A24272D114
:1059FC00009BAD1801330093CBE70021535E0134BB
:105A0C009C460423D15E6346C91A43465943CB17BF
:105A1C001B051B0D5B181B13634493800221535E03
:105A2C0004329C460223D15E6346C91A434659434D
:105A3C00CB171B051B0D5B181B1363445380CAE764
:105A4C000623D15E0223D45E4346641A5C43E317FB
:105A5C001B051B0D1B191B135B1853800823D15EF0
:105A6C000423D45E4346641A5C43E3171B051B0DE9
:105A7C001B191B135B189380B0E704A98C462200FA
:105A8C006244508804AB1B5B0004184306F046FFCD
:105A9C00814600281DD004ABE05E4946000309F0A6
:105AAC00FBF804AA03B294469A46230063440220EE
:105ABC00185E49460003404209F0EEF800B204AA11
:105ACC00230094466344588013005246E252043437
