:020000040800F2
:100000000090002081270108EB3B0008EF3B00082F
:1000100000000000000000000000000000000000E0
:10002000000000000000000000000000ED3B0008A0
:100030000000000000000000E93B0008D93B000878
:10004000D1270108D1270108793B0008D1270108F1
:10005000D1270108D12701086F3B0008653B000844
:10006000D1270108553B0008453B0008D12701086E
:10007000D1270108D1270108D1270108D12701087C
:10008000D1270108D1270108D1270108D12701086C
:10009000D1270108D1270108D1270108AD3A00086E
:1000A000D1270108D1270108D1270108F938000814
:0C00B000D1270108D1270108D127010841
:1000BC0010B5064C2378002B07D1054B002B02D032
:1000CC00044800E000BF0123237010BD7000002025
:1000DC0000000000DC540108044B10B5002B03D0C9
:1000EC000349044800E000BF10BDC04600000000FA
:1000FC0074000020DC54010810B5034B034A5B6B01
:10010C0003490120984710BDB8020020A8B8010887
:10011C0004CD010810B500280AD0094B02689A4298
:10012C0006D1038B002B03D043690120002B06D191
:10013C00044B00205B6B044A04499847002010BD17
:10014C00D79DC0ACB8020020A8B8010804CD0108A6
:10015C0010B50400FFF7DEFF00280AD06379013BDD
:10016C00042B06D9034B00205B6B034A03499847C9
:10017C00002010BDB8020020BEB8010804CD010853
:10018C0010B504000069002803D0C3689847002309
:10019C00236110BD10B5041E01D0006910BD064BC3
:1001AC001A0030321278101EF8D001205B6B034A13
:1001BC00034998472000F1E7B8020020A8B80108CD
:1001CC0004CD010810B5041E04D00379032B0DD106
:1001DC00200010BD064B1A0030321278002AF7D0DE
:1001EC005B6B044A044901209847F1E70024EFE7D0
:1001FC00B8020020A8B80108D6B8010810B50C0048
:10020C00002815D0037A032B12D103691B689A6955
:10021C00586A0A60DA694A60DA8D0A819A6ACA6099
:10022C0004490EF04FF9FC2189050EF04BF92061C1
:10023C0010BDC046C2F38E4D10B50400FFF76AFF27
:10024C00002802D02379002B0BD0074B1A00303238
:10025C001278141E05D05B6B044A0549012098479F
:10026C000024200010BDC046B8020020A8B8010828
:10027C00E5B801080122154B52421A60122820D809
:10028C00134A83009B180200203AD1B2222902D8CB
:10029C00104B9200D31802007F32D2B2042A04D839
:1002AC0003000D4A813B9B009B1802003032D2B2F6
:1002BC00092A04D803000948D03B9B001B18186876
:1002CC007047E928DFD1064BEFE7C046B0030020AA
:1002DC00B40300201405002000050020C0040020F9
:1002EC00A005002084B010B50492012205931E4C89
:1002FC001E4B52421A6023680290039102980133FC
:10030C0005D01B490EF0DEF80EF01CFE2060636871
:10031C00013306D0164903980EF0D4F80EF012FEF5
:10032C006060079A02AB1B89002A01D012899B18C6
:10033C00A268013200D0A360E368013306D00C49F7
:10034C0005980EF0BFF80EF0FDFDE0602369013357
:10035C0006D0084906980EF0B5F80EF0F3FD2061B2
:10036C0010BC08BC04B0184700050020B0030020E6
:10037C0000007A4400247449014B18687047C04649
:10038C00B40200200021102210B5074B1C69144246
:10039C0002D19A61FAE79A621C691442FBD10131CD
:1003AC008842F3D110BDC0460004005010B50A209D
:1003BC00FFF7E8FF8022024B92009A6210BDC04604
:1003CC000004005000487047001BB74B0C4A70B536
:1003DC00082415000B4806681369234203D10368EF
:1003EC009B1B8B4203D328690007C00F70BD72B6EC
:1003FC001369234200D130BF62B6BFF36F8FEBE7B6
:10040C0000040050B402002070B504000D0006F08A
:10041C00A9F8002801D06834258070BD70B504009F
:10042C000D0006F09FF8002801D00634E58770BD5A
:10043C0070B504000D0006F095F8002801D00434C6
:10044C00E58770BD70B504000D0006F08BF8002830
:10045C0001D00234E58770BD70B50D00FFF7B2FE18
:10046C00002811D01C300400681E04280CD80EF093
:10047C0047FB030C0E17200000212000FFF7D8FFCC
:10048C0000212000FFF7DEFF70BD0721F5E72000FB
:10049C000921FFF7CDFF03212000FFF7D3FFF3E77E
:1004AC000C212000FFF7C4FF06212000FFF7CAFF34
:1004BC00EAE71021F5E770B50E00FFF7BDFE051E4B
:1004CC0018D00400701E1C34042813D88C350EF080
:1004DC0017FB03122123320000212000FFF7A8FF95
:1004EC0000212000FFF7AEFF03212000FFF796FF4D
:1004FC00124B2B6070BD07212000FFF799FF0621DE
:10050C002000FFF79FFF09212000FFF787FF0C4B0E
:10051C002B60EFE70921EFE70C212000FFF788FFA4
:10052C0006212000FFF78EFF01212000FFF776FF48
:10053C00034B2B60DEE71021EFE7C046FA61843CE9
:10054C000938843B10B5040006F00CF8002801D0E3
:10055C000123237110BD70B505000E00FFF71AFEC4
:10056C00041E10D005F0FEFF002802D023004A33F1
:10057C001E70002E08D00F212000FFF763FF012111
:10058C002000FFF74BFF70BDAB68002BFBD06979E7
:10059C0028009847F7E710B5002803D00173FFF740
:1005AC00DAFF10BD034B30331B78002BF9D0FFF76B
:1005BC00A3FDF6E7B802002010B5041E0CD083682A
:1005CC00002B09D041719847237B002B03D00121CC
:1005DC002000FFF7C0FF10BD034B30331B78002BFE
:1005EC00F9D0FFF789FDF6E7B802002070B50D1CB5
:1005FC00FFF7D0FD040005F0B5FF00280ED0084928
:10060C00281C0DF05FFF011C05480EF08DF8FC2135
:10061C0089050DF0ABFC0EF069FEE08770BDC0469D
:10062C000000B04170B5049D1E002B784469002B6E
:10063C000AD1A37E002B11D0E3686068934200D9E5
:10064C0013001A0014F028FF2B7820696376002819
:10065C0003D06269310014F01FFF70BDA3681960EC
:10066C00F2E77FB5050010008A790E794C7903AB5F
:10067C009A7002AA5E7014701C7000924A6929006C
:10068C00FFF7D0FF7FBDF0B5050085B01000CA792B
:10069C004C7903AB0E798F79DA7002AA14701F7043
:1006AC005C709E7000924A692900FFF7BBFF05B091
:1006BC00F0BDF0B5C646164B164E9846DC683300B6
:1006CC0000B530331B780500032B05D94368124A5B
:1006DC0012490420776BB8470023002C0DD0626DB3
:1006EC00AC4207D1002B11D14346DA60200005F053
:1006FC0035FC08E023001400EFE7766B6B68084AC2
:10070C0006492000B04704BC9046F0BD5A65EDE7A1
:10071C008C000020B8020020F6B8010817B90108B7
:10072C0027B9010870B5602272498C200AF01EFAB4
:10073C00041E00D1DBE0704B050003600323037142
:10074C006E4B1C3583606E4B05614361582302214F
:10075C000383FFF731FF20000021FFF71CFF280067
:10076C0005F000FF002801D0664B2364280005F03B
:10077C00F9FE002801D0644B6364280005F0F2FEFA
:10078C00002803D0230006224E331A70280005F0EF
:10079C00E9FE002801D00123A3622800FFF7D2FE56
:1007AC00280005F0DFFE002801D002236365280035
:1007BC0005F0D8FE002803D02300002248331A701D
:1007CC00280005F0CFFE002803D0230010227C3334
:1007DC001A80280005F0C6FE002802D00022231D36
:1007EC00DA67280005F0BEFE002803D023000022A3
:1007FC0062331A70280005F0B5FE002803D02300E0
:10080C00002263331A70280005F0ACFE002803D0D8
:10081C002300002264331A70280005F0A3FE002880
:10082C0007D0230000226B335A701A700133403208
:10083C005A80280005F096FE002803D02300FF22E2
:10084C0072331A80280005F08DFE002803D0230097
:10085C00002274331A70280005F084FE002804D09E
:10086C002300002276331A70A26728000121FFF7BB
:10087C00CBFD280005F076FE002803D023000122D2
:10088C0086331A70280005F06DFE002803D0230073
:10089C000B225A331A80280005F064FE002803D07E
:1008AC0023000A2258331A80280005F05BFE00282A
:1008BC0003D02300002265331A70280005F052FE85
:1008CC00002803D0230001226A331A70280005F097
:1008DC0049FE002804D080222300520170331A8074
:1008EC00280005F03FFE002801D0084BE3612000F2
:1008FC0070BDC0465BB90108D79DC0AC650400084B
:10090C00090A0008CDCC4C3E9A99993ECB5500086B
:10091C00F0B5C646304D00B52C7A0700002C4DD0F2
:10092C00FFF7F8FB002801D100240BE03B69DE68DF
:10093C002A2E0BD9294B2A4A5C6B2A492A230020E0
:10094C00A0470024200004BC9046F0BD6B7A002B1D
:10095C0002D1EB68002B29D1204B3C8B1A00303292
:10096C001278032A06D95B6B1F4A98461D4933003F
:10097C000420C0472000BD221C490AF0F7F8041ED1
:10098C00D2D01B4B46600360EB68390043657B6932
:10099C00E860984700280ED1E368002B01D02000B6
:1009AC0098472000FFF785FE0024CBE75A68964253
:1009BC000BD05B6DCEE701236372C3E7074B0D4A87
:1009CC005B6B084920009847BCE7044B0A4A5B6BF9
:1009DC00044900209847A7E78C000020B8020020AB
:1009EC007CB9010817B9010895B90108B4B9010817
:1009FC00E89EC0ACD6B90108E8B90108F0B5DE46EE
:100A0C00454657464E46E0B5A5B080468C2201A817
:100A1C000C0014F041FD01A8FFF79AFB002801D14E
:100A2C00002014E008A805F09DFD0028F8D008A8C7
:100A3C0005F018FD0028F3D022AB1D88002D0DD138
:100A4C00734B28005B6B734A73499847280025B099
:100A5C003CBC90469946A246AB46F0BD8A236B44FB
:100A6C001B78012B0AD120AB1B88402B06D9684B75
:100A7C006A4A5B6B684900209847D1E74246237964
:100A8C0010201372664BEC2219009B460AF06EF88C
:100A9C0005009020ED22594640000AF067F804004A
:100AAC00002D01D000280FD1280005F057FA2000A6
:100ABC0005F054FA0025434642461D61681E8541E7
:100ACC00584BE8B2D360C2E718239A462860824498
:100ADC004046C018E4339946A1444B4652466067E1
:100AEC0008A905F04DFE4B465A8923007033061EAB
:100AFC001A8004D1280005F061FA3500DBE74B467B
:100B0C00DB899B184A4697895B007F009F4200D285
:100B1C001F0008A805F026FD0026B04201D01DAB31
:100B2C001E88BE4200D23E00982259465200300028
:100B3C0005F058FA4B46071ED86156D01E622200AB
:100B4C002600A31D2366E31D6366143205330836A5
:100B5C00A366E064E265A465E666D867231D994642
:100B6C004946883319601A61D8635C668C23284F18
:100B7C005B009B463B0030331B78A344012B39D8D8
:100B8C0052465B4608A9606F05F006FD82460028B8
:100B9C0034D02300244AB0331A60244A20005A600F
:100BAC004A46234B7830E367224BD367224B234AC8
:100BBC00F3672300B8331A64214A5A60214A9A60B9
:100BCC00214ADA60A063A36709F06DFA061E1AD0F9
:100BDC00A06BF434C3689847434623601B4B6B608F
:100BEC001B4BAB601B4BEB6065E7280005F0E6F98F
:100BFC003D0060E708A807F095F8C1E7280005F06C
:100C0C00DDF9554657E77B6B134A1449984771E752
:100C1C00B80200200FBA0108D6B801083FBA010883
:100C2C006ABA01088D0100080000404021C8000884
:100C3C0009A10008B3A0000893A400086F060008DF
:100C4C00A39F0008399F0008A19F0008AF58000817
:100C5C007B580008C95F000893BA0108B3BA0108B1
:100C6C0084B0F0B5C64600B5454E07910993079B75
:100C7C00069030009846089214F03EF8414814F063
:100C8C003BF8414D414C424A2900200014F034F805
:100C9C00300014F031F83F4906980DF013FC0EF0BB
:100CAC0025FB01003C4814F027F8C02229009200D3
:100CBC00200014F021F8394F30003B7C002B4CD035
:100CCC0014F01AF8B96940460DF050F931490DF09D
:100CDC00F9FB0EF037F90100314814F00DF8C12280
:100CEC0029009200200014F007F8300014F004F8EA
:100CFC0006AB19892B4813F0FFFF2B4A2900200063
:100D0C0013F0FAFF300013F0F7FF224909980DF0A9
:100D1C00D9FB0EF017F90100244813F0EDFF244A1B
:100D2C002900200013F0E8FF300013F0E5FF214903
:100D3C000A980DF0C7FB0EF005F901001E4813F0E0
:100D4C00DBFFC22229009200200013F0D5FF04BC67
:100D5C009046F0BC08BC04B0184713F0CDFF0D4909
:100D6C0040460DF0AFFB0EF0EDF80100134813F008
:100D7C00C3FF134A2900200013F0BEFFB5E7C0469D
:100D8C0094BC01089CBC0108B8BC0108CCBC01088F
:100D9C00FF02000000007A44D8BC01088C0000203F
:100DAC00F8BC010810BD01080603000024BD0108B1
:100DBC00070300000024744938BD0108E8BC010891
:100DCC0002030000F0B5D6464F4646460400C0B5B7
:100DDC0087488946904613F08FFF864813F08CFFA6
:100DEC00E022012752008449844813F085FF844D8A
:100DFC00844E2B6A7F42D9B220003760FFF7DCFBB0
:100E0C00AB683760012B00D1DDE0022B00D1D4E0C0
:100E1C00012320005B423360AF69FFF7BBF98246C8
:100E2C0005F0A0FB002804D07B1E9F4152464723AF
:100E3C00D75401235B4233606B6920009A46FFF75D
:100E4C00A9F9070005F08EFB002801D05346BB63BF
:100E5C00012320005B423360EF6CFFF79BF9824665
:100E6C0005F080FB002804D07B1E9F4152464E2388
:100E7C00D7542000FFF78EF9070005F073FB00280C
:100E8C0006D048460EF09CFA5F490DF009FA7862DC
:100E9C002000FFF77FF9070005F064FB002806D05F
:100EAC0040460EF08DFA58490DF0FAF9B862012758
:100EBC007F42376028690EF083FA53490DF0F0F940
:100ECC00011C2000FFF792FB200037602F6CFFF70E
:100EDC0061F9804605F046FB002802D04346FFB27C
:100EEC009F87A96C01274B1E99417F422000C9B2F4
:100EFC003760FFF750FB802320003760EF58FFF777
:100F0C0009F900284ED101235B4233602000853360
:100F1C00EF58FFF7FFF8002834D101235B42336010
:100F2C0020008933EF58FFF74DF900280DD0002F22
:100F3C001DD0012F1BD03022344B9A5C002A04D0D8
:100F4C005B6B334A334901209847012320005B42F5
:100F5C0033606D6AFFF7DEF8002803D0A9B2206970
:100F6C00FFF752FA1CBC90469946A246F0BD236985
:100F7C001800984605F0F6FA0028E6D06A23424697
:100F8C00D754E2E723691800984605F0EBFA0028DD
:100F9C00C3D038000EF014FA1B490DF081F943460A
:100FAC005866BAE723691800984605F0DBFA002862
:100FBC00A9D060234246D752A5E72000FFF7EAF8F4
:100FCC00FFF7C0FA24E7EB6820009A46FFF7E2F837
:100FDC00070005F0C7FA002800D119E70323504693
:100FEC003B710EF0EDF908490DF05AF9B8600FE7B6
:100FFC004CBD010854BD0108B8BC0108CCBC0108AB
:10100C0014050020B003002000007A44B802002030
:10101C0064BD0108D6B80108F0B5D6464F46464621
:10102C000400354BC0B518000D00994613F064FE52
:10103C002100324813F060FE8822314B314F1900E9
:10104C00FF323800984613F057FE484613F054FE12
:10105C0029002D4813F050FEC422AE1C66435200EA
:10106C0041463800760013F047FE300014F000FAC9
:10107C00264B9A46986200282ED0484613F03CFE28
:10108C00234813F039FE96224146FF32380013F004
:10109C0033FE484613F030FE31001E4813F02CFE90
:1010AC00CB2241465200380013F026FE5346A200D4
:1010BC009B6A002C0AD0013CA0B280001C1D6D0064
:1010CC009A18001904C352199842FBD100201CBC79
:1010DC0090469946A246F0BD0F4813F00DFE0F48FE
:1010EC0013F00AFEC92241465200380013F004FEE8
:1010FC0001204042EBE7C0464CBD01088CBD010805
:10110C00B8BC0108CCBC0108A0BD01088C000020B3
:10111C00D8BD0108F8BD0108B0BD0108B8BD010873
:10112C00F8B5DE46454657464E46D14CE0B5200054
:10113C0013F0E2FDCF4AD049D04813F0DDFDA822D0
:10114C00CF4DD04E52002900300013F0D5FD2000B9
:10115C0013F0D2FD002304220121CB4813F0CCFD67
:10116C0052222900FF32300013F0C6FD200013F08C
:10117C00C3FD002301220121C44813F0BDFDA922A7
:10118C0029005200300013F0B7FD74239846C04F6D
:10119C003822B844BF49404614F07EF92C23BE4C8B
:1011AC00E35C002B00D01DE1BC4B382218004146FB
:1011BC00994614F071F93B7A002B00D11EE12E23D5
:1011CC00E35C9A46002B00D11DE12C230122E25452
:1011DC004A460433D35C012B14D9536BB049B14A42
:1011EC00022098472C23E35C002B0BD1AE4813F064
:1011FC0083FDAE4813F080FD5A222900FF323000E7
:10120C0013F07AFD01237B72FFF78CFA2063002820
:10121C0000D178E1FFF786FA6063002800D165E120
:10122C006D22A349902009F0A1FC051E00D1D4E049
:10123C00A04B06000360A04B002783609F4B1C361D
:10124C00436158230771038306610221FFF7B4F948
:10125C0028003900FFF79FF9300005F083F9B842F8
:10126C0001D0974B2B64300005F07CF9002801D09D
:10127C00944B6B64300005F075F9002802D04E23B6
:10128C000622EA54300005F06DF9002802D05823EC
:10129C000A22EA52300005F065F9002801D001233A
:1012AC00AB623000FFF74EF9300005F05BF9002817
:1012BC0001D002236B65300005F054F9002802D0F0
:1012CC0048230022EA54300005F04CF9002802D0E3
:1012DC0062230022EA54300005F044F9002802D0C1
:1012EC0063230022EA54300005F03CF9002802D0B8
:1012FC0064230022EA54300005F034F9002807D0AA
:10130C0000236B22AB540132AB546E332C3AEA52AD
:10131C00300005F027F9002802D07223FF22EA5290
:10132C00300005F01FF9002802D074230022EA5483
:10133C00300005F017F9002803D000237622AB54B7
:10134C00AB6730000121FFF75FF8300005F00AF9B8
:10135C00002802D05A230B22EA52300005F002F981
:10136C00002802D065230122EA54300005F0FAF877
:10137C00002801D0544BEB62300005F0F3F8002844
:10138C0004D0524B01222B633423EA54300005F075
:10139C00E9F8002802D038230122EA54300005F085
:1013AC00E1F8002802D06A230122EA54300005F04B
:1013BC00D9F8002803D0962270235201EA5230004B
:1013CC0005F0D0F8002801D0414BEB61A5633CBC83
:1013DC0090469946A246AB46F8BDA0633D4813F033
:1013EC008BFCF4E730222D4B9A5C012A00D809E7DC
:1013FC005B6B394A2A4902209847F3E62D220133C8
:10140C003B72A354DBE654223449FF32482004F0EB
:10141C00E9FD334B9B46186000281AD121E0524657
:10142C00482353435A46126800219046984444225C
:10143C00404611F00DFC0023424641215354013922
:10144C005354414642228B54264B4B6401239C46F9
:10145C00E2444B461B689A45E1D32E230122E25409
:10146C00B3E64B46204A5B6B0D499847BAE6C0463B
:10147C0094BC010844BE010850BE01085CBE0108C2
:10148C00B8BC0108CCBC01086CBE01088CBE0108BC
:10149C008C000020F85401080C010020B802002038
:1014AC00FCBE0108DCBE0108B0BD010840BF01084C
:1014BC0074BF0108D79DC0ACC30400087B1E000894
:1014CC00CDCC4C3ECDCCCC3ECDCCCC3D9A99993E9E
:1014DC001D56000898BF010818BF0108ACBE0108D2
:1014EC00B8040020000080FF00BF01080C4813F076
:1014FC0003FC0C4813F000FCB4222900520030000D
:10150C0013F0FAFB8CE6064813F0F6FB064813F0D2
:10151C00F3FB62222900FF32300013F0EDFB79E679
:10152C00B0BD010854BF010858BF0108F0B5C6464C
:10153C00294C2A4B00B523600C2326006361C02381
:10154C0000259B0060607C362000A361A560E560EF
:10155C002561E56125626562A5620AF0B5F933780B
:10156C00012B17D024230121271DFB672368317021
:10157C001A68200090461A688A431A609A68D2004A
:10158C00D2089A6009F040FC424623681A60202376
:10159C003570FB6725007C352B78012B16D0242366
:1015AC000121261DF367236829701F681A68200023
:1015BC008A431A609A680A490A409A6009F024FC26
:1015CC0023681F602023F36700232B70200009F091
:1015DC004FFC04BC9046F0BDA4050020003801402F
:1015EC00FFFFFFF180232422012170B5234C05005D
:1015FC00E25023681A688A431A6000221A605A6003
:10160C009A601F4A93421CD01E4A934210D000236A
:10161C008822A350083AA3500432A3502800083A59
:10162C00A354FFF783FF0121200009F099F970BD45
:10163C00154A1649D36B0C200B40D36309F02CF8D8
:10164C00E5E7F020104A1249136C40010B4013647B
:10165C0009F022F8606F002801D009F07DFDA06F21
:10166C00002801D009F078FD80218023094A090562
:10167C00D150BFF34F8FBFF36F8FC8E7A405002085
:10168C00003801400044004000100240FFFFFDFF05
:10169C00FFBFFFFF00E100E0F7B5B54EB54A336878
:1016AC0006201A4080239B001343B34F33603B68E2
:1016BC00B24958430DF038FA80230130DB007269CF
:1016CC001A4200D086E03823AD4CAE4DA2681340D0
:1016DC00E268102B00D082E003210A40022A00D0DD
:1016EC0080E02268A849626811408022D2010A4336
:1016FC006260002B09D12368A44A1340236023683D
:10170C00A34A9B045B0FDA403A60A24B186809F0BD
:10171C00F5FC00287CD007229F4B19681140012949
:10172C000CD8022118689043014319609B49286822
:10173C008C4619681140022900D0B4E0E022A1685F
:10174C00D2010A43A260A26895490A40A2602268AD
:10175C00920100D5ADE08022E36B520500211342CB
:10176C0007D1E36B01311343E363E36B1340019344
:10177C00019B802332685B001A4332602868326810
:10178C001A4200D1D5E0C022E36D9200134010D074
:10179C008022920093420CD0E36D824AE06D13409C
:1017AC00802252020243E265E26D7F480240E2650C
:1017BC00E365DB0706D502222868784EE36D1342F9
:1017CC0000D1CEE0E36D774A1A4080239B0013438F
:1017DC00E365B3E0002800D175E701386FE7002B13
:1017EC0000D17EE72368694A134023608023226876
:1017FC005B001343802223602968D20023681342C4
:10180C0037D06368604A1A408023DB01134363605E
:10181C003822A3681340182B30D1236E3822A368CA
:10182C001340102B3DD02368604A13408022236064
:10183C0029689204236813422ED1E3685C4A1A404B
:10184C005C4B1343E360802322685B0413432360E7
:10185C008023E2685B0513438022E36029689204CD
:10186C002368134200D056E72B685B1A022BF7D97A
:10187C0051E72B685B1A022BC0D94CE70123226E6F
:10188C001343022223662968236E1342C6D12B68A8
:10189C005B1A022BF8D93EE72B685B1A022BC9D9CD
:1018AC0039E7E36837E72968091A614500D840E74A
:1018BC0051E70721A2688A43110002220A43A26061
:1018CC00364A382194462868A2680A40102A1AD150
:1018DC001968093A114002291AD8A368364A1340EC
:1018EC00A36009F0B9FEA368344A1B051B0F9B00CB
:1018FC00D3181F229B6B1340D840264B38601868B6
:10190C0009F0FCFB27E72A68121A6245DCD922E7AA
:10191C0002211868904301431960204928688C46BD
:10192C00196811400229D8D02968091A6145F7D9DC
:10193C0011E72A68121A022A00D820E7012903D1DC
:10194C00E36B1F4A1340E3630322636D93436365A8
:10195C00636D093293436365636D1A4A1340636583
:10196C00F7BD2B681B1AB34200D827E7E6E7C04641
:10197C0000700040FFF9FFFF0000002040420F0004
:10198C0000100240B4020020FF80FFFFFFC7FFFFE2
:10199C000024F40004000020002002408813000002
:1019AC00FFF0FFFFFFFCFFFFFFFFFEFFFFFFFFFE4F
:1019BC008C80C11102080222FF8FFFFFF85401082E
:1019CC00FFFFFFEFFFCFFFFF0CB4F0B54F464646CD
:1019DC00D646C0B5ACB034AB04CB06AD06008946D8
:1019EC0028009621059313F0A9F9952806DDAA2362
:1019FC00204A6B441A802E222BAB1A801E4B1F4997
:101A0C001C6820000DF090F81D49070020000DF017
:101A1C008BF83C210DF00EF98846FA212000890044
:101A2C000DF082F83C210DF005F98A46FA212000D0
:101A3C0089000DF0FFF83F23042E01D8114B9B5D5C
:101A4C004A4601930292009153464246390003954F
:101A5C000D4813F051F90D4B1B68986810F0EAFF14
:101A6C002CB01CBC90469946A246F0BC08BC02B0F7
:101A7C001847C0462E2E0000B402002080EE36001F
:101A8C0060EA0000E5BA0108C3BA010808000020AA
:101A9C00802210B5054B92009A610320FEF772FC70
:101AAC0008F0D8FD0A20FEF76DFC10BD00040050B4
:101ABC000122074B10B580219A62A0224900D20561
:101ACC009162802292009A6208F0C4FD10BDC0465B
:101ADC00000400501022084B10B59A62F132FF320C
:101AEC009A618021A0224900D205916101229A615C
:101AFC0008F0B0FD10BDC04600040050F0B55746CC
:101B0C004546DE464E46BB4C01202300E0B5BA4F9D
:101B1C005C33B8621D7883B00197854200D1F3E045
:101B2C0018702300B54D5D332E681B786068DBB2EE
:101B3C008446012B0BD082204000844500D0DCE091
:101B4C00A068002800D0D8E0042B00D0D5E00029F4
:101B5C0000D1D2E092B2002A00D1CEE023005D3356
:101B6C001878042801D00520187000232000236663
:101B7C000830E3642365E368C287A01DC2879846DA
:101B8C00E0202164A163E287A2872368C00080451E
:101B9C0001D8012A6CD05868994F384058601868A1
:101BAC00814640204F46074202D11F6838431860D7
:101BBC00E020C000804500D8B0E06046002801D08D
:101BCC00012A07D10A88DA608A1CA263E28F013AE3
:101BDC0092B2E287A26B082700920022B846944684
:101BEC00914601329346A044E08F002848D14046EC
:101BFC00C08F002844D14B46002B01D0009BA3631F
:101C0C006346002B00D02164C02221687D4852011C
:101C1C008B68134207D02B689B1B8342F8D908F0C2
:101C2C0044FC00281DD18022216876488B68134221
:101C3C0007D02B689B1B8342F8D908F036FC002890
:101C4C000FD1C02122686F48C90093680B4254D051
:101C5C00137B2B689B1B8342F7D908F026FC0028CA
:101C6C004BD02023226E134323662023236644E0AB
:101C7C005868814680204F464001384358608EE7B3
:101C8C0002209F68074215D0E08F002812D0012A4D
:101C9C0010D100980088D860009802300090E08F36
:101CAC008146012040428246D1444846914600225A
:101CBC0080B2E0875F46986838420ED04046C08FAD
:101CCC0000280AD0DA6840460A804246D28FDC46A9
:101CDC00013A92B2C287012202312868801B8246E7
:101CEC004848824500D87FE74B46002B01D0009B2B
:101CFC00A3636346002B00D02164230001225D33D3
:101D0C001A7000235C3423700123019A936103B091
:101D1C003CBC90469946A246AB46F0BD60460028B6
:101D2C0001D0012A0AD1E28F012A58D90A8802313E
:101D3C00DA60E38FA163023B9BB2E38702229446F5
:101D4C0080220121520190462E4A23008B46914657
:101D5C000833E28F002A03D1DA8F002A00D153E72F
:101D6C00604622689768074213D0E08F002810D095
:101D7C0001290ED1E18F8A465046A16B012843D927
:101D8C0008880231D060A163E18F023989B2E18702
:101D9C0000215F46906838421BD0D88F002818D09D
:101DAC00D98F8A465046216C012838D9D0680880D2
:101DBC0002312164D98F023989B2D987D98F8A46E9
:101DCC0050465946012804D8404651680143516099
:101DDC0059462A68921B4A4500D98EE7B9E70A781A
:101DEC001A73A36B0133A363E38F013B9BB2E387AD
:101DFC00A4E7C046F002002000040050B40200200A
:101E0C00FFEFFFFF8713000009781173A16B0131FD
:101E1C00A163E18F013989B2E1870021B9E7127B17
:101E2C000A70226C594601322264DA8F013A92B25E
:101E3C00DA87CEE710B5040004F094FB002801D03B
:101E4C004E34207810BD10B5040004F08BFB002834
:101E5C0001D04934207810BD10B5040004F082FB89
:101E6C000023984201D068342388180010BDF0B5C7
:101E7C00DE464E4645465746E0B5A9B00190902245
:101E8C0004A80D0013F008FB0BA8FFF7E5FF0600F4
:101E9C000BA8279C04F066FB002806D030000DF040
:101EAC0045FA211C0CF00EFB139004A8FEF750F918
:101EBC00002801D1002009E0199B042B0DD1464BC1
:101ECC0000205B6B454A46499847002029B03CBC32
:101EDC0090469946A246AB46F0BD0BA804F042FBD7
:101EEC000028E7D00BA804F0BDFA0028E2D00BA81C
:101EFC00FFF7B2FF431E9BB2012B08D9042806D072
:101F0C00354B384A5B6B364900209847D2E70BA813
:101F1C0004F028FB041E04D004AA6B2394466344EB
:101F2C001C780BA804F01EFB002810D0002C0ED03F
:101F3C0011AB1B78002B0AD0274B1A0030321278C9
:101F4C00002A04D05B6B284A2549012098472B793D
:101F5C00019A102013728022244B520019009946CA
:101F6C0008F004FE02220500EC20FF3249468000F6
:101F7C0008F0FCFD0400002D01D000280FD1280032
:101F8C0003F0ECFF200003F0E9FF0025019B019A10
:101F9C001D61681E8541164BE8B2D36096E7182385
:101FAC009C46844463460293E323286001989B007B
:101FBC001830E7183B00624660670BA904F0E0FBA1
:101FCC0023007A897033061E1A8013D1280003F07F
:101FDC00E1FF3500DAE7C046B8020020EBBA010891
:101FEC00E5B8010826BB010846BB01088BBB0108FC
:101FFC008D0100080BA804F0B5FA8246002802D027
:10200C0011AB1B789A46E3239B00E25ABB899200E2
:10201C005B00934200D213007E89FA89B6187600D1
:10202C009E4200D21E000BA804F09CFA002398429A
:10203C0001D020AB1B889846B34200D2B046EB23AC
:10204C0042469B00E25053464046002B05D0E3230A
:10205C009B00E05A80000A30404486224946FF32F9
:10206C0003F0C0FFEA239B00061EE050AED07B8835
:10207C009B00994653468144CB46002B03D04346E4
:10208C0004339B468344A31D2366E31D63660C2324
:10209C009C46A44463462700A3660393043BE36673
:1020AC0014378033221DE664E765A4650BA81E6017
:1020BC005A605F611E645E645F65FFF7C4FE0028B2
:1020CC0004D02300FC33DE601E611F622300FC334E
:1020DC00DE641E651F66C2235B00E6500433E650C7
:1020EC00039A1033E7500C33E2504A462433E6503F
:1020FC000433E6501033E7503433E6500433E250E7
:10210C001033E7502833E2500433E2501033E750D9
:10211C005346002B0DD0A8239B00E2504346AB2224
:10212C00F3189200A350A9235A469B00E250103397
:10213C00E750B8235A469B00E2500433E650103364
:10214C00E7502833E6500433E6501033E750283379
:10215C00E6502833E4502833E618E94B9B463033DD
:10216C001B78012B00D970E23300029A0BA9606F27
:10217C0004F012FA061E00D128E7230000272600DF
:10218C00E04AB0335A601F60DF4BE04AE367231D1F
:10219C00DA67DF4A0433DA67DE4BB8367360DE4B3E
:1021AC000BA8B360DD4BF360DD4BB3630023B38747
:1021BC00FFF749FE029700281BD00BA804F0D2F9B8
:1021CC00002807D004AA9446662363441B781E2279
:1021DC00002B01D1962252002300F833A18D5A878F
:1021EC00D04A1987DA63D04A5A60D04A9A60D04AEA
:1021FC00DA602300CF4A3933FF339A63CE4ACF4992
:10220C005A60CF4A0BA89A60CE4ADA60626A1964A7
:10221C009A67CD49029A5964DA67CC49CC4A9964D9
:10222C005A67E3239B009846A04443461B899A4671
:10223C004346DB88039304F095F9002800D108E2AB
:10224C000F9B99462700C34BB937FF377B60C24BB6
:10225C008B21BB60C14BC905FB60039B48463B64AB
:10226C005346FB630CF02EF90021824648460CF0D5
:10227C003FFE002800D1EFE1FC21890550460BF010
:10228C0075FE0DF033F82300BF33FF33D887B44B02
:10229C004246BB63802392889B00E31892009A63AA
:1022AC00B04A0BA85A60B04A9A60B04ADA6004F09F
:1022BC0059F98146002802D012AB1B7899460BA81D
:1022CC0004F050F9139F002800D100278F239B00A6
:1022DC009846A0444246A64B5360A64B9360A64B2F
:1022EC00D3604B46002B00D1B9E1A449381C0CF04B
:1022FC00E1FD8246002800D0B4E1A149381C0CF065
:10230C00EDFD002800D0AFE14346DF634B46002BC8
:10231C0000D18CE242469B4B7F007F0893639A4925
:10232C00381C0CF0DBFD002800D0974F9121381C95
:10233C00C9050CF0C7F810F07DFEDA2189050CF008
:10234C00C1F892490CF0BEF8011C071C90480CF027
:10235C00EBF990490CF0E8F98046011C381C0CF0A4
:10236C00A9FD002800D183E10021381C0AF06FFA86
:10237C0001218146381C0AF06AFA011C48460BF010
:10238C008FFF85490CF09EF88449071C0BF0EEFD7D
:10239C00391C0CF097F881498046381C0CF092F8E7
:1023AC00FE2189050BF0E2FD011C40460BF078FF85
:1023BC00011C071C0CF086F8FE2189050BF0D6FDDC
:1023CC0010F022FA011CFE2080050BF069FF812120
:1023DC008046C905381C0CF06DFD002800D15EE16B
:1023EC00FE21381C89050CF079FD002800D149E14B
:1023FC008A214046C9050CF065F8FC2189050BF0D3
:10240C00B5FD0CF073FF43009846434642468020CE
:10241C009B005343C004C01A0CF0D2FF10F0F4F927
:10242C00FC2189050BF0A2FD0CF060FF07009F2337
:10243C009B00994680235B019A464346002B00D0B3
:10244C0051E19E22FC2192008905A15053464A4637
:10245C00A350A02342469B00E2500433E2525B4659
:10246C004F4A504900205B6B98470BA804F07AF850
:10247C00002810D011AB1B78002B0CD0A4234A4998
:10248C009B00E318109A59604849DA639960484AEE
:10249C0048499A63D960B4239B009946A1444A46A3
:1024AC00454B0BA85360454B9360454BD360454B54
:1024BC009363C3239B009846A0444246424B9363CC
:1024CC001D4B53601E4B93601E4BD360D2239B005D
:1024DC00E7183E4B3B643E4B7B603E4BBB603E4B38
:1024EC00FB6023007833A3634033A367FFF7ABFC97
:1024FC0023003933FF33002800D09CE16EE0C04646
:10250C00B802002021C8000809A10008B3A00008E7
:10251C0093A40008414D0008EB4C0008DF4D000867
:10252C00315000084F49000835490008E1480008BF
:10253C00B74D0008BD4B0008014E0008714A000859
:10254C00694B0008D74D0008B9490008BF4D000879
:10255C00914E0008F1A1000881A100089BA400087D
:10256C00A3A40008594B0008034B0008CF4D0008EA
:10257C00F14A0008814A0008C74D00080938843B1D
:10258C0008CAFD3EDF4F0008DEFFFF3EDB0F49406F
:10259C00DB0FC93F2EBD3B33778D9F3FF304B53F17
:1025AC00B6BB0108DFBB010861A40008B99F000895
:1025BC002DA000081DA00008E74D0008594D00088B
:1025CC00AD4D00085D4E0008CF4C00089306000886
:1025DC00A39F0008399F0008A19F000833602300C7
:1025EC009C2275335200FF33A3503C324433A3502A
:1025FC0080239B004432E318A3508F239B00E318E5
:10260C004832A3500BA803F0ADFF4B46002807D06F
:10261C0011AA1278002A03D0A4229200A350A31866
:10262C008F229200A350B42342469B00E2503C33CD
:10263C00E750A06B83689847061E00D000E15B460C
:10264C00874A5B6B87499847C0E40BA805F06AFB87
:10265C008AE500239946F5E5BF2109060EE6FC271D
:10266C00BF0551E6804F4FE6FC27D146BF054BE630
:10267C00012140460AF0EBF80021814640460AF061
:10268C00E6F87AE68B214046C9050BF01BFFFC21CE
:10269C0089050BF06BFC0CF029FE8046B5E68C210D
:1026AC00381CC9050BF00EFF41460BF00BFFFC214B
:1026BC0089050BF05BFC0CF019FE0300070043438B
:1026CC008020C004C01A0CF07BFE10F09DF8FC2199
:1026DC0089050BF0F7FEFC2189050BF047FC0CF08B
:1026EC0005FE8046A3E64246534692B2991A4B46E3
:1026FC0089B208B2E0524B0099469F239B00E11827
:10270C004B4688805200B8B2821ACA80C0224B80D5
:10271C0043465201D21A5200101A0881002F04D1DC
:10272C009E23029A9B00E25099E65246D31A4246E7
:10273C00900050433A007A438018FC2212069446CB
:10274C005B00DB1B5B4360444200981A90460CF024
:10275C00EDFD824640460CF0E9FD51460BF0A0FD24
:10276C00424980460BF002FC8146504610F04CF872
:10277C00824680208001C01B40000CF0D7FD011C5C
:10278C0050460BF08DFD3A49071C48460BF09AFE5B
:10279C0049460BF097FE37490BF0E8FB10F034F884
:1027AC0041460BF0C1FF10F02FF8011C381C0BF048
:1027BC0089FE314980460CF07DFB002835D1FE2185
:1027CC00404689050CF08AFB2C4F002822D0FE20B5
:1027DC00414680050BF064FD8046380042460921D5
:1027EC0078300AF01BF8011C40460BF06BFE011C04
:1027FC0023480BF099FF23490BF096FF22490BF06D
:10280C004FFD9E239B00E0508F239B00E318DB6B56
:10281C0063632AE6380042460921783009F0FEFF4E
:10282C00011C40460BF04EFEE8E71848E6E742462E
:10283C00174B9363E8E72200F83213601300CDE6E0
:10284C00A06BC3689847E123019A9B00E250114B9F
:10285C006B60114BAB60114BEB60FFF797FBC04605
:10286C0093BA0108F7BB01080938843B1AF6153FE7
:10287C00F304B53F1AF6953F000080BFF8540108E9
:10288C00DB0FC93F2EBD3B33DB0F49400000C07F3F
:10289C00014B00088558000871580008A15F00081A
:1028AC0010B5040003F05EFE0023984201D06034A2
:1028BC002388180010BDF8B5134D2C6B2000FDF7C4
:1028CC0029FC002801D1A887FFDE2069FFF7E8FF6B
:1028DC002B0006004033A887188931000CF024F92E
:1028EC0054270A4B84B21A7CEC53002A06D0988BDE
:1028FC0031000CF019F92418A4B2EC53300021006B
:10290C00FEF78AFBF8BDC0460C0100208C000020AD
:10291C0010B5040003F026FE0023984201D00434C5
:10292C00E38F180010BD10B5040003F01BFE00234C
:10293C00984201D00234E38F180010BD10B504008A
:10294C0003F010FE00280BD02079032808D80CF0D7
:10295C00D7F802020505FF20C00510BDA068FCE7F2
:10296C000048FAE70000C07F10B5040003F0FAFD40
:10297C000023984200D02379180010BD10B5040034
:10298C0003F0F0FD0023984201D0A38FDBB21800B6
:10299C0010BD10B5040003F0E5FD002801D048344B
:1029AC00207810BD10B5040003F0DCFD002801D028
:1029BC004734207810BD10B5040003F0D3FD00237C
:1029CC00984200D0A36B180010BD10B5040003F0A2
:1029DC00C9FD0023984200D0E368180010BD10B563
:1029EC00002804D00268064B01209A4206D0054B01
:1029FC0000205B6B044A05499847002010BDC04677
:102A0C00E89EC0ACB802002009BC010804CD010846
:102A1C00F8B50400FFF7E3FF00282DD01A4D2B006A
:102A2C002D331E78002E27D0637A002B22D16368B9
:102A3C002A2B21D82A005B0056329F5C002F1BD119
:102A4C0001219954E37E002B03D0206B03F034FB5F
:102A5C00E77663682A2B05D82A005900563252189B
:102A6C0000215170012262722A2B03D8934000225C
:102A7C0056355A553000F8BD044B054A5B6B054979
:102A8C00002098470026F5E70C010020B802002032
:102A9C0018BC010804CD0108124B10B51B7A0400B8
:102AAC00002B12D00068FFF79AFF00280CD020688A
:102ABC00FFF7AEFF2068C368002B00D09847206852
:102ACC00FDF7F7FD0023236010BD074B1A003032D1
:102ADC001278002AF8D05B6B044A0549012098470C
:102AEC00F2E7C0468C000020B8020020D6B90108DD
:102AFC0017B90108F0B5D64646464F46C0B5554FF6
:102B0C0082B0380012F0F8F8534812F0F5F8534E32
:102B1C00534D544A3100280012F0EEF8524B534CEE
:102B2C009846012342465B421360A369002B2FD0C9
:102B3C00A368022B08D0042B00D178E002B01CBC97
:102B4C0090469946A246F0BD494B9A46D86A0190E8
:102B5C00FFF75EFF002828D1464812F0CDF8464812
:102B6C0012F0CAF8454A3100280012F0C5F8444B5F
:102B7C0099464B461B7C002B36D1012342465B42C7
:102B8C001360A3695A1CD9D003229343A361D5E7E0
:102B9C00380012F0B1F83B4812F0AEF8A92231001F
:102BAC009200280012F0A8F8C8E701A8FFF774FFFC
:102BBC00334B9946986A12F065FC00234A4654211F
:102BCC009362314A38005352938712F095F82F488C
:102BDC0012F092F8AC2231009200280012F08CF81E
:102BEC004B461B7C002BC8D05346586BFFF710FF8D
:102BFC00002821D050463430FFF74EFF4B46986AE0
:102C0C0012F040FC00234A46542193621E4A3800BD
:102C1C00535293874A46137412F06EF81C4812F004
:102C2C006BF81C4A3100280012F066F8A5E7104B2F
:102C3C00186B9A4601908BE70E4812F05DF8164817
:102C4C0012F05AF8AF2231009200280012F054F81A
:102C5C0093E7C0464CBD0108B8BF0108B8BC0108D9
:102C6C00CCBC0108A1020000B0030020B40300207A
:102C7C008C010020B0BD010804C00108B2020000A4
:102C8C008C000020CCBF01080C010020E4BF01081F
:102C9C00E0BF0108BA02000000C00108F0B5DE4632
:102CAC0057464E464546E0B5664B85B018009A46E9
:102CBC0012F022F8644812F01FF8644E644D654A15
:102CCC003100280012F018F80123634C5B429B463C
:102CDC002360624B9B68022B00D1DDE0042B0BD0F0
:102CEC008020C00207F034FF002005B03CBC9046A9
:102CFC009946A246AB46F0BD594C3C21276838009A
:102D0C000BF098FF64687F1A20003C210BF092FFB7
:102D1C00544B641A9B469C4200D8D2E2524B9C42C4
:102D2C0000D9BCE2514B5046994601234A461374D4
:102D3C0011F0E2FF4E4811F0DFFF922231009200B9
:102D4C00280011F0D9FFBBB24A4F19005A46386B14
:102D5C009846FEF737F8504611F0CEFF464811F072
:102D6C00CBFF464A3100280011F0C6FF444B9C4271
:102D7C0000D21C00434B50469C466444A4B211F054
:102D8C00BBFF22004049414811F0B6FF404A3100D8
:102D9C00280011F0B1FFF021C900414489B2220092
:102DAC00786BFEF70FF8386BFDF7B2FD394B984690
:102DBC001863002800D1A4E239004031FDF71EFA57
:102DCC004B461B7C002B00D1B4E2002301933B6DDE
:102DDC000093386C796CBA6CFB6CFDF783FA3B6D25
:102DEC000093FB6C386C796CBA6CFDF739FF4B4671
:102DFC001B7C002B00D14DE2786BFDF789FD43461F
:102E0C005863002800D1C6E249461431FDF7F6F9A3
:102E1C00FFF751FD431C00D1F6E24B4614330193EE
:102E2C003B6D403700930FCFFDF75CFA4B465B6A66
:102E3C0000934B4658699969DA691B6AFDF710FFD4
:102E4C0028E2C0464CBD010828C00108B8BC0108E6
:102E5C00CCBC010811020000B0030020B403002018
:102E6C001405002062070000E20E00008C00002018
:102E7C00E0C001080C010020F8C001084A02000063
:102E8C008107000080F8FFFF14C101081CC1010874
:102E9C004D0200008C010020E74F5046BB6B98465A
:102EAC0011F02AFFE54811F027FFF52231005200FE
:102EBC00280011F021FF5B462360E14B4046994608
:102ECC001B6AD9B2FDF778FB5B4623604B469B68C7
:102EDC00012B00D147E2022B00D168E201235B42B7
:102EEC0023604B469B6940460393FDF753F9834699
:102EFC0003F038FB002805D0039B59465A1E93411A
:102F0C0047228B5401235B4223604B465B6A40464D
:102F1C009B46FDF791F9002805D05B4699B24346D4
:102F2C001869FDF771FA01235B4223604B465B691C
:102F3C0040460393FDF72EF9834603F013FB00285C
:102F4C0002D05A46039B936301235B4223604B469A
:102F5C00DB6C40460393FDF71DF9834603F002FB3F
:102F6C00002805D0039B59465A1E93414E228B5480
:102F7C0001235B4223604B461B6840460393FDF7DD
:102F8C0009F9834603F0EEFA002807D003980CF0F9
:102F9C0017FAAC490BF084F95B46586201235B428B
:102FAC0023604B465B6840460393FDF7F3F883467A
:102FBC0003F0D8FA002807D003980CF001FAA149C5
:102FCC000BF06EF95B46986201235B429B462360D3
:102FDC004B4618690CF0F4F99A490BF061F9011C95
:102FEC004046FDF703FB5B4623604B461B6C40469B
:102FFC000393FDF7CFF8834603F0B4FA002803D00F
:10300C006B465A461B7B938701235B4223604B46DE
:10301C005B6C40460393FDF70FF900280DD040463A
:10302C00FDF7B8F8834603F09DFA002805D0039B02
:10303C0059465A1E934149228B5401235B429B46AD
:10304C0023604B46996C40464B1E9941C9B2FDF723
:10305C00A2FA5B4623604B461B6D40460393FDF77B
:10306C0099F88346002800D142E103F07BFA00284E
:10307C0003D032235946039ACA5401234A465B4271
:10308C0023608133D35840469946FDF7D5F8002884
:10309C0017D048460CF094F96A490BF001F9FE215F
:1030AC00890581460BF01AFF002800D193E13022EC
:1030BC00654B9A5C002A04D05B6B644A644901201E
:1030CC009847B86BFDF724FC624B9846D8620028F1
:1030DC0000D122E1037A002B00D03FE14246036984
:1030EC001B6899699163D969D163DA8D4146914620
:1030FC00402248468852422140461A8E013A42529A
:10310C00586A55490BF0DEF9FC2189050BF0DAF908
:10311C004346586454234A464946FA520120533BCD
:10312C00BB87FDF779FF431C00D146E14346DB6BBF
:10313C0042469B464023D35A424999464223D75A8A
:10314C00536C906B9A460BF0BDF901235B422360E4
:10315C00424C80462368013302D00BF0F3FE206012
:10316C00384958460BF0AEF90BF0ECFE6368834619
:10317C00013300D06060A368013301D04B46A360DB
:10318C00E368013300D0E760354950460BF09AF9FB
:10319C000BF0D8FE23698246013300D02061314CFC
:1031AC00200011F0A9FD304811F0A6FDC32231001A
:1031BC009200280011F0A0FD200011F09DFD40466A
:1031CC000CF094F80100294811F096FD284A3100C2
:1031DC00280011F091FD200011F08EFD5946254874
:1031EC0011F08AFD244A3100280011F085FD2000E1
:1031FC0011F082FD4946214811F07EFD204A310034
:10320C00280011F079FD200011F076FD39001D48E1
:10321C0011F072FDC42231009200280011F06CFDF7
:10322C00200011F069FD5146174811F065FD174A51
:10323C00310028002CE0C0460C01002054BD0108D0
:10324C001405002000007A44B80200203CC001089C
:10325C00E5B801088C010020C2F38E4D000500205A
:10326C000024744994BC0108C4C00108D8BC0108EE
:10327C000D030000E8BC01080E03000010BD01089E
:10328C000F03000024BD010838BD01081103000024
:10329C0011F032FD012007F05BFC012025E56148AF
:1032AC0011F02AFD604811F027FD942231009200A4
:1032BC00280011F021FD8020000307F049FC0020BC
:1032CC0013E55A4B5046994600234A46137411F0A5
:1032DC0013FD574811F010FD3100564A280011F02B
:1032EC000BFDB9B2544FA2B2386BFDF76BFD5AE52A
:1032FC003023524AD35C002B00D1BEE6FCF7FCFE17
:10330C00BBE6484811F0F8FC4D4811F0F5FC4D4A6D
:10331C003100280011F0F0FCCDE7424811F0ECFC34
:10332C00494811F0E9FC8B2231009200280011F081
:10333C00E3FCC0E7FFF7BFFA431C00D045E550465D
:10334C0011F0DAFC414811F0D7FC972231009200C1
:10335C00280011F0D1FCFFF7CDFB36E540234246A7
:10336C00D35A9946D6E64B46DB6840460393FCF7A6
:10337C0011FF834603F0F6F8002800D1AEE50323D5
:10338C005A46039813710CF01BF831490AF088FF68
:10339C005B469860A2E5234811F0AEFC2D4811F075
:1033AC00ABFC2D4A3100280011F0A6FC83E7404607
:1033BC00FCF7F0FEFDF7C6F890E5504611F09CFCCA
:1033CC00224811F099FC254A3100280011F094FC98
:1033DC00FFF790FBAAE64046FCF7DCFE804603F0C4
:1033EC00C1F8002800D16CE6FE20494680050BF0A0
:1033FC009BF943460021586148460BF055FD43426A
:10340C005841434618765CE6504611F075FC0F485F
:10341C0011F072FC124A3100280011F06DFCFFF71C
:10342C0069FBFAE4B0BD010824C101088C0000203E
:10343C00E0C00108430200000C010020B80200208B
:10344C0050C101085602000080C00108A4C0010848
:10345C0000007A4470C101086A02000032020000C8
:10346C006F020000F8B5CE46474680B50400FFF762
:10347C00B6FA00280BD13C4B3C4A5B6B3C49002014
:10348C009847002630000CBC90469946F8BD394D43
:10349C002B002D331E78002EEDD0637A002BF1D04B
:1034AC0063682A2BE7D82A00590056328F5C002F0C
:1034BC00E1D10120885452185278002A44D1183294
:1034CC0090462D4AA0441268002A02D09268002A25
:1034DC0045D1227E022A1FD0404602F0F5FD00287D
:1034EC0032D0A37E9946002B20D0237E012B10D105
:1034FC00A36C00229B69E169206B9847002823D0BC
:10350C00A36C206B9B6A984700281DD0404602F0A4
:10351C0009FD63682A2B05D82A005B005632D318A4
:10352C0001225A700023370063720DE0A36C206BEC
:10353C009B6A9847002807D0A36C4A469B69E169AF
:10354C00206B98470028D0D163682A2B03D800221F
:10355C0056355B005A55002F00D18CE792E7404658
:10356C0090470028F0D0D4E7B802002034BC010802
:10357C0004CD01080C010020BC04002030B583B040
:10358C000190FFF76FFF041E1DD1184811F0B4FB1A
:10359C00174811F0B1FBA42216499200164811F0FD
:1035AC00ABFB01A8FFF778FA144DA86A11F06AFF7B
:1035BC005422134BAC629C879C522B7C002B0FD15A
:1035CC00200003B030BD0F4811F096FB0E4811F0EF
:1035DC0093FB0E4A0749084811F08EFB0124EFE7D4
:1035EC000B483430FFF758FAEAE7C046B0BD010883
:1035FC0094C10108B8BC0108CCBC01088C000020A7
:10360C000C0100204CBD0108B4C101089A02000055
:10361C008C01002010B5194811F06EFB184811F000
:10362C006BFB184A1849194811F066FB0122184B1C
:10363C0052421A60174B9B68022B18D0042B06D0F1
:10364C008020C00207F084FA0024200010BD124B29
:10365C00186BFFF793FF0400002C04D1802040036B
:10366C0007F076FAF1E7022007F072FAEDE70A4B61
:10367C00D86AFFF783FF0400EEE7C0464CBD010893
:10368C00D0C101087D020000B8BC0108CCBC010807
:10369C00B0030020B40300208C010020482270B538
:1036AC00174C0500A35C002B07D116490978CC29CF
:1036BC000AD0012107F054F970BD012B0CD0032B5B
:1036CC00FAD10133A354F7E7CB39A15401320131BC
:1036DC00A35407F045F9EFE749260A4B1978A15591
:1036EC003E2906D80323A3540231280007F038F9E9
:1036FC00E2E700230121A35407F032F9A15DF3E7BF
:10370C008C0100207003002070B584B0002A2FD0EB
:10371C0001222D4B52421A60122813D9E92814D1D8
:10372C002A4B02003032D2B2092A04D803002848AE
:10373C00D03B9B001B181A6801323AD0012019604B
:10374C0004B070BD234A83009B180200203AD4B207
:10375C00222C02D8204B9200D31802007F32D2B216
:10376C00042ADED803001D4A813B9B009B18D8E736
:10377C00022820D001AC2200194B1C3360CB60C254
:10378C001B881380002304E09042C1D301330A2B21
:10379C00BED0E25C9042F7D1124811F0ADFA12485B
:1037AC0011F0AAFA4C221149114811F0A5FA002087
:1037BC00C6E70120C4E7044B013A1A60054B9B692C
:1037CC00002BD7D0E8E7C046B0030020A0050020AE
:1037DC00C0040020B40300201405002000050020C4
:1037EC00785501084CBD0108E4C10108B8BC0108BA
:1037FC00CCBC01084A23002270B500242C4DEA549D
:10380C002000013401220021E4B2FFF77DFFFF2CE0
:10381C00F6D10122274B52421A60274BDA6901324A
:10382C0002D0E1225202DA619A6A013201D00022FE
:10383C009A621A6C013201D0204A1A645A6C013215
:10384C0001D01F4A5A641F4B1A69013202D09622CA
:10385C0092001A615A69013202D0FA2292005A611E
:10386C009A69013201D00F229A61DA69013201D0D2
:10387C000222DA611A6A013202D0FA2252001A626A
:10388C005A6A013201D000225A62482300220121D7
:10389C000D48EA5407F064F80C4811F02DFA0C4866
:1038AC0011F02AFA89220B490B4811F025FA70BD48
:1038BC008C010020B0030020B4030020000101BDE6
:1038CC00000401BFC0040020A40500204CBD010869
:1038DC00F4C10108B8BC0108CCBC01088022024B21
:1038EC0012059A607047C04600ED00E0F0B5C64680
:1038FC00654C00B5236882B0DA69196898681507B9
:10390C000ED120252A4200D18BE0294202D1C500DC
:10391C0000D486E0E36E002B7DD0200098477AE03F
:10392C005A4E0640B046351E04D12135FF3529428A
:10393C0000D176E001252A4207D0CE0505D5270017
:10394C001D6288373E6835433D6002252A420AD005
:10395C00C60708D527001D6288373D68AC4604258C
:10396C00664635433D6004252A420AD0C60708D571
:10397C0027001D6288373D68AC46022566463543F4
:10398C003D6015070BD58D0602D44546002D06D09B
:10399C0008251D62230088331E6835431D602300F3
:1039AC0088331B68002B36D020231A4208D01942CA
:1039BC0001D1C30004D5E36E002B01D02000984741
:1039CC002100236888310A689868400602D40820D0
:1039DC00024024D01A682E490A401A609A682D4970
:1039EC000A409A60220020210832D1670022E26648
:1039FC009A6849180A420ED09A68A06F8A439A6056
:103A0C00002808D0244B836307F03EFC002802D02A
:103A1C00A06F836B984702B004BC9046F0BD0A605F
:103A2C00F9E780256D032A4203D0460201D51D62B9
:103A3C00F1E780252A4208D0294201D1000204D5A1
:103A4C00236F002B00D068E7E5E740200242E2D06C
:103A5C000142E0D01A6882431A602022231DDA67E3
:103A6C0000220E4B22674A331978022902D1013207
:103A7C001A70D0E70129CED11A706B46D81DCD2310
:103A8C00037006F07FFEC6E7A405002001000010BD
:103A9C00DFFEFFFFFEFFFFEF0D9D00088C010020F5
:103AAC00E0222448D200C36C70B59969114237D01A
:103ABC009C6901211A68E5050AD5D5090D4207D084
:103ACC00050090352E683143296080214900D96169
:103ADC00012165050BD5D5090D4208D0050090359F
:103AEC002E680731314329608021C900D961012139
:103AFC00A4050BD5D2090A4208D00100022290314C
:103B0C000C6822430A6080229200DA610300903331
:103B1C0019680B23194202D04C3007F0F3FB70BD2F
:103B2C0099691A68031DDB6F002BF8D04C3098474D
:103B3C00F5E7C0468C01002010B5024807F04EFB9B
:103B4C0010BDC0465C04002010B5024807F046FBCF
:103B5C0010BDC0460004002010B5202007F0C6FDA3
:103B6C0010BD10B5082007F0C1FD10BD144A10B5EA
:103B7C0013689969C90408D50121186D084204D04D
:103B8C00D86D0843D8650F4801769969890406D524
:103B9C000221186D084202D0D86D0143D96511007D
:103BAC0001202931087004211C6D0C4204D0DC6DFD
:103BBC002143D965044B187001232932137010BDB1
:103BCC00880200200C02002054030020024A1368D3
:103BDC00013313607047C046B40200207047704731
:103BEC007047FEE7F0B557464546DE464E46E0B513
:103BFC00C04D9FB02B7802AFF82B59D0F92B1AD0AF
:103C0C00FA2B00D002E16A78BB4C13001833DBB2FC
:103C1C00012B00D875E0B94D482300220121280062
:103C2C00E25406F09DFEBD461DB03CBC9046994644
:103C3C00A246AB46F0BDB04CB03BE35C052BEAD1E1
:103C4C00AA1C53786878AD781B022B43957878635F
:103C5C002D042B43D57800222D061D432900FFF798
:103C6C0053FD002800D0D4E0A54E7D6B2800FCF756
:103C7C0001FBCC233377C73B73770023B377F53342
:103C8C00F377D53BF5540133F054020A0133F25467
:103C9C00020C0133F254000E0133F0543000CD22EB
:103CAC0001331C300A21F25406F06CFD934DB3E73E
:103CBC00914CAF3BE35C012BADD16D782800FCF748
:103CCC00D9FACC228E4B010A1A77C73A5A770022BE
:103CDC009A77F632DA77D63A9D54013298540132FB
:103CEC009954010C01329954CD21000E0132985493
:103CFC00013299541C331800C33906F043FD7F4D33
:103D0C008AE74923E35C032B00D084E7E878AB789F
:103D1C00000203437B637B4B794E40331B895B0072
:103D2C007367794B99469B8B5B00B367E82A00D18C
:103D3C00A4E0802101230122744849008346744881
:103D4C00F962804673480D00824673481739386310
:103D5C007377CC20F7233077F3775046D73BF15469
:103D6C00B27710F0C9FF6D4810F0C6FF5946CD224E
:103D7C00404610F0C1FF504610F0BEFF2A003D6BCC
:103D8C006749280010F0B8FF5946CE22404610F083
:103D9C00B3FF504610F0B0FF726F6249280010F06C
:103DAC00ABFF5946CF22404610F0A6FF504610F00C
:103DBC00A3FFB26F5C4928003D6310F09DFF59468C
:103DCC00D022404610F098FF31004C4D1C3105229A
:103DDC000A23280007F068F84A2601235046A35509
:103DEC0010F08AFFA25D5149386B10F085FF5946DF
:103DFC00D422404610F080FF4B469B6AF96A186843
:103E0C007B6B9C46604406F0BDFC05E73A4C3B4D91
:103E1C0002E77B6B032B1FD07B6B072B17D07B6BC5
:103E2C000A2B00D020E7002D00D11DE7012D00D179
:103E3C0086E03F4B3F4DFB620123FA6A5B42136005
:103E4C00AB6A013300D10FE70023AB620CE728000B
:103E5C00FDF7C8FB2A4E08E7002D43D0012D45D0B5
:103E6C00022D07D0032D00D0B9E0FEF717FF002874
:103E7C0000D1F9E6FFF7CEFB214EF6E6254B1800F4
:103E8C009A4610F039FF54231E49CA5A2249080099
:103E9C002949386310F030FF1C49C0228B461C495D
:103EAC0088465946404610F027FF504610F024FF34
:103EBC001449386B8A8F214910F01EFFC1225946D4
:103ECC00404610F019FF54220E498B8F8A5A69789C
:103EDC005A435200531C150092B2FA621A0AD2B21B
:103EEC00DBB235E7FEF706FE054EBEE6FEF7D6FE64
:103EFC00034EBAE6700300208C010020A4050020BC
:103F0C000C0200200C0100208C000020B8BC010821
:103F1C00CCBC01084CBD01081CC1010880C40108BF
:103F2C0094C401089CC40108A4C40108B0C40108CD
:103F3C00B0030020B403002070C4010878C4010849
:103F4C00FEF7D8FD8E4B1800994610F0D5FE8D4823
:103F5C0010F0D2FE98228C4B8C4E1900520030007F
:103F6C00984610F0C9FE0222894B93469A461B686C
:103F7C0059469343524607201360864B1A698A436D
:103F8C0085491A610A68824315430D6004211A6938
:103F9C000A431A6140BF20BF20BF1A698A431A61C5
:103FAC00FDF77AFB53465A461B687C4D1343524629
:103FBC0013607B4BE8691A00FB6201235B421360C0
:103FCC00FDF710FB484610F097FE764810F094FE73
:103FDC003C224146FF32300010F08EFE2CE7042DBF
:103FEC000BD101226E4B52421A606C4B0232197E7D
:103FFC000620FFF789FB6C4E37E6052D00D0E1E07B
:10400C000126664B664D9B6876422E60022B00D1D2
:10401C006DE3654E042B00D027E6594810F06CFE7A
:10402C00624810F069FE584BB4229B46574B9200E5
:10403C0018005946984610F05FFE32003100643289
:10404C006831206B0DF0D0FA594B9D8F7B62403359
:10405C00188929000AF068FD80B2002D00D1D5E343
:10406C0043003B63534B9A6A99466B1E9BB29B0071
:10407C00151D5B19FB6200239A4600E00435B36EF4
:10408C001068534419003A6B11F006FA3B6B2A0086
:10409C009C46FB6AE2449D42F0D1474B18009A467D
:1040AC0010F02AFE454810F027FEB5225946920022
:1040BC00404610F021FE4B461B7C002B00D1D4E572
:1040CC00206BFEF7A5FC002800D192E3606BFFF794
:1040DC00C9F9002800D172E3320031006C32703122
:1040EC00606B0DF081FA7B6A9A8F40337A62188983
:1040FC00110015000AF018FD80B243003B624B46DC
:10410C002900988B0AF010FD002580B24300FB6259
:10411C005B42BB623D6313E04A463B6B926A9B0079
:10412C0098583A6A9446BA6A6044AB18326F1900D0
:10413C009446FA6A614411F0AFF93B6B01333B636F
:10414C00FB6A7A6A9C463B8E65449342E4D3606B6F
:10415C00FEF75EFC002800D168E3206BFFF782F9C4
:10416C00002800D155E3504610F0C6FD144810F05D
:10417C00C3FDBB2259469200404610F0BDFD74E5CC
:10418C0094BC010858C40108B8BC0108CCBC010897
:10419C0010E000E000ED00E000700040B4030020EF
:1041AC00B003002064C401080C02002050C20108B6
:1041BC000C0100208C0000204CBD01086CC20108D1
:1041CC0040C30108062D00D04EE5BA4B1A00FB6225
:1041DC0001235B421360B84B9B68022B00D1A3E117
:1041EC00042B00D040E54421B44A7918136D7A624F
:1041FC00BB61136C7B61D36C3B61938F0B7054234D
:10420C00D35A4522BA181370AD4B99461B69FB6003
:10421C004B461B6ABB604B469E69DB69BE627B608A
:10422C004B465D6AA74B18009A4610F065FDA648F0
:10423C003200A649386310F05FFDA54BA54A9B469A
:10424C00A54B59461800984610F056FDF30704D5B7
:10425C00A24B796C986A0DF098F9BB6A9B0700D554
:10426C00A4E2FE239B05FB61BB6A9B0605D59B4B19
:10427C002A00796C986A0DF058F9BB6A5B0710D567
:10428C000123FA6A5B4213604B4658690BF098F8AD
:10429C0093490AF005F8914B021C796C986A0DF061
:1042AC00B7F9BB6A8F4E1B0700D4DEE48B4E796CDA
:1042BC00B56A28000DF003F94C22BA1803041080DB
:1042CC00C2B2190E93005B593A604A00D35A504659
:1042DC003B620D0010F010FD3A6A8349386B10F008
:1042EC000BFD824A5946404610F006FD504610F030
:1042FC0003FD3A687E49386B10F0FEFCD422594617
:10430C009200404610F0F8FC504610F0F5FC2A00E4
:10431C007849386B10F0F0FC774A5946404610F05B
:10432C00EBFCF8680BF04CF86D4909F0B9FFB56A75
:10433C00031CFA6C796C28000DF050F8BB6A8246AD
:10434C00DB0600D548E238201C2338183A79C0180F
:10435C00F96C0CF087FF6249B8690AF0B3F80AF0FF
:10436C00F1FD80B20AF0E2FFB96D0AF0ABF85C49DE
:10437C00051C78690AF0A6F80AF0E4FD80B20AF090
:10438C00D5FF011C281C09F0F1FD7B6A061C988FD7
:10439C000AF0CCFF011C386909F082FF796D0AF034
:1043AC0091F856490AF08EF8FD6938630021281CF3
:1043BC000AF07AFD002800D0FFE1386A0AF0B6FF57
:1043CC00291C09F06DFF051C386B0AF0BBFD01239D
:1043DC00FA6A5B4213604B461B68013301D04B46B3
:1043EC001860301C0AF0AEFD4B465B68013301D0FF
:1043FC004B465860281C0AF0A5FD4B469B680133C0
:10440C0001D04B46986050460AF09CFD4B46DB6849
:10441C00013301D04B46D860394D0126280010F0ED
:10442C006BFC384810F068FC374A5946404610F08F
:10443C0063FC280010F060FC4A46FB6A7642116867
:10444C0032481E6010F058FCE42259469200404657
:10445C0010F052FC280010F04FFC4A46FB6A5168E1
:10446C002B481E6010F048FC2A4A5946404610F072
:10447C0043FC280010F040FC4A46FB6A9168264831
:10448C001E6010F039FC254A5946404610F034FCA9
:10449C00280010F031FCFB6A21481E604B46D9689D
:1044AC0010F02AFC1F4A5946404610F025FC0D4ED0
:1044BC00FFF7DBFBB0030020B40300200C0100204D
:1044CC00C00400204CBD01081CC10108CCC301086C
:1044DC00B8BC010839030000CCBC01088C000020DA
:1044EC0000007A440C020020D4C301084F030000E2
:1044FC00DCC30108ECC3010851030000E17A1C4045
:10450C0094BC010864C301088F030000FCC30108BC
:10451C0010C401089103000024C401089203000098
:10452C0038C40108930300006B46C649A06B3B637B
:10453C0009F0C8FF0AF006FDC34983B2606CBB6288
:10454C0009F0C0FF0AF0FEFC86B2FA20BF4B8000D7
:10455C0099461B69310058430AF0E6FA0500BC483D
:10456C0010F0CAFBAAB2BB49BB4810F0C5FBBB4B51
:10457C00BB4A9B46BB4B59461800984610F0BCFBF7
:10458C005423B94A3820D15A38229446483BBC446B
:10459C0063448446ADB2B5480095BC44243A6244A9
:1045AC00806A0CF0E1FD3C23FB1800259A4638226A
:1045BC0094461423BC446344585B70430CF0ACFC2D
:1045CC00AB4B00220BF058FA0AF0D4FCBB6A9C46A9
:1045DC005346604458530235082DE8D138221C2329
:1045EC00B918CD18103BCA18280051460CF0B0FD74
:1045FC000122F96A52420A604A4612687B6D013206
:10460C0001D04A4613604B465B68013302D04B46DF
:10461C006A685A604B469B68013302D04B46AA68C5
:10462C009A604B46DB68013302D04B46EA68DA608D
:10463C00904D0126280010F05FFB8F4810F05CFBBA
:10464C00E62259469200404610F056FB280010F026
:10465C0053FB4A46494612680968FB6A764292B295
:10466C00090C86481E6010F047FB854A59464046A7
:10467C0010F042FB280010F03FFB4A4649465268B6
:10468C004968FB6A92B2090C7E481E6010F034FB3C
:10469C007D4A5946404610F02FFB280010F02CFBA9
:1046AC004A46494692688968FB6A92B2090C774877
:1046BC001E6010F021FB764A5946404610F01CFB58
:1046CC00280010F019FBFB6A72481E604B46D96833
:1046DC008AB2090C10F010FBE722594692004046B2
:1046EC0010F00AFB3B6B6C4E9D46FFF7BEFA61481F
:1046FC0010F002FB694810F0FFFA584B684A9B46D1
:10470C00584B59461800984610F0F6FA8423654A1F
:10471C002E60D5584E4BFD6218009A4610F0ECFAFC
:10472C002A0061494C4810F0E7FABD225946920024
:10473C00404610F0E1FA584E002D21D000233821CC
:10474C001C2299467918544E3B638D184B462B709E
:10475C00F36D29006B60554BE06AAB604B46EB6028
:10476C00534B2B6104236B614B462B766B76AB76EC
:10477C0006F088F93B6BFA6A01333B639A42E5D148
:10478C003A4BF16D9B6A18684023E25A520010F0C4
:10479C0083FE504610F0B0FA464810F0ADFA464A87
:1047AC005946404610F0A8FAFFF75FFA2F4B796C88
:1047BC00986A0DF075F8F86156E5002504E63F4857
:1047CC0010F09AFA3E4810F097FAB7225946920028
:1047DC00404610F091FA7FE4B8680AF0F1FD1949EF
:1047EC0009F05EFDFA6C031C796C28000CF0BAFD24
:1047FC00A9E5324810F080FA324810F07DFAB62262
:10480C0059469200404610F077FA5FE4174B9946F0
:10481C0043E42A4810F070FA2B4810F06DFABA22D3
:10482C0059469200404610F067FA9CE4234810F079
:10483C0063FA264810F060FA254A5946404610F0B3
:10484C005BFA8AE400007A4400247449C004002016
:10485C004CBD01085CC301081CC10108B8BC0108AF
:10486C0075030000CCBC01080C0100208C0000205A
:10487C0000408F4094BC010864C301086CC301085C
:10488C009903000084C301089A0300009CC301082B
:10489C009B030000B4C301080C0200200CC20108E9
:1048AC00F20200001405002028C201086802002052
:1048BC006C02002030C20108FA020000B0BD0108F1
:1048CC00B4C2010888C2010814C30108E4C201087B
:1048DC00E5020000836910B50400002B0AD00E4BD2
:1048EC001A0030321278002A04D05B6B0B4A0C4948
:1048FC0001209847E369002B0AD0074B1A0030328D
:10490C001278002A04D05B6B064A054901209847AF
:10491C0020688368984710BDB8020020BEC4010807
:10492C00CFC40108F1C4010870B50400416A028FBC
:10493C00438F0968E56B0069A8472068436898476E
:10494C0070BDF0B54F464646D646C0B51F00154B58
:10495C001600984601235B429946002304009A46B0
:10496C004D086D004519AC4204D11CBC90469946CB
:10497C00A246F0BD0C4B20889C4660447843310025
:10498C000AF05CF980231B02C01803D55346238020
:10499C000234E8E7404502DD4B462380F8E72080EF
:1049AC00F6E7C046FFFF00000080FFFF836B244A40
:1049BC0010B5040093420BD10369426993421ED097
:1049CC00204B00205B6B204A20499847002010BDEB
:1049DC001F4A93420BD10369426993420FD1194B81
:1049EC0000205B6B1B4A194998470020EFE7154BD9
:1049FC0000205B6B184A154998470020E7E7A3692C
:104A0C00002B0AD00F4B1A0030321278002A04D037
:104A1C005B6B124A0D4901209847E369002B0AD0C1
:104A2C00084B1A0030321278002A04D05B6B0C4A07
:104A3C00064901209847206883689847C7E7C04615
:104A4C00914E0008B802002000C5010828C50108D5
:104A5C004B4F000839C501086EC50108BEC40108DA
:104A6C00F1C4010810B50400836B984720684368B3
:104A7C00984710BD0369426910B50400934207D0F2
:104A8C00134B00205B6B134A13499847002010BD51
:104A9C008369002B0AD00E4B1A0030321278002A90
:104AAC0004D05B6B0D4A0C4901209847E369002B3D
:104ABC000AD0074B1A0030321278002A04D05B6BF4
:104ACC00074A054901209847206883689847DEE724
:104ADC00B802002000C50108DFBB0108BEC40108F4
:104AEC00F1C4010810B50400836B98472068436833
:104AFC00984710BD7047836910B50400002B0AD08D
:104B0C000E4B1A0030321278002A04D05B6B0C4A20
:104B1C000C4901209847E369002B0AD0074B1A0077
:104B2C0030321278002A04D05B6B074A0549012009
:104B3C00984720688368984710BDC046B80200208B
:104B4C00BEC4010883C50108F1C4010810B5436A4D
:104B5C00826B00681A604368984710BD836910B572
:104B6C000400002B0AD00E4B1A0030321278002AA7
:104B7C0004D05B6B0B4A0C4901209847E369002B6E
:104B8C000AD0074B1A0030321278002A04D05B6B23
:104B9C00064A05490120984720688368984710BD4C
:104BAC00B8020020BEC4010890C50108F1C4010878
:104BBC00F0B5002652080400064D9000091804397F
:104BCC00013A00D2F0BD5300E35E4E805B106B40A7
:104BDC000B80F4E700C0FFFF70B55308064D5B0077
:104BEC00023B9C1C03D103339A43100070BDC45E7E
:104BFC0064106C40CC52F3E700C0FFFF5208130066
:104C0C0030B5013B01D2900030BD5C00045B9D00CF
:104C1C0024034C51F5E7F8B54746CE4680B507005E
:104C2C009408E6008D19A400043C083D231D04D112
:104C3C0030000CBC90469946F8BD3B190220185E1A
:104C4C000AF074FBE621890509F03CFC8046385FCC
:104C5C000AF06CFBE621890509F034FC0021814641
:104C6C00404609F02FFC011C484609F07FF94346E9
:104C7C0028606B60D8E7F8B54746CE46884680B5C5
:104C8C00150007009408A400043C231D06D128003D
:104C9C00032398430CBC90469946F8BD3E59B0B2DC
:104CAC000AF044FBDE21890509F00CFC8146301426
:104CBC000AF03CFB011C484609F058F943461851D0
:104CCC00E2E710B553085B00023B9C1C03D1033395
:104CDC009A43100010BDC45A6400CC52F4E78369A7
:104CEC0010B50400002B0AD00E4B1A00303212788B
:104CFC00002A04D05B6B0C4A0C4901209847E369ED
:104D0C00002B0AD0074B1A0030321278002A04D03C
:104D1C005B6B074A054901209847206883689847D0
:104D2C0010BDC046B8020020BEC40108A2C50108CF
:104D3C00F1C4010810B50400436A828F1968006938
:104D4C00A36B984720684368984710BD836910B5DA
:104D5C000400002B0AD00E4B1A0030321278002AB5
:104D6C0004D05B6B0B4A0C4901209847E369002B7C
:104D7C000AD0074B1A0030321278002A04D05B6B31
:104D8C00064A05490120984720688368984710BD5A
:104D9C00B8020020BEC40108B4C50108F1C4010862
:104DAC0010B50068C368984710BD10B5FFF7F8FF41
:104DBC0010BD10B5FFF7F4FF10BD10B5FFF7F0FFF5
:104DCC0010BD10B5FFF7ECFF10BD10B5FFF7E8FFF5
:104DDC0010BD10B5FFF7E4FF10BD70B50400456AB7
:104DEC0041692A68A36B006998472860206843686A
:104DFC00984770BD10B5FFF7F0FF10BDC36A10B532
:104E0C00002B02D014305B6B984710BD826910B533
:104E1C00002A0FD048235A43074B483A1B689B186B
:104E2C001A0040321278002A01D141331A70043032
:104E3C00FFF7E4FF10BDC046B80400200020704707
:104E4C0010B5024B5B69984710BDC046B8020020F4
:104E5C00F0B5C64607008846002400B595086600E4
:104E6C00AC4203D1300004BC9046F0BDA300DA5B29
:104E7C00FB18588801340004104307F021FD434609
:104E8C009853ECE7F8B5DE464E4645465746436A1E
:104E9C00E0B598461E68036B016C1D680400281C65
:104EAC0009F010FB07F06AFCE16B0700281C09F005
:104EBC0009FB07F063FC81462469B508AD002D1988
:104ECC00AC4209D103239E4343461E603CBC904632
:104EDC009946A246AB46F8BD8023DB05F81807F0CF
:104EEC00D9FC8246380007F0D5FC0022A35E51465F
:104EFC009C460222A35E62465143CA171205120D4C
:104F0C005218010059438B46C9170905090D59441C
:104F1C0012130913521A228052465A43D3171B05F7
:104F2C001B0D9B1862464243D0170005000D8018DC
:104F3C001B1300131B1863804F440434C0E7F8B5EF
:104F4C00DE4657464E464546436AE0B599461B68D1
:104F5C0006005C08036B016C1D68281C09F0B2FA92
:104F6C0007F00CFCF16B0700281C09F0ABFA07F0FA
:104F7C0005FC63009846824635697669A844454528
:104F8C0008D14B46A4001C603CBC90469946A246F6
:104F9C00AB46F8BD0022AB5E02359B468023DB0599
:104FAC00F81807F077FC5B464343D8170005000D53
:104FBC00C01800133080380007F06CFC5B4643438C
:104FCC00D8170005000DC018001370805744043624
:104FDC00D5E77FB50022436A06691D6803AB1A80CA
:104FEC005A80039BAD082A00310040300093012306
:104FFC00040007F047FA0A4B2000EB189B00F3184B
:10500C000222995E1B8802AA138001235180029A06
:10501C00310000925B422A0007F034FA7FBDC04693
:10502C00FFFFFF3FF0B557464E464546DE46E0B51E
:10503C00490852088BB295B283B082469946002D2E
:10504C0000D11D008BB2019301235B42C8462F0097
:10505C0000269B46B14506D803B03CBC9046994609
:10506C00A246AB46F0BD019AF319934200DD4746C8
:10507C00002F20D00022100074005444BA4221D3D7
:10508C000123002800DA5B467A0892B253433900B8
:10509C00181809F0D3FD7A0001B2A218002919DD05
:1050AC0080B223880021834201D31B1A99B221803C
:1050BC000234A242F5D143465B1B76199BB2B6B2C1
:1050CC009846C7E70B4953008C46E35A01326344B8
:1050DC00C018D3E7084B9C46614423888B4206DCFE
:1050EC001B1A9BB223800234A242F6D1E3E7024B97
:1050FC00F8E7C0460080FFFFFFFF000070B503001B
:10510C000C0001220020A2420FD30AF00FF9051C5B
:10511C00601E0AF00BF9011C281C09F0C1F80EF0F6
:10512C007FF8074909F0CEF970BD1D885988013206
:10513C00491BCD1749196940401892B20233E2E776
:10514C000000A04130B50E25002485B06D442A0026
:10515C0021002C8007F0E8FB2A88074B01209A429B
:10516C0007D00092054A2000556B0549054AA8470F
:10517C00200005B030BDC04612110000B80200205E
:10518C00EEC50108C0C50108F8B51D00B823CE4610
:10519C0099464746446980B5A1444B461B88170085
:1051AC00002B28D026000968B4368846328801685E
:1051BC00520090444246012008F052FC4B464046B7
:1051CC001988FFF79BFF012368600D49984609F089
:1051DC0085FE002800D1804643462B700023226CAC
:1051EC009A4203D1BA34227801335340012213403E
:1051FC002B7233883B6001200CBC90469946F8BD5D
:10520C0000006442F8B557464E464546DE464469B2
:10521C00E0B52700CE371D003B8880468A46160035
:10522C009946002B3AD02300C833186880B243004B
:10523C009B462300CC3319887C2009F075FC5B4617
:10524C0058432300C4331B884146C01853461B687F
:10525C0009689A4682444B465246012008F000FCED
:10526C003F8850463900FFF749FF012368600F491A
:10527C00984609F033FE002800D1804643462B7037
:10528C000023E26E9A4203D1C0342278013353409A
:10529C00012213402B723368DF1B376001203CBCAA
:1052AC0090469946A246AB46F8BDC0460000644203
:1052BC0070B51600050005F065FC04003300020013
:1052CC002900002008F0CCFB200070BD7FB503AE98
:1052DC003200050007F06CFD041E08D10A4B0B4A86
:1052EC005E6B0B492B00B047200004B070BD738877
:1052FC00062BF9D00093044B064A5C6B04492B0037
:10530C000020A0470024EFE7B8020020FEC50108EA
:10531C00EEC5010830C60108F0B585B003AC170026
:10532C002200060007F044FD051E32D02278638867
:10533C00062A25D11A0523D58022D20013402BD161
:10534C00002F00D03B706388DB050AD5154B1A0083
:10535C0030321278032A04D95B6B134A13490420A8
:10536C00984763889B0514D50E4B1A00303212787F
:10537C00032A0ED95B6B0E4A0C490420984708E0AF
:10538C000093084B0B4A5C6B084933000020A04784
:10539C000025280005B0F0BD31000F2008F054FBAB
:1053AC002B00CDE7B80200209AC60108EEC5010813
:1053BC00B3C601086AC6010873B56B469C1D002371
:1053CC00220038210500238007F0AEFA2488012042
:1053DC00002C0AD1054B064A5E6B06492B002000B7
:1053EC00B047280007F0C7FA200076BDB8020020AD
:1053FC00CBC60108EEC5010810B50400FDF7B4FAE0
:10540C0001280CD02000FDF799FA011C054808F082
:10541C0047FF044908F0AAFD09F094FD10BDFA20DD
:10542C00C000FBE70000FA44F0B557464E4645462F
:10543C00DE460023E0B5050098468DB08946454907
:10544C0006A89370D3701380137313719160871D2A
:10545C001400286806AAD3713B708246A87B0732D9
:10546C000090E87B05910390A8890292019028692D
:10547C0009AE04904346019A9BB29A4259D9009BBB
:10548C00002B0FD0AB69029A9B6904995046984740
:10549C0000280ED100200DB03CBC90469946A24687
:1054AC00AB46F0BDAB6950469B6A98470028E9D1E2
:1054BC00F0E7029B1B78002B00D1A378A370AB699B
:1054CC003A00DB6949462800984700233370337251
:1054DC00AB69059A1B6A089072609B4608AA330058
:1054EC0049462800D847337A002B00D1237B2373FD
:1054FC0033789B46002B00D123792371A168706807
:10550C000DF062FD3B78A060002B00D1E378089A87
:10551C00E37094462388594663442380AB69280082
:10552C005B6A9847039B002B06D0019B013B984577
:10553C0002D14B461868AEE7009B002B03D1012328
:10554C009C46E04496E7AB6950469B6A9847002816
:10555C00F5D19FE7000080FF37B5456901242B008A
:10556C00BA331B7819432B6C4C405A4253418B4233
:10557C0006D00094EF23044A0449006805F064FB4C
:10558C002C6401203EBDC04688670108C87C010818
:10559C0070B50D000021436911701A00B833B43294
:1055AC001B8814882968E41822000068FFF780FE25
:1055BC006200010028680FF078FF200070BDCD223A
:1055CC0070B5520004000D00BC200F4905F0CEFA56
:1055DC0000236061984214D02800FDF7F6F9206092
:1055EC002800FCF727FCA0732800FDF7E4F94342E0
:1055FC005841E0732800FFF7FFFE044B2061A361C4
:10560C000123180070BDC046FCC60108A055010856
:10561C002C2270B5FF3204000D00D4200F4905F088
:10562C00A5FA00236061984215D02800FDF7CDF94A
:10563C0020602800FCF7FEFBA0732800FDF7BBF9E7
:10564C0043425841E0732800FFF7D6FE044B20611B
:10565C003833A3610123180070BDC0462EC7010862
:10566C00A0550108F0B557464E464546DE464469FE
:10567C00E0B5230025008DB00492C2331B880600D0
:10568C008A46C635002B00D12B80CC239B46A344E5
:10569C005B467C20198809F047FAC8239946A14437
:1056AC004B461B6806A99BB2584323008046CE3359
:1056BC001B882000984407F0F1FC069B2988434482
:1056CC001A0053461B6830689C466144FFF7F0FD96
:1056DC002300AD331B780600002B28D10023049A3D
:1056EC0006A91370200007F0D9FC434650465A0017
:1056FC00069B006859002B887118C0180FF0D5FE56
:10570C004B462E88C43426801C685B467C20198846
:10571C0009F00AFAA4B264004443404636192E80BC
:10572C000DB03CBC90469946A246AB46F0BD22005B
:10573C001F21BC3213685B000B4013603F4A110001
:10574C0030310978032904D9576B3D493D4A04206F
:10575C00B847236A3C4A9BB25B007032985E09F0F2
:10576C00E5FD071C308809F02BFEDE21890508F0C9
:10577C00A9FEFC21890508F0D7FF344908F0A2FEE8
:10578C00334908F09FFE011C381C08F0CDFF09F0CE
:10579C00ADFD304A07B2BBB29A182F4992B28A4279
:1057AC002AD82621625E708803922C4A9446E622FF
:1057BC0063449BB25200934224D909F001FEDE21CE
:1057CC00890508F07FFEFC21890508F0ADFF1F4913
:1057DC0008F078FE1E4908F075FE0590380009F0B7
:1057EC00A5FD011C059808F0C1FB09F07FFD039B8A
:1057FC0000B26433984205DD22000123BC321168EB
:10580C000B4313602300BC331A680023002A11D108
:10581C00022B00D862E7094A1100303109780029BF
:10582C0006D005210091576B05490D4A0120B84758
:10583C00012354E7511E0A400133E7E7B802002068
:10584C0077C7010860C70108A05501089A99993FCC
:10585C0000007A4412FDFFFF17020000F4FCFFFF6A
:10586C0088C7010810B5383008F0A8FA10BD10B57B
:10587C00383008F0A3FA10BD10B50400383008F029
:10588C00B1FA00280CD1E02301229B00E3585861A7
:10589C0098715A71D2239B00E0180433E35898474F
:1058AC0010BD10B50400383008F09CFA00280BD15C
:1058BC002300F0331B680122586198712000BC341E
:1058CC005A71B8302368984710BD13B5044A00913B
:1058DC000300546B0349044A0020A047FEE7C0466E
:1058EC00B8020020D8C70108C3C70108F0B5574655
:1058FC004546DE464E46E0B56B4C1700A54402917A
:10590C0098467C2A16D893009B4680AB5B44F73BA9
:10591C00FF3B0193002305000093029B009A9A42DF
:10592C000CD181239B009D443CBC90469946A246D9
:10593C00AB46F0BD7D215D48FFF7C7FF5A462900F5
:10594C0004A80FF0A9FD80A98C4600220124781E22
:10595C0083006344F13BFF3B04921A6004AAA74204
:10596C000FD8019A043A01382ED20024A34548D10D
:10597C0029000022A24272D1009BAD180133009382
:10598C00CBE70021535E01349C460423D15E634671
:10599C00C91A43465943CB171B051B0D5B181B1328
:1059AC00634493800221535E04329C460223D15EF1
:1059BC006346C91A43465943CB171B051B0D5B188D
:1059CC001B1363445380CAE70623D15E0223D45EC3
:1059DC004346641A5C43E3171B051B0D1B191B1371
:1059EC005B1853800823D15E0423D45E4346641AAB
:1059FC005C43E3171B051B0D1B191B135B189380D2
:105A0C00B0E704A98C4622006244508804AB1B5BAF
:105A1C000004184306F054FF814600281DD004AB47
:105A2C00E05E4946000309F009F904AA03B2944662
:105A3C009A46230063440220185E49460003404204
:105A4C0009F0FCF800B204AA230094466344588081
:105A5C0013005246E252043488E78246F3E70020F2
:105A6C000B5E994604ABD35E0226885F04AEB44647
:105A7C008246100060440226805F04328446484609
:105A8C0058436646039050467043039E301A0013E9
:105A9C000880504666464343484670431B181B1308
:105AAC004B80043166E7C046FCFDFFFFE3C70108ED
:105ABC00030070B5CC331D8886B0002D04D158215D
:105ACC000C48FF31FFF701FF03008024CE336946F9
