:020000040800F2
:100000000090002081C400088B8200088F820008C5
:1000100000000000000000000000000000000000E0
:100020000000000000000000000000008D820008B9
:1000300000000000000000008982000879820008AA
:10004000D1C40008D1C4000815820008D1C400083A
:10005000D1C40008D1C400080B8200080182000846
:10006000D1C40008F1810008E1810008D1C4000872
:10007000D1C40008D1C40008D1C40008D1C400080C
:10008000D1C40008D1C40008D1C40008D1C40008FC
:10009000D1C40008D1C40008D1C4000849810008B7
:1000A000D1C40008D1C40008D1C40008A57F00084D
:0C00B000D1C40008D1C40008D1C400086D
:1000BC0010B5064C2378002B07D1054B002B02D032
:1000CC00044800E000BF0123237010BD7000002025
:1000DC000000000028F10008044B10B5002B03D0E1
:1000EC000349044800E000BF10BDC04600000000FA
:1000FC007400002028F10008E020164B10B51A6897
:10010C0051688143516082215868490088420CD162
:10011C00802099680002814203D08020C000814277
:10012C0003D140201168814311608020996A8001BD
:10013C00814206D11068084C2040106010680143C1
:10014C0011601A0001215D32117000225C33032012
:10015C001A7010BD8C000020FFDFFFFF1C4B022229
:10016C001900F0B58C310C781000012C2FD001380F
:10017C00087019008D310A70CA21FA2704255A6EAD
:10018C0014485162773951629169134C0140916165
:10019C0091691248BF00014091612669D1682940DC
:1001AC0009D0FF2151621A0000208D32FE398C33A8
:1001BC00117018700BE02069801BB842EED9FF203B
:1001CC0050621A00FC388D328C3310701970F0BDEF
:1001DC008C000020FFFBFFFF0C010020FFBFFFFF86
:1001EC00F7B52C4A022314008C342578070018002C
:1001FC00012D4DD00138207010008D300370CA20B5
:10020C00536E254C58627738586298692040042404
:10021C009861D86D2043D8652048C068400609D441
:10022C000194FA24A400A4461D4E3069DC68019D9B
:10023C002C4021D007245F619869A043986198698C
:10024C0001439961802117480903C46F2143C16799
:10025C0080219869C9010143996180219869C9007D
:10026C0001439961FF215962130000208D33FE393F
:10027C008C32197010700BE035692D1A6545D5D983
:10028C00FF215962130003208D338C3218701470C7
:10029C00FEBDC0468C000020FFFBFFFF0028004085
:1002AC000C01002004180240002310B50E4C032151
:1002BC001F202375FFF794FF237D002B04D0002310
:1002CC002375FFF74BFF10BD72B6BFF34F8FBFF313
:1002DC006F8F237D002B00D130BF62B6BFF34F8FE1
:1002EC00BFF36F8FE8E7C0460C010020F7B5A022E2
:1002FC0000230190D2050199D94000D1F7BD01210D
:10030C0099400C00009101990C403FD003260F2717
:10031C001E40F600B7401E4D9908890049190D6E14
:10032C002F4214D11B4EE443B4466046F66F184D71
:10033C002640C6671848C66F2640C6672E682640FA
:10034C002E606E6834406C600C6EBC430C660325EA
:10035C005C00A54011682C00294307250F27A0201D
:10036C001D40AD00AF40E4431160D908C0058900C1
:10037C0009180E6A0098BE430E6291682140916084
:10038C00516881435160D1680C40D4600133B2E7AD
:10039C000018024004180240081802402C4B30B5DB
:1003AC001A1DD26F04000220202A3AD10138002CE9
:1003BC0037D0002935D080259A686D01AA4204D126
:1003CC001D69002D01D104422BD118007C30057819
:1003DC000220012D25D01800543001801800563011
:1003EC0001801900002088310860191D2130C86770
:1003FC00802080211C655C6E80054901844213D1EC
:10040C008A420FD11A69002A0CD1124A1A671A00B3
:10041C0000207C3210701A68802391681B040B43F7
:10042C00936030BD0C4AF1E78A420ED11A69002A5A
:10043C000BD10A4A1A671A0000207C3210701A6815
:10044C00802311680B431360EBE7054AF2E7C046C3
:10045C0040050020D10700082D0800088508000879
:10046C00C5080008A02130B5FA252020094BAD00A5
:10047C005B6EDA688A430849DA600C69DA68024212
:10048C0001D0002030BD0A69121BAA42F6D9032004
:10049C00F8E7C0468C0000200C010020802210B52B
:1004AC00104CE3689343E360A369603A134208D1AC
:1004BC00FFF7D8FF002803D003200B4B8D331870A7
:1004CC0010BDA3699343A361FFF7CCFF002803D0B1
:1004DC000320054B8D3318702023A2691343A361AD
:1004EC00EEE7C046002800408C0000201049F0B513
:1004FC004B6E0020DA6852060FD48022DC6803258C
:10050C002243DA60FA22920094460A4C266940276C
:10051C00DA683A4201D1032800D1F0BD2269921B5E
:10052C006245F5D90A008D3215702800EFE7C046F8
:10053C008C0000200C01002070B50468114EE56998
:10054C000D40A94201D1002017E05D1CF7D03569A0
:10055C00AD1AAB4212D223680B4A13402360A36836
:10056C00A332FF329343A3602023021DD3670432CE
:10057C00D36700237C300370032070BD002BDED1C9
:10058C00E9E7C0460C0100205FFEFFFFFA23184983
:10059C009B000A698020D218164B30B51C00400213
:1005AC001D69054210D180251869134AED050240DA
:1005BC0012481861986928400BD09C690243044387
:1005CC009C61CA61012003E00D69AA42E8D80320AE
:1005DC0030BD002AF5D1FA220B6992009B188022BB
:1005EC00D20220691040F3D008698342F9D8EEE7B3
:1005FC000C01002000200240FAC30000FBC30000E5
:10060C00F0B506000836F26F03000220202A53D101
:10061C000138002950D080229C685201944206D1A6
:10062C001A69002A03D1374A3032024244D11D00E4
:10063C007C352A780220012A3ED001222A70314AC8
:10064C00002030329A651A0080275C32118051806C
:10065C007F01D8660432BC4231D1186900282CD1F4
:10066C00294810801A000020883210602222F2677C
:10067C001A68013096685F6E304390608026802047
:10068C00B6054001B7422CD11E00683636888E4222
:10069C0027D8844223D11969002920D11B49002075
:1006AC00D9668023287011685B000B43136080238C
:1006BC0091685B050B439360F0BDFF20D1E7002CE4
:1006CC0004D118690028F8D07F20CAE780277F055D
:1006DC00BC42C6D118690028F6D03F20C1E70C49AE
:1006EC00DDE784420CD11969002909D109490020A0
:1006FC00D9669023287011685B000B431360DBE70D
:10070C000549F4E70C010020FF0100000521000859
:10071C00B12100085D220008BD2200080388428830
:10072C001B0413430B6070477FB5144B04000293FA
:10073C000823FF330393124B0093124B0193436E28
:10074C00002B02D1104B83667FBD6A46036802AE54
:10075C009D689B685B0FF05CD15CC00007F03AFEB3
:10076C0023006A466A3318802B015B0FF05CD15C66
:10077C00C00007F02FFE68342080E5E7010101037B
:10078C0008040204080101010100010070B5040015
:10079C007C3422780223012A10D001260268051D20
:1007AC002233EB6711681368B3431360044B194091
:1007BC000023436611602022EA672370180070BD85
:1007CC00FFFFFFDF031DDB6F70B5212B13D103007F
:1007DC00040080256A331A885634002A0BD02188ED
:1007EC000368002908D19A680C490A409A60402293
:1007FC0019680A431A6070BDD96929420AD0066D7E
:10080C0031880236C905C90D996206652388013BFA
:10081C009BB22380013A92B2DFE7C046FFFF7FFF15
:10082C00031DDB6F70B5212B13D103000400802551
:10083C006A331A885634002A0BD0218803680029A1
:10084C0008D19A680B490A409A60402219680A43F9
:10085C001A6070BDD969294208D0016D0E7801313A
:10086C009E6201652388013B9BB22380013A92B2C0
:10087C00E1E7C046FFFF7FFF031DDB6F10B5212BA7
:10088C000DD1010056310A880368002A08D1802155
:10089C001A688A431A60402219680A431A6010BD0C
:1008AC00046D22880234D205D20D9A6204650B883D
:1008BC00013B9BB20B80F2E7031DDB6F10B5212BC4
:1008CC000DD1010056310A880368002A08D1802115
:1008DC001A688A431A60402219680A431A6010BDCC
:1008EC00026D147801329C6202650B88013B9BB24D
:1008FC000B80F4E7836A0022190056335E310A80BC
:10090C001A8070470023092803D81B011843C0B272
:10091C0070470A380133C0B2F5E7F7B54E4F0223E2
:10092C003A008C32117805001800012971D0012190
:10093C0011703A008D32137040227C6EA369134003
:10094C0000D1EB702878FFF7DDFF06006878FFF721
:10095C00D9FF0090A878FFF7D5FF6B1C0190D87FCA
:10096C00FFF7D0FF6A69EB6936041343EA78000697
:10097C0092051343019A394913431E43009BAA69FC
:10098C001B021E436B68304313439C46CA236A6A9E
:10099C006362773B6362AD339A423BD1A369304AC1
:1009AC001340A361E36D0332FF321343E3650E6919
:1009BC000092E368009A13401DD063462064636480
:1009CC008023A2695B001343A3618023A2695B01AE
:1009DC001343A3618023234A1B03D16F00200B43D5
:1009EC00D367FF2363623B0001228D331A703B00F7
:1009FC008C3318700DE0FA220D699200AD1B9542F4
:100A0C00D7D9FF2262623A0003208D328C371070E6
:100A1C003B70FEBDA369144A13400222A361E36D2F
:100A2C0000921343E3650E69E368009A13400BD000
:100A3C006346A064E3648023A2699B001343A36113
:100A4C008023A2699B01C3E7FA220D699200AD1BBA
:100A5C009542E9D9D5E7C0468C0000200C01002056
:100A6C00FFFEFFFF04180240FFFDFFFF10B500233F
:100A7C00CA0708D5030041331A7828231A401A33C1
:100A8C00282A00D0B0338A0708D502002824413226
:100A9C0012782240A2420AD1442213434A0701D5BC
:100AAC00B822134301680A689A430A6010BDF42205
:100ABC00F3E70022836A996B8A63D96B41338A63AB
:100ACC001A78602A01D1403A1A70704703689A6903
:100ADC00920701D500229A6201229969114202D132
:100AEC0099690A439A617047164B10B5C36200238B
:100AFC0002000363040020204132107053706363C2
:100B0C004B0713D52368626A5B6A1370636A0133FF
:100B1C006362238D002B09D0013B2385638D013B40
:100B2C009BB263850423626C13436364200007212A
:100B3C00FFF79CFF102223684034DA6100232370F6
:100B4C0010BDC0460000FFFF030070B50025423306
:100B5C001D70013B1A780400292A0AD1013A1A7037
:100B6C0021230121036320004034FFF77FFF257010
:100B7C0070BD1A782A2AFBD1023A1A70222302215C
:100B8C000363F0E7FA2170B5114D04008900286861
:100B9C0007F096FB0F4B0138984201D9012070BD2C
:100BAC000D490E4A4860C020136A00061B021B0A3E
:100BBC00034313620020072388600B60032CEDD8DD
:100BCC00136AA1071B021B0A0B4313626C60E6E756
:100BDC0000000020FFFFFF0010E000E000ED00E04F
:100BEC0010B5040003681421D8B2083807F068FB6C
:100BFC00236C064A9B089B189B006364044BA364FC
:100C0C001C2318401B3B8340E36410BD0082001082
:100C1C008008024070B5234B066804001421F018BC
:100C2C0007F04EFB02238000A51D2064EB77336890
:100C3C001D4AA16813403360802332680B43134371
:100C4C0033602000FFF7CCFF8023A268DB019A42BF
:100C5C0001D1002363606268616CD3B20B60E06CFD
:100C6C00A16C013A4860032A16D8104A104899180A
:100C7C000322013B1340023A9A40A2651300002262
:100C8C008900216560650A60436000200123E063F0
:100C9C000534EB77E07770BD002323656365A365AE
:100CAC00F3E7C046F8FFFDBF0F80FFFF3F82001047
:100CBC0040090240F8B50125076804003B6814217F
:100CCC00AB433B60184B0026F81807F0F9FA1C23CD
:100CDC008000206418402B008340144A3E60516809
:100CEC0020000B435360FFF77BFF636CE26C1E60CC
:100CFC00A36C5A6063685A1E032A06D895400C49A7
:100D0C005B189B001E600B4B5D600020E062206353
:100D1C006063A06320656065A065E063A31D053476
:100D2C00D877E077F8BDC046F8FFFDBF0000024061
:100D3C003F82001040090240F8B51C210427046CC6
:100D4C00264B21403C008C401E68026815682642E8
:100D5C000FD03D420DD01168890602D41168B943F9
:100D6C0011605A6814435C60036B002B1BD09847CE
:100D7C0019E002273C008C40264215D03D4213D08E
:100D8C001168890606D40A251168A943116001214E
:100D9C00821DD1775A68144300225C60431DDA77B8
:100DAC00C36A9342E3D1F8BD082427008F403E422A
:100DBC00F9D02542F7D00E251468AC4314600122FB
:100DCC0015008D4029005C6821435960831DC26366
:100DDC00DA770022431DDA77436BE2E7000002402A
:100DEC00F8B50123411DCB77841DE27F022A03D085
:100DFC000422C2631800F8BD0E2602681568B543BC
:100E0C0015601568466C9D4315603268114D2A407B
:100E1C0032601C22AC46056C0F4E2A40934077681A
:100E2C003B437360C26C836C5A60036D002B06D01D
:100E3C0065461A682A401A60436D826D5A60012318
:100E4C00E3770024CC77826B1300A242D2D0904778
:100E5C002300CFE7FFFEFFFF0000024070B5020049
:100E6C0005000026423241352B7816702A4A283B61
:100E7C00C2624685426C040011434164022B22D8A5
:100E8C000321FFF7F3FD28232B70244B26638022CC
:100E9C0063632368D201196811401A681ED0204977
:100EAC00A06B0A401A6000280CD01E4B00228363F2
:100EBC00230040331A70FFF793FF002802D0A06B79
:100ECC00836B984770BD0721FFF7D0FD2B78602B03
:100EDC0001D020232B7000232363D8E7802000024D
:100EEC00024011D01A6810480240E06B1A600028CA
:100EFC00E8D00C4B8363230040331970FFF770FF6D
:100F0C000028DFD0E06BDBE72B784034602B01D17D
:100F1C00403B2B702270D5E70000FFFF390F000813
:100F2C00FFBFFFFFBF0A0008FF7FFFFFF8B50700F8
:100F3C00403716003A780400C36A0D000220012ADB
:100F4C0075D0012209093A70114200D190E03109A3
:100F5C00114200D18CE0628D002A00D078E0220092
:100F6C0041321178282963D1802189048B425FD1C9
:100F7C0029002000FFF7B8FDAB0656D501237609F2
:100F8C001E4252D02022236807211E682000DA61FD
:100F9C00FFF76CFD802223681202596820000A4377
:100FAC005A605A6876490A405A60FFF78FFD012251
:100FBC00B30B134200D1CEE0A36B002B03D01B6804
:100FCC005B689BB263856B0711D504239D43236833
:100FDC00626A5B6A1370636A01336362238D002B50
:100FEC0005D0013B2385638D013B9BB26385638DEB
:100FFC00002B03D00423626C134363642200002390
:10100C0026004232236313706363636C4136002BFA
:10101C0000D1A7E0616C2000FFF720FF3378282B6C
:10102C0003D129002000FFF75FFD00203870F8BDC8
:10103C00102110782268D16129289DD15148834212
:10104C009AD02000FFF742FD2000FFF77DFD93E7CB
:10105C0010212268D1610422616C0A4362644A4AFD
:10106C00134200D088E7616C2000FFF7F7FE83E79E
:10107C00012269071ED5B10811421BD0628D002ACE
:10108C000FD0042295432268616A526A0A70626A20
:10109C0001326262228D013A2285628D013A92B24E
:1010AC006285628D002A00D066E7364A934200D1F1
:1010BC0062E7C9E7012229072FD5F10811422CD08C
:1010CC002300282141331B7822680B408B4221D10D
:1010DC00936993699168D068E068022814D11B0C5D
:1010EC00FC308905490F03404B4006210B400BD1C6
:1010FC00A16C0131A164A16C022900D03CE706313E
:10110C00A364D1613B7037E704212000FFF7AEFCEC
:10111C000023F7E70823D361FAE70122A90700D4DB
:10112C002AE77108114200D126E7628D002A0DD002
:10113C00636A22681978013391626362638D013BA3
:10114C009BB26385238D013B238515E70E4A134221
:10115C0000D011E778E70123F60B1E4200D132E7ED
:10116C00E36B2AE7E36A074DAB4206D02000FFF79A
:10117C00EBFCE5622023337057E73278FAE7C04680
:10118C0000E800FE0000FFFFFFFFFFFE064B074AD2
:10119C009B685B045B0F9B009B581F221340044A07
:1011AC001068D8407047C0460010024040F100085B
:1011BC000000002038231F4A70B5916814001942B2
:1011CC0008D1012113681C489B045B0F994007F060
:1011DC0077F870BD91681940082925D0916819409D
:1011EC00102915D1D368D168DB437F22E568490605
:1011FC00490F2D0A013115409B0707D10F4807F005
:10120C005FF8E1686843490F0131E0E70A48F6E707
:10121C0091681940202909D0926800201340182B9E
:10122C00D7D1FA20C001D4E70448D2E780200002CD
:10123C00CFE7C046001002400024F40000127A00F0
:10124C00044BDA68104200D0D8601A69024200D010
:10125C001861704700180240F0B50B6885B0039315
:10126C0000230191039ADA4001D105B0F0BD0122AF
:10127C009A4002920299039A0A40009200D185E0AA
:10128C00019A1021526816008E43022E0ED10725AA
:10129C001D40AD000139A940DC08A4000419276ADF
:1012AC008F4301990969A9400F43276203245F000A
:1012BC00BC40E4430568013E2540AC46032515407F
:1012CC00BD4061460D430560012E0FD8019986681B
:1012DC00CD682640BD4035438560466802991509A6
:1012EC008E4301210D409D4035434560C5680199F1
:1012FC002C408D688021BD4049052C43C4600A42B6
:10130C0044D003260F2422499D081E40AD00F60050
:10131C006D18B440A0212F6EC905A7430024884244
:10132C000CD01C490134884208D01B490134884236
:10133C0004D01A490334884200D1023CB4400099CD
:10134C003C430E002C66164CCD43E76F3E43D10355
:10135C0001D43E002E40E667124E009FF46F2743E7
:10136C00910301D42C402700094CF7672768009E95
:10137C003E43D10201D43E002E4026606668009F99
:10138C003743920201D42E4037006760013369E77E
:10139C00001802400004005000080050000C0050DF
:1013AC000418024008180240002330B59200934202
:1013BC0000D130BDC458250CCD52CD186C800433EF
:1013CC00F5E7F0B5550085B045190E00280003A9C6
:1013DC0014001F00FFF7A2F90F23039A9A430292FD
:1013EC001300124A110080310978002F12D03343B8
:1013FC000293032907D908320096D66F63080C4A6A
:10140C000C490420B0470122290002A8FFF7CCFFA9
:10141C0005B0F0BD0329F6D90832009663080549DA
:10142C00D46F0420044AA047EDE7C0460C0100200D
:10143C000C230108422301084E2301087047F7B51D
:10144C0006680D003148311C07F0BCFBFC218905F6
:10145C0007F01EFA07F042F92D4984B2301C07F050
:10146C00BBFE2C4907F086FD2B4907F011FA07F05B
:10147C0035F92300103B9BB22881EF2B2CD9274B3D
:10148C0000210833301CDF6F07F0E0F800281FD074
:10149C00234C2449301C07F06DFD234907F0F8F963
:1014AC00061C07F01BF9050008F0DAF8011C301CCB
:1014BC0007F092FE1D4907F05DFD07F00FF900954E
:1014CC000190230000201A4A1A49B8470020FEBD9B
:1014DC00FE21194C8905DDE73F2C09D800226A80D2
:1014EC002F2C00D92300AB80EA802C800120EEE762
:1014FC0001236B80E308BF2C03D82300403BDB1097
:10150C009BB2AB8007232340EB80EEE7F902154F2B
:10151C008096984BE8385BB500007C420C010020AB
:10152C00372E0108000080BFBD37063500247449F2
:10153C0080230108AB2301087D3901080C2310B569
:10154C0004785C43034B1B195C68002C01D09B682E
:10155C00A04710BD700601081FB50291002101AB18
:10156C0018700A0018000391FFF7E8FF05B000BDE2
:10157C0030B50C0011000122050085B001A8826075
:10158C005A0005704460FFF7D9FF05B030BD836980
:10159C0010B50400002B0BD0134B1A0080321278BC
:1015AC00002A05D00833DB6F104A114901209847F7
:1015BC00E369002B0BD00C4B1A0080321278002AF6
:1015CC0005D00833DB6F0B4A094901209847636942
:1015DC000120002B07D0044B00200833DB6F064A98
:1015EC0003499847002010BD0C010020BC230108C2
:1015FC00CD230108E3230108F2230108704710B53D
:10160C000400C26B816B236C006998470022A36BAA
:10161C005A6110BD836910B50400002B0BD00F4B21
:10162C001A0080321278002A05D00833DB6F0C4A7E
:10163C000C4901209847E369002B0BD0074B1A008B
:10164C0080321278002A05D00833DB6F064A054930
:10165C000120984720688368984710BD0C01002032
:10166C00BC23010819240108E323010810B5006804
:10167C00C368984710BD70B50400436A4569826B16
:10168C0019680069E36B984728702068436898478D
:10169C0070BDF8B506000C001248111C07F09CFD3B
:1016AC00104907F08FFAC7210906071C07F062FCE6
:1016BC0007F06CFF0C4905B2381C07F05BFC07F017
:1016CC0065FF6408640000B23419A64201D1002001
:1016DC00F8BD0023F25E904202DD02369542F4DB47
:1016EC000120F5E70000C84200FEFF46F8B50600F1
:1016FC000C00101C1249171C07F064FA114907F072
:10170C0039FC06F0EBFF391C85B20D4807F064FD7F
:10171C000B4907F057FA0B4907F02CFC06F0DEFFDB
:10172C006408640080B23419A64201D10020F8BDCF
:10173C003288904202D902369542F5D30120F6E761
:10174C000000C84200FF7F4713B5054A00910832DC
:10175C000300D46F0349044A0020A047FEE7C046AB
:10176C000C0100204724010832240108F0B589B08F
:10177C001E000EAB1C88414B05921A000290803261
:10178C0012780D00032A08D90F9A08330092DF6FE4
:10179C003B4A23003B490420B847E4003619002497
:1017AC007388A34201D809B0F0BD06216143736868
:1017BC0059180878002803D0022817D88A8800E026
:1017CC004A88314B9A4218D0520092B2AA4214D392
:1017DC00059BEB189A4210DA012844D000280ED051
:1017EC0002280AD10F9B584243413FE0234B274A22
:1017FC000833DB6F2349002098470134D0E7521B94
:10180C0093B20A79039201224F790F99BA4091420F
:10181C000DD3013A019219490F9A08310092CC6FFD
:10182C001B4A1849A04739211A48FFF78DFF029A25
:10183C005B00D31806A918000493FEF76FFF202352
:10184C00DF1B213BFB40039A03999340069A07A8A0
:10185C009A4313000F9A8A40049913430122079369
:10186C00FFF7A2FDC9E70F9B581E8341521BDBB249
:10187C0092B249880298FFF7A4FDBEE70C01002044
:10188C00712D010842230108FFFF000052240108BA
:10189C007F240108B6240108C36A10B5002B02D0BE
:1018AC0014305B6B984710BD70B5036B85691B6B6F
:1018BC00416828009847084B041E06D10833DB6F9B
:1018CC00064A07499847200070BDDB6E002BFAD002
:1018DC0028009847F7E7C0460C010020E7240108D0
:1018EC00072501080020704710B5024BDB6D9847A7
:1018FC0010BDC0460C01002010B504004069002842
:10190C0003D0FFF7F1FF0023636110BD70B50468CD
:10191C000500002C1BD0606F8269002A0FD0482371
:10192C005A430D4B483A9B689B181A004032127868
:10193C00002A01D141331A700430FFF7ADFF2300A8
:10194C00FC33D869FFF7D0FF2000FFF7CDFF28004C
:10195C00FFF7CAFF70BDC0468C01002070B5064C65
:10196C00A36D9847051E04D10834E36F034A04495C
:10197C009847280070BDC0460C01002016250108B0
:10198C002425010810B5024B9B6E984710BDC0462C
:10199C000C01002010B5024B5B6E984710BDC04681
:1019AC000C01002070B5856904002800FFF7F2FFD8
:1019BC00482169430D4B48399B68E06A5918236BE1
:1019CC00A66B9B689847002804D12800FFF7DAFF24
:1019DC00002070BD2000236B31005B6918309847E4
:1019EC000028F2D00123E370F3E7C0468C010020FD
:1019FC0010B5024BDB6F984710BDC0460C010020A0
:101A0C0070B50B6886B004000E00062B0BD00621B7
:101A1C00104A00910832D46F00200F4A0F49A0479A
:101A2C00002006B070BDFFF7E3FF03AD0290290064
:101A3C0002A8FFF704FD0028F3D0AB886360EB88A5
:101A4C00A3606B8823602B89A381B3882361F388FF
:101A5C006361E6E70C010020302501086E250108C2
:101A6C0010B504000120002C0BD1074B1A0080325A
:101A7C001278002A06D00833DB6F044A04499847D1
:101A8C00200010BD1000FCE70C010020822501088D
:101A9C009D25010810B50400FFF7E2FF00239842D2
:101AAC0001D060342388180010BD70B504000D00FF
:101ABC00FFF7D6FF002801D00434E58770BD70B560
:101ACC0004000D00FFF7CCFF002801D00234E5879D
:101ADC0070BD10B50400FFF7C3FF00280BD02079B0
:101AEC00032808D806F0D8FB02020505FF20C00524
:101AFC0010BDA068FCE70148FAE7C0460000C07FB3
:101B0C0010B50400FFF7ACFF0023984200D02379F6
:101B1C00180010BD10B50400FFF7A2FF0023984277
:101B2C0000D0A36B180010BD10B50400FFF798FF90
:101B3C000023984200D0E368180010BD10B5044B88
:101B4C00044A0833DB6F04490120984710BDC04696
:101B5C000C010020B02501089D2B010810B50028B0
:101B6C000AD00A4B02689A4206D1038B002B03D091
:101B7C0043690120002B07D1054B00200833DB6F94
:101B8C00044A05499847002010BDC046D79DC0ACFB
:101B9C000C010020B02501089D2B010810B5002870
:101BAC0004D00268064B01209A4207D0054B002056
:101BBC000833DB6F044A05499847002010BDC04626
:101BCC00E89EC0AC0C010020C62501089D2B010825
:101BDC0010B504000069002803D0C368984700239F
:101BEC00236110BDF8B50400FFF7D8FF00282BD0F7
:101BFC001A4D2E7B002E27D0637A002B22D16368DE
:101C0C002A2B21D82A005B000D329F5C002F1BD1A0
:101C1C0001219954E37E002B03D0206BFFF7B2FE19
:101C2C00E77663682A2B05D82A0059000D32521822
:101C3C0000215170012262722A2B03D8934000229A
:101C4C000D355A553000F8BD054B064A0833DB6F8D
:101C5C000549002098470026F4E7C0468C01002077
:101C6C000C010020D52501089D2B0108F7B50400B7
:101C7C00FFF794FF002809D1324B334A0833DB6F4E
:101C8C0032490020984700263000FEBD304D2E7B97
:101C9C00002EF1D0637A002BF6D063682A2BEBD898
:101CAC002A0059000D328F5C002FE5D10120885499
:101CBC0052185278002A3AD1227E022A21D02300CF
:101CCC00183318000193FFF76DFE00282FD0A37E68
:101CDC00002B1ED0237E012B10D1A36C00229B69FC
:101CEC00E169206B9847002821D0A36C206B9B6A7C
:101CFC00984700281BD00198FFF7D6FD63682A2B64
:101D0C0003D801225B00EB189A730023370063722F
:101D1C000DE0A36C206B9B6A9847002807D0A36C3E
:101D2C0000229B69E169206B98470028D2D1636837
:101D3C002A2B03D800220D355B005A55002F9BD05F
:101D4C00A2E7C0460C010020F12501089D2B0108DB
:101D5C008C01002010B5041E01D0006910BD074B8A
:101D6C001A0080321278101EF8D008330120DB6F75
:101D7C00034A044998472000F0E7C0460C010020B4
:101D8C00B02501089D2B0108F0B50B688DB005AC92
:101D9C000600032063600023207060613000A160A6
:101DAC00E360226123766376A376FFF7F7FEA57EC8
:101DBC00002D0ED06368002B02D0E368002B15D1E8
:101DCC00244B254A0833DB6F244900209847002513
:101DDC0009E0A368002B09D11E4B214A0833DB6FA5
:101DEC001E492800984728000DB0F0BD0028EED001
:101DFC00337A21788B4208D0164A00910832D46F7E
:101E0C001649184A0020A047E1E7277E002F04D08E
:101E1C003000FFF72BFF071ED9D0737A0393002BEA
:101E2C000DD00C4B104A0833DB6F0C49002098473F
:101E3C000025002FD7D03000FFF7D4FED3E70125C3
:101E4C003369746105CB9047637E5D40039B73617E
:101E5C00EFE7C0460C0100200B2601089D2B010862
:101E6C00282601083D2601085926010810B5041E34
:101E7C0004D00379032B0ED1200010BD074B1A00A0
:101E8C0080321278002AF7D00833DB6F044A0549F8
:101E9C0001209847F0E70024EEE7C0460C01002033
:101EAC00B02501086F26010870B50D00FFF7DEFFA5
:101EBC00002811D01C300400681E04280CD806F031
:101ECC00EBF9030C0E141A0000212000FFF7EDFDB6
:101EDC0000212000FFF7F3FD70BD0721F5E7092174
:101EEC002000FFF7E2FD0321F3E70C212000FFF7B0
:101EFC00DCFD0621EDE71021F8E710B50C000028F9
:101F0C0015D0037A032B12D103691B689A69586A9E
:101F1C000A60DA694A60DA8D0A819A6ACA600449F1
:101F2C0007F028F8FC21890507F024F8206110BD82
:101F3C00C2F38E4D70B504000D00FFF70FFE0028A4
:101F4C0007D024692000FFF78BFD002801D06834EE
:101F5C00258070BDF8B5174B174F9C6E3B00803336
:101F6C001B780500032B08D93B000833DB6F134AA1
:101F7C001E00134943680420B0470023002C0DD0E9
:101F8C00626DAC4207D1002B11D10A4B9A6620002E
:101F9C00FFF7AAFC0AE023001400EFE73B0008332C
:101FAC00DE6F084A6B6806492000B047F8BD5A65D9
:101FBC00EDE7C0468C0100200C0100207E260108B4
:101FCC009F260108AF260108134B10B564331B780C
:101FDC000400002B12D00068FFF7E0FD00280CD0A5
:101FEC002068FFF7FFFD2068C368002B00D09847DE
:101FFC002068FFF7AFFF0023236010BD074B1A00CA
:10200C0080321278002AF8D00833DB6F044A054975
:10201C0001209847F1E7C0468C0100200C010020FC
:10202C00E32601089F26010810B5002811DB094B97
:10203C001C006C342488A0420BDA002909DB1C003C
:10204C006E342488A14204DA1B6F8000C358490007
:10205C00CA5210BD8C010020002310B5984212DB2F
:10206C000A4A13006C331C880023A0420BDA9942F5
:10207C0009DB14006E342488A14204DA136F80004B
:10208C00C3584900CB5A180010BDC0468C01002023
:10209C00174B70B51A0074321178040000290FD157
:1020AC00144830300078CC2808D1CB3875331970EF
:1020BC00107002312000FEF7A3FA70BD0121F9E780
:1020CC00012910D10B487533303005781D701E2D49
:1020DC0003D803231370A91CECE700232000137012
:1020EC00FEF78EFAF7E70329E7D104231370E4E730
:1020FC008C0100200C010020F7B507000837FB6F9E
:10210C000400222B40D10300060060331B88683684
:10211C000193358821005E31002D12D10B889BB2C2
:10212C00002B0DD032889A420AD9236819499A6833
:10213C000A409A60184A1968E26620220A431A601B
:10214C00F7BDA26D23689446586A019A1040624606
:10215C0010800232A2650A88013A92B20A800A887B
:10216C0092B2002A0DD119680C4801401960996887
:10217C000B480140996020232000FB67E266FFF7C3
:10218C0087FF013DADB2C5E70823026891690B4397
:10219C009361D5E7FFFFFFEF5D220008FFFEFFFF15
:1021AC00FEFFFFEFF7B507000837FB6F0400222B8B
:1021BC0040D10300060060331B88683601933588D4
:1021CC0022005E32002D12D113889BB2002B0DD051
:1021DC0032889A420AD9236819499A680A409A6047
:1021EC00184A1968E26620220A431A60F7BD236870
:1021FC0001995B6A0B40A16D0B70A36D0133A36554
:10220C001388013B9BB2138013889BB2002B0ED119
:10221C0022680D4811680140116091680B4801401B
:10222C00916020222000FA67E366FFF731FF013D41
:10223C00ADB2C5E70823026891690B439361D5E7FA
:10224C00FFFFFFEFBD220008FFFEFFFFFEFFFFEFC9
:10225C0001000831CA6F70B50368222A21D105002C
:10226C0060355C6A2D88826D2C401480040002322B
:10227C0082655E342288013A92B22280228892B220
:10228C00002A0DD11C68094D2C401C609C6823351C
:10229C00FF35AC439C602023CB67C266FFF7F8FE8A
:1022AC0070BD082299690A439A61F9E7DFFEFFFFC6
:1022BC0070B504000834E26F0368222A23D10200AF
:1022CC0060325B6A12881340826D13700200836D5A
:1022DC005E32013383651388013B9BB213801388F4
:1022EC009BB2002B0ED10268094D11682940116078
:1022FC0091682335FF35A94391602022E267C366BC
:10230C00FFF7C6FE70BD082299690A439A61F9E786
:10231C00DFFEFFFF0121174B49420200D96712284B
:10232C0020D8154B800018181300203BD9B2222955
:10233C0002D89800114BC01813007F33DBB2042B6A
:10234C0005D810000C4B813880004C331818130042
:10235C003033DBB2092B04D8074BD03A92006033F0
:10236C009818704718007C30E92ADDD178331800B2
:10237C00DAE7C0468C0100200C020020B4040020D7
:10238C0010B5FFF7C7FF006810BD014B1869704707
:10239C000C0100200021102210B5074B1C691442BF
:1023AC0002D19A61FAE79A621C691442FBD101319D
:1023BC008842F3D110BDC04600040050802210B5F5
:1023CC00054B92009A610320FFF7E4FFFDF76CFFC9
:1023DC000A20FFF7DFFF10BD0004005010B50A20E3
:1023EC00FFF7D8FF8022024B92009A6210BDC046C4
:1023FC000004005000487047001BB74B0C4A70B5E6
:10240C00082415000B4806691369234203D103699C
:10241C009B1B8B4203D328690007C00F70BD72B69B
:10242C001369234200D130BF62B6BFF36F8FEBE765
:10243C00000400500C0100200122074B10B5802134
:10244C009A62A0224900D2059162802292009A627F
:10245C00FDF72AFF10BDC046000400501022084BA7
:10246C0010B59A62F132FF329A618021A0224900A4
:10247C00D205916101229A61FDF716FF10BDC0468D
:10248C0000040050B448F0B503000124B34D85B0EE
:10249C0001915C33AC621E780395A64200D1ECE04E
:1024AC00AF4E1C7033694568029303005D331B7893
:1024BC00DBB2A3420BD00434FF34A54200D0D4E0ED
:1024CC008468002C00D0D0E0042B00D0CDE0019B20
:1024DC00002B00D1C9E092B2002A00D1C5E0030064
:1024EC005D331C78042C01D005241C7004000023DF
:1024FC0008340366E287841DE287E0240199C768EB
:10250C00C364036501648163C28782870368E40046
:10251C00A74201D8012A6CD05C6892490C405C60DF
:10252C0040241968214202D119680C431C60E02434
:10253C00E400A74200D8A5E0002D01D0012A09D162
:10254C00019A1288DA60019A02328263C28F013AD0
:10255C0092B2C287002601223700806B7E4DEC8F31
:10256C00002C4BD12C000834E48F002C46D1002FCA
:10257C0000D0A863002E01D0019B2B64C022764CA6
:10258C0077482168784D52018B68134208D0036953
:10259C00029E9B1BAB42F7D9FDF7AEFD002821D163
:1025AC00802221686E48704D8B68134208D00369F5
:1025BC00029E9B1BAB42F7D9FDF79EFD002811D163
:1025CC00C02122686648684DC90093680B424CD004
:1025DC00137B029E03699B1BAB42F6D9FDF78CFD66
:1025EC00002842D02023226E134323662023236627
:1025FC003BE08024596864010C4390E79C68A10778
:10260C000ED5554CE18F00290AD0012A08D1078834
:10261C000230DF60E78F013FBFB2E787170000226F
:10262C0001219C680C4210D04B4C0834E18F0029DE
:10263C000BD0DA68019901260A800A000232019255
:10264C00E28F013A92B2E2873200454C029924693A
:10265C00641A45498C4200D881E73F4B002F00D0CB
:10266C009863002E01D0019A1A643B4B01211A0089
:10267C005D32117000225C331A700123039A93614E
:10268C0005B0F0BD002D01D0012A0CD1C28F012A5A
:10269C0051D9019A019912880231DA60C38F816392
:1026AC00023B9BB2C38701210222030094460C001B
:1026BC000833C28F002A03D1DA8F002A00D15DE7DC
:1026CC006546026897682F4211D0C78F002F0ED035
:1026DC0001290CD1C78F816B012F35D90F8802319D
:1026EC00D7608163C18F023989B2C1870021976895
:1026FC00274218D0DF8F002F15D0DF8F016C012FF0
:10270C0034D9D7680F8002310164D98F023989B26C
:10271C00D987DF8F2100012F05D8802551686D01E5
:10272C002943516021003269029D0F4F521BBA425E
:10273C0000D99AE7BDE7019A12781A73836B0133BB
:10274C008363C38F013BACE709781173816B013153
:10275C008163C18F0139C7E78C0000200004005051
:10276C000C010020FFEFFFFF87130000127B0A70A3
:10277C00026C01320264DA8F013A92B2DA87D1E745
:10278C0010B5064C206F0CF0A3FC0023220023672D
:10279C006C326E341380238010BDC0468C01002037
:1027AC00F0B5071DFE6F8BB00400002E6AD103003C
:1027BC007C33056814221E70310005A80AF06EF8EF
:1027CC00D24B9D4200D0A7E08020D14BC001196CA8
:1027DC00014319641A6C02400492049A0122596B49
:1027EC00A020114359635B6B05A913400393039B12
:1027FC00F0235B0105930223C00509920693FEF7B3
:10280C002BFDC44DC44BC5482B6233236B62233B59
:10281C00AB627033EE622B636E63AE63EE632E6459
:10282C00FEF7F8F93222BE4BBC49EB672B1DDA6779
:10283C002B000833DE672B0088331E602B004E32D2
:10284C008C331A602B0090331E602B0094331E6067
:10285C002B0098331E602B009C331E602E007C36A0
:10286C0061673000AC64FEF7D5F9C621AD4A89002A
:10287C005358A4351B021B0AA6672C6053508023A7
:10288C001B051360242301212268FB671368206950
:10289C008B431360A368E16903436069656E03436E
:1028AC000B4310682B43A04D28400343136053681F
:1028BC009E489F4D0340E06803435360A069AA42C1
:1028CC0001D0236A184393689A4E33400F26034372
:1028DC009360D06A636AB0431843D0628B488242DB
:1028EC003AD103258A4A506D934A28400132121876
:1028FC00D07F80221202914200D08CE3082800D9AC
:10290C0086E305F0D3FC86048503130385034D038E
:10291C008503850385035003884B9D42B2D18020EB
:10292C007B4B8002D96B0143D963DA6B0240029274
:10293C00029A0122596BA020114359635B6B05A9C4
:10294C0013400193019B0C23C00505930A3B06938E
:10295C000992FEF781FC95E77848824206D10C2556
:10296C006B4A506D744A28400532C0E77448824265
:10297C0001D100F049FC7348824201D100F044FCC3
:10298C00AA4201D000F006FCC0218020604A090157
:10299C00526DC0000A40824200D152E100D986E05B
:1029AC00002A00D1EAE00125674BA3660023E36609
:1029BC002367012D00D1EAE3A26A2368002A49D0DB
:1029CC00D10705D5596861480140E06A0143596057
:1029DC00910705D559685E480140206B0143596049
:1029EC00510705D559685B480140606B014359603C
:1029FC00110705D5596858480140A06B014359602F
:102A0C00D10605D5996855480140E06B01439960A2
:102A1C00910605D5996852480140206C0143996094
:102A2C0051060FD559684F4E606C314001435960C7
:102A3C0080214903884205D159684B480140A06C5C
:102A4C0001435960120605D55A6848490A40E16CA1
:102A5C000A435A605A6846490A402A215A609A68C1
:102A6C008A439A60012219680A431A6022000021E5
:102A7C00883211603F4A16691B681B0700D57BE33F
:102A8C0023681B685B0709D580213B4B3200C903C7
:102A9C002000FDF751FD002800D077E32023221DF4
:102AAC00D3670432D36700237C3423706FE3802018
:102ABC000001824200D1A9E08A4200D073E7002BCA
:102ACC0020D0012B00D108E1022B00D109E1032B0E
:102ADC0000D10AE1042B00D10AE1052B00D10BE156
:102AEC00062B00D10BE1072B00D10BE1082B00D1F9
:102AFC000CE1092B00D10CE10A2B00D10DE10B2BC1
:102B0C0000D10EE180200823000266E0003801406D
:102B1C00001002408C02002008000240AC02002091
:102B2C001C00024000E100E0F369FFCFFFCFFFFF84
:102B3C0000800040FFF4FF1140F100080044004009
:102B4C0000480040004C004001000100FFFFFDFF69
:102B5C00FFFFFEFFFFFFFBFFFF7FFFFFFFEFFFFF0E
:102B6C00FFDFFFFFFFFFEFFFFFFF9FFFFFFFF7FF01
:102B7C00FFB7FFFF0C010020FFFFFF01FEF706FB74
:102B8C00636A0121002B21D04918012B1ED0023180
:102B9C00022B1BD00231032B18D00231042B15D081
:102BAC000231052B12D00231062B0FD00431072B2A
:102BBC000CD01031082B09D02031092B06D0403114
:102BCC000A2B03D07F390B2B00D1FF3105F078FB9A
:102BDC0000230025A84200D1E6E603216268514398
:102BEC00814200D9DFE61103814200D2DBE6082BDB
:102BFC0000D95AE1180005F059FB97005801E9007B
:102C0C0058011F015801580158012201002B15D001
:102C1C00012B42D0022B43D0032B43D0042B44D0A6
:102C2C00052B45D0062B46D0072B47D0082B48D078
:102C3C00092B49D00A2B4AD00B2B4BD002239C4892
:102C4C00CBE7FEF7B7FA636A0121002B21D04918B4
:102C5C00012B1ED00231022B1BD00231032B18D0BA
:102C6C000231042B15D00231052B12D00231062B68
:102C7C000FD00431072B0CD01031082B09D0203188
:102C8C00092B06D040310A2B03D07F390B2B00D1F6
:102C9C00FF3105F015FB04239BE7022385489CE7D5
:102CAC0085489AE70223854897E70223844894E7EE
:102CBC000223844891E7022383488EE7022383484A
:102CCC008BE70223824888E70223824885E70223A8
:102CDC00814882E7022381487FE780200823C001D6
:102CEC007BE780200823800177E708237C4874E782
:102CFC0080200823400170E708237A486DE70823F9
:102D0C0079486AE780200823000166E78020C0002C
:102D1C0063E78020082380005FE7802008234000C1
:102D2C005BE70823802058E7FEF730FA616A01223E
:102D3C00002300292ED00222002301292AD00422AC
:102D4C000023022926D006220023032922D00822A0
:102D5C00002304291ED00A22002305291AD00C2294
:102D6C000023062916D010220023072912D0202276
:102D7C00002308290ED04022002309290AD08022E2
:102D8C0000230A2906D0012200230B2902D180221C
:102D9C0000235200002105F081FC00276568060E17
:102DAC000B02334302026E0892197B41100019008A
:102DBC002A003B0005F072FC3D004C4B4C4AC318FA
:102DCC00934200D9EFE52368D860EDE5636A002BE8
:102DDC0030D0012B1AD0022B1AD0032B1AD0042B73
:102DEC001AD0052B1AD0062B1AD0072B1AD0082B69
:102DFC001AD0092B1AD00A2B1AD00B2B1AD12C480B
:102E0C0000210027560880197941D2E73948F7E7A5
:102E1C003948F5E73948F3E73948F1E73948EFE73E
:102E2C003948EDE73948EBE73948E9E73948E7E74E
:102E3C003948E5E73948E3E7FEF7BCF976E7636A1A
:102E4C00002B18D0012B19D0022B1AD0032B1BD01E
:102E5C00042B1BD0052B1CD0062B1CD08020072B41
:102E6C001BD0082B1BD0092B1BD00A2B1BD00B2BD8
:102E7C0002D10002C4E780200004C1E78020C00317
:102E8C00BEE780208003BBE72548B9E780204003DC
:102E9C00B6E72448B4E72448B2E70003B0E7C00221
:102EAC00AEE78002ACE74002AAE70125002084E7E8
:102EBC000024F40000127A0000093D00AAB028009A
:102ECC0080841E00006A18005558140040420F0000
:102EDC0020A1070090D0030048E8010024F4000072
:102EEC0055150000CC0C0000AA0A000000FDFFFFE5
:102EFC00FFFC0F000000127A0000093D00AAB02868
:102F0C000080841E00006A18005558140040420FBF
:102F1C000020A1070090D0030048E801000024F431
:102F2C000055150000CC0C0000AA0A00002B21D083
:102F3C00012B21D0022B21D0032B21D0042B21D00B
:102F4C00052B21D0062B21D0072B21D0082B21D0EB
:102F5C00092B21D00A2B21D00B3B1800431E984182
:102F6C00904B40421840904BC018636861685B08F6
:102F7C0018187DE18D48F8E78D48F6E78D48F4E7A1
:102F8C008D48F2E78D48F0E78D48EEE78D48ECE789
:102F9C008D48EAE78D48E8E78D48E6E78D48E4E799
:102FAC00FEF708F937E1002B18D0012B19D0022BB2
:102FBC001AD0032B1BD0042B1BD0052B1CD0062B9B
:102FCC001CD08020072B1BD0082B1BD0092B1BD00F
:102FDC000A2B1BD00B2B02D14000C6E780204002ED
:102FEC00C3E780200002C0E78020C001BDE77A481B
:102FFC00BBE780208001B8E77848B6E77848B4E7AB
:10300C004001B2E70001B0E7C000AEE78000ACE7DA
:10301C000125002030E1082800D9C0E005F03CF97A
:10302C0005BF3BBF75BFBFBF7800FEF7AFF8636A43
:10303C000121002B21D04918012B1ED00231022B6B
:10304C001BD00231032B18D00231042B15D00231C6
:10305C00052B12D00231062B0FD00431072B0CD0CC
:10306C001031082B09D02031092B06D040310A2B06
:10307C0003D07F390B2B00D1FF31656805F020F9A7
:10308C0029006B08C01805F01BF9002580B203005D
:10309C00544A103B94E6002B21D0012B21D0022B5B
:1030AC0021D0032B21D0042B21D0052B21D0062B92
:1030BC0021D0072B21D0082B21D0092B21D00A2B72
:1030CC0021D00B3B1800431E9841474B40421840FF
:1030DC00464BC018636861685B081818D3E734481E
:1030EC00F8E73448F6E73548F4E73648F2E736486F
:1030FC00F0E73F48EEE73F48ECE73448EAE734486E
:10310C00E8E73448E6E72848E4E7FEF753F88EE7AB
:10311C00002B18D0012B18D0022B19D0032B1AD04E
:10312C00042B1AD0052B1BD0062B1BD08020072B71
:10313C001AD0082B1AD0092B1AD00A2B1AD00B2B09
:10314C00C8D00002C6E78020FBE78020C001C1E7A1
:10315C0080208001BEE72848BCE780204001B9E709
:10316C002648B7E72648B5E70001B3E7C000B1E74A
:10317C008000AFE74000ADE78021224B320089038D
:10318C002000FDF7D9F9002800D179E403252800A7
:10319C000BB0F0BD80231B02994200D138E701250A
:1031AC00002074E7B85FE60148E801000048E80138
:1031BC000024F40000127A005461510000093D0013
:1031CC0000D43000AAB0280080841E0040420F00BA
:1031DC0020A1070090D00300AA2A00009819000033
:1031EC0054150000EFFF0000DC2FF30024F4000066
:1031FC00006A18005558140055150000CC0C00003E
:10320C00AA0A0000FFFFFF0180231B02994200D095
:10321C000BE7FDF7BBFF636A0121002B21D0491896
:10322C00012B1ED00231022B1BD00231032B18D0E4
:10323C000231042B15D00231052B12D00231062B92
:10324C000FD00431072B0CD01031082B09D02031B2
:10325C00092B06D040310A2B03D07F390B2B00D120
:10326C00FF3105F02DF86568400029006B08C01887
:10327C0005F026F8002580B20300084A103B934263
:10328C0001D9FFF790FB0F2302009A4313000007AC
:10329C002268400F1843D060FFF786FBEFFF000059
:1032AC00F7B5284B284C002523600C2326006361BE
:1032BC00C02360609B0020007C36A361A560E560A4
:1032CC002561E56125626562A562FFF769FA3378CD
:1032DC00012B17D024230121271DFB672368317094
:1032EC001A68200001921A688A431A609A68D20000
:1032FC00D2089A60FDF718FA2368019A1A60202305
:10330C003570FB6725007C352B78012B16D02423D8
:10331C000121261DF367236829701F681A68200095
:10332C008A431A609A6809490A409A60FDF7FCF9C9
:10333C0023681F602023F36700232B702000FDF708
:10334C0025FAF7BD0038014040050020FFFFFFF1D2
:10335C0010B5041E21D08368002B1ED041719847F4
:10336C00237B002B18D02000FEF7F4FC041E13D096
:10337C00FEF776FB002803D0230001224A331A7093
:10338C0020000F21FEF79BFB2000FEF769FB0028B5
:10339C0002D001230634E38710BD044B80331B7825
:1033AC00002BF9D0FEF7CAFBF6E7C0460C01002053
:1033BC00F7B5040028200F000192FEF7E1FFC1B21F
:1033CC002000FFF7C5FF2220FEF7DAFF012800D00E
:1033DC00D3E02230FEF7D4FF06002000FEF7BAFC43
:1033EC000500FEF73DFB002808D0032330002B71AD
:1033FC0006F036F9704905F0E5FBA8602920FEF7C8
:10340C00BFFF81B22000FEF795FD3020FEF7B8FF1C
:10341C0005002000FEF79EFC0600FEF721FB0028AD
:10342C0001D0EDB2B5872520FEF7AAFF06002000DB
:10343C00FEF790FC0500FEF713FB002800D0AE63EE
:10344C003320FEF79DFF06002000FEF783FC0500ED
:10345C00FEF706FB002803D0731E9E414E352E70DE
:10346C002000FEF777FC0500FEF7FAFA002806D0DC
:10347C00380006F0F5F8504905F0A4FB686220000E
:10348C00FEF768FC0500FEF7EBFA002806D0019861
:10349C0006F0E6F8484905F095FBA8622420FEF7F3
:1034AC006FFF06002000FEF755FC0500FEF7D8FA6A
:1034BC00002813D0300006F0D3F83F4905F082FB0A
:1034CC003E4905F057FD011C3C4805F085FEFC21EA
:1034DC00890505F0DDF906F059F8E8873020FEF78C
:1034EC004FFF05002000FEF735FC0600FEF7B8FA8A
:1034FC00002801D0EDB2B5874020FEF741FF060051
:10350C002000FEF72BFB002807D025692800FEF7CA
:10351C00A7FA002801D060352E804120FEF730FF3D
:10352C0006002000FEF71AFB00280CD025692800A5
:10353C00FEF796FA002806D0300006F091F81E49E6
:10354C0005F040FB68664220FEF71AFF06002000DB
:10355C00FEF78CFC002827D0002E1DD0012E1BD08E
:10356C00174B1A0080321278002A1DD00833DB6FFB
:10357C00144A15490120984716E0022800D03DE76F
:10358C002000FEF7E7FB0500FEF76AFA002800D1E1
:10359C0034E701232B7131E725692800FEF760FA27
:1035AC00002801D06A352E702920FEF7E9FE81B281
:1035BC002000FEF7BFFCF7BD00007A440000B041CC
:1035CC000C010020F52601086F26010870B50500D6
:1035DC00FEF7C4F9041E03D02A00002109F05EF99D
:1035EC00200070BDCD2270B5520004000D00BC202F
:1035FC001A49FFF7EBFF00236061984228D028009E
:10360C00FEF792FA20602800FEF72AFA002802D072
:10361C002B004E331878A0732800FEF77BFA434238
:10362C005841E0732800FEF76BFA012812D02800ED
:10363C00FEF74FFA011C0A4805F0C4FA084905F0D8
:10364C0027F905F04BF8074B20613433A3610123B4
:10365C00180070BDFA20C000F5E7C0461A27010813
:10366C000000FA4440F10008F8B560227F498C2034
:10367C00FFF7ACFF041E00D1F5E07D4B05000360A5
:10368C00032303717B4B002783607B4B1C35436109
:10369C005823056103830221FFF75AFE277320008C
:1036AC00FEF758FB0600B8420BD0FEF7D9F9B8422A
:1036BC0001D04A363770A368002B02D06179200004
:1036CC0098472800FEF7CCF9002801D06B4B2364F7
:1036DC002800FEF7C5F9002801D0694B6364280067
:1036EC00FEF7BEF9002803D0230006224E331A70D1
:1036FC002800FEF7B5F9002801D00123A3622800A9
:10370C00FEF7AEF9002802D00122631CDA772800FC
:10371C00FEF7A6F9002801D0022363652800FEF706
:10372C009FF9002803D02300002248331A70280088
:10373C00FEF796F9002803D0230010227C331A8060
:10374C002800FEF78DF9002802D00022231DDA672D
:10375C002800FEF785F9002803D0230000226233ED
:10376C001A702800FEF77CF9002803D023000022F1
:10377C0063331A702800FEF773F9002803D0230076
:10378C00002264331A702800FEF76AF9002807D06B
:10379C00230000226B335A701A70013340325A8066
:1037AC002800FEF75DF9002803D02300FF227233B6
:1037BC001A802800FEF754F9002803D023000022B9
:1037CC0074331A702800FEF74BF9002804D023003C
:1037DC00002276331A70A2672800FEF741F9002800
:1037EC0003D02300012284331A802800FEF738F915
:1037FC00002803D02300012286331A702800FEF71C
:10380C002FF9002803D023000B225A331A802800EA
:10381C00FEF726F9002803D023000A2258331A8019
:10382C002800FEF71DF9002803D023000022653381
:10383C001A702800FEF714F9002803D02300012287
:10384C006A331A702800FEF70BF9002804D0802286
:10385C002300520170331A802800FEF701F900286A
:10386C0001D0084BE3612000F8BDC0464C2701088D
:10387C00D79DC0ACB51E0008153B0008CDCC4C3E06
:10388C009A99993EF1350008F7B5304D04002F0098
:10389C0064373E78002E4BD0FEF760F9002801D13A
:1038AC00002743E02369DE682A2E08D9284B294AD1
:1038BC000833DC6F28492A230020A047F0E77B78E7
:1038CC00002B02D1AB6E002B29D1238B0193204B03
:1038DC001A0080321278032A06D90833DF6F1F4A88
:1038EC0033001D490420B847BD221D490198FFF73C
:1038FC006DFE071ED4D01B4B46600360AB6E2100DF
:10390C0043656369A866984700280DD1FB68002BB6
:10391C0001D0380098473800FEF71CFBC0E75A6806
:10392C0096420DD05B6DCEE701237B723800FEBD55
:10393C00074B0D4A0833DB6F074900209847AFE768
:10394C00034B0A4A0833DB6FF6E7C0468C010020B4
:10395C000C0100206D2701089F260108862701080D
:10396C00A5270108E89EC0ACE3260108C72701087B
:10397C00F0B5446F8BB00500002C4BD0836E5A4AC7
:10398C001A60836DA2691A60C36C029303007033D2
:10399C001B880393A36900936378002B00D096E0F7
:1039AC0023780193022B42D12000FDF7FBFF002866
:1039BC0029D02000102200210830A66B08F06EFFE1
:1039CC002000236B3100DB6A06AA1830984706AB3F
:1039DC001B88E0600493638106AA927806A9227280
:1039EC00C97806AE6172377B089B277436799C4682
:1039FC0066746361002800D06EE03C4B3C4A08338F
:103A0C00DB6F3C499847394B3B4A0833DB6F3B49EA
:103A1C00002098472B000122F0331B6828005A71B4
:103A2C000022BC355A619A71B8302B6845E0019B75
:103A3C00012BBED12D4B1B6F002BBAD00098984791
:103A4C00B7E7039B0498834202D0CA21FF3148E0B8
:103A5C0048230592009A04915343294A483B9268A3
:103A6C00D3181A004232167062465A64019B022B1C
:103A7C0026D10098FDF786FF0023E3706378002BB6
:103A8C0005D1039B029A00990220FDF771FD2B00D2
:103A9C0070331B88EA6D5B0013602B6E059A1A70ED
:103AAC006B6E049A1A700123002E00D13B00012288
:103ABC00A86B1340EA6E1370436898470BB0F0BDC7
:103ACC00019B012BDAD12000FDF7EEFED6E7002694
:103ADC00370004960596D1E7029B8342B1D0E421CE
:103AEC0049000848FDF730FE3C5C64510C01002095
:103AFC00EE2701080725010835280108522801087E
:103B0C008C01002006280108F0B5CBB027AC0B9037
:103B1C008C2220000D000BF0E5FA2000FEF71EF8B9
:103B2C00002801D1002425E06379013B042B07D93F
:103B3C00BE4BBF4A0833DB6FBE4900209847F1E704
:103B4C002EA8FDF78DFF0028ECD0666D042E05D94C
:103B5C00B64BB94A0833DB6FB849EEE7042E16D1E1
:103B6C00B24BDC6E002C08D10833DB6FB44AB3497E
:103B7C002000984720004BB0F0BD6D220CA95218C4
:103B8C00D27F032A03D10833DB6FAE4AE4E7C623A6
:103B9C000CAA9B181B88162B04D9A44BAA4A0833D1
:103BAC00DB6FD9E73DAB1B88013B3E2B04D99F4B08
:103BBC00A64A0833DB6FCFE76D230CAA9B18DB7F7B
:103BCC00002E06D1032B11D1984BA14A0833DB6F81
:103BDC00C2E7032B0AD1D3330CAA9B181C78002CF8
:103BEC0004D1924B9B4A0833DB6FC0E704239E43FE
:103BFC0004D10CAAD2339B1801221A70BA230CAA36
:103C0C009B181B78062B06D0092B04D0874B924AA5
:103C1C000833DB6FA0E748AB1C88002C05D1834B25
:103C2C008E4A0833DB6F8E49A2E7F2230CAA9B184D
:103C3C001B78012B09D146AB1B88402B05D97B4B3C
:103C4C00884A0833DB6F864977E72B790B9A864CC9
:103C5C0013722100EC221020FFF7B8FC0A90902080
:103C6C00ED2221004000FFF7B1FC0A9B0700002B5E
:103C7C0001D0002808D10A98FDF736FE3800FDF770
:103C8C0033FE00230A939EE00A9B342218600B9BA0
:103C9C000021183343670B981C3008F0FFFD2EA849
:103CAC00FDF742FF05002EA8FDF7DAFE002398422F
:103CBC0003D0CA330CAA9B181B8816AC2EA82380E1
:103CCC00FDF7CEFE0023984201D03EAB1B882EA8F8
:103CDC006380FDF7C5FE0023984201D03FAB1B88E3
:103CEC002EA8A380FDF7BCFE002801D040AB1878AD
:103CFC003B0018331093E43329000C93E080042329
:103D0C0022001220FDF734FC0B9E202230360021BD
:103D1C00300008F0C3FD2EA930002E9B9847051EDD
:103D2C0019D01FAC20220021200008F0B7FD1C2266
:103D3C00002118A808F0B2FD0B9B22009B6C2EA949
:103D4C001D68300018ABA847051E47D10B9B3000EF
:103D5C009B6C5B6B98472EA8FDF7DCFE02230028BA
:103D6C0003D00123042800D000230B9A2EA813762D
:103D7C00FDF7C6FE434258410B9B58762EA8FDF723
:103D8C006FFE002803D0D6230CAA9B1818780B9B27
:103D9C003E0098762EA8FDF7C7FE05221FAB1A70C1
:103DAC00023220902192180015320C99FDF7C6FBB7
:103DBC003B00FC36728970331A80002D5AD10A9858
:103DCC00FDF7A4FD0A950B9B0A9A0A9C1A61274BD6
:103DDC000B9AD360631E9C41E4B2CBE6109B07CCDC
:103DEC0007C307CC07C306CC06C31C2218A90C9822
:103DFC000BF078F92EA8FDF783FE012812D02EA81F
:103E0C00FDF767FE011C1A4804F0DCFE184904F0AB
:103E1C003FFD04F063FC0B9B0B9AD86100235362AB
:103E2C00538498E7FA20C000F5E7C0460C01002047
:103E3C00692801089D2B0108812801089D2501088E
:103E4C0099280108D82801081A2901084E290108C7
:103E5C00A0290108DC2901081C2A0108302A0108C4
:103E6C006F260108602A01088B2A0108DD1B000857
:103E7C000000FA44F389B5899B185B006D009D42E4
:103E8C0000D21D002EA8FDF7EBFD0024A04201D0AE
:103E9C0043AB1C88AC4200D22C009822CE49520075
:103EAC002000FDF75BFD051EF06188D03B00BA1DBC
:103EBC0034623A66FA1D7A660532BA66043AFA66D4
:103ECC0014338032FB65F864BF65391D5361B4331C
:103EDC001060516018609F6250331193BF4B1A00F1
:103EEC0080321278012A61D82EA87C6FFDF71CFE57
:103EFC000C902EA8FDF7B4FD00230E93984202D02F
:103F0C0041AB1B880E9348230C9AB54E5343483B48
:103F1C000D930D9AB36800219B181A004232117050
:103F2C00B04959641199A1631900413109780F9175
:103F3C00002900D0D7E01170AA4A0C985A64FDF7FA
:103F4C0029FD236BA0695B689847051E00D1AFE083
:103F5C000C990B20FDF700FB0C220F991FA808F001
:103F6C009DFC20009F4B0D9A2093B36811999A18D1
:103F7C00236B1830DD681FABA847051E00D1AAE0E3
:103F8C000D9AB3689B18012241331A70944B0D9A09
:103F9C009B689B1819001FAA1078209A4231087050
:103FAC005A640C990C20FDF7D7FA88E00833DB6FC4
:103FBC002EA81393FDF7B8FD14902EA8FDF750FD15
:103FCC000025A84201D03DAB1D782EA8FDF748FD79
:103FDC0000231293984204D0C6330CAA9B181B885A
:103FEC0012932EA8FDF73CFD00230F93984202D0AC
:103FFC003EAB1B880F932EA8FDF732FD00230E93CA
:10400C00984204D0CA330CAA9B181B880E932EA876
:10401C00FDF726FD00230D93984202D03FAB1B8881
:10402C000D932EA8FDF776FD6F4B0C93042804D846
:10403C006E4B80001818C36E0C932EA8FDF710FD64
:10404C006B4E002809D0F2230CAA9B181B78002B6E
:10405C0003D0684E012B00D0634E2EA8FDF700FD57
:10406C00041E03D0CF230CAA9B181C782EA8FDF796
:10407C0011FD15902EA8FDF7F3FC002801D040ABE4
:10408C001878159B099008930C9B079405930D9B2E
:10409C00069604930E9B009503930F9B564A02932E
:1040AC00129B564901930220149B139CA0471BE7BB
:1040BC004A4B534A0833DE6F52490C9BB0470C985D
:1040CC00FDF760FC002D0ED1201DFDF7E5FB0A98D5
:1040DC00FDF71CFCD5E5414B4B4A0833DE6F4949D3
:1040EC000C9BB04752E70E9B002B71D12EA8FDF70D
:1040FC00B7FC002829D0D1230CAA9B181B78002BC5
:10410C0023D03B00A6692C3330000D93FDF742FC05
:10411C00A36B48210E932300714318330F93304B3C
:10412C0048399B68E06A5918236B9B689847051EB1
:10413C0006D0236B0D9A1B690E990F9898470500B2
:10414C003000FDF71FFC002DBED00E231FA80370FE
:10415C000C9B20224360072310998360FDF7EEF936
:10416C003B003800294AB0331A60294A78305A602B
:10417C00284B294AFB673B1DDA67284A0433DA6768
:10418C00274AB0331A64274A5A60274A9A60274A4A
:10419C00DA60B863BB67FDF73DFA041E0DD0B86B4F
:1041AC00F437C36898470B9B0A9A3B60204B5360CB
:1041BC00204B9360204BD36005E6084B1F4A083315
:1041CC00DB6F1F4998470A98FDF7A0FB0A94FAE5A4
:1041DC000E9BBB85B9E7C0468B2A01080C01002059
:1041EC008C010020000080FF7D39010840F100089F
:1041FC0067280108892A0108B42A01089D250108AD
:10420C00EC2A010807250108272B01080000404073
:10421C00F916000883160008211600087916000804
:10422C00794200080B1600089B15000809160008B7
:10423C007D39000851420008191900084A2B010861
:10424C006A2B010870B504001500C06C0AF04AFF17
:10425C00E36D054A1D60A36EA06B1A600022A36D6E
:10426C001A604368984770BD3C5C6451F7B5030015
:10427C000C794E79887901AD6C702E70A8705469E8
:10428C00002E0BD1A27E002A11D0E7684A69606823
:10429C00BA4200D93A0019000AF024FF2069667668
:1042AC00002803D0626929000AF01CFFF7BDA26840
:1042BC001360F3E70023F0B5140005008FB00191F3
:1042CC0008A9CB7108A99370D37013801373137161
:1042DC008B713E4A0168A2600291817B0391C17B84
:1042EC0005918189009304910169079206916B46AF
:1042FC00049A1B889A4258D9039B002B0CD008AB0C
:10430C00DE1DAB6932009B6906990298984700281C
:10431C0009D100200FB0F0BDAB6902989B6A984799
:10432C000028ECD1F5E73378002B00D1A378A370EB
:10433C00AB6908AADB69063201992800984700236B
:10434C000BAE33703372AB69079A1B6A0A907260BA
:10435C001F000AAA330001992800B847337A002BB2
:10436C0000D1237B36782373331E00D1237923713C
:10437C00A1680C9808F04EFC08AB06331B78A060C3
:10438C00002B00D1E378E3700A9A23883100D3180C
:10439C002380AB6928005B6A9847059B002B07D0EC
:1043AC00049B009A013B9A4202D1019B1868B1E729
:1043BC00039B002B03D1009B0133009397E7AB6960
:1043CC0002989B6A98470028F5D1A2E7000080FF6D
:1043DC00F7B5446901922500B8351E002B88002BD7
:1043EC0037D02200B43217880A687F00D7190168C9
:1043FC003A000120FDF7BCF8012300202D889D42D6
:10440C0029D805F0E3F8071C681E05F0DFF8011C3D
:10441C00381C04F0D7FB08F029FD144904F0AAFD60
:10442C0013497060012504F025F9002800D1051C02
:10443C000023226C35709A4204D12300BA331A78C7
:10444C0001235340012213403372B4342388019A60
:10445C0013600120FEBD39887A880133521AD117B6
:10446C0052184A4080189BB20237C8E70000A0419E
:10447C000000644210B5FDF7BBFA011C041C054892
:10448C0004F0A0FB08F0FCFB011C201C04F072FDE6
:10449C0010BDC046F902154F70B50400FFF7EAFFD6
:1044AC00051C200005F092F8041CFE20291C800538
:1044BC0004F088FB011C201C04F05CFD034904F093
:1044CC0059FDFC21890504F055FD70BDC2F38E4DDC
:1044DC0070B5041CFFF7CEFF211C061C201C04F039
:1044EC00D7F9051CFE20311C800504F06BFB0C4930
:1044FC0004F040FD011C281C04F064FB0021051C89
:10450C00201C04F0A3F8002807D1FC218905281CE5
:10451C0004F0BEF905F03AF870BDBF210906F6E7C4
:10452C00C2F38E4DF0B5A1B008930B0032331B785B
:10453C000A900F000B92062B09D0092B07D0B84B11
:10454C00B84A0833DB6FB849002098474EE10A9B04
:10455C0038005D69FDF784FA002843D03B002C330A
:10456C001B78002B3ED03800FDF77AFA0024A042CD
:10457C0001D03423FC5E23B238000793FDF770FAA8
:10458C000023A4B2984201D03622BB5EE41823B2B9
:10459C0038000693FDF764FA0021884202D03B00F4
:1045AC0068331988069B079A981A03F0F9FF0C1EBA
:1045BC000FDD9B4B1A0080321278012A05D9083383
:1045CC00DB6F9A4A984902209847069B1C1B23B222
:1045DC000693069B079A934221DA914B944A08332F
:1045EC00DB6FB0E73800FDF73BFA0026002800D05F
:1045FC007E6A3800FDF734FA00280ED0B86A311CF8
:10460C0004F046F9041C301CFFF762FF03B2201CB7
:10461C000793FFF75DFF03B2BAE70020EFE738001E
:10462C00FDF71EFA002805D03B006E331B78002BDB
:10463C0000D0E2E13B002E331B78002B00D1D8E0F8
:10464C003A8E13B2013B07205B019BB21900520159
:10465C001A3A12B2D4170440A218D210D2000F3951
:10466C008C1A079A24B2944200DCEFE06C4B1000D9
:10467C000833DB6F0893FFF70FFF002103F0E6FF11
:10468C006C4F002800D16C4F0798FFF705FF051CF5
:10469C000798FFF701FF002103F0D8FF002800D195
:1046AC00ABE06649281C04F065FC654904F0F0F8A1
:1046BC0004F014F809900798FFF7EEFE051C079814
:1046CC00FFF7EAFE002103F0C1FF002800D197E0BC
:1046DC005A49281C04F04EFC594904F0D9F8051C21
:1046EC000798FFF7D9FE061C0798FFF7D5FE0021A7
:1046FC0003F0ACFF002800D185E05049301C04F0D9
:10470C0039FC4F4904F0C4F803F0E8FF04F0A8FFAB
:10471C00011C281C04F060FD4A4904F02BFC03F03A
:10472C00DDFF07902000FFF7B7FE002103F08EFF9E
:10473C00404B0693002801D13F4B06932000FFF716
:10474C00ABFE051C2000FFF7A7FE002103F07EFF47
:10475C0000285BD03949281C04F00CFC384904F0C3
:10476C0097F803F0BBFF05002000FFF795FE061C31
:10477C002000FFF791FE002103F068FF002848D0CD
:10478C002E49301C04F0F6FB2D4904F081F8061C70
:10479C002000FFF781FE0A902000FFF77DFE00212C
:1047AC0003F054FF002837D024490A9804F0E2FBA8
:1047BC00234904F06DF803F091FF04F051FF011C44
:1047CC00301C04F009FD1F4904F0D4FB03F086FFF4
:1047DC00069B04900293079B00200193099B1A4AA5
:1047EC0000933B001049089C0395A047002021B082
:1047FC00F0BD3B0032331A7823E7FE21890551E7DF
:10480C00FE21890565E7FE21890577E7FE218905EB
:10481C00A1E7FE218905B4E7FE218905C5E7C0465D
:10482C000C0100207A2B01086E250108A52B01082C
:10483C00D82B0108372E01087D390108000080BFF4
:10484C00BD37063500247449072C0108303B1CB2D7
:10485C00069B9C4200DBD0E0D64B06980833DB6FFE
:10486C000793FFF719FE002103F0F0FED24F00284A
:10487C0000D1D24F0698FFF70FFE051C0698FFF7E4
:10488C000BFE002103F0E2FE002800D1A3E0CC498E
:10489C00281C04F06FFBCB4903F0FAFF03F01EFF5A
:1048AC0008900698FFF7F8FD051C0698FFF7F4FD35
:1048BC00002103F0CBFE002800D18FE0C049281C5A
:1048CC0004F058FBBF4903F0E3FF051C0698FFF703
:1048DC00E3FD061C0698FFF7DFFD002103F0B6FE92
:1048EC0000287ED0B649301C04F044FBB54903F0D7
:1048FC00CFFF03F0F3FE04F0B3FE011C281C04F000
:10490C006BFCB14904F036FB03F0E8FE0990200083
:10491C00FFF7C2FD002103F099FEA74B0693002878
:10492C0001D1A64B06932000FFF7B6FD051C200015
:10493C00FFF7B2FD002103F089FE002854D0A049F6
:10494C00281C04F017FB9F4903F0A2FF03F0C6FEDE
:10495C0005002000FFF7A0FD061C2000FFF79CFDC2
:10496C00002103F073FE002841D09549301C04F05F
:10497C0001FB944903F08CFF061C2000FFF78CFD13
:10498C000A902000FFF788FD002103F05FFE00284D
:10499C0030D08B490A9804F0EDFA8A4903F078FF7D
:1049AC0003F09CFE04F05CFE011C301C04F014FCB3
:1049BC00854904F0DFFA03F091FE069B0490029304
:1049CC00099B03950193089B804A009380493B0007
:1049DC000020079C09E7FE21890559E7FE2189057E
:1049EC006DE7FE2189057EE7FE218905A8E7FE21FA
:1049FC008905BBE7FE218905CCE73800FDF730F8C7
:104A0C0000230993984203D03B0068331B88099319
:104A1C00069B079A0999981A03F0DCFC013083B2C3
:104A2C0038000C93FDF736F80C9B584383B23800D2
:104A3C000E93FDF715F80023984209D03A004F3237
:104A4C003B0012785233511E8A411B88524213404C
:104A5C002A00B83213800E9AD31880221201934286
:104A6C0004DD544B5B4A0833DB6F6CE53800FCF714
:104A7C00F7FF0024A04201D0BC8FE4B23800FCF751
:104A8C00EFFF0626002802D03B0032331E78380098
:104A9C00FCF7E6FF03230C9A5A430F92002804D02C
:104AAC003A006A321278002A3CD1072044430C9B0E
:104ABC000D345C4366430F9BF3181793FFF7DAFC36
:104ACC00F421890504F056FA18903800FCF7C8FF59
:104ADC00002836D0179804F0C3FD7E6E041C00210C
:104AEC00301C03F0C7FD00282BD0311C189804F0A3
:104AFC0069F8211C04F070FB041C0F9804F0B0FD45
:104B0C00011C201C04F05EF8FC21890503F0C0FE9A
:104B1C0004F03CFD109000280BDA264B2E4A08338B
:104B2C00DB6F10E50F9A0F9354430F346643D43662
:104B3C00C1E72A4B984205DD1E4B294A0833DB6F2F
:104B4C0001E510902B00109AB6331A803800FCF750
:104B5C0087FF002802D03B00473318782B000E9AB1
:104B6C00BA331870063B1A803B002E331B78002B8F
:104B7C001CD03C8E6A4601260A9B9C80079B938620
:104B8C000A9B079A9E811A810C9A5A81099B013BB8
:104B9C00072B06D80999082003F002FD1191002972
:104BAC0022D0044B0F4A0833DB6FCCE43B0032338A
:104BBC001C78DFE70C010020372E01087D39010835
:104BCC00000080BFBD37063500247449442C010811
:104BDC006E250108812C0108E12C0108FEFF000064
:104BEC00022D0108222D010824B2013C6401A3B25C
:104BFC00199318006B460F389B8E80B21C1A24B286
:104C0C00E3101B93069BE210181A03B20D93B61A0D
:104C1C00DB10F618B6B233B209990820129303F0E0
:104C2C00D9FB7B4B14901C40169304D50823013CF4
:104C3C005B421C43013424B2002C01DA083424B248
:104C4C000999200003F0ACFC4C226B4613919B1885
:104C5C000021595E149B0D98013B1A931A9A099BDB
:104C6C005343139A9B189BB21AB21592169A104082
:104C7C0004D50822013852421043013002B20D9281
:104C8C00002A03DA1000083002B20D92129A012A9F
:104C9C0074D110009446A14206D115990D9A8A1A26
:104CAC0011004A1E91418C46624602401492002229
:104CBC0000201692149AB61A169AB61A32B2159297
:104CCC00149A824209D0129A012A01D16B469B8E0A
:104CDC00181B099903F07EFB80B205220A9B5E69C2
:104CEC001B9B3100DB00D31A32008C310B60199BFB
:104CFC001399323B1BB29032E418CB18536033003B
:104D0C001460149A98331A603200159B1599DB17AE
:104D1C005B1A9C32DB0F13603300169AA0331A60B7
:104D2C001A9A58609A600D9B139A3400981A099934
:104D3C0003F050FB0023159AAC3420609A4201DD3D
:104D4C001300013BB03633603800FCF789FE2B00B2
:104D5C007033002804D03A006A321278002A19D134
:104D6C0000221A702E233800AB66FCF7C9FE03280C
:104D7C0016D8002303F090FA1022263A091B481E7D
:104D8C008141CAB2149215990D9A8A1A511E8A4100
:104D9C00D2B28DE70122E4E76B62AB62EB622B636C
:104DAC003800FCF7B7FE042837D80023012203F0A3
:104DBC007DFA2B002B001B011E01310001226B62BE
:104DCC00AA62EBE73800FCF784FE041CFCF710FE2B
:104DDC00211C03F0F7FE03F081FC01236B6200231E
:104DEC00AB62030C80B2EB622863D9E73800FCF7A6
:104DFC0070FE041CFCF7FCFD211C03F0E3FE03F029
:104E0C006DFC01236B62EBE76A63AA63EB6304E05E
:104E1C00070000806A63AA63EA633800FCF720FE8F
:104E2C000023040098420BD03B0050331B781C939A
:104E3C003B0052331B881D933B004F331C782300DF
:104E4C002A000832D367002C03D01D9B8032013B13
:104E5C0013603800FCF704FE002805D03B004733F4
:104E6C001B78002B00D0C4E01C9B002C00D0C1E0B0
:104E7C0001242300119A380093432B64FCF7F0FDB6
:104E8C00002802D03B00483318786040C0B26864F8
:104E9C00AC643800FCF7E4FD002800D1ACE0BB8F1B
:104EAC00DBB2012B00D8A7E0EC64023B2B65380089
:104EBC00FCF7D6FD0023984200D0FB8F6B653800C1
:104ECC00FCF7CEFD0023984201D0BB1CDB8FAB65F9
:104EDC003800FCF7C5FD0023984201D03B1DDB8F49
:104EEC00EB653800FCF7D6FD28663800FCF7B8FDFA
:104EFC000023984202D03B0068331B88AB67380014
:104F0C00FCF7AEFD002802D03B004E33187801248C
:104F1C006040C0B20A9BE8679B886B660A9B5B8902
:104F2C00013BEB660A9B5B690D93B6331B886B6781
:104F3C00FCF75EFD2B1DD867FFF79CFA071C099840
:104F4C0004F08EFB061CFE20391C800503F03AFE93
:104F5C00011C301C04F00EF80B9BB835D860109B6C
:104F6C000F985843179BC01804F07AFB011C189833
:104F7C0003F028FE0B9B18610798FFF78DFA0B9B2B
:104F8C0018600698FFF788FA0B9B1968986004F074
:104F9C0023F90B9B0E9A5860DA8200230B9A0E9918
:104FAC0093821483089A1320118051810C99538099
:104FBC0011810E99138391800C99D4809182D182A6
:104FCC0014821E2218A952180A991380096823000A
:104FDC00FCF7CEFA2B88089A0333D38180235B002D
:104FEC0093812000FFF703FC6A63AB630EE76B63EE
:104FFC00FBE7012311933BE70023EB6456E770B505
:10500C001E000C0015000B00013A09D2094B6A0076
:10501C009B6F21009847002E01D0013D05D270BD39
:10502C00198849BA19800233EEE723885BBA2380CA
:10503C000234F2E70C010020A02330B5DB0185B06F
:10504C00194302AC21800A2105000192694401A890
:10505C000122FCF7A9F90023032221002800FFF705
:10506C00CEFF05B030BDF7B5150008AA06001078C4
:10507C00AA0054580F229443104A11008031097829
:10508C00002810D01C43032907D908320093D76F8E
:10509C002B000B4A0B490420B84729003000220092
:1050AC00FFF7CAFFF7BD0329F7D90832D76F2B00DA
:1050BC00054A04490420B847EFE7C0460C0100201C
:1050CC000C230108422301083E2D0108F0B51E00F7
:1050DC00454B14001A008BB00591803212780500F4
:1050EC00032A08D9109A08330092DF6F3F4A330025
:1050FC003F490420B8470027F600A41963889F4253
:10510C0001D30BB0F0BD06227A4363689A1810786D
:10511C00012858D000280AD002285FD0324B3449DD
:10512C000833DB6F334A00209847E72117E0538898
:10513C00029313790393537904930123049A9340B4
:10514C00109A9A420ED3013B0193274A109B0832C6
:10515C000093D46F2649029B274AA0472921274850
:10516C00FCF7F2FA029A264B07AE13433380012365
:10517C00738012230100B08004A81B1804221800AD
:10518C0007F08CFB0123052231002800FFF737FFC5
:10519C00122304AA9B18180006A9FBF7BFFA2022B9
:1051AC00049B0399D21A01235B42D340039A280033
:1051BC009340069A9A43109B8B4002991A43FFF72F
:1051CC003BFF01379AE710995388481E814192881A
:1051DC00009128000599FFF746FFF2E710995388D4
:1051EC00484241419288F3E70C0100206D2D0108E3
:1051FC0042230108C72D01088F2D0108B624010890
:10520C0000A0FFFF37B5456901242B00BA331B788A
:10521C0019432B6C4C405A4253418B4206D000949C
:10522C00EF23044A04490068FFF750FF2C64012067
:10523C003EBDC04688FE0008F8120108F0B50027F4
:10524C001F4B87B05B6D03905B080291033B16000C
:10525C000021062204A8019307F020FB029D002EDA
:10526C0003D10298063007B0F0BD019CB44200D9BE
:10527C003400019BB34202D201231C421ED1114BBC
:10528C00E21C3B432B80A3B2013B6B800023290023
:10529C00AB8003980133FFF7B2FE04A90622280065
:1052AC0009F020FF361BA3B264002D19FF1806224B
:1052BC00290004A8BFB209F015FFD0E7013CDBE7D9
:1052CC000C0100200080FFFFF7B500264369167023
:1052DC001A00B833B43214881B880768E4180D0020
:1052EC00220038000968FFF7A9FF3900019023005C
:1052FC0002003000FCF73CF928686200019909F0C3
:10530C00FAFE2000FEBD802313B55B0101AC1943EE
:10531C0021806280002302222100FFF770FE13BD62
:10532C00C02313B59B0119436B46140019806A46C0
:10533C00002369465380938001330322FFF75FFEFD
:10534C006B469B88238013BDF8B507000D001E002B
:10535C00013A94B264008A1CA418298832003800DF
:10536C000235FFF7DDFF0236A542F6D1F8BDF0B5E8
:10537C001D4C97B0230080331B780500012B06D9F8
:10538C0023000833DB6F194A194902209847012280
:10539C00B2212800FFF7B7FF00230EAF3B80643328
:1053AC0009933A0011212800FFF7BAFF80223B88AD
:1053BC00D200134220D0220080321278012A0BD95D
:1053CC0022009B059B0D08320093D36F08491E00E9
:1053DC00084A2B000220B047099E013EB3B2099344
:1053EC00002BDED118E0C0460C010020F92D01087D
:1053FC00392E01084C2E0108220080321278012A25
:10540C000AD922009B059B0D08320093D66F2B0006
:10541C00CF4AD0490220B04700260BAA3100280001
:10542C001680FFF77DFF262202ABD2182A21280016
:10543C001680FFF775FF02AB0CAA282128001E85E9
:10544C00FFF76EFF3B001022C3492800FFF77CFFDB
:10545C00230080331B78012B17D92300FA890833DA
:10546C000792BA89BB4906927A89022005923A8939
:10547C000492FA880392BA8802927A8801923A8846
:10548C000092DE6FB54A2B00B047230080331B78A7
:10549C00012B17D92300FA8B08330792BA8BAD492D
:1054AC0006927A8B022005923A8B0492FA8A039226
:1054BC00BA8A02927A8A01923A8A0092DE6FA84ADC
:1054CC002B00B047A4493B00042220312800FFF7F1
:1054DC003BFF230080331B78012B0FD92300FA8864
:1054EC0008330392BA889B4902927A88022001926F
:1054FC003A880092DE6F9B4A2B00B0472A22002686
:10550C0002ABD218532128001680FFF709FF3A008E
:10551C00402128003E80FFF703FF230080331B78D7
:10552C00012B09D923003A8808330092DE6F8E4A8A
:10553C002B0088490220B047230080331B78012BB5
:10554C000ED940223B8821001A4001928022134040
:10555C0008310093CE6F2B00844A7E490220B0475D
:10556C00230080331B78012B0ED910223B8821009D
:10557C001A4001922022134008310093CE6F2B0069
:10558C007B4A74490220B047230080331B78012BDF
:10559C000ED904223B8821001A40019208221340A4
:1055AC0008310093CE6F2B00724A6A490220B04733
:1055BC0069493B00102228312800FFF7C5FE230063
:1055CC0080331B780026012B0AD923003A88083334
:1055DC000092DE6F684A2B005E490220B04701261C
:1055EC00230080331B78012B0ED9731CDBB209937B
:1055FC0023007600BA5B08330092DE6F5F4A2B0003
:10560C0054490220B047099E01230993230080339B
:10561C001B78012B12D92100731C0EAA5B009B5A1C
:10562C000831029373009B5A02200193099B544A40
:10563C000093CB6F47491F002B00B847099B0236DC
:10564C000133F6B20993082BE0D100260DAA9D2157
:10565C0028001680FFF764FE2E2202ABD218992187
:10566C0028000EAF1680FFF75BFE3A00962128004B
:10567C003E80FFF755FE3200B2212800FFF743FEB3
:10568C00230080331B78012B12D902AA128D230020
:10569C000292262202A952181288083301920BAAF0
:1056AC0012882C490092DE6F364A2B000220B0473C
:1056BC00230080331B78012B0CD92A22230002A94A
:1056CC005218128808330092DE6F2F4A2B002149A2
:1056DC000220B047230080331B78012B0AD923000A
:1056EC000DAA128808330092DE6F284A2B00194944
:1056FC000220B047230080331B78012B0CD92E22BB
:10570C00230002A95218128808330092DE6F204A37
:10571C002B0010490220B047230080331B78012B4B
:10572C0009D923003A8808330092DE6F194A2B00FE
:10573C0008490220B047230080331B78012B05D980
:10574C000834E36F144A03490220984717B0F0BDA0
:10575C00692E0108392E0108C0F10008862E0108B7
:10576C00CD2E0108162F0108472F0108642F0108C0
:10577C00902F0108C12F0108F12F010818300108E2
:10578C00363001085E300108AF300108D230010814
:10579C00EE300108043101081E3101086523F0B513
:1057AC00050089B0059104920393494C0599280092
:1057BC00636F9847061E0BD10834E46F2B00454AE3
:1057CC004549A0472800FFF7D2FD300009B0F0BDD5
:1057DC000E2704ABFF1800233A002A2128003B8037
:1057EC00FFF79EFD40223B88134252D03A002821FD
:1057FC002800FFF795FD3A880499D3B20B704A80C4
:10580C000B2B3BD8180002F03DFD061BE0E0E0E05E
:10581C00E0E0E0E0E0E02E4B304A0833DC6F2B0098
:10582C002D490020A0472800FFF7A1FD284B2C4A4A
:10583C000833DC6F28492B000020A0470026C4E762
:10584C00110A102904D801238B4026490B4205D19B
:10585C008423D2B29B011A43049B5A801C4B0833FD
:10586C00DC6F049B5A88204B120A013AD2B2202AD0
:10587C0002D81E4B9200D3581D4AD1E7009508342C
:10588C001C4AE46F14490020A0470022049B1A70A4
:10589C00C9E7230080331B78002B07D02300083383
:1058AC00DE6F154A2B000C490120B047039B013BCE
:1058BC009BB20393002B00D077E700950834E46F7C
:1058CC0064330E4A04490398A047039E7DE7C04603
:1058DC000C0100206C31010894310108A43101083D
:1058EC0016320108160001005E310108900701080C
:1058FC00C7310108E73101083E3201085F32010867
:10590C00F0B585B003AC170022000600FFF746FF88
:10591C00051E35D022786388062A27D11A0525D58D
:10592C008022D20013402ED1002F00D03B70638810
:10593C00DB050BD5174B1A0080321278032A05D9D8
:10594C000833DB6F144A15490420984763889B057C
:10595C0016D5104B1A0080321278032A10D908334E
:10596C00DB6F0F4A0D490420984709E0094A009360
:10597C000832D46F33000B4A08490020A047002599
:10598C00280005B0F0BD31000F20FBF7E5FD2B0022
:10599C00CAE7C0460C010020C83201089431010846
:1059AC00E13201089832010873B56B469C1D002347
:1059BC002200382105002380FFF7B2FC2488012047
:1059CC00002C0BD1064B074A0833DE6F06492B001F
:1059DC002000B0472800FFF7CAFC200076BDC04667
:1059EC000C010020F932010894310108F0B585B0A2
:1059FC0003AE1500320004001F00FFF7CFFE002895
:105A0C000ED03178A9420DD0094A0A4B009101956C
:105A1C000832D46F00204833074A0849A0470020B9
:105A2C0005B0F0BD002FFBD02000FFF7BDFFF7E75E
:105A3C000C010020C0F100082A3301089431010840
:105A4C0010B501230B22FFF7D1FF10BD30B50E2589
:105A5C00002485B06D4421002A002C80FFF760FCE7
:105A6C002988074B0120994208D0064A0091083238
:105A7C00D56F2000044A0549A847200005B030BD69
:105A8C00121100000C01002055330108943101085B
:105A9C0013B56B469C1D0023220011212380FFF7B8
:105AAC003FFC20884005C00F16BDF0B5394E0400F0
:105ABC00706D85B052084008904200D91000012743
:105ACC000231196001380A9BB8431860002303ADFA
