:020000040800F2
:1000000000900020359000087368000877680008A9
:1000100000000000000000000000000000000000E0
:1000200000000000000000000000000075680008EB
:10003000000000000000000071680008616800080E
:100040008590000885900008FD67000885900008ED
:100050008590000885900008F3670008E9670008AC
:1000600085900008D9670008C967000885900008D6
:10007000859000088590000885900008859000080C
:1000800085900008859000088590000885900008FC
:100090008590000885900008859000083167000869
:1000A00085900008859000088590000895650008F7
:0C00B000859000088590000885900008ED
:1000BC0010B5064C2378002B07D1054B002B02D032
:1000CC00044800E000BF0123237010BD7000002025
:1000DC0000000000B49F0008044B10B5002B03D0A7
:1000EC000349044800E000BF10BDC04600000000FA
:1000FC0074000020B49F0008E020164B10B51A685D
:10010C0051688143516082215868490088420CD162
:10011C00802099680002814203D08020C000814277
:10012C0003D140201168814311608020996A8001BD
:10013C00814206D11068084C2040106010680143C1
:10014C0011601A0001215D32117000225C33032012
:10015C001A7010BD8C000020FFDFFFFF1C4B022229
:10016C001900F0B58C310C781000012C2FD001380F
:10017C00087019008D310A70CA21FA2704255A6EAD
:10018C0014485162773951629169134C0140916165
:10019C0091691248BF00014091612669D1682940DC
:1001AC0009D0FF2151621A0000208D32FE398C33A8
:1001BC00117018700BE02069801BB842EED9FF203B
:1001CC0050621A00FC388D328C3310701970F0BDEF
:1001DC008C000020FFFBFFFF0C010020FFBFFFFF86
:1001EC00F7B52C4A022314008C342578070018002C
:1001FC00012D4DD00138207010008D300370CA20B5
:10020C00536E254C58627738586298692040042404
:10021C009861D86D2043D8652048C068400609D441
:10022C000194FA24A400A4461D4E3069DC68019D9B
:10023C002C4021D007245F619869A043986198698C
:10024C0001439961802117480903C46F2143C16799
:10025C0080219869C9010143996180219869C9007D
:10026C0001439961FF215962130000208D33FE393F
:10027C008C32197010700BE035692D1A6545D5D983
:10028C00FF215962130003208D338C3218701470C7
:10029C00FEBDC0468C000020FFFBFFFF0028004085
:1002AC000C01002004180240002310B50E4C032151
:1002BC001F202375FFF794FF237D002B04D0002310
:1002CC002375FFF74BFF10BD72B6BFF34F8FBFF313
:1002DC006F8F237D002B00D130BF62B6BFF34F8FE1
:1002EC00BFF36F8FE8E7C0460C010020A02130B5AA
:1002FC00FA252020094BAD005B6EDA688A43084969
:10030C00DA600C69DA68024201D0002030BD0A695B
:10031C00121BAA42F6D90320F8E7C0468C00002035
:10032C000C010020802210B5104CE3689343E3606D
:10033C00A369603A134208D1FFF7D8FF002803D015
:10034C0003200B4B8D33187010BDA3699343A3612D
:10035C00FFF7CCFF002803D00320054B8D3318701A
:10036C002023A2691343A361EEE7C0460028004096
:10037C008C0000201049F0B54B6E0020DA68520654
:10038C000FD48022DC6803252243DA60FA22920023
:10039C0094460A4C26694027DA683A4201D1032870
:1003AC0000D1F0BD2269921B6245F5D90A008D324D
:1003BC0015702800EFE7C0468C0000200C010020CF
:1003CC0070B50468114EE5690D40A94201D10020B9
:1003DC0017E05D1CF7D03569AD1AAB4212D2236819
:1003EC000B4A13402360A368A332FF329343A360EC
:1003FC002023021DD3670432D36700237C300370A3
:10040C00032070BD002BDED1E9E7C0460C010020B3
:10041C005FFEFFFFF7B52C4B056804001421E818AC
:10042C0006F042FA83002364A31D01930223A21D4C
:10043C00D3772B68254A264F13402B60A3682A6874
:10044C000193802301990B4313432B60214B1421FF
:10045C00C018FF231D40860028006664A764083876
:10046C0006F022FA1C2301211840814080220198B9
:10047C00E164D201E333904201D1002262606268F0
:10048C001340013A33607960032A17D8124A134893
:10049C0099180322013B1340023A9A40A2651300BB
:1004AC0000228900216560650A60436000200123F9
:1004BC00E063A21D0534D377E077FEBD00232365EE
:1004CC006365A365F2E7C046F8FFFDBF0F80FFFF31
:1004DC0080080240008200103F8200104009024058
:1004EC00FA2318499B000A698020D218164B30B5A4
:1004FC001C0040021D69054210D180251869134A61
:10050C00ED05024012481861986928400BD09C698F
:10051C00024304439C61CA61012003E00D69AA42B5
:10052C00E8D8032030BD002AF5D1FA220B699200DD
:10053C009B188022D20220691040F3D008698342B4
:10054C00F9D8EEE70C01002000200240FAC30000AD
:10055C00FBC300002C4B30B51A1DD26F04000220D7
:10056C00202A3AD10138002C37D0002935D08025EB
:10057C009A686D01AA4204D11D69002D01D1044273
:10058C002BD118007C3005780220012D25D01800C5
:10059C005430018018005630018019000020883139
:1005AC000860191D2130C867802080211C655C6E95
:1005BC0080054901844213D18A420FD11A69002A5D
:1005CC000CD1124A1A671A0000207C3210701A687B
:1005DC00802391681B040B43936030BD0C4AF1E7F8
:1005EC008A420ED11A69002A0BD10A4A1A671A00DC
:1005FC0000207C3210701A68802311680B43136042
:10060C00EBE7054AF2E7C046386A002039140008C7
:10061C0095140008ED1400082D150008494B70B511
:10062C001A000832D26F04000220202A59D1013856
:10063C00002C56D0802299685201914206D11A6939
:10064C00002A03D1404A303202424AD11A007C328D
:10065C0015780220012D44D0013810703A4A8020C0
:10066C0030329A651A005C3214801A005E321480A3
:10067C0000224001DA66814238D11A69002A31D150
:10068C001A003248603210801800002588301A0099
:10069C00056022200832D0671A68213895685E6E92
:1006AC002843906080258020AD054001AE4237D1B3
:1006BC001D0068352D88A54232D881422ED119698A
:1006CC0000292BD122490020D9667C331870802355
:1006DC0011685B000B431360802391685B050B432F
:1006EC00936070BD1A00FF206032CCE7002906D160
:1006FC001A69002AF6D01A007F206032C3E78020E6
:10070C004005814206D11A69002AF4D01A003F2014
:10071C006032B8E7180060300280B5E70D49D2E7C7
:10072C0081420DD1196900290AD10B490020D966E3
:10073C007C331870902311685B000B431360D0E777
:10074C000649F3E7386A00200C010020FF01000085
:10075C00C9120008CD07000875130008D51300084E
:10076C00164B10B51A005032107800280ED1190013
:10077C0030310978CC2907D1CB395133187011702D
:10078C000230FFF74BFF10BD0120FAE701280FD113
:10079C00190030310C7851331C701E2C03D80323F4
:1007AC001370A01CEDE700231370FFF737FFF8E779
:1007BC000328E8D104231370E5E7C0460C010020A0
:1007CC00F7B507000837FB6F0400222B3FD103005D
:1007DC00060060331B8868360193358822005E3230
:1007EC00002D12D113889BB2002B0DD032889A4267
:1007FC000AD9236819499A680A409A60184A1968F4
:10080C00E26620220A431A60F7BD236801995B6AED
:10081C000B40A16D0B70A36D0133A3651388013BD5
:10082C009BB2138013889BB2002B0DD122680D480C
:10083C0011680140116091680B48014091602022C1
:10084C00FA67E366FFF78CFF013DADB2C6E70823FC
:10085C00026891690B439361D6E7C046FFFFFFEF37
:10086C00D5130008FFFEFFFFFEFFFFEF836910B5F5
:10087C000400002B0BD0144B1A0084321278002A7F
:10088C0005D088331B68114A114901209847E36948
:10089C00002B0BD00C4B1A0084321278002A05D096
:1008AC0088331B680B4A0A49012098476369012069
:1008BC00002B07D0044B002088331B68064A0449E0
:1008CC009847002010BDC0460C0100205CCF0008EA
:1008DC006DCF000883CF000892CF0008704710B589
:1008EC000400C26B816B236C006998470022A36BD8
:1008FC005A6110BD836910B50400002B0BD00F4B4F
:10090C001A0084321278002A05D088331B680C4AEE
:10091C000C4901209847E369002B0BD0074B1A00B8
:10092C0084321278002A05D088331B68064A0549A0
:10093C000120984720688368984710BD0C0100205F
:10094C005CCF0008B9CF000883CF000810B5006851
:10095C00C368984710BD70B50400436A4569826B43
:10096C0019680069E36B98472870206843689847BA
:10097C0070BDF8B506000C001248111C06F0E2FE22
:10098C00104906F0D5FBC7210906071C06F0A8FD87
:10099C0007F0B2F80C4905B2381C06F0A1FD07F0BF
:1009AC00ABF86408640000B23419A64201D10020EF
:1009BC00F8BD0023F25E904202DD02369542F4DB74
:1009CC000120F5E70000C84200FEFF46F8B506001E
:1009DC000C00101C1249171C06F0AAFB114906F05A
:1009EC007FFD06F031F9391C85B20D4806F0AAFEE0
:1009FC000B4906F09DFB0B4906F072FD06F024F93D
:100A0C006408640080B23419A64201D10020F8BDFC
:100A1C003288904202D902369542F5D30120F6E78E
:100A2C000000C84200FF7F4701380023292802D864
:100A3C00024B1818037B0120184070478C010020D2
:100A4C00F7B506680D003248311C06F071FBFC212D
:100A5C00890506F0D3F906F0F7F82E4984B2301C5C
:100A6C0006F070FE2C4906F03BFD2C4906F0C6F949
:100A7C0006F0EAF82300103B9BB22881EF2B2CD90F
:100A8C00274B00218833301C1F6806F095F800288E
:100A9C001FD0244C2449301C06F022FD234906F0BB
:100AAC00ADF9061C06F0D0F8050007F08FF8011C14
:100ABC00301C06F047FE1E4906F012FD06F0C4F885
:100ACC0000950190230000201A4A1B49B8470020CA
:100ADC00FEBDFE21194C8905DDE73F2C09D800220B
:100AEC006A802F2C00D92300AB80EA802C80012057
:100AFC00EEE701236B80E308BF2C03D82300403BB7
:100B0C00DB109BB2AB8007232340EB80EEE7C046A3
:100B1C00F902154F8096984BE8385BB500007C4283
:100B2C000C010020D2CF0008000080BFBD37063575
:100B3C0000247449D4CF0008FFCF000880E30008DC
:100B4C000C2310B504785C43034B1B195C68002C18
:100B5C0001D09B68A04710BD04B400081FB50291DA
:100B6C00002101AB18700A0018000391FFF7E8FF91
:100B7C0005B000BD30B50C0011000122050085B098
:100B8C0001A882605A0005704460FFF7D9FF05B0D8
:100B9C0030BD10B5014B1B6E984710BD0C010020E9
:100BAC0070B5064CE36D9847051E04D18834236854
:100BBC00034A04499847280070BDC0460C01002028
:100BCC0010D000081ED0000810B5024BDB6F984700
:100BDC0010BDC0460C01002010B5024BDB6E9847CF
:100BEC0010BDC0460C01002010B5024B9B6E9847FF
:100BFC0010BDC0460C01002010B5024B0433DB6F56
:100C0C00984710BD0C01002010B504000120002CE9
:100C1C000BD1074B1A0084321278002A06D0883385
:100C2C001B68044A04499847200010BD1000FCE7DB
:100C3C000C0100202AD0000845D0000870B5040033
:100C4C000D00FFF7E1FF002801D00434E58770BDEB
:100C5C0070B504000D00FFF7D7FF002801D0023457
:100C6C00E58770BD10B50400FFF7CEFF00280BD050
:100C7C002079032808D805F003FE02020505FF20A1
:100C8C00C00510BDA068FCE70048FAE70000C07F73
:100C9C0010B50400FFF7B8FF0023984200D0237969
:100CAC00180010BD10B50400FFF7AEFF00239842EA
:100CBC0000D0A36B180010BD10B50400FFF7A4FF03
:100CCC000023984200D0E368180010BD13B5054A04
:100CDC0000918832030014680349044A0020A0479D
:100CEC00FEE7C0460C0100206DD0000858D000086B
:100CFC00C36A10B5002B02D014305B6B984710BD43
:100D0C0070B504680500002C1BD0606F8269002A46
:100D1C000FD048235A430D4B483A9B6B9B181A0033
:100D2C0040321278002A01D141331A700430FFF797
:100D3C00DFFF2300FC33D869FFF72BFF2000FFF700
:100D4C0028FF2800FFF725FF70BDC0468C0100204E
:100D5C0070B5856904002800FFF746FF48216943F8
:100D6C000D4B48399B6BE06A5918236BA66B9B683B
:100D7C009847002804D12800FFF72EFF002070BDF3
:100D8C002000236B31005B69183098470028F2D0A3
:100D9C000123E370F3E7C0468C01002070B5036BB0
:100DAC0085691B6B416828009847084B041E06D1C7
:100DBC0088331B68064A07499847200070BD1B6F93
:100DCC00002BFAD028009847F7E7C0460C0100200A
:100DDC0078D0000898D0000870B50B6886B0040075
:100DEC000E00062B0BD00621104A00918832146895
:100DFC0000200F4A0F49A047002006B070BDFFF736
:100E0C00FBFE03AD0290290002A8FFF719FE002893
:100E1C00F3D0AB886360EB88A3606B8823602B896D
:100E2C00A381B3882361F3886361E6E70C0100209A
:100E3C00A7D00008E5D000080020704710B50400CA
:100E4C004069002803D0FFF7A4FE0023636110BDA6
:100E5C0010B5041E04D00379032B0ED1200010BD55
:100E6C00074B1A0084321278002AF7D088331B689B
:100E7C00044A054901209847F0E70024EEE7C046F4
:100E8C000C010020F9D000080FD1000870B50D003E
:100E9C00FFF7DEFF002811D01C300400681E042868
:100EAC000CD805F0EDFC030C0E10160000212000F0
:100EBC00FFF7C4FE00212000FFF7CAFE70BD07211A
:100ECC00F5E70921F3E70C212000FFF7B7FE052118
:100EDC00F1E71021F8E710B504000069002803D0F1
:100EEC00C36898470023236110BDF8B5164B174F04
:100EFC001C6C3B0084331B780500032B08D93B008A
:100F0C0088331B68124A1E00124943680420B047FC
:100F1C000023002C0DD0626DAC4207D1002B11D1F7
:100F2C00094B1A642000FFF734FE0AE0230014007A
:100F3C00EFE73B0088331E68074A6B6805492000C1
:100F4C00B047F8BD5A65EDE78C0100200C0100207C
:100F5C001ED100083FD100084FD1000810B5044B3A
:100F6C00044A88331B6804490120984710BDC046C9
:100F7C000C010020F9D000080FDF000810B5002884
:100F8C000AD00A4B02689A4206D1038B002B03D07D
:100F9C0043690120002B07D1054B002088331B68C7
:100FAC00044A05499847002010BDC046D79DC0ACE7
:100FBC000C010020F9D000080FDF000870B5040008
:100FCC000D00FFF7DBFF002807D024692000FFF796
:100FDC001BFE002801D06834258070BD10B5002898
:100FEC0004D00268064B01209A4207D0054B002022
:100FFC0088331B68044A05499847002010BDC04639
:10100C00E89EC0AC0C01002083D100080FDF000863
:10101C00F8B50400FFF7E2FF00282DD01B4D2B0084
:10102C0044331E78002E27D0637A002B22D16368BC
:10103C002A2B21D82A005B0045329F5C002F1BD144
:10104C0001219954E37E002B03D0206BFFF7C4FDE4
:10105C00E77663682A2B05D82A00590045325218C6
:10106C0000215170012262722A2B03D89340002276
:10107C0045355A553000F8BD054B064A88331B6878
:10108C000549002098470026F4E7C0468C01002053
:10109C000C01002092D100080FDF0008134B10B593
:1010AC003C331B780400002B12D00068FFF796FF2E
:1010BC0000280CD02068FFF7ABFF2068C368002B1A
:1010CC0000D098472068FFF710FF0023236010BD65
:1010DC00074B1A0084321278002AF8D088331B6828
:1010EC00044A054901209847F1E7C0468C010020CD
:1010FC000C010020AED100083FD10008F7B5040068
:10110C00FFF76CFF002809D1344B354A88331B6834
:10111C0034490020984700263000FEBD324D2B008C
:10112C0044331E78002EEFD0637A002BF4D0636822
:10113C002A2BE9D82A00590045328F5C002FE3D1C5
:10114C000120885452185278002A3CD1227E022A5F
:10115C0021D02300183318000193FFF7F9FD002864
:10116C0031D0A37E002B20D0237E012B10D1A36C79
:10117C0000229B69E169206B9847002823D0A36C5F
:10118C00206B9B6A984700281DD00198FFF706FE3C
:10119C0063682A2B05D82A005B004532D31801223C
:1011AC005A700023370063720DE0A36C206B9B6AAE
:1011BC009847002807D0A36C00229B69E169206B3B
:1011CC0098470028D0D163682A2B03D800224535D4
:1011DC005B005A55002F97D09EE7C0460C010020AB
:1011EC00C0D100080FDF00088C01002010B5041ED0
:1011FC0001D0006910BD074B1A0084321278101E02
:10120C00F8D0883301201B68034A04499847200012
:10121C00F0E7C0460C010020F9D000080FDF0008F1
:10122C007FB5144B040002930823FF330393124B36
:10123C000093124B0193436E002B02D1104B83662B
:10124C007FBD6A46036802AE9D689B685B0FF05CCD
:10125C00D15CC00005F0B2FB23006A466A331880EB
:10126C002B015B0FF05CD15CC00005F0A7FB683470
:10127C002080E5E7010101030804020408010101D3
:10128C000100010070B504007C3422780223012A8D
:10129C0010D001260268051D2233EB671168136814
:1012AC00B3431360044B19400023436611602022A2
:1012BC00EA672370180070BDFFFFFFDFF7B507006A
:1012CC000837FB6F0400222B3FD10300060060336C
:1012DC001B8868360193358821005E31002D12D1B0
:1012EC000B889BB2002B0DD032889A420AD9236806
:1012FC0019499A680A409A60184A1968E2662022CD
:10130C000A431A60F7BDA26D23689446586A019A85
:10131C001040624610800232A2650A88013A92B2ED
:10132C000A800A8892B2002A0CD119680C48014034
:10133C00196099680B48014099602023FB67E266AD
:10134C00FFF70EFA013DADB2C6E7082302689169BA
:10135C000B439361D6E7C046FFFFFFEF7513000800
:10136C00FFFEFFFFFEFFFFEF01000831CA6F70B5F3
:10137C000368222A21D1050060355C6A2D88826DB4
:10138C002C4014800400023282655E342288013ABB
:10139C0092B22280228892B2002A0DD11C68094D8B
:1013AC002C401C609C682335FF35AC439C6020238B
:1013BC00CB67C266FFF7D4F970BD082299690A435E
:1013CC009A61F9E7DFFEFFFF70B504000834E26FA5
:1013DC000368222A23D1020060325B6A1288134010
:1013EC00826D13700200836D5E3201338365138846
:1013FC00013B9BB2138013889BB2002B0ED1026869
:10140C00094D11682940116091682335FF35A943B6
:10141C0091602022E267C366FFF7A2F970BD082233
:10142C0099690A439A61F9E7DFFEFFFF031DDB6F41
:10143C0070B5212B13D10300040080256A331A8860
:10144C005634002A0BD021880368002908D19A68E9
:10145C000C490A409A60402219680A431A6070BD10
:10146C00D96929420AD0066D31880236C905C90DE1
:10147C00996206652388013B9BB22380013A92B2A4
:10148C00DFE7C046FFFF7FFF031DDB6F70B5212B2D
:10149C0013D10300040080256A331A885634002ABD
:1014AC000BD021880368002908D19A680B490A409F
:1014BC009A60402219680A431A6070BDD9692942A2
:1014CC0008D0016D0E7801319E6201652388013BC5
:1014DC009BB22380013A92B2E1E7C046FFFF7FFF47
:1014EC00031DDB6F10B5212B0DD1010056310A887D
:1014FC000368002A08D180211A688A431A604022A6
:10150C0019680A431A6010BD046D22880234D20592
:10151C00D20D9A6204650B88013B9BB20B80F2E7FB
:10152C00031DDB6F10B5212B0DD1010056310A883C
:10153C000368002A08D180211A688A431A60402265
:10154C0019680A431A6010BD026D147801329C624E
:10155C0002650B88013B9BB20B80F4E7836A002287
:10156C00190056335E310A801A807047002309280F
:10157C0003D81B011843C0B270470A380133C0B2FC
:10158C00F5E7F7B54E4F02233A008C32117805007F
:10159C001800012971D0012111703A008D3213709D
:1015AC0040227C6EA369134000D1EB702878FFF7C2
:1015BC00DDFF06006878FFF7D9FF0090A878FFF7E9
:1015CC00D5FF6B1C0190D87FFFF7D0FF6A69EB69E0
:1015DC0036041343EA78000692051343019A3949FD
:1015EC0013431E43009BAA691B021E436B683043C6
:1015FC0013439C46CA236A6A6362773B6362AD33CA
:10160C009A423BD1A369304A1340A361E36D033284
:10161C00FF321343E3650E690092E368009A1340AE
:10162C001DD06346206463648023A2695B0013436E
:10163C00A3618023A2695B011343A3618023234A26
:10164C001B03D16F00200B43D367FF2363623B0066
:10165C0001228D331A703B008C3318700DE0FA2286
:10166C000D699200AD1B9542D7D9FF2262623A00F8
:10167C0003208D328C3710703B70FEBDA369144A69
:10168C0013400222A361E36D00921343E3650E69DC
:10169C00E368009A13400BD06346A064E364802394
:1016AC00A2699B001343A3618023A2699B01C3E73A
:1016BC00FA220D699200AD1B9542E9D9D5E7C046D7
:1016CC008C0000200C010020FFFEFFFF04180240DC
:1016DC00FFFDFFFF10B50023CA0708D503004133F7
:1016EC001A7828231A401A33282A00D0B0338A07D4
:1016FC0008D502002824413212782240A2420AD195
:10170C00442213434A0701D5B822134301680A68DF
:10171C009A430A6010BDF422F3E70022836A996BA6
:10172C008A63D96B41338A631A78602A01D1403AB3
:10173C001A70704703689A69920701D500229A6261
:10174C0001229969114202D199690A439A61704741
:10175C00164B10B5C3620023020003630400202063
:10176C0041321070537063634B0713D52368626A60
:10177C005B6A1370636A01336362238D002B09D09B
:10178C00013B2385638D013B9BB263850423626C13
:10179C001343636420000721FFF79CFF102223688A
:1017AC004034DA610023237010BDC0460000FFFFF7
:1017BC00030070B5002542331D70013B1A780400FC
:1017CC00292A0AD1013A1A7021230121036320002E
:1017DC004034FFF77FFF257070BD1A782A2AFBD1A1
:1017EC00023A1A70222302210363F0E7FA2170B542
:1017FC00114D04008900286805F056F80F4B01388C
:10180C00984201D9012070BD0D490E4A4860C02094
:10181C00136A00061B021B0A0343136200200723F2
:10182C0088600B60032CEDD8136AA1071B021B0AFE
:10183C000B4313626C60E6E700000020FFFFFF0023
:10184C0010E000E000ED00E0F8B51C210427046C6A
:10185C00264B21403C008C401E68026815682642CD
:10186C000FD03D420DD01168890602D41168B943DE
:10187C0011605A6814435C60036B002B1BD09847B3
:10188C0019E002273C008C40264215D03D4213D073
:10189C001168890606D40A251168A9431160012133
:1018AC00821DD1775A68144300225C60431DDA779D
:1018BC00C36A9342E3D1F8BD082427008F403E420F
:1018CC00F9D02542F7D00E251468AC4314600122E0
:1018DC0015008D4029005C6821435960831DC2634B
:1018EC00DA770022431DDA77436BE2E7000002400F
:1018FC00F8B50123411DCB77841DE27F022A03D06A
:10190C000422C2631800F8BD0E2602681568B543A0
:10191C0015601568466C9D4315603268114D2A4060
:10192C0032601C22AC46056C0F4E2A4093407768FF
:10193C003B437360C26C836C5A60036D002B06D002
:10194C0065461A682A401A60436D826D5A600123FD
:10195C00E3770024CC77826B1300A242D2D090475D
:10196C002300CFE7FFFEFFFF0000024070B502002E
:10197C0005000026423241352B7816702A4A283B46
:10198C00C2624685426C040011434164022B22D88A
:10199C000321FFF79FFE28232B70244B2663802204
:1019AC0063632368D201196811401A681ED020495C
:1019BC00A06B0A401A6000280CD01E4B00228363D7
:1019CC00230040331A70FFF793FF002802D0A06B5E
:1019DC00836B984770BD0721FFF77CFE2B78602B3B
:1019EC0001D020232B7000232363D8E78020000232
:1019FC00024011D01A6810480240E06B1A600028AF
:101A0C00E8D00C4B8363230040331970FFF770FF51
:101A1C000028DFD0E06BDBE72B784034602B01D162
:101A2C00403B2B702270D5E70000FFFF491A0008DD
:101A3C00FFBFFFFF27170008FF7FFFFFF8B5070068
:101A4C00403716003A780400C36A0D000220012AC0
:101A5C0075D0012209093A70114200D190E0310988
:101A6C00114200D18CE0628D002A00D078E0220077
:101A7C0041321178282963D1802189048B425FD1AE
:101A8C0029002000FFF764FEAB0656D5012376092A
:101A9C001E4252D02022236807211E682000DA61E2
:101AAC00FFF718FE802223681202596820000A43AF
:101ABC005A605A6876490A405A60FFF73BFE012289
:101ACC00B30B134200D1CEE0A36B002B03D01B68E9
:101ADC005B689BB263856B0711D504239D43236818
:101AEC00626A5B6A1370636A01336362238D002B35
:101AFC0005D0013B2385638D013B9BB26385638DD0
:101B0C00002B03D00423626C134363642200002374
:101B1C0026004232236313706363636C4136002BDF
:101B2C0000D1A7E0616C2000FFF720FF3378282B51
:101B3C0003D129002000FFF70BFE00203870F8BD00
:101B4C00102110782268D16129289DD151488342F7
:101B5C009AD02000FFF7EEFD2000FFF729FE93E757
:101B6C0010212268D1610422616C0A4362644A4AE2
:101B7C00134200D088E7616C2000FFF7F7FE83E783
:101B8C00012269071ED5B10811421BD0628D002AB3
:101B9C000FD0042295432268616A526A0A70626A05
:101BAC0001326262228D013A2285628D013A92B233
:101BBC006285628D002A00D066E7364A934200D1D6
:101BCC0062E7C9E7012229072FD5F10811422CD071
:101BDC002300282141331B7822680B408B4221D1F2
:101BEC00936993699168D068E068022814D11B0C42
:101BFC00FC308905490F03404B4006210B400BD1AB
:101C0C00A16C0131A164A16C022900D03CE7063122
:101C1C00A364D1613B7037E704212000FFF75AFD24
:101C2C000023F7E70823D361FAE70122A90700D4C0
:101C3C002AE77108114200D126E7628D002A0DD0E7
:101C4C00636A22681978013391626362638D013B88
:101C5C009BB26385238D013B238515E70E4A134206
:101C6C0000D011E778E70123F60B1E4200D132E7D2
:101C7C00E36B2AE7E36A074DAB4206D02000FFF77F
:101C8C0097FDE5622023337057E73278FAE7C046B8
:101C9C0000E800FE0000FFFFFFFFFFFE064B074AB7
:101CAC009B685B045B0F9B009B581F221340044AEC
:101CBC001068D8407047C04600100240CC9F000806
:101CCC000000002038231F4A70B591681400194297
:101CDC0008D1012113681C489B045B0F994004F048
:101CEC00E3FD70BD91681940082925D09168194011
:101CFC00102915D1D368D168DB437F22E5684906EA
:101D0C00490F2D0A013115409B0707D10F4804F0EC
:101D1C00CBFDE1686843490F0131E0E70A48F6E77B
:101D2C0091681940202909D0926800201340182B83
:101D3C00D7D1FA20C001D4E70448D2E780200002B2
:101D4C00CFE7C046001002400024F40000127A00D5
:101D5C00044BDA68104200D0D8601A69024200D0F5
:101D6C001861704700180240F0B50B6885B00393FA
:101D7C0000230191039ADA4001D105B0F0BD012294
:101D8C009A4002920299039A0A40009200D185E08F
:101D9C00019A1021526816008E43022E0ED107258F
:101DAC001D40AD000139A940DC08A4000419276AC4
:101DBC008F4301990969A9400F43276203245F00EF
:101DCC00BC40E4430568013E2540AC460325154064
:101DDC00BD4061460D430560012E0FD80199866800
:101DEC00CD682640BD40354385604668029915098B
:101DFC008E4301210D409D4035434560C5680199D6
:101E0C002C408D688021BD4049052C43C4600A429A
:101E1C0044D003260F2422499D081E40AD00F60035
:101E2C006D18B440A0212F6EC905A7430024884229
:101E3C000CD01C490134884208D01B49013488421B
:101E4C0004D01A490334884200D1023CB4400099B2
:101E5C003C430E002C66164CCD43E76F3E43D1033A
:101E6C0001D43E002E40E667124E009FF46F2743CC
:101E7C00910301D42C402700094CF7672768009E7A
:101E8C003E43D10201D43E002E4026606668009F7E
:101E9C003743920201D42E4037006760013369E763
:101EAC00001802400004005000080050000C0050C4
:101EBC0004180240081802400123114A5B4210B575
:101ECC0013621300122816D8243381005B1801000A
:101EDC002039CCB2222C02D80A4B8900CB18010035
:101EEC007F31C9B2042904D81300813870338000C3
:101EFC001B18180010BD2033E928E8D1043BE6E795
:101F0C000C020020AC69002010B5FFF7D5FF00686B
:101F1C0010BD014B186970470C0100200048704738
:101F2C00001BB74B0C4A70B5082415000B4806690A
:101F3C001369234203D103699B1B8B4203D328698A
:101F4C000007C00F70BD72B61369234200D130BFB9
:101F5C0062B6BFF36F8FEBE7000400500C0100205A
:101F6C000021102210B5074B1C69144202D19A6152
:101F7C00FAE79A621C691442FBD101318842F3D111
:101F8C0010BDC04600040050802210B5054B9200D5
:101F9C009A610320FFF7E4FFFEF786F90A20FFF7AA
:101FAC00DFFF10BD0004005010B50A20FFF7D8FF6A
:101FBC008022024B92009A6210BDC0460004005071
:101FCC000122074B10B580219A62A0224900D2054C
:101FDC009162802292009A62FEF766F910BDC046AB
:101FEC00000400501022084B10B59A62F132FF32F7
:101FFC009A618021A0224900D205916101229A6147
:10200C00FEF752F910BDC04600040050B448F0B5BC
:10201C0003000124B34D85B001915C33AC621E7892
:10202C000395A64200D1ECE0AF4E1C7033694568B5
:10203C00029303005D331B78DBB2A3420BD0043454
:10204C00FF34A54200D0D4E08468002C00D0D0E04E
:10205C00042B00D0CDE0019B002B00D1C9E092B243
:10206C00002A00D1C5E003005D331C78042C01D09C
:10207C0005241C700400002308340366E287841DC9
:10208C00E287E0240199C768C36403650164816336
:10209C00C28782870368E400A74201D8012A6CD06A
:1020AC005C6892490C405C6040241968214202D162
:1020BC0019680C431C60E024E400A74200D8A5E09A
:1020CC00002D01D0012A09D1019A1288DA60019AF7
:1020DC0002328263C28F013A92B2C2870026012279
:1020EC003700806B7E4DEC8F002C4BD12C000834CC
:1020FC00E48F002C46D1002F00D0A863002E01D015
:10210C00019B2B64C022764C77482168784D520194
:10211C008B68134208D00369029E9B1BAB42F7D914
:10212C00FDF7EAFF002821D1802221686E48704D0E
:10213C008B68134208D00369029E9B1BAB42F7D9F4
:10214C00FDF7DAFF002811D1C02122686648684DDE
:10215C00C90093680B424CD0137B029E03699B1BF6
:10216C00AB42F6D9FDF7C8FF002842D02023226EDF
:10217C0013432366202323663BE0802459686401C3
:10218C000C4390E79C68A1070ED5554CE18F0029B4
:10219C000AD0012A08D107880230DF60E78F013F9F
:1021AC00BFB2E7871700002201219C680C4210D0B7
:1021BC004B4C0834E18F00290BD0DA6801990126C9
:1021CC000A800A0002320192E28F013A92B2E2874F
:1021DC003200454C02992469641A45498C4200D856
:1021EC0081E73F4B002F00D09863002E01D0019A5D
:1021FC001A643B4B01211A005D32117000225C33D2
:10220C001A700123039A936105B0F0BD002D01D023
:10221C00012A0CD1C28F012A51D9019A0199128835
:10222C000231DA60C38F8163023B9BB2C387012109
:10223C000222030094460C000833C28F002A03D1FB
:10224C00DA8F002A00D15DE76546026897682F4255
:10225C0011D0C78F002F0ED001290CD1C78F816BE5
:10226C00012F35D90F880231D7608163C18F0239B4
:10227C0089B2C18700219768274218D0DF8F002FC1
:10228C0015D0DF8F016C012F34D9D7680F80023144
:10229C000164D98F023989B2D987DF8F2100012FD0
:1022AC0005D8802551686D012943516021003269A0
:1022BC00029D0F4F521BBA4200D99AE7BDE7019A13
:1022CC0012781A73836B01338363C38F013BACE7C2
:1022DC0009781173816B01318163C18F0139C7E7B3
:1022EC008C000020000400500C010020FFEFFFFFC9
:1022FC0087130000127B0A70026C01320264DA8FC1
:10230C00013A92B2DA87D1E7F0B5031DDE6F8DB0DA
:10231C0004000193002E5AD17833056814221E70E4
:10232C00310007A806F0F4FECB4B9D4200D099E09B
:10233C008020CA4BC001196C014319641A6C02400D
:10234C000692069A0122596BA020114359635B6BCC
:10235C0007A913400593059BF0235B010793022308
:10236C00C0050B920893FFF7FFFCBD4DBD4B2F1D15
:10237C006B603323AB60233BEB60380070332E6112
:10238C006B61AE61EE612E626E62FEF743F8B64B86
:10239C00AE66EE666E67AE67EE67FE672E002B6666
:1023AC00322360366B6667674E3330002B67EC6206
:1023BC00FEF730F8C621AD4A8900535888351B0208
:1023CC001B0AA6672C60535080231B051360242323
:1023DC000121221DD367226820691368656E8B4327
:1023EC001360A368E1690343606903430B431068FE
:1023FC002B439F4D28400343136053689D489E4DCB
:10240C000340E06803435360A069AA4201D0236AE9
:10241C0018439368994E33400F2603439360D06A58
:10242C00636AB0431843D0628B4882423AD1032589
:10243C008A4A506D924A284001321218D07F80226D
:10244C001202914200D08AE3082800D984E304F0F8
:10245C0021FA84048303110383034B038303830353
:10246C0083034E03874B9D42B1D180207B4B80026E
:10247C00D96B0143D963DA6B02400492049A0122AE
:10248C00596BA020114359635B6B07A9134003934D
:10249C00039B0C23C00507930A3B08930B92FFF791
:1024AC0063FC94E77748824206D10C256B4A506D49
:1024BC00734A28400532C0E77348824201D100F0CC
:1024CC0047FC7248824201D100F042FCAA4201D082
:1024DC0000F004FCC0218020604A0901526DC0004C
:1024EC000A40824200D150E100D986E0002A00D196
:1024FC00E8E00125664BA3660023E3662367012D04
:10250C0000D1E8E3A26A2368002A49D0D10705D597
:10251C00596860480140E06A01435960910705D54C
:10252C0059685D480140206B01435960510705D53E
:10253C0059685A480140606B01435960110705D531
:10254C00596857480140A06B01435960D10605D525
:10255C00996854480140E06B01439960910605D598
:10256C00996851480140206C0143996051060FD580
:10257C0059684E4E606C31400143596080214903CB
:10258C00884205D159684A480140A06C0143596002
:10259C00120605D55A6847490A40E16C0A435A604D
:1025AC005A6845490A402A215A609A688A439A60B7
:1025BC00012219680A431A60220000218832116036
:1025CC003E4A16691B681B0700D579E323681B6814
:1025DC005B0709D580213A4B3200C9032000FDF777
:1025EC00EFFE002800D075E32023221DD3670432B0
:1025FC00D36700237C3423706DE38020000182427A
:10260C0000D1A7E08A4200D073E7002B20D0012B29
:10261C0000D106E1022B00D107E1032B00D108E128
:10262C00042B00D108E1052B00D109E1062B00D1C8
:10263C0009E1072B00D109E1082B00D10AE1092B94
:10264C0000D10AE10A2B00D10BE10B2B00D10CE1DC
:10265C0080200823000264E0003801400010024092
:10266C008C020020080002401C00024000E100E047
:10267C00F369FFCFFFCFFFFF00800040FFF4FF1195
:10268C00CC9F00080044004000480040004C004033
:10269C0001000100FFFFFDFFFFFFFEFFFFFFFBFF3F
:1026AC00FF7FFFFFFFEFFFFFFFDFFFFFFFFFEFFFEE
:1026BC00FFFF9FFFFFFFF7FFFFB7FFFF0C0100209D
:1026CC00FFFFFF01FFF7EAFA636A0121002B21D01B
:1026DC004918012B1ED00231022B1BD00231032BC7
:1026EC0018D00231042B15D00231052B12D0023137
:1026FC00062B0FD00431072B0CD01031082B09D02E
:10270C002031092B06D040310A2B03D07F390B2BFB
:10271C0000D1FF3104F0C8F800230025A84200D1F5
:10272C00E8E6032162685143814200D9E1E61103D6
:10273C00814200D2DDE6082B00D95AE1180004F0E2
:10274C00A9F897005801E90058011F0158015801D8
:10275C0058012201002B15D0012B42D0022B43D063
:10276C00032B43D0042B44D0052B45D0062B46D04D
:10277C00072B47D0082B48D0092B49D00A2B4AD01D
:10278C000B2B4BD002239C48CBE7FFF79BFA636AD9
:10279C000121002B21D04918012B1ED00231022B14
:1027AC001BD00231032B18D00231042B15D002316F
:1027BC00052B12D00231062B0FD00431072B0CD075
:1027CC001031082B09D02031092B06D040310A2BAF
:1027DC0003D07F390B2B00D1FF3104F065F80423B3
:1027EC009BE7022385489CE785489AE702238548A6
:1027FC0097E70223844894E70223844891E7022355
:10280C0083488EE7022383488BE70223824888E7BC
:10281C000223824885E70223814882E7022381480C
:10282C007FE780200823C0017BE7802008238001FC
:10283C0077E708237C4874E780200823400170E781
:10284C0008237A486DE7082379486AE78020082333
:10285C00000166E78020C00063E780200823800029
:10286C005FE78020082340005BE70823802058E7BF
:10287C00FFF714FA616A0122002300292ED00222EC
:10288C00002301292AD004220023022926D0062263
:10289C000023032922D00822002304291ED00A2257
:1028AC00002305291AD00C220023062916D0102249
:1028BC000023072912D02022002308290ED0402201
:1028CC00002309290AD0802200230A2906D00122DC
:1028DC0000230B2902D1802200235200002104F096
:1028EC0093F900276568060E0B02334302026E084B
:1028FC0092197B41100019002A003B0004F084F966
:10290C003D004C4B4C4AC318934200D9F1E5236867
:10291C00D860EFE5636A002B30D0012B1AD0022B64
:10292C001AD0032B1AD0042B1AD0052B1AD0062B35
:10293C001AD0072B1AD0082B1AD0092B1AD00A2B15
:10294C001AD00B2B1AD12C480021002756088019BD
:10295C007941D2E73948F7E73948F5E73948F3E7E1
:10296C003948F1E73948EFE73948EDE73948EBE703
:10297C003948E9E73948E7E73948E5E73948E3E713
:10298C00FFF7A0F976E7636A002B18D0012B19D05A
:10299C00022B1AD0032B1BD0042B1BD0052B1CD0C5
:1029AC00062B1CD08020072B1BD0082B1BD0092BEF
:1029BC001BD00A2B1BD00B2B02D10002C4E78020AA
:1029CC000004C1E78020C003BEE780208003BBE782
:1029DC002548B9E780204003B6E72448B4E72448EB
:1029EC00B2E70003B0E7C002AEE78002ACE74002FA
:1029FC00AAE70125002084E70024F40000127A00E5
:102A0C0000093D00AAB0280080841E00006A18004E
:102A1C005558140040420F0020A1070090D003002D
:102A2C0048E8010024F4000055150000CC0C00000F
:102A3C00AA0A000000FDFFFFFFFC0F000000127A45
:102A4C000000093D00AAB0280080841E00006A180E
:102A5C00005558140040420F0020A1070090D003ED
:102A6C000048E801000024F40055150000CC0C00CF
:102A7C0000AA0A00002B21D0012B21D0022B21D03F
:102A8C00032B21D0042B21D0052B21D0062B21D0B8
:102A9C00072B21D0082B21D0092B21D00A2B21D098
:102AAC000B3B1800431E9841904B40421840904BF2
:102ABC00C018636861685B0818187DE18D48F8E7F9
:102ACC008D48F6E78D48F4E78D48F2E78D48F0E73E
:102ADC008D48EEE78D48ECE78D48EAE78D48E8E74E
:102AEC008D48E6E78D48E4E7FFF7ECF837E1002B7B
:102AFC0018D0012B19D0022B1AD0032B1BD0042B6E
:102B0C001BD0052B1CD0062B1CD08020072B1BD0D8
:102B1C00082B1BD0092B1BD00A2B1BD00B2B02D143
:102B2C004000C6E780204002C3E780200002C0E7D7
:102B3C008020C001BDE77A48BBE780208001B8E760
:102B4C007848B6E77848B4E74001B2E70001B0E74F
:102B5C00C000AEE78000ACE70125002030E108287A
:102B6C0000D9C0E003F08CFE05BF3BBF75BFBFBFF3
:102B7C007800FFF793F8636A0121002B21D04918E4
:102B8C00012B1ED00231022B1BD00231032B18D08B
:102B9C000231042B15D00231052B12D00231062B39
:102BAC000FD00431072B0CD01031082B09D0203159
:102BBC00092B06D040310A2B03D07F390B2B00D1C7
:102BCC00FF31656803F070FE29006B08C01803F034
:102BDC006BFE002580B20300544A103B94E6002B98
:102BEC0021D0012B21D0022B21D0032B21D0042B5F
:102BFC0021D0052B21D0062B21D0072B21D0082B3F
:102C0C0021D0092B21D00A2B21D00B3B1800431EBD
:102C1C009841474B40421840464BC0186368616866
:102C2C005B081818D3E73448F8E73448F6E735481A
:102C3C00F4E73648F2E73648F0E73F48EEE73F481E
:102C4C00ECE73448EAE73448E8E73448E6E7284854
:102C5C00E4E7FFF737F88EE7002B18D0012B18D0DC
:102C6C00022B19D0032B1AD0042B1AD0052B1BD0F6
:102C7C00062B1BD08020072B1AD0082B1AD0092B1F
:102C8C001AD00A2B1AD00B2BC8D00002C6E7802012
:102C9C00FBE78020C001C1E780208001BEE7284807
:102CAC00BCE780204001B9E72648B7E72648B5E7DE
:102CBC000001B3E7C000B1E78000AFE74000ADE72B
:102CCC008021224B320089032000FDF779FB00287C
:102CDC0000D17BE4032528000DB0F0BD80231B023E
:102CEC00994200D138E70125002074E7B85FE6016E
:102CFC0048E801000048E8010024F40000127A00C2
:102D0C005461510000093D0000D43000AAB02800E5
:102D1C0080841E0040420F0020A1070090D00300C9
:102D2C00AA2A00009819000054150000EFFF0000BB
:102D3C00DC2FF30024F40000006A1800555814002E
:102D4C0055150000CC0C0000AA0A0000FFFFFF0183
:102D5C0080231B02994200D00BE7FEF79FFF636AAA
:102D6C000121002B21D04918012B1ED00231022B3E
:102D7C001BD00231032B18D00231042B15D0023199
:102D8C00052B12D00231062B0FD00431072B0CD09F
:102D9C001031082B09D02031092B06D040310A2BD9
:102DAC0003D07F390B2B00D1FF3103F07DFD65681B
:102DBC00400029006B08C01803F076FD002580B296
:102DCC000300084A103B934201D9FFF792FB0F23F3
:102DDC0002009A43130000072268400F1843D0608A
:102DEC00FFF788FBEFFF000010B5041E21D08368AD
:102DFC00002B1ED041719847237B002B18D020004C
:102E0C00FEF7F4F9041E13D0FDF7FEFE002803D0E4
:102E1C00230001224A331A7020000F21FDF718FFFE
:102E2C002000FDF7F1FE002802D001230634E387D1
:102E3C0010BD044B84331B78002BF9D0FEF78EF8B1
:102E4C00F6E7C0460C01002070B50500FDF7A8FEA2
:102E5C00041E03D02A00002106F05AF9200070BD90
:102E6C00242270B5FF3204000D0094201A49FFF79C
:102E7C00EBFF00236061984228D02800FDF71CFF6F
:102E8C0020602800FDF7C0FE002802D02B004E3336
:102E9C001878A0732800FDF705FF43425841E073F2
:102EAC002800FDF7F5FE012812D02800FDF7DAFE08
:102EBC00011C0A4804F03CF9084903F09FFF03F099
:102ECC00C3FE074B20613433A3610123180070BD8E
:102EDC00FA20C000F5E7C046DAD100080000FA4439
:102EEC00CC9F0008F0B5446F8BB00500002C4BD084
:102EFC00836E5A4A1A60836DA2691A60C36C02937E
:102F0C00030070331B880393A36900936378002B31
:102F1C0000D096E023780193022B42D12000FDF7DC
:102F2C0017FF002829D02000102200210830A66BA2
:102F3C0006F0EEF82000236B3100DB6A06AA18308D
:102F4C00984706AB1B88E0600493638106AA9278CD
:102F5C0006A92272C97806AE6172377B089B27746A
:102F6C0036799C4666746361002800D06EE03C4B59
:102F7C003C4A88331B683C499847394B3B4A883359
:102F8C001B683B49002098472B000122F0331B683B
:102F9C0028005A710022BC355A619A71B8302B68DE
:102FAC0045E0019B012BBED12D4B5B6F002BBAD0A2
:102FBC0000989847B7E7039B0498834202D0E4211A
:102FCC00490048E048230592009A04915343294A4A
:102FDC00483B926BD3181A004232167062465A6400
:102FEC00019B022B26D10098FDF7F6FD0023E37020
:102FFC006378002B05D1039B029A00990220FDF700
:10300C00B9FD2B0070331B88EA6D5B0013602B6ECF
:10301C00059A1A706B6E049A1A700123002E00D157
:10302C003B000122A86B1340EA6E1370436898476B
:10303C000BB0F0BD019B012BDAD12000FDF7AEFEE9
:10304C00D6E70026370004960596D1E7029B83420B
:10305C00B1D0C821FF310848FDF738FE3C5C645103
:10306C000C010020F4D1000898D0000821D20008EF
:10307C003ED200088C0100200CD20008F0B5CBB079
:10308C0027AC0B908C2220000D0006F0B5FE200022
:10309C00FDF774FF002801D1002425E06379013B82
:1030AC00042B07D9BE4BBF4A88331B68BE4900208E
:1030BC009847F1E72EA8FDF7A7FD0028ECD0666D28
:1030CC00042E05D9B64BB94A88331B68B849EEE7CC
:1030DC00042E16D1B24B1C6F002C08D188331B6800
:1030EC00B44AB3492000984720004BB0F0BD6D2284
:1030FC000CA95218D27F032A03D188331B68AE4A1D
:10310C00E4E7C6230CAA9B181B88162B04D9A44BE6
:10311C00AA4A88331B68D9E73DAB1B88013B3E2B81
:10312C0004D99F4BA64A88331B68CFE76D230CAAA2
:10313C009B18DB7F002E06D1032B11D1984BA14A93
:10314C0088331B68C2E7032B0AD1D3330CAA9B1814
:10315C001C78002C04D1924B9B4A88331B68C0E727
:10316C0004239E4304D10CAAD2339B1801221A705B
:10317C00BA230CAA9B181B78062B06D0092B04D05B
:10318C00874B924A88331B68A0E748AB1C88002CFD
:10319C0005D1834B8E4A88331B688E49A2E7F223F4
:1031AC000CAA9B181B78012B09D146AB1B88402B12
:1031BC0005D97B4B884A88331B68864977E72B797E
:1031CC000B9A864C13722100EC221020FFF73CFE68
:1031DC000A909020ED2221004000FFF735FE0A9B5B
:1031EC000700002B01D0002808D10A98FDF7D1FC6C
:1031FC003800FDF7CEFC00230A939EE00A9B342294
:10320C0018600B9B0021183343670B981C3005F09A
:10321C007FFF2EA8FDF750FD05002EA8FDF7F4FC4E
:10322C000023984203D0CA330CAA9B181B8816ACF7
:10323C002EA82380FDF7E8FC0023984201D03EAB7A
:10324C001B882EA86380FDF7DFFC0023984201D079
:10325C003FAB1B882EA8A380FDF7D6FC002801D01D
:10326C0040AB18783B0018331093E43329000C93CF
:10327C00E080042322001220FDF77CFC0B9E202210
:10328C0030360021300005F043FF2EA930002E9B74
:10329C009847051E19D01FAC20220021200005F0F4
:1032AC0037FF1C22002118A805F032FF0B9B2200CF
:1032BC009B6C2EA91D68300018ABA847051E47D182
:1032CC000B9B30009B6C5B6B98472EA8FDF7EAFCC0
:1032DC000223002803D00123042800D000230B9ADA
:1032EC002EA81376FDF7D4FC434258410B9B58761D
:1032FC002EA8FDF789FC002803D0D6230CAA9B1816
:10330C0018780B9B3E0098762EA8FDF7D5FC05226D
:10331C001FAB1A70023220902192180015320C99B2
:10332C00FDF70EFC3B00FC36728970331A80002DC1
:10333C005AD10A98FDF7E4FC0A950B9B0A9A0A9C51
:10334C001A61274B0B9AD360631E9C41E4B2CBE607
:10335C00109B07CC07C307CC07C306CC06C31C22A3
:10336C0018A90C9806F048FD2EA8FDF791FC012831
:10337C0012D02EA8FDF776FC011C1A4803F0D8FEDB
:10338C00184903F03BFD03F05FFC0B9B0B9AD861D3
:10339C0000235362538498E7FA20C000F5E7C04637
:1033AC000C01002055D200080FDF00086DD2000878
:1033BC0045D0000885D20008C4D2000806D3000806
:1033CC003AD300088CD30008C8D3000808D40008EE
:1033DC001CD400080FD100084CD4000877D4000886
:1033EC00E30E00080000FA44F389B5899B185B00D2
:1033FC006D009D4200D21D002EA8FDF705FC002497
:10340C00A04201D043AB1C88AC4200D22C009822C5
:10341C00D14952002000FDF7C3FB051EF06188D096
:10342C003B00BA1D34623A66FA1D7A660532BA66FA
:10343C00043AFA6614338032FB65F864BF65391DB3
:10344C005361B4331060516018609F625033119314
:10345C00C24B1A0084321278012A61D82EA87C6FD4
:10346C00FDF72AFC0C902EA8FDF7CEFB00230E9343
:10347C00984202D041AB1B880E9348230C9AB84E4D
:10348C005343483B0D930D9AB36B00219B181A00C4
:10349C0042321170B34959641199A1631900413139
:1034AC0009780F91002900D0DDE01170AD4A0C981D
:1034BC005A64FDF799FB236BA0695B689847051E5E
:1034CC0000D1B5E00C990B20FDF748FB0C220F99AD
:1034DC001FA805F01DFE2000A24B0D9A2093B36B84
:1034EC0011999A18236B1830DD681FABA847051E7D
:1034FC0000D1B0E00D9AB36B9B18012241331A70C6
:10350C00974B0D9A9B6B9B1819001FAA1078209A49
:10351C00423108705A640C990C20FDF71FFB8EE0A9
:10352C0088331B682EA81493FDF7C6FB15902EA8A4
:10353C00FDF76AFB00231393984202D03DAB1B7836
:10354C0013932EA8FDF760FB00231293984204D02E
:10355C00C6330CAA9B181B8812932EA8FDF754FB9C
:10356C0000230F93984202D03EAB1B880F932EA8DA
:10357C00FDF74AFB00230E93984204D0CA330CAAE1
:10358C009B181B880E932EA8FDF73EFB00230D9372
:10359C00984202D03FAB1B880D932EA8FDF782FBFF
:1035AC00714B0C93042804D8704B80001818C36E10
:1035BC000C932EA8FDF728FB6D4E002809D0F223A2
:1035CC000CAA9B181B78002B03D06A4E012B00D041
:1035DC00654E2EA8FDF718FB041E03D0CF230CAAB2
:1035EC009B181C782EA8FDF70FFB0025A84201D0D4
:1035FC0046AB1D882EA8FDF707FB002801D040AB79
:10360C0018780C9B099005930D9B079404930E9BC3
:10361C00089503930F9B06960293129B564A0193AF
:10362C00139B564900930220159B149CA04715E749
:10363C004A4B534A88331E6852490C9BB0470C982E
:10364C00FDF7CAFA002D0ED1201DFDF751FB0A988B
:10365C00FDF756FBCFE5414B4B4A88331E68494971
:10366C000C9BB0474CE70E9B002B71D12EA8FDF79D
:10367C00CBFA002829D0D1230CAA9B181B78002B3D
:10368C0023D03B00A6692C3330000D93FDF7ACFA28
:10369C00A36B48210E932300714318330F93304BC7
:1036AC0048399B6BE06A5918236B9B689847051E39
:1036BC0006D0236B0D9A1B690E990F98984705003D
:1036CC003000FDF789FA002DBED00E231FA8037021
:1036DC000C9B20224360072310998360FDF730FA7E
:1036EC003B003800294AB0331A60294A78305A60B6
:1036FC00284B294AFB673B1DDA67284A0433DA67F3
:10370C00274AB0331A64274A5A60274A9A60274AD4
:10371C00DA60B863BB67FDF7EDF8041E0DD0B86B2B
:10372C00F437C36898470B9B0A9A3B60204B536055
:10373C00204B9360204BD360FFE5084B1F4A883326
:10374C001B681F4998470A98FDF7DAFA0A94F4E5C2
:10375C000E9BBB85B9E7C04677D400080C0100204E
:10376C008C010020000080FF80E30008CC9F000843
:10377C0053D2000875D400088DD4000845D0000839
:10378C00C5D4000898D0000800D5000800004040BF
:10379C00D909000863090008010900085909000843
:1037AC009D390008EB08000879080008E9080008B2
:1037BC00F12E0008753900080D0D000823D50008FE
:1037CC0043D50008F0B5861887B00F0015003100FE
:1037DC00042205A8039306F00FFB059B144A1CBAA0
:1037EC000F239C431300039984331B78002913D0B7
:1037FC003C43032B07D9883200971768AB080D4A56
:10380C000D490420B84724BA042205A930000594B8
:10381C0006F0F2FA07B0F0BD032BF4D9883200970A
:10382C00AB08054915680420044AA847EBE7C046D5
:10383C000C01002053D5000889D5000895D5000847
:10384C00F0B589B01E000EAB1C88404B05921A00D7
:10385C000290843212780D00032A08D90F9A88330B
:10386C0000921F683A4A23003A490420B847E40002
:10387C00361900247388A34201D809B0F0BD062183
:10388C006143736859180878002803D0022815D8AA
:10389C008A8800E04A88304B9A4216D0AA4214D348
:1038AC00059BEB189A4210DA012844D000280ED060
:1038BC0002280AD10F9B584243413FE0234B274A31
:1038CC0088331B682349002098470134D2E7521BE8
:1038DC0093B20A79039201224F790F99BA4091421F
:1038EC000DD3013A019219490F9A883100920C6854
:1038FC001B4A1849A04739211A48FDF7E7F9029AE3
:10390C0007A8D31819000422049306F075FA202294
:10391C00D71B213AFA400399079B8A401BBA934361
:10392C000F9A04988A4013431BBA042207A90793E1
:10393C0006F062FAC9E70F9B581E8341521BDBB29B
:10394C0092B249880298FFF73DFFBEE70C010020B8
:10395C0070D6000889D50008FFFF0000C7D5000805
:10396C00F4D500082BD6000870B504001500C06C07
:10397C0006F042FAE36D054A1D60A36EA06B1A6057
:10398C000022A36D1A604368984770BD3C5C64517B
:10399C00F7B503000C794E79887901AD6C702E70F7
:1039AC00A8705469002E0BD1A27E002A11D0E768B2
:1039BC004A696068BA4200D93A00190006F01CFA4C
:1039CC0020696676002803D06269290006F014FA93
:1039DC00F7BDA2681360F3E7A02330B504000A20FA
:1039EC00DB0185B0194302AD12BA49BA01922980A4
:1039FC00042201A9684406F0FFF9062229002000E0
:103A0C00FDF7E2F805B030BDF0B587B01E000CAB89
:103A1C001B78070003939300C918150005A804220E
:103A2C0006F0EAF9059B03991CBA0F239C43114B32
:103A3C001A0084321278002911D03443032A07D992
:103A4C00883300961E680C4A2B000C490420B047A2
:103A5C00220029003800FFF7BFFF07B0F0BD032A92
:103A6C00F6D988331E68064A2B0004490420B04757
:103A7C00EEE7C0460C01002053D5000889D500089C
:103A8C003DD60008F0B51C00494B15001A008BB050
:103A9C000591843212780600032A08D9109A8833CB
:103AAC0000921F68434A230043490420B84700236F
:103ABC00E4002D1902936B88029A9A4201D30BB041
:103ACC00F0BD0622029B5A436B689A1810780128A5
:103ADC005AD000280AD0022862D0354B3649883398
:103AEC001B68364A00209847E12117E01379548867
:103AFC0003935379A40804930123049A9340109AD6
:103B0C009A420ED3013B0193294A109B88320093B1
:103B1C001568294923002A4AA84729212948FDF775
:103B2C00D5F8294B07AF23435BBA3B8080235B005E
:103B3C0001007B80B880EE3B04A81B1818000422FF
:103B4C0005F0E6FA0A2239003000FDF73DF81223A1
:103B5C0004A95B181900042206A806F04DF92021CF
:103B6C00069B30001ABA049BC91A01235B42CB4056
:103B7C0003998B409A43109B8B4021001A43FFF70B
:103B8C002BFF029B013395E710995388481E814106
:103B9C0092889208009130000599FFF735FFF0E705
:103BAC00538810999288484241419208F2E7C046E6
:103BBC000C0100206CD6000889D50008C6D6000878
:103BCC008ED600082BD6000800A0FFFF37B545693C
:103BDC0001242B0092331B7819432B6C4C405A4216
:103BEC0053418B4206D00094E523044A04490068F3
:103BFC00FFF748FF2C6401203EBDC0466CAC0008AA
:103C0C008CC00008F0B52A4B89B09B6D05905B0801
:103C1C00033B029116000021062206A8009305F032
:103C2C0077FA0023029C0193002E03D102980630F0
:103C3C0009B0F0BD009DB54200D93500009BB342E0
:103C4C0002D201231D422BD1019A1A4BEF1C1343B4
:103C5C005BBA2380ABB20393013B5BBA6380002356
:103C6C00A3807B001A00210005980493FCF7ACFF9D
:103C7C002300013F16D206A90622200006F0BCF84C
:103C8C00039A019B944663449BB20193049B0622C6
:103C9C00063BE418210006A8761B06F0ADF8C3E736
:103CAC00013DCEE71A8852BA1A800233E1E7C046CA
:103CBC000C0100200080FFFF802307B55B010B4344
:103CCC005BBA01A952BA4A800B800422FCF77CFF34
:103CDC0007BDC02313B59B0119436B4649BA1400A9
:103CEC0019806A4600236946538093800622FCF7AC
:103CFC006BFF6B469B885BBA238013BDF8B507003E
:103D0C000D001E00013A94B264008A1CA418298884
:103D1C00320038000235FFF7DCFF0236A542F6D13F
:103D2C00F8BDF0B5040099B0FCF77EFE631E0B9055
:103D3C000A93292B04D8184B621E9B1801221A7364
:103D4C000122B2212000FFF7B7FF0023642710AD3A
:103D5C002B8020002A001121FFF7BBFF80232E8827
:103D6C00DB0020001E421FD0FCF75EFE00280DD0A9
:103D7C000A4A130084331B78012B07D9B305883208
:103D8C0016689B0D064A07490220B047013FBFB297
:103D9C00002FDED11AE0C0468C0100200C0100205F
:103DAC00F8D600080FD70008FCF73EFE00280DD00F
:103DBC00D14A130084331B78012B07D98832B30501
:103DCC0017689B0DCD4ACE490220B84700260DAA94
:103DDC00310020001680FFF77CFF262204ABD2189E
:103DEC002A2120001680FFF774FF0EAA282120003C
:103DFC001680FFF76EFF20002B001022C149FFF741
:103E0C007DFF2000FCF710FEB0421AD0BA4A130016
:103E1C0084331B78012B14D9E9892B880691A98945
:103E2C008832059169890220049129890391E988D6
:103E3C000291A9880191698800911568B049B24A2C
:103E4C00A8472000FCF7F0FD00281BD0AA490B0066
:103E5C0084331B78012B15D910AAD08B138A0690AA
:103E6C00908B88310590508B0490108B0390D08AE6
:103E7C000290908A0190528A022000920D68A34A07
:103E8C009F49A8479F4910AD20002B0004222031E8
:103E9C00FFF734FF2000FCF7C7FD002812D0964A2C
:103EAC00130084331B78012B0CD9E9882B880291E1
:103EBC00A98888320191698802200091156890497F
:103ECC00934AA8472A22002604ABD218532120007B
:103EDC0010AD1680FFF7FDFE20002A0040212E8039
:103EEC00FFF7F7FE2000FCF79FFDB0420CD0824A92
:103EFC00130084331B78012B06D9883216682B8863
:103F0C00844A7F490220B0472000FCF78DFD002831
:103F1C001DD079490B0084331B78012B17D9042051
:103F2C002A88802310400490082010400390102011
:103F3C00104002902020104001904020134002407D
:103F4C00883100920D68744A6D493E38A8476D4916
:103F5C0010AF3B00102228312000FFF7CFFE2000CD
:103F6C00FCF762FD0025A8420DD0634A1300843390
:103F7C001B78012B07D9883215683B88674A604942
:103F8C000220A84701252000FCF74EFD002810D088
:103F9C00594A130084331B78012B0AD96E1C8832C2
:103FAC006D007B5BF6B2156855495D4A0220A84747
:103FBC003500012309932000FCF736FD002816D0AC
:103FCC004D4B1A0084321278012A10D988331A000A
:103FDC006B1C10A95B005B5A022001936B005B5AAF
:103FEC004749009313684F4A1E00099BB047099B31
:103FFC0002350133EDB20993082BDCD100250FAE4D
:10400C0032009D2120003580FFF763FE2E2204AB89
:10401C00D218992120001580FFF75BFE3A009621FB
:10402C0020003D80FFF755FE20002A00B221FFF74B
:10403C0043FE2000FCF7F8FCA84215D02E4A1300D2
:10404C0084331B78012B0FD90EA909880DAB1B8863
:10405C000191262104A80918098888320091156855
:10406C002749314A0220A8472000FCF7DDFC002834
:10407C000FD0214A130084331B78012B09D92A2332
:10408C0004A95B18883215681B88284A1C49022031
:10409C00A8472000FCF7C8FC00280CD0164A1300D7
:1040AC0084331B78012B06D9883215683388204A53
:1040BC0013490220A8472000FCF7B6FC00280FD0BB
:1040CC000D4A130084331B78012B09D92E2304A924
:1040DC005B18883215681B88164A09490220A847C4
:1040EC002000FCF7A1FC00282ED0034A13008433D7
:1040FC001B78012B28D91FE00C01002022D70008C7
:10410C000FD700084CA0000839D700087AD7000850
:10411C00BDD70008E8D70008FFD700087CD80008F6
:10412C009DD80008B5D80008D7D8000822D90008B7
:10413C003FD9000855D90008883210AB14681B8889
:10414C00064A07490220A0470A9B292B04D80A9A41
:10415C00044B9B180B9A1A7319B0F0BD65D9000863
:10416C000FD700088C0100206523F0B5050089B03D
:10417C00059104920393494C05992800A36F984725
:10418C00061E0BD1883424682B00454A4549A047AC
:10419C002800FFF7C6FD300009B0F0BD0E2704ABB8
:1041AC00FF1800233A002A2128003B80FFF791FDDD
:1041BC0040223B88134252D03A0028212800FFF7B6
:1041CC0088FD3A880499D3B20B704A800B2B3BD8EC
:1041DC00180002F04BFB061BE0E0E0E0E0E0E0E062
:1041EC00E0E02E4B304A88331C682B002D49002010
:1041FC00A0472800FFF795FD284B2C4A88331C68F4
:10420C0028492B000020A0470026C4E7110A1029DA
:10421C0004D801238B4026490B4205D18423D2B20A
:10422C009B011A43049B5A801C4B88331C68049BCB
:10423C005A88204B120A013AD2B2202A02D81E4BBD
:10424C009200D3581D4AD1E7009588341C4A246843
:10425C0014490020A0470022049B1A70C9E72300D0
:10426C0084331B78002B07D0230088331E68154A33
:10427C002B000C490120B047039B013B9BB20393DD
:10428C00002B00D077E700958834246864330E4AFD
:10429C0004490398A047039E7DE7C0460C0100200B
:1042AC0087D90008AFD90008BFD9000831DA000857
:1042BC001600010079D9000824B50008E2D90008DD
:1042CC0002DA000859DA00087ADA0008F0B585B08D
:1042DC0003AC170022000600FFF746FF051E35D081
:1042EC0022786388062A27D11A0525D58022D20088
:1042FC0013402ED1002F00D03B706388DB050BD50B
:10430C00174B1A0084321278032A05D988331B689C
:10431C00144A15490420984763889B0516D5104B01
:10432C001A0084321278032A10D988331B680F4A7A
:10433C000D490420984709E0094A00938832146813
:10434C0033000B4A08490020A0470025280005B07F
:10435C00F0BD31000F20FCF701FC2B00CAE7C04672
:10436C000C010020E3DA0008AFD90008FCDA0008E1
:10437C00B3DA000873B56B469C1D0023220038216C
:10438C0005002380FFF7A5FC24880120002C0BD10D
:10439C00064B074A88331E6806492B002000B0479D
:1043AC002800FFF7BEFC200076BDC0460C010020A3
:1043BC0014DB0008AFD90008F0B585B003AE1500CA
:1043CC00320004001F00FFF7CFFE00280ED031781A
:1043DC00A9420DD0094A0A4B009101958832146804
:1043EC0000204833074A0849A047002005B0F0BD1B
:1043FC00002FFBD02000FFF7BDFFF7E70C010020DA
:10440C004CA0000845DB0008AFD9000810B501230B
:10441C000B22FFF7D1FF10BD30B50E25002485B05F
:10442C006D4421002A002C80FFF753FC2988074B90
:10443C000120994208D0064A009188321568200064
:10444C00044A0549A847200005B030BD12110000F0
:10445C000C01002070DB0008AFD9000813B56B46C7
:10446C009C1D0023220011212380FFF732FC2088A1
:10447C004005C00F16BDF7B5089D2F4E2A600400ED
:10448C00B06D904200D9100002311960032302383C
:10449C0098436B4628609D1D00232A002A2120008A
:1044AC002B80FFF716FC2B885B060FD5330084336B
:1044BC001B78002B07D0330088331F681F4A23005A
:1044CC001F490120B8472000FFF72BFC2000FFF705
:1044DC00C5FF00280BD0883623001A4A1849002043
:1044EC003568A8472000FFF71CFC0020FEBD2A0001
:1044FC0080212000FFF7EDFB02222B8880219343C3
:10450C001A432000FFF7D8FB2A0080212000FFF778
:10451C00E0FB80212A8820008A43FFF7CDFB012293
:10452C0005212000FFF7C8FB200003227A21FFF7AA
:10453C00C3FB0120DAE7C0460C0100209EDB00081B
:10454C00AFD90008CADB000870B504000D00FFF7F6
:10455C0085FF021E0CD00D4B0D4A88331D680D498A
:10456C0023000020A8472000FFF7DBFB002070BDD4
:10457C0010212000FFF7A0FB8022D20020002A434C
:10458C001021FFF799FB0120F1E7C0460C01002038
:10459C00F9DB0008AFD9000870B515009A1C0A4B5E
:1045AC009C6DA24206D988331B68084A0849002032
:1045BC00984770BDA024E4010C4364BA2C802900F8
:1045CC00FCF702FBF5E7C0460C01002028DC0008D4
:1045DC0048DC0008F0B5476995B0FB6F05900A936D
:1045EC003B000833DB6F0B933B6C0D930B9B002B49
:1045FC0004D00A9B002B01D000233B64059B11AC1B
:10460C001B68002508930B684E680C9315232370C8
:10461C00089B2000129307238C2239001393FCF77C
:10462C008FFA009410AB32000C99089810951195E4
:10463C00FFF721FF04950400A8420FD1044B054A53
:10464C0088331B6804499847200015B0F0BDC0465C
:10465C000C01002052DC0008E5D00008E123049A8C
:10466C001B019B1A119A109E07929A4200D907932C
:10467C00049BFB49079A5918300005F0BDFB6B46AB
:10468C001D8A9B8BF74C03933B68039A0193C923B8
:10469C002900009330002300FFF7D2F87B68039ABF
:1046AC000193C7232900009330002300FFF7C8F8BB
:1046BC00BB68039A0193C8232900009330002300A0
:1046CC00FFF7BEF8BB89039A0193C5232900009319
:1046DC0030002300FFF7B4F83B69039A019363237E
:1046EC002900009330002300FFF7AAF87B69039A96
:1046FC000193E6232900009330002300FFF7A0F874
:10470C007B6A039A0193DE23290000933000230077
:10471C00FFF796F8BB6A039A0193F22329000093E2
:10472C0030002300FFF78CF8FB6A039A0193D72320
:10473C002900009330002300FFF782F83B6B039AAB
:10474C000193D8232900009330002300FFF778F859
:10475C007B6B039A01937C23290000933000230088
:10476C00FFF76EF8BB6B039A01937D23290000932E
:10477C0030002300FFF764F8FB6B039A01937B2353
:10478C002900009330002300FFF75AF80023039A06
:10479C0001930093290023003000FFF751F83B6C84
:1047AC00039A0193E5232900009330002300FFF7BF
:1047BC0047F87B6C039A0193CD23290000933000BA
:1047CC002300FFF73DF8BB6C039A01937723290074
:1047DC00009330002300FFF733F8BB6C002B6DD037
:1047EC00012301930D330093039A23002900300019
:1047FC00FFF726F89C4B039A019310232900009392
:10480C0030002300FFF71CF83F2301932D3B00934E
:10481C00039A230029003000FFF712F80F23924A65
:10482C00009301922300039A29003000FFF708F847
:10483C000022112301920093039A230029003000D7
:10484C00FEF7FEFF894B039A019313232900009373
:10485C0030002300FEF7F4FF3F2301932B3B009322
:10486C00039A230029003000FEF7EAFF804B039ADD
:10487C0001930C232900009330002300FEF7E0FF86
:10488C003F230193323B0093039A2300290030000D
:10489C00FEF7D6FF774B039A01931523290000935B
:1048AC0030002300FEF7CCFF3F230193293B0093FC
:1048BC00039A230029003000FEF7C2FFFB6C694C01
:1048CC0001938023039A0093290023003000FEF704
:1048DC00B7FF3B6D039A0193CA2329000093300064
:1048EC002300FEF7ADFF7B6D039A0193E9232900AA
:1048FC00009330002300FEF7A3FFBB6D039A0193D6
:10490C007E232900009330002300FEF799FFFB6DF6
:10491C009AB20992002206929AB2082A14D913006C
:10492C00FF22083B9A401300FF2293439BB206934D
:10493C0002230193D7330093039A230029003000FC
:10494C00FEF77EFF08230993099B464C0193DF2356
:10495C00039A0093290023003000FEF771FF099B96
:10496C00039A0193D0232900009330002300FEF713
:10497C0067FF8023069A290013430E930193E123CA
:10498C00039A009330002300FEF75AFFC023069AC7
:10499C0029001A43E3230F9201920093039A2300F8
:1049AC003000FEF74DFFFF23069A290013430993AD
:1049BC000193E223039A009330002300FEF740FF9B
:1049CC000E9B039A0193D2232900009330002300FD
:1049DC00FEF736FF0F9B039A0193D4232900009313
:1049EC0030002300FEF72CFF099B039A0193D3237D
:1049FC002900009330002300FEF722FFF023069AD3
:104A0C0029001A43C423069201920093039A2300AF
:104A1C003000FEF715FF069B039A01937F232900B4
:104A2C00009330002300FEF70BFF099B039A0193C0
:104A3C0020232900009330002300FEF701FFBB6FF9
:104A4C00039A013B01937223290000933000230049
:104A5C00FEF7F6FEBB6E039A019373230CE0C0467F
:104A6C008CC000086CAC000880FF0000C0FF000088
:104A7C00F0FF0000FFFF000029000093300023002E
:104A8C00FEF7DEFEFB6E039A0E330193D52329004D
:104A9C00009330002300FEF7D3FE3B0070331B78ED
:104AAC000693069ACE23002A00D08FE001320192A1
:104ABC000093039A230029003000FEF7C1FE069BE9
:104ACC00039A0193CF232900009330002300FEF7B3
:104ADC00B7FE3B6E039A013B0193DA232900009346
:104AEC0030002300FEF7ACFEFB6F039A0193CB233F
:104AFC002900009330006B4BFEF7A2FE7B6F039AEC
:104B0C0001937423290000933000664BFEF798FE46
:104B1C003B1DD86F644902F0E3FC02F095F83C00B1
:104B2C00DB23013880B201900093039A5D4B29007E
:104B3C0030000834FEF784FEE36F039A0193CC2314
:104B4C00290000933000574BFEF77AFEE36F002BE1
:104B5C000BD03B0088331B68039A01936F23290009
:104B6C00009330004F4BFEF76BFE049B0C9A990898
:104B7C0089B2079B0898FFF70FFD119A049B944686
:104B8C0063440493049A494B9A4200D866E5EE219B
:104B9C00059BFF311868FFF7D7FC041E00D153E5C5
:104BAC000A9B002B00D14FE5059B11AA1E681969C1
:104BBC003000FFF7D9FA3E4B051E4BD188331C68E9
:104BCC003C4A33003C49A0472C003DE500220093B1
:104BDC0001922300039A29003000FEF731FE0123D5
:104BEC000193CE330093039A230029003000FEF783
:104BFC0027FEBB6E01330E9300231C0006933B6E05
:104C0C006200099363000F93099B29009C429B410E
:104C1C005B420193294B30009B5A039A0093214B22
:104C2C00FEF70EFE099B9C420BD2069B6200019381
:104C3C00234B29009B5A30000093039A194BFEF723
:104C4C00FFFD0E9A069B9446013463440693402C58
:104C5C00D5D149E70EAAD289062A09D00092883309
:104C6C001C68184A330014490020A0470024EBE4C8
:104C7C001A0084321278012A05D988331B68124A2B
:104C8C001249022098470B9B002B00D1DCE40D9BB2
:104C9C0005983B640093034AE5230D490068FEF731
:104CAC00F1FE91E76CAC000817B751370F0E0000FE
:104CBC000C0100206FDC0008AFD90008ECAB000839
:104CCC006CAB0008A1DC0008DBDC0008E5D00008B8
:104CDC008CC00008F0B597B00E000D920768FBF77A
:104CEC008BFF13AD1290290012A8FBF7A9FE041E2E
:104CFC0021D06B8838000593AB880693EB8807931B
:104D0C002B890025089333681195099373680999C9
:104D1C000E9312AB00930E9A11AB1295FFF7ABFBEF
:104D2C002E000400A84209D1BE4BBF4A88331B6831
:104D3C002000BE499847200017B0F0BDBC4B129A1A
:104D4C00119C9B1B04929A4200D90493B94B049A70
:104D5C00F118200005F050F86B461B8AB64D0393F2
:104D6C00059BB1B201931B23039A009320002B00E7
:104D7C00FEF766FD069BB1B201931923039A0093CB
:104D8C0020002B00FEF75CFD079BB1B201931A23A8
:104D9C00039A009320002B00FEF752FD089BB1B242
:104DAC0001931723039A009320002B00FEF748FD74
:104DBC00102301930023B1B20093039A2B0020001F
:104DCC00FEF73EFDB108049B89B2099A3800FFF743
:104DDC00E3FB129BF618994B9E42AFD91821380071
:104DEC00FFF7B2FB041E04D18E4B954A88331B6827
:104DFC009EE7FA2100230322C9003800FFF7DCFAF2
:104E0C0000284CD012AC22009D213800FEF761FF27
:104E1C000722238806201340238022000123390017
:104E2C00FBF7A8FE3800FFF7A5FA002837D0238837
:104E3C0038000B93C0239B002380FFF70FFB041E4D
:104E4C0036D10B9B2A0000937A4911233800FEF7C8
:104E5C0019FE009401232A0076493800FEF712FE51
:104E6C000A940A9A12ABD35C7249049300933800EB
:104E7C001F23714AFEF706FEE82138004900FFF7B0
:104E8C0063FB00281CD1674B6E4A88331C6867494A
:104E9C00049BA047634B6C4A88331B6803E0614B4F
:104EAC006A4A88331B68614900209847002442E70E
:104EBC005C4B674A88331C683B005C490020E8E780
:104ECC00FA2100230922C9003800FFF775FA0028DF
:104EDC0009D00E9B252B0CD8524B5E4A88331B688D
:104EEC005249002098474F4B5B4A88331C68049BFF
:104EFC00E3E7102209993800FEF784FE1023059091
:104F0C00020039000020FBF735FE3800FFF732FABB
:104F1C000028E8D0059B00221C0008921E340C923D
:104F2C005A880C99188889180C91111A824200D24F
:104F3C00811A089A8A4200D2089102339C42EFD11E
:104F4C003800FBF771FD00280BD0364B1A00843269
:104F5C001278012A05D988331B68404A334902204C
:104F6C0098473800FBF760FD002800D186E0B0229E
:104F7C003B496020FBF714FE0390002800D17DE034
:104F8C0000242600002E00D1CBE05F2C2ED82C2242
:104F9C00631C0793039B1A556024079BA34225D0DF
:104FAC000025059A7300D35A079A0693039B9C1805
:104FBC0006980A2101F0FEFC30316B1C61550698F5
:104FCC000A210F9301F070FC83B20693002B20D1C1
:104FDC00069A6B1CE25423006A086519191B91424E
:104FEC0019D90F9A079B944663441C00731C0F2E0F
:104FFC003CD10C4B1A0084321278012A3BD98833ED
:10500C001C68184A039B18490220A04733E00794F8
:10501C00C6E70F9DCCE719782878013D18706970A8
:10502C000133DBE70C010020FFDC000840DD000849
:10503C00E40A0000A8B5000844AA0008E30A00002E
:10504C005FDD0008DADD0008A4DE000891DD000851
:10505C00A9DD00081ADE000879DE000832DE00083F
:10506C0048DE0008FFD900080FD700081E00102BDF
:10507C0088D1002CBDD10398FBF78BFD059B002438
:10508C001D880C9BED18294B2D09EA18284B9A42C8
:10509C0005D8C823089A9B0093426441E4B23800B7
:1050AC00FBF7C2FC00280ED0224B1A008432127877
:1050BC00012A08D9089A883300921E681E4A2B00D0
:1050CC001E490220B047002C1AD01A4B1A00843209
:1050DC001278012A1BD80D9B0B9A9A80049ADA80BD
:1050EC0006230D9A1360134B1A0084321278012A8E
:1050FC0000D820E688331B68114A1249022019E6B1
:10510C000A9B012B00D1C5E601230A93A9E6049A58
:10511C00883300921D680C4A0B9B08490220A84753
:10512C00D9E75F2C00D872E701262BE7E886FFFF52
:10513C00B80B00000C01002061DE000840DD000807
:10514C00CEDE0008E5D00008BBDE00080023F0B579
:10515C00140005008FB0019108A9CB7108A99370B8
:10516C00D3701380137313718B713E4A0168A26064
:10517C000291817B0391C17B0591818900930491FC
:10518C000169079206916B46049A1B889A4258D97A
:10519C00039B002B0CD008ABDE1DAB6932009B6966
:1051AC00069902989847002809D100200FB0F0BD4D
:1051BC00AB6902989B6A98470028ECD1F5E73378E5
:1051CC00002B00D1A378A370AB6908AADB69063267
:1051DC0001992800984700230BAE33703372AB69EA
:1051EC00079A1B6A0A9072601F000AAA3300019981
:1051FC002800B847337A002B00D1237B36782373F1
:10520C00331E00D123792371A1680C9804F066FB3E
:10521C0008AB06331B78A060002B00D1E378E37059
:10522C000A9A23883100D3182380AB6928005B6A63
:10523C009847059B002B07D0049B009A013B9A4290
:10524C0002D1019B1868B1E7039B002B03D1009B93
:10525C000133009397E7AB6902989B6A9847002843
:10526C00F5D1A2E7000080FFF7B544690192250053
:10527C0090351E002B88002B37D022008C321788DB
:10528C000A687F00D71901683A000120FBF772FC0D
:10529C00012300202D889D4229D802F04DFC071CCB
:1052AC00681E02F049FC011C381C01F041FF04F09F
:1052BC006DFB144902F014F913497060012501F0DB
:1052CC008FFC002800D1051C0023226C35709A42FB
:1052DC0004D1230092331A78012353400122134046
:1052EC0033728C342388019A13600120FEBD3988F7
:1052FC007A880133521AD11752184A4080189BB23F
:10530C000237C8E70000A04100006442F7B5002650
:10531C00436916701A0090338C3214881B88076806
:10532C00E4180D00220038000968FEF76BFC390008
:10533C000190230002003000FBF71CFC286862007F
:10534C00019904F062FD2000FEBD10B5FBF754FC82
:10535C00011C041C044801F0EBFE04F0F5FA011CDE
:10536C00201C02F0BDF810BDF902154F70B5041CDD
:10537C00FFF7EBFF211C061C201C01F03FFD051C58
:10538C00FE20311C800501F0D3FE0C4902F0A8F878
:10539C00011C281C01F0CCFE0021051C201C01F076
:1053AC000BFC002807D1FC218905281C01F026FDE7
:1053BC0002F0A2FB70BDBF210906F6E7C2F38E4DC9
:1053CC00F0B597B008930B0032330B931B78099010
:1053DC000D000A92062B07D0AE4BAF4A88331B68E0
:1053EC00AE490020984740E1099B08005E69FBF735
:1053FC000BFC002846D02B002C331B78002B41D003
:10540C002800FBF701FC0027B84201D03423EF5EE3
:10541C003BB228000793FBF7F7FB0023BFB298427F
:10542C0001D03622AB5EFF183FB22B002E331B7817
:10543C00002B44D02C8E2800FBF7E6FB0021884281
:10544C0002D02B0068331988079BF81A01F09CFBDB
:10545C000B9100290EDD8F4B1A0084321278012A31
:10546C0005D988331B688E4A8C49022098470B9BC0
:10547C00FF1A3FB2079B9F4224DA864B894A883336
:10548C001B68ADE72800FBF7BFFB0024002800D009
:10549C006C6A2800FBF7B8FB00280ED0A86A211C08
:1054AC0001F0ACFC071C201CFFF760FF03B2381C9A
:1054BC000793FFF75BFF07B2B7E70020EFE70B9B03
:1054CC001C78B8E72800FBF79FFB002805D02B00C1
:1054DC006E331B78002B00D0C5E1079B0C3300DB2F
:1054EC00EEE06C4B079888331B68089302F0B6FC0F
:1054FC00002101F061FB6C4F002800D16B4F079825
:10550C0002F0ACFC041C079802F0A8FC002101F08E
:10551C0053FB002800D1ABE06549201C01F0E0FFF3
:10552C00644901F06BFC01F08FFB0990079802F0C5
:10553C0095FC041C079802F091FC002101F03CFB47
:10554C00002800D197E05A49201C01F0C9FF5949A5
:10555C0001F054FC041C079802F080FC051C079811
:10556C0002F07CFC002101F027FB002800D185E033
:10557C004F49281C01F0B4FF4E4901F03FFC01F0EB
:10558C0063FB02F023FB011C201C02F0DBF84A49F0
:10559C0001F0A6FF01F058FB07900C20404202F0EE
:1055AC005DFC002101F008FB3F4C002800D13F4C72
:1055BC000C20404202F052FC051C0C20404202F030
:1055CC004DFC002101F0F8FA00285AD03849281C6B
:1055DC0001F086FF374901F011FC01F035FB0500A5
:1055EC000C20404202F03AFC061C0C20404202F017
:1055FC0035FC002101F0E0FA002845D02C49301C84
:10560C0001F06EFF2B4901F0F9FB061C0C20404207
:10561C0002F024FC0A900C20404202F01FFC0021F6
:10562C0001F0CAFA002832D021490A9801F058FF3B
:10563C00204901F0E3FB01F007FB02F0C7FA011C63
:10564C00301C02F07FF81C4901F04AFF01F0FCFA13
:10565C00079B1A4A0193099B049000933B00039506
:10566C0002940E490020089CA047002017B0F0BD02
:10567C00FE21890551E7FE21890565E7FE21890593
:10568C0077E7FE218905A2E7FE218905B7E7FE2110
:10569C008905CAE70C010020ECDE0008E5D0000803
:1056AC0017DF00084ADF0008D2CF000880E30008AB
:1056BC00000080BFBD3706350024744979DF00082F
:1056CC0064014B3C24B2BC4200DBCCE0DA4B38002A
:1056DC0088331B68089302F0C1FB002101F06CFABF
:1056EC00D64B0793002801D1D54B0793380002F015
:1056FC00B5FB051C380002F0B1FB002101F05CFA8F
:10570C00002800D19DE0CF49281C01F0E9FECE49CC
:10571C0001F074FB01F098FA0990380002F09EFB3E
:10572C00051C380002F09AFB002101F045FA002814
:10573C0000D189E0C349281C01F0D2FEC24901F016
:10574C005DFB051C380002F089FB061C380002F0DA
:10575C0085FB002101F030FA002878D0B949301CC3
:10576C0001F0BEFEB84901F049FB01F06DFA02F000
:10577C002DFA011C281C01F0E5FFB44901F0B0FE24
:10578C0001F062FA0A90200002F068FB002101F09F
:10579C0013FAAA4F002800D1A94F200002F05EFB9B
:1057AC00051C200002F05AFB002101F005FA00282C
:1057BC0050D0A449281C01F093FEA34901F01EFB14
:1057CC0001F042FA0500200002F048FB061C200004
:1057DC0002F044FB002101F0EFF900283DD099497B
:1057EC00301C01F07DFE984901F008FB061C2000DE
:1057FC0002F034FB0B90200002F030FB002101F092
:10580C00DBF900282CD08F490B9801F069FE8E49EA
:10581C0001F0F4FA01F018FA02F0D8F9011C301C6E
:10582C0001F090FF894901F05BFE01F00DFA0A9B33
:10583C0004900193099B039500930297079B844A5C
:10584C000FE7FE2189055FE7FE21890573E7FE213D
:10585C00890584E7FE218905ACE7FE218905BFE7B0
:10586C00FE218905D0E72800FBF7CEF900230E9323
:10587C00984203D02B0068331B880E93079B0E991C
:10588C00F81A01F09BF8013083B228000B93FBF758
:10589C00BBF90023984202D02B0060331B880B9A73
:1058AC00280053439BB20C93FBF7AEF900239842AC
:1058BC0009D02A004F322B0012785233511E8A41E4
:1058CC001B88524213403200903213800C9AD3182A
:1058DC0080221201934204DD574B5E4A88331B68C9
:1058EC007EE52800FBF790F90024A04201D0AC8F94
:1058FC00E4B22800FBF788F9002804D02B006A33A7
:10590C001B78002B3ED12A2044430B9B56345C431E
:10591C002738434303340D930D9BE3180F93FFF784
:10592C0014FDF421890501F0DBFD10902800FBF734
:10593C006BF9002837D00F9802F048F96C6E119073
:10594C000021201C01F04CF900282CD0211C1098AF
:10595C0001F0EEFB119901F0F5FE041C0D9802F01C
:10596C0035F9011C201C01F0E3FBFC21890501F039
:10597C0045FA02F0C1F8041E0DDA2F4B364A883373
:10598C001B682DE512200B9B5843063044430E3404
:10599C00FF340323BFE7314B984205DD264B304AD9
:1059AC0088331B681CE504000D980F9B6043C018DE
:1059BC0002F00CF9011C109801F0BAFB33008E3385
:1059CC000D901C802800FBF71FF9002802D02B003B
:1059DC004733187833000C9A92331870063B1A80B0
:1059EC002B002E331B78002B21D02B8E099A0124EF
:1059FC0093801300079A9C811A810B9A28005A8174
:105A0C00FBF702F933007033002804D02A006A3205
:105A1C001278002A26D100221A702800FBF738F9D8
:105A2C00032825D8002300F02BFF1F3135492B000C
:105A3C0032331B78DAE7C0460C010020D2CF0008C5
:105A4C0080E30008000080BFBD3706350024744990
:105A5C00B6DF0008F3DF000853E00008FEFF00008B
:105A6C0074E000081C70D8E77362B362F3623363AE
:105A7C002800FBF717F9042835D80023012200F081
:105A8C0009FF2B002B00150118012F000122736256
:105A9C00B262EBE72800FBF7E5F8041CFBF7ACF867
:105AAC00211C01F045FB01F0CFF8012373620023A8
:105ABC00B362030C80B2F3623063D9E72800FBF7C2
:105ACC00D1F8041CFBF798F8211C01F031FB01F014
