:020000040800F2
:100000000090002081350108F3AB0008F1AB000837
:1000100000000000000000000000000000000000E0
:10002000000000000000000000000000EFAB00082E
:100030000000000000000000EDAB0008E5AB000888
:10004000D1350108D1350108CDAB0008D135010803
:10005000D1350108D1350108C3AB0008B9AB0008A0
:10006000D1350108A9AB000899AB0008D1350108CA
:10007000D1350108D1350108D1350108D135010844
:10008000D1350108D1350108D1350108D135010834
:10009000D1350108D1350108D135010871AB00080F
:1000A000D1350108D1350108D135010861AB00080F
:0C00B000D1350108D1350108D135010817
:1000BC0010B5064C2378002B07D1054B002B02D032
:1000CC00044800E000BF0123237010BD7000002025
:1000DC000000000044680108044B10B5002B03D04D
:1000EC000349044800E000BF10BDC04600000000FA
:1000FC0074000020446801080C2310B504785C439C
:10010C00034B1B195C68002C01D09B68A04710BDE9
:10011C00248401081FB50291002101AB18700A005C
:10012C0018000391FFF7E8FF05B000BD30B50C00D7
:10013C0011000122050085B001A882605A000570EB
:10014C004460FFF7D9FF05B030BD836910B50400DA
:10015C00002B0AD0124B1A0030321278002A04D02D
:10016C005B6B104A104901209847E369002B0AD0B9
:10017C000B4B1A0030321278002A04D05B6B0B4AFE
:10018C0009490120984763690120002B06D0044BD4
:10019C0000205B6B064A04499847002010BDC046FE
:1001AC00D0050020FCCB01080DCC010823CC0108A4
:1001BC0032CC01087047704710B50400C26B816BDC
:1001CC00236C006998470022A36B5A6110BD4269E9
:1001DC00036910B5934207D1114B00205B6B114A98
:1001EC0011499847002010BD8469002C07D00C4B96
:1001FC0000205B6B0D4A0C4998470020F3E7C3695C
:10020C0004339A4207D0064B20005B6B084A064920
:10021C0098472000E7E7006883689847E3E7C04603
:10022C00D005002059CC010885CC0108A9CC0108C7
:10023C00C9CC0108012310B5C26900681370C368EA
:10024C00984710BDF0B5C6460F008B2100B5C90507
:10025C000600181C1C1C950810F056FB002180464B
:10026C00201C11F067F800280FD1BF210906404669
:10027C0010F09EF811F03EFA04B23000AA00BA1841
:10028C00BA4205D104BC9046F0BDFC218905EEE7CD
:10029C000023FE5E0023C55EAD1B6543EB171B05FB
:1002AC001B0D5B191B139B193B800223C55E02239C
:1002BC00FE5E0430AD1B6543EB171B051B0D5B1974
:1002CC001B139B197B800437DAE7836910B5040094
:1002DC00002B0AD00E4B1A0030321278002A04D0B0
:1002EC005B6B0C4A0C4901209847E369002B0AD040
:1002FC00074B1A0030321278002A04D05B6B074A85
:10030C0005490120984720688368984710BDC0466E
:10031C00D0050020FCCB0108F0CC010823CC01084F
:10032C0070B50400436A4569826B19680069E36B18
:10033C009847287020684368984770BDF8B5050049
:10034C000C001348111C10F011FC114910F0CAF9E3
:10035C00C7210906071C10F0D7FA11F0CBF90D498B
:10036C0006B2381C10F0D0FA11F0C4F9640864001D
:10037C0000B22C19A54201D10020F8BD0023EA5E81
:10038C00904202DD02359642F4DB0120F5E7C046CF
:10039C000000C84200FEFF460369426910B5040024
:1003AC00934207D0134B00205B6B134A13499847B9
:1003BC00002010BD8369002B0AD00E4B1A0030327E
:1003CC001278002A04D05B6B0D4A0C490120984727
:1003DC00E369002B0AD0074B1A0030321278002A3E
:1003EC0004D05B6B074A0549012098472068836855
:1003FC009847DEE7D005002009CD010831CD010872
:10040C00FCCB010823CC010810B50400836B984782
:10041C0020684368984710BD836910B50400002B11
:10042C000AD00E4B1A0030321278002A04D05B6BC3
:10043C000B4A0C4901209847E369002B0AD0074B63
:10044C001A0030321278002A04D05B6B064A054938
:10045C000120984720688368984710BDD00500207C
:10046C00FCCB01084CCD010823CC010870B504006D
:10047C00416A028F438F0968E56B0069A8472068C1
:10048C004368984770BDF0B54F464646D646C0B552
:10049C001F00154B1600984601235B42994600231A
:1004AC0004009A464D086D004519AC4204D11CBCA1
:1004BC0090469946A246F0BD0C4B20889C46604461
:1004CC007843310010F0DCFD80231B02C01803D5EB
:1004DC00534623800234E8E7404502DD4B46238037
:1004EC00F8E72080F6E7C046FFFF00000080FFFF22
:1004FC00836B244A10B5040093420BD10369426903
:10050C0093421ED0204B00205B6B204A2049984719
:10051C00002010BD1F4A93420BD1036942699342DC
:10052C000FD1194B00205B6B1B4A194998470020CF
:10053C00EFE7154B00205B6B184A154998470020D4
:10054C00E7E7A369002B0AD00F4B1A003032127860
:10055C00002A04D05B6B124A0D4901209847E369CD
:10056C00002B0AD0084B1A0030321278002A04D023
:10057C005B6B0C4A064901209847206883689847B2
:10058C00C7E7C046E9250008D005002009CD0108C1
:10059C006ECD0108A32600087FCD0108B4CD01085B
:1005AC00FCCB010823CC010810B50400836B9847E1
:1005BC0020684368984710BD0369426910B5040070
:1005CC00934207D0134B00205B6B134A1349984797
:1005DC00002010BD8369002B0AD00E4B1A0030325C
:1005EC001278002A04D05B6B0D4A0C490120984705
:1005FC00E369002B0AD0074B1A0030321278002A1C
:10060C0004D05B6B074A0549012098472068836832
:10061C009847DEE7D005002009CD0108C9CD0108B7
:10062C00FCCB010823CC010810B50400836B984760
:10063C0020684368984710BD836910B50400002BEF
:10064C000AD00E4B1A0030321278002A04D05B6BA1
:10065C000B4A0C4901209847E369002B0AD0074B41
:10066C001A0030321278002A04D05B6B064A054916
:10067C000120984720688368984710BDD00500205A
:10068C00FCCB0108E1CD010823CC010810B5436A6D
:10069C00826B00681A604368984710BD836910B577
:1006AC000400002B0AD00E4B1A0030321278002AAC
:1006BC0004D05B6B0B4A0C4901209847E369002B73
:1006CC000AD0074B1A0030321278002A04D05B6B28
:1006DC00064A05490120984720688368984710BD51
:1006EC00D0050020FCCB0108EECD010823CC01087D
:1006FC00F0B5002652080400064D90000918043984
:10070C00013A00D2F0BD5300E35E4E805B106B40AB
:10071C000B80F4E700C0FFFF70B55308064D5B007B
:10072C00023B9C1C03D103339A43100070BDC45E82
:10073C0064106C40CC52F3E700C0FFFF520813006A
:10074C0030B5013B01D2900030BD5C00045B9D00D4
:10075C0024034C51F5E7F8B54746CE4680B5070063
:10076C009408E6008D19A400043C083D231D04D117
:10077C0030000CBC90469946F8BD3B190220185E1F
:10078C0010F0D8FFE621890510F0BEF88046385FDE
:10079C0010F0D0FFE621890510F0B6F80021814653
:1007AC00404610F0B1F8011C48460FF001FE4346DC
:1007BC0028606B60D8E7F8B54746CE46884680B5CA
:1007CC00150007009408A400043C231D06D1280042
:1007DC00032398430CBC90469946F8BD3E59B0B2E1
:1007EC0010F0A8FFDE21890510F08EF88146301438
:1007FC0010F0A0FF011C48460FF0DAFD43461851DB
:10080C00E2E710B553085B00023B9C1C03D1033399
:10081C009A43100010BDC45A6400CC52F4E78369AB
:10082C0010B50400002B0AD00E4B1A00303212788F
:10083C00002A04D05B6B0C4A0C4901209847E369F1
:10084C00002B0AD0074B1A0030321278002A04D041
:10085C005B6B074A054901209847206883689847D5
:10086C0010BDC046D0050020FCCB010800CE01080D
:10087C0023CC010810B50400436A828F1968006903
:10088C00A36B984720684368984710BD836910B5DF
:10089C000400002B0AD00E4B1A0030321278002ABA
:1008AC0004D05B6B0B4A0C4901209847E369002B81
:1008BC000AD0074B1A0030321278002A04D05B6B36
:1008CC00064A05490120984720688368984710BD5F
:1008DC00D0050020FCCB010812CE010823CC010866
:1008EC0010B50068C368984710BD10B5FFF7F8FF46
:1008FC0010BD10B5FFF7F4FF10BD10B5FFF7F0FFFA
:10090C0010BD10B5FFF7ECFF10BD10B5FFF7E8FFF9
:10091C0010BD10B5FFF7E4FF10BD10B5FFF7E0FFF9
:10092C0010BD10B5FFF7DCFF10BD70B50400456AB3
:10093C0041692A68A36B006998472860206843685E
:10094C00984770BD10B5FFF7F0FF10BDC36A10B526
:10095C00002B02D014305B6B984710BD826910B528
:10096C00002A0FD048235A43074B483A1B689B1860
:10097C001A0040321278002A01D141331A70043027
:10098C00FFF7E4FF10BDC0468C00002070B5036B70
:10099C0085691B6B416828009847074B041E05D1DD
:1009AC005B6B064A06499847200070BDDB69002B3B
:1009BC00FAD028009847F7E7D00500201ECE010892
:1009CC003ECE01080020704710B5024BDB689847FB
:1009DC0010BDC046D005002010B5040040690028A9
:1009EC0003D0FFF7F1FF0023636110BD10B50400C5
:1009FC004069002803D0FFF7E7FF0023636110BDB7
:100A0C0070B504680500002C0AD0606FFFF7A6FFD4
:100A1C00EA239B00E058FFF7D7FF2000FFF7D4FF35
:100A2C002800FFF7D1FF70BD70B504680500002CDD
:100A3C000AD0606FFFF792FF2300FC33D869FFF7F1
:100A4C00C3FF2000FFF7C0FF2800FFF7BDFF70BDFC
:100A5C0010B5024B9B69984710BDC046D0050020CD
:100A6C0010B5024B5B69984710BDC046D0050020FD
:100A7C0070B5856904002800FFF7F2FF482169432F
:100A8C000D4B48391B68E06A5918236BA66B9B68A1
:100A9C009847002804D12800FFF7DAFF002070BD2A
:100AAC002000236B31005B69183098470028F2D086
:100ABC000123E370F3E7C0468C00002070B5856B12
:100ACC00042D08D9334B344A5B6B344900209847CA
:100ADC000024200070BD042D13D12E4BDC69002C9A
:100AEC0005D15B6B2E4A2D4920009847F1E702791E
:100AFC00032A06D15B6B2B4A284900209847002417
:100B0C00E7E7C38F162B07D9224B274A5B6B234988
:100B1C00002098470024DCE7838F013B9BB23E2BDF
:100B2C0007D91C4B214A5B6B1C49002098470024B9
:100B3C00CFE70379002D09D1032B15D1154B1C4A96
:100B4C005B6B1649280098472C00C2E7032B0BD18E
:100B5C0003004E331C78002C06D10E4B154A5B6BF0
:100B6C000E4920009847B4E704239D4303D10300AA
:100B7C0001224E331A70323003780124062BA8D090
:100B8C00092BA6D0034B0C4A5B6B044900209847F9
:100B9C0000249EE7D00500204DCE010865CE01084B
:100BAC0078CE0108B7CE0108F9CE01082DCF010887
:100BBC007FCF0108BBCF0108FBCF010810B50400A3
:100BCC000120002C0AD1074A130030331B78002B6C
:100BDC0005D0536B0449054A9847200010BD1800F6
:100BEC00FCE7C046D005002065CE01080FD00108F7
:100BFC0010B50400FFF7E2FF002801D04E34207836
:100C0C0010BD10B50400FFF7D9FF002801D04934FE
:100C1C00207810BD70B504000D00FFF7CFFF002841
:100C2C0001D06834258070BD10B50400FFF7C6FFF5
:100C3C000023984201D068342388180010BD10B5E9
:100C4C000400FFF7BBFF0023984201D060342388D7
:100C5C00180010BD70B504000D00FFF7AFFF0028A1
:100C6C0001D00634E58770BD70B504000D00FFF7A8
:100C7C00A5FF002801D00434E58770BD10B5040031
:100C8C00FFF79CFF0023984201D00434E38F180037
:100C9C0010BD70B504000D00FFF790FF002801D0C7
:100CAC000234E58770BD10B50400FFF787FF002301
:100CBC00984201D00234E38F180010BD10B5040027
:100CCC00FFF77CFF00280BD02079032808D810F000
:100CDC0039F902020505FF20C00510BDA068FCE72C
:100CEC000048FAE70000C07F10B50400FFF766FF6C
:100CFC000023984200D02379180010BD10B50400D1
:100D0C00FFF7F2FF01280CD02000FFF7D7FF011CE2
:100D1C0005480FF0E7FC04490FF04AFB10F034FBD8
:100D2C0010BDFA20C000FBE70000FA4410B5040027
:100D3C00FFF744FF0023984201D0A38FDBB21800C9
:100D4C0010BD10B50400FFF739FF002801D048345E
:100D5C00207810BD10B50400FFF730FF002801D03B
:100D6C004734207810BD10B50400FFF727FF00238F
:100D7C00984200D0A36B180010BD10B50400FFF70B
:100D8C001DFF002801D00123237110BD10B50400F4
:100D9C00FFF714FF0023984200D0E368180010BD41
:100DAC00F0B5DE464E4657464546E0B5040089B0E0
:100DBC000800894603939346FFF7E8FF0600484670
:100DCC00FFF7FCFE00230193984203D04B464C33B3
:100DDC001B880193482248235242924673439A44FB
:100DEC00524B002198461B6853441A004232117032
:100DFC004F4959640399A163190041310978029153
:100E0C00002956D111704A4A30005A64FFF728FE67
:100E1C00236BA0695B689847051E2CD005AF310089
:100E2C000B20FFF777F90C220299380012F014FE10
:100E3C003F4B20007B6043461B68039953441A00C8
:100E4C00236B1830DD683B00A847051E29D04346AC
:100E5C0001221B68534441331A70344B39781B6898
:100E6C000C2053441A00423211707A6831005A64D3
:100E7C00FFF750F905E02F4B2F4A5F6B2F493300DA
:100E8C00B8473000FFF7E4FD002D12D1201DFFF70D
:100E9C005DFD280009B03CBC90469946A246AB4685
:100EAC00F0BD244B264A5B6B244998463300C0475F
:100EBC00D3E7019B002B34D14846FFF7A2FE002854
:100ECC0023D01423A7695B4438009A46FFF7C8FD6A
:100EDC00A36B48219946182379439846134B4839FC
:100EEC001B68E06A5918236BA0449B689847051E41
:100EFC0006D0236B52461B6949464046984705006D
:100F0C003800FFF7A5FD002DC0D00E2305A80370F7
:100F1C002022073B5946466083600125FFF7ECF819
:100F2C00B7E75B46019A9A82EFE7C0468C00002037
:100F3C00000080FFD00500202AD001083ECE010819
:100F4C0065D00108F0B5DE46454657464E46E0B53D
:100F5C00324B8FB05B6B04000A93FFF717FF0B90BB
:100F6C002000FFF7E3FE0C902000FFF727FE002384
:100F7C009846984201D0E38F98462000FFF793FEE5
:100F8C000D902000FFF77AFE81462000FFF716FE39
:100F9C000026B04201D0A31DDE8F2000FFF7E3FE38
:100FAC001F4F042802D81F4B8000C7582000FFF7A2
:100FBC0005FE1D4D002808D023006A331B78002B3A
:100FCC0003D01A4D012B00D0154D2000FFF7C2FEA7
:100FDC0082462000FFF733FE83462000FFF7B1FE68
:100FEC005B460893534607934B4603930D9B09901E
:100FFC000293434601930C9B069500930597049628
:10100C000B9B0B4A0B4902200A9CA0470FB03CBC1F
:10101C0090469946A246AB46F0BDC046D00500208E
:10102C009FEE01086068010888D001080FD70108FD
:10103C008AD0010865CE010810B5034B034A5B6BDF
:10104C0003490120984710BDD0050020C2D00108EB
:10105C00E9DD010810B500280AD0094B02689A4254
:10106C0006D1038B002B03D043690120002B06D142
:10107C00044B00205B6B044A04499847002010BDC8
:10108C00D79DC0ACD0050020C2D00108E9DD010815
:10109C0010B50400FFF7DEFF00280BD06379013B8D
:1010AC00DBB2042B06D9044B00205B6B034A0449CA
:1010BC009847002010BDC046D0050020D8D00108AC
:1010CC00E9DD010810B5002804D00268054B0120A9
:1010DC009A4206D0044B00205B6B044A04499847A3
:1010EC00002010BDE89EC0ACD0050020F0D0010857
:1010FC00E9DD010810B504000069002803D0C368BD
:10110C0098470023236110BDF8B50400FFF7DAFF00
:10111C00002829D0184D2E79002E25D0637A002B6B
:10112C0020D163682A2B1FD86A1D5B009F5C002F9F
:10113C001AD101219954E37E002B03D0206BFFF7C9
:10114C0087FCE77663682A2B04D859006A1D52186D
:10115C0000215170012262722A2B03D89340002285
:10116C0005355A553000F8BD044B054A5B6B0549F3
:10117C00002098470026F5E78C000020D0050020C1
:10118C00FFD00108E9DD0108F0B5C64600B5040042
:10119C00FFF798FF00280AD1324B334A5B6B334977
:1011AC00002098470026300004BC9046F0BD304D1E
:1011BC002E79002EF0D0637A002BF4D063682A2BA2
:1011CC00EAD86A1D59008F5C002FE5D101208854A4
:1011DC0052185278002A3BD1227E022A21D01823A1
:1011EC009846A0444046FFF743FC002830D0A37E2D
:1011FC00002B1FD0237E012B10D1A36C00229B69E6
:10120C00E169206B9847002822D0A36C206B9B6A65
:10121C00984700281CD04046FFF7B8FB63682A2B80
:10122C0004D86A1D5B00D31801225A7000233700C2
:10123C0063720DE0A36C206B9B6A9847002807D063
:10124C00A36C00229B69E169206B98470028D1D1DF
:10125C0063682A2B03D8002205355B005A55002FF2
:10126C009AD0A0E7D00500201BD10108E9DD0108C8
:10127C008C00002010B5041E01D0006910BD064B77
:10128C001A0030321278101EF8D001205B6B034A22
:10129C00034998472000F1E7D0050020C2D001088F
:1012AC00E9DD010870B50D00FFF7E4FF041E06D060
:1012BC00FFF784FC002801D03234257070BD044B3C
:1012CC0030331B78002BF9D0FFF7B6FEF6E7C0469B
:1012DC00D005002070B505000E00FFF7CBFF041EF3
:1012EC0010D0FFF76BFC002802D023004A331E708D
:1012FC00002E08D00F212000FFF7CBFC012120008D
:10130C00FFF7A8FC70BDAB68002BFBD069792800F7
:10131C009847F7E710B5002803D00173FFF7DAFF01
:10132C0010BD044B30331B78002BF9D0FFF784FE33
:10133C00F6E7C046D005002010B5041E0CD083681B
:10134C00002B09D041719847237B002B03D001213E
:10135C002000FFF7BFFF10BD034B30331B78002B71
:10136C00F9D0FFF769FEF6E7D005002070B50D0047
:10137C00FFF780FF0400FFF721FC002801D04E345A
:10138C00257070BD70B50D00FFF774FF0400FFF7FA
:10139C0015FC002800D0A58770BD70B50D00FFF7B7
:1013AC0069FF0400FFF70AFC002801D047342570C0
:1013BC0070BD70B50D1CFFF75DFF0400FFF7FEFB61
:1013CC0000280ED00749281C0FF09EFA011C054876
:1013DC000FF0CCFBFC2189050EF0EAFF10F08AF926
:1013EC00E08770BD0000B04170B50D00FFF742FF03
:1013FC000400FFF7E3FB002800D0A56370BD70B5B7
:10140C000D1CFFF737FF0400FFF7D8FB002802D0B4
:10141C000323A560237170BD10B5FFF72BFFFFF7F9
:10142C00ACFC10BD70B50D1CFFF724FF0400FFF7DA
:10143C00C5FB002800D0A56270BD70B50D1CFFF770
:10144C0019FF0400FFF7BAFB002800D0656270BDDD
:10145C0010B5041E04D00379032B0DD1200010BD50
:10146C00064B1A0030321278002AF7D05B6B044A14
:10147C00044901209847F1E70024EFE7D00500204C
:10148C00C2D0010835D1010870B50D00FFF7E0FF9F
:10149C00002811D01C300400681E04280CD80FF052
:1014AC0051FD030C0E17200000212000FFF7DCFB80
:1014BC0000212000FFF7EDFB70BD0721F5E72000B0
:1014CC000921FFF7D1FB03212000FFF7E2FBF3E733
:1014DC000C212000FFF7C8FB06212000FFF7D9FBE9
:1014EC00EAE71021F5E7F0B5C646002500B5060081
:1014FC008AB0A9421ED00323086803AC6060300098
:10150C00E56025766576A5762370A160226163611E
:10151C00FFF7D8FDA57E002D11D06368002B02D0FB
:10152C00E368002B15D1244B244A5B6B2449002023
:10153C009847002528000AB004BC9046F0BDA3686B
:10154C00002B06D11C4B1F4A5B6B1D49280098478A
:10155C00F0E7002801D10025ECE7337A227893429A
:10156C0007D00092144A1649546B0020164AA04723
:10157C00F1E7277E002F04D03000FFF705FE071E91
:10158C00E9D0737A9846002B0CD00B4B0F4A5B6B4F
:10159C000B49002098470025002FCBD03000FFF7D7
:1015AC00B3FDC7E701253369746105CB9047637EB2
:1015BC005D4043467361EFE7D005002044D101083C
:1015CC00E9DD010861D1010876D1010892D1010849
:1015DC0010B50C00002817D0037A032B14D1002966
:1015EC0012D003691B689A69586A0A60DA694A6002
:1015FC00DA8D0A819A6ACA6004490FF085F9FC21D8
:10160C0089050FF081F9206110BDC046C2F38E4DE3
:10161C0070B504000D00FFF71DFD002803D0290054
:10162C002069FFF7F7FA70BD70B504000D00FFF7E5
:10163C000FFF002817D0002D0DD0012D0BD00A4B19
:10164C001A0030321278002A0DD05B6B074A084919
:10165C000120984707E024692000FFF7AFFA002823
:10166C0001D06A34257070BDD0050020A8D10108C6
:10167C0035D1010870B504000D1CFFF7EBFC0028F8
:10168C0006D024692000FFF799FA002800D065667F
:10169C0070BD70B504000D00FFF7DCFC002807D00E
:1016AC0024692000FFF78AFA002801D060342580D5
:1016BC0070BD10B50400FFF7CDFC03000020834281
:1016CC0002D02069FFF7BBFA10BDF0B5C646164B29
:1016DC00164E98461C6E330000B530331B7805004F
:1016EC00032B05D94368124A12490420776BB8477B
:1016FC000023002C0DD0626DAC4207D1002B11D110
:10170C0043461A662000FFF75FF908E02300140037
:10171C00EFE7766B6B68084A06492000B04704BCBB
:10172C009046F0BD5A65EDE78C000020D0050020F6
:10173C00CDD10108EED10108FED10108134B10B533
:10174C005C331B780400002B14D0002811D00068E7
:10175C00FFF7B8FC00280CD02068FFF7D5FC2068F8
:10176C00C368002B00D098472068FFF7AEFF00231A
:10177C00236010BD064B1A0030321278002AF8D0C4
:10178C005B6B044A044901209847F2E78C00002067
:10179C00D005002032D20108EED1010810B50400AA
:1017AC00FFF758FC002802D02379002B0BD0074BF5
:1017BC001A0030321278141E05D05B6B044A0549AE
:1017CC00012098470024200010BDC046D005002001
:1017DC00C2D0010844D2010870B50E00FFF7DEFF3D
:1017EC00051E18D00400701E1C34042813D88C3528
:1017FC000FF0A8FB03122123320000212000FFF779
:10180C0033FA00212000FFF744FA03212000FFF7F0
:10181C0021FA124B2B6070BD07212000FFF724FA30
:10182C0006212000FFF735FA09212000FFF712FAF4
:10183C000B4B2B60EFE70921EFE70C212000FFF7A2
:10184C0013FA06212000FFF724FA01212000FFF7EC
:10185C0001FA034B2B60DEE71021EFE7FA61843CC1
:10186C000938843B10B50C00002818D0037A002BE3
:10187C0015D1002913D003691B689A69586A0A604C
:10188C00DA694A60DA8D0A811A8E013A4A81044972
:10189C000FF03AF8FC2189050FF036F8E06010BD26
:1018AC00C2F38E4D70B504000D00FFF777FF0028D2
:1018BC0009D02000FFF7DEFC0400FFF77FF90028B9
:1018CC0001D04934257070BDF8B505000C1CFFF72C
:1018DC0065FF002817D00021201C0FF00DFD0028FB
:1018EC0006D1FE21201C89050FF01AFD071E0BD016
:1018FC00114B1A0030321278002A04D05B6B0F4A5D
:10190C000F4901209847F8BD2800FFF7B3FC0500EC
:10191C00FFF754F90028F6D0FE20211C80050FF0AB
:10192C0025F900216861201C01260FF0DFFC00283E
:10193C0000D03E1C2E76E6E7D005002055D20108DB
:10194C0044D2010870B504000D00FFF727FF0028F2
:10195C0003D029002069FFF75DF970BD014B5C33A2
:10196C00587070478C000020F0B583B006000D1C39
:10197C008CB201A8018091B26F463A801F1CEDB267
:10198C00240AD0B2090A800083594900585A0FF032
:10199C00D1FE391C0EF0B8FF0FF0F6FC80B2002718
:1019AC0010E001339BB26A089A4209D99A00925905
:1019BC007900521811888142F3D900211180F0E787
:1019CC000137BFB2A3B2BB4201D90023EBE703B08E
:1019DC00F0BDF0B5DE4657464E464546E0B589B0FB
:1019EC0082460D1C8EB207A8018091B206AC2280F3
:1019FC001C1CEBB29846330A0593D3B29B460B0AD8
:101A0C0099465B469B0052469A584B465B00D05A0F
:101A1C000FF090FE211C0EF077FF0FF0B5FC87B293
:101A2C0000260023029301933B004746D8469B4671
:101A3C002AE001352DB22C007B089D4222DAAB0046
:101A4C0052469B587200D05A5845F2D90FF072FE8C
:101A5C000390011C02980EF0ABFC02904346E41A72
:101A6C006443049B4A46981A404320180FF0ACFE7E
:101A7C00011C03980EF048FF011C01980EF098FC15
:101A8C000190D6E7013636B20496059B9E4201DAE8
:101A9C000025D0E70021029C201C0FF027FC002819
:101AAC0004D1211C01980EF01DFE0190019809B083
:101ABC003CBC90469946A246AB46F0BDF0B5C64636
:101ACC0000B584B08DB201AB1980CFB22B0A009354
:101ADC000021002398460025002611E001339BB21B
:101AEC007A089A420AD99A0012584C00A25AB24269
:101AFC00F4D9CDB2DCB2A0461600EFE7013189B2C1
:101B0C00009B9BB28B4201D90023E9E702AB424612
:101B1C001A705D701B88180A0002FF2213401843CC
:101B2C0004B004BC9046F0BD30B5051C084B586E93
:101B3C00002308E05C1C064AA1005118496E9B006A
:101B4C00D31859662300072BF4DD014B1D6730BDFC
:101B5C008C000020002305E09900044A5218002153
:101B6C0051660133082BF7DD7047C0468C0000200E
:101B7C0000280FDB084B1B7A98420BDA002909DB93
:101B8C00054B5B7A994205DA034BDB688000C3583E
:101B9C0049005A527047C0460C010020002810DB47
:101BAC000C4B1B7A98420EDA00290EDB094B5B7A40
:101BBC0099420CDA074BDB688000C3584900C85ABD
:101BCC0000E0002070470020FCE70020FAE700202E
:101BDC00F8E7C0460C010020F0B5DE4657464E46ED
:101BEC004546E0B585B007008BB203AC218002926C
:101BFC00C9B289461B0A9B4600233B607B6092B2AC
:101C0C0090465A464146551A2DB2019336E02900AA
:101C1C002000FFF7C3FF06000FF08CFD011C01989C
:101C2C000EF0C6FB019030000FF0CEFD061C20001C
:101C3C000FF080FD011C301C0EF066FE011C386894
:101C4C000EF0B6FB386029002000FFF7A7FF0FF05D
:101C5C00BBFD061C28000FF06DFD011C301C0EF0A6
:101C6C0053FE011C78680EF0A3FB7860013424B29B
:101C7C004B4653449C42CADD01352DB2029B9A4619
:101C8C005B449D4203DC4B4642469C1AF0E7002124
:101C9C00019C201C0FF02AFB002809D1211C38685C
:101CAC000EF020FD3860211C78680EF01BFD78606A
:101CBC00380005B03CBC90469946A246AB46F0BDF8
:101CCC00F0B583B00F1C89B2FFB2090A00240CE0F6
:101CDC00A5002D585E00AD1900262E8001339BB255
:101CEC008DB29D42F4D80134A4B27B08A34205D92D
:101CFC000123A3401A42F6D00023F1E703B0F0BD54
:101D0C00F0B583B007008DB201AB1980CCB22B0AB1
:101D1C00009300261BE09A00D25971008A5A801851
:101D2C0001339BB2A5B29D42F5D821000FF01EF9EC
:101D3C00002308E09A00D259710052181188091A30
:101D4C00118001339BB29D42F4D80136B6B2009B90
:101D5C009BB2B34202D900230020E3E703B0F0BDED
:101D6C0010B50400002904D00FF086F9002900D02A
:101D7C00641A200010BDC900FF238B401840C840D6
:101D8C00C0B2704710B50022835E00240A5F028047
:101D9C000B8010BD0200002001E00130C0B2130026
:101DAC000341DB07F9D57047F0B583B0060000237B
:101DBC00002002E0140008E001330F00994209DD15
:101DCC005A00925F8242F5DC04005042A042F3DCE0
:101DDC002000F1E70FF0AEFC011C8720C0050EF0CF
:101DEC0081FC019000250CE06C0034190023E05EAE
:101DFC000FF0A0FC01990EF087FD0FF07BFC20800A
:101E0C000135AF42F0DC019803B0F0BD0200184B75
:101E1C00012149421961122824D88000183318185E
:101E2C00E92A22D01300203BDBB2222B04D813006A
:101E3C00203B9B000F48181813007F33DBB2042B98
:101E4C0005D80B4B10008138800064331818130030
:101E5C003033DBB2092B04D8D03A054B92007833DF
:101E6C009818704702481030DAE701481430D9E767
:101E7C000C010020B804002010B5FFF7C7FF006864
:101E8C0010BD10B504002820FFF7F6FFC1B22000EA
:101E9C00FFF752FA2220FFF7EFFF012800D173E081
:101EAC00022800D17DE02620FFF7E6FF411E884185
:101EBC00C1B22000FFF771FA2920FFF7DDFF81B2D4
:101ECC002000FFF73FFD2520FFF7D6FF0100200083
:101EDC00FFF78AFA3320FFF7CFFF411E8841C1B2CA
:101EEC002000FFF743FA2020FFF7C6FF0FF06CFC31
:101EFC002E490EF0F7FB011C2000FFF79EFA212063
:101F0C00FFF7BAFF0FF060FC28490EF0EBFB011C49
:101F1C002000FFF787FA2420FFF7AEFF0FF054FCE8
:101F2C0022490EF0DFFB011C2000FFF742FA3020A3
:101F3C00FFF7A2FFC1B22000FFF724FA3120FFF710
:101F4C009BFF411E8841C1B22000FFF7ABFC322041
:101F5C00FFF792FF411E8841C1B22000FFF7DAF96A
:101F6C003420FFF789FFC1B22000FFF79BF9402016
:101F7C00FFF782FF0FF028FC0C490EF0B3FB011C9D
:101F8C002000FFF7A1FC10BD2230FFF775FF0FF00A
:101F9C001BFC06490EF0A6FB011C2000FFF72FFAD4
:101FAC0081E72000FFF738FA7DE7C04600007A444D
:101FBC0070B504000E0015002820FFF75DFFC1B2BC
:101FCC002000FFF7B9F92220FFF756FF012800D1B6
:101FDC006DE0022800D177E02620FFF74DFF411E6F
:101FEC008841C1B22000FFF7D8F92520FFF744FF44
:101FFC0001002000FFF7F8F93320FFF73DFF411EE9
:10200C008841C1B22000FFF7B1F930000FF0DCFBC2
:10201C002F490EF067FB011C2000FFF70EFA280079
:10202C000FF0D2FB2A490EF05DFB011C2000FFF7DC
:10203C00F9F92420FFF720FF0FF0C6FB24490EF01E
:10204C0051FB011C2000FFF7B4F93020FFF714FFFF
:10205C00C1B22000FFF796F93220FFF70DFF411EA9
:10206C008841C1B22000FFF755F94020FFF704FF6B
:10207C0081B22000FFF70DFB4120FFF7FDFE0FF0B2
:10208C00A3FB13490EF02EFB011C2000FFF7F2FA04
:10209C004220FFF7F1FE01002000FFF7C5FA2920CE
:1020AC00FFF7EAFE81B22000FFF7B2FA70BD2230D2
:1020BC00FFF7E2FE0FF088FB05490EF013FB011C45
:1020CC002000FFF79CF987E72000FFF7A5F983E7CD
:1020DC0000007A4410B584B0022808D001AA0E4B37
:1020EC00143312CB12C21B881380002306E0043079
:1020FC00FFF7C2FE00200BE00133DBB2092B06D840
:10210C0001AAD25C824205D0F6D9012000E0012060
:10211C0004B010BD0020FBE760680108704770B583
:10212C0006000C00194B9D6C8D6019490EF01EFFBA
:10213C0018210EF0A1FF2170154930000EF09CFF04
:10214C000E00144930000EF011FF3C210EF094FFEC
:10215C006170104930000EF08FFF0E00FA218900DB
:10216C0030000EF003FF3C210EF086FFA170FA2127
:10217C00890030000EF080FF681C4843FA2189006A
:10218C000EF0F4FE2D1A656070BDC0468C01002067
:10219C0080EE360060EA000010B50378002B1DD0ED
:1021AC000F4C5C434378002B02D00E4A5343E41887
:1021BC008278002A05D053019B1A9B009B18DA00E9
:1021CC00A418816842688A1A53019B1A9B009B18B9
:1021DC00D80001310EF0CAFE001910BD0024E1E751
:1021EC0080EE360060EA0000014820307047C0469F
:1021FC006068010800487047001BB74B10B5054CD0
:10220C00606E14F03DF9002363666822A35202321B
:10221C00A35210BD8C01002030B50E25002485B0D2
:10222C006D442A0021002C800DF0DCFC2A88074B21
:10223C0001209A4207D00092054A2000556B0549AF
:10224C00054AA847200005B030BDC0461211000059
:10225C00D0050020C5D2010897D2010837B54569D1
:10226C0001242B00BA331B7819432B6C4C405A4277
:10227C0053418B4206D00094EF23044A0449006872
:10228C000AF090FD2C6401203EBDC0463C7C010848
:10229C00C493010870B5160005000AF021FD040076
:1022AC003300020029000020FDF740FF200070BD24
:1022BC0070B504001500406914F0ECF8636A054A27
:1022CC001D60236B20681A600022236A1A60436821
:1022DC00984770BD3C5C645110B53830FFF7E8FF8F
:1022EC0010BD10B53830FFF7E3FF10BD70B504001A
:1022FC00C569636A2E1D1A682B780069002B09D0FA
:10230C000100300014F0C6F800232B7020684368DD
:10231C00984770BDE36B3100A56BA847F6E770B525
:10232C00049D1E002B784469002B0AD1A37E002B40
:10233C0011D0E3686068934200D913001A0014F0BE
:10234C00A9F82B7820696376002803D062693100E4
:10235C0014F0A0F870BDA3681960F2E77FB5050012
:10236C0010008A790E794C7903AB9A7002AA5E70D0
:10237C0014701C7000924A692900FFF7D0FF7FBDD2
:10238C00F0B5050085B01000CA794C7903AB0E7915
:10239C008F79DA7002AA14701F705C709E700092B4
:1023AC004A692900FFF7BBFF05B0F0BD70B5060008
:1023BC00204B1A006C32108968229C5A21000EF0B6
:1023CC00D5FD85B2002E1CD01B4B988921000EF038
:1023DC00CDFD86B2002427E0A200164B586E164B9A
:1023EC0019682B0063435B00C91880586A0014F00D
:1023FC0051F80134A4B20F4A6823D35AA342EBD844
:10240C0070BD0024F7E70B4B5B6EA200D0586B003D
:10241C00C018094B9969330063435B00C9187200FB
:10242C0014F038F80134A4B2024A6823D35AA342F8
:10243C00E9D8E5E78C0100200C020020F0B5D64667
:10244C004F4646460C00C0B5002192B0050017005F
:10245C0004303422984611F0FFFA2000FEF796FC67
:10246C0081462000FEF70AFC01AE30802000FEF70A
:10247C001AFC70802000FEF7A1FB0023984201D0CB
:10248C00A31DDB8F2000B380FEF75BFC3200F080D5
:10249C00494604231220FDF749FE18239A46AA4404
:1024AC0020220021504611F0D7FA21005046236813
:1024BC0098470AAE8146002818D02022002130000F
:1024CC0011F0CAFA1C22002103A811F0C5FA2B6BDB
:1024DC0032001B6821009946504603ABC847814621
:1024EC0000280DD12B6B50465B6B98472000FEF7F4
:1024FC003AFC00282FD004284DD000232B702CE060
:10250C00002F07D03B00320083CA83C383CA83C326
:10251C0003CA03C34346002B04D01C2203A9404624
:10252C0013F0B8FF2000FEF7DFFB012810D02000CD
:10253C00FEF7C4FB011C19480EF0D4F817490DF036
:10254C0037FF0EF021FF00236860EB606B81CDE755
:10255C00FA20C000F7E702232B702000FEF7C4FB23
:10256C004342584168702000FEF742FBA8702000DF
:10257C00FEF70CFC052370603370300002331C2214
:10258C004146B360FDF7B8FD484612B01CBC9046FE
:10259C009946A246F0BD01232B70DEE70000FA44F9
:1025AC0010B50DF069FA10BDF0B5C64607008846A7
:1025BC00002400B595086600AC4203D1300004BC81
:1025CC009046F0BDA300DA5BFB1858880134000478
:1025DC0010430DF0D3FA43469853ECE7F8B5DE46BA
:1025EC004E4645465746436AE0B598461E68036B0F
:1025FC00016C1D680400281C0EF086F90DF01EFA03
:10260C00E16B0700281C0EF07FF90DF017FA8146DC
:10261C002469B508AD002D19AC4209D103239E43A2
:10262C0043461E603CBC90469946A246AB46F8BD5C
:10263C008023DB05F8180DF08BFA824638000DF07C
:10264C0087FA0022A35E51469C460222A35E624694
:10265C005143CA171205120D5218010059438B46EB
:10266C00C9170905090D594412130913521A22806E
:10267C0052465A43D3171B051B0D9B186246424307
:10268C00D0170005000D80181B1300131B18638056
:10269C004F440434C0E7F8B5DE4657464E4645462F
:1026AC00436AE0B599461B6806005C08036B016C35
:1026BC001D68281C0EF028F90DF0C0F9F16B07000D
:1026CC00281C0EF021F90DF0B9F9630098468246EA
:1026DC0035697669A844454508D14B46A4001C6071
:1026EC003CBC90469946A246AB46F8BD0022AB5E78
:1026FC0002359B468023DB05F8180DF029FA5B4662
:10270C004343D8170005000DC01800133080380063
:10271C000DF01EFA5B464343D8170005000DC01898
:10272C000013708057440436D5E77FB50022436A06
:10273C0006691D6803AB1A805A80039BAD082A00FA
:10274C00310040300093012304000CF0FBFF0A4BD6
:10275C002000EB189B00F3180222995E1B8802AA3A
:10276C00138001235180029A310000925B422A00AF
:10277C000CF0E8FF7FBDC046FFFFFF3FF0B5DE4623
:10278C004E4645465746E0B5490852088BB295B2BD
:10279C0083B083469946002D00D11D008BB2019366
:1027AC0001235B42C8462F0000269A46B14506D845
:1027BC0003B03CBC90469946A246AB46F0BD019A8C
:1027CC00F319934200DD4746002F1ED00022100063
:1027DC0074005C44BA421FD30123002800DA53462C
:1027EC007A0892B25343390018180EF049FC7B005A
:1027FC0002B2E318002A1ADD80B22288824213D278
:10280C00002222800234A342F7D143465B1B761987
:10281C009BB2B6B29846C9E70C4953008C46E35AB2
:10282C0001326344C018D5E7121A2280EAE708493E
:10283C008C4662442188914205DD51462180023448
:10284C00A342F7D1E1E7091A2180F8E70080FFFFE6
:10285C00FFFF000070B503000C0001220020A24213
:10286C000FD30EF067FF051C601E0EF063FF011CFA
:10287C00281C0DF037FF11F0D7FB07490EF044F878
:10288C0070BD1D8859880132491BCD174919694003
:10289C00401892B20233E2E70000A041F8B51D00E7
:1028AC00B823CE4699464746446980B5A1444B4669
:1028BC001B881700002B28D026000968B4368846E0
:1028CC00328801685200904442460120FDF72EFCEC
:1028DC004B4640461988FFF7BDFF012368600D4940
:1028EC0098460EF01DFD002800D1804643462B7003
:1028FC000023226C9A4203D1BA342278013353401C
:10290C00012213402B7233883B6001200CBC904693
:10291C009946F8BD00006442F8B557464E46454608
:10292C00DE464469E0B52700CE371D003B88804663
:10293C008A4616009946002B3AD02300C8331868F3
:10294C0080B243009B462300CC3319887C200EF0C8
:10295C000DFB5B4658432300C4331B884146C0180B
:10296C0053461B6809689A4682444B4652460120DE
:10297C00FDF7DCFB3F8850463900FFF76BFF012366
:10298C0068600F4998460EF0CBFC002800D18046B9
:10299C0043462B700023E26E9A4203D1C034227856
:1029AC0001335340012213402B723368DF1B376015
:1029BC0001203CBC90469946A246AB46F8BDC046A9
:1029CC00000064427FB503AE320005000DF03AFB07
:1029DC00041E08D10A4B0B4A5E6B0B492B00B04707
:1029EC00200004B070BD7388062BF9D00093044B03
:1029FC00064A5C6B04492B000020A0470024EFE73B
:102A0C00D0050020D5D20108C5D2010807D3010892
:102A1C00F0B585B003AC1700220006000DF012FBD8
:102A2C00051E32D022786388062A25D11A0523D5B3
:102A3C008022D20013402BD1002F00D03B70638832
:102A4C00DB050AD5154B1A0030321278032A04D94B
:102A5C005B6B134A13490420984763889B0514D574
:102A6C000E4B1A0030321278032A0ED95B6B0E4AC9
:102A7C000C490420984708E00093084B0B4A5C6B08
:102A8C00084933000020A0470025280005B0F0BD00
:102A9C0031000F20FDF73EFB2B00CDE7D0050020C9
:102AAC0071D30108C5D201088AD3010841D30108AA
:102ABC0073B56B469C1D0023220038210500238032
:102ACC000DF090F824880120002C0AD1054B064A01
:102ADC005E6B06492B002000B04728000DF0A9F8CA
:102AEC00200076BDD0050020A2D30108C5D2010874
:102AFC00F0B585B003AE1500320004001F000DF0D8
:102B0C00A1FA00280DD03278AA420CD00092094BC1
:102B1C00094A0195546B00205833084A0849A047CC
:102B2C00002005B0F0BD002FFBD02000FFF7C0FF48
:102B3C00F7E7C04660680108D0050020D3D3010830
:102B4C00C5D2010810B501230B22FFF7D1FF10BD30
:102B5C00F0B557464E464546DE460023E0B5050027
:102B6C0098468DB08946454906A89370D37013805A
:102B7C00137313719160871D1400286806AAD37112
:102B8C003B708246A87B07320090E87B059103904E
:102B9C00A88902920190286909AE04904346019AD3
:102BAC009BB29A4259D9009B002B0FD0AB69029A69
:102BBC009B6904995046984700280ED100200DB00F
:102BCC003CBC90469946A246AB46F0BDAB6950461C
:102BDC009B6A98470028E9D1F0E7029B1B78002BF1
:102BEC0000D1A378A370AB693A00DB694946280091
:102BFC009847002333703372AB69059A1B6A0890AF
:102C0C0072609B4608AA330049462800D847337A9D
:102C1C00002B00D1237B237333789B46002B00D1F0
:102C2C0023792371A168706811F0D2F83B78A06009
:102C3C00002B00D1E378089AE37094462388594618
:102C4C0063442380AB6928005B6A9847039B002B85
:102C5C0006D0019B013B984502D14B461868AEE764
:102C6C00009B002B03D101239C46E04496E7AB6903
:102C7C0050469B6A98470028F5D19FE7000080FFDB
:102C8C0070B50D000021436911701A00B833B432CD
:102C9C001B8814882968E41822000068FFF7FAFAE8
:102CAC0062000100286813F0FEFB200070BDCD22ED
:102CBC0070B5520004000D00BC200F490AF004F856
:102CCC0000236061984215D02800FEF75FF8206061
:102CDC002800FDF78DFFA0732800FEF744F843424F
:102CEC005841E0732800FEF709F8044B20610833C3
:102CFC00A3610123180070BDFED30108E068010830
:102D0C002C2270B5FF3204000D00D4200F4909F0BD
:102D1C00DBFF00236061984215D02800FEF736F8DF
:102D2C0020602800FDF764FFA0732800FEF71BF855
:102D3C0043425841E0732800FDF7E0FF044B20614B
:102D4C004033A3610123180070BDC04630D4010884
:102D5C00E068010870B5602272498C2009F0B4FF5C
:102D6C00041E00D1DBE0704B0500036003230371EC
:102D7C006E4B1C3583606E4B0561436158230221F9
:102D8C000383FEF7D9FA20000021FEF7C3FA2800CE
:102D9C00FDF714FF002801D0664B23642800FDF7D3
:102DAC000DFF002801D0644B63642800FDF706FF7B
:102DBC00002803D0230006224E331A702800FDF79A
:102DCC00FDFE002801D00123A3622800FDF7D5FFEA
:102DDC002800FDF7F3FE002801D0022363652800CC
:102DEC00FDF7ECFE002803D02300002248331A70B4
:102DFC002800FDF7E3FE002803D0230010227C33CB
:102E0C001A802800FDF7DAFE002802D00022231DCC
:102E1C00DA672800FDF7D2FE002803D02300002239
:102E2C0062331A702800FDF7C9FE002803D0230076
:102E3C00002263331A702800FDF7C0FE002803D06F
:102E4C002300002264331A702800FDF7B7FE002817
:102E5C0007D0230000226B335A701A7001334032B2
:102E6C005A802800FDF7AAFE002803D02300FF2279
:102E7C0072331A802800FDF7A1FE002803D023002E
:102E8C00002274331A702800FDF798FE002804D035
:102E9C002300002276331A70A26728000121FDF767
:102EAC00B9FE2800FDF78AFE002803D0230001227A
:102EBC0086331A702800FDF781FE002803D023000A
:102ECC000B225A331A802800FDF778FE002803D015
:102EDC0023000A2258331A802800FDF76FFE0028C1
:102EEC0003D02300002265331A702800FDF766FE1C
:102EFC00002803D0230001226A331A702800FDF742
:102F0C005DFE002804D080222300520170331A8009
:102F1C002800FDF753FE002801D0084BE361200088
:102F2C0070BDC04662D40108D79DC0AC9514000892
:102F3C0045570008CDCC4C3E9A99993EBB2C0008C5
:102F4C005C23F0B5C6469846324F00B5B8444346AC
:102F5C001C780600002C4ED0FEF77CF8002801D11E
:102F6C0000240BE03369DD682A2D0BD92A4B2B4A40
:102F7C005C6B2B492A230020A0470024200004BCB2
:102F8C009046F0BD43465B78002B02D13B6E002B84
:102F9C0029D1214B348B1A0030321278032A06D9EE
:102FAC005B6B204A98461E492B000420C04720002A
:102FBC00BD221D4909F088FE041ED1D01B4B456073
:102FCC0003603B6E3100436573693866984700288F
:102FDC000ED1E368002B01D0200098472000FEF7AB
:102FEC0074FB0024CAE75A6895420BD05B6DCEE7A0
:102FFC0001236372C2E7084B0D4A5B6B0849200042
:10300C009847BBE7044B0B4A5B6B0549002098477C
:10301C00A6E7C0468C000020D005002083D4010810
:10302C00EED101089CD40108BBD40108E89EC0ACC9
:10303C0032D20108DDD4010870B56D22724990209E
:10304C0009F042FE041E00D1DCE0704B0500036069
:10305C006F4B002683606F4B1C3543615823067100
:10306C00038305610221FEF767F920003100FEF7AA
:10307C0051F92800FDF7A2FDB04201D0664B236444
:10308C002800FDF79BFD002801D0644B63642800E9
:10309C00FDF794FD002803D0230006224E331A704E
:1030AC002800FDF78BFD002803D023000A2258339B
:1030BC001A802800FDF782FD002801D00123A362AD
:1030CC002800FDF75AFE2800FDF778FD002801D0F6
:1030DC00022363652800FDF771FD002803D023004F
:1030EC00002248331A702800FDF768FD002803D031
:1030FC002300002262331A702800FDF75FFD0028C0
:10310C0003D02300002263331A702800FDF756FD0C
:10311C00002803D02300002264331A702800FDF726
:10312C004DFD002807D0230000226B335A701A7013
:10313C00013340325A802800FDF740FD002803D0AF
:10314C002300FF2272331A802800FDF737FD002878
:10315C0003D02300002274331A702800FDF72EFDD3
:10316C00002804D02300002276331A70A2672800AE
:10317C000121FDF74FFD2800FDF720FD002803D0AD
:10318C0023000B225A331A802800FDF717FD002864
:10319C0003D02300012265331A702800FDF70EFDC1
:1031AC00002801D01E4BE3622800FDF707FD002824
:1031BC0005D01C4B01222363230034331A702800E2
:1031CC00FDF7FCFC002803D02300012238331A70D1
:1031DC002800FDF7F3FC002803D0230001226A33FA
:1031EC001A702800FDF7EAFC002804D09622230070
:1031FC00520170331A802800FDF7E0FC002801D042
:10320C00094BE361200070BD04D50108D79DC0AC0B
:10321C00E5170008A9590008CDCC4C3ECDCCCC3ECE
:10322C00CDCCCC3D9A99993E0D2D0008F0B5574662
:10323C004E46DE4645464469E0B5230027008DB076
:10324C000492C2331B8806008A46C637002B00D175
:10325C003B80CC239B46A3445B467C2019880DF015
:10326C0085FEC8239946A1444B461B6806A99DB20E
:10327C0023004543CE3318882D1820000DF058F844
:10328C00069B3988EA1853461B6830689C46614493
:10329C00FFF700F82300AD331B780600002B29D173
:1032AC000023049A06A91370200027000DF040F8A3
:1032BC005046069BC637590000683B886A00711857
:1032CC00C01813F0F0F84B463E88C43426801C68B6
:1032DC005B467C2019880DF049FEA4B2640044437F
:1032EC00280036193E800DB03CBC90469946A2464B
:1032FC00AB46F0BD27001F22BC373B685B00134078
:10330C003F4A3B60110030310978032905D9526BD3
:10331C003C49904604203C4AC047236A3B4A9BB236
:10332C005B007832985E0EF005FA804630880EF01D
:10333C004BFADE2189050DF0E7FAFC2189050DF029
:10334C0015FC33490DF0E0FA32490DF0DDFA011CA1
:10335C0040460DF00BFC0EF0CDF92F4A03B2984607
:10336C009BB29A182D4992B28A422AD82621625EC3
:10337C00708803922A4A9446E62263449BB2520018
:10338C00934222D90EF020FADE2189050DF0BCFA09
:10339C00FC2189050DF0EAFB1D490DF0B5FA1D491C
:1033AC000DF0B2FA059040460EF0C4F9011C0598D8
:1033BC000CF0FEFF0EF09EF9039B00B264339842B2
:1033CC0003DD01233A6813433B6000233A68002A6B
:1033DC0011D1022B00D863E7094A1100303109786A
:1033EC00002906D005210091576B06490D4A012092
:1033FC00B847012355E7511E0A400133E7E7C046A1
:10340C00D00500203ED5010827D50108E068010849
:10341C009A99993F00007A4412FDFFFF17020000B1
:10342C00F4FCFFFF4FD50108F0B583B00400019008
:10343C000D00FEF78FFB002D45D1454B5B7AA34267
:10344C0001D9002433E0434812F05EFB424812F0ED
:10345C005BFB0A2013F03AF8002032E0B2003F4B3D
:10346C009B18DF69A01B80B204306B460421595EA7
:10347C0000B2FEF793FB0EF05DF9391C0DF044FA27
:10348C00011C281C0CF094FF051C0136082EE5DDF0
:10349C00281CFEF749FB251FADB20DF075FF82B25B
:1034AC006B460421595E28B2FEF762FB0134284BAF
:1034BC001B7A5B080733A34202DD00260025E5E7F3
:1034CC00012003B0F0BD224B1B7A019A934201D923
:1034DC00002433E01F4812F017FB214812F014FBB4
:1034EC000A2012F0F3FF0020EBE7B2001B4B9B18F5
:1034FC00DF69A11B89B2043109B26B460420185E46
:10350C00FEF74CFB0EF016F9391C0DF0FDF9011C01
:10351C00281C0CF04DFF051C0136082EE5DD281C7F
:10352C00FEF702FB251FADB20DF02EFF82B229B2C1
:10353C006B460420185EFEF71BFB0134044B5B7AD0
:10354C000733A34202DD00260025E6E70120B8E799
:10355C000C010020FCE6010804E701080C02002025
:10356C0024E7010810B51F4C200012F0CDFA1E48BC
:10357C0012F0CAFA0A2012F0A9FF200012F0C4FAC5
:10358C00D020FEF779FC0100184812F0BDFA0A2091
:10359C0012F09CFF200012F0B7FAD120FEF76CFC61
:1035AC000100134812F0B0FA0A2012F08FFF20002D
:1035BC0012F0AAFAD220FEF75FFC01000D4812F0BF
:1035CC00A3FA0A2012F082FF200012F09DFAD320F9
:1035DC00FEF752FC0100084812F096FA0A2012F08D
:1035EC0075FF10BD48E7010850E7010858E70108CE
:1035FC006CE7010880E7010894E70108F8B50400BE
:10360C000E002A4D280012F07FFA2100284812F0F3
:10361C007BFA0A2012F05AFF280012F075FA3500D6
:10362C003100244812F070FA0A2012F04FFF0236D3
:10363C0066437600300012F019FF1F4B58660028C5
:10364C0018D01A4F380012F05FFA1C4812F05CFACE
:10365C000A2012F03BFF380012F056FA31001848DD
:10366C0012F052FA0A2012F031FF134B5F6EA600D3
:10367C00002216E0134812F047FA134812F044FAED
:10368C000A2012F023FF012040420DE02B0053438F
:10369C005B0091000848406EF318FB184350013250
:1036AC0092B2A242F2D30020F8BDC046B4E70108A2
:1036BC00BCE70108D0E701088C01002000E80108F4
:1036CC0020E80108FCE60108E0E70108F8B5124F14
:1036DC00386CFDF7EEFF0500104E6823F0523300F6
:1036EC006C33188929000DF041FC84B26A23F45222
:1036FC00263BFB5C002B07D0074B988929000DF06B
:10370C0035FC24186A23F452044A6A23D15A28003F
:10371C00FFF774FFF8BDC0460C0200208C0100209E
:10372C0010B5054B48331989044A6A23D15201203C
:10373C00FFF764FF10BDC0460C0200208C01002076
:10374C0070B505000E00002A03D1FEF7C3FC041E61
:10375C0009D02800FEF75AFB036801330DD0066030
:10376C000124200070BD064812F0CEF9054812F075
:10377C00CBF90A2012F0AAFEF3E70124F1E7C046C8
:10378C00B4E7010838E8010800B587B0029003914E
:10379C0004920593184902980DF0B6F80DF0F4FD5B
:1037AC00010001228120FFF7CBFF039B01931249FB
:1037BC00181C0DF0A9F80DF0E7FD01000122822084
:1037CC00FFF7BEFF02AB198901228320FFF7B8FF78
:1037DC0002AB598901228420FFF7B2FF05980649F4
:1037EC000DF092F80DF0D0FD010001228520FFF7BD
:1037FC00A7FF07B000BDC04600007A4484B010B5E6
:10380C0002900391049205931D4902980DF07CF8E7
:10381C000DF0BAFD010001228120FFF791FF18493C
:10382C0003980DF071F80DF0AFFD0100012282201C
:10383C00FFF786FF02AB1989079B002B01D01B8970
:10384C00C91801228320FFF77BFF0D4905980DF065
:10385C005BF80DF099FD010001228420FFF770FF49
:10386C00074906980DF050F80DF08EFD010001226D
:10387C008520FFF765FF10BC08BC04B01847C04694
:10388C0000007A4470B504000D00FEF7F5FA010053
:10389C00294301222000FFF753FF70BD10B582B001
:1038AC000220FEF7E9FA022805D0042823D1294B7F
:1038BC00DB6D019302E0274B9B6D01930198FDF7A3
:1038CC0023FC002819D001A8FDF738FFFEF796FC61
:1038DC00214812F019F9214812F016F90A2012F0B9
:1038EC00F5FD1C4A4423D35C002B10D10221494224
:1038FC000620FFF7C7FF02B010BD194812F004F9FB
:10390C00184812F001F90A2012F0E0FDE9E7106EF8
:10391C00FDF7FAFB002813D00E4C20006030FDF7A9
:10392C000DFFFEF76BFC44230022E2540A4812F010
:10393C00EBF80D4812F0E8F80A2012F0C7FDD5E7B5
:10394C00074812F0E1F8094812F0DEF80A2012F0EC
:10395C00BDFDCBE70C020020B4E701084CE80108E0
:10396C00FCE601086CE8010848E8010868E8010871
:10397C0070B505000C00FEF77FFA21000140012212
:10398C002800FFF7DDFE70BD10B50022FFF7D8FE52
:10399C0010BD70B5061C002400251CE0201F0DF086
:1039AC00C9FE311C0CF09EFE011C80231B06C018A6
:1039BC000CF0AAFFFC2189050CF0A6FF10F0C0FA50
:1039CC00011CA2000F4B9B18D861281C0CF0F0FCBA
:1039DC00051C0134A4B2082CE0D9291CFE2080055A
:1039EC000CF080FE061C002409E0A300054DED1828
:1039FC00311CE8690CF088FFE8610134A4B2082C92
:103A0C00F3D970BD0C02002030B583B08CB201AB81
:103A1C001980114BD8601972240A5C72101CFFF7C4
:103A2C00B8FF002405E000212000FFF7FDFC013465
:103A3C00A4B2094B5B7AA342F5D8002405E001211E
:103A4C002000FFF7F1FC0134A4B2034B1B7A5B0896
:103A5C00A342F4D803B030BD0C010020F0B5C6462B
:103A6C0000B584B007000E00904608000FF058FC1B
:103A7C000022344B0FF080F80290039100243300A5
:103A8C003E001F001DE0650075190023E85E0FF075
:103A9C000DFC009A019B0EF0FDFD0FF0D1FB288070
:103AAC00651C7D1B6D0075190023E85E0FF0FEFB95
:103ABC00009A019B0EF0EEFD0FF0C2FB2880013442
:103ACC00A4B27B08A34238D920000FF029FC029A3B
:103ADC00039B0EF0D5F91C4A1C4B0EF0DBFD10F0CD
:103AEC0031F91B4A1B4B0EF0D5FD02000B001A4896
:103AFC001A490FF041F8009001914346012BC2D0B6
:103B0C00650075190023E85E0FF0D0FB009A019B4D
:103B1C000EF0B6F90FF094FB2880651C7D1B6D0030
:103B2C0075190023E85E0FF0C1FB009A019B0EF0A3
:103B3C00A7F90FF085FB2880C1E704B004BC9046C0
:103B4C00F0BDC0460000F03F68A17454FB21194041
:103B5C00713D0AD7A370DD3F48E17A14AE47E13FCF
:103B6C00F0B5D6464F4680B583B0824689461600DE
:103B7C0000241EE067005346DD190023E85E0DF0BB
:103B8C00D9FD011C0CF0C0FE01904B46D85F0DF026
:103B9C00D1FD011C0CF0B8FE011C01980CF008FCC6
:103BAC000FF0F0FB10F06CF90FF04AFB2880013499
:103BBC0024B2B442DEDB03B00CBC91469A46F0BD95
:103BCC00F0B5DE4657464E464546E0B593B0070085
:103BDC008A469346109310B2FEF7DCF8119000253C
:103BEC0000245E461DE06B00984663009946F91868
:103BFC004346F818FEF7C6F8109B002B16D1534617
:103C0C0052464A44110043441800FEF7BBF80DE03D
:103C1C00E41AA4B25B089C42FAD2E418A4B20135AF
:103C2C00ADB2731E9D4203DAAC42DCD87308F2E7E6
:103C3C00002399460133190000230E930D930023A2
:103C4C007F4C0A930B944B460F930896D346D3E0C4
:103C5C004B465C19A4B26400A046D84443460020ED
:103C6C00185E0FF023FB049A059B029003910EF053
:103C7C0011FD0090019154440023E05E0FF016FBFF
:103C8C0006000F00069A079B0EF004FD02000B00C5
:103C9C00009801990EF070FF00900191049A059B19
:103CAC00300039000EF0F6FC06000F00069A079B58
:103CBC00029803990EF0EEFC02000B003000390064
:103CCC000DF0C2FD029003916E005B469F1900231C
:103CDC00F85E0FF0EBFA009A019B0EF04DFF0FF01F
:103CEC00AFFA4346188056440023F05E0FF0DEFA1C
:103CFC00029A039B0EF040FF0FF0A2FA20800023E3
:103D0C00F85E0FF0D3FA009A019B0DF09DFD0FF0B9
:103D1C0097FA38800023F05E0FF0C8FA029A039BE2
:103D2C000DF092FD0FF08CFA3080099B9C46654497
:103D3C00ADB2089B9D428BD3C846049A059B0A984A
:103D4C000B990EF0A7FC04000D00069A079B0E9829
:103D5C000D990EF09FFC02000B00200029000EF0C4
:103D6C000BFF06000F00049A059B0E980D990EF0A0
:103D7C0091FC04000D00069A079B0A980B990EF013
:103D8C0089FC02000B00200029000DF05DFD06905F
:103D9C0007910C9B01339BB20C93049605970C9BDB
:103DAC00434502D20C9DC146C3E75F46D3460A9AEF
:103DBC000B9B002023490EF0DFFE0022224B0EF05D
:103DCC0069FC10F05DF80E900D91109B012B28D022
:103DDC0000221C4B0A980B990DF036FD00221A4B51
:103DEC000EF058FC10F04CF80A900B910F9B01331D
:103DFC00DBB20F93099B19000F9B119A934217D2B8
:103E0C004B009BB2099300230024069307940023D4
:103E1C000C4C0493059400230C938846DA46BB465D
:103E2C00BDE70B0080221206944663440D93CFE746
:103E3C0013B03CBC90469946A246AB46F0BDC0467A
:103E4C000000F0BF0000F03F0000E03FF0B5DE46A0
:103E5C0057464E464546E0B585B000AF06008BB2DE
:103E6C00B981CAB290461B0A3B609B000A33DB083F
:103E7C00DB006A46D31A9D46EB4643465B0008338B
:103E8C00DB08DB006A46D21A9546BA60D31A9D4607
:103E9C00E94600244DE09A0092596100895E5A006F
:103EAC00B868115201339BB2424695B2AB42F2D381
:103EBC00002305E05A0000214846115201339BB201
:103ECC00AB42F7D32900BB689A461800FDF76CFF8C
:103EDC00A3005A469850012229005046FFF7BEFD18
:103EEC0001232A0049465046FFF76AFE2A0049463C
:103EFC005046FFF735FE00220AE093009959630003
:103F0C007B605000BB68C05A7B68C852013292B2C9
:103F1C0043465B089A42F0D307E09A00925961003D
:103F2C0052180021118001339BB2AB42F5D30134FE
:103F3C00A4B23B889A469C4201D20023B4E75B466C
:103F4C001B687B60012501E00135ADB255450AD2F5
:103F5C00AB005A469C58211C78680DF0E1F90028FA
:103F6C00F2D07C60F0E70023994617E0A3009D593E
:103F7C004B465B00ED1828880DF0DCFBB9680CF0A3
:103F8C00C3FC0DF001FA28800134A4B243465B084F
:103F9C009C42EBD34B4601339BB29946D14509D297
:103FAC004B469B005A46995878680CF09BFBB860BE
:103FBC000024EBE77868BD4605B03CBC90469946BA
:103FCC00A246AB46F0BDF0B5DE4657464E464546DA
:103FDC00E0B58BB0864C8749E06F0CF095FC0DF08A
:103FEC00D3F986B28349E06E0CF08EFC0DF0CCF95F
:103FFC0085B2A36F994609AB6822A25A1A706A223D
:10400C00A25A5A70D420FDF737FF0DF0DDFB794929
:10401C000CF068FB0390D820FDF72EFF0DF0D4FBBD
:10402C0074490CF05FFB0490D620FDF725FF0400CB
:10403C00D720FDF721FFC3B29846D920FDF71CFF0E
:10404C0007006D4B00936D4B22006D496D4811F0CC
:10405C005BFDE30711D4A30715D4FE239B05029344
:10406C00A30617D463071CD4230729D40BB03CBC7C
:10407C0090469946A246AB46F0BD5D4B586E0999E9
:10408C00FDF73EFEE7E75A4B586E0999FFF7DEFE47
:10409C000290E5E7564B586E3A000999FDF710FE71
:1040AC00E0E7D520FDF7E8FE0DF08EFB51490CF052
:1040BC0019FB021C4E4B586E0999FFF7A5FCD3E770
:1040CC004B4B9B465B6E9A4609991800FDF7F6FC24
:1040DC0083B206AA1080C7B2BA00514652581B0AC6
:1040EC009A465B00D35A1A000593474B0093434BF7
:1040FC004649444811F008FDC9239B0000933F4BEF
:10410C003A0043493F4811F0FFFC424B00933B4BB4
:10411C00524641493B4811F0F7FC5B46586E039BF5
:10412C00069A0999FDF755FC071CE30656D442463E
:10413C00069907A8FDF750FD089C30000DF0FAFA1F
:10414C00211C0CF0E1FB041C28000DF0F3FA011CFF
:10415C00201C0CF02DF9041C254A6823D05A0DF0B4
:10416C00E9FA011C48460CF0BDFA011C07980CF04A
:10417C00CBFB2A490CF0C8FB051C0021029E301C0D
:10418C000DF0B4F8002831D105980DF0D3FA311C9C
:10419C000CF0A8FA061C281C0DF0F6F80100012200
:1041AC00D020FFF7CDFA201C0DF0EEF80100012213
:1041BC00D120FFF7C5FA301C0DF0E6F80100012202
:1041CC00D220FFF7BDFA381C0DF0DEF801000122F9
:1041DC00D320FFF7B5FAFFF7C5F947E7044B586E44
:1041EC00049B069A0999FDF7BFFBA0E70026D2E7CE
:1041FC008C01002000007A440D03000090E80108B7
:10420C00A4E80108ACE8010823030000C0E8010899
:10421C00C8E8010825030000D8E80108E17A1C4031
:10422C0000B587B00290039104920593174811F0E2
:10423C0059FC174902980CF067FB0DF05BFA010072
:10424C00144811F061FC039B01931149181C0CF0EC
:10425C005BFB0DF099F801000F4811F055FC02AB17
:10426C0019890E4811F050FC02AB59890C4811F019
:10427C004BFC059806490CF047FB0DF085F8010046
:10428C00084811F041FC07B000BDC046E8E8010841
:10429C0000007A4404E9010814E9010824E9010842
:1042AC0038E9010850E9010810B5174C606EFDF7AC
:1042BC00E8FD606EFEF744FEA065002816D012499A
:1042CC004831FDF7CFFAFFF72BFA431C19D00E4CEF
:1042DC00A06CE16C226D636DFFF756FAA06CE16C7B
:1042EC00226D636DFFF79CFF012010BD074811F094
:1042FC000BFC074811F008FC0A2012F0E7F800202C
:10430C00F3E7FFF7CBFAE2E70C020020FCE601082A
:10431C0068E9010884B010B50290039104920593EA
:10432C00234811F0DFFB234902980CF0EDFA0DF055
:10433C00E1F90100204811F0E7FB204A4423D35C4B
:10434C00002B2AD01D4B996803980CF031F81949B1
:10435C000CF0DAFA0DF018F80100194811F0D4FB42
:10436C0002AB1989174811F0CFFB124905980CF0D4
:10437C00CBFA0DF009F80100134811F0C5FB0D49FB
:10438C0006980CF0C1FA0CF0FFFF01000F4811F079
:10439C00BBFB10BC08BC04B01847064903980CF0D2
:1043AC00B3FA0CF0F1FF0100094811F0ADFBD7E7AF
:1043BC008CE9010800007A4404E901080C02002091
:1043CC00A8E9010824E9010838E9010850E90108C5
:1043DC0014E90108F0B583B02020FDF74DFD3C2118
:1043EC00FDF7BEFC05002120FDF746FD3C21FDF745
:1043FC00B7FC0400654B984265D9654B984200D9CF
:10440C0074E0644F44230122FA54634E300011F0DF
:10441C007BFB624811F078FB0A2012F057F8ADB222
:10442C00386C5A4A2900FDF7C3FD300011F06CFBC3
:10443C005B4811F069FB0A2012F048F8594B9C427A
:10444C0000D21C00584B9C466444A4B222B2574B79
:10445C000093574B5749584811F056FBF023DB009B
:10446C009C466544A9B24B4B986E2200FDF7A0FD0B
:10447C00484C206CFEF764FDE065002841D04F49A4
:10448C006C31FDF7A5F8434A4423D35C002B43D091
:10449C004A4C00230193E36F0093E06E216F626F2F
:1044AC00A36FFFF7ABF9E36F0093E06E216F626FC0
:1044BC00A36FFFF72FFF374A4423D35C002B32D175
:1044CC00012003B0F0BD334E44230022F254324895
:1044DC0011F01AFB314811F017FB0A2011F0F6FF0E
:1044EC00A2B2A9B2306CFDF763FDC1E7344811F0FC
:1044FC000BFB344811F008FB0A2011F0E7FF0020F9
:10450C00DFE72F4811F000FB2F4811F0FDFA0A20CD
:10451C0011F0DCFF0020D4E7FFF7D8F8431CB7D12B
:10452C00FFF7BCF9B4E71400906EFEF709FD2066A6
:10453C0000281DD017490431FDF74AF8FFF7C6F8DB
:10454C00431C20D01D4B134C221D0192DA6F00929C
:10455C00D86E196F5A6F9B6FFFF750F96369009310
:10456C006068A168E2682369FFF7D4FE0120A8E720
:10457C00134811F0C9FA154811F0C6FA0A2011F0C7
:10458C00A5FF00209DE7FFF789F9DBE76207000034
:10459C00E20E00000C020020B4E70108C0E901089B
:1045AC00D8E901088107000080F8FFFF41020000F4
:1045BC0090E80108F4E90108ACE801088C0100203E
:1045CC00FCE60108FCE9010828EA010848EA0108B0
:1045DC0010B50220FDF750FC022809D004280BD09E
:1045EC008021C9020620FFF74DF90024200010BDE0
:1045FC00FFF75AFE040002E0FFF7ECFE0400002C6B
:10460C0005D1802109030620FFF73CF9EEE70121D3
:10461C000620FFF737F90124E8E770B53A4D28007A
:10462C0011F072FA394811F06FFA0A2011F04EFFAE
:10463C00374C22006C322100E06DFCF754FF002057
:10464C00FDF7B4FE280011F05FFA324811F05CFA65
:10465C000A2011F03BFF4423E35C002B00D170BD1A
:10466C002B4BD86DFCF750FD002825D0284B186E2D
:10467C00FCF78AFD002829D0254C2200703221003D
:10468C001831206EFCF72FFF0120FDF78FFE206EF6
:10469C00FCF73AFD002823D01D4BD86DFCF774FDB8
:1046AC00002827D0184811F02FFA1B4811F01AFADD
:1046BC000A2011F00BFFD2E7184811F025FA184820
:1046CC0011F022FA0A2011F001FFCFE7134811F084
:1046DC001BFA144811F018FA0A2011F0F7FECBE778
:1046EC000E4811F011FA104811F00EFA0A2011F0D0
:1046FC00EDFED1E7094811F007FA0C4811F004FA65
:10470C000A2011F0E3FECDE748E701086CEA010846
:10471C000C02002088EA01085CEB0108FCE60108A9
:10472C00A4EA0108D0EA010800EB010830EB01080B
:10473C0000B583B00190FCF727FD00281AD113486F
:10474C0011F0E2F9124811F0DFF90A2011F0BEFE67
:10475C0001A8FCF7F3FFFDF751FD0E4A4423D35C8F
:10476C00002B01D100200FE010006030FCF7E6FFB9
:10477C00002009E0084811F0C7F9084811F0B2F917
:10478C000A2011F0A3FE012003B000BDFCE60108D5
:10479C007CEB01080C020020B4E701089CEB01083B
:1047AC0010B50220FDF768FB022809D004280DD0B3
:1047BC008021C9020620FFF765F80024200010BDF7
:1047CC000B4B986DFFF7B4FF040004E0084BD86D59
:1047DC00FFF7AEFF0400002C05D180214903062011
:1047EC00FFF750F8EAE702210620FFF74BF8E5E760
:1047FC000C02002010B5041E0CD0012C0DD0022C84
:10480C000ED0032C0FD0042C14D0052C17D0062C52
:10481C0018D010BDFFF742F8EFE7FFF7D9FEEEE72F
:10482C00FFF7BEFFEDE7FFF7D3FE0028EBD0FFF755
:10483C00B7FFE8E7FF210620FFF79AF8E5E7FFF757
:10484C00ECFEE4E7FFF7BFFBE3E710B52D4A73235B
:10485C000021D154002401E00134E4B2FF2C07D034
:10486C00032CF9D0012200212000FEF769FFF3E7A9
:10487C00E121012249020720FEF762FF01220021FB
:10488C000A20FEF75DFF01221F491020FEF758FF9A
:10489C0001221E491120FEF753FF962101228900A7
:1048AC00D420FEF74DFFFA2101228900D520FEF716
:1048BC0047FF01220F21D620FEF742FF01220221E1
:1048CC00D720FEF73DFFFA2101224900D820FEF740
:1048DC0037FF01220021D920FEF732FF094974234A
:1048EC000022CA5478310132094808F049FC0948C1
:1048FC0011F00AF9084811F007F90A2011F0E6FD49
:10490C0010BDC0460C020020000101BD000401BF17
:10491C0044050020B4E70108B8EB010800B583B0EA
:10492C000D4A916B012319439163926B13400193D0
:10493C00019B00220021092009F08AFE092009F0C0
:10494C007BFE002200210A2009F082FE0A2009F0D9
:10495C0073FE03B000BDC04600100240F0B5D64651
:10496C0000B588B01422002103A80FF075F8414B54
:10497C005A6B012632435A635A6B32400192019AA8
:10498C005A6B02273A435A635B6B3B400293029B80
:10499C00882100224900A020C0050AF091FD0022C8
:1049AC00354936480AF08CFD0122022133480AF0C1
:1049BC0087FD0325039500240494059703A9A020E3
:1049CC00C0050AF005FE10239A460393049605943D
:1049DC00069503A9A020C0050AF0FAFD284B039305
:1049EC0004960594069403A924480AF0F1FDC0230B
:1049FC001B0103930494059703A920480AF0E8FDD2
:104A0C0080235B00039304960594069403A9A020CD
:104A1C00C0050AF0DDFD082303931A4B049305949B
:104A2C0003A916480AF0D4FD534603930496059443
:104A3C00069503A911480AF0CBFD20230393124BD2
:104A4C000493059703A90D480AF0C2FD002200212A
:104A5C00062009F0FDFD062009F0EEFD00220021E4
:104A6C00072009F0F5FD072009F0E6FD08B004BCAD
:104A7C009246F0BD001002401102000000040050EC
:104A8C0003020000000011100000311010B5104C92
:104A9C00104B2360E1231B0363600023A360E360DE
:104AAC0023610C226261A361E36123626362A362EE
:104ABC00200008F0FFFE0021200008F079FA002108
:104ACC00200008F04FFA200008F096FA10BDC046FE
:104ADC00300600200044004010B5104C104B2360F1
:104AEC0060600023A360E36023610C226261C0223A
:104AFC009200A261E36123626362A362200008F06A
:104B0C00D9FE0021200008F053FA0021200008F003
:104B1C0029FA200008F070FA10BDC04644050020A8
:104B2C000038014070B50500064C200008F042FC2E
:104B3C002800FFF7D1FF044901227831200008F04A
:104B4C001FFB70BD440500200C02002010B50F485F
:104B5C000F4B836382235B00C36300230364E02257
:104B6C00D20042648364C364802292000265436570
:104B7C008365C3650366FA3AFF3A42668366083377
:104B8C00C366383008F035FC10BDC0468C020020DE
:104B9C000030014010B50248383009F07BF910BDE7
:104BAC008C01002010B5114B00221A77104B984243
:104BBC0009D910490CF0DAF9411E04220E4838309C
:104BCC0009F0AEF910BD0D4B984207D94000FA21FF
:104BDC0089000CF0CBF9411E0022EFE70001FA210D
:104BEC0089000CF0C3F9411E0322E7E70C030020F7
:104BFC0080C3C90140420F008C010020A086010037
:104C0C0010B5FFF7CFFF04E062B6BFF34F8FBFF3D1
:104C1C006F8F0A4B1B7F002B0AD172B6BFF34F8FDD
:104C2C00BFF36F8F054B1B7F002BEDD130BFEBE734
:104C3C00024B00221A77FFF7ADFF10BD0C030020CA
:104C4C0010B50C4C0022012120000AF039FC802107
:104C5C00A02000224900C0050AF032FC802100226D
:104C6C00890020000AF02CFCFA20C000FFF7C8FFD6
:104C7C0010BDC0460004005010B50E4C002210218F
:104C8C0020000AF01DFC80210122890020000AF07E
:104C9C0017FC8021A02001224900C0050AF010FC5D
:104CAC000122012120000AF00BFCFA20C000FFF7C2
:104CBC00A7FF10BD00040050F0B591B00BAD14224D
:104CCC00002128000EF0C8FE0AAE00240A94282207
:104CDC00002168460EF0C0FE224F234BBB633C64A0
:104CEC001F237B64214BBB64FC643C657C65802387
:104CFC00DB05BB65FC653837380009F09BFA2C7076
:104D0C006C70AC706C60EC602C6100222900380077
:104D1C0009F02AFA012535707570B570F47000220F
:104D2C003100380009F0CAF96B461C705C709C703D
:104D3C0001940394049405940694079420236A46E2
:104D4C00D554E033099300226946380009F03AFB48
:104D5C0000220749380009F0E3F8380009F09AF806
:104D6C0011B0F0BD8C01002000280040E7030000CA
:104D7C00FFFF000010B50E4C0E4B23620E4B63620E
:104D8C00A423A362A33BE362002323636363A363B3
:104D9C00E36323642034200008F0A2FC00212000EF
:104DAC0008F03AFC0021200008F00CFC10BDC046B5
:104DBC000C03002000540040BC7D701070B5A0B0F6
:104DCC003822002112A80EF047FE102200210EA856
:104DDC000EF042FE3422002101A80EF03DFE80268A
:104DEC00B600300009F098FC0A231293F6331593A1
:104DFC0000241694C03B17933F3B1893022519953A
:104E0C001A951B9407331C9380239B021D938023BC
:104E1C009B041E9380239B051F9312A80AF0E0F8B5
:104E2C0007230E930F951094119402210EA80AF0EB
:104E3C0013F8054B01930294039405940D9601A865
:104E4C0009F0E8FE20B070BD4300020010B5002848
:104E5C0006D0012805D0012200210A20FEF770FCA3
:104E6C0010BDFEF71BFD134C200010F04DFE124838
:104E7C0010F04AFE0A2011F029FB08F09FFC09F003
:104E8C0075FC80200221C00109F078FCFFF796FF29
:104E9C0008F08CFC0720FCF7EFFFFFF743FE200027
:104EAC0010F032FE054810F02FFE0A2011F00EFB18
:104EBC00D1E7C04648E70108D0EB0108DCEB01085C
:104ECC0070B504000D00032804D0072C06D00A2C62
:104EDC0008D070BD0800FFF78DFCF6E72800FFF73F
:104EEC0021FEF4E72800FFF7B1FFF2E700B591B01F
:104EFC003822002102A80EF0AFFD02A809F08EFDA9
:104F0C00089BC0229204134080229204934218D032
:104F1C00184810F0E7FD089B0193174B019A1340BA
:104F2C00164A1340802292041343089304230293DD
:104F3C0009F058FE002808D0114810F0D3FD11B02C
:104F4C0000BD104810F0CEFDF9E709F023FE002853
:104F5C0002D009F037FEEFE702A809F08DFD00281A
:104F6C0002D009F007FEF4E7074810F0BBFD09F08A
:104F7C00F7FDF6E7F8EB0108FFFFFFFDFFFFFFFE73
:104F8C001CEC0108E8EB010808EC010810B508F06E
:104F9C001DFC10BD10B586B0002305931422002112
:104FAC0068460EF059FD0B4B9B6BDB681B07FAD464
:104FBC00084C383400226946200008F0D7FA002249
:104FCC0005A9200008F0ADFA6846FDF7E5F806B033
:104FDC0010BDC0468C01002070470CB4F0B5AFB0CA
:104FEC0006000D0034AB04CB0793962108A810F0F3
:104FFC00AFFD95280ADD08AB2E2292215A540131BF
:10500C005A5401315A54673200219954FFF7BEFFAC
:10501C0004001A490BF0AAFF0490194920000BF068
:10502C00A5FF3C210CF028F80591FA2189002000FD
:10503C000BF09CFF3C210CF01FF80F00FA218900AB
:10504C0020000CF019F8042E16D80E4B9B5D08AA04
:10505C0003920295019300913B00059A04990A482A
:10506C0010F052FD094B1B6898680EF0E7FB2FB04F
:10507C00F0BC08BC02B018473F23E8E780EE3600CE
:10508C0060EA000054EC010830EC01080800002034
:10509C0070B50500002417E0012210210C480AF01D
:1050AC000FFA10210A480AF011FA0128F4D104E091
:1050BC000022102106480AF003FA102104480AF0D5
:1050CC0005FA0028F4D10134AC42EAD370BDC046D5
:1050DC000004005010B580210122890006480AF016
:1050EC00EFF90320FFF7D4FFFA20C000FFF788FD8B
:1050FC000A20FFF7CDFF10BD0004005010B50A20A8
:10510C00FFF7C6FF80210022890002480AF0D8F977
:10511C0010BDC0460004005070B50D0008F056FBE1
:10512C00040002E062B6BFF36F8F08210D480AF04D
:10513C00CDF901280DD008F049FB001BA84208D27C
:10514C0072B6082107480AF0C1F90128EAD030BF2D
:10515C00E8E7082103480AF0B9F9013843425841FD
:10516C00C0B270BD0004005070B582B00E001400C7
:10517C000A4D0022012128000AF0A2F9A3B2084826
:10518C00084A009232003100383008F01BFD012231
:10519C00012128000AF094F902B070BD00040050FF
:1051AC008C0200208813000013B5044A0091030000
:1051BC00546B0349034A0020A047FEE7D0050020AA
:1051CC009FD501088AD50108F0B54546DE465746FD
:1051DC004E46E0B5C46B87B00500002C00D19DE0B5
:1051EC00036B534A1A60036AA2691A6043690093FD
:1051FC00038F01936678A3699A46002E00D088E04D
:10520C0023789B46022B33D12000FBF731FC00287E
:10521C0027D02000102200210830A76B0EF01CFCB8
:10522C002000236B3900DB6A02AA1830984702ABC6
:10523C001B88E060638102AA9278049922729146DD
:10524C0002AAD2786272904602AA177B277412794E
:10525C0061616274002863D1364B374A5B6B374906
:10526C009847344B364A5B6B36490020984742E0EE
:10527C00012BCED12F4B1B6A002BCAD0504698471E
:10528C00C7E70198984204D0CA212F48FF31FFF795
:10529C008BFF16004823524653432C4A483B126856
:1052AC00D3181A004232167059645B46022B2AD16D
:1052BC005046FBF7CDFB0023E3706378002B05D140
:1052CC00019B009A51460220FAF730FF2B8F6A6A35
:1052DC005B0013604A46AB6A1A704246EB6A1A705E
:1052EC000123002E00D13B0001266A6B2868334055
:1052FC00137043689847300007B03CBC9046994601
:10530C00A246AB46F0BD012BD7D12000FBF73EFBEC
:10531C00D3E700263700B046B146CEE72600EAE7D1
:10532C00009E8642ADD0E42107484900FFF73CFFC0
:10533C003C5C6451D0050020AAD501083ECE010882
:10534C00F1D501080ED60108C2D501088C00002049
:10535C0010B504003830FFF737FF00280CD1E023DC
:10536C0001229B00E358586198715A71D2239B001B
:10537C00E0180433E358984710BD10B504003830DA
:10538C00FFF722FF00280BD12300F0331B6801220A
:10539C00586198712000BC345A71B8302368984712
:1053AC0010BDF0B557464546DE464E46E0B5644C5A
:1053BC001700A544049198467C2A14D893000293B4
:1053CC0006AC063BE318039300239B460190049B19
:1053DC009B450CD183239B009D443CBC9046994635
:1053EC00A246AB46F0BD7D215648FFF7DDFE029A82
:1053FC000199200011F04EF882A98C460022781EEB
:10540C0083006344F13BFF3B069201251A602200A6
:10541C00AF4214D8039A043A013833D20025029BC8
:10542C00AB424CD100220199AA4269D101239C467E
:10543C00019BE3449C46944463460193C7E70021D7
:10544C00535E01359C460423D15E6346C91A43461C
:10545C005943CB171B051B0D5B181B13634493801F
:10546C000221535E04329C460223D15E6346C91A64
:10547C0043465943CB171B051B0D5B181B13634489
:10548C005380C5E70623D15E0223D55E43466D1AD1
:10549C005D43EB171B051B0D5B191B135B1853802E
:1054AC000823D15E0423D55E43466D1A5D43EB178A
:1054BC001B051B0D5B191B135B189380ABE7621963
:1054CC005088635B0004184392460AF057FB8146F0
:1054DC00002804D153466053588004359FE7605F21
:1054EC00494600030BF0CCFD534660530220185E76
:1054FC004946000340420BF0C3FD53465880ECE78D
:10550C0000200B5E9946135F0226885F8246A01826
:10551C000226805F0432844648465843664605900E
:10552C0050467043059E301A00130880504666465C
:10553C004343484670431B181B134B80043173E7DD
:10554C00F4FDFFFF23D6010810B5831D3E229B5EA0
:10555C00C16B026C0069FFF724FF10BD030070B52E
:10556C00CC331D8886B0002D04D158210C48FF3156
:10557C00FFF71AFE03008024CE3369461E880AF01A
:10558C00D7FE009B290024017C20E41A0BF0EEFCD2
:10559C00A41B010020000BF0E9FC06B070BDC04656
:1055AC0030D4010870B504004069A3890200C232EE
:1055BC00013B12889BB29A4202D0FFF7CFFF70BD1D
:1055CC006589FFF7CBFF010028000BF055FD081E85
:1055DC00F5D16069F1E7F0B557464E464546DE46D3
:1055EC00E0B544690F0006008189012088429B4187
:1055FC005B429846E36E85B05A425341C0229146B5
:10560C00A1444A46DBB21D0012783A435540AA46E3
:10561C00814208D8934236D105B03CBC904699469D
:10562C00A246AB46F0BD2500C2352888013080B2B9
:10563C000BF022FD8BB29B462B8020000823F55EDD
:10564C00FFF78CFF5B46584345193000FFF7AAFF64
:10565C002300C83318606B4642461A705A70524683
:10566C009A704B460138019002951B7869461F438E
:10567C00012330685F4003970AF070FE0028CBD0FE
:10568C00039BE366C8E700200500E4E713B56B460F
:10569C009C1D00232200112123800AF0A3FA012370
:1056AC002088800A184016BDF7B5164D04002B0053
:1056BC0030331B780E00032B06D900910300124ADD
:1056CC00124904206F6BB8472000FFF7DFFF021E62
:1056DC000AD023000E4A0D4900206D6BA84720000C
:1056EC000AF0A7FA0020FEBD1021200007F04CFBA9
:1056FC008022D20020003243102107F045FB01200C
:10570C00F1E7C046D005002056D60108C5D20108E5
:10571C0079D6010870B5054DAB689847041E03D1C6
:10572C006B6B034A03499847200070BDD0050020DD
:10573C00A8D60108C7E30108F0B5DE464546574632
:10574C004E46E0B5A5B080468C2201A80C0010F0A6
:10575C00A1FE01A8FBF79CFC002801D1002014E05D
:10576C0008A8FBF72BFA0028F8D008A8FBF7A6F935
:10577C000028F3D022AB1D88002D0DD1734B2800CF
:10578C005B6B734A73499847280025B03CBC904624
:10579C009946A246AB46F0BD8A236B441B78012B7D
:1057AC000AD120AB1B88402B06D9684B6A4A5B6B2D
:1057BC00684900209847D1E742462379102013729C
:1057CC00664BEC2219009B4607F07EFA05009020F0
:1057DC00ED225946400007F077FA0400002D01D065
:1057EC0000280FD12800FBF7EFF82000FBF7ECF8AE
:1057FC000025434642461D61681E8541584BE8B260
:10580C00D360C2E718239A46286082444046C018E9
:10581C00E4339946A1444B465246606708A9FCF70D
:10582C000DFE4B465A8923007033061E1A8004D194
:10583C002800FBF7F9F83500DBE74B46DB899B18B2
:10584C004A4697895B007F009F4200D21F0008A840
:10585C00FBF7B4F90026B04201D01DAB1E88BE4246
:10586C0000D23E009822594652003000FFF752FFFA
:10587C004B46071ED86156D01E6222002600A31D7F
:10588C002366E31D6366143205330836A366E064B1
:10589C00E265A465E666D867231D994649468833B8
:1058AC0019601A61D8635C668C23284F5B009B4699
:1058BC003B0030331B78A344012B39D852465B464E
:1058CC0008A9606FFBF76CFA8246002834D02300DD
:1058DC00244AB0331A60244A20005A604A46234BAB
:1058EC007830E367224BD367224B234AF3672300BC
:1058FC00B8331A64214A5A60214A9A60214ADA6004
:10590C00A063A367FAF7E1FC061E1AD0A06BF4346F
:10591C00C3689847434623601B4B6B601B4BAB60C3
:10592C001B4BEB6065E72800FBF77EF83D0060E75A
:10593C0008A8FBF707FBC1E72800FBF775F85546ED
:10594C0057E77B6B134A1449984771E7D005002041
:10595C00B6D6010835D10108E6D6010811D70108E1
:10596C000111000800004040AD2500082D0300087F
:10597C00D7020008F708000869230008C5010008D1
:10598C0057010008C301000887530008EF220008E4
:10599C00350A00083AD701085AD70108F0B5DE4697
:1059AC0057464E464546E0B5A9B09022824604A81B
:1059BC000D0010F06FFD0BA8FBF736F906000BA8D5
:1059CC00279CFBF7FBF8002806D030000BF0B2FE4A
:1059DC00211C0AF099FF139004A8FBF759FB00282F
:1059EC0001D1002009E0199B042B0DD1454B00205F
:1059FC005B6B454A45499847002029B03CBC904612
:105A0C009946A246AB46F0BD0BA8FBF7D7F8002889
:105A1C00E7D00BA8FBF752F80028E2D00BA8FBF755
:105A2C0003F9431E9BB2012B08D9042806D0354B31
:105A3C00374A5B6B354900209847D2E70BA8FBF738
:105A4C00BDF8041E04D004AA6B23944663441C784E
:105A5C000BA8FBF7B3F8002810D0002C0ED011AB1C
:105A6C001B78002B0AD0274B1A0030321278002AF0
:105A7C0004D05B6B274A25490120984752462B7965
:105A8C00102013728022244B52001900994607F003
:105A9C001BF902220500EC20FF324946800007F07A
:105AAC0013F90400002D01D000280FD12800FAF7BB
:105ABC008BFF2000FAF788FF0025534652461D61E4
:105ACC00681E8541154BE8B2D36096E718239C46B7
