:020000040800F2
:10000000009000208D130108FF750008037600089A
:1000100000000000000000000000000000000000E0
:100020000000000000000000000000000176000851
:100030000000000000000000FD750008ED750008DC
:10004000DD130108DD1301088D750008DD130108BB
:10005000DD130108DD1301088375000879750008B8
:10006000DD1301086975000859750008DD130108E2
:10007000DD130108DD130108DD130108DD1301089C
:10008000DD130108DD130108DD130108DD1301088C
:10009000DD130108DD130108DD130108C574000834
:1000A000DD130108DD130108DD13010821730008C9
:0C00B000DD130108DD130108DD13010859
:1000BC0010B5064C2378002B07D1054B002B02D032
:1000CC00044800E000BF0123237010BD7000002025
:1000DC000000000054440108044B10B5002B03D061
:1000EC000349044800E000BF10BDC04600000000FA
:1000FC007400002054440108836910B50400002BDF
:10010C000AD00E4B1A0030321278002A04D05B6BE6
:10011C000B4A0C4901209847E369002B0AD0074B86
:10012C001A0030321278002A04D05B6B064A05495B
:10013C000120984720688368984710BDC4030020AD
:10014C00B0A40108C1A40108E3A4010870B504001F
:10015C00416A028F438F0968E56B0069A8472068E4
:10016C004368984770BDF0B5012604000027490884
:10017C0085B0490003930F4D4318029201937642C8
:10018C00019B9C4201D105B0F0BD0B4B208802991C
:10019C00C018039B58430DF0ABFE80231B02C01804
:1001AC0002D527800234EBE7A84201DD2680F9E76F
:1001BC002080F7E7FFFF00000080FFFF836B204AE1
:1001CC0010B5040093420BD103694269934216D0D7
:1001DC001C4B1D4A5B6B00201C499847002010BD2E
:1001EC001B4A934207D103694269934207D1154BCD
:1001FC00184A5B6BEFE7134B174A5B6BEBE7A36992
:10020C00002B0AD00F4B1A0030321278002A04D07F
:10021C005B6B124A0D4901209847E369002B0AD009
:10022C00084B1A0030321278002A04D05B6B0C4A4F
:10023C00064901209847206883689847CFE7C04655
:10024C0033100008C4030020F2A401081AA5010809
:10025C00E11000082BA5010860A50108B0A4010855
:10026C00E3A4010810B50400836B98472068436829
:10027C00984710BD0369426910B50400934207D03A
:10028C00134B00205B6B134A13499847002010BD99
:10029C008369002B0AD00E4B1A0030321278002AD8
:1002AC0004D05B6B0D4A0C4901209847E369002B85
:1002BC000AD0074B1A0030321278002A04D05B6B3C
:1002CC00074A054901209847206883689847DEE76C
:1002DC00C4030020F2A4010875A50108B0A401080C
:1002EC00E3A4010810B50400836B984720684368A9
:1002FC00984710BD7047836910B50400002B0AD0D5
:10030C000E4B1A0030321278002A04D05B6B0C4A68
:10031C000C4901209847E369002B0AD0074B1A00BF
:10032C0030321278002A04D05B6B074A0549012051
:10033C00984720688368984710BDC046C4030020C6
:10034C00B0A401088DA50108E3A4010810B5436A07
:10035C00826B00681A604368984710BD836910B5BA
:10036C000400002B0AD00E4B1A0030321278002AEF
:10037C0004D05B6B0B4A0C4901209847E369002BB6
:10038C000AD0074B1A0030321278002A04D05B6B6B
:10039C00064A05490120984720688368984710BD94
:1003AC00C4030020B0A401089AA50108E3A4010825
:1003BC00F0B5002652080400064D900009180439C7
:1003CC00013A00D2F0BD5300E35E4E805B106B40EF
:1003DC000B80F4E700C0FFFF70B55308064D5B00BF
:1003EC00023B9C1C03D103339A43100070BDC45EC6
:1003FC0064106C40CC52F3E700C0FFFF52081300AE
:10040C0030B5013B01D2900030BD5C00045B9D0017
:10041C0024034C51F5E7F7B59408E7000090CD198B
:10042C00A400043C083D231D01D13800FEBD009BF7
:10043C001B190220185E0EF0B5F8E62189050DF0A7
:10044C009BF9009B061C185F0EF0ACF8E6218905A1
:10045C000DF092F900210190301C0DF08DF9011C6A
:10046C0001980CF0DDFE6E602860DAE7F7B5160037
:10047C00940800900191A400043C231D03D130008A
:10048C0003239843FEBD009B1D59A8B20EF08AF8B9
:10049C00DE2189050DF070F9071C28140EF082F886
:1004AC00011C381C0CF0BCFE019B1851E4E710B584
:1004BC0053085B00023B9C1C03D103339A4310008E
:1004CC0010BDC45A6400CC52F4E7836910B5040023
:1004DC00002B0AD00E4B1A0030321278002A04D0AE
:1004EC005B6B0C4A0C4901209847E369002B0AD03E
:1004FC00074B1A0030321278002A04D05B6B074A83
:10050C0005490120984720688368984710BDC0466C
:10051C00C4030020B0A40108ACA50108E3A40108A1
:10052C0010B50400436A828F19680069A36B984761
:10053C0020684368984710BD836910B50400002BF0
:10054C000AD00E4B1A0030321278002A04D05B6BA2
:10055C000B4A0C4901209847E369002B0AD0074B42
:10056C001A0030321278002A04D05B6B064A054917
:10057C000120984720688368984710BDC403002069
:10058C00B0A40108BEA50108E3A4010810B50068D9
:10059C00C368984710BD10B5FFF7F8FF10BD10B534
:1005AC00FFF7F4FF10BD10B5FFF7F0FF10BD10B54D
:1005BC00FFF7ECFF10BD10B5FFF7E8FF10BD10B54D
:1005CC00FFF7E4FF10BD70B50400456A41692A6865
:1005DC00A36B00699847286020684368984770BDF2
:1005EC0010B5FFF7F0FF10BDC36A10B5002B02D099
:1005FC0014305B6B984710BD826910B5002A0FD080
:10060C0048235A43074B483A1B689B181A00403240
:10061C001278002A01D141331A700430FFF7E4FF3D
:10062C0010BDC046540500200020704710B5024B89
:10063C00DB68984710BDC046C403002010B5040009
:10064C004069002803D0FFF7F1FF0023636110BD60
:10065C0010B504004069002803D0FFF7E7FF002322
:10066C00636110BD70B504680500002C0AD0606F82
:10067C00FFF7C2FFEA239B00E058FFF7D7FF2000EB
:10068C00FFF7D4FF2800FFF7D1FF70BD70B50468E9
:10069C000500002C0AD0606FFFF7AEFF2300FC337F
:1006AC00D869FFF7C3FF2000FFF7C0FF2800FFF752
:1006BC00BDFF70BD10B5024B5B69984710BDC046BD
:1006CC00C403002070B5856B042D07D9274B284A2D
:1006DC005B6B28490020984700240AE0042D10D1B8
:1006EC00224BDC69002C06D15B6B234A214920008C
:1006FC009847200070BD0279032A02D15B6B1F4A18
:10070C00E7E7C38F162B03D9184B1D4A5B6BE0E749
:10071C00838F013B3E2B03D9144B1A4A5B6BD8E7F2
:10072C000379002D05D1032B0ED1104B164A5B6BB0
:10073C00CFE7032B08D103004E331C78002C03D1D8
:10074C000A4B124A5B6BD1E704239D4303D1030090
:10075C0001224E331A70323003780124062BC8D094
:10076C00092BC6D0014B0A4A5B6BB2E7C4030020CD
:10077C00CAA50108E2A50108F5A5010834A60108DF
:10078C0076A60108AAA60108FCA6010838A701084C
:10079C0078A7010810B504000120002C0AD1074AE3
:1007AC00130030331B78002B05D0536B0449054ADA
:1007BC009847200010BD1800FCE7C046C403002079
:1007CC00E2A501088CA7010810B50400FFF7E2FFB1
:1007DC00002801D04E34207810BD10B50400FFF76E
:1007EC00D9FF002801D04934207810BD70B5040021
:1007FC000D00FFF7CFFF002801D06834258070BDB5
:10080C0010B50400FFF7C6FF0023984201D06834EE
:10081C002388180010BD10B50400FFF7BBFF0023A0
:10082C00984201D060342388180010BD70B50400C4
:10083C000D00FFF7AFFF002801D00634E58770BD2F
:10084C0070B504000D00FFF7A5FF002801D004349B
:10085C00E58770BD10B50400FFF79CFF002398429C
:10086C0001D00434E38F180010BD70B504000D00E6
:10087C00FFF790FF002801D00234E58770BD10B55A
:10088C000400FFF787FF0023984201D00234E38F66
:10089C00180010BD10B50400FFF77CFF00280BD02A
:1008AC002079032808D80DF085FA02020505FF20EF
:1008BC00C00510BDA068FCE70048FAE70000C07F47
:1008CC0010B50400FFF766FF0023984200D023798F
:1008DC00180010BD10B50400FFF7F2FF01280CD072
:1008EC002000FFF7D7FF011C05480CF033FE04492C
:1008FC000CF096FC0DF080FC10BDFA20C000FBE75C
:10090C000000FA4410B50400FFF744FF002398429E
:10091C0001D0A38FDBB2180010BD10B50400FFF797
:10092C0039FF002801D04834207810BD10B50400E0
:10093C00FFF730FF002801D04734207810BD10B5E8
:10094C000400FFF727FF0023984200D0A36B180088
:10095C0010BD10B50400FFF71DFF002801D00123C6
:10096C00237110BD10B50400FFF714FF002398424B
:10097C0000D0E368180010BDF0B5304B93B05B6B42
:10098C0004000B93FFF7EEFF0C902000FFF7BAFF6B
:10099C000D902000FFF7FEFE0026B04200D0E68F3F
:1009AC002000FFF76CFF0E902000FFF753FF0F9015
:1009BC002000FFF7EFFE0027B84201D0A31DDF8F08
:1009CC002000FFF7BCFF1E4B0A93042803D81D4BD5
:1009DC008000C3580A932000FFF7DCFE1A4D002854
:1009EC0008D023006A331B78002B03D0174D012B42
:1009FC0000D0134D2000FFF799FF10902000FFF757
:100A0C000AFF11902000FFF788FF119B09900893B3
:100A1C00109B069507930A9B049705930F9B0196D1
:100A2C0003930E9B0A4A02930D9B0A4900930220E2
:100A3C000C9B0B9CA04713B0F0BDC046C403002018
:100A4C0035B6010870440108A7A70108A2B0010837
:100A5C00A9A70108E2A5010810B5034B034A5B6B7B
:100A6C0003490120984710BDC4030020E1A70108E9
:100A7C007DB2010810B500280AD0094B02689A42D1
:100A8C0006D1038B002B03D043690120002B06D128
:100A9C00044B00205B6B044A04499847002010BDAE
:100AAC00D79DC0ACC4030020E1A701087DB20108AA
:100ABC0010B50400FFF7DEFF00280AD06379013B74
:100ACC00042B06D9034B00205B6B034A0349984760
:100ADC00002010BDC4030020F7A701087DB2010857
:100AEC0010B5002804D00268054B01209A4206D0AC
:100AFC00044B00205B6B044A04499847002010BD4E
:100B0C00E89EC0ACC40300200FA801087DB2010808
:100B1C0010B504000069002803D0C368984700236F
:100B2C00236110BD10B5041E01D0006910BD064B29
:100B3C001A0030321278101EF8D001205B6B034A79
:100B4C00034998472000F1E7C4030020E1A70108FE
:100B5C007DB2010870B505000E00FFF7E3FF041E1F
:100B6C0010D0FFF717FE002802D023004A331E7066
:100B7C00002E08D00F212000FFF777FE0121200066
:100B8C00FFF754FE70BDAB68002BFBD069792800D1
:100B9C009847F7E710B5002803D00173FFF7DAFF89
:100BAC0010BD044B30331B78002BF9D0FFF754FFEA
:100BBC00F6E7C046C403002010B5041E0CD08368B1
:100BCC00002B09D041719847237B002B03D00121C6
:100BDC002000FFF7BFFF10BD034B30331B78002BF9
:100BEC00F9D0FFF739FFF6E7C403002070B50D1CF0
:100BFC00FFF798FF0400FFF7CDFD00280ED0084941
:100C0C00281C0CF0B9FD011C05480CF0E7FEFC217A
:100C1C0089050CF005FB0DF0A5FCE08770BDC04606
:100C2C000000B04110B5041E04D00379032B0DD184
:100C3C00200010BD064B1A0030321278002AF7D073
:100C4C005B6B044A044901209847F1E70024EFE765
:100C5C00C4030020E1A701081EA8010870B50D000F
:100C6C00FFF7E0FF002811D01C300400681E042898
:100C7C000CD80DF09FF8030C0E141A000021200064
:100C8C00FFF7DEFD00212000FFF7EFFD70BD07210F
:100C9C00F5E709212000FFF7D3FD0321F3E70C2131
:100CAC002000FFF7CDFD0621EDE71021F8E710B588
:100CBC000C00002815D0037A032B12D103691B6892
:100CCC009A69586A0A60DA694A60DA8D0A819A6A06
:100CDC00CA6004490CF050FDFC2189050CF04CFD58
:100CEC00206110BDC2F38E4DF8B5144B144E5C68E8
:100CFC00330030331B780500032B05D94368114AA8
:100D0C0011490420776BB8470023002C0DD0626D7D
:100D1C00AC4207D1002B0FD1084B5A602000FFF7D3
:100D2C0085FC08E023001400EFE7766B6B68074A3C
:100D3C0005492000B047F8BD5A65EFE78C0000204C
:100D4C00C40300202DA801084EA801085EA80108C4
:100D5C0010B50400FFF78EFE002802D02379002B7B
:100D6C000BD0074B1A0030321278141E05D05B6B77
:100D7C00044A0549012098470024200010BDC046B4
:100D8C00C4030020E1A7010892A8010870B50E0069
:100D9C00FFF7DEFF051E18D00400701E1C3404285B
:100DAC0013D88C350DF006F8031220222C000021EC
:100DBC002000FFF745FD00212000FFF756FD032121
:100DCC002000FFF733FD0F4B2B6070BD0721200077
:100DDC00FFF736FD06212000FFF747FD0921200013
:100DEC00FFF724FD084BEFE70921F0E70C21200069
:100DFC00FFF726FD06212000FFF737FD0121EEE766
:100E0C001021F4E7FA61843C0938843B10B50028C2
:100E1C000DDB074B1C89A04209DA002907DB5C8932
:100E2C00A14204DADB688000C3584900CA5210BDE5
:100E3C008C000020002310B598420DDB074A148962
:100E4C00A04209DA994207DB5489A14204DAD3683B
:100E5C008000C3584900CB5A180010BD8C000020EC
:100E6C000122174B524210B501005A61122820D8AA
:100E7C001A008000183210180A00203AD4B2222C22
:100E8C0002D890000F4A80180A007F32D2B2042A8E
:100E9C0005D808001A0081386432800010180A0046
:100EAC003032D2B2092A03D8D039783388001818D6
:100EBC0010BD18001430E929DED10438DCE7C04637
:100ECC008C00002008030020014B18687047C046B6
:100EDC00C00300200021102210B5074B1C691442DE
:100EEC0002D19A61FAE79A621C691442FBD1013172
:100EFC008842F3D110BDC0460004005010B50A2042
:100F0C00FFF7E8FF8022024B92009A6210BDC046A8
:100F1C000004005000487047001BB74B0C4A70B5DA
:100F2C00082415000B4806681369234203D1036893
:100F3C009B1B8B4203D328690007C00F70BD72B690
:100F4C001369234200D130BF62B6BFF36F8FEBE75A
:100F5C0000040050C003002010B5044CE06813F0EE
:100F6C0097F80023E3602381638110BD8C0000207F
:100F7C0070B5049E1D0033784469002B0AD1A37E02
:100F8C00002B11D0E3686068934200D913001A005B
:100F9C0013F088F8337820696376002803D06269EF
:100FAC00290013F07FF870BDA3681960F2E77FB5D4
:100FBC00050010008A790E794C7903AB9A7002AA5D
:100FCC005E7014701C7000924A692900FFF7D0FF04
:100FDC007FBDF0B5050085B01000CA794C7903AB24
:100FEC000E798F79DA7002AA14701F705C709E7083
:100FFC0000924A692900FFF7BBFF05B0F0BDF8B5B8
:10100C0004000E009508AF00C719BC4201D168005E
:10101C00F8BD60882388000418430AF01FFE0434CE
:10102C0030800236F1E7F0B5466A85B03368016C62
:10103C000093036B04001F68381C0CF09DFB0AF036
:10104C006BFDE16B0500381C0CF096FB0AF064FD9F
:10105C00009B24699B089B001B1902900393039B24
:10106C009C4205D10323009A9A43326005B0F0BD2F
:10107C008023DB05E8180AF0DBFD070028000AF0E6
:10108C00D7FD0022A35E0193019A0223E15E7A430D
:10109C00D3171B051B0D9B1802004A43944679433A
:1010AC00CF173F053F0D7F180199D2174143120509
:1010BC00C817120D00056244000D1B1312134018C3
:1010CC009A1A3F130013029B3F1822806780ED1879
:1010DC000434C4E7F0B5476A85B03B6805005B088B
:1010EC000093036B016C1C68201C0CF045FB0AF090
:1010FC0013FDE96B0600201C0CF03EFB0AF00CFD06
:10110C00009B2C695B001B196D6902900393039B78
:10111C009C4204D1009B9B003B6005B0F0BD0022BB
:10112C00A35E023401938023DB05F0180AF080FDE6
:10113C00019B4343D8170005000DC01800132880ED
:10114C0030000AF075FD019B4343D8170005000DD4
:10115C00C018029B00136880F6180435D7E77FB5DA
:10116C000022436A06691D6803AB1A805A80039BF0
:10117C00AD082A00310040300093012304000AF02E
:10118C006DFB0A4B2000EB189B00F3180222995EB2
:10119C001B8802AA138001235180029A310000920D
:1011AC005B422A000AF05AFB7FBDC046FFFFFF3F9F
:1011BC00F0B54908520885B08BB295B202900193F4
:1011CC00002D00D11D002F0000268BB2009303933D
:1011DC00019BB34201D805B0F0BD039AF3199342B9
:1011EC0000DD009F002F1FD000221000029B740016
:1011FC001C19BA421FD30123002800DA023B7A08DB
:10120C0092B25343390018180CF072FE7B0002B2F4
:10121C00E318002A19DD002180B22288824211D203
:10122C0021800234A342F8D1009B76195B1B9BB240
:10123C00B6B20093CCE75300E35A0B4901325B186A
:10124C00C018D6E7121A2280EBE7084952182188F9
:10125C00914206DD0121494221800234A342F6D19C
:10126C00E2E7091AF8E7C0460080FFFFFFFF000025
:10127C0070B503000C0001220020A2420FD30DF028
:10128C0091F9051C601E0DF08DF9011C281C0CF049
:10129C0061F910F0CBFD07490CF06EFA70BD1D889A
:1012AC0059880132491BCD1749196940401892B22F
:1012BC000233E2E70000A04130B50E25002485B0D2
:1012CC006D442A0021002C800AF0FAFC2A88074B76
:1012DC0001209A4207D00092054A2000556B05491F
:1012EC00054AA847200005B030BDC04612110000C9
:1012FC00C4030020D1A80108A3A80108F7B54469CC
:10130C001E002300B83300931B881700002B27D036
:10131C002200B432019215880A686D0055192A0012
:10132C00016801200BF01CFD009B28001988FFF7B9
:10133C009FFF0C49706001250CF02AFF002800D19A
:10134C00051C0023226C35709A4203D1BA342278E2
:10135C0001335340012213403372019B1B883B60C5
:10136C000120FEBD00006442F0B5446985B00093D5
:10137C002300CE3302931B8807000D001600019347
:10138C00002B39D02300C833186880B24300039374
:10139C002300CC3319887C200CF020FD039B2D6896
:1013AC0058432300C4331B883968C0182D182A00F1
:1013BC00019B01200BF0D4FC029B28001F88012507
:1013CC003900FFF755FF009B0D4958600CF0E0FE0B
:1013DC00002800D1051C009BE26E1D7000239A4270
:1013EC0003D1C03422780133534001221340009AB8
:1013FC0013723368DF1B3760012005B0F0BDC046A7
:10140C000000644270B51600050008F0A1FE04004F
:10141C0033000200290000200BF0A2FC200070BD5C
:10142C007FB503AE320005000AF06CFE041E08D135
:10143C000A4B0B4A5E6B0B492B00B047200004B0E3
:10144C0070BD7388062BF9D00093044B064A5C6B75
:10145C0004492B000020A0470024EFE7C403002020
:10146C00E1A80108D1A8010813A90108F0B585B0BD
:10147C0003AC1700220006000AF044FE051E32D011
:10148C0022786388062A25D11A0523D58022D2001A
:10149C0013402BD1002F00D03B706388DB050AD59D
:1014AC00154B1A0030321278032A04D95B6B134A9D
:1014BC0013490420984763889B0514D50E4B1A00DA
:1014CC0030321278032A0ED95B6B0E4A0C49042079
:1014DC00984708E00093084B0B4A5C6B08493300B3
:1014EC000020A0470025280005B0F0BD31000F20DA
:1014FC000BF02AFC2B00CDE7C40300207DA90108CA
:10150C00D1A8010896A901084DA9010873B56B462D
:10151C009C1D002322003821050023800AF0D0FBFB
:10152C0024880120002C0AD1054B064A5E6B064923
:10153C002B002000B04728000AF0E9FB200076BD04
:10154C00C4030020AEA90108D1A80108F0B5071DFD
:10155C0095B0019205000C00342200213800009354
:10156C0010F07CF9524B1B68002B03D01E68002E28
:10157C0000D095E02000FFF7F5F907002000FFF7F9
:10158C0069F903AE30802000FFF779F970802000F4
:10159C00FFF700F90023984201D0A31DDB8F200038
:1015AC00B380FFF7BAF939002F00F0800423320022
:1015BC00122018370BF0D4FB20220021380010F039
:1015CC004DF92100380023689847061E16D02022BA
:1015DC0000210CA810F042F91C22002105A810F0E3
:1015EC003DF92B6B0CAA1E68210005AB3800B047E7
:1015FC00061E29D12B6B38005B6B98472000FFF738
:10160C009EF90223002803D00123042800D00023D4
:10161C002B702000FFF754F94342584168702000AA
:10162C00FFF7D2F8A8702000FFF79CF905220CAB4D
:10163C001A7002320D900E921800153200990AF0B1
:10164C0009FF300015B0F0BD019B002B07D01A002C
:10165C000CAB83CB83C283CB83C203CB03C2009B73
:10166C00002B04D01C2205A9180012F01BFD200031
:10167C00FFF726F9012810D02000FFF70BF9011C09
:10168C000C480BF067FF0B490BF0CAFD0CF0B4FDD6
:10169C0000236860EB606B81B0E7FA20C000F7E7CD
:1016AC00009B019A21003800B0470600A6E7C0460F
:1016BC00580500200000FA440023F0B51400050082
:1016CC008FB0019108A9CB7108A99370D3701380C6
:1016DC00137313718B713E4A0168A2600291817B76
:1016EC000391C17B05918189009304910169079253
:1016FC0006916B46049A1B889A4258D9039B002B7F
:10170C000CD008ABDE1DAB6932009B6906990298C0
:10171C009847002809D100200FB0F0BDAB690298A2
:10172C009B6A98470028ECD1F5E73378002B00D161
:10173C00A378A370AB6908AADB690632019928006B
:10174C00984700230BAE33703372AB69079A1B6A50
:10175C000A9072601F000AAA330001992800B8474A
:10176C00337A002B00D1237B36782373331E00D1C0
:10177C0023792371A1680C9810F02CFA08AB06336E
:10178C001B78A060002B00D1E378E3700A9A2388C1
:10179C003100D3182380AB6928005B6A9847059BFE
:1017AC00002B07D0049B009A013B9A4202D1019B6B
:1017BC001868B1E7039B002B03D1009B0133009306
:1017CC0097E7AB6902989B6A98470028F5D1A2E786
:1017DC00000080FF37B5456901242B00BA331B7814
:1017EC0019432B6C4C405A4253418B4206D0009407
:1017FC00EF23044A0449006808F0FEFC2C64012025
:10180C003EBDC046B8540108F869010870B50D001A
:10181C000021436911701A00B833B4321B88148844
:10182C002968E41822000068FFF7ECFD6200010053
:10183C00286812F040FC200070BDCD2270B552001B
:10184C0004000D00BC200F4908F06AFC0023606105
:10185C00984215D02800FFF785F820602800FEF785
:10186C00B3FFA0732800FFF76AF843425841E073B6
:10187C002800FFF72FF8044B20611433A3610123D8
:10188C00180070BDDFA90108704401082C2270B546
:10189C00FF3204000D00D4200F4908F041FC002356
:1018AC006061984215D02800FFF75CF82060280092
:1018BC00FEF78AFFA0732800FFF741F84342584116
:1018CC00E0732800FFF706F8044B20614C33A3614A
:1018DC000123180070BDC04611AA0108704401080C
:1018EC0070B5602272498C2008F01AFC041E00D1DD
:1018FC00DBE0704B05000360032303716E4B1C355A
:10190C0083606E4B05614361582302210383FFF70B
:10191C0053F920000021FFF73DF92800FEF73AFFAC
:10192C00002801D0664B23642800FEF733FF002803
:10193C0001D0644B63642800FEF72CFF002803D011
:10194C00230006224E331A702800FEF723FF0028CE
:10195C0001D00123A3622800FEF7FBFF2800FEF74D
:10196C0019FF002801D0022363652800FEF712FF3F
:10197C00002803D02300002248331A702800FEF7F9
:10198C0009FF002803D0230010227C331A80280082
:10199C00FEF700FF002802D00022231DDA67280082
:1019AC00FEF7F8FE002803D02300002262331A70E1
:1019BC002800FEF7EFFE002803D02300002263333B
:1019CC001A702800FEF7E6FE002803D02300002240
:1019DC0064331A702800FEF7DDFE002807D02300C0
:1019EC0000226B335A701A70013340325A8028002F
:1019FC00FEF7D0FE002803D02300FF2272331A809A
:101A0C002800FEF7C7FE002803D023000022743301
:101A1C001A702800FEF7BEFE002804D02300002216
:101A2C0076331A70A26728000121FEF7DFFE28002A
:101A3C00FEF7B0FE002803D02300012286331A7073
:101A4C002800FEF7A7FE002803D023000B225A33F0
:101A5C001A802800FEF79EFE002803D023000A22DD
:101A6C0058331A802800FEF795FE002803D0230077
:101A7C00002265331A702800FEF78CFE002803D074
:101A8C00230001226A331A702800FEF783FE002817
:101A9C0004D080222300520170331A802800FEF7F4
:101AAC0079FE002801D0084BE361200070BDC046D0
:101ABC0043AA0108D79DC0AC690C0008FD3A000888
:101ACC00CDCC4C3E9A99993E47180008F7B52E4D4F
:101ADC0004002F78002F49D0FEF7CCFF002801D14D
:101AEC00002741E02369DE682A2E07D9274B284AB4
:101AFC005C6B28492A230020A047F1E76B78002B68
:101B0C0002D16B68002B28D1238B01931F4B1A0039
:101B1C0030321278032A05D95F6B1F4A33001D49F6
:101B2C000420B847BD221D49019808F0F9FA071E98
:101B3C00D6D01B4B466003606B682100436563691C
:101B4C006860984700280DD1FB68002B01D0380045
:101B5C0098473800FFF7C8F8C2E75A6896420CD08D
:101B6C005B6DCFE701237B723800FEBD074B0D4A3E
:101B7C005B6B084938009847F6E7044B0A4A5B6BE5
:101B8C00044900209847ABE78C000020C4030020D8
:101B9C0064AA01084EA801087DAA01089CAA0108A4
:101BAC00E89EC0ACBEAA0108D0AA0108F0B54469F1
:101BBC008DB0230027000492C2331B8805000E0051
:101BCC00C637002B00D13B802300CC3319887C20F6
:101BDC000CF004F92300C8331B6806A99BB25843C8
:101BEC002300CE331B88C318200002930AF0F2FBAB
:101BFC00029B069A39889A18336828685918FFF797
:101C0C0001FC2300AD331B780700002B24D10023EB
:101C1C00049A06A9137020000AF0DCFB029B3068C2
:101C2C005A00069B590079182700C6373B88C01804
:101C3C0012F041FA23003E88C4331E80CC34218834
:101C4C007C205D680CF0CAF8ADB26D00454302987B
:101C5C0076193E800DB0F0BD22001F21BC321368F6
:101C6C005B000B401360404A1100303109780329A6
:101C7C0004D9556B3D493E4A0420A847236A3D4A86
:101C8C009BB25B00D3180420185E0CF08BFC051C77
:101C9C0038880CF0D1FCDE2189050BF06DFDFC21A0
:101CAC0089050BF09BFE34490BF066FD33490BF0B4
:101CBC0063FD011C281C0BF091FE0CF053FC304A08
:101CCC0005B2ABB29A182F4992B28A4229D8262172
:101CDC00625E788803922C4A9B18E6229BB25200D3
:101CEC00934224D90CF0A8FCDE2189050BF044FDAD
:101CFC00FC2189050BF072FE1F490BF03DFD1F49BD
:101D0C000BF03AFD059028000CF04CFC011C0598DA
:101D1C000BF086FA0CF026FC039B00B2643398425D
:101D2C0005DD22000123BC3211680B431360230034
:101D3C00BC331A680023002A11D1022B00D866E7A5
:101D4C00094A110030310978002906D0052100918B
:101D5C00556B06490D4A0120A847012358E7511E2F
:101D6C000A400133E7E7C046C40300200EAB01086C
:101D7C00F7AA0108F04401089A99993F00007A44A7
:101D8C0012FDFFFF17020000F4FCFFFF1FAB010860
:101D9C0010B538300BF070F910BD10B538300BF0B1
:101DAC006BF910BD10B5040038300BF079F9002830
:101DBC000CD1E02301229B00E358586198715A71B1
:101DCC00D2239B00E0180433E358984710BD10B59C
:101DDC00040038300BF064F900280BD12300F033E9
:101DEC001B680122586198712000BC345A71B830BC
:101DFC002368984710BDF7B50500284E01913000B7
:101E0C0011F080FD2900264811F07CFD0A2012F00B
:101E1C0065F9300011F076FD0199224811F072FD40
:101E2C000A2012F05BF9019B9C1C6C43640020009F
:101E3C0012F024F91C4FF86000280BD11B4811F04C
:101E4C0061FD1B4811F05EFD0A2012F047F90120DC
:101E5C004042FEBD300011F055FD164811F052FD08
:101E6C000A2012F03BF9300011F04CFD2100124811
:101E7C0011F048FD0A2012F031F90021019BF8689D
:101E8C005A00AB00C3188CB2A54201D80020E0E781
:101E9C008C00035101319B18F5E7C0465AAB010881
:101EAC0060AB010872AB01088C00002082AB01080A
:101EBC0088AB0108A7AB0108C7AB0108F8B5134DF7
:101ECC00AC6B2000FEF7D6FD114E00281CD020690B
:101EDC00FEF7A1FC0700AB1D3081D88F39000BF049
:101EEC007DFF2B0050331B7884B27481002B06D0FD
:101EFC005435288939000BF071FF241874817189CD
:101F0C003800FFF778FFF8BD3081FFDE0C010020B0
:101F1C008C00002084B010B50391029024480492E8
:101F2C000593039C11F0DCFC224902980BF024FC75
:101F3C000CF018FB0100204811F0E4FC1F4B1A00B8
:101F4C0050321278002A26D11A49201C0BF014FCAE
:101F5C000CF052F901001A4811F0D4FC02AB1989AB
:101F6C00184811F0CFFC134905980BF005FC0CF048
:101F7C0043F90100144811F0C5FC0E4906980BF00A
:101F8C00FBFB0CF039F90100104811F0BBFC10BC44
:101F9C0008BC04B01847996D201C0BF041F9054999
:101FAC000BF0EAFB0CF028F901000948D4E7C04615
:101FBC00DCAB010800007A44F5AB01080C010020F1
:101FCC0004AC01082AAC01083CAC010851AC010876
:101FDC0014AC0108F7B5284B284C002523600C23C2
:101FEC0026006361C02360609B0020007C36A361E7
:101FFC00A560E5602561E56125626562A56208F072
:10200C00BBFE3378012B17D024230121271DFB673E
:10201C00236831701A68200001921A688A431A608A
:10202C009A68D200D2089A6008F0B0F92368019A35
:10203C001A6020233570FB6725007C352B78012B2B
:10204C0016D024230121261DF367236829701F68ED
:10205C001A6820008A431A609A6809490A409A60F3
:10206C0008F094F923681F602023F36700232B707A
:10207C00200008F0BDF9F7BD003801405C050020D8
:10208C00FFFFFFF12422012170B5254C0500231D13
:10209C00DA6723681A688A431A6000221A605A6049
:1020AC009A60204A93422ED1F0201F4A1F49136C8C
:1020BC0040010B40136407F061FE606F002801D0F3
:1020CC0008F0F4FAA06F002801D008F0EFFA802293
:1020DC00174B1205DA67BFF34F8FBFF36F8F2100D9
:1020EC000023220088310B600832211DCB67D36797
:1020FC00220028007C321370FFF76CFF01212000B6
:10210C0007F080FF70BD0B4A9342E8D1064A0A499A
:10211C00D36B0C200B40D36307F030FEDFE7C046D7
:10212C005C0500200038014000100240FFBFFFFF9B
:10213C0004E100E000440040FFFFFDFFF7B5B54EA1
:10214C00B54A336806201A4080239B001343B34FD3
:10215C0033603B68B24958430BF040FE802301309A
:10216C00DB0072691A4200D086E03823AD4CAE4DCC
:10217C00A2681340E268102B00D082E003210A40D1
:10218C00022A00D080E02268A849626811408022AF
:10219C00D2010A436260002B09D12368A44A134080
:1021AC0023602368A34A9B045B0FDA403A60A24B7E
:1021BC00186808F04DFA00287CD007229F4B19684C
:1021CC00114001290CD80221186890430143196071
:1021DC009B4928688C4619681140022900D0B4E04C
:1021EC00E022A168D2010A43A260A26895490A4084
:1021FC00A2602268920100D5ADE08021E36B490515
:10220C0000220B4207D1E36B01320B43E363E36B18
:10221C000B400193019B802331685B0019433160B3
:10222C0028683168194200D1D5E0C023E16D9B00CC
:10223C000B4010D0802189008B420CD0E16D824B79
:10224C00E06D0B40802149020143E165E16D7F485F
:10225C000140E165E365DB0706D502212868784E6D
:10226C00E36D0B4200D1CEE0E36D7749194080233A
:10227C009B000B43E365B3E0002800D175E7013800
:10228C006FE7002B00D17EE72368694A1340236077
:10229C00802322685B001343802223602968D200CC
:1022AC002368134237D06368604A1A408023DB01ED
:1022BC00134363603822A3681340182B30D1236E6C
:1022CC003822A3681340102B3DD02368604A13407A
:1022DC008022236029689204236813422ED1E3687C
:1022EC005C4A1A405C4B1343E360802322685B0416
:1022FC00134323608023E2685B0513438022E36071
:10230C00296892042368134200D056E72B685B1AA5
:10231C00022BF7D951E72B685B1A022BC0D94CE77B
:10232C000123226E1343022223662968236E134273
:10233C00C6D12B685B1A022BF8D93EE72B685B1AC7
:10234C00022BC9D939E7E36837E72968091A6145CF
:10235C0000D840E751E70721A2688A431100022206
:10236C000A43A260364A382194462868A2680A407B
:10237C00102A1AD11968093A114002291AD8A368EF
:10238C00364A1340A36008F0FDFBA368344A1B05D2
:10239C001B0F9B00D3181F22DB681340D840264B21
:1023AC003860186808F054F927E72A68121A624551
:1023BC00DCD922E7022118689043014319602049B7
:1023CC0028688C46196811400229D8D02968091A46
:1023DC006145F7D911E72968091A022900D820E7C5
:1023EC00012A03D1E36B1F4A1340E3630322636D9D
:1023FC0093436365636D093293436365636D1A4A56
:10240C0013406365F7BD2B681B1AB34200D827E74E
:10241C00E6E7C04600700040FFF9FFFF0000002017
:10242C0040420F0000100240C0030020FF80FFFF5D
:10243C00FFC7FFFF0024F40004000020002002402E
:10244C0088130000FFF0FFFFFFFCFFFFFFFFFEFF04
:10245C00FFFFFFFE8C80C11102080222FF8FFFFFDD
:10246C00F0440108FFFFFFEFFFCFFFFF0CB4F0B506
:10247C00B1B036AB04CB0AAD06000F002800962194
:10248C00099311F061FA952807DDAA2304AA9B1879
:10249C001D4A1A802E222FAB1A801C4B1C491C681B
:1024AC0020000BF09BFC1B49059020000BF096FCC8
:1024BC003C210BF019FD0691FA21200089000BF04C
:1024CC008DFC3C210BF010FD0791FA2120008900B6
:1024DC000BF00AFD3F23042E01D80F4B9B5D01939B
:1024EC000091079B069A0599039502970B4811F0EA
:1024FC0009FA0B4B1B6898680FF0A2F831B0F0BCCE
:10250C0008BC02B01847C0462E2E0000C0030020A5
:10251C0080EE360060EA000088AC010866AC010869
:10252C0008000020802210B5054B92009A61032010
:10253C00FEF7D0FC07F000FC0A20FEF7CBFC10BD28
:10254C00000400500122074B10B580219A62A02292
:10255C004900D2059162802292009A6207F0ECFB4E
:10256C0010BDC046000400501022084B10B59A62F2
:10257C00F132FF329A618021A0224900D20591618B
:10258C0001229A6107F0D8FB10BDC0460004005030
:10259C00B448F0B503000124B34D85B001915C3310
:1025AC00AC621E780395A64200D1ECE0AF4E1C70D5
:1025BC0033684568029303005D331B78DBB2A3429A
:1025CC000BD00434FF34A54200D0D4E08468002C36
:1025DC0000D0D0E0042B00D0CDE0019B002B00D12B
:1025EC00C9E092B2002A00D1C5E003005D331C782B
:1025FC00042C01D005241C7004000023083403664D
:10260C00E287841DE287E0240199C768C3640365EF
:10261C0001648163C28782870368E400A74201D802
:10262C00012A6CD05C6892490C405C6040241968AB
:10263C00214202D119680C431C60E024E400A7423B
:10264C0000D8A5E0002D01D0012A09D1019A1288E9
:10265C00DA60019A02328263C28F013A92B2C28767
:10266C00002601223700806B7E4DEC8F002C4BD165
:10267C002C000834E48F002C46D1002F00D0A86326
:10268C00002E01D0019B2B64C022764C7748216828
:10269C00784D52018B68134208D00368029E9B1B35
:1026AC00AB42F7D907F075FA002821D180222168B6
:1026BC006E48704D8B68134208D00368029E9B1BBA
:1026CC00AB42F7D907F065FA002811D1C021226876
:1026DC006648684DC90093680B424CD0137B029E30
:1026EC0003689B1BAB42F6D907F053FA002842D083
:1026FC002023226E13432366202323663BE0802491
:10270C00596864010C4390E79C68A1070ED5554CA1
:10271C00E18F00290AD0012A08D107880230DF6036
:10272C00E78F013FBFB2E7871700002201219C68A9
:10273C000C4210D04B4C0834E18F00290BD0DA68D6
:10274C00019901260A800A0002320192E28F013AB5
:10275C0092B2E2873200454C02992468641A4549CA
:10276C008C4200D881E73F4B002F00D09863002E9D
:10277C0001D0019A1A643B4B01211A005D32117091
:10278C0000225C331A700123039A936105B0F0BDEB
:10279C00002D01D0012A0CD1C28F012A51D9019AE6
:1027AC00019912880231DA60C38F8163023B9BB2BC
:1027BC00C38701210222030094460C000833C28F08
:1027CC00002A03D1DA8F002A00D15DE76546026842
:1027DC0097682F4211D0C78F002F0ED001290CD132
:1027EC00C78F816B012F35D90F880231D760816378
:1027FC00C18F023989B2C18700219768274218D04E
:10280C00DF8F002F15D0DF8F016C012F34D9D768E3
:10281C000F8002310164D98F023989B2D987DF8FD9
:10282C002100012F05D8802551686D012943516085
:10283C0021003268029D0F4F521BBA4200D99AE711
:10284C00BDE7019A12781A73836B01338363C38FCC
:10285C00013BACE709781173816B01318163C18F46
:10286C000139C7E7FC03002000040050C00300201E
:10287C00FFEFFFFF87130000127B0A70026C01321E
:10288C000264DA8F013A92B2DA87D1E713B5044ABF
:10289C0000910300546B0349034A0020A047FEE754
:1028AC00C4030020A3AC01088EAC0108F0B5604C49
:1028BC00A5440791019202937C2A12D893000493A9
:1028CC00049A84AB9B18F73BFF3B0693002307004D
:1028DC000393039B079A934207D185239B009D4446
:1028EC00F0BD7D215348FFF7D1FF049A390008A8A9
:1028FC0011F0D8FB00220124019B84A9581E8300EF
:10290C00CB18F13BFF3B08921A6008AA019BA3422B
:10291C0010D8069A043A01382BD20024049BA34207
:10292C0044D139000022A24263D1039BBF1801336A
:10293C000393CEE70023D55E0423D15E029B491B93
:10294C005943CB171B051B0D5B181B135D19958089
:10295C000623D15E0223D55E029B491B5943CB173C
:10296C001B051B0D5B181B135D19D580013404323C
:10297C00CCE70623D15E0223D45E029B641A5C432F
:10298C00E3171B051B0D1B191B135B185380082326
:10299C00D15E0423D45E029B641A5C43E3171B05CF
:1029AC001B0D1B191B135B189380B3E708A9621846
:1029BC00508808AB1B5B0004184309F04FF908ABB7
:1029CC00051E05D108AA1853A31858800434A5E78E
:1029DC00185F290000030BF08BFA08ABE6181853AC
:1029EC000223F05E2900000340420BF081FA708054
:1029FC00ECE70023CE5E08ABD35E0225485F05935F
:102A0C00844608ABD0180225455F05980432704304
:102A1C00030060466843181A001308806046059B43
:102A2C00754343435B191B134B8004317BE7C04652
:102A3C00ECFDFFFFAEAC0108030070B5CC331D8874
:102A4C0086B0002D04D158210C48FF31FFF71EFF32
:102A5C0003008024CE3369461E8809F0BBFC009B22
:102A6C00290024017C20E41A0BF0B8F9A41B010006
:102A7C0020000BF0B3F906B070BDC04611AA0108D6
:102A8C0070B504004069A3890200C232013B128870
:102A9C009BB29A4202D0FFF7CFFF70BD6589FFF75A
:102AAC00CBFF010028000BF01FFA081EF5D160695E
:102ABC00F1E7F0B589B001918189446905000120E5
:102ACC0088429B415B420093E36E019E5A42534104
:102ADC002200C03202921278DBB232431E00564002
:102AEC000396814203D8934231D109B0F0BD27003F
:102AFC00C2373888013080B20BF0F6F98EB23E80C6
:102B0C0020000823EF5EFFF797FF46432800FFF7EE
:102B1C00B7FF2300C833F7191860009A04AB1A707A
:102B2C005A70039A01389A70029B059006971B788D
:102B3C00019A04A91A4313000122286853400793F1
:102B4C0009F05DFC0028D0D0079BE366CDE70020A0
:102B5C000700E2E7F0B585B003AE150032000400C3
:102B6C001F0009F0CFFA00280DD03278AA420CD001
:102B7C000092094B094A0195546B00204C33084ACA
:102B8C000849A047002005B0F0BD002FFBD0200065
:102B9C00FEF7BCFCF7E7C046F0440108C403002074
:102BAC00E1AC0108D1A8010810B501230B22FFF7F5
:102BBC00D1FF10BD13B56B469C1D002322001121C3
:102BCC00238009F07DF820884005C00F16BDF7B5AD
:102BDC00154D04002B0030331B780E00032B06D947
:102BEC0000910300114A124904206F6BB847200072
:102BFC00FFF7E0FF021E0AD023000E4A0C4900200A
:102C0C006D6BA847200009F082F80020FEBD102152
:102C1C00200007F0E3FA8022D2002000324310217A
:102C2C0007F0DCFA0120F1E7C40300200CAD010829
:102C3C00D1A801082FAD0108F0B54469002322008A
:102C4C00C232138053809380163A17780832126878
:102C5C0087B00092E26E06000192009A0D009A4233
:102C6C0002D09F4200D0E3663000FFF709FF23003B
:102C7C00C8331860294B1A0030321278032A04D951
:102C8C005B6B274A27490420984706CD2300306800
:102C9C0009F0EEFB051E05D1204B234A5B6B214945
:102CAC00984706E021493068FFF791FF051E03D1D4
:102CBC000025280007B0F0BD002F24D03169306802
:102CCC00FEF7AEFB0028F3D0144B1A00303212780A
:102CDC00012A04D95B6B164A124902209847009BC3
:102CEC00002B10D0002302AA1370537001220393FF
:102CFC000493019B02A9E36630688A70059309F07E
:102D0C007EFB0028D4D0054B1A0030321278032AEF
:102D1C00CFD95B6B074A03490420C1E7C4030020E9
:102D2C005EAD010883AD010897AD01083A020000C1
:102D3C00B1AD0108D5AD0108F0B5444BBBB0039261
:102D4C001A003032127804000E00032A04D95B6B8F
:102D5C003F4A4049042098476369BC2219000BA8DC
:102D6C002568009311F09EF9349C0027A300013BC9
:102D7C00309301230222219336AB1F70009B3192BA
:102D8C00269720973897CC331B887268029331684A
:102D9C000BAB280009F06CFB2F492800FFF717FF3D
:102DAC00FA2104AAC900280009F0ACF90190B84234
:102DBC003AD002997C200BF011F8A404240C444363
:102DCC0005A90098366809F005FB059B3100E2184F
:102DDC002800FEF717FB0600280009F03DFA0098C2
:102DEC0005A909F0F7FA059B38005B00F6180E23CD
:102DFC009C421CD825000E3D29000AF0EFFF0E2244
:102E0C0001000020944217D829000AF0E7FF039B29
:102E1C0018800E4B1A0030321278032A04D95B6BDF
:102E2C000E4A0C490420984701983BB0F0BD5A005B
:102E3C00B25A01338018DBE75300F35A01325B1AA4
:102E4C00DF17DB197B40C018DCE7C046C403002049
:102E5C00F8AD010883AD01083A02000019AE010873
:102E6C0070B5036B85691B6B416828009847074B4D
:102E7C00041E05D15B6B064A06499847200070BDBD
:102E8C00DB69002BFAD028009847F7E7C403002031
:102E9C0038AE010858AE010870B5054DAB689847BF
:102EAC00041E03D16B6B034A03499847200070BD85
:102EBC00C403002067AE0108A9BC010870B51E0050
:102ECC000C0015000B00013A09D20A4B6A009B6AF0
:102EDC0021009847002E01D0013D05D270BD198804
:102EEC0049BA19800233EEE723885BBA2380023497
:102EFC00F2E7C046C40300200133F0B55F00144B69
:102F0C0015001A0085B00390303212780E00032A97
:102F1C0007D900915B6B0F4A1C000F49030004207A
:102F2C00A0470B4B5A68974206D95B6B0B4A0A4970
:102F3C000020984705B0F0BDA023DB011E432E8076
:102F4C007A08002329000398FFF7B8FFF2E7C04680
:102F5C00C403002075AE01089BAE0108A5AE0108A4
:102F6C0010B5024B9B69984710BDC046C4030020A6
:102F7C00F0B506008BB00800049300910392FDF7A6
:102F8C00F1FC07000098FDF705FC00230293984222
:102F9C0003D0009B4C331B88029348237B43483B54
:102FAC000193594B00211A68019BD218130042332C
:102FBC001970564B56491B6851640591002B03D070
:102FCC005B68002B00D094E0049BB3631300413387
:102FDC001D78002D51D15D70059B38005364FDF7B1
:102FEC0069FB336BB0695B689847041E2DD03900C0
:102FFC000B2009F0A9FE29000C2207A80EF02EFCCC
:10300C003000059B404D0893019A2B6804999A183F
:10301C00336B1830DC6807ABA047041E26D0019A2E
:10302C002B689B18012241331A70374B019A1B688D
:10303C009B18190007AA1078089A423108705A6434
:10304C0039000C2009F080FE05E0324B324A5D6BF2
:10305C0032493B00A8473800FFF782FF002C0CD107
:10306C00301DFDF7C1FA20000BB0F0BD294B2C4AE6
:10307C005D6B2A493B00A847D7E7029B002B0ED07B
:10308C00039B029A9A820E2307A803702022073B07
:10309C00039947608360012409F0DCF9E3E70098A9
:1030AC00FDF79BFB0028EED0B569039B2800143379
:1030BC000093FDF7FFFAB36B48210193330069438A
:1030CC0018330293104B48391B68F06A5918336B4C
:1030DC009B689847041E06D0336B009A1B690199B4
:1030EC000298984704002800FFF73AFF002CCAD139
:1030FC00B6E7049A039900989847041EB3D0029B34
:10310C00002BC0D0BCE7C046540500205805002059
:10311C00000080FFC4030020C5AE010858AE0108B2
:10312C0000AF0108F0B5ADB00490902208A80D00D6
:10313C0010F0B8FF0FA8FDF763FB06000FA82B9C3F
:10314C00FDF728FB002806D030000BF02BFA211CD1
:10315C000AF012FB179008A8FDF7AAFC002802D170
:10316C0000202DB0F0BD1D9B042B06D1414B424AD3
:10317C005B6B424900209847F2E70FA8FDF70AFB6A
:10318C000028EDD00FA8FDF79DFA0028E8D00FA875
:10319C00FDF736FB431E9BB2012B05D9042803D047
:1031AC00344B374A5B6BE4E70FA8FDF7F3FA041EC8
:1031BC0003D06B2308AA9B181C780FA8FDF7EAFA1A
:1031CC00002810D0002C0ED015AB1B78002B0AD089
:1031DC00284B1A0030321278002A04D05B6B294A33
:1031EC002649012098472B79049A274C1372802288
:1031FC0021005200102006F093FF02220190EC20D7
:10320C00FF322100800006F08BFF019B0700002B92
:10321C0001D0002812D10198FDF708FA3800FDF70B
:10322C0005FA00230193049B019A01981A61174B2C
:10323C00049AD360431E9841C0B292E7019B0FA938
:10324C001860030018330693E32304989B0018308E
:10325C00FD182B00069A7867FEF778F93B006A890F
:10326C007033041E1A8013D10198FDF7FBF90194F9
:10327C00D9E7C046C403002023AF010892A8010877
:10328C005EAF01087EAF0108C3AF01081D0B00083B
:10329C000FA8FDF77FFA0390002802D015AB1B781E
:1032AC000393E3239B00FA5AAB8992005B00934291
:1032BC0000D213006C89EA89A41864009C4200D2E5
:1032CC001C000FA8FDF766FA0026B04201D024AB13
:1032DC001E88A64200D22600EB239B00FE50039BC7
:1032EC003000002B05D0E3239B00F85A80000A30F5
:1032FC0080198622E849FF32FFF7CEFDEA239B00B6
:10330C00041EF850B0D01C3BFB185B889B00C31804
:10331C0002930593039B002B02D0331DC318059316
:10332C003D00BB1D3B66FB1D7B660533BB660793EF
:10333C00043BFB66143580333A1DFC64FD65BF65A8
:10334C000FA81C605A605D611C645C645D65FDF7D0
:10335C0044FA002804D03B00FC33DC601C611D6285
:10336C003B00FC33DC641C651D66C2235B00FC5017
:10337C000433FC50079A1033FD500C33FA502433AD
:10338C00FC500433FC501033FD50029A3433FC5083
:10339C000433FA501033FD502833FA500433FA50EA
:1033AC001033FD50039B002B0AD0A8239B00FA502E
:1033BC00A6190C33059AFE50083BFA501033FD50F9
:1033CC00B823059A9B00FA500433FC501033FD507F
:1033DC002833FC500433FC501033FD502833FC5080
:1033EC002833FF502833FC18AC4B30331B78012B9F
:1033FC0000D902E22300069A0FA9786FFFF7B8FDF7
:10340C00041E00D130E73B000024A54AB0335A60BB
:10341C001C60A44BA44AFB673B1DDA67A34A043328
:10342C00DA67A34AB0335A60A24A0FA89A60A24A3C
:10343C00DA60A24A9A6300229A87FDF7CEF90394C8
:10344C0000281AD00FA8FDF7A5F9002806D066238E
:10345C0008AA9B181B781E22002B01D19622520021
:10346C003B00F833B98D5A87954A1987DA63954A28
:10347C005A60954A9A60954ADA603B00944A39330F
:10348C00FF339A63934A94495A60944A0FA89A60FE
:10349C00934ADA607A6A19649A679249039A596472
:1034AC00DA679149914A99645A67E3239B00FC18A7
:1034BC0023890293E688FDF76DF9139D002800D14E
:1034CC0000253B008B218A4AB933FF335A60894A65
:1034DC001E649A60884AC905DA60029A281CDA636D
:1034EC000AF04AF90021061C281C0AF05BFE002891
:1034FC0000D186E1FC218905301C09F091FE0BF00E
:10350C0031F83B00BF337D4AFF33D887063B9A63C3
:10351C008023A2889B00FB1892009A63784A0FA81C
:10352C005A60784A9A60784ADA60FDF733F9061ED9
:10353C0001D016AB1E780FA8FDF72CF9179C0028AC
:10354C0000D100248F239B00FD18704B6B60704BD7
:10355C00AB60704BEB60002E00D155E16E49201C26
:10356C000AF002FE0290002800D050E16B49201CAA
:10357C000AF00EFE002800D04BE1EC63002E00D1C7
:10358C0022E2674B64006408AB636649201C0AF0B6
:10359C00FFFD002800D0634C9121201CC9050AF0C6
:1035AC00EBF80EF04DFBDA2189050AF0E5F85E49DF
:1035BC000AF0E2F8011C041C5C480AF00FFA5C49A2
:1035CC000AF00CFA051C011C201C0AF0CDFD002889
:1035DC0000D122E10021201C08F007FB0121061C70
:1035EC00201C08F002FB011C301C09F0B3FF5149F0
:1035FC000AF0C2F85049041C09F012FE211C0AF012
:10360C00BBF84D49051C201C0AF0B6F8FE218905B3
:10361C0009F006FE011C281C09F09CFF011C041C6F
:10362C000AF0AAF8FE21890509F0FAFD0DF0F2FE68
:10363C00011CFE20800509F08DFF8121051CC905A8
:10364C00201C0AF091FD002800D1FBE0FE21201C7B
:10365C0089050AF09DFD002800D1E6E08A21281C8E
:10366C00C9050AF089F8FC21890509F0D9FD0AF091
:10367C0079FF44008020A3006343C004C01A0AF001
:10368C00DBFF0DF0C7FEFC21890509F0C9FD0AF02E
:10369C0069FF029052E0C046C3AF0108C40300208A
:1036AC00BDBB000835980008E19700087B9B00081B
:1036BC002D050008D7040008CB050008BD11000833
:1036CC00730100085901000805010008A305000852
:1036DC00BD030008ED05000871020008690300082D
:1036EC00C3050008C9010008AB0500083310000829
:1036FC001D990008AD980008839B00088B9B00085F
:10370C005903000803030008BB050008F102000878
:10371C0081020008B30500080938843B08CAFD3E45
:10372C006B110008DEFFFF3EDB0F4940DB0FC93F8A
:10373C002EBD3B33778D9F3FF304B53F9F258026ED
:10374C00AD007601002C00D0A0E09E23FC229B0053
:10375C009205FA5008337E51FC500433FC52C14B95
:10376C00C14A5B6BC149002098470FA8FDF712F8BE
:10377C00002810D015AB1B78002B0CD0A423BC490F
:10378C009B00FB18149A5960BA49DA639960BA4ADB
:10379C00BA499A63D960B4239B00FC18B84B0FA8A4
:1037AC006360B84BA360B84BE360B84BA363C3230F
:1037BC009B00FE18B64BB363B64B7360B64BB3604D
:1037CC00B64BF360D2239B00FD18B54B2B64B54B65
:1037DC006B60B54BAB60B54BEB603B007833BB63B8
:1037EC004033BB670293FCF7F8FF3B003933FF33E0
:1037FC00002800D0EBE0029AEDE00FA8FDF7BCF832
:10380C00F8E5BF21090677E6FC24A405B5E6A84C2B
:10381C00B3E6FC24029EA405AFE60121281C08F0A7
:10382C00E4F90021061C281CDBE68B21281CC905A9
:10383C0009F0A2FFFC21890509F0F2FC0AF092FEC6
:10384C00040017E78C21201CC90509F095FF291CE1
:10385C0009F092FFFC21890509F0E2FC0AF082FED6
:10386C000300029043438020C004C01A0AF0E4FE17
:10387C000DF0D0FDFC21890509F07EFFFC218905A6
:10388C0009F0CEFC0AF06EFE040057E7A3B2F21A60
:10389C0092B210B2694678539F250989AD005B003E
:1038AC007D19CB1AEB80C0235B011B1B5B00591AE3
:1038BC00029B52006A80A8802981002B04D19E2390
:1038CC00039A9B00FA504AE7029B361B7600F01ACB
:1038DC00A3005C43029B40435B43E418FC231B06A0
:1038EC00E4186400001B0AF05DFE061C20000AF0C0
:1038FC0059FE311C09F02EFE6E49041C09F090FC97
:10390C00051C301C0DF086FD061C8020029B8001DE
:10391C00C01A40000AF046FE011C301C09F01AFEC9
:10392C006549061C281C09F027FF291C09F024FFF7
:10393C00624909F075FC0DF06DFD211C0AF04EF882
:10394C000DF068FD011C301C09F016FF5C49051CCC
:10395C000AF00AFC002835D1FE21281C89050AF042
:10396C0017FC584C002822D0FE20291C800509F099
:10397C00F1FD051C20002A1C09217C3008F01CF9E3
:10398C00011C281C09F0F8FE011C4F480AF026F80F
:10399C004E490AF023F84E4909F0DCFD9E239B00AA
:1039AC00F8508F239B00FB18DB6B7B63DDE620005C
:1039BC002A1C09217C3008F0FFF8011C281C09F096
:1039CC00DBFEE8E74348E6E7434BAB63E9E73A0045
:1039DC000299F8320A6013603B009C227533520046
:1039EC00FF33BB503C324433BB5080239B004432EA
:1039FC00FB18BB508F239B00FB184832BB500FA801
:103A0C00FCF7C8FE8F239B00002808D015AA12785B
:103A1C00002A04D0A4229200BA18FA505433FC5055
:103A2C00B4239B00FE503C33FD50B86B8368984721
:103A3C00041E06D10B4B294A5B6B29499847FFF7AB
:103A4C0013FCB86BC3689847E123049A9B00FA50A7
:103A5C00019A244B5360244B9360244BD360FFF7A3
:103A6C00E2FBC046C4030020EEAF010875A50108B7
:103A7C00499B0008FD9600086197000851970008C3
:103A8C00D305000845050008990500080B1000082F
:103A9C00BB040008ED05000869030008C305000815
:103AAC00DF0F0008E79600087D960008E5960008F1
:103ABC000938843B1AF6153FF304B53F1AF6953FC7
:103ACC00000080BFF0440108DB0FC93F2EBD3B3323
:103ADC00DB0F49400000C07F0103000817B001084C
:103AEC0037B00108B11D00089D1D000871060008C3
:103AFC00F0B5A9B000908C2205A80C0010F0D2FAF9
:103B0C0005A8FCF7D5FF002802D1002029B0F0BD94
:103B1C000CA8FCF73FFE0028F7D00CA8FCF7D2FD50
:103B2C000028F2D026AB1D88002D06D1674B684AC1
:103B3C005B6B684900209847E7E78A2304AA9B1827
:103B4C001B78012B07D124AB1B88402B03D95F4B6F
:103B5C00614A5B6BEDE72379009A604C137221008C
:103B6C00EC22102006F0DCFA050090202100ED225A
:103B7C00400006F0D5FA0400002D01D000280FD12A
:103B8C002800FCF753FD2000FCF750FD0025009B9E
:103B9C00009A1D61681E8541514BE8B2D360B5E7B0
:103BAC000300260028600098183301931830FC3667
:103BBC003300019A60670CA9FDF7C8FC23007289D9
:103BCC0070331A80002803D12800FCF75FFDDDE775
:103BDC00F389B7899B185B007F009F4200D21F00BE
:103BEC000CA8FCF7D7FD0026B04201D021AB1E88F3
:103BFC00BE4200D23E009822384952003000FFF7F6
:103C0C004BF92300FC33D8610028DDD022001E6262
:103C1C00A31D2366E31D63660533A366043BE366BD
:103C2C00143202938033E064E265A465274F186078
:103C3C00231D0393211D883319601A61D8635C66B8
:103C4C003B00260030331B781936FF36012B34D855
:103C5C003300019A0CA9606FFFF78AF90028B3D0E2
:103C6C002300204AB0331A601F4A20005A601F4BB1
:103C7C00221DE3671E4B7830D3671E4B029AD36725
:103C8C0023001D4AB8331A641C4A5A601C4A9A60B5
:103C9C001C4ADA60A063A36705F09CFD002810D0D5
:103CAC00A06BF434C3689847009B2360164B6B6081
:103CBC00164BAB60164BEB6069E70CA8FCF75CFE8F
:103CCC00C6E77B6B134A144998477DE7C403002071
:103CDC0049B001081EA8010879B00108A4B0010878
:103CEC001D0B000800004040BDBB000835980008C3
:103CFC00E19700087B9B0008BB0F0008E7960008C3
:103D0C007D960008E5960008DB1D0008A71D00083D
:103D1C009906000817B00108CDB0010870B5856987
:103D2C0004002800FCF7C6FC482169430D4B4839B8
:103D3C001B68E06A5918236BA66B9B689847002890
:103D4C0004D12800FFF70CF9002070BD2000236B74
:103D5C0031005B69183098470028F2D00123E370DA
:103D6C00F3E7C04654050020F7B50400FCF7B8FE95
:103D7C00002808D13B4B3C4A5B6B3C4900209847E0
:103D8C0000252800FEBD3A4F3B0068331D78002DFE
:103D9C00F0D0637A002BF4D063682A2BEAD83A006F
:103DAC0059006932885C00900028E3D101308854B6
:103DBC0052185278002A43D126002E4A183612681F
:103DCC00002A02D09268002A46D1227E022A1FD0F5
:103DDC003000FFF7A3FF002832D0A37E0193002B05
:103DEC0020D0237E012B10D1A36C00229B69E169AA
:103DFC00206B9847002823D0A36C206B9B6A9847B4
:103E0C0000281DD03000FFF72BF863682A2B05D84B
:103E1C003A005B006932D31801225A7000230095D6
:103E2C0063720DE0A36C206B9B6A9847002807D047
:103E3C00A36C019A9B69E169206B98470028D0D14B
:103E4C0063682A2B03D8002169375B00D955009B86
:103E5C00002B00D18EE794E7300090470028EFD07C
:103E6C00D3E7C046C4030020DDB001087DB20108D1
:103E7C000C01002058050020F8B50400FCF730FEBA
:103E8C0000282DD01A4D2B0068331E78002E27D019
:103E9C00637A002B22D163682A2B21D82A005B007D
:103EAC0069329F5C002F1BD101219954E37E002BBA
:103EBC0003D0206BFFF754F8E77663682A2B05D8FC
:103ECC002A00590069325218002151700122627285
:103EDC002A2B03D89340002269355A553000F8BD7F
:103EEC00044B054A5B6B0549002098470026F5E713
:103EFC000C010020C4030020F7B001087DB20108BA
:103F0C00F0B50B688DB005AC060003206360002390
:103F1C00207060613000A160E360226123766376DB
:103F2C00A376FCF7DDFDA57E002D0DD06368002B7C
:103F3C0002D0E368002B13D1224B234A5B6B23493D
:103F4C0000209847002508E0A368002B08D11D4BE2
:103F5C001F4A5B6B1D492800984728000DB0F0BD27
:103F6C000028EFD0337A2278934207D00092154A7A
:103F7C001649546B0020174AA047E3E7277E002F11
:103F8C0004D03000FFF7F0FE071EDBD0737A0393EA
:103F9C00002B0CD00B4B104A5B6B0C490020984744
:103FAC000025002FD9D03000FFF766FFD5E701259B
:103FBC003369746105CB9047637E5D40039B7361ED
:103FCC00EFE7C046C403002013B101087DB201081D
:103FDC0030B1010845B1010861B10108124B10B5AF
:103FEC001B780400002B12D00068FCF779FD002828
:103FFC000CD02068FFF740FF2068C368002B00D06E
:10400C0098472068FCF770FE0023236010BD074B17
:10401C001A0030321278002AF8D05B6B044A05493A
:10402C0001209847F2E7C0468C000020C403002012
:10403C00BEAA01084EA8010813B50190FFF794FE23
:10404C00041E18D111480FF05DFC11480FF05AFCFA
:10405C000A2010F043F801A8FFF7C0FFFCF77CFF23
:10406C000C4B50331B78002B03D00B484030FFF720
:10407C00B5FF200016BD09480FF044FC08480FF0AE
:10408C002FFC0A2010F02AF80124F2E782AB010879
:10409C0077B101080C0100208C0100205AAB0108FB
:1040AC0095B1010810B5024BDB6A984710BDC046AC
:1040BC00C403002070B5061C15000C00FFF7F2FFBE
:1040CC00311C09F047FA0AF097F8030C80B22B6008
:1040DC00206070BDF7B50500FFF7E4FF011C061C5E
:1040EC00304809F037FAFC21890509F099F80AF0F3
:1040FC0083F82D4984B2301C09F070FC2B4909F06F
:10410C003BFB2B4909F08CF80AF076F82300103BA6
:10411C009BB22881EF2B2BD9264B0021301C5F6BD7
:10412C000AF022F800281FD0234C2449301C09F037
:10413C0023FB234909F074F8061C0AF05DF805000E
:10414C000AF07AFA011C301C09F048FC1D4909F0F0
:10415C0013FB0AF051F800950190230000201A4A35
:10416C001A49B8470020FEBDFE21194C8905DDE730
:10417C003F2C09D800226A802F2C00D92300AB8059
:10418C00EA802C800120EEE701236B80E308BF2C32
:10419C0003D82300403BDB109BB2AB8007232340AA
:1041AC00EB80EEE7F902154F8096984BE8385BB53B
:1041BC0000007C42C403002079C40108000080BFC9
:1041CC00BD37063500247449AEB10108D9B10108D8
:1041DC0035B6010870B50B6886B004000E00062BCE
:1041EC000AD0062200920E4A0020546B0D490E4A4A
:1041FC00A047002006B070BD03AD2800FFF76AFF92
:10420C000028F7D0AB886360EB88A3606B882360D1
:10421C002B89A381B3882361F3886361EAE7C046E5
:10422C00C403002028B20108EAB10108F0B58BB034
:10423C0002AC076820000E001500FFF74BFF0028AA
:10424C0003D1002420000BB0F0BD0597638805AAAC
:10425C005360A38803CE9360E388D36023891382D1
:10426C006B4608F08CFD041EEBD0009BAB806B46BC
:10427C001B79EB8006232B60054B1A003032127829
:10428C00012ADFD95B6B034A034902209847D9E71F
:10429C00C40300203CB2010828B20108F0B50B6839
:1042AC0087B004000D00062B0BD006220092224A88
:1042BC002249546B0020224AA0470026300007B048
:1042CC00F0BD03AF3800FFF705FF061EF6D0BB8824
:1042DC006360FB88A3607B8823603B89A381AB88E8
:1042EC002361EB8863612B89A3616B89E361AB89E3
:1042FC0023622B8AA3846B8AE384ED89AD00ADB273
:10430C0028003E3080B27B2812D97C2109F0ECFDCC
:10431C000022280001238DB21100E06223630320E8
:10432C0023640023A5626063A163E2636364C5E751
:10433C00032201210023F0E7C403002083AD010810
:10434C00EAB1010810B5FFF7ADFE011C041C0548CD
:10435C0009F000F90DF074FC011C201C09F00CFA9A
:10436C0010BDC046F902154F70B50400FFF7EAFF07
:10437C00051C20000AF016F9041CFE20291C8005DF
:10438C0009F0E8F8011C201C09F0F6F9034909F0C2
:10439C00F3F9FC21890509F0EFF970BDC2F38E4DDC
:1043AC0070B5041CFFF7CEFF211C061C201C08F066
:1043BC0037FF051CFE20311C800509F0CBF80C4999
:1043CC0009F0DAF9011C281C09F0C4F80021051CBD
:1043DC00201C09F0C9FE002807D1FC218905281CE6
:1043EC0008F01EFF0AF0BEF870BDBF210906F6E703
:1043FC00C2F38E4DF0B5A1B008930B0032331B788D
:10440C0009900E000A92062B08D0092B06D0B44B4B
:10441C00B44A5B6BB4490020984747E1099B3000D4
:10442C005D69FCF7B7F900283DD033002C331B78BD
:10443C00002B38D03000FCF7ADF90024A04201D09D
:10444C003423F45E23B230000793FCF7A3F9002366
:10445C00A4B2984201D03622B35EE41823B23000E5
:10446C000693FCF7CDF9079A069B01009B1A1800DE
:10447C0009F024FE0C1E0EDD994B1A003032127816
:10448C00012A04D95B6B994A974902209847069BED
:10449C001C1B23B20693069B079A934220DA904B7F
:1044AC00934A5B6BB6E73000FCF774F900270028E1
:1044BC0000D0776A3000FCF76DF900280ED0B06A96
:1044CC00391C08F0ADFE041C381CFFF769FF03B261
:1044DC00201C0793FFF764FF03B2C0E70020EFE74F
:1044EC003000FCF757F9002805D033006E331B78E9
:1044FC00002B00D0E0E133002E331B78002B00D1D1
:10450C00D7E0328E13B2013B07205B019BB219003E
:10451C0052011A3A12B2D4170440A218D210D20087
:10452C000F398C1A079A24B2944200DCEEE06C4BE3
:10453C0010005B6B0893FFF717FF002109F014FEC6
:10454C006C4F002800D16C4F0798FFF70DFF051C2E
:10455C000798FFF709FF002109F006FE002800D19B
:10456C00ABE06649281C09F007F9654908F058FECC
:10457C0009F042FE09900798FFF7F6FE051C079814
:10458C00FFF7F2FE002109F0EFFD002800D197E0C3
:10459C005A49281C09F0F0F8594908F041FE051C4D
:1045AC000798FFF7E1FE061C0798FFF7DDFE0021D8
:1045BC0009F0DAFD002800D185E05049301C09F0E3
:1045CC00DBF84F4908F02CFE09F016FE0AF034F81F
:1045DC00011C281C09F002FA4A4909F0CDF809F02F
:1045EC000BFE07902000FFF7BFFE002109F0BCFD79
:1045FC00404B0693002801D13F4B06932000FFF758
:10460C00B3FE051C2000FFF7AFFE002109F0ACFD46
:10461C0000285BD03949281C09F0AEF8384908F05D
:10462C00FFFD09F0E9FD05002000FFF79DFE061CCB
:10463C002000FFF799FE002109F096FD002848D0D4
:10464C002E49301C09F098F82D4908F0E9FD061C9C
:10465C002000FFF789FE0A902000FFF785FE00215D
:10466C0009F082FD002837D024490A9809F084F813
:10467C00234908F0D5FD09F0BFFD09F0DDFF011C51
:10468C00301C09F0ABF91F4909F076F809F0B4FDBC
:10469C00069B04900293079B00200193099B1A4AE6
:1046AC0000933B001049089C0395A047002021B0C3
:1046BC00F0BD330032331A7824E7FE21890551E727
:1046CC00FE21890565E7FE21890577E7FE2189052D
:1046DC00A1E7FE218905B4E7FE218905C5E7C0469F
:1046EC00C40300205AB2010828B2010885B201089F
:1046FC00B8B2010879C4010835B60108000080BFC2
:10470C00BD37063500247449E7B20108303B1CB2B2
:10471C00069B9C4200DBCFE0CD4B06985B6B07936E
:10472C00FFF722FE002109F01FFDCA4F002800D11F
:10473C00C94F0698FFF718FE051C0698FFF714FEE4
:10474C00002109F011FD002800D1A3E0C349281C69
:10475C0009F012F8C24908F063FD09F04DFD08900C
:10476C000698FFF701FE051C0698FFF7FDFD0021DA
:10477C0009F0FAFC002800D18FE0B849281C08F099
:10478C00FBFFB74908F04CFD051C0698FFF7ECFD44
:10479C00061C0698FFF7E8FD002109F0E5FC00284F
:1047AC007ED0AE49301C08F0E7FFAD4908F038FD6B
:1047BC0009F022FD09F040FF011C281C09F00EF93C
:1047CC00A84908F0D9FF09F017FD09902000FFF760
:1047DC00CBFD002109F0C8FC9E4B0693002801D1AB
:1047EC009D4B06932000FFF7BFFD051C2000FFF733
:1047FC00BBFD002109F0B8FC002854D09749281CB7
:10480C0008F0BAFF964908F00BFD09F0F5FC05001D
:10481C002000FFF7A9FD061C2000FFF7A5FD0021D5
:10482C0009F0A2FC002841D08C49301C08F0A4FFF0
:10483C008B4908F0F5FC061C2000FFF795FD0A904B
:10484C002000FFF791FD002109F08EFC002830D0EC
:10485C0082490A9808F090FF814908F0E1FC09F0C0
:10486C00CBFC09F0E9FE011C301C09F0B7F87D49BE
:10487C0008F082FF09F0C0FC069B04900293099B90
:10488C0003950193089B784A009378493B000020DC
:10489C00079C0AE7FE21890559E7FE2189056DE78A
:1048AC00FE2189057EE7FE218905A8E7FE21890501
:1048BC00BBE7FE218905CCE73000FBF7A1FF069B87
:1048CC00079A0B900B99981A09F012FB013083B2DE
:1048DC0030000D93FBF79FFF0D9B584383B23000C4
:1048EC000F93FBF757FF0023984209D032004F3249
:1048FC00330012785233511E8A411B8852421340A6
:10490C002A00B83213800F9AD318802212019342D6
:10491C0003DD4F4B564A5B6B7CE53000FBF7F2FF37
:10492C0007003000FBF736FF0624002802D03300C6
:10493C0032331C783000FBF72DFF03230D9A5A43BA
:10494C001092002804D032006A321278002A3BD12F
:10495C00072047430D9B0D375F437C43109BE318A7
:10496C001793FFF7EFFCF421890508F005FF189069
:10497C003000FBF70FFF002835D0179809F05CFECC
:10498C00746E071C0021201C09F002FC00282AD0A0
:10499C00211C189808F0DEFD391C09F01FF8041CC6
:1049AC00109809F049FE011C201C08F0D3FDFC21D5
:1049BC00890508F035FC09F0D5FD119000280BDABB
:1049CC00234B2C4A5B6B25E5109A10937A43170006
:1049DC000F377C43D434C1E7274B984204DD1C4B82
:1049EC00264A5B6B16E511902B00119AB6331A8090
:1049FC003000FBF79BFF2B000F9ABA331870063B65
:104A0C001A8033002E331B78002B1CD0378E6A464D
:104A1C000124099B9F80079B1386099B079A9C8105
:104A2C001A810D9A5A810B9B013B9BB2072B06D81E
:104A3C000B99082009F042FB1291002922D0044B5B
:104A4C000F4A5B6BE6E4330032331F78DFE7C04676
:104A5C00C403002079C4010835B60108000080BFEA
:104A6C00BD3706350024744924B3010828B2010867
:104A7C0061B30108C1B30108FEFF0000E2B30108F5
:104A8C0002B401083FB2013F7F01BBB21993180079
:104A9C006B460F381B8E80B21F1A3FB2FB101C9353
:104AAC00069BFA10181A03B20E93A41ADB10E41822
:104ABC00A4B223B20B990820139309F019FA3B0006
:104ACC001590D94803400700002B04DA0822013B5B
:104ADC005242134301331BB20C93002B02DA0833FE
:104AEC001BB20C930B990C9809F0E8FA50226B4608
:104AFC0014919B180021595E159B0E98013B1A933B
:104B0C001A9A0B9B38405343149A07009B189BB27C
:104B1C001AB2002804DA0820013F4042074301374B
:104B2C0038B20E90002802DA083000B20E901398BA
:104B3C0001286DD1844607000C98814203D10E994F
:104B4C00571A7A1E9741624617400022002016928F
:104B5C00169AE41BA41A22B2159287420AD0139A11
:104B6C00012A01D16B461B8F0C9A0B99981A09F0EC
:104B7C00BFF980B2099B05225C691C9B2100DB00FC
:104B8C00D31A199A8C310B60323A0C9B12B29B18C7
:104B9C004B602300149994338A1884C32200159B0C
:104BAC001599DB175B1A9C32DB0F13602300169AE6
:104BBC00A0331A601A9A58609A600E9B149A2700B8
:104BCC00981A0B9909F094F90023159AAC373860B0
:104BDC009A4201DD1300013BB03423603000FBF737
:104BEC00D9FD2B007033002804D032006A321278C1
:104BFC00002A18D100221A702E233000AB66FBF766
:104C0C005FFE032815D8002309F0D4F80F1F2332B8
:104C1C000C98091A4F1EB941CFB20E99521A511E57
:104C2C008A41D2B292E70122E5E76B62AB62EB629A
:104C3C002B633000FBF783FE04282AD800230122C3
:104C4C0009F0B8F82020E7EA240001226B62AA627E
:104C5C00EDE73000FBF71EFE1EAA1FA9FFF72AFA8C
:104C6C0001236B620023AB621E9BEB621F9BDFE791
:104C7C003000FBF70FFE1EAA1FA9FFF71BFA01233A
:104C8C006B62F0E76A63AA63EB6302E06A63AA6390
:104C9C00EA633000FBF77EFD0023070098420BD03F
:104CAC00330050331B781B93330052331B881D93F6
:104CBC0033004F331F783B002A000832D367002F94
:104CCC0003D01D9B8032013B13603000FBF72EFE9E
:104CDC000124002800D0A1E0002F01D01B9B1293CF
:104CEC002300129A300093432B64FBF716FE6040AE
:104CFC00C0B26864AC643000FBF704FE012800D835
:104D0C008EE00238EC6428653000FBF743FD00238D
:104D1C00984200D0F38F6B653000FBF7B0FDA865AF
:104D2C003000FBF797FDE8653000FBF774FD286653
:104D3C003000FBF765FDA8673000FBF745FD01244B
:104D4C006040C0B2099BE8679B886B66099B5B89D6
:104D5C00013BEB66099B5B690C93B6331B886B6755
:104D6C00FFF7A0F92B1DD867FFF7ECFA071C0B987F
:104D7C0009F062FC061CFE20391C800508F0EAFBD9
:104D8C00011C301C08F0F8FC0A9BB835D860119B4C
:104D9C0010985843179BC01809F04EFC011C18982A
:104DAC0008F0D8FB0A9B18610798FFF7DDFA0A9BFD
:104DBC0018600698FFF7D8FA0A9B1968986008F0F3
:104DCC000DFE0A9B0F9A5860DA8200230A9A0F99FB
:104DDC0093821483089A1320118051810D9953806A
:104DEC0011810F99138391800D99D4809182D18276
:104DFC00099914821FAA13800968230007F0B0FFD9
:104E0C002B88089A0333D38180235B009381200085
:104E1C004DE46A63AB6337E76B63FBE712945FE7C0
:104E2C000023EB642B656FE707000080F0B59BB0A7
:104E3C0009930B0032331B7808900F000A92062B53
:104E4C0008D0092B06D0764B764A5B6B764900204E
:104E5C009847C6E1089B38005D69FBF79BFC002373
:104E6C0098420CD03A004F3210783B000200511E91
:104E7C008A4150331C7802331B88524213402A005B
:104E8C00CE321380002800D020002B00D0331870B5
:104E9C003800FBF7B5FC2B000026CC331880103BF8
:104EAC001E603800FBF742FD2B000122C033187046
:104EBC00133B1A702800FDF7BFFD0D903800FBF76F
:104ECC0069FCB0424FD03B002C331B78B3424AD024
:104EDC003800FBF75FFCB04201D03423FE5E380093
:104EEC00FBF758FC0023984201D03622BB5E9B197D
:104EFC0007933B002E331B78002B00D18BE03B8EAD
:104F0C0038000B93FBF77CFC0400012823D9022802
:104F1C000CD1F3070AD4424B1A0030321278012A12
:104F2C0003D95B6B414A424998470136079B2100E4
:104F3C00981B09F0C3F80C1E0DDD394B1A003032EA
:104F4C001278012A04D95B6B3A4A394902209847F6
:104F5C00079B1B1B0793079B9E4271DD304B364A08
:104F6C005B6B334973E73800FBF714FC0024002813
:104F7C0000D07C6A3800FBF70DFC002843D0B86ADF
:104F8C00211C08F04DF9079005F0CEF9211C0B906F
:104F9C00201C08F045F92949061C0B9808F0ECFB7D
:104FAC00011C301C08F0D6FA0021061C201C09F04C
:104FBC00DBF8002829D1FC218905301C08F030F9D8
:104FCC0009F0D0FA060005F0AFF907990B90081C10
:104FDC0008F026F91949041C0B9808F0CDFB011CAC
:104FEC00201C08F0B7FA0021041C079809F0BCF843
:104FFC0000280DD1FC218905201C08F011F909F0BD
:10500C00B1FA079075E70020BAE7BF210906D4E78B
:10501C00BF210906F0E73B0032331B7870E7C0462E
:10502C00C403002078A7010883AD01081EB4010851
:10503C0053B4010885B20108B8B20108C2F38E4D11
:10504C003800FBF7A7FB002805D03B006E331B781C
:10505C00002B00D0C2E1D74B9E4200DBD0E0D64BF8
:10506C0030005B6B079305F07BF9002109F07CF8AD
:10507C00D24F002800D1D24F300005F071F9041C3A
:10508C00300005F06DF9002109F06EF8002800D011
:10509C00AAE0FE218905201C08F06EFBC94908F026
:1050AC00BFF809F0A9F80890300005F059F9041C74
:1050BC00300005F055F9002109F056F8002800D011
:1050CC0094E0FE218905201C08F056FBBD4908F030
:1050DC00A7F8041C300005F043F9051C300005F05E
:1050EC003FF9002109F040F8002800D080E0FE21B3
:1050FC008905281C08F040FBB24908F091F809F02A
:10510C007BF809F099FA011C201C08F067FCAE49E9
:10511C0008F032FB09F070F80990A64805F020F968
:10512C00002109F021F8A54C002800D1A44CA1487D
:10513C0005F016F9051C9F4805F012F9002109F03D
:10514C0013F8002856D1FE218905281C08F014FB01
:10515C009C4908F065F809F04FF80500954805F0F2
:10516C00FFF8061C934805F0FBF8002108F0FCFF43
:10517C00002841D1FE218905301C08F0FDFA914927
:10518C0008F04EF8061C8B4805F0EAF80A9089489E
:10519C0005F0E6F8002108F0E7FF00282ED1FE21EB
:1051AC0089050A9808F0E8FA864908F039F809F0F8
:1051BC0023F809F041FA011C301C08F00FFC82495D
:1051CC0008F0DAFA09F018F8099B04900193089B8F
:1051DC00002000933B0002947C4A7D49079C039578
:1051EC00A04700201BB0F0BD7A4954E779496AE723
:1051FC0078497EE77749A8E77649BDE77549D0E756
:10520C007C240B9B5B014B3B5C43079B9C4200DB70
:10521C00E4E0694B07985B6B089305F0A1F800215B
:10522C0008F0A2FF654F002800D1654F079805F0E4
:10523C0097F8051C079805F093F8002108F094FFE7
:10524C00002800D0AAE0FE218905281C08F094FA59
:10525C005C4907F0E5FF08F0CFFF0990079805F0CF
:10526C007FF8051C079805F07BF8002108F07CFFFF
:10527C00002800D094E0FE218905281C08F07CFA57
:10528C00504907F0CDFF051C079805F069F8061C7E
:10529C00079805F065F8002108F066FF002800D09B
:1052AC0080E0FE218905301C08F066FA454907F0BC
:1052BC00B7FF08F0A1FF09F0BFF9011C281C08F08A
:1052CC008DFB414908F058FA08F096FF0A9020002F
:1052DC0005F046F8002108F047FF384B07930028EB
:1052EC0001D1374B0793200005F03AF8051C20003C
:1052FC0005F036F8002108F037FF002854D1FE21C4
:10530C008905281C08F038FA2E4907F089FF08F0A7
:10531C0073FF0500200005F023F8061C200005F0A3
:10532C001FF8002108F020FF00283FD1FE2189053D
:10533C00301C08F021FA234907F072FF061C2000EC
:10534C0005F00EF80B90200005F00AF8002108F08B
:10535C000BFF00282CD1FE2189050B9808F00CFAC4
:10536C00184907F05DFF08F047FF09F065F9011CCB
:10537C00301C08F033FB144908F0FEF908F03CFF30
:10538C00079B049002930A9B03950193099B124A75
:10539C0000930F493B000020089C21E70D4954E77E
:1053AC000C496AE70B497EE70A49AAE70949BFE7B6
:1053BC000849D2E730FAFFFFC403002079C4010882
:1053CC0035B60108BD37063500247449E7B201082B
:1053DC0053B40108000080BF24B301083800FBF768
:1053EC000FFA3B000B902E331B78002B45D03B8ED5
:1053FC006A46928EF40F0C92089AA01993807C2125
:10540C0008F076FD089B041B1C81079B079ADB0F99
:10541C0098187C210E9308F06BFD0E9B0B99C31A08
:10542C0001331C1B089BA4B25C81300008F046FEC3
:10543C000B9BC818190008F041FE089B2000D9806E
:10544C000C9908F051FD0F9180B2002919D1089BDD
:10545C0098813800FBF773FA04003800FBF730FA38
:10546C00042C01D001280ED0089B0C9A5B899A421F
:10547C0009D2C84BC84A5B6B73E53B0032331B78CF
:10548C00B6E70130E3E704F04FFF041C0B9809F07A
:10549C00D3F8211C08F070F90A9BD860300004F096
:1054AC005FFF0A9B1860079804F05AFF0A9B196863
:1054BC00986008F093FA0A9B0B995860079B981B0D
:1054CC0008F016FD013083B27C200793079A0A9BE3
:1054DC000B99DA82089B9B890E930E9A0A9B1A836E
:1054EC00089B5C89604308F079FC099B7C2118803F
:1054FC001C81300008F0E2FD7C3108007C2108F0B2
:10550C00DDFD08000B9908F0F3FC099B079A588005
:10551C009A800B997C2008F061FC099B0E9AD8802C
:10552C001A820C9BA34228D26B46998E099B9982B6
:10553C000F9B002B04D00C99200008F0D5FC89B2ED
:10554C00099BD9823800FBF725F9002819D03B00BC
:10555C0046331B78002B14D00123AB6400230024AA
:10556C00EB642C653800FBF7ABF9230014AC032873
:10557C000FD808F01FFC0A1A1E2D099B9C82DC8296
:10558C00E0E70023AB640133E9E76B65AB65EB65E2
:10559C002B663800FBF7D3F9042825D80023012209
:1055AC0008F008FC2020F0F3200001226B65AA65AE
:1055BC00EDE73800FBF76EF913AA2100FEF77AFD30
:1055CC0001236B650023AB65139BEB65149BDFE735
:1055DC003800FBF75FF913AA2100FEF76BFD0123DE
:1055EC006B65F0E76A66AA663800FBF7D3F8002310
:1055FC00060098420BD03B0050331B7811933B00B4
:10560C0052331B8810933B004F331E7833002A0013
:10561C00B4321360002E02D0109B013B5360380053
:10562C00FBF784F90123002803D10300002E00D0DE
:10563C00119B01229A43EA663800FBF76EF90123AD
:10564C005840C0B26B6728673800FBF75BF901382C
:10565C00A8673800FBF79EF80023984200D0FB8F18
:10566C00EB673800FBF70BF92B1DD8673800FBF7FD
:10567C0091F80023984201D0BB1DDB8F2A00013B1F
:10568C000832D3673800FBF7E5F82B008833186035
:10569C003800FBF77FF8002802D03B006D331878F8
:1056AC002B008D3318703800FBF7AAF82B00A433AD
:1056BC0018603800FBF76EF80023984202D03B00CC
:1056CC006B331B782A009C3213603800FBF762F8AE
:1056DC000023984202D03B006C331B782A00A03286
:1056EC0013603800FBF770F82A000123AC325370BA
:1056FC0058402B001070089A903392881A60089BBF
:10570C009B89012B43D9089B5869FDF795F92B0010
:10571C0001389433089A18600821525E5A60089A2E
:10572C00D2885A61FEF7BEFC2B00B0331860E1231F
:10573C000A9A9B0093822B00CC3319887C2008F0AA
:10574C004DFB099B099A1B8921005843099B5881E1
:10575C0000232800138306F03DFE149B0899238038
:10576C00220001231320096807F0FAFACE352388AA
:10577C002A8803339B18099A0120D38196231B0195
:10578C0093812FE56A66AB662EE76B66FBE7089B99
:10579C005889BCE7C403002073B4010870B5174CDA
:1057AC00050023004433197800290ED1144A1278CD
:1057BC00CC2A05D1CB3A45341A702170023100E065
:1057CC000121280004F01EFC70BD012911D120001C
:1057DC000B4A4530127802701E2A04D803221A7024
:1057EC0045342178EAE7002228001A7004F00AFCFC
:1057FC00F6E70329E8D104221A70E5E78C010020B2
:10580C007C04002010B5FBF72BFB006810BD37B5EE
:10581C000220FFF7F7FF022832D1214B9B6C01933A
:10582C000198FEF729FB00282FD001A8FEF7D6FB24
:10583C00FBF792FB1B480EF065F81B480EF062F864
:10584C000A200EF04BFC194C50342378002B16D048
:10585C00134D286CFEF710FB00281BD0280040309D
:10586C00FEF7BCFBFBF778FB00230E4823700EF011
:10587C0049F80F480EF046F80A200EF02FFC37BD01
:10588C000428CDD1064BDB6CC9E70A480EF03AF878
:10589C000948D3E707480EF035F80848EAE7C04650
:1058AC008C0100205AAB0108A2B401080C010020A5
:1058BC009EB4010882AB0108BFB40108BBB4010857
:1058CC0010B50220FFF79EFF02280CD10C4B986CF0
:1058DC00FEF7B2FB04000220002C01D18020400313
:1058EC0004F02AFC09E0042802D1054BD86CEFE740
:1058FC008020C00204F020FC0024200010BDC04613
:10590C008C010020F7B5040028200E000192FFF74F
:10591C0079FFC1B22000FBF74FF92220FFF772FF8D
:10592C00012800D0C2E02230FFF76CFF07002000F6
:10593C00FBF7F8F80500FAF72DFF002808D0032331
:10594C0038002B7108F078FE684907F003FEA86058
:10595C002620FFF757FF07002000FBF7E3F80500B0
:10596C00FAF718FF002803D07B1E9F4147352F7094
:10597C002520FFF747FF07002000FBF7D3F80500B1
:10598C00FAF708FF002800D0AF633320FFF73AFF87
:10599C0007002000FBF7C6F80500FAF7FBFE00280D
:1059AC0003D07B1E9F414E352F702000FBF7BAF8B9
:1059BC000500FAF7EFFE002806D0300008F03CFE98
:1059CC004A4907F0C7FD68622000FBF7ABF80500F9
:1059DC00FAF7E0FE002806D0019808F02DFE4349A6
:1059EC0007F0B8FDA8622420FFF70CFF08F024FE96
:1059FC003E4907F0AFFD011C2000FBF7F7F8302003
:105A0C00FFF700FF05002000FBF78CF80600FAF703
:105A1C00C1FE002801D0EDB2B5873220FFF7F2FEAF
:105A2C00411E8841C1B22000FBF7B4F84020FFF7BB
:105A3C00E9FE06002000FBF71DF8002807D02569B9
:105A4C002800FAF7A7FE002801D060352E804120EF
:105A5C00FFF7D8FE06002000FBF70CF800280CD04E
:105A6C0025692800FAF796FE002806D0300008F0C9
:105A7C00E3FD1E4907F06EFD68664220FFF7C2FE8B
:105A8C0006002000FBF7CEF8002820D0002E16D000
:105A9C00012E14D0164B1A0030321278002A16D070
:105AAC005B6B144A14490120984710E0022800D07F
:105ABC004EE72000FBF736F8FAF74BFF48E725696D
:105ACC002800FAF767FE002801D06A352E702920CD
