:020000040800F2
:100000000090002045C00008CB7E0008CF7E00088D
:1000100000000000000000000000000000000000E0
:10002000000000000000000000000000CD7E00087D
:100030000000000000000000C97E0008B97E000832
:1000400095C0000895C00008557E000895C00008BE
:1000500095C0000895C000084B7E0008417E00084E
:1000600095C00008317E0008217E000895C0000878
:1000700095C0000895C0000895C0000895C000080C
:1000800095C0000895C0000895C0000895C00008FC
:1000900095C0000895C0000895C000089D7D000827
:1000A00095C0000895C0000895C00008F97B0008BD
:0C00B00095C0000895C0000895C000082D
:1000BC0010B5064C2378002B07D1054B002B02D032
:1000CC00044800E000BF0123237010BD7000002025
:1000DC000000000048E80008044B10B5002B03D0CA
:1000EC000349044800E000BF10BDC04600000000FA
:1000FC007400002048E80008E020164B10B51A6880
:10010C0051688143516082215868490088420CD162
:10011C00802099680002814203D08020C000814277
:10012C0003D140201168814311608020996A8001BD
:10013C00814206D11068084C2040106010680143C1
:10014C0011601A0001215D32117000225C33032012
:10015C001A7010BD8C000020FFDFFFFF1C4B022229
:10016C001900F0B58C310C781000012C2FD001380F
:10017C00087019008D310A70CA21FA2704255A6EAD
:10018C0014485162773951629169134C0140916165
:10019C0091691248BF00014091612669D1682940DC
:1001AC0009D0FF2151621A0000208D32FE398C33A8
:1001BC00117018700BE02069801BB842EED9FF203B
:1001CC0050621A00FC388D328C3310701970F0BDEF
:1001DC008C000020FFFBFFFF0C010020FFBFFFFF86
:1001EC00F7B52C4A022314008C342578070018002C
:1001FC00012D4DD00138207010008D300370CA20B5
:10020C00536E254C58627738586298692040042404
:10021C009861D86D2043D8652048C068400609D441
:10022C000194FA24A400A4461D4E3069DC68019D9B
:10023C002C4021D007245F619869A043986198698C
:10024C0001439961802117480903C46F2143C16799
:10025C0080219869C9010143996180219869C9007D
:10026C0001439961FF215962130000208D33FE393F
:10027C008C32197010700BE035692D1A6545D5D983
:10028C00FF215962130003208D338C3218701470C7
:10029C00FEBDC0468C000020FFFBFFFF0028004085
:1002AC000C01002004180240002310B50E4C032151
:1002BC001F202375FFF794FF237D002B04D0002310
:1002CC002375FFF74BFF10BD72B6BFF34F8FBFF313
:1002DC006F8F237D002B00D130BF62B6BFF34F8FE1
:1002EC00BFF36F8FE8E7C0460C010020A02130B5AA
:1002FC00FA252020094BAD005B6EDA688A43084969
:10030C00DA600C69DA68024201D0002030BD0A695B
:10031C00121BAA42F6D90320F8E7C0468C00002035
:10032C000C010020802210B5104CE3689343E3606D
:10033C00A369603A134208D1FFF7D8FF002803D015
:10034C0003200B4B8D33187010BDA3699343A3612D
:10035C00FFF7CCFF002803D00320054B8D3318701A
:10036C002023A2691343A361EEE7C0460028004096
:10037C008C0000201049F0B54B6E0020DA68520654
:10038C000FD48022DC6803252243DA60FA22920023
:10039C0094460A4C26694027DA683A4201D1032870
:1003AC0000D1F0BD2269921B6245F5D90A008D324D
:1003BC0015702800EFE7C0468C0000200C010020CF
:1003CC0070B50468114EE5690D40A94201D10020B9
:1003DC0017E05D1CF7D03569AD1AAB4212D2236819
:1003EC000B4A13402360A368A332FF329343A360EC
:1003FC002023021DD3670432D36700237C300370A3
:10040C00032070BD002BDED1E9E7C0460C010020B3
:10041C005FFEFFFFFA2318499B000A698020D2185F
:10042C00164B30B51C0040021D69054210D18025C9
:10043C001869134AED050240124818619869284062
:10044C000BD09C69024304439C61CA61012003E008
:10045C000D69AA42E8D8032030BD002AF5D1FA2252
:10046C000B6992009B188022D20220691040F3D0B5
:10047C0008698342F9D8EEE70C0100200020024005
:10048C00FAC30000FBC300002C4B30B51A1DD26F11
:10049C0004000220202A3AD10138002C37D0002940
:1004AC0035D080259A686D01AA4204D11D69002DB2
:1004BC0001D104422BD118007C3005780220012D8B
:1004CC0025D01800543001801800563001801900D6
:1004DC00002088310860191D2130C86780208021D8
:1004EC001C655C6E80054901844213D18A420FD190
:1004FC001A69002A0CD1124A1A671A0000207C32A1
:10050C0010701A68802391681B040B43936030BDF4
:10051C000C4AF1E78A420ED11A69002A0BD10A4A19
:10052C001A671A0000207C3210701A688023116838
:10053C000B431360EBE7054AF2E7C0466C0500205D
:10054C0055150008B11500080916000849160008D1
:10055C00494B70B51A000832D26F04000220202AD1
:10056C0059D10138002C56D0802299685201914201
:10057C0006D11A69002A03D1404A303202424AD1CC
:10058C001A007C3215780220012D44D001381070ED
:10059C003A4A802030329A651A005C3214801A0074
:1005AC005E32148000224001DA66814238D11A6929
:1005BC00002A31D11A003248603210801800002510
:1005CC0088301A00056022200832D0671A6821385A
:1005DC0095685E6E2843906080258020AD054001B3
:1005EC00AE4237D11D0068352D88A54232D88142E4
:1005FC002ED1196900292BD122490020D9667C33D0
:10060C001870802311685B000B4313608023916882
:10061C005B050B43936070BD1A00FF206032CCE782
:10062C00002906D11A69002AF6D01A007F20603200
:10063C00C3E780204005814206D11A69002AF4D014
:10064C001A003F206032B8E7180060300280B5E72E
:10065C000D49D2E781420DD1196900290AD10B4904
:10066C000020D9667C331870902311685B000B4313
:10067C001360D0E70649F3E76C0500200C0100205D
:10068C00FF010000E5130008B107000891140008F1
:10069C00F1140008F7B5A02200230190D2050199AE
:1006AC00D94000D1F7BD012199400C00009101996E
:1006BC000C403FD003260F271E40F600B7401E4DBE
:1006CC009908890049190D6E2F4214D11B4EE44331
:1006DC00B4466046F66F184D2640C6671848C66F7C
:1006EC002640C6672E6826402E606E6834406C60CB
:1006FC000C6EBC430C6603255C00A54011682C00F5
:10070C00294307250F27A0201D40AD00AF40E4432F
:10071C001160D908C005890009180E6A0098BE43FB
:10072C000E62916821409160516881435160D1689B
:10073C000C40D4600133B2E70018024004180240A8
:10074C0008180240164B10B51A00503210780028C9
:10075C000ED1190030310978CC2907D1CB3951335E
:10076C00187011700230FFF7F3FE10BD0120FAE78C
:10077C0001280FD1190030310C7851331C701E2C0C
:10078C0003D803231370A01CEDE700231370FFF7AD
:10079C00DFFEF8E70328E8D104231370E5E7C04631
:1007AC000C010020F7B507000837FB6F0400222B63
:1007BC003FD10300060060331B88683601933588EF
:1007CC0022005E32002D12D113889BB2002B0DD06B
:1007DC0032889A420AD9236819499A680A409A6061
:1007EC00184A1968E26620220A431A60F7BD23688A
:1007FC0001995B6A0B40A16D0B70A36D0133A3656E
:10080C001388013B9BB2138013889BB2002B0DD134
:10081C0022680D4811680140116091680B48014035
:10082C0091602022FA67E366FFF78CFF013DADB2C1
:10083C00C6E70823026891690B439361D6E7C0466B
:10084C00FFFFFFEFF1140008FFFEFFFFFEFFFFEFBD
:10085C00836910B50400002B0BD0144B1A008432A2
:10086C001278002A05D088331B68114A11490120DF
:10087C009847E369002B0BD00C4B1A00843212788A
:10088C00002A05D088331B680B4A0A490120984777
:10089C0063690120002B07D0044B002088331B68B0
:1008AC00064A04499847002010BDC0460C010020A0
:1008BC00701801088118010897180108A61801087A
:1008CC00704710B50400C26B816B236C00699847AC
:1008DC000022A36B5A6110BD836910B50400002B74
:1008EC000BD00F4B1A0084321278002A05D08833B3
:1008FC001B680C4A0C4901209847E369002B0BD06C
:10090C00074B1A0084321278002A05D088331B68F2
:10091C00064A05490120984720688368984710BD0E
:10092C000C01002070180108CD1801089718010857
:10093C0010B50068C368984710BD70B50400436AD1
:10094C004569826B19680069E36B984728702068C9
:10095C004368984770BDF8B506000C001248111C8E
:10096C0008F05AFA104907F04DFFC7210906071C79
:10097C0008F020F908F02AFC0C4905B2381C08F0E4
:10098C0019F908F023FC6408640000B23419A6427B
:10099C0001D10020F8BD0023F25E904202DD023648
:1009AC009542F4DB0120F5E70000C84200FEFF464B
:1009BC00F8B506000C00101C1249171C07F022FF9A
:1009CC00114908F0F7F807F0A9FC391C85B20D485D
:1009DC0008F022FA0B4907F015FF0B4908F0EAF86A
:1009EC0007F09CFC6408640080B23419A64201D163
:1009FC000020F8BD3288904202D902369542F5D3D8
:100A0C000120F6E70000C84200FF7F4701380023B1
:100A1C00292802D8024B1818037B01201840704774
:100A2C008C010020F7B506680D003248311C07F028
:100A3C00E9FEFC21890507F04BFD07F06FFC2E4900
:100A4C0084B2301C08F0E8F92C4908F0B3F82C49B2
:100A5C0007F03EFD07F062FC2300103B9BB228819F
:100A6C00EF2B2CD9274B00218833301C1F6807F043
:100A7C000DFC00281FD0244C2449301C08F09AF897
:100A8C00234907F025FD061C07F048FC050008F07B
:100A9C0007FC011C301C08F0BFF91E4908F08AF84D
:100AAC0007F03CFC00950190230000201A4A1B49DA
:100ABC00B8470020FEBDFE21194C8905DDE73F2C0F
:100ACC0009D800226A802F2C00D92300AB80EA8041
:100ADC002C800120EEE701236B80E308BF2C03D8A8
:100AEC002300403BDB109BB2AB8007232340EB8001
:100AFC00EEE7C046F902154F8096984BE8385BB587
:100B0C0000007C420C010020E6180108000080BFA8
:100B1C00BD37063500247449E8180108131901087B
:100B2C00472D01080C2310B504785C43034B1B19AB
:100B3C005C68002C01D09B68A04710BD98FC000895
:100B4C001FB50291002101AB18700A001800039127
:100B5C00FFF7E8FF05B000BD30B50C001100012215
:100B6C00050085B001A882605A0005704460FFF74B
:100B7C00D9FF05B030BD10B5014B1B6E984710BDA9
:100B8C000C01002070B5064CE36D9847051E04D18E
:100B9C0088342368034A04499847280070BDC0462E
:100BAC000C010020241901083219010810B5024B60
:100BBC00DB6F984710BDC0460C01002010B5024BEE
:100BCC00DB6E984710BDC0460C01002010B5024BDF
:100BDC009B6E984710BDC0460C01002010B5024B0F
:100BEC000433DB6F984710BD0C01002010B50400D6
:100BFC000120002C0BD1074B1A0084321278002AEA
:100C0C0006D088331B68044A04499847200010BD5D
:100C1C001000FCE70C0100203E19010859190108CD
:100C2C0010B50400FFF7E2FF0023984201D06034B6
:100C3C002388180010BD70B504000D00FFF7D6FF17
:100C4C00002801D00434E58770BD70B504000D0098
:100C5C00FFF7CCFF002801D00234E58770BD10B53A
:100C6C000400FFF7C3FF00280BD02079032808D815
:100C7C0007F032F902020505FF20C00510BDA0687F
:100C8C00FCE70148FAE7C0460000C07F10B504003D
:100C9C00FFF7ACFF0023984200D02379180010BD59
:100CAC0010B50400FFF7A2FF0023984200D0A36BFD
:100CBC00180010BD10B50400FFF798FF00239842F0
:100CCC0000D0E368180010BD13B5054A00918832B6
:100CDC00030014680349044A0020A047FEE7C046FD
:100CEC000C010020811901086C190108C36A10B5A8
:100CFC00002B02D014305B6B984710BD70B50468A4
:100D0C000500002C1BD0606F8269002A0FD048238D
:100D1C005A430D4B483A9B6B9B181A004032127881
:100D2C00002A01D141331A700430FFF7DFFF230092
:100D3C00FC33D869FFF71FFF2000FFF71CFF2800CA
:100D4C00FFF719FF70BDC0468C01002070B5856996
:100D5C0004002800FFF73AFF482169430D4B48393E
:100D6C009B6BE06A5918236BA66B9B68984700280D
:100D7C0004D12800FFF722FF002070BD2000236B58
:100D8C0031005B69183098470028F2D00123E370DA
:100D9C00F3E7C0468C01002070B5036B85691B6BB3
:100DAC00416828009847084B041E06D188331B68FD
:100DBC00064A07499847200070BD1B6F002BFAD0DC
:100DCC0028009847F7E7C0460C0100208C19010851
:100DDC00AC19010870B50B6886B004000E00062B28
:100DEC000BD00621104A00918832146800200F4A5B
:100DFC000F49A047002006B070BDFFF7EFFE03AD12
:100E0C000290290002A8FFF70DFE0028F3D0AB8852
:100E1C006360EB88A3606B8823602B89A381B38804
:100E2C002361F3886361E6E70C010020BB1901081C
:100E3C00F91901080020704710B50400406900281A
:100E4C0003D0FFF798FE0023636110BD10B5041E9C
:100E5C0004D00379032B0ED1200010BD074B1A00D0
:100E6C0084321278002AF7D088331B68044A05496B
:100E7C0001209847F0E70024EEE7C0460C01002063
:100E8C000D1A0108231A010870B50D00FFF7DEFFDB
:100E9C00002811D01C300400681E04280CD807F060
:100EAC001BF8030C0E10160000212000FFF7C3FEE8
:100EBC0000212000FFF7C9FE70BD0721F5E70921CD
:100ECC00F3E70C212000FFF7B6FE0521F1E7102116
:100EDC00F8E710B504000069002803D0C3689847F0
:100EEC000023236110BD10B50C00002815D0037A27
:100EFC00032B12D103691B689A69586A0A60DA6974
:100F0C004A60DA8D0A819A6ACA60044907F052FE77
:100F1C00FC21890507F04EFE206110BDC2F38E4DF9
:100F2C00F8B5174B174F1C6C3B0084331B7805002E
:100F3C00032B08D93B0088331B68134A1E00134946
:100F4C0043680420B0470023002C0DD0626DAC42E6
:100F5C0007D1002B11D10A4B1A642000FFF70BFEAE
:100F6C000AE023001400EFE73B0088331E68084AB0
:100F7C006B6806492000B047F8BD5A65EDE7C046DE
:100F8C008C0100200C010020321A0108531A0108B0
:100F9C00631A010810B5044B044A88331B680449D2
:100FAC000120984710BDC0460C0100200D1A010805
:100FBC003629010810B500280AD00A4B02689A425B
:100FCC0006D1038B002B03D043690120002B07D1E2
:100FDC00054B002088331B68044A054998470020BC
:100FEC0010BDC046D79DC0AC0C0100200D1A0108E5
:100FFC003629010870B504000D00FFF7DBFF00284F
:10100C0007D024692000FFF7F1FD002801D06834D7
:10101C00258070BD10B5002804D00268064B012055
:10102C009A4207D0054B002088331B68044A0549B7
:10103C009847002010BDC046E89EC0AC0C010020B3
:10104C00971A010836290108F8B50400FFF7E2FFEA
:10105C0000282DD01B4D2B0044331E78002E27D09A
:10106C00637A002B22D163682A2B21D82A005B00DB
:10107C0045329F5C002F1BD101219954E37E002B3C
:10108C0003D0206BFFF79AFDE77663682A2B05D80F
:10109C002A00590045325218002151700122627207
:1010AC002A2B03D89340002245355A553000F8BD01
:1010BC00054B064A88331B680549002098470026D3
:1010CC00F4E7C0468C0100200C010020A61A010890
:1010DC0036290108134B10B53C331B780400002B48
:1010EC0012D00068FFF796FF00280CD02068FFF79D
:1010FC00ABFF2068C368002B00D098472068FFF72F
:10110C000FFF0023236010BD074B1A0084321278A6
:10111C00002AF8D088331B68044A054901209847F7
:10112C00F1E7C0468C0100200C010020C21A010816
:10113C00531A0108F7B50400FFF76CFF002809D11A
:10114C00344B354A88331B683449002098470026B5
:10115C003000FEBD324D2B0044331E78002EEFD0F4
:10116C00637A002BF4D063682A2BE9D82A00590043
:10117C0045328F5C002FE3D10120885452185278ED
:10118C00002A3CD1227E022A21D0230018331800D9
:10119C000193FFF7DBFD002831D0A37E002B20D07C
:1011AC00237E012B10D1A36C00229B69E169206B7B
:1011BC009847002823D0A36C206B9B6A9847002883
:1011CC001DD00198FFF7E8FD63682A2B05D82A008B
:1011DC005B004532D31801225A700023370063722A
:1011EC000DE0A36C206B9B6A9847002807D0A36C7A
:1011FC0000229B69E169206B98470028D0D1636875
:10120C002A2B03D8002245355B005A55002F97D066
:10121C009EE7C0460C010020D41A010836290108AB
:10122C008C010020F0B50B688DB005AC06000320D6
:10123C0063600023207060613000A160E360226174
:10124C0023766376A376FFF7E5FEA57E002D0ED000
:10125C006368002B02D0E368002B15D1244B254A80
:10126C0088331B68244900209847002509E0A368AF
:10127C00002B09D11E4B214A88331B681E492800BC
:10128C00984728000DB0F0BD0028EED0337A2178B5
:10129C008B4208D0164A0091883214681649184AB5
:1012AC000020A047E1E7277E002F04D03000FFF795
:1012BC0041FF071ED9D0737A0393002B0DD00C4B32
:1012CC00104A88331B680C49002098470025002FD2
:1012DC00D7D03000FFF7B8FED3E70125336974612E
:1012EC0005CB9047637E5D40039B7361EFE7C0467F
:1012FC000C010020EE1A0108362901080B1B01080D
:10130C00201B01083C1B010810B5041E01D000690C
:10131C0010BD074B1A0084321278101EF8D0883397
:10132C0001201B68034A044998472000F0E7C04697
:10133C000C0100200D1A0108362901087FB5144B49
:10134C00040002930823FF330393124B0093124BB8
:10135C000193436E002B02D1104B83667FBD6A460E
:10136C00036802AE9D689B685B0FF05CD15CC000AB
:10137C0006F050FE23006A466A3318802B015B0F7F
:10138C00F05CD15CC00006F045FE68342080E5E7D7
:10139C00010101030804020408010101010001001C
:1013AC0070B504007C3422780223012A10D0012667
:1013BC000268051D2233EB6711681368B343136091
:1013CC00044B19400023436611602022EA67237006
:1013DC00180070BDFFFFFFDFF7B507000837FB6F84
:1013EC000400222B3FD10300060060331B886836B3
:1013FC000193358821005E31002D12D10B889BB2F0
:10140C00002B0DD032889A420AD9236819499A6860
:10141C000A409A60184A1968E26620220A431A6048
:10142C00F7BDA26D23689446586A019A1040624633
:10143C0010800232A2650A88013A92B20A800A88A8
:10144C0092B2002A0CD119680C48014019609968B5
:10145C000B48014099602023FB67E266FFF772F9A5
:10146C00013DADB2C6E70823026891690B43936155
:10147C00D6E7C046FFFFFFEF91140008FFFEFFFF09
:10148C00FEFFFFEF01000831CA6F70B50368222A16
:10149C0021D1050060355C6A2D88826D2C4014804A
:1014AC000400023282655E342288013A92B22280B4
:1014BC00228892B2002A0DD11C68094D2C401C6068
:1014CC009C682335FF35AC439C602023CB67C266F8
:1014DC00FFF738F970BD082299690A439A61F9E758
:1014EC00DFFEFFFF70B504000834E26F0368222AA8
:1014FC0023D1020060325B6A12881340826D137034
:10150C000200836D5E32013383651388013B9BB20D
:10151C00138013889BB2002B0ED10268094D116801
:10152C002940116091682335FF35A9439160202231
:10153C00E267C366FFF706F970BD082299690A4392
:10154C009A61F9E7DFFEFFFF031DDB6F70B5212BFE
:10155C0013D10300040080256A331A885634002AFC
:10156C000BD021880368002908D19A680C490A40DD
:10157C009A60402219680A431A6070BDD9692942E1
:10158C000AD0066D31880236C905C90D9962066507
:10159C002388013B9BB22380013A92B2DFE7C0461D
:1015AC00FFFF7FFF031DDB6F70B5212B13D10300F1
:1015BC00040080256A331A885634002A0BD02188FF
:1015CC000368002908D19A680B490A409A604022A6
:1015DC0019680A431A6070BDD969294208D0016D97
:1015EC000E7801319E6201652388013B9BB22380FA
:1015FC00013A92B2E1E7C046FFFF7FFF031DDB6FAC
:10160C0010B5212B0DD1010056310A880368002A30
:10161C0008D180211A688A431A60402219680A434B
:10162C001A6010BD046D22880234D205D20D9A6264
:10163C0004650B88013B9BB20B80F2E7031DDB6F4B
:10164C0010B5212B0DD1010056310A880368002AF0
:10165C0008D180211A688A431A60402219680A430B
:10166C001A6010BD026D147801329C6202650B8801
:10167C00013B9BB20B80F4E7836A002219005633BE
:10168C005E310A801A8070470023092803D81B0199
:10169C001843C0B270470A380133C0B2F5E7F7B54A
:1016AC004E4F02233A008C321178050018000129A4
:1016BC0071D0012111703A008D32137040227C6E72
:1016CC00A369134000D1EB702878FFF7DDFF06000B
:1016DC006878FFF7D9FF0090A878FFF7D5FF6B1C4F
:1016EC000190D87FFFF7D0FF6A69EB69360413438A
:1016FC00EA78000692051343019A394913431E43B5
:10170C00009BAA691B021E436B68304313439C4623
:10171C00CA236A6A6362773B6362AD339A423BD1F8
:10172C00A369304A1340A361E36D0332FF321343C4
:10173C00E3650E690092E368009A13401DD063467E
:10174C00206463648023A2695B001343A36180233C
:10175C00A2695B011343A3618023234A1B03D16F4E
:10176C0000200B43D367FF2363623B0001228D33C0
:10177C001A703B008C3318700DE0FA220D69920040
:10178C00AD1B9542D7D9FF2262623A0003208D32FD
:10179C008C3710703B70FEBDA369144A13400222B3
:1017AC00A361E36D00921343E3650E69E368009A4D
:1017BC0013400BD06346A064E3648023A2699B00B2
:1017CC001343A3618023A2699B01C3E7FA220D692D
:1017DC009200AD1B9542E9D9D5E7C0468C0000209C
:1017EC000C010020FFFEFFFF04180240FFFDFFFF6D
:1017FC0010B50023CA0708D5030041331A782823F3
:10180C001A401A33282A00D0B0338A0708D50200B0
:10181C002824413212782240A2420AD14422134396
:10182C004A0701D5B822134301680A689A430A6033
:10183C0010BDF422F3E70022836A996B8A63D96B9B
:10184C0041338A631A78602A01D1403A1A70704782
:10185C0003689A69920701D500229A62012299695C
:10186C00114202D199690A439A617047164B10B51F
:10187C00C362002302000363040020204132107075
:10188C00537063634B0713D52368626A5B6A1370EA
:10189C00636A01336362238D002B09D0013B2385DE
:1018AC00638D013B9BB263850423626C13436364B9
:1018BC0020000721FFF79CFF102223684034DA61D7
:1018CC000023237010BDC0460000FFFF030070B55D
:1018DC00002542331D70013B1A780400292A0AD1D5
:1018EC00013A1A7021230121036320004034FFF7D1
:1018FC007FFF257070BD1A782A2AFBD1023A1A7024
:10190C00222302210363F0E7FA2170B5114D040084
:10191C008900286806F0F4FA0F4B0138984201D977
:10192C00012070BD0D490E4A4860C020136A0006A4
:10193C001B021B0A034313620020072388600B6001
:10194C00032CEDD8136AA1071B021B0A0B4313626D
:10195C006C60E6E700000020FFFFFF0010E000E0F5
:10196C0000ED00E010B5040003681421D8B208386B
:10197C0006F0C6FA236C064A9B089B189B0063640E
:10198C00044BA3641C2318401B3B8340E36410BD31
:10199C00008200108008024070B5234B06680400DA
:1019AC001421F01806F0ACFA02238000A51D206467
:1019BC00EB7733681D4AA16813403360802332688B
:1019CC000B43134333602000FFF7CCFF8023A26846
:1019DC00DB019A4201D1002363606268616CD3B26F
:1019EC000B60E06CA16C013A4860032A16D8104ACF
:1019FC00104899180322013B1340023A9A40A26501
:101A0C00130000228900216560650A604360002094
:101A1C000123E0630534EB77E07770BD0023236589
:101A2C006365A365F3E7C046F8FFFDBF0F80FFFFBA
:101A3C003F82001040090240F8B5012507680400F8
:101A4C003B681421AB433B60184B0026F81806F09A
:101A5C0057FA1C238000206418402B008340144A42
:101A6C003E60516820000B435360FFF77BFF636CB3
:101A7C00E26C1E60A36C5A6063685A1E032A06D877
:101A8C0095400C495B189B001E600B4B5D60002061
:101A9C00E06220636063A06320656065A065E0631D
:101AAC00A31D0534D877E077F8BDC046F8FFFDBF1D
:101ABC00000002403F82001040090240F8B51C2192
:101ACC000427046C264B21403C008C401E680268A5
:101ADC00156826420FD03D420DD01168890602D4FC
:101AEC001168B94311605A6814435C60036B002B96
:101AFC001BD0984719E002273C008C40264215D099
:101B0C003D4213D01168890606D40A251168A943F1
:101B1C0011600121821DD1775A68144300225C6048
:101B2C00431DDA77C36A9342E3D1F8BD082427003A
:101B3C008F403E42F9D02542F7D00E251468AC43B5
:101B4C001460012215008D4029005C682143596006
:101B5C00831DC263DA770022431DDA77436BE2E719
:101B6C0000000240F8B50123411DCB77841DE27FB4
:101B7C00022A03D00422C2631800F8BD0E260268A4
:101B8C001568B54315601568466C9D431560326841
:101B9C00114D2A4032601C22AC46056C0F4E2A4077
:101BAC00934077683B437360C26C836C5A60036DDF
:101BBC00002B06D065461A682A401A60436D826D68
:101BCC005A600123E3770024CC77826B1300A24286
:101BDC00D2D090472300CFE7FFFEFFFF000002406A
:101BEC0070B5020005000026423241352B78167084
:101BFC002A4A283BC2624685426C04001143416468
:101C0C00022B22D80321FFF7F3FD28232B70244B42
:101C1C002663802263632368D201196811401A6815
:101C2C001ED02049A06B0A401A6000280CD01E4B15
:101C3C0000228363230040331A70FFF793FF0028C0
:101C4C0002D0A06B836B984770BD0721FFF7D0FDC6
:101C5C002B78602B01D020232B7000232363D8E733
:101C6C0080200002024011D01A6810480240E06B3C
:101C7C001A600028E8D00C4B8363230040331970A2
:101C8C00FFF770FF0028DFD0E06BDBE72B784034E8
:101C9C00602B01D1403B2B702270D5E70000FFFF79
:101CAC00BD1C0008FFBFFFFF43180008FF7FFFFFAC
:101CBC00F8B50700403716003A780400C36A0D00E7
:101CCC000220012A75D0012209093A70114200D173
:101CDC0090E03109114200D18CE0628D002A00D0D5
:101CEC0078E0220041321178282963D180218904BF
:101CFC008B425FD129002000FFF7B8FDAB0656D50B
:101D0C00012376091E4252D02022236807211E6827
:101D1C002000DA61FFF76CFD8022236812025968FB
:101D2C0020000A435A605A6876490A405A60FFF705
:101D3C008FFD0122B30B134200D1CEE0A36B002B1D
:101D4C0003D01B685B689BB263856B0711D50423BA
:101D5C009D432368626A5B6A1370636A0133636232
:101D6C00238D002B05D0013B2385638D013B9BB25A
:101D7C006385638D002B03D00423626C134363646F
:101D8C002200002326004232236313706363636CCA
:101D9C004136002B00D1A7E0616C2000FFF720FF3B
:101DAC003378282B03D129002000FFF75FFD00209A
:101DBC003870F8BD102110782268D16129289DD186
:101DCC00514883429AD02000FFF742FD2000FFF7D4
:101DDC007DFD93E710212268D1610422616C0A43D6
:101DEC0062644A4A134200D088E7616C2000FFF716
:101DFC00F7FE83E7012269071ED5B10811421BD0FB
:101E0C00628D002A0FD0042295432268616A526ABF
:101E1C000A70626A01326262228D013A2285628DF9
:101E2C00013A92B26285628D002A00D066E7364A8A
:101E3C00934200D162E7C9E7012229072FD5F108A7
:101E4C0011422CD02300282141331B7822680B40EF
:101E5C008B4221D1936993699168D068E06802281C
:101E6C0014D11B0CFC308905490F03404B40062153
:101E7C000B400BD1A16C0131A164A16C022900D0E3
:101E8C003CE70631A364D1613B7037E704212000A5
:101E9C00FFF7AEFC0023F7E70823D361FAE7012232
:101EAC00A90700D42AE77108114200D126E7628DF8
:101EBC00002A0DD0636A226819780133916263623B
:101ECC00638D013B9BB26385238D013B238515E715
:101EDC000E4A134200D011E778E70123F60B1E429D
:101EEC0000D132E7E36B2AE7E36A074DAB4206D039
:101EFC002000FFF7EBFCE5622023337057E73278C4
:101F0C00FAE7C04600E800FE0000FFFFFFFFFFFEFF
:101F1C00064B074A9B685B045B0F9B009B581F2278
:101F2C001340044A1068D8407047C0460010024065
:101F3C0060E800080000002038231F4A70B5916843
:101F4C001400194208D1012113681C489B045B0F33
:101F5C00994005F0D5FF70BD91681940082925D02E
:101F6C0091681940102915D1D368D168DB437F22C1
:101F7C00E5684906490F2D0A013115409B0707D129
:101F8C000F4805F0BDFFE1686843490F0131E0E7F8
:101F9C000A48F6E791681940202909D09268002078
:101FAC001340182BD7D1FA20C001D4E70448D2E74C
:101FBC0080200002CFE7C046001002400024F4004D
:101FCC0000127A00044BDA68104200D0D8601A690B
:101FDC00024200D01861704700180240F0B50B683F
:101FEC0085B0039300230191039ADA4001D105B027
:101FFC00F0BD01229A4002920299039A0A40009283
:10200C0000D185E0019A1021526816008E43022EF1
:10201C000ED107251D40AD000139A940DC08A400F4
:10202C000419276A8F4301990969A9400F43276254
:10203C0003245F00BC40E4430568013E2540AC46E8
:10204C0003251540BD4061460D430560012E0FD898
:10205C0001998668CD682640BD4035438560466849
:10206C00029915098E4301210D409D403543456071
:10207C00C56801992C408D688021BD4049052C43D1
:10208C00C4600A4244D003260F2422499D081E40F6
:10209C00AD00F6006D18B440A0212F6EC905A74302
:1020AC00002488420CD01C490134884208D01B49BA
:1020BC000134884204D01A490334884200D1023CCE
:1020CC00B44000993C430E002C66164CCD43E76F90
:1020DC003E43D10301D43E002E40E667124E009FD2
:1020EC00F46F2743910301D42C402700094CF76768
:1020FC002768009E3E43D10201D43E002E4026604C
:10210C006668009F3743920201D42E403700676007
:10211C00013369E700180240000400500008005029
:10212C00000C0050041802400818024010B500289A
:10213C000DDB074B9C8BA04209DA002907DBDC8BFB
:10214C00A14204DA1B6A8000C3584900CA5210BD70
:10215C000C020020002310B598420DDB074A948B2B
:10216C00A04209DA994207DBD48BA14204DA136A44
:10217C008000C3584900CB5A180010BD0C02002037
:10218C000122174B524210B501009A62122820D836
:10219C001A0080002C3210180A00203AD4B2222CDB
:1021AC0002D890000F4A80180A007F32D2B2042A5B
:1021BC0004D8080081387833800018180B003033AD
:1021CC00DBB2092B04D8084BD03989000C335818D2
:1021DC0010BD18002830E929DED10438DCE7C046F0
:1021EC000C020020E00400208C02002010B5FFF748
:1021FC00C7FF006810BD014B186970470C01002027
:10220C0000487047001BB74B0C4A70B508241500EA
:10221C000B4806691369234203D103699B1B8B424C
:10222C0003D328690007C00F70BD72B6136923422F
:10223C0000D130BF62B6BFF36F8FEBE700040050E4
:10224C000C0100200021102210B5074B1C69144210
:10225C0002D19A61FAE79A621C691442FBD10131EE
:10226C008842F3D110BDC04600040050802210B546
:10227C00054B92009A610320FFF7E4FFFEF714F878
:10228C000A20FFF7DFFF10BD0004005010B50A2034
:10229C00FFF7D8FF8022024B92009A6210BDC04615
:1022AC00000400500122074B10B580219A62A02235
:1022BC004900D2059162802292009A62FDF7F4FFE8
:1022CC0010BDC046000400501022084B10B59A6295
:1022DC00F132FF329A618021A0224900D20591612E
:1022EC0001229A61FDF7E0FF10BDC04600040050CA
:1022FC00B448F0B503000124B34D85B001915C33B3
:10230C00AC621E780395A64200D1ECE0AF4E1C7077
:10231C0033694568029303005D331B78DBB2A3423B
:10232C000BD00434FF34A54200D0D4E08468002CD8
:10233C0000D0D0E0042B00D0CDE0019B002B00D1CD
:10234C00C9E092B2002A00D1C5E003005D331C78CD
:10235C00042C01D005241C700400002308340366EF
:10236C00E287841DE287E0240199C768C364036592
:10237C0001648163C28782870368E400A74201D8A5
:10238C00012A6CD05C6892490C405C60402419684E
:10239C00214202D119680C431C60E024E400A742DE
:1023AC0000D8A5E0002D01D0012A09D1019A12888C
:1023BC00DA60019A02328263C28F013A92B2C2870A
:1023CC00002601223700806B7E4DEC8F002C4BD108
:1023DC002C000834E48F002C46D1002F00D0A863C9
:1023EC00002E01D0019B2B64C022764C77482168CB
:1023FC00784D52018B68134208D00369029E9B1BD7
:10240C00AB42F7D9FDF778FE002821D18022216854
:10241C006E48704D8B68134208D00369029E9B1B5B
:10242C00AB42F7D9FDF768FE002811D1C021226814
:10243C006648684DC90093680B424CD0137B029ED2
:10244C0003699B1BAB42F6D9FDF756FE002842D020
:10245C002023226E13432366202323663BE0802433
:10246C00596864010C4390E79C68A1070ED5554C44
:10247C00E18F00290AD0012A08D107880230DF60D9
:10248C00E78F013FBFB2E7871700002201219C684C
:10249C000C4210D04B4C0834E18F00290BD0DA6879
:1024AC00019901260A800A0002320192E28F013A58
:1024BC0092B2E2873200454C02992469641A45496C
:1024CC008C4200D881E73F4B002F00D09863002E40
:1024DC0001D0019A1A643B4B01211A005D32117034
:1024EC0000225C331A700123039A936105B0F0BD8E
:1024FC00002D01D0012A0CD1C28F012A51D9019A89
:10250C00019912880231DA60C38F8163023B9BB25E
:10251C00C38701210222030094460C000833C28FAA
:10252C00002A03D1DA8F002A00D15DE765460268E4
:10253C0097682F4211D0C78F002F0ED001290CD1D4
:10254C00C78F816B012F35D90F880231D76081631A
:10255C00C18F023989B2C18700219768274218D0F0
:10256C00DF8F002F15D0DF8F016C012F34D9D76886
:10257C000F8002310164D98F023989B2D987DF8F7C
:10258C002100012F05D8802551686D012943516028
:10259C0021003269029D0F4F521BBA4200D99AE7B3
:1025AC00BDE7019A12781A73836B01338363C38F6F
:1025BC00013BACE709781173816B01318163C18FE9
:1025CC000139C7E78C000020000400500C010020EA
:1025DC00FFEFFFFF87130000127B0A70026C0132C1
:1025EC000264DA8F013A92B2DA87D1E710B5044C63
:1025FC00206A0CF041F800232362A383E38310BD0F
:10260C000C020020F0B5071DFD6F8BB00400002DEF
:10261C005BD103007C33066814221D70290005A8C9
:10262C0009F07EFDCB4B9E4200D098E08020CA4B37
:10263C00C001196C014319641A6C02400492049A8B
:10264C000122596BA020114359635B6B05A9134000
:10265C000393039BF0235B0105930223C0050992AE
:10266C000693FFF7BBFCBD4EBD4BBE48F364332352
:10267C003365233B73657033B565F36535667566F5
:10268C00B566F566FFF788F97467B74EB74B3563D7
:10269C007563F56335647564B5643500B3623223D4
:1026AC00B04A28356267F36228004E33B363FFF7F4
:1026BC0073F9C621AE4A89005358A5671B021B0A41
:1026CC003465535080231B05136024230121226899
:1026DC00FB67136820698B431360A368E1690343AC
:1026EC006069656E03430B4310682B43A14D284072
:1026FC00034313605368A048A04D0340E0680343B4
:10270C005360A069AA4201D0236A184393689C4E77
:10271C0033400F2603439360D06A636AB043184377
:10272C00D0628C4882423AD103258B4A506D954A2F
:10273C00284001321218D07F80221202914200D020
:10274C008FE3082800D989E305F0D0FB89048803BE
:10275C0016038803500388038803880353038A4BAA
:10276C009E42B2D180207C4B8002D96B0143D9634D
:10277C00DA6B02400292029A0122596BA02011439B
:10278C0059635B6B05A913400193019B0C23C00596
:10279C0005930A3B06930992FFF720FC95E77A48CC
:1027AC00824206D10C256C4A506D764A284005327F
:1027BC00C0E77648824201D100F04CFC744882425A
:1027CC0001D100F047FCAA4201D000F009FCC02165
:1027DC008020614A0901526DC0000A40824200D13A
:1027EC0055E100D986E0002A00D1EDE00125694BC6
:1027FC00A3660023E3662367012D00D1EDE3A26AF3
:10280C002368002A49D0D10705D559686248014090
:10281C00E06A01435960910705D559685F4801404A
:10282C00206B01435960510705D559685C4801403C
:10283C00606B01435960110705D55968594801402F
:10284C00A06B01435960D10605D5996856480140E3
:10285C00E06B01439960910605D599685348014096
:10286C00206C0143996051060FD55968504E606C2D
:10287C0031400143596080214903884205D1596890
:10288C004C480140A06C01435960120605D55A68AA
:10289C0049490A40E16C0A435A605A6847490A4060
:1028AC002A215A609A688A439A60012219680A435D
:1028BC001A602200002188321160414A16691B6897
:1028CC001B0700D57EE323681B685B0709D58021B5
:1028DC003C4B3200C9032000FDF772FD002800D0EC
:1028EC007AE32023221DD3670432D36700237C3480
:1028FC00237072E380200001824200D1ACE08A4256
:10290C0000D073E7002B20D0012B00D10BE1022B60
:10291C0000D10CE1032B00D10DE1042B00D10DE112
:10292C00052B00D10EE1062B00D10EE1072B00D1B7
:10293C000EE1082B00D10FE1092B00D10FE10A2B7E
:10294C0000D110E10B2B00D111E1802008230002F3
:10295C0069E0C04600380140001002408C020020A3
:10296C0008000240D80200200C0300201C0002408A
:10297C0000E100E0F369FFCFFFCFFFFF00800040D4
:10298C00FFF4FF1160E800080044004000480040DC
:10299C00004C004001000100FFFFFDFFFFFFFEFFA8
:1029AC00FFFFFBFFFF7FFFFFFFEFFFFFFFDFFFFFDF
:1029BC00FFFFEFFFFFFF9FFFFFFFF7FFFFB7FFFFDB
:1029CC000C010020FFFFFF01FFF7A2FA636A01214F
:1029DC00002B21D04918012B1ED00231022B1BD009
:1029EC000231032B18D00231042B15D00231052BE8
:1029FC0012D00231062B0FD00431072B0CD0103122
:102A0C00082B09D02031092B06D040310A2B03D0DA
:102A1C007F390B2B00D1FF3105F072FA0023002512
:102A2C00A84200D1E3E6032162685143814200D9F8
:102A3C00DCE61103814200D2D8E6082B00D95AE11A
:102A4C00180005F053FA97005801E90058011F01CE
:102A5C005801580158012201002B15D0012B42D0EE
:102A6C00022B43D0032B43D0042B44D0052B45D051
:102A7C00062B46D0072B47D0082B48D0092B49D022
:102A8C000A2B4AD00B2B4BD002239C48CBE7FFF7E9
:102A9C0053FA636A0121002B21D04918012B1ED057
:102AAC000231022B1BD00231032B18D00231042B24
:102ABC0015D00231052B12D00231062B0FD0043168
:102ACC00072B0CD01031082B09D02031092B06D044
:102ADC0040310A2B03D07F390B2B00D1FF3105F08D
:102AEC000FFA04239BE7022385489CE785489AE765
:102AFC000223854897E70223844894E702238448FD
:102B0C0091E7022383488EE7022383488BE7022355
:102B1C00824888E70223824885E70223814882E7BE
:102B2C00022381487FE780200823C0017BE78020B7
:102B3C000823800177E708237C4874E7802008236A
:102B4C00400170E708237A486DE7082379486AE763
:102B5C0080200823000166E78020C00063E7802006
:102B6C00082380005FE78020082340005BE70823F0
:102B7C00802058E7FFF7CCF9616A01220023002975
:102B8C002ED00222002301292AD00422002302295C
:102B9C0026D006220023032922D008220023042950
:102BAC001ED00A22002305291AD00C220023062944
:102BBC0016D010220023072912D020220023082926
:102BCC000ED04022002309290AD0802200230A2992
:102BDC0006D0012200230B2902D1802200235200AF
:102BEC00002105F07BFB00276568060E0B023343C2
:102BFC0002026E0892197B41100019002A003B005A
:102C0C0005F06CFB3D004C4B4C4AC318934200D969
:102C1C00ECE52368D860EAE5636A002B30D0012B21
:102C2C001AD0022B1AD0032B1AD0042B1AD0052B36
:102C3C001AD0062B1AD0072B1AD0082B1AD0092B16
:102C4C001AD00A2B1AD00B2B1AD12C480021002792
:102C5C00560880197941D2E73948F7E73948F5E742
:102C6C003948F3E73948F1E73948EFE73948EDE7F8
:102C7C003948EBE73948E9E73948E7E73948E5E708
:102C8C003948E3E7FFF758F976E7636A002B18D069
:102C9C00012B19D0022B1AD0032B1BD0042B1BD0C9
:102CAC00052B1CD0062B1CD08020072B1BD0082BEF
:102CBC001BD0092B1BD00A2B1BD00B2B02D10002D3
:102CCC00C4E780200004C1E78020C003BEE7802059
:102CDC008003BBE72548B9E780204003B6E72448CA
:102CEC00B4E72448B2E70003B0E7C002AEE78002C5
:102CFC00ACE74002AAE70125002084E70024F40099
:102D0C0000127A0000093D00AAB0280080841E0041
:102D1C00006A18005558140040420F0020A107000B
:102D2C0090D0030048E8010024F400005515000081
:102D3C00CC0C0000AA0A000000FDFFFFFFFC0F00F6
:102D4C000000127A0000093D00AAB0280080841E01
:102D5C0000006A18005558140040420F0020A107CB
:102D6C000090D0030048E801000024F40055150041
:102D7C0000CC0C0000AA0A00002B21D0012B21D082
:102D8C00022B21D0032B21D0042B21D0052B21D0B9
:102D9C00062B21D0072B21D0082B21D0092B21D099
:102DAC000A2B21D00B3B1800431E9841904B4042FC
:102DBC001840904BC018636861685B0818187DE177
:102DCC008D48F8E78D48F6E78D48F4E78D48F2E733
:102DDC008D48F0E78D48EEE78D48ECE78D48EAE743
:102DEC008D48E8E78D48E6E78D48E4E7FFF7A4F85F
:102DFC0037E1002B18D0012B19D0022B1AD0032B42
:102E0C001BD0042B1BD0052B1CD0062B1CD08020D8
:102E1C00072B1BD0082B1BD0092B1BD00A2B1BD02C
:102E2C000B2B02D14000C6E780204002C3E7802074
:102E3C000002C0E78020C001BDE77A48BBE78020D4
:102E4C008001B8E77848B6E77848B4E74001B2E7C4
:102E5C000001B0E7C000AEE78000ACE70125002020
:102E6C0030E1082800D9C0E005F036F805BF3BBFBB
:102E7C0075BFBFBF7800FFF74BF8636A0121002BC9
:102E8C0021D04918012B1ED00231022B1BD002314C
:102E9C00032B18D00231042B15D00231052B12D084
:102EAC000231062B0FD00431072B0CD01031082B1C
:102EBC0009D02031092B06D040310A2B03D07F39A1
:102ECC000B2B00D1FF31656805F01AF829006B084F
:102EDC00C01805F015F8002580B20300544A103BC9
:102EEC0094E6002B21D0012B21D0022B21D0032BD7
:102EFC0021D0042B21D0052B21D0062B21D0072B40
:102F0C0021D0082B21D0092B21D00A2B21D00B3B0F
:102F1C001800431E9841474B40421840464BC0187E
:102F2C00636861685B081818D3E73448F8E73448DD
:102F3C00F6E73548F4E73648F2E73648F0E73F481D
:102F4C00EEE73F48ECE73448EAE73448E8E7344832
:102F5C00E6E72848E4E7FEF7EFFF8EE7002B18D0F2
:102F6C00012B18D0022B19D0032B1AD0042B1AD0FA
:102F7C00052B1BD0062B1BD08020072B1AD0082B1F
:102F8C001AD0092B1AD00A2B1AD00B2BC8D000023E
:102F9C00C6E78020FBE78020C001C1E780208001CC
:102FAC00BEE72848BCE780204001B9E72648B7E7D0
:102FBC002648B5E70001B3E7C000B1E78000AFE7F2
:102FCC004000ADE78021224B320089032000FDF741
:102FDC00F7F9002800D176E4032528000BB0F0BDEA
:102FEC0080231B02994200D138E70125002074E7A9
:102FFC00B85FE60148E801000048E8010024F4004D
:10300C0000127A005461510000093D0000D43000D8
:10301C00AAB0280080841E0040420F0020A10700A7
:10302C0090D00300AA2A0000981900005415000043
:10303C00EFFF0000DC2FF30024F40000006A1800FE
:10304C005558140055150000CC0C0000AA0A0000BD
:10305C00FFFFFF0180231B02994200D00BE7FEF714
:10306C0057FF636A0121002B21D04918012B1ED078
:10307C000231022B1BD00231032B18D00231042B4E
:10308C0015D00231052B12D00231062B0FD0043192
:10309C00072B0CD01031082B09D02031092B06D06E
:1030AC0040310A2B03D07F390B2B00D1FF3104F0B8
:1030BC0027FF6568400029006B08C01804F020FF4A
:1030CC00002580B20300084A103B934201D9FFF758
:1030DC008DFB0F2302009A43130000072268400F58
:1030EC001843D060FFF783FBEFFF0000F7B5284BC8
:1030FC00284C002523600C2326006361C0236060EC
:10310C009B0020007C36A361A560E5602561E5612C
:10311C0025626562A562FFF775FA3378012B17D02B
:10312C0024230121271DFB67236831701A682000B6
:10313C0001921A688A431A609A68D200D2089A607F
:10314C00FEF7FCF82368019A1A6020233570FB67A0
:10315C0025007C352B78012B16D024230121261D2C
:10316C00F367236829701F681A6820008A431A6065
:10317C009A6809490A409A60FEF7E0F823681F60D4
:10318C002023F36700232B702000FEF709F9F7BD0D
:10319C00003801406C050020FFFFFFF110B5041E44
:1031AC0021D08368002B1ED041719847237B002BC4
:1031BC0018D02000FEF7A8F8041E13D0FDF716FD5A
:1031CC00002803D0230001224A331A7020000F215B
:1031DC00FDF73BFD2000FDF709FD002802D001237F
:1031EC000634E38710BD044B84331B78002BF9D0D5
:1031FC00FDF7D0FEF6E7C0460C010020F7B5040041
:10320C0028200F000192FEF7F1FFC1B22000FFF75A
:10321C00C5FF2220FEF7EAFF012800D0D3E02230C0
:10322C00FEF7E4FF06002000FEF76EF80500FDF740
:10323C00DDFC002808D0032330002B7106F030F899
:10324C00704905F0DFFAA8602920FEF7CFFF81B2A4
:10325C002000FDF7CFFE3020FEF7C8FF0500200050
:10326C00FEF752F80600FDF7C1FC002801D0EDB2C4
:10327C00B5872520FEF7BAFF06002000FEF744F8BC
:10328C000500FDF7B3FC002800D0AE633320FEF739
:10329C00ADFF06002000FEF737F80500FDF7A6FC91
:1032AC00002803D0731E9E414E352E702000FEF771
:1032BC002BF80500FDF79AFC002806D0380005F025
:1032CC00EFFF504905F09EFA68622000FEF71CF8EB
:1032DC000500FDF78BFC002806D0019805F0E0FFF7
:1032EC00484905F08FFAA8622420FEF77FFF0600FC
:1032FC002000FEF709F80500FDF778FC002813D034
:10330C00300005F0CDFF3F4905F07CFA3E4905F051
:10331C0051FC011C3C4805F07FFDFC21890505F0A2
:10332C00D7F805F053FFE8873020FEF75FFF050064
:10333C002000FDF7E9FF0600FDF758FC002801D03E
:10334C00EDB2B5874020FEF751FF06002000FDF7D7
:10335C0031FE002807D025692800FDF747FC00281E
:10336C0001D060352E804120FEF740FF0600200082
:10337C00FDF720FE00280CD025692800FDF736FC4F
:10338C00002806D0300005F08BFF1E4905F03AFAF4
:10339C0068664220FEF72AFF06002000FDF756FD66
:1033AC00002827D0002E1DD0012E1BD0174B1A0041
:1033BC0084321278002A1DD088331B68144A1549B0
:1033CC000120984716E0022800D03DE72000FDF7C9
:1033DC009BFF0500FDF70AFC002800D134E7012310
:1033EC002B7131E725692800FDF700FC002801D07E
:1033FC006A352E702920FEF7F9FE81B22000FDF708
:10340C00F9FDF7BD00007A440000B0410C0100202A
:10341C00521B0108231A010870B50500FDF7B2FB19
:10342C00041E03D02A00002108F07AFE200070BD93
:10343C00242270B5FF3204000D0094201A49FFF7C6
:10344C00EBFF00236061984228D02800FDF732FC86
:10345C0020602800FDF7CAFB002802D02B004E3359
:10346C001878A0732800FDF71BFC43425841E07309
:10347C002800FDF70BFC012812D02800FDF7EFFB0C
:10348C00011C0A4805F0BEF9084905F021F804F0C2
:10349C0045FF074B20613433A3610123180070BD35
:1034AC00FA20C000F5E7C046771B01080000FA447B
:1034BC0060E80008F8B55F227F498C20FFF7ACFF6D
:1034CC00041E00D1F5E07D4B05000360032303715E
:1034DC007B4B002783607B4B1C3543615823056174
:1034EC0003830221FFF75AFE27732000FDF70CFF20
:1034FC000600B8420BD0FDF779FBB84201D04A3632
:10350C003770A368002B02D06179200098472800FF
:10351C00FDF76CFB002801D06B4B23642800FDF7F2
:10352C0065FB002801D0694B63642800FDF75EFB46
:10353C00002803D0230006224E331A702800FDF712
:10354C0055FB002801D00123A3622800FDF74EFB98
:10355C00002802D00122631CDA772800FDF746FB15
:10356C00002801D0022363652800FDF73FFB0028EB
:10357C0003D02300002248331A702800FDF736FBD5
:10358C00002803D0230010227C331A802800FDF77A
:10359C002DFB002802D00022231DDA672800FDF73E
:1035AC0025FB002803D02300002262331A70280068
:1035BC00FDF71CFB002803D02300002263331A7094
:1035CC002800FDF713FB002803D0230000226433EE
:1035DC001A702800FDF70AFB002807D023000022F0
:1035EC006B335A701A70013340325A802800FDF741
:1035FC00FDFA002803D02300FF2272331A80280022
:10360C00FDF7F4FA002803D02300002274331A705B
:10361C002800FDF7EBFA002804D0230000227633B3
:10362C001A70A2672800FDF7E1FA002803D02300E6
:10363C00012284331A802800FDF7D8FA002803D021
:10364C002300012286331A702800FDF7CFFA0028D8
:10365C0003D023000B225A331A802800FDF7C6FA38
:10366C00002803D023000A2258331A802800FDF7C3
:10367C00BDFA002803D02300002265331A702800FD
:10368C00FDF7B4FA002803D0230001226A331A7024
:10369C002800FDF7ABFA002804D080222300520149
:1036AC0070331A802800FDF7A1FA002801D0084BCE
:1036BC00E3612000F8BDC046911B0108D79DC0AC4A
:1036CC00950E000861390008CDCC4C3E9A99993E74
:1036DC003D340008F7B5304D04002F003C373E78E0
:1036EC00002E4BD0FDF766FC002801D1002743E0EB
:1036FC002369DE682A2E08D9284B294A88331C688E
:10370C0028492A230020A047F0E77B78002B02D120
:10371C002B6C002B29D1238B0193204B1A00843264
:10372C001278032A06D988331F681F4A33001D49B3
:10373C000420B847BD221D490198FFF76DFE071EF6
:10374C00D4D01B4B466003602B6C2100436563692E
:10375C002864984700280DD1FB68002B01D0380055
:10376C0098473800FDF7DCFBC0E75A6896420DD04D
:10377C005B6DCEE701237B723800FEBD074B0D4A13
:10378C0088331B68074900209847AFE7034B0A4A68
:10379C0088331B68F6E7C0468C0100200C01002022
:1037AC00A61B0108531A0108BF1B0108DE1B0108E8
:1037BC00E89EC0ACC21A0108F41B0108F0B5446FB6
:1037CC008BB00500002C4BD0836E5A4A1A60836D67
:1037DC00A2691A60C36C0293030070331B880393B5
:1037EC00A36900936378002B00D096E023780193B3
:1037FC00022B42D12000FDF7A9FA002829D0200085
:10380C00102200210830A66B08F08AFC2000236BE4
:10381C003100DB6A06AA1830984706AB1B88E060BB
:10382C000493638106AA927806A92272C97806AE1F
:10383C006172377B089B277436799C46667463618A
:10384C00002800D06EE03C4B3C4A88331B683C4956
:10385C009847394B3B4A88331B683B4900209847B3
:10386C002B000122F0331B6828005A710022BC3552
:10387C005A619A71B8302B6845E0019B012BBED17F
:10388C002D4B5B6F002BBAD000989847B7E7039B82
:10389C000498834202D0E421490048E04823059271
:1038AC00009A04915343294A483B926BD3181A004F
:1038BC004232167062465A64019B022B26D1009844
:1038CC00FDF77CF90023E3706378002B05D1039B93
:1038DC00029A00990220FDF73FF92B0070331B88E8
:1038EC00EA6D5B0013602B6E059A1A706B6E049A6E
:1038FC001A700123002E00D13B000122A86B13404B
:10390C00EA6E1370436898470BB0F0BD019B012B16
:10391C00DAD12000FDF740FAD6E7002637000496EE
:10392C000596D1E7029B8342B1D0C821FF310848EC
:10393C00FDF7CAF93C5C64510C0100201B1C01080A
:10394C00AC190108481C0108651C01088C010020F9
:10395C00331C0108F0B5CBB027AC0B908C222000A7
:10396C000D000AF093FE2000FDF724FB002801D186
:10397C00002425E06379013B042B07D9BE4BBF4AD9
:10398C0088331B68BE4900209847F1E72EA8FDF745
:10399C002DF90028ECD0666D042E05D9B64BB94A2A
:1039AC0088331B68B849EEE7042E16D1B24B1C6F56
:1039BC00002C08D188331B68B44AB34920009847BF
:1039CC0020004BB0F0BD6D220CA95218D27F032AF7
:1039DC0003D188331B68AE4AE4E7C6230CAA9B18B4
:1039EC001B88162B04D9A44BAA4A88331B68D9E729
:1039FC003DAB1B88013B3E2B04D99F4BA64A883319
:103A0C001B68CFE76D230CAA9B18DB7F002E06D119
:103A1C00032B11D1984BA14A88331B68C2E7032BA7
:103A2C000AD1D3330CAA9B181C78002C04D1924BCE
:103A3C009B4A88331B68C0E704239E4304D10CAA1D
:103A4C00D2339B1801221A70BA230CAA9B181B782C
:103A5C00062B06D0092B04D0874B924A88331B685F
:103A6C00A0E748AB1C88002C05D1834B8E4A8833C9
:103A7C001B688E49A2E7F2230CAA9B181B78012B1A
:103A8C0009D146AB1B88402B05D97B4B884A883320
:103A9C001B68864977E72B790B9A864C13722100A9
:103AAC00EC221020FFF7B8FC0A909020ED222100A8
:103ABC004000FFF7B1FC0A9B0700002B01D0002847
:103ACC0008D10A98FDF757F83800FDF754F8002391
:103ADC000A939EE00A9B342218600B9B002118333A
:103AEC0043670B981C3008F01BFB2EA8FDF7E2F87F
:103AFC0005002EA8FDF77AF80023984203D0CA33AC
:103B0C000CAA9B181B8816AC2EA82380FDF76EF808
:103B1C000023984201D03EAB1B882EA86380FDF792
:103B2C0065F80023984201D03FAB1B882EA8A380D8
:103B3C00FDF75CF8002801D040AB18783B00183337
:103B4C001093E43329000C93E0800423220012200C
:103B5C00FDF702F80B9E202230360021300008F0D1
:103B6C00DFFA2EA930002E9B9847051E19D01FACEA
:103B7C0020220021200008F0D3FA1C22002118A8D2
:103B8C0008F0CEFA0B9B22009B6C2EA91D6830000E
:103B9C0018ABA847051E47D10B9B30009B6C5B6B89
:103BAC0098472EA8FDF77CF80223002803D00123A8
:103BBC00042800D000230B9A2EA81376FDF766F884
:103BCC00434258410B9B58762EA8FDF70FF800285E
:103BDC0003D0D6230CAA9B1818780B9B3E00987622
:103BEC002EA8FDF767F805221FAB1A700232209041
:103BFC002192180015320C99FCF794FF3B00FC360F
:103C0C00728970331A80002D5AD10A98FDF776F814
:103C1C000A950B9B0A9A0A9C1A61274B0B9AD36044
:103C2C00631E9C41E4B2CBE6109B07CC07C307CCC8
:103C3C0007C306CC06C31C2218A90C980AF026FD53
:103C4C002EA8FDF723F8012812D02EA8FDF707F8AF
:103C5C00011C1A4804F0D6FD184904F039FC04F094
:103C6C005DFB0B9B0B9AD86100235362538498E73E
:103C7C00FA20C000F5E7C0460C0100207C1C0108AE
:103C8C0036290108941C010859190108AC1C0108BB
:103C9C00EB1C01082D1D0108611D0108B31D010855
:103CAC00EF1D01082F1E0108431E0108231A0108ED
:103CBC00731E01089E1E0108DF0E00080000FA4466
:103CCC00F389B5899B185B006D009D4200D21D00E5
:103CDC002EA8FCF78BFF0024A04201D043AB1C881C
:103CEC00AC4200D22C009822CE4952002000FCF7A6
:103CFC0049FF051EF06188D03B00BA1D34623A665C
:103D0C00FA1D7A660532BA66043AFA6614338032C2
:103D1C00FB65F864BF65391D5361B43310605160A5
:103D2C0018609F6250331193BF4B1A008432127883
:103D3C00012A61D82EA87C6FFCF7BCFF0C902EA832
:103D4C00FCF754FF00230E93984202D041AB1B8822
:103D5C000E9348230C9AB54E5343483B0D930D9A42
:103D6C00B36B00219B181A0042321170B049596490
:103D7C001199A1631900413109780F91002900D0E4
:103D8C00D7E01170AA4A0C985A64FCF71FFF236BFA
:103D9C00A0695B689847051E00D1AFE00C990B2019
:103DAC00FCF7CEFE0C220F991FA808F0B9F92000E1
:103DBC009F4B0D9A2093B36B11999A18236B183063
:103DCC00DD681FABA847051E00D1AAE00D9AB36BA6
:103DDC009B18012241331A70944B0D9A9B6B9B18C4
:103DEC0019001FAA1078209A423108705A640C9955
:103DFC000C20FCF7A5FE88E088331B682EA81393D3
:103E0C00FCF758FF14902EA8FCF7F0FE0025A842F2
:103E1C0001D03DAB1D782EA8FCF7E8FE00231293D1
:103E2C00984204D0C6330CAA9B181B8812932EA858
:103E3C00FCF7DCFE00230F93984202D03EAB1B88AC
:103E4C000F932EA8FCF7D2FE00230E93984204D0B9
:103E5C00CA330CAA9B181B880E932EA8FCF7C6FE1F
:103E6C0000230D93984202D03FAB1B880D932EA8D4
:103E7C00FCF716FF6F4B0C93042804D86E4B800094
:103E8C001818C36E0C932EA8FCF7B0FE6B4E0028CE
:103E9C0009D0F2230CAA9B181B78002B03D0684E78
:103EAC00012B00D0634E2EA8FCF7A0FE041E03D0FD
:103EBC00CF230CAA9B181C782EA8FCF7B1FE1590EA
:103ECC002EA8FCF793FE002801D040AB1878159B68
:103EDC00099008930C9B079405930D9B06960493ED
:103EEC000E9B009503930F9B564A0293129B5649C7
:103EFC0001930220149B139CA0471BE74A4B534A87
:103F0C0088331E6852490C9BB0470C98FCF756FE40
:103F1C00002D0ED1201DFCF7E9FE0A98FCF7EEFEF1
:103F2C00D5E5414B4B4A88331E6849490C9BB04739
:103F3C0052E70E9B002B71D12EA8FCF757FE0028E0
:103F4C0029D0D1230CAA9B181B78002B23D03B0023
:103F5C00A6692C3330000D93FCF738FEA36B482177
:103F6C000E932300714318330F93304B48399B6BDE
:103F7C00E06A5918236B9B689847051E06D0236B83
:103F8C000D9A1B690E990F98984705003000FCF7A5
:103F9C0015FE002DBED00E231FA803700C9B2022F3
:103FAC004360072310998360FCF7BCFD3B0038008D
:103FBC00294AB0331A60294A78305A60284B294A6A
:103FCC00FB673B1DDA67284A0433DA67274AB033AC
:103FDC001A64274A5A60274A9A60274ADA60B863FB
:103FEC00BB67FCF779FC041E0DD0B86BF437C368C3
:103FFC0098470B9B0A9A3B60204B5360204B936075
:10400C00204BD36005E6084B1F4A88331B681F49B9
:10401C0098470A98FCF772FE0A94FAE50E9BBB854A
:10402C00B9E7C0469E1E01080C0100208C0100203F
:10403C00000080FF472D010860E800087A1C010889
:10404C009C1E0108B41E010859190108EC1E010838
:10405C00AC190108271F010800004040BD090008E9
:10406C0047090008E50800083D09000869420008F6
:10407C00CF0800085D080008CD080008C937000803
:10408C0041420008090D00084A1F01086A1F010877
:10409C00F0B5861887B00F0015003100042205A872
:1040AC0003930AF0F3FA059B144A1CBA0F239C43A2
:1040BC001300039984331B78002913D03C43032B42
:1040CC0007D9883200971768AB080D4A0D490420B0
:1040DC00B84724BA042205A9300005940AF0D6FA90
:1040EC0007B0F0BD032BF4D988320097AB08054913
:1040FC0015680420044AA847EBE7C0460C010020D1
:10410C007A1F0108B01F0108BC1F0108F0B589B067
:10411C001E000EAB1C88404B05921A000290843294
:10412C0012780D00032A08D90F9A883300921F6861
:10413C003A4A23003A490420B847E40036190024CF
:10414C007388A34201D809B0F0BD0621614373689E
:10415C0059180878002803D0022815D88A8800E05E
:10416C004A88304B9A4216D0AA4214D3059BEB18BE
:10417C009A4210DA012844D000280ED002280AD125
:10418C000F9B584243413FE0234B274A88331B681F
:10419C002349002098470134D2E7521B93B20A7985
:1041AC00039201224F790F99BA4091420DD3013AF3
:1041BC00019219490F9A883100920C681B4A1849D0
:1041CC00A04739211A48FCF77FFD029A07A8D3189B
:1041DC001900042204930AF059FA2022D71B213A21
:1041EC00FA400399079B8A401BBA93430F9A049891
:1041FC008A4013431BBA042207A907930AF046FA14
:10420C00C9E70F9B581E8341521BDBB292B24988FF
:10421C000298FFF73DFFBEE70C0100209720010834
:10422C00B01F0108FFFF0000EE1F01081B20010852
:10423C005220010870B504001500C06C0AF026FA73
:10424C00E36D054A1D60A36EA06B1A600022A36D7E
:10425C001A604368984770BD3C5C6451F7B5030025
:10426C000C794E79887901AD6C702E70A8705469F8
:10427C00002E0BD1A27E002A11D0E7684A69606833
:10428C00BA4200D93A0019000AF000FA20696676A1
:10429C00002803D0626929000AF0F8F9F7BDA2687A
:1042AC001360F3E7A02330B504000A20DB0185B0CE
:1042BC00194302AD12BA49BA01922980042201A90C
:1042CC0068440AF0E3F9062229002000FCF76EFC92
:1042DC0005B030BDF0B587B01E000CAB1B780700E5
:1042EC0003939300C918150005A804220AF0CEF90F
:1042FC00059B03991CBA0F239C43114B1A00843263
:10430C001278002911D03443032A07D98833009638
:10431C001E680C4A2B000C490420B04722002900CF
:10432C003800FFF7BFFF07B0F0BD032AF6D988337A
:10433C001E68064A2B0004490420B047EEE7C0462D
:10434C000C0100207A1F0108B01F0108642001082D
:10435C00F0B51C00494B15001A008BB00591843246
:10436C0012780600032A08D9109A883300921F6825
:10437C00434A230043490420B8470023E4002D1985
:10438C0002936B88029A9A4201D30BB0F0BD0622BD
:10439C00029B5A436B689A18107801285AD000284F
:1043AC000AD0022862D0354B364988331B68364A0E
:1043BC0000209847E12117E013795488039353792F
:1043CC00A40804930123049A9340109A9A420ED3A2
:1043DC00013B0193294A109B8832009315682949A7
:1043EC0023002A4AA84729212948FCF76DFC294BB0
:1043FC0007AF23435BBA3B8080235B0001007B80CB
:10440C00B880EE3B04A81B181800042207F088FEA5
:10441C000A2239003000FCF7C9FB122304A95B18EF
:10442C001900042206A80AF031F92021069B30005D
:10443C001ABA049BC91A01235B42CB4003998B40E7
:10444C009A43109B8B4021001A43FFF72BFF029BD2
:10445C00013395E710995388481E81419288920840
:10446C00009130000599FFF735FFF0E7538810995C
:10447C009288484241419208F2E7C0460C01002064
:10448C0093200108B01F0108ED200108B520010898
:10449C005220010800A0FFFF37B5456901242B000D
:1044AC0092331B7819432B6C4C405A4253418B422C
:1044BC0006D00094E523044A04490068FFF748FF3E
:1044CC002C6401203EBDC04600F5000820090108FF
:1044DC00F0B52A4B89B09B6D05905B08033B0291AC
:1044EC0016000021062206A8009307F019FE0023EF
:1044FC00029C0193002E03D10298063009B0F0BD46
:10450C00009DB54200D93500009BB34202D2012375
:10451C001D422BD1019A1A4BEF1C13435BBA23801B
:10452C00ABB20393013B5BBA63800023A3807B0097
:10453C001A00210005980493FCF738FB2300013F77
:10454C0016D206A9062220000AF0A0F8039A019BB5
:10455C00944663449BB20193049B0622063BE418E9
:10456C00210006A8761B0AF091F8C3E7013DCEE7BF
:10457C001A8852BA1A800233E1E7C0460C010020B7
:10458C000080FFFF802307B55B010B435BBA01A9D9
:10459C0052BA4A800B800422FCF708FB07BDC023EB
:1045AC0013B59B0119436B4649BA140019806A462E
:1045BC0000236946538093800622FCF7F7FA6B467A
:1045CC009B885BBA238013BDF8B507000D001E0055
:1045DC00013A94B264008A1CA4182988320038006D
:1045EC000235FFF7DCFF0236A542F6D1F8BDF0B577
:1045FC00040099B0FCF70AFA631E0B900A93292B5E
:10460C0004D8184B621E9B1801221A730122B22186
:10461C002000FFF7B7FF0023642710AD2B8020008C
:10462C002A001121FFF7BBFF80232E88DB0020001E
:10463C001E421FD0FCF7EAF900280DD00A4A1300DD
:10464C0084331B78012B07D9B305883216689B0D70
:10465C00064A07490220B047013FBFB2002FDED106
:10466C001AE0C0468C0100200C0100201F2101081B
:10467C0036210108FCF7CAF900280DD0D14A1300E5
:10468C0084331B78012B07D98832B30517689B0D2F
:10469C00CD4ACE490220B84700260DAA3100200091
:1046AC001680FFF77CFF262204ABD2182A212000AB
:1046BC001680FFF774FF0EAA282120001680FFF742
:1046CC006EFF20002B001022C149FFF77DFF200058
:1046DC00FCF79CF9B0421AD0BA4A130084331B7809
:1046EC00012B14D9E9892B880691A9898832059167
:1046FC0069890220049129890391E9880291A9888A
:10470C000191698800911568B049B24AA847200008
:10471C00FCF77CF900281BD0AA490B0084331B78CA
:10472C00012B15D910AAD08B138A0690908B883147
:10473C000590508B0490108B0390D08A0290908A35
:10474C000190528A022000920D68A34A9F49A84703
:10475C009F4910AD20002B0004222031FFF734FFBD
:10476C002000FCF753F9002812D0964A130084332A
:10477C001B78012B0CD9E9882B880291A9888832E7
:10478C00019169880220009115689049934AA847C5
:10479C002A22002604ABD2185321200010AD16801B
:1047AC00FFF7FDFE20002A0040212E80FFF7F7FEC8
:1047BC002000FCF72BF9B0420CD0824A1300843352
:1047CC001B78012B06D9883216682B88844A7F49BE
:1047DC000220B0472000FCF719F900281DD07949B8
:1047EC000B0084331B78012B17D904202A888023D3
:1047FC0010400490082010400390102010400290AC
:10480C00202010400190402013400240883100923B
:10481C000D68744A6D493E38A8476D4910AF3B008E
:10482C00102228312000FFF7CFFE2000FCF7EEF815
:10483C000025A8420DD0634A130084331B78012B4A
:10484C0007D9883215683B88674A60490220A84717
:10485C0001252000FCF7DAF8002810D0594A130083
:10486C0084331B78012B0AD96E1C88326D007B5B5C
:10487C00F6B2156855495D4A0220A8473500012358
:10488C0009932000FCF7C2F8002816D04D4B1A00F3
:10489C0084321278012A10D988331A006B1C10A9A3
:1048AC005B005B5A022001936B005B5A47490093F3
:1048BC0013684F4A1E00099BB047099B0235013310
:1048CC00EDB20993082BDCD100250FAE32009D21EF
:1048DC0020003580FFF763FE2E2204ABD2189921FD
:1048EC0020001580FFF75BFE3A00962120003D80EA
:1048FC00FFF755FE20002A00B221FFF743FE2000EF
:10490C00FCF784F8A84215D02E4A130084331B7888
:10491C00012B0FD90EA909880DAB1B8801912621FB
:10492C0004A8091809888832009115682749314A6A
:10493C000220A8472000FCF769F800280FD0214A74
:10494C00130084331B78012B09D92A2304A95B1883
:10495C00883215681B88284A1C490220A847200069
:10496C00FCF754F800280CD0164A130084331B783B
:10497C00012B06D9883215683388204A1349022046
:10498C00A8472000FCF742F800280FD00D4A13006E
:10499C0084331B78012B09D92E2304A95B18883288
:1049AC0015681B88164A09490220A8472000FCF705
:1049BC002DF800282ED0034A130084331B78012BCA
:1049CC0028D91FE00C0100204921010836210108DB
:1049DC00E0E8000860210108A1210108E421010898
:1049EC000F22010826220108A3220108C422010873
:1049FC00DC220108FE220108492301086623010874
:104A0C007C230108883210AB14681B88064A0749BE
:104A1C000220A0470A9B292B04D80A9A044B9B1806
:104A2C000B9A1A7319B0F0BD8C23010836210108BA
:104A3C008C0100206523F0B5050089B00591049226
:104A4C000393494C05992800A36F9847061E0BD178
:104A5C00883424682B00454A4549A0472800FFF7B5
:104A6C00C6FD300009B0F0BD0E2704ABFF180023C3
:104A7C003A002A2128003B80FFF791FD40223B8819
:104A8C00134252D03A0028212800FFF788FD3A88BB
:104A9C000499D3B20B704A800B2B3BD8180003F04F
:104AAC0011FA061BE0E0E0E0E0E0E0E0E0E02E4B95
:104ABC00304A88331C682B002D490020A047280061
:104ACC00FFF795FD284B2C4A88331C6828492B008E
:104ADC000020A0470026C4E7110A102904D801239E
:104AEC008B4026490B4205D18423D2B29B011A4339
:104AFC00049B5A801C4B88331C68049B5A88204B9F
:104B0C00120A013AD2B2202A02D81E4B9200D35874
:104B1C001D4AD1E7009588341C4A246814490020AA
:104B2C00A0470022049B1A70C9E7230084331B782A
:104B3C00002B07D0230088331E68154A2B000C4924
:104B4C000120B047039B013B9BB20393002B00D089
:104B5C0077E700958834246864330E4A0449039837
:104B6C00A047039E7DE7C0460C010020AE23010840
:104B7C00D6230108E6230108582401081600010079
:104B8C00A0230108B8FD0008092401082924010804
:104B9C0080240108A1240108F0B585B003AC1700EE
:104BAC0022000600FFF746FF051E35D022786388E9
:104BBC00062A27D11A0525D58022D20013402ED1E2
:104BCC00002F00D03B706388DB050BD5174B1A0008
:104BDC0084321278032A05D988331B68144A154984
:104BEC000420984763889B0516D5104B1A00843215
:104BFC001278032A10D988331B680F4A0D490420F8
:104C0C00984709E0094A00938832146833000B4A2C
:104C1C0008490020A0470025280005B0F0BD310050
:104C2C000F20FBF78DFF2B00CAE7C0460C010020BC
:104C3C000A250108D623010823250108DA240108D6
:104C4C0030B50E25002485B06D4421002A002C803F
:104C5C00FFF7A5FC2988074B0120994208D0064A8A
:104C6C000091883215682000044A0549A8472000A5
:104C7C0005B030BD121100000C0100203B250108CD
:104C8C00D623010873B56B469C1D002322003821E6
:104C9C0005002380FFF783FC24880120002C0BD116
:104CAC00064B074A88331E6806492B002000B04784
:104CBC002800FFF79CFC200076BDC0460C010020AC
:104CCC0069250108D6230108F0B585B003AE15009F
:104CDC00320004001F00FFF7ADFE00280ED0317823
:104CEC00A9420DD0094A0A4B0091019588321468EB
:104CFC0000204833074A0849A047002005B0F0BD02
:104D0C00002FFBD02000FFF7BDFFF7E70C010020C0
:104D1C00E0E800089A250108D623010810B5012304
:104D2C000B22FFF7D1FF10BD13B56B469C1D002362
:104D3C00220011212380FFF732FC20884005C00F90
:104D4C0016BDF7B52E4E0400B06D904200D9100080
:104D5C0002311960032302389843089B2A211860FA
:104D6C006B469D1D00232A0020002B80FFF717FCAB
:104D7C002B885B060FD5330084331B78002B07D0B0
:104D8C00330088331F681F4A23001F490120B8478E
:104D9C002000FFF72CFC2000FFF7C6FF00280BD0EB
:104DAC0088362300194A184900203568A847200086
:104DBC00FFF71DFC0020FEBD2A0080212000FFF71C
:104DCC00EEFB02222B88802193431A432000FFF72D
:104DDC00D9FB2A0080212000FFF7E1FB80212A88E3
:104DEC0020008A43FFF7CEFB012205212000FFF7AC
:104DFC00C9FB200003227A21FFF7C4FB0120DAE76C
:104E0C000C010020C5250108D6230108F125010855
:104E1C0070B504000D00FFF787FF021E0CD00D4B80
:104E2C000D4A88331D680D4923000020A847200037
:104E3C00FFF7DDFB002070BD10212000FFF7A2FB67
:104E4C008022D20020002A431021FFF79BFB012077
:104E5C00F1E7C0460C01002020260108D6230108EA
:104E6C0070B515009A1C0A4B9C6DA24206D988336A
:104E7C001B68084A08490020984770BDA024E4012B
:104E8C000C4364BA2C802900FBF790FEF5E7C04672
:104E9C000C0100204F2601086F260108F0B5476968
:104EAC0095B0FB6F05900A933B000833DB6F0B93B7
:104EBC003B6C0D930B9B002B04D00A9B002B01D059
:104ECC0000233B64059B11AC1B68002508930B6801
:104EDC004E680C9315232370089B20001293072314
:104EEC008C2239001393FBF71DFE009410AB32009B
:104EFC000C99089810951195FFF723FF0495040061
:104F0C00A8420FD1044B054A88331B6804499847C3
:104F1C00200015B0F0BDC0460C0100207926010818
:104F2C00F9190108E123049A1B019B1A119A109E8E
:104F3C0007929A4200D90793049BFB49079A591888
:104F4C00300009F0A3FB6B461D8A9B8BF74C039337
:104F5C003B68039A0193C923290000933000230076
:104F6C00FFF7D4F87B68039A0193C72329000093B9
:104F7C0030002300FFF7CAF8BB68039A0193C823DB
:104F8C002900009330002300FFF7C0F8BB89039A77
:104F9C000193C5232900009330002300FFF7B6F8D6
:104FAC003B69039A0193632329000093300023008B
:104FBC00FFF7ACF87B69039A0193E6232900009371
:104FCC0030002300FFF7A2F87B6A039A0193DE23DB
:104FDC002900009330002300FFF798F8BB6A039A6E
:104FEC000193F2232900009330002300FFF78EF881
:104FFC00FB6A039A0193D723290000933000230006
:10500C00FFF784F83B6B039A0193D8232900009394
:10501C0030002300FFF77AF87B6B039A01937C2313
:10502C002900009330002300FFF770F8BB6B039A44
:10503C0001937D232900009330002300FFF766F8CD
:10504C00FB6B039A01937B23290000933000230010
:10505C00FFF75CF80023039A0193009329002300C7
:10506C003000FFF753F83B6C039A0193E5232900BA
:10507C00009330002300FFF749F87B6C039A0193EF
:10508C00CD232900009330002300FFF73FF8BB6CC1
:10509C00039A019377232900009330002300FFF734
:1050AC0035F8BB6C002B6DD0012301930D330093AD
:1050BC00039A230029003000FFF728F89C4B039A31
:1050CC00019310232900009330002300FFF71EF8F2
:1050DC003F2301932D3B0093039A230029003000BA
:1050EC00FFF714F80F23924A009301922300039ABE
:1050FC0029003000FFF70AF80022112301920093D7
:10510C00039A230029003000FFF700F8894B039A1B
:10511C00019313232900009330002300FEF7F6FFC0
:10512C003F2301932B3B0093039A2300290030006B
:10513C00FEF7ECFF804B039A01930C23290000939C
:10514C0030002300FEF7E2FF3F230193323B009334
:10515C00039A230029003000FEF7D8FF774B039AFF
:10516C00019315232900009330002300FEF7CEFF96
:10517C003F230193293B0093039A2300290030001D
:10518C00FEF7C4FFFB6C694C01938023039A0093D8
:10519C00290023003000FEF7B9FF3B6D039A019301
:1051AC00CA232900009330002300FEF7AFFF7B6D6C
:1051BC00039A0193E9232900009330002300FEF7A2
:1051CC00A5FFBB6D039A01937E2329000093300049
:1051DC002300FEF79BFFFB6D9AB209920022069208
:1051EC009AB2082A14D91300FF22083B9A401300E4
:1051FC00FF2293439BB2069302230193D733009370
:10520C00039A230029003000FEF780FF082309933E
:10521C00099B464C0193DF23039A0093290023003A
:10522C003000FEF773FF099B039A0193D0232900EA
:10523C00009330002300FEF769FF8023069A2900B3
:10524C0013430E930193E123039A00933000230040
:10525C00FEF75CFFC023069A29001A43E3230F9242
:10526C0001920093039A23003000FEF74FFFFF23B7
:10527C00069A2900134309930193E223039A00939E
:10528C0030002300FEF742FF0E9B039A0193D223BA
:10529C002900009330002300FEF738FF0F9B039A80
:1052AC000193D4232900009330002300FEF72EFF36
:1052BC00099B039A0193D323290000933000230008
:1052CC00FEF724FFF023069A29001A43C423069202
:1052DC0001920093039A23003000FEF717FF069B00
:1052EC00039A01937F232900009330002300FEF7DB
:1052FC000DFF099B039A0193202329000093300092
:10530C002300FEF703FFBB6F039A013B019372234B
:10531C002900009330002300FEF7F8FEBB6E039AC1
:10532C00019373230CE0C0462009010800F5000826
:10533C0080FF0000C0FF0000F0FF0000FFFF000036
:10534C002900009330002300FEF7E0FEFB6E039A69
:10535C000E330193D5232900009330002300FEF770
:10536C00D5FE3B0070331B780693069ACE23002A99
:10537C0000D08FE0013201920093039A23002900A0
:10538C003000FEF7C3FE069B039A0193CF2329003E
:10539C00009330002300FEF7B9FE3B6E039A013BED
:1053AC000193DA232900009330002300FEF7AEFEB0
:1053BC00FB6F039A0193CB232900009330006B4BB6
:1053CC00FEF7A4FE7B6F039A0193742329000093CC
:1053DC003000664BFEF79AFE3B1DD86F644903F014
:1053EC00E9FB02F09BFF3C00DB23013880B201900B
:1053FC000093039A5D4B290030000834FEF786FEBB
:10540C00E36F039A0193CC23290000933000574B90
:10541C00FEF77CFEE36F002B0BD03B0088331B6840
:10542C00039A01936F232900009330004F4BFEF732
:10543C006DFE049B0C9A990889B2079B0898FFF79C
:10544C000FFD119A049B944663440493049A494BB0
:10545C009A4200D866E5EE21059BFF311868FFF7EC
:10546C00D7FC041E00D153E50A9B002B00D14FE55D
:10547C00059B11AA1E6819693000FFF7DBFA3E4B39
:10548C00051E4BD188331C683C4A33003C49A0476D
:10549C002C003DE50022009301922300039A290081
:1054AC003000FEF733FE01230193CE330093039AB1
:1054BC00230029003000FEF729FEBB6E01330E934A
:1054CC0000231C0006933B6E6200099363000F934C
:1054DC00099B29009C429B415B420193294B300064
:1054EC009B5A039A0093214BFEF710FE099B9C429A
:1054FC000BD2069B62000193234B29009B5A300070
:10550C000093039A194BFEF701FE0E9A069B9446E4
:10551C00013463440693402CD5D149E70EAAD289B5
:10552C00062A09D0009288331C68184A33001449A3
:10553C000020A0470024EBE41A0084321278012AE0
:10554C0005D988331B68124A1249022098470B9BD5
:10555C00002B00D1DCE40D9B05983B640093034ABF
:10556C00E5230D490068FEF7F3FE91E700F500080E
:10557C0017B751370F0E00000C01002096260108BA
:10558C00D623010880F4000800F40008C82601089E
:10559C0002270108F919010820090108F0B597B094
:1055AC000E000D920768FBF719FB13AD1290290042
:1055BC0012A8FBF737FA041E21D06B88380005932C
:1055CC00AB880693EB8807932B89002508933368E7
:1055DC0011950993736809990E9312AB00930E9A67
:1055EC0011AB1295FFF7ADFB2E000400A84209D1B8
:1055FC00BE4BBF4A88331B682000BE499847200029
:10560C0017B0F0BDBC4B129A119C9B1B04929A4292
:10561C0000D90493B94B049AF118200009F036F81C
:10562C006B461B8AB64D0393059BB1B201931B23AA
:10563C00039A009320002B00FEF768FD069BB1B285
:10564C0001931923039A009320002B00FEF75EFDB3
:10565C00079BB1B201931A23039A009320002B00ED
:10566C00FEF754FD089BB1B201931723039A0093E4
:10567C0020002B00FEF74AFD102301930023B1B24A
:10568C000093039A2B002000FEF740FDB108049B09
:10569C0089B2099A3800FFF7E3FB129BF618994B75
:1056AC009E42AFD918213800FFF7B2FB041E04D17B
:1056BC008E4B954A88331B689EE7FA210023032200
:1056CC00C9003800FFF700FB00284CD012AC2200B8
:1056DC009D213800FEF763FF072223880620134024
:1056EC002380220001233900FBF736FA3800FFF73C
:1056FC00C9FA002837D0238838000B93C0239B00AD
:10570C002380FFF711FB041E36D10B9B2A0000935C
:10571C007A4911233800FEF71BFE009401232A005E
:10572C0076493800FEF714FE0A940A9A12ABD35C41
:10573C0072490493009338001F23714AFEF708FE48
:10574C00E82138004900FFF763FB00281CD1674BA8
:10575C006E4A88331C686749049BA047634B6C4AAC
:10576C0088331B6803E0614B6A4A88331B686149C4
:10577C0000209847002442E75C4B674A88331C683A
:10578C003B005C490020E8E7FA2100230922C9000C
:10579C003800FFF799FA002809D00E9B252B0CD85E
:1057AC00524B5E4A88331B685249002098474F4B36
:1057BC005B4A88331C68049BE3E710220999380084
:1057CC00FEF786FE10230590020039000020FBF73F
:1057DC00C3F93800FFF756FA0028E8D0059B0022E1
:1057EC001C0008921E340C925A880C99188889183F
:1057FC000C91111A824200D2811A089A8A4200D264
:10580C00089102339C42EFD13800FBF7FFF80028D7
:10581C000BD0364B1A0084321278012A05D9883302
:10582C001B68404A3349022098473800FBF7EEF8D2
:10583C00002800D186E0B0223B496020FBF7A2F99A
:10584C000390002800D17DE000242600002E00D11A
:10585C00CBE05F2C2ED82C22631C0793039B1A558C
:10586C006024079BA34225D00025059A7300D35AC8
:10587C00079A0693039B9C1806980A2102F0C6FB14
:10588C0030316B1C615506980A210F9302F038FBDE
:10589C0083B20693002B20D1069A6B1CE254230092
:1058AC006A086519191B914219D90F9A079B9446DE
:1058BC0063441C00731C0F2E3CD10C4B1A00843219
:1058CC001278012A3BD988331C68184A039B184963
:1058DC000220A04733E00794C6E70F9DCCE7197868
:1058EC002878013D187069700133DBE70C0100204A
:1058FC002627010867270108E40A00003CFE00087F
:10590C00D8F20008E30A00008627010801280108E4
:10591C00CB280108B8270108D02701084128010825
:10592C00A0280108592801086F280108262401081D
:10593C00362101081E00102B88D1002CBDD10398F4
:10594C00FBF719F9059B00241D880C9BED18294BBE
:10595C002D09EA18284B9A4205D8C823089A9B00AF
:10596C0093426441E4B23800FBF750F800280ED0A3
:10597C00224B1A0084321278012A08D9089A8833EB
:10598C0000921E681E4A2B001E490220B047002CB4
:10599C001AD01A4B1A0084321278012A1BD80D9B8C
:1059AC000B9A9A80049ADA8006230D9A1360134B93
:1059BC001A0084321278012A00D820E688331B683A
:1059CC00114A1249022019E60A9B012B00D1C5E6A7
:1059DC0001230A93A9E6049A883300921D680C4AA5
:1059EC000B9B08490220A847D9E75F2C00D872E727
:1059FC0001262BE7E886FFFFB80B00000C01002006
:105A0C008828010867270108F5280108F9190108F9
:105A1C00E22801080023F0B5140005008FB00191B5
:105A2C0008A9CB7108A99370D370138013731371E9
:105A3C008B713E4A0168A2600291817B0391C17B0C
:105A4C0005918189009304910169079206916B4637
:105A5C00049A1B889A4258D9039B002B0CD008AB94
:105A6C00DE1DAB6932009B690699029898470028A5
:105A7C0009D100200FB0F0BDAB6902989B6A984722
:105A8C000028ECD1F5E73378002B00D1A378A37074
:105A9C00AB6908AADB6906320199280098470023F4
:105AAC000BAE33703372AB69079A1B6A0A90726043
:105ABC001F000AAA330001992800B847337A002B3B
:105ACC0000D1237B36782373331E00D123792371C5
