:020000040800F2
:10000000009000205DE900083F6400084364000898
:1000100000000000000000000000000000000000E0
:100020000000000000000000000000004164000823
:1000300000000000000000003D6400082D6400087E
:10004000ADE90008ADE90008C9630008ADE90008A2
:10005000ADE90008ADE90008BF630008B56300081A
:10006000ADE90008A563000895630008ADE9000844
:10007000ADE90008ADE90008ADE90008ADE9000808
:10008000ADE90008ADE90008ADE90008ADE90008F8
:10009000ADE90008ADE90008ADE90008FD6200081F
:1000A000ADE90008ADE90008ADE9000859610008B4
:0C00B000ADE90008ADE90008ADE900086A
:1000BC0010B5064C2378002B07D1054B002B02D032
:1000CC00044800E000BF0123237010BD7000002025
:1000DC0000000000A0010108044B10B5002B03D058
:1000EC000349044800E000BF10BDC04600000000FA
:1000FC0074000020A0010108836910B50400002BD6
:10010C000AD00E4B1A0030321278002A04D05B6BE6
:10011C000B4A0C4901209847E369002B0AD0074B86
:10012C001A0030321278002A04D05B6B064A05495B
:10013C000120984720688368984710BD98030020D9
:10014C007861010889610108AB61010870B5040090
:10015C00416A028F438F0968E56B0069A8472068E4
:10016C004368984770BDF0B5012604000027490884
:10017C0085B0490003930F4D4318029201937642C8
:10018C00019B9C4201D105B0F0BD0B4B208802991C
:10019C00C018039B58430CF0CBFD80231B02C018E6
:1001AC0002D527800234EBE7A84201DD2680F9E76F
:1001BC002080F7E7FFFF00000080FFFF836B204AE1
:1001CC0010B5040093420BD103694269934216D0D7
:1001DC001C4B1D4A5B6B00201C499847002010BD2E
:1001EC001B4A934207D103694269934207D1154BCD
:1001FC00184A5B6BEFE7134B174A5B6BEBE7A36992
:10020C00002B0AD00F4B1A0030321278002A04D07F
:10021C005B6B124A0D4901209847E369002B0AD009
:10022C00084B1A0030321278002A04D05B6B0C4A4F
:10023C00064901209847206883689847CFE7C04655
:10024C00DF0F000898030020BA610108E261010881
:10025C008D100008F361010828620108786101081B
:10026C00AB61010810B50400836B984720684368A4
:10027C00984710BD0369426910B50400934207D03A
:10028C00134B00205B6B134A13499847002010BD99
:10029C008369002B0AD00E4B1A0030321278002AD8
:1002AC0004D05B6B0D4A0C4901209847E369002B85
:1002BC000AD0074B1A0030321278002A04D05B6B3C
:1002CC00074A054901209847206883689847DEE76C
:1002DC0098030020BA6101083D62010878610108A9
:1002EC00AB61010810B50400836B98472068436824
:1002FC00984710BD7047836910B50400002B0AD0D5
:10030C000E4B1A0030321278002A04D05B6B0C4A68
:10031C000C4901209847E369002B0AD0074B1A00BF
:10032C0030321278002A04D05B6B074A0549012051
:10033C00984720688368984710BDC04698030020F2
:10034C007861010855620108AB61010810B5436A78
:10035C00826B00681A604368984710BD836910B5BA
:10036C000400002B0AD00E4B1A0030321278002AEF
:10037C0004D05B6B0B4A0C4901209847E369002BB6
:10038C000AD0074B1A0030321278002A04D05B6B6B
:10039C00064A05490120984720688368984710BD94
:1003AC00980300207861010862620108AB610108C2
:1003BC00F0B5002652080400064D900009180439C7
:1003CC00013A00D2F0BD5300E35E4E805B106B40EF
:1003DC000B80F4E700C0FFFF70B55308064D5B00BF
:1003EC00023B9C1C03D103339A43100070BDC45EC6
:1003FC0064106C40CC52F3E700C0FFFF52081300AE
:10040C0030B5013B01D2900030BD5C00045B9D0017
:10041C0024034C51F5E7F7B59408E7000090CD198B
:10042C00A400043C083D231D01D13800FEBD009BF7
:10043C001B190220185E0CF097FFE62189050CF0C1
:10044C00BBF8009B061C185F0CF08EFFE62189059B
:10045C000CF0B2F800210190301C0CF0ADF8011C2E
:10046C0001980BF0FDFD6E602860DAE7F7B5160019
:10047C00940800900191A400043C231D03D130008A
:10048C0003239843FEBD009B1D59A8B20CF06CFFD2
:10049C00DE2189050CF090F8071C28140CF064FF81
:1004AC00011C381C0BF0DCFD019B1851E4E710B566
:1004BC0053085B00023B9C1C03D103339A4310008E
:1004CC0010BDC45A6400CC52F4E7836910B5040023
:1004DC00002B0AD00E4B1A0030321278002A04D0AE
:1004EC005B6B0C4A0C4901209847E369002B0AD03E
:1004FC00074B1A0030321278002A04D05B6B074A83
:10050C0005490120984720688368984710BDC0466C
:10051C00980300207861010874620108AB6101083E
:10052C0010B50400436A828F19680069A36B984761
:10053C0020684368984710BD836910B50400002BF0
:10054C000AD00E4B1A0030321278002A04D05B6BA2
:10055C000B4A0C4901209847E369002B0AD0074B42
:10056C001A0030321278002A04D05B6B064A054917
:10057C000120984720688368984710BD9803002095
:10058C007861010886620108AB61010810B500684A
:10059C00C368984710BD10B5FFF7F8FF10BD10B534
:1005AC00FFF7F4FF10BD10B5FFF7F0FF10BD10B54D
:1005BC00FFF7ECFF10BD10B5FFF7E8FF10BD10B54D
:1005CC00FFF7E4FF10BD70B50400456A41692A6865
:1005DC00A36B00699847286020684368984770BDF2
:1005EC0010B5FFF7F0FF10BDC36A10B5002B02D099
:1005FC0014305B6B984710BD826910B5002A0FD080
:10060C0048235A43074B483A1B689B181A00403240
:10061C001278002A01D141331A700430FFF7E4FF3D
:10062C0010BDC046480500200020704710B5024B95
:10063C00DB68984710BDC0469803002010B5040035
:10064C004069002803D0FFF7F1FF0023636110BD60
:10065C0010B504004069002803D0FFF7E7FF002322
:10066C00636110BD70B504680500002C0AD0606F82
:10067C00FFF7C2FFEA239B00E058FFF7D7FF2000EB
:10068C00FFF7D4FF2800FFF7D1FF70BD70B50468E9
:10069C000500002C0AD0606FFFF7AEFF2300FC337F
:1006AC00D869FFF7C3FF2000FFF7C0FF2800FFF752
:1006BC00BDFF70BD10B5024B5B69984710BDC046BD
:1006CC009803002070B5856B042D07D9274B284A59
:1006DC005B6B28490020984700240AE0042D10D1B8
:1006EC00224BDC69002C06D15B6B234A214920008C
:1006FC009847200070BD0279032A02D15B6B1F4A18
:10070C00E7E7C38F162B03D9184B1D4A5B6BE0E749
:10071C00838F013B3E2B03D9144B1A4A5B6BD8E7F2
:10072C000379002D05D1032B0ED1104B164A5B6BB0
:10073C00CFE7032B08D103004E331C78002C03D1D8
:10074C000A4B124A5B6BD1E704239D4303D1030090
:10075C0001224E331A70323003780124062BC8D094
:10076C00092BC6D0014B0A4A5B6BB2E798030020F9
:10077C0092620108AA620108BD620108FC620108CC
:10078C003E63010872630108C46301080064010838
:10079C004064010810B504000120002C0AD1074A5E
:1007AC00130030331B78002B05D0536B0449054ADA
:1007BC009847200010BD1800FCE7C04698030020A5
:1007CC00AA6201085464010810B50400FFF7E2FFA7
:1007DC00002801D04E34207810BD10B50400FFF76E
:1007EC00D9FF002801D04934207810BD70B5040021
:1007FC000D00FFF7CFFF002801D06834258070BDB5
:10080C0010B50400FFF7C6FF0023984201D06834EE
:10081C002388180010BD10B50400FFF7BBFF0023A0
:10082C00984201D060342388180010BD70B50400C4
:10083C000D00FFF7AFFF002801D00634E58770BD2F
:10084C0070B504000D00FFF7A5FF002801D004349B
:10085C00E58770BD10B50400FFF79CFF002398429C
:10086C0001D00434E38F180010BD70B504000D00E6
:10087C00FFF790FF002801D00234E58770BD10B55A
:10088C000400FFF787FF0023984201D00234E38F66
:10089C00180010BD10B50400FFF77CFF00280BD02A
:1008AC002079032808D80CF0A5F902020505FF20D1
:1008BC00C00510BDA068FCE70048FAE70000C07F47
:1008CC0010B50400FFF766FF0023984200D023798F
:1008DC00180010BD10B50400FFF7F2FF01280CD072
:1008EC002000FFF7D7FF011C05480BF053FD04490E
:1008FC000BF0B6FB0CF062FB10BDFA20C000FBE75E
:10090C000000FA4410B50400FFF744FF002398429E
:10091C0001D0A38FDBB2180010BD10B50400FFF797
:10092C0039FF002801D04834207810BD10B50400E0
:10093C00FFF730FF002801D04734207810BD10B5E8
:10094C000400FFF727FF0023984200D0A36B180088
:10095C0010BD10B50400FFF71DFF002801D00123C6
:10096C00237110BD10B50400FFF714FF002398424B
:10097C0000D0E368180010BDF0B5304B93B05B6B42
:10098C0004000B93FFF7EEFF0C902000FFF7BAFF6B
:10099C000D902000FFF7FEFE0026B04200D0E68F3F
:1009AC002000FFF76CFF0E902000FFF753FF0F9015
:1009BC002000FFF7EFFE0027B84201D0A31DDF8F08
:1009CC002000FFF7BCFF1E4B0A93042803D81D4BD5
:1009DC008000C3580A932000FFF7DCFE1A4D002854
:1009EC0008D023006A331B78002B03D0174D012B42
:1009FC0000D0134D2000FFF799FF10902000FFF757
:100A0C000AFF11902000FFF788FF119B09900893B3
:100A1C00109B069507930A9B049705930F9B0196D1
:100A2C0003930E9B0A4A02930D9B0A4900930220E2
:100A3C000C9B0B9CA04713B0F0BDC0469803002044
:100A4C00C4720108B80101086F6401086A6D0108DD
:100A5C0071640108AA62010810B5034B034A5B6B71
:100A6C0003490120984710BD98030020A964010890
:100A7C00456F010810B500280AD0094B02689A424C
:100A8C0006D1038B002B03D043690120002B06D128
:100A9C00044B00205B6B044A04499847002010BDAE
:100AAC00D79DC0AC98030020A9640108456F0108CC
:100ABC0010B50400FFF7DEFF00280AD06379013B74
:100ACC00042B06D9034B00205B6B034A0349984760
:100ADC00002010BD98030020BF640108456F010879
:100AEC0010B5002804D00268054B01209A4206D0AC
:100AFC00044B00205B6B044A04499847002010BD4E
:100B0C00E89EC0AC98030020D7640108456F01082B
:100B1C0010B504000069002803D0C368984700236F
:100B2C00236110BD10B5041E01D0006910BD064B29
:100B3C001A0030321278101EF8D001205B6B034A79
:100B4C00034998472000F1E798030020A9640108A5
:100B5C00456F010870B505000E00FFF7E3FF041E9A
:100B6C0010D0FFF717FE002802D023004A331E7066
:100B7C00002E08D00F212000FFF777FE0121200066
:100B8C00FFF754FE70BDAB68002BFBD069792800D1
:100B9C009847F7E710B5002803D00173FFF7DAFF89
:100BAC0010BD044B30331B78002BF9D0FFF754FFEA
:100BBC00F6E7C0469803002010B5041E0CD08368DD
:100BCC00002B09D041719847237B002B03D00121C6
:100BDC002000FFF7BFFF10BD034B30331B78002BF9
:100BEC00F9D0FFF739FFF6E79803002070B50D1C1C
:100BFC00FFF798FF0400FFF7CDFD00280ED0084941
:100C0C00281C0BF0D9FC011C05480BF007FEFC213D
:100C1C0089050BF025FA0CF087FBE08770BDC04608
:100C2C000000B04110B5041E04D00379032B0DD184
:100C3C00200010BD064B1A0030321278002AF7D073
:100C4C005B6B044A044901209847F1E70024EFE765
:100C5C0098030020A9640108E664010870B50D0032
:100C6C00FFF7E0FF002811D01C300400681E042898
:100C7C000CD80BF0BFFF030C0E141A00002120003F
:100C8C00FFF7DEFD00212000FFF7EFFD70BD07210F
:100C9C00F5E709212000FFF7D3FD0321F3E70C2131
:100CAC002000FFF7CDFD0621EDE71021F8E710B588
:100CBC000C00002815D0037A032B12D103691B6892
:100CCC009A69586A0A60DA694A60DA8D0A819A6A06
:100CDC00CA6004490BF070FCFC2189050BF06CFC1C
:100CEC00206110BDC2F38E4DF8B5144B144E5C68E8
:100CFC00330030331B780500032B05D94368114AA8
:100D0C0011490420776BB8470023002C0DD0626D7D
:100D1C00AC4207D1002B0FD1084B5A602000FFF7D3
:100D2C0085FC08E023001400EFE7766B6B68074A3C
:100D3C0005492000B047F8BD5A65EFE78C0000204C
:100D4C0098030020F5640108166501082665010862
:100D5C0010B50400FFF78EFE002802D02379002B7B
:100D6C000BD0074B1A0030321278141E05D05B6B77
:100D7C00044A0549012098470024200010BDC046B4
:100D8C0098030020A96401085A65010870B50E008B
:100D9C00FFF7DEFF051E18D00400701E1C3404285B
:100DAC0013D88C350BF026FF031220222C000021C7
:100DBC002000FFF745FD00212000FFF756FD032121
:100DCC002000FFF733FD0F4B2B6070BD0721200077
:100DDC00FFF736FD06212000FFF747FD0921200013
:100DEC00FFF724FD084BEFE70921F0E70C21200069
:100DFC00FFF726FD06212000FFF737FD0121EEE766
:100E0C001021F4E7FA61843C0938843B0122174B2A
:100E1C00524210B50100DA60122820D81A00800066
:100E2C00103210180A00203AD4B2222C02D89000AA
:100E3C000F4A80180A007F32D2B2042A05D8080063
:100E4C001A0081385C32800010180A003032D2B29D
:100E5C00092A03D8D03970338800181810BD18002F
:100E6C000C30E929DED10438DCE7C0468C000020C8
:100E7C00DC020020014B18687047C0469403002028
:100E8C000021102210B5074B1C69144202D19A6143
:100E9C00FAE79A621C691442FBD101318842F3D102
:100EAC0010BDC0460004005010B50A20FFF7E8FF43
:100EBC008022024B92009A6210BDC0460004005082
:100ECC0000487047001BB74B0C4A70B5082415003E
:100EDC000B4806681369234203D103689B1B8B42A2
:100EEC0003D328690007C00F70BD72B61369234283
:100EFC0000D130BF62B6BFF36F8FEBE70004005038
:100F0C009403002010B5044C206B0EF067FF0023F7
:100F1C002363A386E38610BD0C01002070B5049EEC
:100F2C001D0033784469002B0AD1A37E002B11D00D
:100F3C00E3686068934200D913001A000EF058FF62
:100F4C00337820696376002803D0626929000EF09B
:100F5C004FFF70BDA3681960F2E77FB50500100064
:100F6C008A790E794C7903AB9A7002AA5E70147070
:100F7C001C7000924A692900FFF7D0FF7FBDF0B5C5
:100F8C00050085B01000CA794C7903AB0E798F79C6
:100F9C00DA7002AA14701F705C709E7000924A691D
:100FAC002900FFF7BBFF05B0F0BDF8B504000E003B
:100FBC009508AF00C719BC4201D16800F8BD608824
:100FCC0023880004184309F069FD0434308002368C
:100FDC00F1E7F0B5466A85B03368016C0093036B9A
:100FEC0004001F68381C0BF0E7FA09F0B5FCE16B44
:100FFC000500381C0BF0E0FA09F0AEFC009B2469EC
:10100C009B089B001B1902900393039B9C4205D1E8
:10101C000323009A9A43326005B0F0BD8023DB05B0
:10102C00E81809F025FD0700280009F021FD002231
:10103C00A35E0193019A0223E15E7A43D3171B0549
:10104C001B0D9B1802004A4394467943CF173F056A
:10105C003F0D7F180199D21741431205C817120D85
:10106C0000056244000D1B13121340189A1A3F130B
:10107C000013029B3F1822806780ED180434C4E7EC
:10108C00F0B5476A85B03B6805005B080093036BBD
:10109C00016C1C68201C0BF08FFA09F05DFCE96BED
:1010AC000600201C0BF088FA09F056FC009B2C69FA
:1010BC005B001B196D6902900393039B9C4204D146
:1010CC00009B9B003B6005B0F0BD0022A35E023488
:1010DC0001938023DB05F01809F0CAFC019B434304
:1010EC00D8170005000DC01800132880300009F037
:1010FC00BFFC019B4343D8170005000DC018029B91
:10110C0000136880F6180435D7E77FB50022436AD0
:10111C0006691D6803AB1A805A80039BAD082A0030
:10112C003100403000930123040009F0B7FA0A4B58
:10113C002000EB189B00F3180222995E1B8802AA70
:10114C00138001235180029A310000925B422A00E5
:10115C0009F0A4FA7FBDC046FFFFFF3FF0B5490878
:10116C00520885B08BB295B202900193002D00D13C
:10117C001D002F0000268BB200930393019BB342FA
:10118C0001D805B0F0BD039AF319934200DD009F1E
:10119C00002F1FD000221000029B74001C19BA42B1
:1011AC001FD30123002800DA023B7A0892B2534382
:1011BC00390018180BF0BCFD7B0002B2E318002AB2
:1011CC0019DD002180B22288824211D221800234A2
:1011DC00A342F8D1009B76195B1B9BB2B6B200936D
:1011EC00CCE75300E35A0B4901325B18C018D6E721
:1011FC00121A2280EBE7084952182188914206DD29
:10120C000121494221800234A342F6D1E2E7091AB6
:10121C00F8E7C0460080FFFFFFFF000070B5030039
:10122C000C0001220020A2420FD30CF09DF8051CEB
:10123C00601E0CF099F8011C281C0BF0ABF80DF09B
:10124C00C3FF07490BF0B8F970BD1D8859880132EE
:10125C00491BCD1749196940401892B20233E2E795
:10126C000000A04130B50E25002485B06D442A0045
:10127C0021002C8009F044FC2A88074B01209A425B
:10128C0007D00092054A2000556B0549054AA8472E
:10129C00200005B030BDC04612110000980300209C
:1012AC00996501086B650108F7B544691E002300B8
:1012BC00B83300931B881700002B27D02200B432C0
:1012CC00019215880A686D0055192A0001680120E1
:1012DC000AF066FC009B28001988FFF79FFF0C4959
:1012EC00706001250BF036FE002800D1051C002390
:1012FC00226C35709A4203D1BA34227801335340B0
:10130C00012213403372019B1B883B600120FEBD00
:10131C0000006442F0B5446985B000932300CE33DD
:10132C0002931B8807000D0016000193002B39D087
:10133C002300C833186880B2430003932300CC33D6
:10134C0019887C200BF06AFC039B2D685843230002
:10135C00C4331B883968C0182D182A00019B012042
:10136C000AF01EFC029B28001F8801253900FFF79C
:10137C0055FF009B0D4958600BF0ECFD002800D187
:10138C00051C009BE26E1D7000239A4203D1C034F1
:10139C0022780133534001221340009A13723368B0
:1013AC00DF1B3760012005B0F0BDC0460000644271
:1013BC0070B51600050007F0EBFD040033000200C9
:1013CC00290000200AF0ECFB200070BD7FB503AEB5
:1013DC003200050009F0B6FD041E08D10A4B0B4A79
:1013EC005E6B0B492B00B047200004B070BD7388B6
:1013FC00062BF9D00093044B064A5C6B04492B0076
:10140C000020A0470024EFE798030020A9650108FD
:10141C0099650108DB650108F0B585B003AC1700D0
:10142C002200060009F08EFD051E32D0227863885A
:10143C00062A25D11A0523D58022D20013402BD1A0
:10144C00002F00D03B706388DB050AD5154B1A00C2
:10145C0030321278032A04D95B6B134A13490420E7
:10146C00984763889B0514D50E4B1A0030321278BE
:10147C00032A0ED95B6B0E4A0C490420984708E0EE
:10148C000093084B0B4A5C6B084933000020A047C3
:10149C000025280005B0F0BD31000F200AF074FBC8
:1014AC002B00CDE7980300204566010899650108DB
:1014BC005E6601081566010873B56B469C1D00231A
:1014CC00220038210500238009F01AFB2488012012
:1014DC00002C0AD1054B064A5E6B06492B002000F6
:1014EC00B047280009F033FB200076BD980300209C
:1014FC007666010899650108F0B5071D95B0019253
:10150C0005000C0034220021380000930DF08EFCF5
:10151C00524B1B68002B03D01E68002E00D095E0A8
:10152C002000FFF71FFA07002000FFF793F903AE26
:10153C0030802000FFF7A3F970802000FFF72AF914
:10154C000023984201D0A31DDB8F2000B380FFF74E
:10155C00E4F939002F00F0800423320012201837F0
:10156C000AF01EFB2022002138000DF05FFC210048
:10157C00380023689847061E16D0202200210CA89C
:10158C000DF054FC1C22002105A80DF04FFC2B6B18
:10159C000CAA1E68210005AB3800B047061E29D1E5
:1015AC002B6B38005B6B98472000FFF7C8F90223C0
:1015BC00002803D00123042800D000232B70200026
:1015CC00FFF77EF94342584168702000FFF7FCF8A2
:1015DC00A8702000FFF7C6F905220CAB1A70023276
:1015EC000D900E9218001532009909F053FE300040
:1015FC0015B0F0BD019B002B07D01A000CAB83CBB0
:10160C0083C283CB83C203CB03C2009B002B04D0C9
:10161C001C2205A918000EF0EBFB2000FFF750F977
:10162C00012810D02000FFF735F9011C0C480AF0F6
:10163C00B1FE0B490AF014FD0BF0C0FC00236860EE
:10164C00EB606B81B0E7FA20C000F7E7009B019AD2
:10165C0021003800B0470600A6E7C0464C05002024
:10166C000000FA440023F0B5140005008FB001917E
:10167C0008A9CB7108A99370D370138013731371DD
:10168C008B713E4A0168A2600291817B0391C17B00
:10169C0005918189009304910169079206916B462B
:1016AC00049A1B889A4258D9039B002B0CD008AB88
:1016BC00DE1DAB6932009B69069902989847002899
:1016CC0009D100200FB0F0BDAB6902989B6A984716
:1016DC000028ECD1F5E73378002B00D1A378A37068
:1016EC00AB6908AADB6906320199280098470023E8
:1016FC000BAE33703372AB69079A1B6A0A90726037
:10170C001F000AAA330001992800B847337A002B2E
:10171C0000D1237B36782373331E00D123792371B8
:10172C00A1680C980DF0F8FC08AB06331B78A06090
:10173C00002B00D1E378E3700A9A23883100D31888
:10174C002380AB6928005B6A9847059B002B07D068
:10175C00049B009A013B9A4202D1019B1868B1E7A5
:10176C00039B002B03D1009B0133009397E7AB69DC
:10177C0002989B6A98470028F5D1A2E7000080FFE9
:10178C0037B5456901242B00BA331B7819432B6CF0
:10179C004C405A4253418B4206D00094EF23044AEA
:1017AC000449006807F048FC2C6401203EBDC0468B
:1017BC00001201084027010870B50D000021436993
:1017CC0011701A00B833B4321B8814882968E418D5
:1017DC0022000068FFF7ECFD6200010028680EF0A3
:1017EC0010FB200070BDCD2270B5520004000D001E
:1017FC00BC200F4907F0C0FB00236061984215D054
:10180C002800FFF7AFF820602800FEF7DDFFA0737B
:10181C002800FFF794F843425841E0732800FFF783
:10182C0059F8044B20611433A3610123180070BDD7
:10183C00A7660108B80101082C2270B5FF3204001C
:10184C000D00D4200F4907F097FB002360619842EC
:10185C0015D02800FFF786F820602800FEF7B4FFAB
:10186C00A0732800FFF76BF843425841E07328003F
:10187C00FFF730F8044B20614C33A36101231800AF
:10188C0070BDC046D9660108B801010870B5602268
:10189C0072498C2007F070FB041E00D1DBE0704B0A
:1018AC0005000360032303716E4B1C3583606E4B84
:1018BC0005614361582302210383FFF77DF9200062
:1018CC000021FFF767F92800FEF764FF002801D01C
:1018DC00664B23642800FEF75DFF002801D0644BA3
:1018EC0063642800FEF756FF002803D0230006226D
:1018FC004E331A702800FEF74DFF002801D001234B
:10190C00A3622800FFF725F82800FEF743FF002804
:10191C0001D0022363652800FEF73CFF002803D0AA
:10192C002300002248331A702800FEF733FF0028EA
:10193C0003D0230010227C331A802800FEF72AFFE4
:10194C00002802D00022231DDA672800FEF722FFB0
:10195C00002803D02300002262331A702800FEF7FF
:10196C0019FF002803D02300002263331A702800CB
:10197C00FEF710FF002803D02300002264331A70F6
:10198C002800FEF707FF002807D0230000226B3346
:10199C005A701A70013340325A802800FEF7FAFE52
:1019AC00002803D02300FF2272331A802800FEF790
:1019BC00F1FE002803D02300002274331A70280093
:1019CC00FEF7E8FE002804D02300002276331A70BC
:1019DC00A26728000121FEF709FF2800FEF7DAFEB6
:1019EC00002803D02300012286331A702800FEF74A
:1019FC00D1FE002803D023000B225A331A80280072
:101A0C00FEF7C8FE002803D023000A2258331A80A0
:101A1C002800FEF7BFFE002803D023000022653308
:101A2C001A702800FEF7B6FE002803D0230001220E
:101A3C006A331A702800FEF7ADFE002804D080220D
:101A4C002300520170331A802800FEF7A3FE0028F1
:101A5C0001D0084BE361200070BDC0460B67010844
:101A6C00D79DC0AC690C0008A13A0008CDCC4C3E07
:101A7C009A99993EF3170008F7B52E4D04002F786C
:101A8C00002F49D0FEF7F6FF002801D1002741E0D6
:101A9C002369DE682A2E07D9274B284A5C6B284914
:101AAC002A230020A047F1E76B78002B02D16B684A
:101ABC00002B28D1238B01931F4B1A003032127844
:101ACC00032A05D95F6B1F4A33001D490420B84710
:101ADC00BD221D49019807F04FFA071ED6D01B4BAB
:101AEC00466003606B6821004365636968609847D2
:101AFC0000280DD1FB68002B01D038009847380026
:101B0C00FFF7F2F8C2E75A6896420CD05B6DCFE74C
:101B1C0001237B723800FEBD074B0D4A5B6B0849F5
:101B2C0038009847F6E7044B0A4A5B6B04490020DF
:101B3C009847ABE78C000020980300202C67010825
:101B4C00166501084567010864670108E89EC0AC8A
:101B5C008667010898670108F0B544698DB02300C9
:101B6C0027000492C2331B8805000E00C637002BD9
:101B7C0000D13B802300CC3319887C200BF04EF82D
:101B8C002300C8331B6806A99BB258432300CE33ED
:101B9C001B88C3182000029309F03CFB029B069A99
:101BAC0039889A18336828685918FFF701FC230004
:101BBC00AD331B780700002B24D10023049A06A90F
:101BCC001370200009F026FB029B30685A00069B1C
:101BDC00590079182700C6373B88C0180EF011F948
:101BEC0023003E88C4331E80CC3421887C205D6861
:101BFC000BF014F8ADB26D004543029876193E8097
:101C0C000DB0F0BD22001F21BC3213685B000B40ED
:101C1C001360404A110030310978032904D9556BFF
:101C2C003D493E4A0420A847236A3D4A9BB25B00CB
:101C3C00D3180420185E0BF097FB051C38880BF0AA
:101C4C00DDFBDE2189050AF0B7FCFC2189050AF0D1
:101C5C00E5FD34490AF0B0FC33490AF0ADFC011C37
:101C6C00281C0AF0DBFD0BF05FFB304A05B2ABB26F
:101C7C009A182F4992B28A4229D82621625E788816
:101C8C0003922C4A9B18E6229BB25200934224D911
:101C9C000BF0B4FBDE2189050AF08EFCFC218905D2
:101CAC000AF0BCFD1F490AF087FC1F490AF084FCAE
:101CBC00059028000BF058FB011C05980AF0D0F990
:101CCC000BF032FB039B00B26433984205DD22001B
:101CDC000123BC3211680B4313602300BC331A6818
:101CEC000023002A11D1022B00D866E7094A110003
:101CFC0030310978002906D005210091556B064931
:101D0C000D4A0120A847012358E7511E0A40013310
:101D1C00E7E7C04698030020D6670108BF670108B3
:101D2C00380201089A99993F00007A4412FDFFFF8E
:101D3C0017020000F4FCFFFFE767010810B538300C
:101D4C000AF0BAF810BD10B538300AF0B5F810BD6D
:101D5C0010B5040038300AF0C3F800280CD1E02389
:101D6C0001229B00E358586198715A71D2239B0051
:101D7C00E0180433E358984710BD10B50400383010
:101D8C000AF0AEF800280BD12300F0331B680122B7
:101D9C00586198712000BC345A71B8302368984748
:101DAC0010BD84B010B503910290244804920593A1
:101DBC00039C0DF03BFC224902980AF0FDFB0BF052
:101DCC00B3FA01001F480DF043FC1F4B1A003832C8
:101DDC001278002A26D11A49201C0AF0EDFB0BF0D0
:101DEC00EDF8010019480DF033FC02AB19891848C5
:101DFC000DF02EFC124905980AF0DEFB0BF0DEF814
:101E0C00010014480DF024FC0D4906980AF0D4FB8F
:101E1C000BF0D4F8010010480DF01AFC10BC08BCF3
:101E2C0004B01847196C201C0AF01AF904490AF07E
:101E3C00C3FB0BF0C3F801000848D4E72268010883
:101E4C0000007A443B6801080C0100204A68010834
:101E5C007068010882680108976801085A680108CF
:101E6C00F7B50500274E019130000DF0F1FB29006C
:101E7C0025480DF0EDFB0A200DF0D6FF30000DF0DB
:101E8C00E7FB019921480DF0E3FB0A200DF0CCFF94
:101E9C00019B9C1C6C43640020000DF095FF1C4FB3
:101EAC00386300280BD11B480DF0D2FB1A480DF0FB
:101EBC00CFFB0A200DF0B8FF01204042FEBD3000E0
:101ECC000DF0C6FB15480DF0C3FB0A200DF0ACFF5E
:101EDC0030000DF0BDFB210011480DF0B9FB0A20BC
:101EEC000DF0A2FF0021019B386B5A00AB00C31808
:101EFC008CB2A54201D80020E0E78C0003510131DF
:101F0C009B18F5E7AC680108B2680108C4680108C1
:101F1C000C010020D4680108DA680108F96801088E
:101F2C001969010870B5134C256D2800FEF7A2FD48
:101F3C0000281DD02869FEF76EFC230006005433E0
:101F4C00A086188931000AF069FE230038331B780B
:101F5C0085B2E586002B06D0A31DD88F31000AF080
:101F6C005DFE2D18E5863000E18EFFF779FF70BD20
:101F7C00A086FFDE0C010020F7B5284B284C00256D
:101F8C0023600C2326006361C02360609B0020004B
:101F9C007C36A361A560E5602561E561256265621B
:101FAC00A56207F009FE3378012B17D024230121F9
:101FBC00271DFB67236831701A68200001921A688C
:101FCC008A431A609A68D200D2089A6007F0FEF829
:101FDC002368019A1A6020233570FB6725007C3535
:101FEC002B78012B16D024230121261DF36723689F
:101FFC0029701F681A6820008A431A609A68094978
:10200C000A409A6007F0E2F823681F602023F36708
:10201C0000232B70200007F00BF9F7BD00380140AE
:10202C0050050020FFFFFFF12422012170B5254C43
:10203C000500231DDA6723681A688A431A60002298
:10204C001A605A609A60204A93422ED1F0201F4A9F
:10205C001F49136C40010B40136406F0AFFD606F19
:10206C00002801D007F042FAA06F002801D007F039
:10207C003DFA8022174B1205DA67BFF34F8FBFF37F
:10208C006F8F21000023220088310B600832211D44
:10209C00CB67D367220028007C321370FFF76CFFEC
:1020AC000121200006F0CEFE70BD0B4A9342E8D110
:1020BC00064A0A49D36B0C200B40D36306F07EFD15
:1020CC00DFE7C046500500200038014000100240F8
:1020DC00FFBFFFFF04E100E000440040FFFFFDFFF5
:1020EC00F7B5B54EB54A336806201A4080239B00DD
:1020FC001343B34F33603B68B24958430AF08EFD2B
:10210C0080230130DB0072691A4200D086E038234C
:10211C00AD4CAE4DA2681340E268102B00D082E0AB
:10212C0003210A40022A00D080E02268A849626894
:10213C0011408022D2010A436260002B09D123682E
:10214C00A44A134023602368A34A9B045B0FDA4024
:10215C003A60A24B186807F09BF900287CD0072244
:10216C009F4B1968114001290CD802211868904323
:10217C00014319609B4928688C4619681140022953
:10218C0000D0B4E0E022A168D2010A43A260A268A8
:10219C0095490A40A2602268920100D5ADE08021E9
:1021AC00E36B490500220B4207D1E36B01320B4371
:1021BC00E363E36B0B400193019B802331685B006D
:1021CC001943316028683168194200D1D5E0C02329
:1021DC00E16D9B000B4010D0802189008B420CD00C
:1021EC00E16D824BE06D0B40802149020143E165BA
:1021FC00E16D7F480140E165E365DB0706D502210F
:10220C002868784EE36D0B4200D1CEE0E36D774940
:10221C00194080239B000B43E365B3E0002800D1F9
:10222C0075E701386FE7002B00D17EE72368694A18
:10223C0013402360802322685B00134380222360B9
:10224C002968D2002368134237D06368604A1A4069
:10225C008023DB01134363603822A3681340182BDF
:10226C0030D1236E3822A3681340102B3DD0236845
:10227C00604A134080222360296892042368134229
:10228C002ED1E3685C4A1A405C4B1343E360802315
:10229C0022685B04134323608023E2685B051343CD
:1022AC008022E360296892042368134200D056E729
:1022BC002B685B1A022BF7D951E72B685B1A022BA0
:1022CC00C0D94CE70123226E1343022223662968EE
:1022DC00236E1342C6D12B685B1A022BF8D93EE74A
:1022EC002B685B1A022BC9D939E7E36837E72968F1
:1022FC00091A614500D840E751E70721A2688A43D3
:10230C00110002220A43A260364A382194462868FA
:10231C00A2680A40102A1AD11968093A11400229F8
:10232C001AD8A368364A1340A36007F04BFBA36886
:10233C00344A1B051B0F9B00D3181F22DB6813406C
:10234C00D840264B3860186807F0A2F827E72A68AF
:10235C00121A6245DCD922E7022118689043014326
:10236C001960204928688C46196811400229D8D078
:10237C002968091A6145F7D911E72968091A022950
:10238C0000D820E7012A03D1E36B1F4A1340E36313
:10239C000322636D93436365636D093293436365F5
:1023AC00636D1A4A13406365F7BD2B681B1AB34261
:1023BC0000D827E7E6E7C04600700040FFF9FFFFB2
:1023CC000000002040420F00001002409403002047
:1023DC00FF80FFFFFFC7FFFF0024F4000400002074
:1023EC000020024088130000FFF0FFFFFFFCFFFFFE
:1023FC00FFFFFEFFFFFFFFFE8C80C11102080222CF
:10240C00FF8FFFFF38020108FFFFFFEFFFCFFFFF39
:10241C000CB4F0B5B1B036AB04CB0AAD06000F006E
:10242C002800962109930DF035F9952807DDAA238C
:10243C0004AA9B181D4A1A802E222FAB1A801C4B03
:10244C001C491C6820000AF0E9FB1B490590200080
:10245C000AF0E4FB3C210AF067FC0691FA2120000B
:10246C0089000AF0DBFB3C210AF05EFC0791FA21A3
:10247C00200089000AF058FC3F23042E01D80F4B92
:10248C009B5D01930091079B069A05990395029712
:10249C000B480DF0DDF80B4B1B6898680CF0B8FB83
:1024AC0031B0F0BC08BC02B01847C0462E2E00005C
:1024BC009403002080EE360060EA000050690108A9
:1024CC002E69010808000020802210B5054B9200EF
:1024DC009A610320FEF7D4FC06F04EFB0A20FEF7AF
:1024EC00CFFC10BD000400500122074B10B5802119
:1024FC009A62A0224900D2059162802292009A62CF
:10250C0006F03AFB10BDC046000400501022084BE8
:10251C0010B59A62F132FF329A618021A0224900F3
:10252C00D205916101229A6106F026FB10BDC046CE
:10253C0000040050B448F0B503000124B34D85B03D
:10254C0001915C33AC621E780395A64200D1ECE09D
:10255C00AF4E1C7033684568029303005D331B78E3
:10256C00DBB2A3420BD00434FF34A54200D0D4E03C
:10257C008468002C00D0D0E0042B00D0CDE0019B6F
:10258C00002B00D1C9E092B2002A00D1C5E00300B3
:10259C005D331C78042C01D005241C70040000232E
:1025AC0008340366E287841DE287E0240199C7683A
:1025BC00C364036501648163C28782870368E40096
:1025CC00A74201D8012A6CD05C6892490C405C602F
:1025DC0040241968214202D119680C431C60E02484
:1025EC00E400A74200D8A5E0002D01D0012A09D1B2
:1025FC00019A1288DA60019A02328263C28F013A20
:10260C0092B2C287002601223700806B7E4DEC8F80
:10261C00002C4BD12C000834E48F002C46D1002F19
:10262C0000D0A863002E01D0019B2B64C022764CF5
:10263C0077482168784D52018B68134208D00368A3
:10264C00029E9B1BAB42F7D906F0C3F9002821D19F
:10265C00802221686E48704D8B68134208D0036845
:10266C00029E9B1BAB42F7D906F0B3F9002811D19F
:10267C00C02122686648684DC90093680B424CD053
:10268C00137B029E03689B1BAB42F6D906F0A1F9A3
:10269C00002842D02023226E134323662023236676
:1026AC003BE08024596864010C4390E79C68A107C7
:1026BC000ED5554CE18F00290AD0012A08D1078884
:1026CC000230DF60E78F013FBFB2E78717000022BF
:1026DC0001219C680C4210D04B4C0834E18F00292E
:1026EC000BD0DA68019901260A800A0002320192A5
:1026FC00E28F013A92B2E2873200454C029924688B
:10270C00641A45498C4200D881E73F4B002F00D01A
:10271C009863002E01D0019A1A643B4B01211A00D8
:10272C005D32117000225C331A700123039A93619D
:10273C0005B0F0BD002D01D0012A0CD1C28F012AA9
:10274C0051D9019A019912880231DA60C38F8163E1
:10275C00023B9BB2C38701210222030094460C006A
:10276C000833C28F002A03D1DA8F002A00D15DE72B
:10277C006546026897682F4211D0C78F002F0ED084
:10278C0001290CD1C78F816B012F35D90F880231EC
:10279C00D7608163C18F023989B2C18700219768E4
:1027AC00274218D0DF8F002F15D0DF8F016C012F3F
:1027BC0034D9D7680F8002310164D98F023989B2BC
:1027CC00D987DF8F2100012F05D8802551686D0135
:1027DC002943516021003268029D0F4F521BBA42AF
:1027EC0000D99AE7BDE7019A12781A73836B01330B
:1027FC008363C38F013BACE709781173816B0131A3
:10280C008163C18F0139C7E7D00300200004005059
:10281C0094030020FFEFFFFF87130000127B0A7068
:10282C00026C01320264DA8F013A92B2DA87D1E794
:10283C0013B5044A00910300546B0349034A00206A
:10284C00A047FEE7980300206B6901085669010850
:10285C00F0B5604CA5440791019202937C2A12D8E2
:10286C0093000493049A84AB9B18F73BFF3B0693AD
:10287C00002307000393039B079A934207D18523F8
:10288C009B009D44F0BD7D215348FFF7D1FF049A76
:10289C00390008A80DF0ACFA00220124019B84A990
:1028AC00581E8300CB18F13BFF3B08921A6008AA14
:1028BC00019BA34210D8069A043A01382BD200246B
:1028CC00049BA34244D139000022A24263D1039B52
:1028DC00BF1801330393CEE70023D55E0423D15EEA
:1028EC00029B491B5943CB171B051B0D5B181B1374
:1028FC005D1995800623D15E0223D55E029B491B90
:10290C005943CB171B051B0D5B181B135D19D58089
:10291C0001340432CCE70623D15E0223D45E029B41
:10292C00641A5C43E3171B051B0D1B191B135B1867
:10293C0053800823D15E0423D45E029B641A5C434B
:10294C00E3171B051B0D1B191B135B189380B3E7B7
:10295C0008A96218508808AB1B5B0004184308F0E8
:10296C009DF808AB051E05D108AA1853A31858806A
:10297C000434A5E7185F290000030AF0D9F908AB65
:10298C00E61818530223F05E2900000340420AF0B7
:10299C00CFF97080ECE70023CE5E08ABD35E022546
:1029AC00485F0593844608ABD0180225455F05980F
:1029BC0004327043030060466843181A0013088001
:1029CC006046059B754343435B191B134B800431D5
:1029DC007BE7C046ECFDFFFF76690108030070B58C
:1029EC00CC331D8886B0002D04D158210C48FF3102
:1029FC00FFF71EFF03008024CE3369461E8808F0C3
:102A0C0009FC009B290024017C20E41A0AF006F939
:102A1C00A41B010020000AF001F906B070BDC046ED
:102A2C00D966010870B504004069A3890200C2325E
:102A3C00013B12889BB29A4202D0FFF7CFFF70BDC8
:102A4C006589FFF7CBFF010028000AF06DF9081E1D
:102A5C00F5D16069F1E7F0B589B0019181894469DC
:102A6C000500012088429B415B420093E36E019E6E
:102A7C005A4253412200C03202921278DBB23243E6
:102A8C001E0056400396814203D8934231D109B0BF
:102A9C00F0BD2700C2373888013080B20AF044F903
:102AAC008EB23E8020000823EF5EFFF797FF46436F
:102ABC002800FFF7B7FF2300C833F7191860009AF6
:102ACC0004AB1A705A70039A01389A70029B0590E5
:102ADC0006971B78019A04A91A431300012228684F
:102AEC005340079308F0ABFB0028D0D0079BE3665C
:102AFC00CDE700200700E2E7F0B585B003AE150086
:102B0C00320004001F0008F01DFA00280DD03278A6
:102B1C00AA420CD00092094B094A0195546B002033
:102B2C004C33084A0849A047002005B0F0BD002FDF
:102B3C00FBD02000FEF7C0FCF7E7C04638020108C6
:102B4C0098030020A96901089965010810B50123B3
:102B5C000B22FFF7D1FF10BD13B56B469C1D002354
:102B6C0022001121238007F0CBFF20884005C00FE5
:102B7C0016BDF7B5154D04002B0030331B780E0035
:102B8C00032B06D900910300114A124904206F6BE4
:102B9C00B8472000FFF7E0FF021E0AD023000E4AC0
:102BAC000C4900206D6BA847200007F0D0FF0020D7
:102BBC00FEBD1021200006F031FA8022D200200048
:102BCC003243102106F02AFA0120F1E79803002085
:102BDC00D469010899650108F7690108F0B54469E1
:102BEC0000232200C232138053809380163A177848
:102BFC000832126887B00092E26E06000192009AC9
:102C0C000D009A4202D09F4200D0E3663000FFF7DD
:102C1C0009FF2300C8331860294B1A003032127890
:102C2C00032A04D95B6B274A27490420984706CD11
:102C3C002300306808F03CFB051E05D1204B234ACD
:102C4C005B6B2149984706E021493068FFF791FFFB
:102C5C00051E03D10025280007B0F0BD002F24D09D
:102C6C0031693068FEF7B2FB0028F3D0144B1A0020
:102C7C0030321278012A04D95B6B164A12490220B1
:102C8C009847009B002B10D0002302AA137053709E
:102C9C00012203930493019B02A9E36630688A70B6
:102CAC00059308F0CCFA0028D4D0054B1A0030322A
:102CBC001278032ACFD95B6B074A03490420C1E77A
:102CCC0098030020266A01084B6A01085F6A010814
:102CDC003A020000796A01089D6A0108F0B5444B7C
:102CEC00BBB003921A003032127804000E00032A93
:102CFC0004D95B6B3F4A4049042098476369BC2266
:102D0C0019000BA8256800930DF072F8349C00276D
:102D1C00A300013B309301230222219336AB1F7099
:102D2C00009B3192269720973897CC331B8872687A
:102D3C00029331680BAB280008F0BAFA2F4928002F
:102D4C00FFF717FFFA2104AAC900280008F0FAF8C7
:102D5C000190B8423AD002997C2009F05FFFA4049C
:102D6C00240C444305A90098366808F053FA059BD7
:102D7C003100E2182800FEF71BFB0600280008F0C3
:102D8C008BF9009805A908F045FA059B38005B0003
:102D9C00F6180E239C421CD825000E3D290009F084
:102DAC003DFF0E2201000020944217D8290009F0A3
:102DBC0035FF039B18800E4B1A0030321278032A11
:102DCC0004D95B6B0E4A0C490420984701983BB020
:102DDC00F0BD5A00B25A01338018DBE75300F35AA6
:102DEC0001325B1ADF17DB197B40C018DCE7C046E9
:102DFC0098030020C06A01084B6A01083A020000DF
:102E0C00E16A010870B5036B85691B6B416828008A
:102E1C009847074B041E05D15B6B064A0649984739
:102E2C00200070BDDB69002BFAD028009847F7E72B
:102E3C0098030020006B0108206B010870B5054D4C
:102E4C00AB689847041E03D16B6B034A0349984740
:102E5C00200070BD980300202F6B0108DA77010861
:102E6C0070B51E000C0015000B00013A09D20A4B7C
:102E7C006A009B6A21009847002E01D0013D05D2C3
:102E8C0070BD198849BA19800233EEE723885BBA02
:102E9C0023800234F2E7C046980300200133F0B5DA
:102EAC005F00144B15001A0085B003903032127875
:102EBC000E00032A07D900915B6B0F4A1C000F49C7
:102ECC0003000420A0470B4B5A68974206D95B6B52
:102EDC000B4A0A490020984705B0F0BDA023DB013E
:102EEC001E432E807A08002329000398FFF7B8FFB1
:102EFC00F2E7C046980300203D6B0108636B0108A4
:102F0C006D6B010810B5024B9B69984710BDC0460C
:102F1C0098030020F0B506008BB0080004930091D4
:102F2C000392FDF71FFD07000098FDF733FC00230B
:102F3C000293984203D0009B4C331B880293482386
:102F4C007B43483B0193594B00211A68019BD218D3
:102F5C00130042331970564B56491B685164059146
:102F6C00002B03D05B68002B00D094E0049BB36370
:102F7C00130041331D78002D51D15D70059B380035
:102F8C005364FDF797FB336BB0695B689847041E7D
:102F9C002DD039000B2008F0F7FD29000C2207A8D2
:102FAC000BF044FF3000059B404D0893019A2B68B1
:102FBC0004999A18336B1830DC6807ABA047041ED1
:102FCC0026D0019A2B689B18012241331A70374B7B
:102FDC00019A1B689B18190007AA1078089A4231AD
:102FEC0008705A6439000C2008F0CEFD05E0324B15
:102FFC00324A5D6B32493B00A8473800FFF782FF2D
:10300C00002C0CD1301DFDF7EFFA20000BB0F0BDF9
:10301C00294B2C4A5D6B2A493B00A847D7E7029BFA
:10302C00002B0ED0039B029A9A820E2307A80370E2
:10303C002022073B039947608360012408F02AF99A
:10304C00E3E70098FDF7C9FB0028EED0B569039BB8
:10305C00280014330093FDF72DFBB36B482101932B
:10306C003300694318330293104B48391B68F06ADC
:10307C005918336B9B689847041E06D0336B009A23
:10308C001B6901990298984704002800FFF73AFF42
:10309C00002CCAD1B6E7049A039900989847041EED
:1030AC00B3D0029B002BC0D0BCE7C0464805002023
:1030BC004C050020000080FF980300208D6B010858
:1030CC00206B0108C86B0108F0B5ADB004909022DC
:1030DC0008A80D000CF08CFE0FA8FDF791FB060064
:1030EC000FA82B9CFDF756FB002806D030000AF0E9
:1030FC003BF9211C09F060FA179008A8FDF7D8FCE1
:10310C00002802D100202DB0F0BD1D9B042B06D150
:10311C00414B424A5B6B424900209847F2E70FA8AB
:10312C00FDF738FB0028EDD00FA8FDF7CBFA0028EF
:10313C00E8D00FA8FDF764FB431E9BB2012B05D909
:10314C00042803D0344B374A5B6BE4E70FA8FDF738
:10315C0021FB041E03D06B2308AA9B181C780FA814
:10316C00FDF718FB002810D0002C0ED015AB1B78E7
:10317C00002B0AD0284B1A0030321278002A04D0C7
:10318C005B6B294A2649012098472B79049A274CD6
:10319C001372802221005200102005F0EDFE022255
:1031AC000190EC20FF322100800005F0E5FE019B30
:1031BC000700002B01D0002812D10198FDF736FA38
:1031CC003800FDF733FA00230193049B019A019810
:1031DC001A61174B049AD360431E9841C0B292E710
:1031EC00019B0FA91860030018330693E32304987E
:1031FC009B001830FD182B00069A7867FEF77CF9B7
:10320C003B006A897033041E1A8013D10198FDF7B4
:10321C0029FA0194D9E7C04698030020EB6B01080A
:10322C005A650108266C0108466C01088B6C010874
:10323C001D0B00080FA8FDF7ADFA0390002802D073
:10324C0015AB1B780393E3239B00FA5AAB899200CE
:10325C005B00934200D213006C89EA89A4186400C5
:10326C009C4200D21C000FA8FDF794FA0026B04235
:10327C0001D024AB1E88A64200D22600EB239B0073
:10328C00FE50039B3000002B05D0E3239B00F85A23
:10329C0080000A3080198622E849FF32FFF7CEFD04
:1032AC00EA239B00041EF850B0D01C3BFB185B8833
:1032BC009B00C31802930593039B002B02D0331D74
:1032CC00C31805933D00BB1D3B66FB1D7B66053398
:1032DC00BB660793043BFB66143580333A1DFC64D4
:1032EC00FD65BF650FA81C605A605D611C645C6461
:1032FC005D65FDF772FA002804D03B00FC33DC60FE
:10330C001C611D623B00FC33DC641C651D66C22322
:10331C005B00FC500433FC50079A1033FD500C3307
:10332C00FA502433FC500433FC501033FD50029AF5
:10333C003433FC500433FA501033FD502833FA5018
:10334C000433FA501033FD50039B002B0AD0A823F2
:10335C009B00FA50A6190C33059AFE50083BFA5004
:10336C001033FD50B823059A9B00FA500433FC50DF
:10337C001033FD502833FC500433FC501033FD50F7
:10338C002833FC502833FF502833FC18AC4B303317
:10339C001B78012B00D902E22300069A0FA9786F43
:1033AC00FFF7B8FD041E00D130E73B000024A54A0E
:1033BC00B0335A601C60A44BA44AFB673B1DDA6710
:1033CC00A34A0433DA67A34AB0335A60A24A0FA85F
:1033DC009A60A24ADA60A24A9A6300229A87FDF7A1
:1033EC00FCF9039400281AD00FA8FDF7D3F9002894
:1033FC0006D0662308AA9B181B781E22002B01D12D
:10340C00962252003B00F833B98D5A87954A19879A
:10341C00DA63954A5A60954A9A60954ADA603B009D
:10342C00944A3933FF339A63934A94495A60944AC5
:10343C000FA89A60934ADA607A6A19649A6792497B
:10344C00039A5964DA679149914A99645A67E3235C
:10345C009B00FC1823890293E688FDF79BF9139DCA
:10346C00002800D100253B008B218A4AB933FF3359
:10347C005A60894A1E649A60884AC905DA60029AC1
:10348C00281CDA6309F098F80021061C281C09F0A6
:10349C006BFD002800D186E1FC218905301C08F069
:1034AC00DFFD09F041FF3B00BF337D4AFF33D88776
:1034BC00063B9A638023A2889B00FB1892009A63B8
:1034CC00784A0FA85A60784A9A60784ADA60FDF711
:1034DC0061F9061E01D016AB1E780FA8FDF75AF93C
:1034EC00179C002800D100248F239B00FD18704BE3
:1034FC006B60704BAB60704BEB60002E00D155E1F4
:10350C006E49201C09F012FD0290002800D050E1F9
:10351C006B49201C09F01EFD002800D04BE1EC6328
:10352C00002E00D122E2674B64006408AB6366494D
:10353C00201C09F00FFD002800D0634C9121201CA9
:10354C00C90509F039F80BF01DFEDA21890509F0DF
:10355C0033F85E4909F030F8011C041C5C4809F092
:10356C005DF95C4909F05AF9051C011C201C09F095
:10357C00DDFC002800D122E10021201C07F055FAC7
:10358C000121061C201C07F050FA011C301C08F00D
:10359C0001FF514909F010F85049041C08F060FD76
:1035AC00211C09F009F84D49051C201C09F004F8F0
:1035BC00FE21890508F054FD011C281C08F0EAFEC8
:1035CC00011C041C08F0F8FFFE21890508F048FDD9
:1035DC000BF008FA011CFE20800508F0DBFE8121AF
:1035EC00051CC905201C09F0A1FC002800D1FBE03A
:1035FC00FE21201C890509F0ADFC002800D1E6E075
:10360C008A21281CC90508F0D7FFFC21890508F080
:10361C0027FD09F089FE44008020A3006343C00409
:10362C00C01A09F0EBFE0BF0DDF9FC21890508F05E
:10363C0017FD09F079FE029052E0C0468B6C010830
:10364C0098030020FDA90008758600082186000853
:10365C00BB8900082D050008D7040008CB0500081D
:10366C0069110008730100085901000805010008E0
:10367C00A3050008BD030008ED0500087102000851
:10368C0069030008C3050008C9010008AB05000860
:10369C00DF0F00085D870008ED860008C38900086D
:1036AC00CB8900085903000803030008BB05000878
:1036BC00F102000881020008B30500080938843BB8
:1036CC0008CAFD3E17110008DEFFFF3EDB0F494024
:1036DC00DB0FC93F2EBD3B33778D9F3FF304B53FC6
:1036EC009F258026AD007601002C00D0A0E09E2303
:1036FC00FC229B009205FA5008337E51FC50043397
:10370C00FC52C14BC14A5B6BC149002098470FA8C2
:10371C00FDF740F8002810D015AB1B78002B0CD00F
:10372C00A423BC499B00FB18149A5960BA49DA636C
:10373C009960BA4ABA499A63D960B4239B00FC18C1
:10374C00B84B0FA86360B84BA360B84BE360B84BA1
:10375C00A363C3239B00FE18B64BB363B64B7360D5
:10376C00B64BB360B64BF360D2239B00FD18B54B40
:10377C002B64B54B6B60B54BAB60B54BEB603B0052
:10378C007833BB634033BB670293FDF726F83B00ED
:10379C003933FF33002800D0EBE0029AEDE00FA89C
:1037AC00FDF7EAF8F8E5BF21090677E6FC24A40545
:1037BC00B5E6A84CB3E6FC24029EA405AFE60121B5
:1037CC00281C07F032F90021061C281CDBE68B2193
:1037DC00281CC90508F0F0FEFC21890508F040FC06
:1037EC0009F0A2FD040017E78C21201CC90508F084
:1037FC00E3FE291C08F0E0FEFC21890508F030FCF2
:10380C0009F092FD0300029043438020C004C01ACB
:10381C0009F0F4FD0BF0E6F8FC21890508F0CCFE6C
:10382C00FC21890508F01CFC09F07EFD040057E71B
:10383C00A3B2F21A92B210B2694678539F25098945
:10384C00AD005B007D19CB1AEB80C0235B011B1B09
:10385C005B00591A029B52006A80A8802981002BB8
:10386C0004D19E23039A9B00FA504AE7029B361B15
:10387C007600F01AA3005C43029B40435B43E418C0
:10388C00FC231B06E4186400001B09F06DFD061CEC
:10389C00200009F069FD311C08F07CFD6E49041C08
:1038AC0008F0DEFB051C301C0BF09CF8061C80207D
:1038BC00029B8001C01A400009F056FD011C301C0F
:1038CC0008F068FD6549061C281C08F075FE291CCB
:1038DC0008F072FE624908F0C3FB0BF083F8211C60
:1038EC0008F09CFF0BF07EF8011C301C08F064FE05
:1038FC005C49051C09F01AFB002835D1FE21281C57
:10390C00890509F027FB584C002822D0FE20291CE1
:10391C00800508F03FFD051C20002A1C09217C3085
:10392C0007F06AF8011C281C08F046FE011C4F48E1
:10393C0008F074FF4E4908F071FF4E4908F02AFD5B
:10394C009E239B00F8508F239B00FB18DB6B7B6343
:10395C00DDE620002A1C09217C3007F04DF8011C03
:10396C00281C08F029FEE8E74348E6E7434BAB6325
:10397C00E9E73A000299F8320A6013603B009C2296
:10398C0075335200FF33BB503C324433BB50802361
:10399C009B004432FB18BB508F239B00FB18483212
:1039AC00BB500FA8FCF7F6FE8F239B00002808D015
:1039BC0015AA1278002A04D0A4229200BA18FA5040
:1039CC005433FC50B4239B00FE503C33FD50B86B79
:1039DC0083689847041E06D10B4B294A5B6B294917
:1039EC009847FFF713FCB86BC3689847E123049A18
:1039FC009B00FA50019A244B5360244B9360244B48
:103A0C00D360FFF7E2FBC04698030020B66C0108B8
:103A1C003D620108898900083D850008A1850008E0
:103A2C0091850008D3050008450500089905000894
:103A3C00B70F0008BB040008ED0500086903000877
:103A4C00C30500088B0F000827850008BD840008FB
:103A5C00258500080938843B1AF6153FF304B53F59
:103A6C001AF6953F000080BF38020108DB0FC93FF2
:103A7C002EBD3B33DB0F49400000C07F0103000823
:103A8C00DF6C0108FF6C01085D1D0008491D000872
:103A9C0071060008F0B5A9B000908C2205A80C00A6
:103AAC000CF0A6F905A8FDF703F8002802D10020B8
:103ABC0029B0F0BD0CA8FCF76DFE0028F7D00CA8BF
:103ACC00FCF700FE0028F2D026AB1D88002D06D195
:103ADC00674B684A5B6B684900209847E7E78A2385
:103AEC0004AA9B181B78012B07D124AB1B88402BF5
:103AFC0003D95F4B614A5B6BEDE72379009A604C0D
:103B0C0013722100EC22102005F036FA05009020EB
:103B1C002100ED22400005F02FFA0400002D01D009
:103B2C0000280FD12800FCF781FD2000FCF77EFD5A
:103B3C000025009B009A1D61681E8541514BE8B21F
:103B4C00D360B5E703002600286000981833019372
:103B5C001830FC363300019A60670CA9FDF7CCFCD9
:103B6C002300728970331A80002803D12800FCF7D7
:103B7C008DFDDDE7F389B7899B185B007F009F42C1
:103B8C0000D21F000CA8FCF705FE0026B04201D0A5
:103B9C0021AB1E88BE4200D23E009822384952000A
:103BAC003000FFF74BF92300FC33D8610028DDD03F
:103BBC0022001E62A31D2366E31D63660533A36604
:103BCC00043BE366143202938033E064E265A4653F
:103BDC00274F1860231D0393211D883319601A6128
:103BEC00D8635C663B00260030331B781936FF36F1
:103BFC00012B34D83300019A0CA9606FFFF78AF9B6
:103C0C000028B3D02300204AB0331A601F4A20008A
:103C1C005A601F4B221DE3671E4B7830D3671E4B37
:103C2C00029AD36723001D4AB8331A641C4A5A609F
:103C3C001C4A9A601C4ADA60A063A36704F0EAFC91
:103C4C00002810D0A06BF434C3689847009B236005
:103C5C00164B6B60164BAB60164BEB6069E70CA810
:103C6C00FCF78AFEC6E77B6B134A144998477DE73D
:103C7C0098030020116D0108E6640108416D0108EC
:103C8C006C6D01081D0B000800004040FDA90008E8
:103C9C007586000821860008BB890008670F00089C
:103CAC0027850008BD84000825850008871D0008AD
:103CBC00531D000899060008DF6C0108956D01087A
:103CCC0070B5856904002800FCF7F4FC48216943B1
:103CDC000D4B48391B68E06A5918236BA66B9B681F
:103CEC009847002804D12800FFF70CF9002070BD7C
:103CFC002000236B31005B69183098470028F2D004
:103D0C000123E370F3E7C04648050020F7B5040033
:103D1C00FCF7E6FE002808D13B4B3C4A5B6B3C4968
:103D2C000020984700252800FEBD3A4F3B00683321
:103D3C001D78002DF0D0637A002BF4D063682A2B09
:103D4C00EAD83A0059006932885C00900028E3D127
:103D5C000130885452185278002A43D126002E4A3A
:103D6C0018361268002A02D09268002A46D1227EA8
:103D7C00022A1FD03000FFF7A3FF002832D0A37E09
:103D8C000193002B20D0237E012B10D1A36C002299
:103D9C009B69E169206B9847002823D0A36C206BAA
:103DAC009B6A984700281DD03000FFF72BF86368FA
:103DBC002A2B05D83A005B006932D31801225A70BD
:103DCC000023009563720DE0A36C206B9B6A9847EF
:103DDC00002807D0A36C019A9B69E169206B984776
:103DEC000028D0D163682A2B03D8002169375B00E7
:103DFC00D955009B002B00D18EE794E730009047FB
:103E0C000028EFD0D3E7C04698030020A56D010829
:103E1C00456F01080C0100204C050020F8B504008A
:103E2C00FCF75EFE00282DD01A4D2B0068331E784F
:103E3C00002E27D0637A002B22D163682A2B21D83D
:103E4C002A005B0069329F5C002F1BD10121995421
:103E5C00E37E002B03D0206BFFF754F8E776636802
:103E6C002A2B05D82A0059006932521800215170AA
:103E7C00012262722A2B03D89340002269355A55CD
:103E8C003000F8BD044B054A5B6B05490020984790
:103E9C000026F5E70C01002098030020BF6D0108F7
:103EAC00456F0108F0B50B688DB005AC060003201A
:103EBC0063600023207060613000A160E3602261C8
:103ECC0023766376A376FCF70BFEA57E002D0DD032
:103EDC006368002B02D0E368002B13D1224B234ADA
:103EEC005B6B234900209847002508E0A368002B52
:103EFC0008D11D4B1F4A5B6B1D49280098472800B1
:103F0C000DB0F0BD0028EFD0337A2278934207D061
:103F1C000092154A1649546B0020174AA047E3E754
:103F2C00277E002F04D03000FFF7F0FE071EDBD0F9
:103F3C00737A0393002B0CD00B4B104A5B6B0C4920
:103F4C00002098470025002FD9D03000FFF766FFDE
:103F5C00D5E701253369746105CB9047637E5D40DD
:103F6C00039B7361EFE7C04698030020DB6D0108EB
:103F7C00456F0108F86D01080D6E0108296E0108E6
:103F8C00124B10B51B780400002B12D00068FCF704
:103F9C00A7FD00280CD02068FFF740FF2068C368FD
:103FAC00002B00D098472068FCF79EFE002323606E
:103FBC0010BD074B1A0030321278002AF8D05B6B18
:103FCC00044A054901209847F2E7C0468C000020BE
:103FDC0098030020866701081665010813B5019047
:103FEC00FFF794FE041E18D111480BF031FB114859
:103FFC000BF02EFB0A200BF017FF01A8FFF7C0FFF8
:10400C00FCF780FF0C4B38331B78002B03D00B488C
:10401C004030FFF7B5FF200016BD09480BF018FB28
:10402C0008480BF003FB0A200BF0FEFE0124F2E71C
:10403C00D46801083F6E01080C0100208C0100209F
:10404C00AC6801085D6E010810B5024BDB6A98473D
:10405C0010BDC0469803002070B5061C15000C005E
:10406C00FFF7F2FF311C08F095F908F0A7FF030CDD
:10407C0080B22B60206070BDF7B50500FFF7E4FF40
:10408C00011C061C304808F085F9FC21890507F055
:10409C00E7FF08F093FF2D4984B2301C08F0BEFBFB
:1040AC002B4908F089FA2B4907F0DAFF08F086FF54
:1040BC002300103B9BB22881EF2B2BD9264B0021E0
:1040CC00301C5F6B08F032FF00281FD0234C2449B2
:1040DC00301C08F071FA234907F0C2FF061C08F0E7
:1040EC006DFF050009F08AF9011C301C08F096FBE5
:1040FC001D4908F061FA08F061FF0095019023005A
:10410C0000201A4A1A49B8470020FEBDFE21194C5E
:10411C008905DDE73F2C09D800226A802F2C00D9B5
:10412C002300AB80EA802C800120EEE701236B801A
:10413C00E308BF2C03D82300403BDB109BB2AB80C1
:10414C0007232340EB80EEE7F902154F8096984B3E
:10415C00E8385BB500007C4298030020DC80010845
:10416C00000080BFBD37063500247449766E010807
:10417C00A16E0108C472010870B50B6886B004000A
:10418C000E00062B0AD0062200920E4A0020546B19
:10419C000D490E4AA047002006B070BD03AD2800A3
:1041AC00FFF76AFF0028F7D0AB886360EB88A36049
:1041BC006B8823602B89A381B3882361F3886361A7
:1041CC00EAE7C04698030020F06E0108B26E0108C1
:1041DC00F0B58BB002AC076820000E001500FFF79D
:1041EC004BFF002803D1002420000BB0F0BD059735
:1041FC00638805AA5360A38803CE9360E388D360D9
:10420C00238913826B4607F0DAFC041EEBD0009B6B
:10421C00AB806B461B79EB8006232B60054B1A0099
:10422C0030321278012ADFD95B6B034A0349022032
:10423C009847D9E798030020046F0108F06E010835
:10424C00F0B50B6887B004000D00062B0BD00622CE
:10425C000092224A2249546B0020224AA047002691
:10426C00300007B0F0BD03AF3800FFF705FF061EA6
:10427C00F6D0BB886360FB88A3607B8823603B8996
:10428C00A381AB882361EB8863612B89A3616B8964
:10429C00E361AB8923622B8AA3846B8AE384ED8967
:1042AC00AD00ADB228003E3080B27B2812D97C2103
:1042BC0008F03AFD0022280001238DB21100E062C3
:1042CC002363032023640023A5626063A163E2637C
:1042DC006364C5E7032201210023F0E79803002063
:1042EC004B6A0108B26E010810B5FFF7ADFE011C58
:1042FC00041C054808F04EF80AF044FF011C201C71
:10430C0008F05AF910BDC046F902154F70B50400FB
:10431C00FFF7EAFF051C200009F026F8041CFE201C
:10432C00291C800508F036F8011C201C08F044F903
:10433C00034908F041F9FC21890508F03DF970BDED
:10434C00C2F38E4D70B5041CFFF7CEFF211C061C6A
:10435C00201C07F085FE051CFE20311C800508F092
:10436C0019F80C4908F028F9011C281C08F012F85F
:10437C000021051C201C08F0D9FD002807D1FC21C8
:10438C008905281C07F06CFE08F0CEFF70BDBF211C
:10439C000906F6E7C2F38E4DF0B5A1B008930B00F9
:1043AC0032331B7809900E000A92062B08D0092B89
:1043BC0006D0B44BB44A5B6BB4490020984747E134
:1043CC00099B30005D69FCF7E5F900283DD033000E
:1043DC002C331B78002B38D03000FCF7DBF9002491
:1043EC00A04201D03423F45E23B230000793FCF7D3
:1043FC00D1F90023A4B2984201D03622B35EE4185E
:10440C0023B230000693FCF7FBF9079A069B0100D8
:10441C009B1A180008F072FD0C1E0EDD994B1A0049
:10442C0030321278012A04D95B6B994A97490220E1
:10443C009847069B1C1B23B20693069B079A934234
:10444C0020DA904B934A5B6BB6E73000FCF7A2F98D
:10445C000027002800D0776A3000FCF79BF9002871
:10446C000ED0B06A391C07F0FBFD041C381CFFF79A
:10447C0069FF03B2201C0793FFF764FF03B2C0E788
:10448C000020EFE73000FCF785F9002805D0330059
:10449C006E331B78002B00D0E0E133002E331B78F9
:1044AC00002B00D1D7E0328E13B2013B07205B0109
:1044BC009BB2190052011A3A12B2D4170440A21836
:1044CC00D210D2000F398C1A079A24B2944200DC15
:1044DC00EEE06C4B10005B6B0893FFF717FF0021AD
:1044EC0008F024FD6C4F002800D16C4F0798FFF7A3
:1044FC000DFF051C0798FFF709FF002108F016FDBA
:10450C00002800D1ABE06649281C08F055F8654935
:10451C0007F0A6FD08F052FD09900798FFF7F6FE8C
:10452C00051C0798FFF7F2FE002108F0FFFC00289D
:10453C0000D197E05A49281C08F03EF8594907F079
:10454C008FFD051C0798FFF7E1FE061C0798FFF787
:10455C00DDFE002108F0EAFC002800D185E050497E
:10456C00301C08F029F84F4907F07AFD08F026FDB9
:10457C0008F044FF011C281C08F050F94A4908F0C7
:10458C001BF808F01BFD07902000FFF7BFFE002171
:10459C0008F0CCFC404B0693002801D13F4B06930E
:1045AC002000FFF7B3FE051C2000FFF7AFFE002133
:1045BC0008F0BCFC00285BD03949281C07F0FCFF34
:1045CC00384907F04DFD08F0F9FC05002000FFF715
:1045DC009DFE061C2000FFF799FE002108F0A6FCAA
:1045EC00002848D02E49301C07F0E6FF2D4907F073
:1045FC0037FD061C2000FFF789FE0A902000FFF70C
:10460C0085FE002108F092FC002837D024490A9836
:10461C0007F0D2FF234907F023FD08F0CFFC08F088
:10462C00EDFE011C301C08F0F9F81F4907F0C4FF1F
:10463C0008F0C4FC069B04900293079B0020019396
:10464C00099B1A4A00933B001049089C0395A0470C
:10465C00002021B0F0BD330032331A7824E7FE215C
:10466C00890551E7FE21890565E7FE21890577E774
:10467C00FE218905A1E7FE218905B4E7FE21890504
:10468C00C5E7C04698030020226F0108F06E0108B0
:10469C004D6F0108806F0108DC800108C4720108AD
:1046AC00000080BFBD37063500247449AF6F010888
:1046BC00303B1CB2069B9C4200DBCFE0CD4B0698F6
:1046CC005B6B0793FFF722FE002108F02FFCCA4F0B
:1046DC00002800D1C94F0698FFF718FE051C069854
:1046EC00FFF714FE002108F021FC002800D1A3E004
:1046FC00C349281C07F060FFC24907F0B1FC08F061
:10470C005DFC08900698FFF701FE051C0698FFF764
:10471C00FDFD002108F00AFC002800D18FE0B8490B
:10472C00281C07F049FFB74907F09AFC051C0698AE
:10473C00FFF7ECFD061C0698FFF7E8FD002108F0DA
:10474C00F5FB00287ED0AE49301C07F035FFAD4993
:10475C0007F086FC08F032FC08F050FE011C281C07
:10476C0008F05CF8A84907F027FF08F027FC09902F
:10477C002000FFF7CBFD002108F0D8FB9E4B0693E1
:10478C00002801D19D4B06932000FFF7BFFD051CAF
:10479C002000FFF7BBFD002108F0C8FB002854D017
:1047AC009749281C07F008FF964907F059FC08F0B8
:1047BC0005FC05002000FFF7A9FD061C2000FFF7F3
:1047CC00A5FD002108F0B2FB002841D08C49301C1B
:1047DC0007F0F2FE8B4907F043FC061C2000FFF7A4
:1047EC0095FD0A902000FFF791FD002108F09EFB3B
:1047FC00002830D082490A9807F0DEFE814907F084
:10480C002FFC08F0DBFB08F0F9FD011C301C08F054
:10481C0005F87D4907F0D0FE08F0D0FB069B04900C
:10482C000293099B03950193089B784A009378495E
:10483C003B000020079C0AE7FE21890559E7FE2171
:10484C0089056DE7FE2189057EE7FE218905A8E72C
:10485C00FE218905BBE7FE218905CCE73000FBF77B
:10486C00CFFF069B079A0B900B99981A08F060FAE9
:10487C00013083B230000D93FBF7CDFF0D9B5843F5
:10488C0083B230000F93FBF785FF0023984209D0C9
:10489C0032004F32330012785233511E8A411B883A
:1048AC00524213402A00B83213800F9AD318802238
:1048BC001201934203DD4F4B564A5B6B7CE5300093
:1048CC00FCF720F807003000FBF764FF06240028F3
:1048DC0002D0330032331C783000FBF75BFF03232C
:1048EC000D9A5A431092002804D032006A32127882
:1048FC00002A3BD1072047430D9B0D375F437C4378
:10490C00109BE3181793FFF7EFFCF421890507F0D0
:10491C0053FE18903000FBF73DFF002835D0179858
:10492C0008F06CFD746E071C0021201C08F012FBB3
:10493C0000282AD0211C189807F02CFD391C07F0F0
:10494C006DFF041C109808F059FD011C201C07F089
:10495C0021FDFC21890507F083FB08F0E5FC119093
:10496C0000280BDA234B2C4A5B6B25E5109A10932D
:10497C007A4317000F377C43D434C1E7274B984256
:10498C0004DD1C4B264A5B6B16E511902B00119A2B
:10499C00B6331A803000FBF7C9FF2B000F9ABA33DD
:1049AC001870063B1A8033002E331B78002B1CD05A
:1049BC00378E6A460124099B9F80079B1386099BAF
:1049CC00079A9C811A810D9A5A810B9B013B9BB2D1
:1049DC00072B06D80B99082008F090FA12910029A1
:1049EC0022D0044B0F4A5B6BE6E4330032331F7862
:1049FC00DFE7C04698030020DC800108C472010880
:104A0C00000080BFBD37063500247449EC6F0108E7
:104A1C00F06E01082970010889700108FEFF000082
:104A2C00AA700108CA7001083FB2013F7F01BBB2F6
:104A3C00199318006B460F381B8E80B21F1A3FB2A9
:104A4C00FB101C93069BFA10181A03B20E93A41AAF
:104A5C00DB10E418A4B223B20B990820139308F0CE
:104A6C0067F93B001590D94803400700002B04DA86
:104A7C000822013B5242134301331BB20C93002B0F
:104A8C0002DA08331BB20C930B990C9808F036FA27
:104A9C0050226B4614919B180021595E159B0E9861
:104AAC00013B1A931A9A0B9B38405343149A0700F4
:104ABC009B189BB21AB2002804DA0820013F40422E
:104ACC000743013738B20E90002802DA083000B2E2
:104ADC000E90139801286DD1844607000C988142E2
:104AEC0003D10E99571A7A1E97416246174000223D
:104AFC0000201692169AE41BA41A22B21592874231
:104B0C000AD0139A012A01D16B461B8F0C9A0B9970
:104B1C00981A08F00DF980B2099B05225C691C9B60
:104B2C002100DB00D31A199A8C310B60323A0C9BA2
:104B3C0012B29B184B602300149994338A1884C3C7
:104B4C002200159B1599DB175B1A9C32DB0F136047
:104B5C002300169AA0331A601A9A58609A600E9B1A
:104B6C00149A2700981A0B9908F0E2F80023159A6A
:104B7C00AC3738609A4201DD1300013BB03423603E
:104B8C003000FBF707FE2B007033002804D03200F6
:104B9C006A321278002A18D100221A702E233000A3
:104BAC00AB66FBF78DFE032815D8002308F022F81E
:104BBC000F1F23320C98091A4F1EB941CFB20E9910
:104BCC00521A511E8A41D2B292E70122E5E76B627A
:104BDC00AB62EB622B633000FBF7B1FE04282AD8E2
:104BEC000023012208F006F82020E7EA2400012225
:104BFC006B62AA62EDE73000FBF74CFE1EAA1FA900
:104C0C00FFF72AFA01236B620023AB621E9BEB6257
:104C1C001F9BDFE73000FBF73DFE1EAA1FA9FFF725
:104C2C001BFA01236B62F0E76A63AA63EB6302E091
:104C3C006A63AA63EA633000FBF7ACFD002307004C
:104C4C0098420BD0330050331B781B9333005233F4
:104C5C001B881D9333004F331F783B002A0008320A
:104C6C00D367002F03D01D9B8032013B13603000B3
:104C7C00FBF75CFE0124002800D0A1E0002F01D03E
:104C8C001B9B12932300129A300093432B64FBF767
:104C9C0044FE6040C0B26864AC643000FBF732FE86
:104CAC00012800D88EE00238EC6428653000FBF750
:104CBC0071FD0023984200D0F38F6B653000FBF739
:104CCC00DEFDA8653000FBF7C5FDE8653000FBF79D
:104CDC00A2FD28663000FBF793FDA8673000FBF7B8
:104CEC0073FD01246040C0B2099BE8679B886B662A
:104CFC00099B5B89013BEB66099B5B690C93B633A3
:104D0C001B886B67FFF7A0F92B1DD867FFF7ECFA30
:104D1C00071C0B9808F072FB061CFE20391C800542
:104D2C0007F038FB011C301C07F046FC0A9BB83519
:104D3C00D860119B10985843179BC01808F05EFB65
:104D4C00011C189807F026FB0A9B18610798FFF7BF
:104D5C00DDFA0A9B18600698FFF7D8FA0A9B1968C7
:104D6C00986007F05BFD0A9B0F9A5860DA8200236B
:104D7C000A9A0F9993821483089A132011805181F7
:104D8C000D99538011810F99138391800D99D480C3
:104D9C009182D182099914821FAA13800968230079
:104DAC0006F0FEFE2B88089A0333D38180235B0028
:104DBC00938120004DE46A63AB6337E76B63FBE7D9
:104DCC0012945FE70023EB642B656FE7070000800C
:104DDC00F0B59BB009930B0032331B7808900F0091
:104DEC000A92062B08D0092B06D0764B764A5B6BC1
:104DFC00764900209847C6E1089B38005D69FBF7AF
:104E0C00C9FC002398420CD03A004F3210783B007A
:104E1C000200511E8A4150331C7802331B885242C7
:104E2C0013402A00CE321380002800D020002B0023
:104E3C00D03318703800FBF7E3FC2B000026CC3382
:104E4C001880103B1E603800FBF770FD2B00012210
:104E5C00C0331870133B1A702800FDF7BFFD0D907E
:104E6C003800FBF797FCB0424FD03B002C331B783B
:104E7C00B3424AD03800FBF78DFCB04201D034234A
:104E8C00FE5E3800FBF786FC0023984201D03622E8
:104E9C00BB5E9B1907933B002E331B78002B00D174
:104EAC008BE03B8E38000B93FBF7AAFC0400012827
:104EBC0023D902280CD1F3070AD4424B1A00303202
:104ECC001278012A03D95B6B414A42499847013653
:104EDC00079B2100981B08F011F80C1E0DDD394BB7
:104EEC001A0030321278012A04D95B6B3A4A3949DC
:104EFC0002209847079B1B1B0793079B9E4271DD63
:104F0C00304B364A5B6B334973E73800FBF742FC96
:104F1C000024002800D07C6A3800FBF73BFC0028FA
:104F2C0043D0B86A211C07F09BF8079004F01CF9D9
:104F3C00211C0B90201C07F093F82949061C0B9898
:104F4C0007F03AFB011C301C07F024FA0021061C68
:104F5C00201C07F0EBFF002829D1FC218905301C0F
:104F6C0007F07EF808F0E0F9060004F0FDF8079968
:104F7C000B90081C07F074F81949041C0B9807F0E7
:104F8C001BFB011C201C07F005FA0021041C0798D0
:104F9C0007F0CCFF00280DD1FC218905201C07F05F
:104FAC005FF808F0C1F9079075E70020BAE7BF2158
:104FBC000906D4E7BF210906F0E73B0032331B7822
:104FCC0070E7C04698030020406401084B6A010852
:104FDC00E67001081B7101084D6F0108806F010814
:104FEC00C2F38E4D3800FBF7D5FB002805D03B00F3
:104FFC006E331B78002B00D0C2E1D74B9E4200DBF6
:10500C00D0E0D64B30005B6B079304F0C9F800215D
:10501C0007F08CFFD24F002800D1D24F300004F0A3
:10502C00BFF8041C300004F0BBF8002107F07EFF31
:10503C00002800D0AAE0FE218905201C07F0BCFA4C
:10504C00C94907F00DF807F0B9FF0890300004F0DB
:10505C00A7F8041C300004F0A3F8002107F066FF49
:10506C00002800D094E0FE218905201C07F0A4FA4A
:10507C00BD4906F0F5FF041C300004F091F8051C46
:10508C00300004F08DF8002107F050FF002800D00C
:10509C0080E0FE218905281C07F08EFAB24906F043
:1050AC00DFFF07F08BFF08F0A9F9011C201C07F0AB
:1050BC00B5FBAE4907F080FA07F080FF0990A648CF
:1050CC0004F06EF8002107F031FFA54C002800D148
:1050DC00A44CA14804F064F8051C9F4804F060F847
:1050EC00002107F023FF002856D1FE218905281C3A
:1050FC0007F062FA9C4906F0B3FF07F05FFF05006A
:10510C00954804F04DF8061C934804F049F800212A
:10511C0007F00CFF002841D1FE218905301C07F057
:10512C004BFA914906F09CFF061C8B4804F038F8AA
:10513C000A90894804F034F8002107F0F7FE0028A3
:10514C002ED1FE2189050A9807F036FA864906F019
:10515C0087FF07F033FF08F051F9011C301C07F0F2
:10516C005DFB824907F028FA07F028FF099B0490A1
:10517C000193089B002000933B0002947C4A7D49DC
:10518C00079C0395A04700201BB0F0BD7A4954E75B
:10519C0079496AE778497EE77749A8E77649BDE718
:1051AC007549D0E77C240B9B5B014B3B5C43079B15
:1051BC009C4200DBE4E0694B07985B6B089303F0BF
:1051CC00EFFF002107F0B2FE654F002800D1654FBC
:1051DC00079803F0E5FF051C079803F0E1FF002199
:1051EC0007F0A4FE002800D0AAE0FE218905281CA7
:1051FC0007F0E2F95C4906F033FF07F0DFFE099097
:10520C00079803F0CDFF051C079803F0C9FF002198
:10521C0007F08CFE002800D094E0FE218905281CA4
:10522C0007F0CAF9504906F01BFF051C079803F05C
:10523C00B7FF061C079803F0B3FF002107F076FEBA
:10524C00002800D080E0FE218905301C07F0B4F95D
:10525C00454906F005FF07F0B1FE08F0CFF8011C38
:10526C00281C07F0DBFA414907F0A6F907F0A6FE67
:10527C000A90200003F094FF002107F057FE384BF2
:10528C000793002801D1374B0793200003F088FFC8
:10529C00051C200003F084FF002107F047FE0028C6
:1052AC0054D1FE218905281C07F086F92E4906F0F9
:1052BC00D7FE07F083FE0500200003F071FF061CEB
:1052CC00200003F06DFF002107F030FE00283FD1D5
:1052DC00FE218905301C07F06FF9234906F0C0FE4A
:1052EC00061C200003F05CFF0B90200003F058FF1D
:1052FC00002107F01BFE00282CD1FE2189050B98FC
:10530C0007F05AF9184906F0ABFE07F057FE08F003
:10531C0075F8011C301C07F081FA144907F04CF9A0
:10532C0007F04CFE079B049002930A9B0395019394
:10533C00099B124A00930F493B000020089C21E76F
:10534C000D4954E70C496AE70B497EE70A49AAE77D
:10535C000949BFE70849D2E730FAFFFF980300205C
:10536C00DC800108C4720108BD370635002474497D
:10537C00AF6F01081B710108000080BFEC6F0108C2
:10538C003800FBF73DFA3B000B902E331B78002BBB
:10539C0045D03B8E6A46928EF40F0C92089AA01957
:1053AC0093807C2107F0C4FC089B041B1C81079B89
:1053BC00079ADB0F98187C210E9307F0B9FC0E9B13
:1053CC000B99C31A01331C1B089BA4B25C813000DF
:1053DC0007F094FD0B9BC818190007F08FFD089B74
:1053EC002000D9800C9907F09FFC0F9180B2002906
:1053FC0019D1089B98813800FBF7A1FA04003800FA
:10540C00FBF75EFA042C01D001280ED0089B0C9AF5
:10541C005B899A4209D2C84BC84A5B6B73E53B0067
:10542C0032331B78B6E70130E3E703F09DFE041C32
:10543C000B9807F0E3FF211C07F0BEF80A9BD8601D
:10544C00300003F0ADFE0A9B1860079803F0A8FE2D
:10545C000A9B1968986007F0E1F90A9B0B99586050
:10546C00079B981B07F064FC013083B27C200793E8
:10547C00079A0A9B0B99DA82089B9B890E930E9ACA
:10548C000A9B1A83089B5C89604307F0C7FB099B46
:10549C007C2118801C81300007F030FD7C31080025
:1054AC007C2107F02BFD08000B9907F041FC099BB0
:1054BC00079A58809A800B997C2007F0AFFB099BC8
:1054CC000E9AD8801A820C9BA34228D26B46998ED6
:1054DC00099B99820F9B002B04D00C99200007F09C
:1054EC0023FC89B2099BD9823800FBF753F90028B9
:1054FC0019D03B0046331B78002B14D00123AB642E
:10550C0000230024EB642C653800FBF7D9F9230049
:10551C0014AC03280FD807F06DFB0A1A1E2D099B3B
:10552C009C82DC82E0E70023AB640133E9E76B6526
:10553C00AB65EB652B663800FBF701FA042825D820
:10554C000023012207F056FB2020F0F3200001225B
:10555C006B65AA65EDE73800FBF79CF913AA2100EF
:10556C00FEF77AFD01236B650023AB65139BEB659E
:10557C00149BDFE73800FBF78DF913AA2100FEF727
:10558C006BFD01236B65F0E76A66AA663800FBF7D2
:10559C0001F90023060098420BD03B0050331B78D6
:1055AC0011933B0052331B8810933B004F331E78F2
:1055BC0033002A00B4321360002E02D0109B013B42
:1055CC0053603800FBF7B2F90123002803D1030024
:1055DC00002E00D0119B01229A43EA663800FBF79B
:1055EC009CF901235840C0B26B6728673800FBF761
:1055FC0089F90138A8673800FBF7CCF800239842EA
:10560C0000D0FB8FEB673800FBF739F92B1DD867FF
:10561C003800FBF7BFF80023984201D0BB1DDB8F8D
:10562C002A00013B0832D3673800FBF713F92B0033
:10563C00883318603800FBF7ADF8002802D03B0027
:10564C006D3318782B008D3318703800FBF7D8F8B1
:10565C002B00A43318603800FBF79CF80023984209
:10566C0002D03B006B331B782A009C32136038004D
:10567C00FBF790F80023984202D03B006C331B7868
:10568C002A00A03213603800FBF79EF82A00012391
:10569C00AC32537058402B001070089A903392889B
:1056AC001A60089B9B89012B43D9089B5869FDF70D
:1056BC0095F92B0001389433089A18600821525E32
:1056CC005A60089AD2885A61FEF7BEFC2B00B033A0
:1056DC001860E1230A9A9B0093822B00CC33198823
:1056EC007C2007F09BFA099B099A1B8921005843DF
:1056FC00099B588100232800138305F08BFD149B14
:10570C0008992380220001231320096806F048FA27
:10571C00CE3523882A8803339B18099A0120D3811C
:10572C0096231B0193812FE56A66AB662EE76B66A9
:10573C00FBE7089B5889BCE7980300203B710108E4
:10574C0070B5174C050023004433197800290ED18D
:10575C00144A1278CC2A05D1CB3A45341A702170F0
:10576C00023100E00121280003F06CFB70BD01291F
:10577C0011D120000B4A4530127802703E2A04D811
:10578C0003221A7045342178EAE7002228001A70A7
:10579C0003F058FBF6E70329E8D104221A70E5E779
:1057AC008C0100205004002010B5FBF72FFB006883
:1057BC0010BD37B50220FFF7F7FF022832D1214B7D
:1057CC009B6C01930198FEF729FB00282FD001A8B0
:1057DC00FEF7D6FBFBF796FB1B4809F039FF1B487D
:1057EC0009F036FF0A200AF01FFB194C38342378D5
:1057FC00002B16D0134D286CFEF710FB00281BD085
:10580C0028004030FEF7BCFBFBF77CFB00230E4866
:10581C00237009F01DFF0F4809F01AFF0A200AF047
:10582C0003FB37BD0428CDD1064BDB6CC9E70A4816
:10583C0009F00EFF0948D3E7074809F009FF0848AB
:10584C00EAE7C0468C010020AC6801086A710108C7
:10585C000C01002066710108D468010887710108E9
:10586C008371010810B50220FFF79EFF02280CD1AE
:10587C000C4B986CFEF7B2FB04000220002C01D1FB
:10588C008020400303F06CFB09E0042802D1054B97
:10589C00D86CEFE78020C00203F062FB00242000EC
:1058AC0010BDC0468C010020F7B5040028200E0066
:1058BC000192FFF779FFC1B22000FBF77DF922209E
:1058CC00FFF772FF012800D0C2E02230FFF76CFF17
:1058DC0007002000FBF726F90500FAF75BFF00280C
:1058EC0008D0032338002B7107F088FD684906F0B7
:1058FC0051FDA8602620FFF757FF07002000FBF79B
:10590C0011F90500FAF746FF002803D07B1E9F41D2
:10591C0047352F702520FFF747FF07002000FBF7C6
:10592C0001F90500FAF736FF002800D0AF633320E9
:10593C00FFF73AFF07002000FBF7F4F80500FAF731
:10594C0029FF002803D07B1E9F414E352F7020006D
:10595C00FBF7E8F80500FAF71DFF002806D0300029
:10596C0007F04CFD4A4906F015FD68622000FBF774
:10597C00D9F80500FAF70EFF002806D0019807F0B9
:10598C003DFD434906F006FDA8622420FFF70CFFFD
:10599C0007F034FD3E4906F0FDFC011C2000FBF72E
:1059AC0025F93020FFF700FF05002000FBF7BAF8BF
:1059BC000600FAF7EFFE002801D0EDB2B5873220D1
:1059CC00FFF7F2FE411E8841C1B22000FBF7E2F85E
:1059DC004020FFF7E9FE06002000FBF74BF80028FB
:1059EC0007D025692800FAF7D5FE002801D06035CC
:1059FC002E804120FFF7D8FE06002000FBF73AF876
:105A0C0000280CD025692800FAF7C4FE002806D01F
:105A1C00300007F0F3FC1E4906F0BCFC686642201F
:105A2C00FFF7C2FE06002000FBF7FCF8002820D090
:105A3C00002E16D0012E14D0164B1A0030321278CC
:105A4C00002A16D05B6B144A14490120984710E0C9
:105A5C00022800D04EE72000FBF764F8FAF779FF34
:105A6C0048E725692800FAF795FE002801D06A3529
:105A7C002E702920FFF798FE05002000FAF7FAFF98
:105A8C00002803D0A9B22069FAF7B0FEF7BDC046D2
:105A9C0000007A4498030020A8710108E66401080C
:105AAC00F0B5040085B00E00171E1ED102280ED1D1
:105ABC000620FFF779FE164809F0CAFD154809F0D3
:105ACC00C7FD0A200AF0B0F9002005B0F0BD12495C
